:020000040000FA
:0600000002011A0221902A
:03002B0002283D6B
:0300530002220680
:03006B000228095F
:1000830002203FE5C754F84401F5C7790122000077
:100093000080FB120086B90003020104E479217891
:1000A30008B800028004F709D8FCE479297802B87B
:1000B30000028004F709D8FCE490028178397909B9
:1000C3008002F0A3D8FCD9FA781B90014A7A01BACE
:1000D30000028007E493A3F608DAF97AB97B0A9061
:1000E300014B787A79038015E493A3AD82AE838ABA
:1000F300828B83F0A3AA82AB838D828E83D8E9D9C6
:10010300E77582A47583FF740112012C75829175C2
:100113008300740012012C75D00075813F7519811D
:10012300751A02759F00020096C09FF59FE473D075
:100133009F22D083D082C09FE493C0E0740193C018
:10014300E0740293F59F2201FF0000B40000280031
:100153002800283075A000A000A000A0000008001F
:1001630008E001F000100010001000100010001053
:100173000050005000500010001000D00700000095
:100183000000000F0001000500307507001000019A
:100193000081FF00000000FF5E067C066406FF028C
:1001A300020208025000A0000000E80302139001BD
:1001B30000000490021990010000100B023B900113
:1001C3000000B302021990010000110B021F9001FD
:1001D3000000C902021990010000120B02219001D4
:1001E3000000CB02021990010000130B02239008B8
:1001F3000000CC02021990010000140B02259001AB
:100203000000150BFFFF0100FF2002139001000007
:10021300FE8F0219900100007A0B02279000000064
:100223000000021B900300005B030C0D0C0D0C0D72
:100233000C0D0C0D0C0D0C0D0C0D0C0D0C0D0C0DF3
:100243000C0D0C0DE80F0010E20FFFFF1209426CBA
:100253006F6F6450726573737572652053656E7347
:100263006F720512C8004006020A0002010503026C
:100273001018426C6F6F64507265737375726520EA
:1002830053656E736F72000F0F0F0F0F0E780050D0
:10029300005A003C00013A120000201002021390A1
:1002A30001000001900219900100000B0C02339031
:1002B300000000D908021B90030000D30802199024
:1002C3000100000C0C023D90000000DA08021B90B4
:1002D300030000DB080219900100000D0C023190AD
:1002E300010000E108020202020202020202010D01
:1002F3000000001001021390010000FB8F0219900F
:10030300010000560C022B90010000E30802199033
:10031300010000570C022990010000138F0219906D
:10032300010000580C020D90010000058F02199086
:10033300010000590C020B90010000B58E021990C8
:100343000100005A0C020990010000918E021990DD
:100353000100005B0C020790010000A38E021990BC
:100363000100005C0C021D900100007F8E021990B9
:100373000100005D0C022F90010000F78E0219901E
:100383000100005E0C0239900100005F0C01E803DC
:10039300053F100AFF00013075030201060000004B
:1003A300000000000000000000000000000000004A
:1003B300000000000000000000FFFF0600800CE8C2
:1003C300031201351AE00312013530E0031201353F
:1003D3005FE00312013595E003120135ACE003122F
:1003E3000135C3E003120135FAE0031201354DE193
:1003F3000312013564E1031201357BE10312013578
:10040300AEDC03120135C5DC03120135F6DC031241
:10041300013531DD031201355BDD0312013585DD65
:10042300031201359CDD03120135B3DD03120135DF
:10043300CADD03120135F3DD0312013506DE0312B3
:1004430001351CDE031201352FDE0312013556DEA2
:1004530003120135008002120135048102120135B5
:10046300318102120135878102120135AA810212FC
:100473000135BE8102120135C08102120135E381CB
:1004830002120135E982021201352D84021201356F
:10049300F18402120135C685021201353786021234
:1004A3000135C38602120135C686021201354E8715
:1004B30002120135898702120135F08702120135D4
:1004C300F387021201352A8802120135538802127A
:1004D3000135FE8802120135888902120135D78958
:1004E30002120135E48902120135E789021201354E
:1004F300478A02120135528A02120135D18A021249
:100503000135D48A02120135E78A02120135EA8ADB
:1005130002120135798B02120135938B02120135D8
:10052300A38B02120135D38B02120135E08B021229
:100533000135E38B02120135648C02120135528DB1
:1005430002120135048E0212013546A7031201354A
:100553006EA7031201359CA703120135D3A703121B
:10056300013531A8031201357CA803120135C7A850
:100573000312013507A9031201354DA903120135F1
:100583007BA90312013538AA0312013542AA0312CB
:1005930001354FAA0312013582AA031201354EAB6E
:1005A300031201355AAB0312013572AB0312013545
:1005B3007CAB0312013500E6031201350EE603128C
:1005C300013526E6031201353EE6031201354AE8FA
:1005D30001120135F6E80112013571E90112013505
:1005E30092EA01120135CEEA0112013577EB0112CD
:1005F30001355EEC01120135C2ED0112013519EE30
:10060300011201359AEE011201358AEF011201350B
:10061300D7EF011201355DF0011201358FF00112A0
:100623000135A3F201120135E5F20112013503F39D
:100633000112013586F3011201355AF40112013515
:1006430022F501120135008003120135D380031214
:1006530001357C8103120135CF81031201357F827D
:10066300031201350B8303120135F783031201359E
:10067300268403120135398503120135818503125E
:100683000135568603120135928603120135AE8673
:10069300031201357DE903120135CEC4031201357E
:1006A300E4C4031201350AC50312013526C6031239
:1006B300013530C60312013565C7031201355DC824
:1006C30003120135939303120135C39403120135C9
:1006D300F69403120135409503120135079703126F
:1006E3000135855F0012013509600012013519607B
:1006F30000120135FF60001201353C610012013523
:10070300C861001201350B62001201351662001236
:10071300013500630012013563630012013519646A
:1007230000120135006600120135B9670012013568
:10073300956800120135496900120135866C001273
:100743000135346D00120135A36E0012013523709B
:1007530000120135CA700012013513710012013500
:100763004B7100120135E8710012013573720012EA
:1007730001357EC801120135E8C80112013547CAA7
:100783000112013557CA0112013584CA011201351C
:10079300DBCA0112013584CB011201358BCC011266
:1007A300013555CD01120135B5CE01120135F8CE13
:1007B300011201359DCF01120135EACF0112013536
:1007C30010D0011201351ED20112013523D20112BC
:1007D300013528D40112013575D401120135E8D44D
:1007E300011201351BD501120135BDD501120135A9
:1007F30066D6011201359ED601120135A1D601122A
:100803000135E9D60112013529D70112013580D707
:10081300011201353DCE0312013550CE03120135CD
:100823005ECE03120135A6CE03120135BCCE0312F0
:10083300013503CF0312013517D003120135A4D0BC
:1008430003120135EFD003120135E94600120135D9
:10085300F546001201353047001201357547001285
:100863000135354800120135BB4800120135E74810
:10087300001201352049001201355E4B001201358B
:10088300424D00120135284F001201356B50001202
:100893000135B95200120135CB53001201351655FB
:1008A3000012013526560012013543560012013558
:1008B3007E5600120135A05600120135035700126F
:1008C3000135C45B00120135595C00120135AA5C85
:1008D30000120135D15C00120135235D0012013590
:1008E300415D001201359B5D001201359A5E0012D5
:1008F30001351E5F00120135BEB003120135C8B0C9
:10090300031201350BB10312013526B10312013570
:10091300B6B103120135DEB1031201351BB2031266
:10092300013552B2031201357BB203120135F0B225
:100933000312013505B3031201351AB3031201354E
:100943004BB3031201355FB30312013584B30312B2
:100953000135BEB303120135EAB3031201356DB499
:1009630003120135B6B403120135E0B403120135A5
:100973000BB5031201350DE40312013547B802121A
:10098300013575B802120135C3B902120135A3BA94
:1009930002120135C2BA021201353FBB0212013500
:1009A30082BB02120135D8BC0212013599BD021275
:1009B300013520C002120135C1C002120135B7C191
:1009C30002120135B4C2021201350EC402120135FE
:1009D30099C4021201357E7E00120135E77E0012B2
:1009E30001353B7F00120135627F00120135937F91
:1009F3000012013533B503120135A0B503120135D9
:100A0300E7B503120135FFB603120135FBB7031235
:100A13000135DEB8031201353BF7011201357DF7CD
:100A2300011201354FF80112013528F90112013580
:100A330022FA0112013504FB011201356DFB01128B
:100A4300013523FC0112013597FC0112013503FD29
:100A5300011201352CFD01120135A6FD01120135EC
:100A63003FFE01120135A4FE01120135B9FE011248
:100A73000135FFFE0112013518FF011201357DFF1B
:100A83000112013580FF0112013567C803120135D8
:100A93008FC803120135CDC8031201358BC9031268
:100AA3000135F2C9031201350ECA0312013536CAE4
:100AB3000312013566CA0312013575CA03120135E3
:100AC300F2CA0312013518CB031201356DD8011296
:100AD30001350BDA0112013526DC0112013562DC26
:100AE300011201358FDC0112013574DD011201356C
:100AF300BBDD01120135FFDD0112013511DE0112EB
:100B0300013551DE011201357EDE01120135C9DEE8
:100B13000112013509DF0112013537DF01120135F9
:100B230089DF0112013519E001120135B7E2011223
:100B33000135CDE4011201350BE5011201359CE6C7
:100B430001120135E1E60112013558E701120135C1
:100B5300A2E70112013501E60212013580E6021215
:100B6300013542EC0212013551ED02120135B9EEA5
:100B73000212013550EF0212013542900112013584
:100B83008B9001120135B89001120135EB900112DF
:100B93000135F890011201350491011201351691C6
:100BA30001120135FD91011201355B9201120135EC
:100BB300909201120135D393011201352094011251
:100BC3000135449401120135B194011201356F9539
:100BD300011201352896011201359596011201354E
:100BE300479701120135579701120135DE9701121C
:100BF30001359D9801120135CA98011201354399B7
:100C030001120135A09901120135EA99011201354A
:100C1300809A011201354B9B01120135009C011290
:100C23000135759C01120135D69C01120135409D99
:100C330001120135799D011201351B9E0112013507
:100C43002B9F011201356B9F01120135889F011201
:100C53000135A79F01120135EE9F0112013513A043
:100C63000112013540A001120135BAA0011201356C
:100C7300FBA0011201351FA201120135CFA20112FF
:100C8300013526A30112013590A301120135A9A351
:100C93000112013537DC021201358ADC02120135FB
:100CA30096DC021201356BDD0212013592DD021270
:100CB3000135CDDD0212013539DE0212013575DE53
:100CC30002120135AEDE02120135C6DE0212013513
:100CD3001BDF0212013534DF021201357DDF021200
:100CE300013590DF02120135AADF02120135C0DFA0
:100CF30002120135F3E0021201353AE20212013524
:100D03003CE30212013536E4021201356528001274
:100D1300013510AB0212013540AB0212013508AFA9
:100D2300021201355FB00212013528B102120135FA
:100D3300A8B20212013579B302120135B6B3021219
:100D43000135D9B30212013517B40212013520B4AB
:100D5300021201356AB40212013574B4021201356C
:100D63001EB502120135F7B5021201354BB6021258
:100D73000135ADB60212013500B7021201352FB7A6
:100D8300021201356CB702120135F1B601120135B9
:100D930058BA011201355EBA01120135E0BF0112E2
:100DA300013559C4011201352FC80112013534C16F
:100DB30003120135AAC103120135C0C10312013563
:100DC30001C2031201353BC203120135B4C203123F
:100DD3000135EFC20312013562C303120135A0C30B
:100DE30003120135A9C303120135B5C3031201353B
:100DF300D1C303120135FCC30312013512C403121C
:100E030001353BC4031201359EC40312013583A28D
:100E13000312013596A203120135B0A20312013564
:100E2300D9A2031201351CA3031201355BA30312DC
:100E3300013599A303120135FEA30312013513A44F
:100E4300031201351EA4031201352BA4031201352D
:100E530042A40312013550A4031201355BA403120B
:100E6300013567A4031201357AA40312013585A461
:100E730003120135A8A4031201354FA5031201354E
:100E83005FA50312013579A50312013596A5031257
:100E93000135B2A503120135D7A503120135E2A529
:100EA30003120135F7A5031201350BA60312013511
:100EB3006CA60312013572A60312013578A603123C
:100EC30001357EA60312013596A603120135C9A684
:100ED30003120135E69C021201356A9D02120135A7
:100EE300199E02120135789F0212013599A102124F
:100EF300013585A202120135BAA202120135DCA224
:100F0300021201358BA30212013583A502120135AA
:100F1300ACA5021201353EA60212013570A60212DB
:100F230001357DA602120135D4A602120135FAA6B7
:100F33000212013567A9021201356AAA02120135AC
:100F4300C2AA02120135758E021201357F8F021279
:100F530001356690021201357090021201359290AC
:100F6300021201359E9002120135379202120135A9
:100F7300669202120135829302120135DB9302124B
:100F830001354195021201352096021201357C96F6
:100F930002120135E9960212013524970212013536
:100FA3006397021201351C9A02120135369A021216
:100FB3000135C29A02120135D09A02120135299BDA
:100FC30002120135379B02120135AA9B0212013529
:100FD3000E9C02120135589C021201355073001207
:100FE3000135727300120135987500120135AD7821
:100FF30000120135C57900120135787A00120135E6
:101003005A7B0012013568DE031201358DDE0312AF
:101013000135FFDE031201351BF70212013524F7F8
:10102300021201352DF70212013504F802120135BF
:10103300B5F902120135EBF90212013525FA021254
:1010430001355BFA0212013595FA02120135C9FA2C
:1010530002120135F5FA021201353EFB0212013587
:1010630078FB02120135C1FB0212013519FC021291
:1010730001354EFC02120135A9FC02120135E3FCD5
:101083000212013534FD021201356AFD02120135E7
:10109300A4FD02120135D2FD02120135F5FD021243
:1010A3000135A5E703120135D1E7031201352CE819
:1010B3000312013536E80312013546E80312013500
:1010C3007AEF021201358FEF02120135E7EF0212B8
:1010D30001354EF00212013596F0021201350CF182
:1010E300021201353BF10212013549F102120135B9
:1010F300ADF102120135EBF10212013506F20212D3
:1011030001359EF20212013547F302120135CAF38B
:101113000212013503F4021201358EF40212013575
:10112300E5F40212013544F50212013556F50212B7
:1011330001357CF50212013585F502120135E4F61D
:101143000212013550E803120135618D0312013596
:10115300408E031201359C8E03120135B68E0312A5
:101163000135C78E03120135C29103120135E29195
:10117300031201356FD603120135B4D603120135BC
:10118300FAD6031201358DD803120135D7E60312BF
:101193000135F2E60312013502E70312013559E77F
:1011A30003120135238703120135438703120135E7
:1011B300478803120135938803120135B38803125C
:1011C3000135068903120135738903120135B98983
:1011D300031201351D8A03120135CF8C0312013529
:1011E300508D0312013593E103120135C3E103125C
:1011F3000135F3E10312013513E2031201356DE208
:10120300031201351AC5021201353EC70212013518
:10121300ACC802120135E4C80212013589C90212B1
:101223000135C7CB0212013548CC02120135ACCCD3
:101233000212013549CD02120135C8CD0212013522
:10124300C4CE02120135E2CE021201358DCF021255
:101253000135BECF02120135DAD0021201359CD11D
:101263000212013582BD03120135E0BD03120135BF
:10127300F3BD03120135FCBD031201355BBE03123E
:101283000135ACBE0312013568BF03120135ECC052
:101293000312013503AC0312013528AC03120135E7
:1012A300F3E8031201357028001201357E2B00127A
:1012B30001353E2D00120135E92D001201358D2E29
:1012C30000120135262F00120135552F001201356A
:1012D300C12F001201359B3400120135463500122F
:1012E3000135B636001201351E3700120135D237EB
:1012F30000120135943A00120135D33A0012013538
:10130300473B00120135A63B00120135053C001294
:101313000135743C00120135673D00120135AD3DC6
:1013230000120135F23D00120135153E0012013560
:10133300903F00120135A33F00120135AC4000126B
:101343000135EB40001201351741001201356A41A6
:10135300001201358B4100120135CF4100120135D6
:101363002144001201356244001201350D4500127B
:101373000135784500120135B54600120135E8FF05
:1013830002120135C6D30312013561D603120135AA
:10139300B0EA03120135D5E203120135E5E2031287
:1013A3000135FFE20312013507E40312013560CB77
:1013B3000312013506CC0312013522CE0312013587
:1013C30095FE02120135C7FE0212013527FF0212F4
:1013D30001353EFF021201359AFF02120135D7FF94
:1013E30002120135DAFF02120135BA9803120135F0
:1013F300D998031201356E99031201355E9A0312CF
:101403000135BB9C031201351B9D03120135849DDD
:1014130003120135F87F0012013519D1031201358A
:1014230010D3031201357CD303120135C3D3031246
:101433000135D1D8031201353AD903120135F8D950
:101443000312013577DA03120135A0B9031201350E
:10145300D2B903120135DABA03120135FFBB031205
:101463000135BBBC03120135CED102120135B4D212
:101473000212013501D30212013544D302120135A0
:10148300B9D3021201351AD4021201358FD40212D4
:1014930001356BD50212013576D602120135F7D626
:1014A300021201359ED80212013534D902120135D8
:1014B300A7D90212013523DA021201353ADA0212F0
:1014C300013571DB02120135CBDB02120135DBA3DF
:1014D3000112013573A80112013547AB0112013521
:1014E30070AB0112013599AB011201354BAC0112FE
:1014F300013531AE011201356CAF01120135A2B4D1
:1015030001120135DBB4011201351FB5011201359A
:1015130031B60112013526E503120135D0DA031283
:10152300013554DC03120135A29D03120135C39D1D
:1015330003120135129E0312013501EA031201352C
:1015430084EA03120135D97F00E066701008A3E036
:1015530066700A08A3E066700408A3E06622C3E786
:10156300960809E7960809E7960809E79622C3E073
:101573009608A3E09608A3E09608A3E09622C00885
:10158300C3E096F50808A3E096420808A3E0964254
:101593000808A3E09645087001D3D008220808087C
:1015A300EAC0E0EBC0E086F0E7A4FA180986F0E7AA
:1015B300A42AFA180986F0E7A42AFA180986F0E79C
:1015C300A42AFA1986F0E7A4FBE5F02AFA1908869B
:1015D300F0E7A42BFBE5F03AFA190886F0E7A42B11
:1015E300FBE5F03AFA18180986F0E7A4C5F02BFBDF
:1015F300E43AFA1908E7C5F0C6A426F6E5F03BFB82
:10160300E43AFA1886F0E7A4F6E5F00826F6E43B98
:1016130008F6E43A08F6D0E0FBD0E0FA22E4CFC0C3
:10162300E0E4CEC0E0E4CDC0E0E4CCC0E075F0205F
:10163300E626F608E633F608E633F608E633F61848
:101643001818EC33FCED33FDEE33FEEF33FFC3EC40
:101653009709ED9709EE9709EF97191919400FFFAD
:10166300EC97FC09ED97FD09EE97FE191906D5F0E5
:10167300BFECF709EDF709EEF709EFF7191919D0E0
:10168300E0FCD0E0FDD0E0FED0E0FF2260160808C9
:1016930008C6C313C618C613C618C613C618C6137E
:1016A300C6D5E0EA2270090808082260161818183F
:1016B300C6C333C608C633C608C633C608C633C650
:1016C300D5E0EA22E627F60809E637F60809E63701
:1016D300F60809E637F622E026F608A3E036F60810
:1016E300A3E036F608A3E036F622E026F008A3E0EE
:1016F30036F008A3E036F008A3E036F022C3E697FD
:10170300F60809E697F60809E697F60809E697F654
:1017130022C3E096F008A3E096F008A3E096F00851
:10172300A3E096F022E056F608A3E056F608A3E0FD
:1017330056F608A3E056F622E056F008A3E056F06A
:1017430008A3E056F008A3E056F022E0F608A3E071
:10175300F608A3E0F608A3E0F622E6F008A3E6F015
:1017630008A3E6F008A3E6F022E0FAA3E0FBA3E077
:10177300FCA3E0FD22EAF0A3EBF0A3ECF0A3EDF071
:1017830022CAC0E0E6F0A308DAFAD0E0FA22CAC01F
:10179300E0E0A3C582CCC582C583CDC583F0A3C5D4
:1017A30082CCC582C583CDC583DAE6D0E0CA22C325
:1017B300E498F8E499F91217F38026C3E49AFAE45B
:1017C3009BFBE920E7E91217F3E498F8E499F9227F
:1017D300C3E498F8E499F91217F3E498F8E499F953
:1017E300C3E49AFAE49BFB22EB20E7CFE920E7E08E
:1017F300B90010BB0008E88AF084F8AAF022E4FBE1
:10180300C8FA22EB70227B10C833C8C933C93350DE
:1018130007C39AC3DBF280069A50012ADBEAC83376
:10182300F4C8C933F4C9FA2275F008E4C833C8C947
:1018330033C933C99AC99B5004C92AC93BD5F0ECB3
:10184300FBC833F4C8E4C9FA22600D08C6A2E71343
:10185300C618C613C6D5E0F322600C08C6C313C668
:1018630018C613C6D5E0F422700422600D18C6C34F
:1018730033C608C633C6D5E0F41822251910AF08BD
:10188300F519400C151A8008F5194002151AD2AF44
:101893002200C0D0251910AF08F519500C051A8085
:1018A30008F5195002051AD2AFD0D0222519F582B6
:1018B30010AF08F519400C151A8008F519400215E8
:1018C3001AD2AF851A83222519F582E4351AF583D6
:1018D30022E4732519C582C0E0E51A34FFC583C02D
:1018E300E0E519C3958224F810AF0885831A858231
:1018F30019800885831A858219D2AFCEF0A3E5201B
:10190300F0A37808E608F0A3DEFAEFF0A3E581245C
:10191300FAF8E608F0A3E608F0A3E608F0A308083F
:10192300E608F0A3E608F0A315811581D0E0FED008
:10193300E0F8158115811581E8C0E0EEC0E02225AD
:1019430019C582C0E0E51A34FFC583C0E0E519C3B9
:10195300958224F910AF0885831A8582198008853A
:10196300831A858219D2AFCEF0A3E520F0A37808BD
:10197300E608F0A3DEFAEFF0A3E58124FBF8E6081E
:10198300F0A3E608F0A30808E608F0A3E608F0A32E
:1019930015811581D0E0FED0E0F815811581E8C0EE
:1019A300E0EEC0E022851A83851982E0A3FEE0A35E
:1019B300F5207808E0A3F608DFFAE0A3FFE0A3C070
:1019C300E0E0A3C0E0E0A3C0E0E0A3C0E0E0A3C088
:1019D300E010AF0885821985831A800885821985EE
:1019E300831AD2AFD083D082020132851A8385193C
:1019F30082E0A3FEE0A3F5207808E0A3F608DFFA6F
:101A0300E0A3FFE0A3C0E0E0A3C0E0E0A3C0E0E008
:101A1300A3C0E010AF0885821985831A80088582E8
:101A23001985831AD2AFD083D08222C0D02519C59D
:101A330082C0E0E51A34FFC583C0E0E519C395828F
:101A430024F310AF0885831A858219800885831AC9
:101A5300858219D2AFC8F0A3E9F0A3EAF0A3EBF0B3
:101A6300A37908E709F0A3D8FAECF0A3EDF0A3EE0D
:101A7300F0A3EFF0A3D0E0F0A3D0E0F0A3D0E0F028
:101A8300A3E520F0A3E5F0F0A322851A838519824C
:101A9300E0C0E0A3E0F9A3E0FAA3E0FBA37808E049
:101AA300F608A3DFFAE0FCA3E0FDA3E0FEA3E0FF5A
:101AB300A3E0C0E0A3E0C0E0A3E0F5D0A3E0F520FD
:101AC300A3E0A3F5F010AF0885831A858219800877
:101AD30085831A858219D2AFD082D083D0E0F8D023
:101AE300E03274048006740280027401C0E0F404DE
:101AF3001218AFD0E0121784227404800474028099
:101B030000CCC0E0EDC0E0E519C39CCCAD1A500198
:101B13001D10AF068C198D1A80068C198D1AD2AF41
:101B2300121791D0E0FDD0E0FC22D083D082E9C02F
:101B3300E0E493A3C386F0C5F095F0F908E493A31A
:101B430086F0C5F095F0700BE493A3C3994005E9C3
:101B5300048002A3E475F002A42582F582E5F03542
:101B630083F583D0E0F9E493A3C0E0E493C0E022DB
:101B7300D083D082ECC0E0EDC0E0E493A3FCE49317
:101B8300A3FDED4C600D121BBFEC24FFFCED34FFF5
:101B9300FD80EFE493A3FCE493A3FDED4C600D12F1
:101BA3001BFEEC24FFFCED34FFFD80EFD0E0FDD005
:101BB300E0FCE493A3C0E0E493C0E022C0E0C3E40C
:101BC3009396087401939618400FE493667008087F
:101BD300740193661870007019A3A3C3E493960865
:101BE3007401939618A3A3400DD0E0D0E0D0E00297
:101BF3001BAFA3A3A3A3A3A3D0E022C0E0C0F0889C
:101C0300F0E4936670080874019366187000A8F0F6
:101C1300A3A3700BD0F0D0E0D0E0D0E0021BAFA3C1
:061C2300A3D0F0D0E02286
:101C2C0074F5121942EAFEEBFFEE2434F8EF34009F
:101C3C00F988088909EE2435121D58F8EE2437125C
:101C4C001D58F50AEC850AF0A4FCAAF0850AF0ED03
:101C5C00A42AFDE82CF8E43DF97A257B001217F351
:101C6C00EA850882850983F074075AF87401B80074
:101C7C00028004C333D8FCFBEA131313541FF8EE91
:101C8C0028F8EF3400F9E8245DF582E9121D5B5B5E
:101C9C006003EA801CEE2436121D58F5F0EA84A885
:101CAC00F0EE28F8EF3400F9E82438F582E9121D3B
:101CBC005BF97F040219EE74F5121942EAFEEBFF90
:101CCC00EE2434121D58C0E0EE2435F582EF3400BA
:101CDC00F583D0E0F08E828F83A3A3A3A3A3E0FAB5
:101CEC00A3E0FB8E828F83A3A3A3A3A3A3A3E0FCF7
:101CFC00A3E0FDECC39AF50AED9BF50BEE247FF502
:101D0C0008EF3400F509850882F583E06401702B37
:101D1C00EE2480F582EF3400F583121B00121D6156
:101D2C007402121894E960137C1E7D05EEFAEFFB29
:101D3C00120C34850882850983E4F0AC0AAD0BEEF5
:101D4C00FAEFFB121C2C1227F5021CBEF582EF34A5
:101D5C0000F583E022C082C083851982851A83E056
:101D6C00F8A3E0F9C3EA9CEB9D5010C3EC98ED99F5
:101D7C00401BC3EA98EB995014800EC3EA98EB9978
:101D8C004007C3EC98ED994004790180027900D0AA
:101D9C0083D08222EAC39CFAEB9DFB2274ED1219CC
:101DAC00429003E4E064086005E06407702C9061E5
:101DBC00C8E06026900412E0F874FF68601CE875B7
:101DCC00F003A4C8AAF02AF9741428FE740439FF8D
:101DDC008E828F83A3A3A3E070057900021F48EEC7
:101DEC002468F510EF3400F511906060E0851082E6
:101DFC00851183F0750A87750B0575080075090048
:101E0C00E5D914F50EE5D95403F50F601CEE2482C8
:101E1C00F50CEF3400F50D7403650F6058E50E609A
:101E2C0013EE2467121D58700B793DEEFAEFFB127E
:101E3C000C5880A6900582E064016026850C828592
:101E4C000D83E06004780480027800850E08E508B4
:101E5C00C398FA95E0FB120ADE8A088B09EA450959
:101E6C007006120EB6021DE6850C82850D83E0709D
:101E7C00048A0A8B0B78008016E5D9C0E08812E53D
:101E8C000A2512F582E50B3400F583D0E0F008E862
:101E9C00C3950E40E4850C82850D83E0602874FCAC
:101EAC00250EF50E780A121AE9AC0EA90FEEFAEF10
:101EBC00FB120D067402121894E9700AAA08AB09F9
:101ECC00121438021E357403650F6058850E0C759C
:101EDC000D00780C121AE9AC0AAD0BAA08AB09126A
:101EEC000CCA7402121894851082851183E0F87460
:101EFC0080687005750C7F8002880CE50CF50A78FB
:101F0C000A121AEDE50FF50A780A121AEDA90EACB1
:101F1C0008AD09900412E0FA7B00120976740212E3
:101F2C00189480139003E4E06408600BAC0AAD0BCA
:101F3C00EEFAEFFB120D9C120EC279017F0C021906
:101F4C00EE74F312194274FC12187EEAFEEBFF8950
:101F5C0008A2AFE433F509C2AFEE2463F50AEF34FF
:101F6C0000F50B8010AA0AAB0B120C8212143890DD
:101F7C000525E004F0850A82850B83E0F8A3E0F9DF
:101F8C00E849602FE82402FAE93400FBEA2402F560
:101F9C000CEB3400F50D780C121AE98A828B83E075
:101FAC00FCA3E0F9EEFAEFFB120C76740212189413
:101FBC00E960B2900525E06057900526E0F89005A1
:101FCC0025E0C398500C740265087044900527E016
:101FDC00603E8E828F83A3A3A3A3E0851982851A0A
:101FEC008312202C74021218CAE812202C9005249B
:101FFC00E028F074021218CAAC82AD838519828570
:10200C001A83AA82AB837901120982900525E4F028
:10201C00E509A2E092AF74041218947F060219EE3F
:10202C00F0A3E4F0900525E0F822000085218785D7
:10203C0022C622C0E074EF121A2EA2AFE433FEC205
:10204C00AF759B00906182E0A2E05012E591A2E096
:10205C00500C7591FE740165217003121DA8E0A24D
:10206C00E55051E591A2E5504B7591DF9003E4E00A
:10207C0064076005E064087023740165217035798C
:10208C0001900412E0FA75F003A4CAA8F028FB74BE
:10209C00142AFA74043BFB121F4D8018E0640D7077
:1020AC0013900406E004F064287002E4F07A00E077
:1020BC00F9120EC8906182E0A2E64003022166E5A7
:1020CC0091A2E640030221667591BF9003E4E0649F
:1020DC00057008120DDE120DEA8003120DE4752155
:1020EC0000120E56E99003E5F07900120E4A120B1D
:1020FC009E7A017B009003E3E0F912111A907803A9
:10210C00E064427055900586E014F0704DC2AF1239
:10211C00211E00782AD0E0F618D0E0F6E59F54078F
:10212C0070057509FF800375097FC4C0E07829E646
:10213C00F50808E65509F509740B780812185CD0F7
:10214C00E02508F8906270E0A2E740F8E8C333900D
:10215C006272F0906270E0D2E0F0906181E0A2E3F4
:10216C005009E5E9A2E3500375E9F7A3E0A2E750B3
:10217C0009E591A2E7500375917FEEA2E092AF7F43
:10218C0004021A8DC0E0C0D0C082C083906183E08D
:10219C00A2E05009E5BFA2E0500375BFFEE0A2E14A
:1021AC005009E5BFA2E1500375BFFDE0A2E2500962
:1021BC00E5BFA2E2500375BFFBE0A2E35009E5BF07
:1021CC00A2E3500375BFF7E0A2E45009E5BFA2E417
:1021DC00500375BFEFE0A2E55009E5BFA2E550033F
:1021EC0075BFDFE0A2E65009E5BFA2E6500375BF5C
:1021FC00BFD083D082D0D0D0E032C0E074F2121ABB
:10220C002EE5A7A2E4500FE5A1A2E4500953A7EFD5
:10221C0075A1EF12225AE5A7A2E5500CE5A1A2E5A3
:10222C00500653A7DF75A1DFE5A7A2E15009E5A190
:10223C00A2E1500375A1FDE5A7A2E2500CE5A1A215
:10224C00E2500653A7FB75A1FB7F01021A8D74F8AF
:10225C001219427521019003E4E0640670077A00BC
:10226C007B00120DC6A2AFE433FED2AF9003EAE0BE
:10227C00640170187A207B009003E3E0F91211C816
:10228C007A207B009003E3E0F9121120906182E048
:10229C00D2E6F0900583E0602185C622801690037B
:1022AC00E9E064017008E5C654F84405F5C653BE70
:1022BC00FC1220387401652160E4EEA2E092AF7F3D
:1022CC00010219EE8E238F24858228858327851998
:1022DC0082851A83E0CEA3E0CF852882852783EB05
:1022EC00C9EAC8EDCBECCA75F010C3E833C8E933C2
:1022FC00C9EA33CAEB33CBC3EA9EF526EB9FF5252F
:10230C00B35004AB25AA26EC33CCED33CDD5F0DAA3
:10231C00AE23AF242274E912194274FA12187EEA21
:10232C00FEEBFF8C088D099003E4E024F7C39405C1
:10233C00500675100102244C120D3C8A0A8B0BEAD4
:10234C00450B7003022449120DFC8A0C8B0D120DE7
:10235C00FCEA650C7003EB650D60ECEEFCEFFD85A3
:10236C001982851A83AA82AB83120E02850A828592
:10237C000B83A3A3780C12174E908F67780C12174F
:10238C0028851982851A83781412174E908F6778D6
:10239C0014121728780C7914121561501F780C79C7
:1023AC0014121700908F5B780C1215814047850C26
:1023BC0010850D11850E12850F138045908F5B854E
:1023CC0014108515118516128517137810790C12B7
:1023DC0017007810121581501C75100075110075BE
:1023EC001200751301781079141217007810790CFB
:1023FC001216C7800C75100175110075120075133B
:10240C0000740978101216A8908FCB780C12174E06
:10241C007810790C1216209003E4E06408600AE04E
:10242C0064066005E064057020908F5F78101215CB
:10243C00815016908F6378101216DA800C7510008C
:10244C007511007512007513008508828509837853
:10245C001012175D74061218947F100219EE74F79F
:10246C00121942120E14900581E0640170109062F2
:10247C0045E4F0A3F053F4F343FE0C5390F3120D28
:10248C00B4E5C654804449F5C6E59E547F64497052
:10249C00F8906185740FF090057FE0F47002A3E072
:1024AC00602C75080175090090057FE078081218FA
:1024BC006BE508F4FAA3E0600814600A14600C8061
:1024CC000DEA52808008EA52908003EA52A079000B
:1024DC007F020219EE74F7121942E9FEEAFF740149
:1024EC006E700C7A807B009003E3E0F912111A9065
:1024FC002868E493F46008E493F9120B8080095384
:10250C00C680E59E547F70FA120DBA900581E06486
:10251C00017003120BB690057FE0F47002A3E0602B
:10252C002A75080175090090057FE0780812186B70
:10253C00AA08A3E0600814600A14600C800DEA423B
:10254C00808008EA42908003EA42A0120D3C8A087F
:10255C008B09A808A909E8496017E5E170FCE82493
:10256C0014F582E93400F583E0F874FF68600288A2
:10257C00E174016F700A7A019003E3E0F91211988B
:10258C000224DC74F11219428A088B098C0A8D0B17
:10259C00908F677808121728740F1218CA780C12CB
:1025AC00174E908F67780C1217287808790C121533
:1025BC0061908F5B50107808790C12170078081214
:1025CC0015814014800E780C7908121700780C12C3
:1025DC00158150047901800279007F080219EE748C
:1025EC00ED1219428A088B098C0A8D0B908F677833
:1025FC000812172874131218CA780C12174E908FE1
:10260C0067780C121728780C79081215614011782C
:10261C0008790C121700AA08AB09AC0AAD0B802282
:10262C007510007511007512007513017810790C76
:10263C00121700781079081216C7AA10AB11AC1239
:10264C00AD137F0C0219EE908F67780812174E8A23
:10265C00828B83780812173B7F040219EE74F512F3
:10266C0019428C828D83780812174E8A828B83785C
:10267C00081217141226BDC3E098F0A3E099122695
:10268C00AF401E908F9F780812174E8A828B8378EA
:10269C00081216ED8E828F83E02420F0A3E0344ED6
:1026AC00F080A4F08E828F83C3E09420A3E0944E3C
:1026BC0022EA2404F8EB3400F9E8FEE9FF8C828D61
:1026CC0083A3A3A3A3E0F8A3E0F98E828F832274E3
:1026DC00F5121942E9FE900539E0FAA3E0FBEEC3CE
:1026EC0033F8E433F974C728F582748E39F583E036
:1026FC002AF508A3E03BF5097808121AE9908FD364
:10270C0012176C1222D074021218948A088B098C3E
:10271C000A8D0B7410780812168FAA08AB097F0467
:10272C000219EE74F11219428A0C8B0D8C0E8D0F5E
:10273C00740F1218CAE0FAA3E0FB74111218CAE065
:10274C00F508A3E0F5097808121AE9EA2401F5085E
:10275C00EB3400F509E4F50AF50B780C7908121541
:10276C00A0908F6F780812174E780C79081215A06C
:10277C00AA0CAB0DAC0EAD0F1222D0740212189431
:10278C008B09EA450960047A0180027A00EC2AFC84
:10279C00ED3400FD74131218CAE0F8A3E0F9E8FE5A
:1027AC00E9FFECF8EDF97A717B021217F3880889CE
:1027BC0009E4F50AF50B8E828F83780812175DEC0D
:1027CC00F8EDF97A717B021217F38A088B097405FC
:1027DC00780812186B8E828F83A3A3A3A3E508F04D
:1027EC00A3E509F07F080219EEC082C083E990606E
:1027FC0000F0D083D08222C2AF02000022C0E0746D
:10280C00F2121A2EA2AFE433FED2AFE589A2E04059
:10281C0006E589A2E150031213D875890075890069
:10282C00C2C5751B00EEF8EEA2E092AF7F01021A52
:10283C008DC0E0C0D0E8C0E0E9C0E0A2AFE433F85E
:10284C00D2AFC2C7751B00E8F9E8A2E092AFD0E0A6
:10285C00F9D0E0F8D0D0D0E032020132FFFFFFFF18
:10286C00FFFFFFFF74EE1218D674FA12187E8A0A54
:10287C008B0B8909ECFEEDFF750800850A0C850BA6
:10288C000D780C121B2D000410492BB928DA28F9ED
:10289C00281A293B295C298F29B029C729F529B386
:1028AC002AD42AF42A1E2B492B492B202A74016581
:1028BC000970158E828F83E0C39403500B8E828F28
:1028CC0083E0900CFEF08003750818022B727402E2
:1028DC00650970138E828F83E0F8A3E0F9900CFFEA
:1028EC00E8F0A3E9F08003750818022B72740165F7
:1028FC000970158E828F83E0C39402500B8E828FE9
:10290C0083E09008ECF08003750818022B727401B8
:10291C00650970158E828F83E0C39405500B8E82EF
:10292C008F83E09008EDF08003750818022B727409
:10293C0001650970158E828F83E0C39402500B8E53
:10294C00828F83E09008EEF08003750818022B72DA
:10295C00741065097027750C10750D00780C121A1F
:10296C00E9EEFCEFFD7AEF7B081210C67402121828
:10297C00948A0C8B0D850C82850D83800375081849
:10298C00022B727401650970158E828F83E0C394DB
:10299C0002500B8E828F83E09008FFF08003750845
:1029AC0018022B7274016509700B8E828F83E09074
:1029BC000D02F08003750818022B727404650970FF
:1029CC0022908FD3780C12174E8E828F83780C1234
:1029DC001571500F8E828F8312176C90090112178C
:1029EC00788003750818022B72E50970211206AC69
:1029FC00E97013121324E9F50C79501214C8E9F597
:102A0C000D121312800B9009947401F08003750859
:102A1C0018022B72740765096003022AAD750E0645
:102A2C00750F00780E121AE98E828F83A3AC82ADDB
:102A3C008374021218CAAA82AB831210CC740212CD
:102A4C0018948A108B1185100E85110F7C007D0057
:102A5C00851982851A83AA82AB838E828F83E0F9D3
:102A6C001212B2E9F50CE50CC3940A502F1206AC05
:102A7C00E97015A90C12132AE9F50D79501214C836
:102A8C00E9F50E121312801C750D007495250CF5CA
:102A9C00827409350DF5837401F080087508028085
:102AAC0003750818022B727401650970158E828FDC
:102ABC0083E0C39402500B8E828F83E0900900F068
:102ACC008003750818022B727401650970158E82CB
:102ADC008F83E0C3940A500B8E828F83E0900D019C
:102AEC00F08003750818807E74016509701F8E8252
:102AFC008F83E0C3940740158E828F83E0C39411BB
:102B0C00500B8E828F83E0900D03F080597508185E
:102B1C008054740165097020900993E0F50C8E8245
:102B2C008F83E0900993F0E50C703B900993E0647F
:102B3C00017033121312802E7508188029C3E50A10
:102B4C009427E50B9400501B7402650970158E8256
:102B5C008F83E0FCA3E0FDAA0AAB0B12054AE9F552
:102B6C00088003750802A90874061218947F0A02DB
:102B7C0019A874EC1218D674DA12187E890D8A1200
:102B8C008B138C0A8D0B743A1218CAE0F50C908FCB
:102B9C004DC082C083851982851A83AC82AD83D0E7
:102BAC0083D0827406121791851982851A83AC82A0
:102BBC00AD83AA12AB13A90D1212B2E9FEEEC394A7
:102BCC000A4003022D1DEEF91212F4E9FF900CFEDF
:102BDC00E064027004740180027400F50878081235
:102BEC001AEDAD0CEFFCEEF9AA0AAB0B12136674DE
:102BFC00011218947C147D00790074121218CAAA60
:102C0C0082AB831210DE8A0E8B0F850E08850F099E
:102C1C0074121218CAAC82AD837A1075F006EEA449
:102C2C002424F91214C2E970437C1079FF74121237
:102C3C0018CAAA82AB8312113EE9703074221218A2
:102C4C00CAAC82AD837A0475F006EEA42425F91281
:102C5C0014C2E9F50874121218CAAC82AD83EFA243
:102C6C00E0E433F9AA0AAB0B1205D4E97406121886
:102C7C00CAAC82AD837A0C74702EF91214C2E9704E
:102C8C007E74061218CAAA82AB831212E8750E0063
:102C9C00E50EC394045068E50EA80E7900E875F0B3
:102CAC0003A4C8AAF075F000A42AFA75F003E9A4ED
:102CBC002AF974061218CAE58228F508E58339F555
:102CCC0009850882850983E0F8A3E0F9E849602BBF
:102CDC00850882850983A3A3E0F51075110078108F
:102CEC00121AE9850882850983E0FCA3E0FDAA0A93
:102CFC00AB0B1208C87402121894E9050E8091EF00
:102D0C00A2E1500D9008EBE0F9AA0AAB0B1208CE29
:102D1C00E97404650C700F900CFEE064027007AA55
:102D2C000AAB0B121360790074261218947F0C02F4
:102D3C0019A874F21218D6890BEAFEEBFF8C088DD9
:102D4C0009750A0AE50B600C1460091460441460E0
:102D5C0064022DE2EEFAEFFB121306E9F50AE50A1E
:102D6C00C3940A5071E5084509606B750C06750D26
:102D7C0000780C121AE9EEFCEFFDAA08AB09121050
:102D8C00C674021218948A0C8B0D850C82850D83E7
:102D9C008044EEFAEFFB121300E9F50AE50AC3943E
:102DAC000A5033E5084509602DAA08AB09A90A1297
:102DBC0012FAE98021EEFAEFFB12130CE9F50AE5A1
:102DCC000AC3940A5010E5084509600AAA08AB0921
:102DDC00A90A1212FAE9A90A7F060219A874F212BA
:102DEC0018D68A0C8B0DE9FE7F1574FF650C7004E8
:102DFC0074FF650D702A750800E508C3940A501419
:102E0C00EEFC7A027B00A9081212D6E960027F0060
:102E1C00050880E5EE60637A4E7B13120AC0805A77
:102E2C00AA0CAB0D120AA28A0A8B0B850A08850B19
:102E3C0009E508450960417C007D00E5082405FA98
:102E4C00E5093400FB850882850983A3A3A3A3E0CD
:102E5C00F91212B2E9F50AE50AC3940A500EEEFC17
:102E6C007A027B00A90A1212D6E97F00EE600BAA47
:102E7C0008AB0912134E80027F14EFF97F0602197A
:102E8C00A874EE1218D68A0E8B0F8C0A8D0B741246
:102E9C001218CAE0F50CA3E0F50D75081574FF6562
:102EAC000E700474FF650F701E7E00EEC3940A5002
:102EBC0062AC0CAD0DAA0AAB0BEEF91212DCE96098
:102ECC00037508000E80E4AA0EAB0F120AA28A103A
:102EDC008B11AE10AF11EE4F60367C007D00EE24EE
:102EEC0005FAEF3400FB8E828F83A3A3A3A3E0F932
:102EFC001212B2E9F509E509C3940A5016AC0CADEF
:102F0C000DAA0AAB0BA9091212DCE97508008003A3
:102F1C00750814A9087F0A0219A874F71218D6EAC2
:102F2C00FEEBFF900905EEF0A3EFF09008EBE0FC50
:102F3C007D007A267B0012054AE9F5089008EBE043
:102F4C00F912084A7F010219A874EE1218D68A10D9
:102F5C008B11E9FE74121218CA780C12174E7F00EE
:102F6C00EE7041850C08850D09850E0A850F0B90B6
:102F7C008FD3780C12174E7808790C121620781013
:102F8C00121AE9AA0CAB0DAC0EAD0F1205E67402C9
:102F9C00121894E9FFEF60167901AA10AB11120513
:102FAC00E0E9800AEEF9AA10AB111205E0E9EFF99D
:102FBC007F0A0219A874F21218D674EC12187E8AC1
:102FCC000A8B0B850A82850B83A3A3E024FA70037A
:102FDC0002342124FD70030232971470030230B4C2
:102FEC0014601024FD700302323F1470030232D7B8
:102FFC0002348FAE0AAF0B900905E0F8A3E0F9E8B4
:10300C00496069900905E0F8A3E0F5838882E0F84F
:10301C00A3E0F9E8496055EE240CF582EF3400F595
:10302C0083E0F5087808121AEDEE240BF582EF34E4
:10303C0000F583E0F98E828F83A3A3A3A3A3A3A39C
:10304C00A3A3E0FCA3E0FDEE2403FAEF3400FB9015
:10305C000905E0F8A3E0F5838882E0F8A3E0F583A6
:10306C0088821218D4740112189480398E828F833E
:10307C00A3A3A3A3A3A3A3A3A3121B0090090112B0
:10308C00176C1205E67402121894E9601879018E17
:10309C00828F83A3A3A3A3A3A3A3A3A3E0FAA3E078
:1030AC00FB1205E0E902348FAE0AAF0B8E828F83E0
:1030BC00A3E060030231ED8E828F83A3A3A3A3A3AD
:1030CC00E0A2E040030231ED90099FE0F8A3E0F9A3
:1030DC00E84960030231ED7C0E7D00790085198290
:1030EC00851A83AA82AB831210DE8A088B09AA0880
:1030FC00AB09EE240CF582EF3400F583E0F8A3E085
:10310C00F9E849603B7508067509007808121AE958
:10311C00EE240CF582EF3400F583E02410FCA3E0E0
:10312C003400FD74021218CAAA82AB831210C67442
:10313C00021218948A088B098508828509838054A9
:10314C008E828F83A3A3A3E0FAA3E0FB120AA28AC8
:10315C000C8B0D850C08850D09E508450960327549
:10316C000C06750D00780C121AE9E5082405FCE52F
:10317C00093400FD74021218CAAA82AB831210C65D
:10318C0074021218948A0C8B0D850C82850D838029
:10319C000302348F8E828F83A3A3A3A3A3E0A2E2A6
:1031AC005004D2F08002C2F0A2F0E433F87900743B
:1031BC000C1218CAE048F0A3E049F0EEFCEFFD85D4
:1031CC001982851A83AA82AB831212EEE970127AE5
:1031DC00027B009008EBE0F912111AE97900023435
:1031EC0091900905E0F8A3E0F9E8496043900905DE
:1031FC00E0F8A3E0F5838882A3A3E0F8A3E0F9E864
:10320C0049602D8E828F83A3E0FC79018E828F839F
:10321C00A3A3A3E0FAA3E0FB900905E0F8A3E0F573
:10322C00838882A3A3E0F8A3E0F58388821218D4E4
:10323C0002348FAE0AAF0B900905E0F8A3E0F9E871
:10324C00496045900905E0F8A3E0F5838882A3A3C3
:10325C00E0F8A3E0F9E849602F850A82850B83A387
:10326C00E0FC79028E828F83A3A3A3E0FAA3E0FB98
:10327C00900905E0F8A3E0F5838882A3A3E0F8A306
:10328C00E0F58388821218D402348FAE0AAF0B7C1F
:10329C00007D00EE2404FAEF3400FB8E828F83A3B2
:1032AC00A3A3E0F91212B2E9F508E508C3940A5099
:1032BC0017EE240AFCEF3400FD7A0475F006E508DD
:1032CC00A42425F91214BCE902348FAE0AAF0B907A
:1032DC000900E06018900D01E0F98E828F83A3A3A2
:1032EC00A3E0FAA3E0FB1205E0E902348F900CFE98
:1032FC00E0701579058E828F83A3A3A3E0FAA3E077
:10330C00FB1205E0E902348F8E828F83A3A3A3E026
:10331C00FAA3E0FB120AA28A0C8B0D850C08850D12
:10332C00098E828F83A3A3A3A3A3A3A3E0A2E0503F
:10333C0075E5084509606C850882850983A3A3A3FC
:10334C00A3E060628E828F83A3A3A3A3A3A3A3A3F2
:10335C00A3E0F8A3E0F9E8C4540FF879005401F89D
:10336C00E95400F9E8A2E0403D740E1218CAAC8290
:10337C00AD83E5082405FAE5093400FB8508828550
:10338C000983A3A3A3A3E0F91212B2E9701879037D
:10339C008E828F83A3A3A3E0FAA3E0FB1205E0E9DE
:1033AC0002348F02348FEE2405FCEF3400FD8508C7
:1033BC0082850983A3A3A3A3E0F98E828F83A3A3A1
:1033CC00A3E0FAA3E0FB12135A900905E0F8A3E07E
:1033DC00F9E849603E900905E0F8A3E0F58388829E
:1033EC00A3A3E0F8A3E0F9E84960287C0079008EFB
:1033FC00828F83A3A3A3E0FAA3E0FB900905E0F876
:10340C00A3E0F5838882A3A3E0F8A3E0F583888288
:10341C001218D4806E1206ACE97068900994E064BE
:10342C0001701A121324E9FE9009947400F07C0ABE
:10343C007D0079007A957B091210DE803C7E00EECF
:10344C00C3940A50348E0875090074952508F582CA
:10345C0074093509F583E06401701BEEF912132A27
:10346C00E9F88E0875090074952508F582740935FC
:10347C0009F5837400F00E80C679501214C8E9FE69
:10348C00121312790174141218947F060219A8747D
:10349C00F31218D674F212187E8909EAFEEBFF8C2F
:1034AC000C851982851A83AC82AD837A0E75F00671
:1034BC00E509A42420F91214C2E970727C0679FF84
:1034CC00851982851A83AA82AB8312113EE9705E3C
:1034DC00740C1218CAE0F8A3E0F9E8F508E50C60E2
:1034EC0005EE42088004EEF4520885080A750B00BC
:1034FC00740C1218CAE0650A7004A3E0650B602A0C
:10350C00E508A8087900740C1218CAE508F0A3E9BC
:10351C00F0851982851A83AC82AD837A0E75F0061C
:10352C00E509A42420F91214BCE979018002790080
:10353C00740E1218947F050219A874F01218D67420
:10354C00E612187E890B8A0C8B0DECFEEDFF740CC9
:10355C001218CAAC82AD837A0E75F006E50BA42462
:10356C0020F91214C2E960030236AA7C0679FF74B2
:10357C000C1218CAAA82AB8312113EE96003023600
:10358C00AA851982851A83AC82AD837A0C74702556
:10359C000BF91214C2E960030236A6750A008519EC
:1035AC0082851A83AA82AB831212E8E50C450D7052
:1035BC003A7C0C7900851982851A83AA82AB831216
:1035CC00113EE960030236807C0C7D007900851980
:1035DC0082851A83AA82AB831210DE8A088B098536
:1035EC000882850983750A01023680851982851A3D
:1035FC0083AC82AD83AA0CAB0D1212E28A0E8B0F38
:10360C00850E08850F09E50845097036EE4F6021D7
:10361C00851982851A83AC82AD837A007B001212E5
:10362C00E28A0E8B0FA80EA90F88088909E8497049
:10363C00047900806B850882850983E50CF0A3E58D
:10364C000DF0850882850983A3A3E0F87900EE6864
:10365C007002EF69601EEE850882850983A3A3F0D2
:10366C00EE4F700D8508828509837400F0A37400F9
:10367C00F0750A01E50A6022851982851A83AA82EF
:10368C00AB831212E8851982851A83AC82AD837ADA
:10369C000C7470250BF91214BCE9790180027900C5
:1036AC00741A1218947F080219A874F71218D6EA23
:1036BC00FEEBFF7B00EBC39404504EEBF87900E873
:1036CC0075F003A4C8AAF075F000A42AFA75F003EB
:1036DC00E9A42AF9EC28F582ED39F583E06E700344
:1036EC00A3E06F7021EBF87900E875F003A4C8AA89
:1036FC00F075F000A42AFA75F003E9A42AF9EC2875
:10370C00FAED39FB80070B80AC7A007B007F01025D
:10371C0019A874F71218D67F00EFC3940440030263
:10372C0037CDEFF87900E875F003A4C8ACF075F06C
:10373C0000A42CFC75F003E9A42CF9EA28F582EB23
:10374C0039F583E0F4FCA3E0F4FDEFF87900E875BB
:10375C00F003A4C8AEF075F000A42EFE75F003E9DA
:10376C00A42EF9EA28F582EB39F583ECF0A3EDF001
:10377C00EFF87900E875F003A4C8ACF075F000A47C
:10378C002CFC75F003E9A42CF9EA28F582EB39F549
:10379C0083A3A3E0F4C0E0EFF87900E875F003A48C
:1037AC00C8ACF075F000A42CFC75F003E9A42CF95E
:1037BC00EA28F582EB39F583A3A3D0E0F00F0237AA
:1037CC00257F010219A874F01218D674F412187E11
:1037DC00EAFEEBFF8C088D0990099FE0F8A3E0F955
:1037EC00E849702CEE4F6006E50845097005790133
:1037FC00023A8AEEFAEFFB121306E9900D04F090F0
:10380C000D04E0C3940A4008121318E9900D04F05B
:10381C00900D04E0C3940A4003023A8890099FE09B
:10382C00F8A3E0F9E84960030238D4EEFCEFFD7A26
:10383C000E75F006900D04E0A42420F91214BCE9D6
:10384C00F50C7C0C7D0079FF851982851A83AA8280
:10385C00AB831210DE8A0E8B0F850E0A850F0B853B
:10386C001982851A83AC82AD837A0C900D04E02406
:10387C0070F91214BCE9F50D750E0E750F00780E6B
:10388C00121AE9EEFCEFFD900D04E0F87900E875F2
:10389C00F00EA4C8AAF075F000A42AFA75F00EE98F
:1038AC00A42AF9740728FA740939FB1210C6740299
:1038BC001218948A0E8B0FA80EA90F90099FE50879
:1038CC00F0A3E509F0023A8490099FE0F8A3E0C860
:1038DC002406F582E83400F583E0F8A3E0F9E84922
:1038EC00604390099FE0F8A3E0C82406F582E83411
:1038FC0000F583E0FCA3E0FD7A1B75F006900D0447
:10390C00E0A42421F91214BCE9F890099FE0F9A372
:10391C00E0C92406F582E93400F5837400F0A37441
:10392C0000F0023A8490099FE0F8A3E0C8240AF55D
:10393C0082E83400F583E0F8A3E0F9E849604390AD
:10394C00099FE0F8A3E0C8240AF582E83400F58367
:10395C00E0FCA3E0FD7A1B75F006900D04E0A424B6
:10396C0022F91214BCE9F890099FE0F9A3E0C924EC
:10397C000AF582E93400F5837400F0A37400F002B8
:10398C003A8490099FE0F8A3E0C8240CF582E8344F
:10399C0000F583E0F8A3E0F9E849604390099FE063
:1039AC00F8A3E0C8240CF582E83400F583E0FCA30E
:1039BC00E0FD7A1075F006900D04E0A42423F912B2
:1039CC0014BCE9F890099FE0F9A3E0C9240CF58236
:1039DC00E93400F5837400F0A37400F0023A84908B
:1039EC00099FE0F8A3E0C82408F582E83400F583C9
:1039FC00E0F8A3E0F9E849606F90099FE0F8A3E0D4
:103A0C00C82408F582E83400F583E0FCA3E0FD7AD5
:103A1C001075F006900D04E0A42424F91214BCE9EE
:103A2C00F50A90099FE0F8A3E0C82408F582E83471
:103A3C0000F583E02410FCA3E03400FD7A0475F05B
:103A4C0006900D04E0A42425F91214BCE9F89009A1
:103A5C009FE0F9A3E0C92408F582E93400F58374EA
:103A6C0000F0A37400F08010900993E0600312132F
:103A7C006C12135479018006790080027901740C60
:103A8C001218947F080219A874F71218D674F2123F
:103A9C00187EE9FE851982851A83AC82AD837A0E75
:103AAC0075F006A42420F91214C2E9700E740C12DD
:103ABC0018CAE0F8A3E0F9E8F980027900740E1254
:103ACC0018947F010219A874F41218D674F2121803
:103ADC007E8909EAFEEBFFE509C3940A5004EE4F18
:103AEC0070047902804B851982851A83AC82AD8370
:103AFC007A0E75F006E509A42420F91214C2E9F532
:103B0C0008E508702A750A06750B00780A121AE97E
:103B1C0074021218CAAC82AD83EEFAEFFB1210C617
:103B2C0074021218948A0A8B0B850A82850B83A95E
:103B3C0008740E1218947F040219A874F41218D683
:103B4C00EAFEEBFF750800E508C3940A5045750AB8
:103B5C0006750B00780A121AE9EEFCEFFDE508A8D1
:103B6C00087900E875F00EA4C8AAF075F000A42A34
:103B7C00FA75F00EE9A42AF9740D28FA740939FBC8
:103B8C001210D87402121894E96004A90880060572
:103B9C000880B4790A7F040219A874F41218D6EAC2
:103BAC00FEEBFF750800E508C3940A5045750A063C
:103BBC00750B00780A121AE9EEFCEFFDE508A8086F
:103BCC007900E875F00EA4C8AAF075F000A42AFAE2
:103BDC0075F00EE9A42AF9740728FA740939FB1256
:103BEC0010D87402121894E96004A908800605081C
:103BFC0080B4790A7F040219A874F71218D674F0ED
:103C0C0012187EEAFEEBFF750800E508C3940A5013
:103C1C004B851982851A83AC82AD837A1075F006B8
:103C2C00E508A42423F91214C2E9702C7C1079FF46
:103C3C00851982851A83AA82AB8312113EE970180A
:103C4C00EEFCEFFD851982851A83AA82AB831205DF
:103C5C00B6E97004A9088006050880AE790A7410CC
:103C6C001218947F010219A874F41218D675080062
:103C7C00E508C3940A4003023D56E508A8087900FC
:103C8C00E875F00EA4C8AAF075F000A42AFA75F035
:103C9C000EE9A42AF9740728FC740939FD7A0E750B
:103CAC00F006E508A42420F91214C2E97003023DC1
:103CBC00517C067D0079FFE508AA087B00EA75F0C7
:103CCC000EA4CAA8F075F000A428F875F00EEBA4A9
:103CDC0028FB74072AFA74093BFB1210DE8A0A8B44
:103CEC000BAE0AAF0B7C067D0079FFE508AA087BBA
:103CFC0000EA75F00EA4CAA8F075F000A428F875B7
:103D0C00F00EEBA428FB740D2AFA74093BFB12107D
:103D1C00DE8A0A8B0BAC0AAD0BE508A8087900E823
:103D2C0075F00EA4C8AAF075F000A42AFA75F00E6E
:103D3C00E9A42AF9741328F582740939F5837400FF
:103D4C00F0A37400F00508023C7C900993E060033A
:103D5C0012136C1213547F040219A874F71218D69C
:103D6C007E00EEC3940A50327C0679FFEEFA7B009B
:103D7C00EA75F00EA4CAA8F075F000A428F875F046
:103D8C000EEBA428FB74072AFA74093BFB12113EB4
:103D9C00E96004EEF980050E80C8790A7F010219EA
:103DAC00A874F71218D67E007F00EFC3940A502F28
:103DBC007C0679FFEFFA7B00EA75F00EA4CAA8F036
:103DCC0075F000A428F875F00EEBA428FB74072AF4
:103DDC00FA74093BFB12113EE970010E0F80CBEE19
:103DEC00F97F010219A874F71218D67E007F00EF34
:103DFC00C3940A500DEE700AEFF912132AE9FE0F64
:103E0C0080EDEEF97F010219A874F01218D674CB6C
:103E1C0012187E8909900D04E06509701D7A017BEA
:103E2C00009008EBE0F9121120E97A027B0090086F
:103E3C00EBE0F9121120E912137874271218CAACAE
:103E4C0082AD837A0E75F006E509A42420F91214CC
:103E5C00C2E96003023F817C0679FF74271218CAFD
:103E6C00AA82AB8312113EE96003023F817C0E7D76
:103E7C000079FF74271218CAAA82AB831210DE8A4B
:103E8C000A8B0B850A0C850B0D7C1B7D0079FF744E
:103E9C000C1218CAAA82AB831210DE8A0E8B0F8505
:103EAC000E0A850F0B7C0C7D0079FF851982851A13
:103EBC0083AA82AB831210DE8A0E8B0FAE0EAF0F6D
:103ECC0074271218CAAC82AD837A0E75F006E50918
:103EDC00A42420F91214BCE9F508740C1218CAAC0D
:103EEC0082AD837A1B75F006E509A42421F912141E
:103EFC00BCE94208740C1218CAAC82AD837A1B75EB
:103F0C00F006E509A42422F91214BCE94208740C49
:103F1C001218CAAC82AD837A1075F006E509A42498
:103F2C0023F91214BCE94208740C1218CAAC82AD05
:103F3C00837A1075F006E509A42424F91214BCE95F
:103F4C004208740C1218CAAC82AD837A0475F00660
:103F5C00E509A42425F91214BCE9420885198285C7
:103F6C001A83AC82AD837A0C74702509F91214BCD7
:103F7C00E942088003750800A90874351218947F6B
:103F8C00080219A874F71218D6E9FE9008EBF01283
:103F9C0013127F010219A874F21218D6890AEAFECC
:103FAC00EBFFEE5400F8EF5480F9E84960359008C7
:103FBC00EBE0F91211028A0C8B0DA80CA90D8808E4
:103FCC008909E8496012AA08AB0912133CE9600898
:103FDC00AA08AB091210F0E9EE6400FAEF6480FB5A
:103FEC000240A7EE5402602D7C007D007A007B001D
:103FFC001212EEE960187A017B009008EBE0F912DE
:10400C00111AE9EE6402FAEF6400FB0240A77A028F
:10401C007B000240A7EEA2E0507D90099FE0F8A340
:10402C00E0F5838882A3A3A3E0FAA3E0FB1213724A
:10403C00E9605E900905E0F8A3E0F9E84960459075
:10404C000905E0F8A3E0F5838882A3A3E0F8A3E0D8
:10405C00F9E849602F7C00790190099FE0F8A3E012
:10406C00F5838882A3A3A3E0FAA3E0FB900905E003
:10407C00F8A3E0F5838882A3A3E0F8A3E0F5838896
:10408C00821218D4121378EE6401FAEF6400FB80EC
:10409C000A7A017B0080047A007B007F060219A853
:1040AC0074F71218D6EAFEEBFF7508018E828F8327
:1040BC00E02450601314601924E1701CEEFAEFFB3D
:1040CC001212D0E9F5088010EEFAEFFB12134280C1
:1040DC0007EEFAEFFB121348A9087F010219A87426
:1040EC00F71218D6EAFEEBFF8E828F83A3A3A3A34D
:1040FC00E0641E701179008E828F83A3A3E0FAA373
:10410C00E0FB1212B8E97F010219A874F61218D656
:10411C00EAFEEBFF8E828F83A3A3A3A3E0703A8EFB
:10412C00088F09850882850983A3A3A3A3A3A3A34E
:10413C00121B00850882850983A3A3A3A3A3E0FC1B
:10414C00A3E0FD850882850983A3A3E0FAA3E0FB25
:10415C001212BE7402121894E97F020219A874F7A5
:10416C001218D6EAFEEBFF9008EBE0F98E828F83F3
:10417C00A3E0FAA3E0FB1208CEE97F010219A8C064
:10418C0082C08374FF12187E12131EE9C39402407E
:10419C000B851982851A837402F080098519828532
:1041AC001A83740AF0851982851A83AC82AD837ADE
:1041BC000179051206C4E97401121894D083D082D7
:1041CC0002013274F21218D674E812187EEAFEEB71
:1041DC00FF890A8C088D097C187D0079008519826D
:1041EC00851A83AA82AB831210DE8A0C8B0DAC0C61
:1041FC00AD0D851982851A83EEF0A3EFF09008EDD2
:10420C00E0C0E074021218CAD0E0F09008EEE0C0F2
:10421C00E074031218CAD0E0F0900D03E0C0E07413
:10422C00171218CAD0E0F074151218CAE054FEF830
:10423C00A3E054FFF9900D02E0A2E0E433FA7B0016
:10424C00E84AF8E94BF974151218CAE8F0A3E9F03A
:10425C00900D02E0A2E15004D2F08002C2F074157D
:10426C001218CAE054FDFAA3E054FFFBA2F0E433A9
:10427C00F87900C333F8E933F9EA48F8EB49F974F3
:10428C00151218CAE8F0A3E9F0900D02E0A2E35071
:10429C0004D2F08002C2F074151218CAE054F7FA76
:1042AC00A3E054FFFBA2F0E433F50C750D0074038E
:1042BC00780C12186BEA450CF8EB450DF9741512D5
:1042CC0018CAE8F0A3E9F0900D02E0A2E45004D281
:1042DC00F08002C2F074151218CAE054EFFAA3E091
:1042EC0054FFFBA2F0E433F50C750D007404780C4C
:1042FC0012186BEA450CF8EB450DF974151218CA37
:10430C00E8F0A3E9F0900D02E0A2E55004D2F080B1
:10431C0002C2F074151218CAE054DFFAA3E054FF7D
:10432C00FBA2F0E433F50C750D007405780C121833
:10433C006BEA450CF8EB450DF974151218CAE8F048
:10434C00A3E9F0900D02E0A2E25004D2F08002C288
:10435C00F074151218CAE054FBFAA3E054FFFBA248
:10436C00F0E433F50C750D007402780C12186BEA3E
:10437C00450CF8EB450DF974151218CAE8F0A3E9D1
:10438C00F09008EEE0602A750C10750D00780C1298
:10439C001AE97CEF7D0874061218CAAA82AB831244
:1043AC0010C674021218948A0C8B0D850C82850D24
:1043BC00839008FFE06012E50A600E74151218CAAB
:1043CC00E04402F0A3E04400F09008FFE0600678BF
:1043DC0001790080047800790074141218CAE0483E
:1043EC00F09008ECE060067804790080047800799D
:1043FC000074141218CAE048F0AC08AD0985198293
:10440C00851A83AA82AB831205DAE9741812189400
:10441C007F060219A874F71218D6EAFEEBFF75088E
:10442C00009008FFE060067801790080047800793C
:10443C0000E842089008ECE06006780479008004FB
:10444C0078007900E84208A908EEFAEFFB1206940E
:10445C00E97F010219A874EE1218D674E512187EC1
:10446C008A0C8B0DE9FF8C088D09742D1218CAE08B
:10447C00F50A74086509700A75F006EFA42422FE8B
:10448C00800875F006EFA42421FE7C1B7D007900CA
:10449C00851982851A83AA82AB831210DE8A108B4F
:1044AC001185100E85110F851982851A83AC82AD8A
:1044BC00837A1BEEF91214C2E9703C741A1218CAF2
:1044CC00E0C394074031741A1218CAE0C394115017
:1044DC0026E50AF50B780B121AED74011218CAAC0A
:1044EC0082AD83E508A2E0E433F9AA0CAB0D12050A
:1044FC00EC7401121894E9741B1218947F0A0219B7
:10450C00A874F71218D6120940E97E00EEC3940A7B
:10451C0050557C0679FFEEFA7B00EA75F00EA4CAC2
:10452C00A8F075F000A428F875F00EEBA428FB7425
:10453C00072AFA74093BFB12113EE97027EEF87951
:10454C0000E875F00EA4C8AAF075F000A42AFA755C
:10455C00F00EE9A42AF9740728FA740939FB7900DA
:10456C00120946E90E80A57F010219A874F61218EB
:10457C00D674FD12187EEAFEEBFF9009A1E0F8A3B9
:10458C00E0F9E84970397508A37509097808121A19
:10459C00E97508027509007808121AE975081B7587
:1045AC0009907808121AE97CFF7DFF7A017B0012D2
:1045BC00079674061218949009A1EAF0A3EBF090F8
:1045CC0009A1E0F8A3E0F9E8497003024699E4F583
:1045DC0008F5097808121AE974041218CA858208B9
:1045EC008583097808121AE974041218CA8582089E
:1045FC008583097808121AE99009A3121B00790225
:10460C009009A1E0FCA3E0FDEEFAEFFB1208BC74EC
:10461C0008121894E9704A851982851A83E0FA7B8E
:10462C000074011218CAE0F87900E4C8F9EA28F518
:10463C0008EB39F509E508450960267808121AE9EE
:10464C009009A1E0F8A3E0F5838882A3A3A3A3E0DB
:10465C00FCA3E0FDEEFAEFFB1212BE7402121894EA
:10466C00E9E4F508F5097808121AE99009A3121B78
:10467C00007CFF7DFF9009A1E0FAA3E0FB1207A2EA
:10468C0074041218949009A1EAF0A3EBF09009A11C
:10469C00E0F8A3E0F9E8497004790180027900742C
:1046AC00031218947F020219A8C082C08390099F3C
:1046BC00E0F8A3E0F9E849601790099FE0FAA3E05D
:1046CC00FB1210F0E9F890099F7400F0A37400F04D
:1046DC00900D04740AF0D083D082020132C082C0E3
:1046EC0083E9900B79F002491374F71218D6E9900C
:1046FC000323F07C5B7D037AFF7BFF1208D49003CD
:10470C002474FFF0A3F0A3E4F0A3F079051208627F
:10471C00900323E0F912077E7AEC7B08120A907F53
:10472C00010219A874F41218D68A088B09EB54806C
:10473C006030900323E0F91211028A0A8B0BAE0A47
:10474C00AF0BEE4F60138E828F83E064B070031258
:10475C000874EEFAEFFB1210F0AA08E5096480FB6E
:10476C0080047A007B000248E274F21218D674FCC2
:10477C0012187EEAFEEBFFEE4F603874021218CA74
:10478C00EEF0A3EF124B47ECF0A3ED124B47AA82CD
:10479C00AB83120778E9F508707374121218CA12F9
:1047AC0056FBE50A450B60658E828F83124823EE1B
:1047BC004F700575080280557A067B001211808AAD
:1047CC000C8B0DA80CA90DE8497005750813803DDC
:1047DC0088828983E412482DA3A3EEF0A3EF125B29
:1047EC0094E50AF0A3E50BF09003291248B5900369
:1047FC00296017E0FCA3E08003EAFCEBFD8C828DC2
:10480C00831248B570F38C828D83125620A90874DC
:10481C0004121894025D96A3A3A3A3E0FEA3E0FFE9
:10482C0022F0A3F0888289832274F21218D6890AA6
:10483C00E975F017A4FEAFF0900328E4F09003267E
:10484C001248B5600A121186900326E4F0A3F0EE2C
:10485C00FAEFFB1211808A088B09EA4509602FEEEA
:10486C00FCEFFD79001210DE900326E508F0A3E5BD
:10487C0009F07B00800812489FE4F0A3F00BEBC317
:10488C00950A40F2E50A900328F07900800279132A
:10489C00025D96EB75F017A4F8A9F0900326E028BA
:1048AC00FAA3E0398A82F583221253B6EA4B2274BA
:1048BC00F41218D67900EAA2E0501B75084175096C
:1048CC008F7808121AE97C047D007A7B7B0B120826
:1048DC005C74021218947F040219A8C082C08390E1
:1048EC00032912491A601C88828983A3A3E06A7089
:1048FC0003A3E06B8882898370E8A3A3A3A312535C
:10490C00B280047A007B00D083D082020132125E26
:10491C0069E8492274EE1218D674FC12187EEAFE6D
:10492C00EBFF851982851A83E4F0A3F0EE240212C2
:10493C005604EE2405124B35EE2404F50EEF124FFF
:10494C001AE024FE603924FC604624FE605224FEEA
:10495C00605E24FE7003024A3A24FE7003024AB2DF
:10496C0024FE7003024AC124FE7003024AD024FCC8
:10497C007003024ADF24FE7003024AEE024B2B90B6
:10498C0003427417F0A3E4124B4F120406024B2B94
:10499C00851982851A83AC82AD8312087A024AFB90
:1049AC00851982851A83AC82AD83120880024AFB7A
:1049BC00850C08850D0974021218CAAC82AD83856A
:1049CC0008828509831253B212079C8A0C8B0DAC9A
:1049DC000CAD0DEC4D6042E4F50CF50D780C121A93
:1049EC00E9750C42750D03780C121AE9750C4375B8
:1049FC000D03780C121AE974081218CA121B0079EC
:104A0C00161253AC1208BC7408121894E9F50C7009
:104A1C000B1253A812041E800F750C018508828599
:104A2C000983124B3D125620850C08024AFE740273
:104A3C001218CAAC82AD83850C82850D831253B2D9
:104A4C0012079C8A108B11AC10AD11EC4D60438594
:104A5C000C82850D83A3A3121B00751042751103E4
:104A6C007810121AE97510437511037810121AE9AF
:104A7C0074081218CA121B0079161253AC1208BC17
:104A8C007408121894E9F509700B1253A812042437
:104A9C00800F750901850C82850D83124B3D1256D2
:104AAC0020850908804C851982851A83AC82AD83D8
:104ABC00120886803A851982851A83AC82AD8312DE
:104ACC00088C802B851982851A83AC82AD831208E1
:104ADC0092801C851982851A83AC82AD831208984A
:104AEC00800D851982851A83AC82AD8312089EE9EC
:104AFC00F508E50860298E828F83A3E06414601F9B
:104B0C00850E82850F83E0900342124B47125E653F
:104B1C00900343125620E508A3124B4F120400EEEB
:104B2C00FAEFFB12082002550CF50CEF3400F50DD2
:104B3C0022125E69851982851A8322F08519828575
:104B4C001A8322F07C427D03850A82850B831253E3
:104B5C00B62274EE1218D674FC12187E8A0A8B0BCD
:104B6C008C0E8D0FEA2405F508EB3400F5097C1545
:104B7C007D0079007A427B031210DEE5082402F5F1
:104B8C000CE509124B38851982851A8385821085AC
:104B9C0083117810121AE9850882850983A3A3A3CF
:104BAC00A3125062121AE9E5082405F510E5093440
:104BBC0000F5117810121AE9850C82850D831253B9
:104BCC00BC12079674061218948A108B11AE10AF93
:104BDC0011E50A2402F50AE50B125607EE4F700395
:104BEC00024D24801774021218CA1253B28882899B
:104BFC0083EAF0A3EBF0900342E004F0900342E070
:104C0C00C394054003024D24E4F510F511781012FD
:104C1C001AE975102B7511037810121AE975102CFE
:104C2C007511037810121AE974061218CA121B00B7
:104C3C007910EEFCEFFD1253AC1208BC740812187C
:104C4C0094E9705E850882850983A3A3A3A3A3A31B
:104C5C00A3E0F890032BE0687048125062121AE936
:104C6C007C2C7D03E5082408FAE5093400FB1210BE
:104C7C00D87402121894E960298E828F83A3A3A39F
:104C8C00A31253B2900342E0F5107402781012187C
:104C9C006B74432510F58274033511F583EAF0A388
:104CAC00EBF074021218CA858210858311781012E9
:104CBC001AE974021218CA121B00850C82850D8326
:104CCC00125E7A1207A274041218948A108B11AE19
:104CDC0010AF11900342E0F51075110074027810BA
:104CEC0012186B74422510F874033511F9888289F7
:104CFC0083A31248B57003024BE8E82403F8E934A7
:104D0C0000F9EE4F6003024BF18882898374FFF047
:104D1C00A3F0900342E004F0900342E0600A1253C7
:104D2C00A81204127900800B85088285098312561B
:104D3C0017790A02550C74EA1218D674FE12187EF2
:104D4C008C128D13EA2405F50CEB125E84124827A5
:104D5C00750800750900EA2402F510EB3400F51112
:104D6C00851982851A8385820A85830B780A121A23
:104D7C00E9850C82850D83A3A3A3A3124F24121AD9
:104D8C00E9E50C2405F50AE50D125607780A121A06
:104D9C00E9850C82850D83125E78120796740612D3
:104DAC0018948A0A8B0BEA450B7003024ED5EA2441
:104DBC0004F50EEB124F1A1248278A828B83A3A399
:104DCC00A3E0F98510828511831253B2120784E98E
:104DDC00F5096003024ED5E4F514F5157814121A92
:104DEC00E975142B7515037814121AE975142C75C2
:104DFC0015037814121AE974061218CA121B0079DA
:104E0C0013AC0AAD0B8510828511831253B21208B4
:104E1C00BC7408121894E9F5096003024ED590038E
:104E2C002BE0F8E5087009E02402900343F08017AA
:104E3C00900343E0FCE82402FAE43400FBEA6C70D3
:104E4C0001EB6003024ED9850882AA821250599454
:104E5C00141250515073850E82850F83E0C0E0749C
:104E6C00442A124F11D0E0F00508850E82850F837D
:104E7C00A3E0C0E085080A7444250A124F11D0E063
:104E8C00F0050890032B124F24121AE97C2C7D0399
:104E9C0085080A7444250AFA74033400FB1210C600
:104EAC00740212189490032BE02508F50874FF6E19
:104EBC00700374FF6F6012EE24010EEF3400FFE5F7
:104ECC0008C394145003024D6CE508601312529DF4
:104EDC008510828511831253B21204187900801444
:104EEC00E509700375090A851282851383EEF0A318
:104EFC00EFF0A90974021218947F0E0219A8850804
:104F0C000C7444250CF58274033400F583223400B0
:104F1C00F50F850E82F58322125BA72274EE121810
:104F2C00D674FE12187E8C0E8D0FEA2405F50CEB50
:104F3C00124B38750B00900342E4F0F50AEA240298
:104F4C00F508EB3400F5098049900342E0FA900330
:104F5C002BE0F81250599417125051400D90034207
:104F6C00E0F87416C39890032BF0125062121AE9F1
:104F7C007C2C7D0374432AFA74033400FB1210C694
:104F8C00740212189490032BE0F8900342E028F07E
:104F9C00050AE50C2416F582E50D124F15E0F8E52F
:104FAC000AC398400302503A900342E0C39416504F
:104FBC007DE50AC333F8E433F9E50C28FEE50D3939
:104FCC00FF851982851A83AC82AD838E828F831202
:104FDC0053B212079C8A108B11AC10AD11EC4D70B2
:104FEC0005750B018043E4F510F5117810121AE9E0
:104FFC0075102B7511037810121AE975102C751198
:10500C00037810121AE974061218CA121B007916CA
:10501C008508828509831253B21208BC74081218D1
:10502C0094E9F50B7003024F5512561380107C4215
:10503C007D038508828509831253B212042AA90BB9
:10504C00740202550EE99400C365D03322EA28F8A5
:10505C00E43400F9E822E0F51075110078102274A0
:10506C00EA1218D674FC12187E8A0C8B0D8C128DD9
:10507C0013EA2405F50AEB125607750800750900AA
:10508C00E50A2402F510E50B3400F5117402121830
:10509C00CA85820E85830F780E121AE9850A8285DD
:1050AC000B83A3A3A3A3125B53121AE9E50A2405ED
:1050BC00F50EE50B3400F50F780E121AE985108207
:1050CC0085118312560D1253AC12079674061218E2
:1050DC00948A0E8B0FAE0EAF0FE50C2402F50EE585
:1050EC000D3400F50F80408882898374FFF0050829
:1050FC00124F0A74FFF0050890032BE0F50C750DA8
:10510C0000780C121AE97C2C7D0385080C7444255C
:10511C000CFA74033400FB1210C67402121894902B
:10512C00032BE02508F508EE4F60718E828F83A368
:10513C00A3A3E0F9850E82850F831253B212078464
:10514C00E9F509EE2404124B35E97044E4F514F545
:10515C00157814121AE975142B7515037814121A94
:10516C00E975142C7515037814121AE974081218C1
:10517C00CA121B007911EEFCEFFD850E82850F83A0
:10518C001253B21208BC7408121894E9F50960277E
:10519C00850C82850D83125293125620E5087003FC
:1051AC0002527912529D850E82850F831253B212D0
:1051BC000430790002528E850882AA82EA90032B71
:1051CC007009E02404900343F08022E0F89003433C
:1051DC00E0F514E82404FCE43400FDEC65147001E3
:1051EC00ED70C0125059941212505150B6850C8269
:1051FC00850D83E0C0E074442A124F11D0E0F00515
:10520C0008850C82850D83A3E0C0E0124F0AD0E024
:10521C001252AF85820C85830D780C121AE9740436
:10522C001218CA121B00851082851183125E7A1225
:10523C0007A274041218948A0C8B0DAE0CAF0D855A
:10524C00080C7444250CF874033400F9EE4F700309
:10525C000250F3851982851A83E088828983125261
:10526C00AFA3E0C0E0124F0AD0E0025101E5097093
:10527C000375090A850A82850B83125293125620F4
:10528C00A9097404024F02125E6985128285138388
:10529C0022900343E0F5F0E50884900342F07C4251
:1052AC007D0322F00508851982851A832274EC127D
:1052BC0018D674FE12187E8A088B098C0E8D0FEA94
:1052CC002405FEEB3400FF851982851A83AC82AD70
:1052DC00838E828F831253B212079C8A0A8B0BEE39
:1052EC002418124B35EA450B70030253831254F504
:1052FC005032851982851A831253B21208B08A1063
:10530C008B11EA4511606B7912AC0AAD0B850882E2
:10531C008509831253B28510828511831218D4E942
:10532C00F50A7058E4F50AF50B780A121AE98E8220
:10533C008F83A3A3E0F50A780A121AE9EE2403126C
:10534C005604780A121AE98E828F831253BC120803
:10535C00C27406121894E9F50A7021850C82850D29
:10536C0083E0701F8508828509831253B2120436BC
:10537C008011750A0E8009750A018004E50A600324
:10538C00125613850C82850D83E06004790080022F
:10539C00A90A74021218947F0C0219A87C427D038E
:1053AC00850A82850B831253B622E0FAA3E0FB2216
:1053BC00E0FCA3E0FD8508828509831253B62274B4
:1053CC00EE1218D674FE12187E8A088B098C0C8D7E
:1053DC000DEA2405FEEB3400FF750E00851982855D
:1053EC001A83AC82AD838E828F831253B212079CC8
:1053FC008A0A8B0BEA450B70030254E11254F550E8
:10540C0035851982851A831253B21208B08A0E8B15
:10541C000FEA450F605E7912AC0AAD0B85088285E8
:10542C0009831253B2850E82850F831218D4E9F5C5
:10543C000E60030254E48508828509831256FBAA88
:10544C000AFB1208A48A108B11A810A911E8497044
:10545C001E7AFF7BFF1208A48A108B11A810A911C9
:10546C00E849606C88828983E50AF0A3E50BF07546
:10547C000A008007750E0E805F050A900328E0FA7B
:10548C00E50AC39A504AE50A75F017A4FAABF088FE
:10549C00828983A3A3E02AFAA3E03BFB8A828B8355
:1054AC0012560DEC4D70D2750A17750B00780A1256
:1054BC001AE9EEFCEFFD1210C67402121894EEFC01
:1054CC00EFFD8508828509831253B212043C8014C7
:1054DC00750E098003750E01125E61850C82850DB7
:1054EC0083125620A90E02504CE5082402F508E55B
:1054FC00093400F5098A828B83A3A3A3E0A2E522D9
:10550C0074041218947F0A0219A874EC1218D68C21
:10551C00108D11EA2405F50CEB124B38750F00EACF
:10552C002402F50AEB125607850A82F5831253B250
:10553C001208A48A088B09EA450970030255F9750B
:10554C000E008071850C82850D83E06401704F8E96
:10555C00828F83A3A3121B008E828F83A3A3A3A38A
:10556C00E0F5127513007812121AE9EE2405F51203
:10557C00EF3400F5137812121AE91253AC1208C268
:10558C007406121894E9F50F6014850C82850D834E
:10559C00E4F0125E618510828511831256207C170F
:1055AC007D007900EEFAEFFB1210DE8E828F83E421
:1055BC00F0A3F0050E900328E0F8E50EC398501EFA
:1055CC00E50E75F017A4F8A9F0850882850983A368
:1055DC00A3125E8E12560DEC4D60030255508508D9
:1055EC008285098374FFF0A3F0E50F70061253ACAB
:1055FC00120442A90F0253A3F50AEF3400F50B2253
:10560C00A3E0FCA3E0FD228E828F83125E69850EDF
:10561C0082850F83E8F0A3E9F022C082C083900357
:10562C0024E06A7003A3E06B70067A247B03800489
:10563C007A007B00024913C082C08378008C828D73
:10564C0083E06A7003A3E06B7010E875F003A4F8B4
:10565C00A9F0EC28FAED39FB8015088C828D83A318
:10566C00A3A3E06A7003A3E06B60DF7A007B000207
:10567C00491374F61218D612086E8A828B83E5824F
:10568C00458370067A007B008007A3A3A3A3125363
:10569C00B2025D1274F21218D6E9FE740E1218CA18
:1056AC001256FB74101218CA125B738C828D83E035
:1056BC0064027036A3125E6FF50CA3E0F9A80C74AB
:1056CC00026870037429697021750C02750D0078DD
:1056DC000C121AE97808121AE9780A121AE9EEF98A
:1056EC001208E6740612189480027901025D96E0A5
:1056FC00F50AA3E0F50B2274E81218D674FB121805
:10570C007EE9851982851A83F08A168B17ECFEEDDB
:10571C00FF751000741D1218CA125E65741D1218E4
:10572C00CA1256208E828F83A3A3A3E0A2E4502D2D
:10573C00741D1218CA1253B21208B08A828B83E5F8
:10574C008245837003025B44790AEEFCEFFDAA16D6
:10575C00AB171218D4E9F5106003025B47741F12E3
:10576C0018CA125B7374211218CA1256FB742312D6
:10577C0018CAE0F50EA3E0F50F8E828F83E0640269
:10578C006003025AF2A3125E65850882850983A321
:10579C00858212858313EE2406124B358882898309
:1057AC00E0FAA3E0F9EA2400F514E439F5157814CD
:1057BC00121B73010000280128E75707000228ACD0
:1057CC0058032819580029E35901290E5A0229AF08
:1057DC00590329E35904298D5AF25AE50E450F60F5
:1057EC0003025AED850C82850D83125B68FAE9FB86
:1057FC008A828B83E0850A82850B83125B9E121A48
:10580C00E98A828B83A3E0FCA3E0025A77E50E457C
:10581C000F6003025AED850A82850B837401F01226
:10582C005B7B850882850983F07C007D008E828FEE
:10583C0083A3A3A3A3E02401FAA3E03400FB120783
:10584C009CEA4B60418A828B83E02402F8850A82B1
:10585C00850B83E028F0EA2404F8EB3400F9888205
:10586C008983E0851282851383125BB0125B9E12D2
:10587C001AE98A828B8312560CE5082403FAE5098F
:10588C003400FB025A7C850A82850B83E02404F0E9
:10589C007C047D007900AA12AB131210DE025B4768
:1058AC00E50E450F6003025AED125B7BFEA3E0FF91
:1058BC00850A82850B837404F0EE85088285098342
:1058CC00F0EF851282851383F074031218CAAC8230
:1058DC00AD83EEFAEFFB12079C8A0C8B0DEA450D9B
:1058EC0070030259908A828B83A3A31248237401FC
:1058FC001218CA85820E85830F780E121AE9740568
:10590C001218CA121B007CFF7DFF1207A27404122E
:10591C0018948B0FEA450F7033850C82850D83121A
:10592C005B53121AE9850C82850D83A3121B007C34
:10593C00027D007A157B9012053E7404121894E9CE
:10594C00700A74011218CA74FFF0A3F08E828F8350
:10595C00E064027039750C02750D00780C121AE9AE
:10596C008E828F8312560CE5082404FAE509340064
:10597C00FB1210C67402121894850A82850B83E000
:10598C002402800974011218CAEEF0A3EFF074011E
:10599C001218CA125B64F074011218CAA3125B5C71
:1059AC00025AE7E50E450F6003025AED850C82851D
:1059BC000D8312560DAA16AB171208DA850A8285CA
:1059CC000B837402F0EA850882850983F0851282C4
:1059DC00851383EB025AEAE50E450F6003025AED7C
:1059EC00125B7BF8A3E0F9850A82850B837402F0C5
:1059FC00E8850882850983F0E98512828513830284
:105A0C005AEA850C82850D831253B21210C0EAFC3F
:105A1C008C82A882C3950EE4950F405FE8650E70EA
:105A2C0002E50F70047C008022851982851A83E0C0
:105A3C00FAE50E2AFAE50F3400FBC3EA98EB940062
:105A4C005003E08005E50ECCC39CFCEC850A8285F6
:105A5C000B83F08C0A750B00780A121AE9850C82FC
:105A6C00850D83E0250EFCA3E0350FFDAA08AB09DC
:105A7C001210C67402121894025B47751007025B71
:105A8C0047E50E450F705A850C82850D83125E65B5
:105A9C00850A82850B83740712482F125B5C1248AF
:105AAC002FA3E0851282851383F0E82402FAE934EF
:105ABC0000FB8A828B83125B5C125B8B125B64A390
:105ACC00125B94125B6DF0E82405F8E93400F98858
:105ADC00828983125B6DA3125BB0A3A3A3A3F08096
:105AEC005A75100B8055741D1218CA1253B2120835
:105AFC006E8A828B83E5824583603D125E65880CDD
:105B0C00890DE8450D6031780E121AE9780A121ADF
:105B1C00E97808121AE974061218CAE0F9EEFCEFDB
:105B2C00FDAA16AB17850C82850D831218D474064A
