:020000040000FA
:0600000002011A02202C8F
:03002B000224F9B3
:030033000224DBC9
:030053000220A2E6
:03006B000224B2BA
:10008300021EDBE5C754F84401F5C77901220000DD
:100093000080FB120086B90003020104E4791C7896
:1000A30002B800028004F709D8FCE4791E7802B88C
:1000B30000028004F709D8FCE490028178F5790DF9
:1000C3008002F0A3D8FCD9FA781B90014A7A01BACE
:1000D30000028007E493A3F608DAF97A757B0F90A0
:1000E300014B78D779018015E493A3AD82AE838A5F
:1000F300828B83F0A3AA82AB838D828E83D8E9D9C6
:10010300E775825C7583C6740312012C7582917541
:100113008300740012012C75D00075813F7519811D
:10012300751A02759F00020096C09FF59FE473D075
:100133009F22D083D082C09FE493C0E0740193C018
:10014300E0740293F59F2201AD03BF03E903B303F8
:10015300FF0000B4000028002800283075A000A08C
:1001630000A000A00000080008E001F0001000104B
:10017300001000100010001000500050005000103C
:10018300001000D0070000000000000F0001000570
:1001930000307507001000010081FF00000000FF20
:1001A300020202D490010000C79002DA900100001D
:1001B300CD0F02CC90010000B20202DA90010000E0
:1001C300CE0F02CA90010000C802FFFF0100FF200A
:1001D30002D490010000C49002DA90010000FC0FE9
:1001E30002D090000000000002CE90030000A5039F
:1001F300990B990B990B990B990B990B990B990BDC
:10020300990B990B990B990B990BBB0DD90DB50D47
:10021300FFFF01E803053F10020AFF00FEFF120182
:1002230035CABC03120135E0BC031201350FBD030F
:1002330012013545BD031201355CBD03120135734F
:10024300BD03120135AABD03120135FDBD03120121
:100253003514BE031201359BB403120135B2B40346
:10026300120135E3B4031201351EB50312013548FB
:10027300B50312013572B50312013589B5031201B5
:1002830035A0B503120135B7B503120135E0B50347
:10029300120135F3B50312013509B60312013533E3
:1002A300B6031201352F8E02120135338F0212016C
:1002B30035608F02120135B68F02120135D98F02D4
:1002C300120135ED8F02120135EF8F021201351243
:1002D3009002120135219102120135E591021201BA
:1002E30035BA92021201352B9302120135B79302EC
:1002F300120135BA93021201354294021201357D7F
:100303009402120135E49402120135E794021201BA
:10031300351E9502120135479502120135F29502F9
:100323001201357C9602120135CB9602120135D8A3
:100333009602120135DB96021201353B9702120138
:1003430035469702120135C59702120135C8970247
:10035300120135DB9702120135DE97021201356D6A
:1003630098021201358798021201359798021201FB
:1003730035C79802120135D49802120135D7980275
:10038300120135589902120135469A02120135F8C5
:100393009A0212013545B0021201353DB102120134
:1003A3003571B102120135F3B10212013513B202F4
:1003B3001201355BB202120135AEB20212013512DF
:1003C300B3021201359FB30212013559B40212016F
:1003D3003568B702120135F3B80212013516B902B6
:1003E3001201356D96031201350A98031201356E19
:1003F3009803120135CD9803120135DB98031201DE
:10040300350499031201353FF50212013567F502F0
:1004130012013595F502120135CCF5021201352A88
:10042300F60212013575F602120135C0F602120109
:100433003500F70212013546F70212013574F7024F
:1004430012013531F8021201353BF8021201354829
:10045300F8021201357BF80212013547F902120145
:100463003553F9021201356BF90212013575F902A0
:10047300120135F3F90212013592C203120135A0BC
:10048300C203120135B8C203120135D0C2031201EF
:1004930035E8C20312013532D701120135DED70127
:1004A30012013559D8011201357AD901120135B635
:1004B300D9011201355FDA0112013546DB01120160
:1004C30035AADC0112013501DD0112013582DD019E
:1004D30012013572DE01120135BFDE01120135450D
:1004E300DF0112013577DF011201358BE1011201C2
:1004F30035CDE101120135EBE1011201358DE20148
:1005030012013555E30112013562E501120135B2DD
:100513009D03120135C89D03120135EE9D0312019F
:10052300350A9F03120135149F0312013549A003B5
:1005330012013541A1031201356389031201350705
:100543008A031201353A8A03120135848A031201A0
:1005530035478C03120135D96C00120135526D00F9
:10056300120135626D00120135506E001201355AC9
:100573006E001201357F6E001201358A6E00120182
:1005830035746F00120135D76F001201358D70007D
:100593001201357472001201352D740012013509F0
:1005A3007500120135BD7500120135FA780012018C
:1005B30035A87900120135177B00120135977C00AD
:1005C3001201353E7D00120135877D00120135BED3
:1005D3007D001201355B7E00120135E67E001201BB
:1005E3003537B9011201358CB901120135EBBA0166
:1005F300120135FBBA0112013528BB011201357F07
:10060300BB0112013528BC011201352FBD011201B6
:1006130035F9BD0112013559BF011201359CBF01E6
:1006230012013541C00112013567C0011201357550
:10063300C2011201357AC2011201357FC4011201D0
:1006430035CCC4011201353FC50112013572C50114
:1006530012013514C601120135BDC601120135F56B
:10066300C601120135F8C60112013540C701120156
:100673003582C701120135D9C70112013517A80305
:100683001201352AA80312013538A8031201358057
:10069300A80312013596A803120135DDA803120140
:1006A30035F1A9031201357EAA03120135C9AA0344
:1006B3001201352825001201353825001201359B1A
:1006C3002500120135E0250012013596260012019E
:1006D300357127001201359A2700120135CA270008
:1006E3001201350A2A00120135F12B00120135C916
:1006F3002D001201350D2F00120135743100120146
:1007030035823200120135D43300120135DE340054
:100713001201352035001201355835001201357AA2
:100723003500120135DD35001201359F3A00120103
:1007330035343B00120135883B00120135AF3B00D5
:10074300120135ED3B001201350C3C0012013566F8
:100753003C00120135663D00120135EB3D001201EC
:10076300356BEF0212013575EF021201351DF002F0
:1007730012013560F0021201357BF0021201350BD4
:10078300F10212013533F1021201356BF10212014C
:1007930035A2F102120135CBF10212013505F20245
:1007A3001201351AF202120135E7F2021201350A7B
:1007B300F3021201352CF30212013541F302120147
:1007C30035C7F30212013501F40212013579F4023F
:1007D300120135C2F402120135ECF402120135178D
:1007E300F5021201357EBF031201357BE5011201CB
:1007F30035A9E50112013504E701120135E4E701EA
:1008030012013503E80112013580E801120135C3F5
:10081300E8011201353EEA01120135ADEA01120188
:1008230035D8EC011201355CEF011201350DF001F1
:1008330012013503F101120135A3F101120135A1B2
:10084300F2011201352CF3011201352BBE03120103
:100853003594BE03120135E8BE0312013517BF03F9
:1008630012013538BF03120135E48D0312013551EE
:100873008E03120135988E03120135B08F031201D6
:1008830035AC90031201358F9103120135F7DB026A
:1008930012013539DC0212013512DD021201350C69
:1008A300DE02120135EEDE0212013557DF021201BC
:1008B3003573E002120135DFE002120135E2E00296
:1008C3001201350BE10212013585E1021201352ACD
:1008D300E2021201353FE20212013585E202120102
:1008E300359EE202120135A1E2021201354BA1034A
:1008F30012013587A103120135C5A1031201358FFA
:10090300A203120135FEA20312013539A30312011A
:100913003577A303120135A7A303120135CEA30331
:100923001201353CA4031201357EA403120135E7FD
:100933009001120135AA9201120135759401120139
:1009430035B19401120135DE9401120135A09501F0
:10095300120135E795011201352B96011201353D40
:1009630096011201357D9601120135AA96011201F5
:1009730035F8960112013532970112013555970169
:10098300120135A797011201353598011201350B74
:100993009901120135F59901120135C49B01120128
:1009A30035C5A00112013514A1011201355BA10166
:1009B3001201358EA301120135BFAD03120135318A
:1009C300AE0312013587AE03120135CBAE0312011C
:1009D30035EBAE0312013538AF0312013580AF0397
:1009E300120135D3AF0312013524B003120135527E
:1009F3003E001201359B3E00120135C83E00120134
:100A030035FB3E001201350B3F00120135173F0045
:100A1300120135283F001201350F40001201356DD8
:100A23004000120135A24000120135E541001201D8
:100A330035374200120135874200120135DA420090
:100A4300120135D943001201355445001201352BEB
:100A530046001201353B46001201355D4600120186
:100A6300356046001201352E4700120135FF47005D
:100A7300120135CE48001201352249001201358298
:100A83004900120135E64900120135974A00120167
:100A930035624B00120135044C00120135794C00CC
:100AA300120135E54C001201353A4D001201356B48
:100AB3004D00120135064E00120135EA4F001201B6
:100AC300353950001201357C5000120135FE5000BB
:100AD3001201359C5100120135E351001201350713
:100AE30052001201354E52001201357C52001201A0
:100AF30035C452001201353E5300120135825300B2
:100B03001201358F54001201353E55001201359FF5
:100B13005500120135FB5500120135145600120120
:100B23003541BA0212013594BA02120135A0BA0254
:100B330012013575BB021201359CBB02120135D778
:100B4300BB0212013543BC021201357FBC02120104
:100B530035B8BC02120135D0BC0212013525BD02E5
:100B63001201353EBD0212013587BD021201359ACD
:100B7300BD02120135B4BD02120135CABD02120114
:100B830035FDBE0212013544C00212013546C102D1
:100B930012013540C2021201351D25001201357BB9
:100BA300FA02120135EAFD0212013523FF02120196
:100BB30035ADF30112013523F60112013529F60192
:100BC30012013591F801120135F8FA0112013500CD
:100BD30080031201359680031201354D8103120102
:100BE300357781031201356A830312013592840339
:100BF30012013593A501120135C7A501120135B4C0
:100C0300AF0112013508B10112013513B20112010E
:100C13003593B30112013574B401120135AEB40139
:100C2300120135D1B40112013513B5011201355D3D
:100C3300B50112013567B50112013511B601120173
:100C430035EAB6011201353EB701120135A0B701ED
:100C5300120135F3B70112013522B8011201355FD4
:100C6300B801120135189A031201358E9A03120145
:100C730035A49A03120135E59A031201351F9B032C
:100C8300120135989B03120135D39B03120135469C
:100C93009C03120135849C031201358D9C031201C0
:100CA30035999C03120135B59C03120135E09C0371
:100CB300120135F69C031201351F9D031201358283
:100CC3009D03120135C5E202120135D8E202120179
:100CD30035F2E2021201351BE3021201355EE30233
:100CE3001201359DE302120135DBE30212013540A7
:100CF300E40212013555E4021201356CE4021201DB
:100D0300357AE40212013589E4021201359EE402C8
:100D1300120135B3E402120135BEE402120135CAF1
:100D2300E402120135D7E402120135EAE4021201AA
:100D330035F5E4021201351AE502120135C1E50267
:100D4300120135D6E502120135EBE5021201350534
:100D5300E60212013520E6021201353DE6021201D8
:100D63003548E60212013504E702120135F0E702C5
:100D730012013515E80212013520E802120135355A
:100D8300E80212013549E802120135AAE80212010C
:100D930035B0E802120135B6E802120135BCE802AB
:100DA300120135D4E80212013507E902120135EFC9
:100DB300A50212013511A602120135F1A602120194
:100DC30035C8A902120135F4AA0212013518AC0282
:100DD300120135CAAC021201356BAD0212013505A1
:100DE3008002120135898002120135388102120115
:100DF30035978202120135B88402120135A48502A7
:100E0300120135D98502120135FB8502120135AA7B
:100E13008602120135A28802120135CB8802120123
:100E2300355D89021201358F89021201359C8902D1
:100E3300120135F38902120135198A02120135862E
:100E43008C02120135898D02120135E18D021201E6
:100E530035C6C801120135D0C901120135B7CA011F
:100E6300120135C1CA01120135E3CA01120135EF7E
:100E7300CA0112013588CC01120135B7CC01120128
:100E830035D3CD011201352CCE0112013592CF019C
:100E930012013571D001120135CDD0011201353A5D
:100EA300D10112013575D101120135B4D1011201FD
:100EB300356DD40112013587D40112013513D501E3
:100EC30012013521D5011201357AD5011201358878
:100ED300D501120135FBD5011201355FD60112018F
:100EE30035A9D60112013545B6031201356AB60399
:100EF300120135DCB603120135ABD402120135B44D
:100F0300D402120135BDD40212013594D502120167
:100F13003545D7021201357BD702120135B5D70209
:100F2300120135EBD70212013525D80212013559CA
:100F3300D80212013585D802120135CED80212012A
:100F43003508D90212013551D902120135A9D90246
:100F5300120135DED90212013539DA021201357375
:100F6300DA02120135C4DA02120135FADA02120189
:100F73003534DB0212013557DB0212013519C50383
:100F830012013545C503120135A0C503120135AA67
:100F9300C503120135BAC5031201350BC402120190
:100FA3003515C40212013553C4021201359CC40223
:100FB300120135D6C40212013530C5021201355172
:100FC300C50212013529C80212013532C8021201C5
:100FD300357FC802120135A8C802120135B2C80212
:100FE3001201351EC902120135B0C902120135FAC8
:100FF300C90212013530CA02120135BCCA021201FC
:1010030035FDCA0212013534CB0212013546CB023B
:1010130012013565CB021201356ECB021201353B4D
:10102300CC021201359BC103120135AAB20312018E
:1010330035E0B20312013516B30312013561B4036F
:10104300120135C4C503120135DAC503120135E4B3
:10105300C5031201352EC603120135C984031201DB
:1010630035DE84031201358E8503120135CE8503E7
:10107300120135E785031201352286031201356F0C
:101083008603120135A18603120135E3860312019B
:1010930035E488031201355689031201356EFF02C8
:1010A3001201352EBB0312013557BB0312013586DE
:1010B300BB031201351EBC0312013536BC031201FA
:1010C3003578BC0312013584E902120135C6E90201
:1010D30012013548EA021201355DEA02120135AE0A
:1010E300EA0212013502EB0212013547EB0212014B
:1010F3003556EB021201350AEC0212013565EC029A
:10110300120135B4EC021201350AED02120135FF6A
:10111300ED02120135F6EE0212013533EF02120130
:101123003582FF01120135465600120135C75800BA
:10113300120135615A00120135155B00120135A801
:101143005B001201352D5C00120135525C00120167
:1011530035A45C00120135596000120135DF6000CF
:101163001201351262001201354C62001201358101
:1011730062001201353E64001201357264001201EF
:1011830035CF64001201351865001201357F650003
:10119300120135F865001201352766001201353F4B
:1011A3006600120135886700120135986700120145
:1011B30035B66800120135D868001201350E690092
:1011C300120135BD6A001201354A6B0012013589DF
:1011D3006B00120135A26C0012013563C4031201C6
:1011E3003574C403120135B4C603120135F3C603C3
:1011F30012013551C70312013581C3031201359121
:10120300C303120135A9C3031201355DC4031201DF
:101213003597C0031201351CC10312013582C10386
:10122300120135EAB70312013513B80312013579F8
:10123300B80312013599B803120135EAB803120154
:101243003545B9031201357FB90312013582B9035C
:10125300120135C6A403120135DBA40312013506BE
:10126300A60312013582A603120135F6A603120165
:101273003510A70312013527A7031201353AA70337
:1012830012013554A7031201356BA70312013591DF
:10129300A703120135E2A70312013551920312018C
:1012A30035689203120135E29203120135C69303A6
:1012B3001201359D9503120135029603120135592A
:1012C3009603120135F87F0012013565B003120150
:1012D3003500B20312013561B203120135A7B2031F
:1012E3001201358CB903120135DEB90312013568D9
:1012F300BA03120135CFBA03120135F3AA0312015F
:10130300351DAB03120135EBAB03120135C6AC033C
:101313001201354DAD0312013569CC02120135308E
:10132300CD0212013567CD0212013591CD021201B2
:1013330035F1CD0212013547CE02120135ACCE0292
:1013430012013544CF0212013553D002120135EA9E
:10135300D10212013577D202120135DED202120117
:1013630035F5D2021201350FD4021201354DD402E4
:10137300120135699B02120135739C02120135512A
:101383009D02120135829F021201354EA002120105
:101393003571A002120135A7A202120135F9A2028A
:1013A30012013597A302120135C8A4021201356D4B
:1013B300A502120135C37F00120135FDC6031201D8
:1013C30035CDFF0212013533C703E066701008A361
:1013D300E066700A08A3E066700408A3E06622C30F
:1013E300E7960809E7960809E7960809E79622C3EE
:1013F300E09608A3E09608A3E09608A3E09622C02F
:1014030008C3E096F50808A3E096420808A3E0960F
:10141300420808A3E09645087001D3D008220808C3
:1014230008EAC0E0EBC0E086F0E7A4FA180986F00A
:10143300E7A42AFA180986F0E7A42AFA180986F01D
:10144300E7A42AFA1986F0E7A4FBE5F02AFA1908BB
:1014530086F0E7A42BFBE5F03AFA190886F0E7A437
:101463002BFBE5F03AFA18180986F0E7A4C5F02B30
:10147300FBE43AFA1908E7C5F0C6A426F6E5F03B03
:10148300FBE43AFA1886F0E7A4F6E5F00826F6E45A
:101493003B08F6E43A08F6D0E0FBD0E0FA22E4CFCA
:1014A300C0E0E4CEC0E0E4CDC0E0E4CCC0E075F041
:1014B30020E626F608E633F608E633F608E633F6C2
:1014C300181818EC33FCED33FDEE33FEEF33FFC396
:1014D300EC9709ED9709EE9709EF97191919400F42
:1014E300FFEC97FC09ED97FD09EE97FE191906D558
:1014F300F0BFECF709EDF709EEF709EFF719191942
:10150300D0E0FCD0E0FDD0E0FED0E0FF2260160882
:101513000808C6C313C618C613C618C613C618C60A
:1015230013C6D5E0EA2270090808082260161818C5
:1015330018C6C333C608C633C608C633C608C6337F
:10154300C6D5E0EA22E627F60809E637F60809E6F3
:1015530037F60809E637F622E026F608A3E036F662
:1015630008A3E036F608A3E036F622E026F008A347
:10157300E036F008A3E036F008A3E036F022C3E635
:1015830097F60809E697F60809E697F60809E69735
:10159300F622C3E096F008A3E096F008A3E096F0E5
:1015A30008A3E096F022E657F60809E657F608097D
:1015B300E657F60809E657F622E056F608A3E05682
:1015C300F608A3E056F608A3E056F622E056F00824
:1015D300A3E056F008A3E056F008A3E056F022E09B
:1015E30066F608A3E066F608A3E066F608A3E066DD
:1015F300F622E0F608A3E0F608A3E0F608A3E0F677
:1016030022E6F008A3E6F008A3E6F008A3E6F0223A
:10161300E0FAA3E0FBA3E0FCA3E0FD22EAF0A3EBE6
:10162300F0A3ECF0A3EDF022CAC0E0E6F0A308DAE1
:10163300FAD0E0FA22CAC0E0E0A3C582CCC582C5D5
:1016430083CDC583F0A3C582CCC582C583CDC583B5
:10165300DAE6D0E0CA22C3E498F8E499F912169ABC
:101663008026C3E49AFAE49BFBE920E7E912169A81
:10167300E498F8E499F922C3E498F8E499F9121686
:101683009AE498F8E499F9C3E49AFAE49BFB22EB11
:1016930020E7CFE920E7E0B90010BB0008E88AF0B3
:1016A30084F8AAF022E4FBC8FA22EB70227B10C86C
:1016B30033C8C933C9335007C39AC3DBF280069AD0
:1016C30050012ADBEAC833F4C8C933F4C9FA2275D6
:1016D300F008E4C833C8C933C933C99AC99B500455
:1016E300C92AC93BD5F0ECFBC833F4C8E4C9FA22D4
:1016F300600D08C6A2E713C618C613C6D5E0F322C9
:10170300600C08C6C313C618C613C6D5E0F422700E
:101713000422600D18C6C333C608C633C6D5E0F429
:101723001822251910AF08F519400C151A8008F571
:10173300194002151AD2AF2200C0D0251910AF08E4
:10174300F519500C051A8008F5195002051AD2AF85
:10175300D0D0222519F58210AF08F519400C151ABF
:101763008008F5194002151AD2AF851A832225196C
:10177300F582E4351AF58322E4732519C582C0E0A6
:10178300E51A34FFC583C0E0E519C3958224F81038
:10179300AF0885831A858219800885831A85821983
:1017A300D2AFCEF0A3E520F0A37808E608F0A3DEDD
:1017B300FAEFF0A3E58124FAF8E608F0A3E608F0CF
:1017C300A3E608F0A30808E608F0A3E608F0A315CB
:1017D300811581D0E0FED0E0F8158115811581E8EF
:1017E300C0E0EEC0E0222519C582C0E0E51A34FF4F
:1017F300C583C0E0E519C3958224F910AF0885833A
:101803001A858219800885831A858219D2AFCEF092
:10181300A3E520F0A37808E608F0A3DEFAEFF0A32F
:10182300E58124FBF8E608F0A3E608F0A30808E640
:1018330008F0A3E608F0A315811581D0E0FED0E0FF
:10184300F815811581E8C0E0EEC0E022851A838592
:101853001982E0A3FEE0A3F5207808E0A3F608DFF1
:10186300FAE0A3FFE0A3C0E0E0A3C0E0E0A3C0E090
:10187300E0A3C0E0E0A3C0E010AF08858219858330
:101883001A800885821985831AD2AFD083D0820249
:101893000132851A83851982E0A3FEE0A3F520783F
:1018A30008E0A3F608DFFAE0A3FFE0A3C0E0E0A3AB
:1018B300C0E0E0A3C0E0E0A3C0E010AF0885821958
:1018C30085831A800885821985831AD2AFD083D085
:1018D3008222C0D02519C582C0E0E51A34FFC58332
:1018E300C0E0E519C3958224F310AF0885831A85F8
:1018F3008219800885831A858219D2AFC8F0A3E9BB
:10190300F0A3EAF0A3EBF0A37908E709F0A3D8FA70
:10191300ECF0A3EDF0A3EEF0A3EFF0A3D0E0F0A37F
:10192300D0E0F0A3D0E0F0A3E520F0A3E5F0F0A32E
:1019330022851A83851982E0C0E0A3E0F9A3E0FAC7
:10194300A3E0FBA37808E0F608A3DFFAE0FCA3E03A
:10195300FDA3E0FEA3E0FFA3E0C0E0A3E0C0E0A39B
:10196300E0F5D0A3E0F520A3E0A3F5F010AF0885E0
:10197300831A858219800885831A858219D2AFD08C
:1019830082D083D0E0F8D0E0327404800674028001
:10199300027401C0E0F404121756D0E012162B2291
:1019A3007404800474028000CCC0E0EDC0E0E5194B
:1019B300C39CCCAD1A50011D10AF068C198D1A8033
:1019C300068C198D1AD2AF121638D0E0FDD0E0FC88
:1019D30022D083D082E9C0E0E493A3C386F0C5F0AC
:1019E30095F0F908E493A386F0C5F095F0700BE445
:1019F30093A3C3994005E9048002A3E475F002A40C
:101A03002582F582E5F03583F583D0E0F9E493A3ED
:101A1300C0E0E493C0E022D083D082ECC0E0EDC00C
:101A2300E0E493A3FCE493A3FDED4C600D121A666E
:101A3300EC24FFFCED34FFFD80EFE493A3FCE4937F
:101A4300A3FDED4C600D121AA5EC24FFFCED34FF51
:101A5300FD80EFD0E0FDD0E0FCE493A3C0E0E4938D
:101A6300C0E022C0E0C3E493960874019396184043
:101A73000FE4936670080874019366187000701978
:101A8300A3A3C3E49396087401939618A3A3400DEC
:101A9300D0E0D0E0D0E0021A56A3A3A3A3A3A3D01F
:101AA300E022C0E0C0F088F0E49366700808740197
:101AB3009366187000A8F0A3A3700BD0F0D0E0D009
:101AC300E0D0E0021A56A3A3D0F0D0E02274F512BE
:101AD30017E9EAFEEBFFEE2434F8EF3400F9880847
:101AE3008909EE2435121BFCF8EE2437121BFCF592
:101AF3000AEC850AF0A4FCAAF0850AF0EDA42AFDFD
:101B0300E82CF8E43DF97A257B0012169AEA850859
:101B130082850983F074075AF87401B800028004BF
:101B2300C333D8FCFBEA131313541FF8EE28F8EF62
:101B33003400F9E8245DF582E9121BFF5B6003EAD8
:101B4300801CEE2436121BFCF5F0EA84A8F0EE2884
:101B5300F8EF3400F9E82438F582E9121BFFF97F26
:101B63000402189574F51217E9EAFEEBFFEE24342C
:101B7300121BFCC0E0EE2435F582EF3400F583D070
:101B8300E0F08E828F83A3A3A3A3A3E0FAA3E0FBD9
:101B93008E828F83A3A3A3A3A3A3A3E0FCA3E0FD4F
:101BA300ECC39AF50AED9BF50BEE247FF508EF34B1
:101BB30000F509850882F583E06401702BEE24802B
:101BC300F582EF3400F5831219A7121C0574021273
:101BD300173BE960137CBF7D07EEFAEFFB120AAFF8
:101BE300850882850983E4F0AC0AAD0BEEFAEFFBBE
:101BF300121AD012249E021B62F582EF3400F58381
:101C0300E022C082C083851982851A83E0F8A3E0AD
:101C1300F9C3EA9CEB9D5010C3EC98ED99401BC3AC
:101C2300EA98EB995014800EC3EA98EB994007C3E6
:101C3300EC98ED994004790180027900D083D08239
:101C43002274ED1217E9900479E064086005E064FA
:101C530007702C9061C8E060269004A7E0F874FF39
:101C630068601CE875F005A4C8AAF02AF974A928CD
:101C7300FE740439FF8E828F83A3A3A3E0700579DA
:101C830000021DE4EE2468F510EF3400F5119060B6
:101C930060E0851082851183F0750AFB750B07756B
:101CA3000800750900E5D914F50EE5D95403F50FBD
:101CB300601CEE2482F50CEF3400F50D7403650F00
:101CC3006058E50E6013EE2467121BFC700B793D20
:101CD300EEFAEFFB120AD980A69007F6E0640160E2
:101CE30026850C82850D83E06004780480027800E9
:101CF300850E08E508C398FA95E0FB1209418A08A6
:101D03008B09EA45097006120D91021C82850C822B
:101D1300850D83E070048A0A8B0B78008016E5D961
:101D2300C0E08812E50A2512F582E50B3400F5833D
:101D3300D0E0F008E8C3950E40E4850C82850D835E
:101D4300E0602874FC250EF50E780A121990AC0E8B
:101D5300A90FEEFAEFFB120B93740212173BE97013
:101D63000AAA08AB091212E9021CD17403650F60B9
:101D730058850E0C750D00780C121990AC0AAD0B3A
:101D8300AA08AB09120B57740212173B8510828500
:101D93001183E0F87480687005750C7F8002880CED
:101DA300E50CF50A780A121994E50FF50A780A1278
:101DB3001994A90EAC08AD099004A7E0FA7B0012B0
:101DC30007E5740212173B8013900479E0640870EE
:101DD3000BAC0AAD0BEEFAEFFB120BC3120D9D79A0
:101DE300017F0C02189574F31217E974FC1217257E
:101DF300EAFEEBFF8908A2AFE433F509C2AFEE2494
:101E030063F50AEF3400F50B8010AA0AAB0B120B33
:101E13000F1212E99007C6E004F0850A82850B834E
:101E2300E0F8A3E0F9E849602FE82402FAE9340076
:101E3300FBEA2402F50CEB3400F50D780C12199033
:101E43008A828B83E0FCA3E0F9EEFAEFFB120B032B
:101E5300740212173BE960B29007C6E0605790071F
:101E6300C7E0F89007C6E0C398500C740265087089
:101E7300449007C8E0603E8E828F83A3A3A3A3E0B0
:101E8300851982851A83121EC87402121771E8120B
:101E93001EC89007C5E028F07402121771AC82AD1A
:101EA30083851982851A83AA82AB8379011207F18C
:101EB3009007C6E4F0E509A2E092AF740412173B61
:101EC3007F06021895F0A3E4F09007C6E0F822001D
:101ED30000851C87851DC622C0E074EF1218D5A2A9
:101EE300AFE433FEC2AF759B00906182E0A2E05085
:101EF30012E591A2E0500C7591FE7401651C70030C
:101F0300121C44E0A2E55051E591A2E5504B7591B6
:101F1300DF900479E064076005E0640870237401CE
:101F2300651C703579019004A7E0FA75F005A4CA21
:101F3300A8F028FB74A92AFA74043BFB121DE9805C
:101F430018E0640D701390049BE004F064287002A1
:101F5300E4F07A00E0F9120DA3906182E0A2E6407A
:101F630003022002E591A2E640030220027591BF1D
:101F7300900479E064057008120C95120CA180039B
:101F8300120C9B751C00120D13E990047AF0790072
:101F9300120CF5120A137A017B00900478E0F9120F
:101FA3000FFB907803E0644270559007FAE014F059
:101FB300704DC2AF121FBA00781FD0E0F618D0E000
:101FC300F6E59F540770057509FF800375097FC403
:101FD300C0E0781EE6F50808E65509F509740B78A4
:101FE30008121703D0E02508F8906270E0A2E740DA
:101FF300F8E8C333906272F0906270E0D2E0F09040
:102003006181E0A2E35009E5E9A2E3500375E9F732
:10201300A3E0A2E75009E591A2E7500375917FEE93
:10202300A2E092AF7F04021934C0E0C0D0C082C0E6
:1020330083906183E0A2E05009E5BFA2E0500375FD
:10204300BFFEE0A2E15009E5BFA2E1500375BFFD69
:10205300E0A2E25009E5BFA2E2500375BFFBE0A294
:10206300E35009E5BFA2E3500375BFF7E0A2E450D4
:1020730009E5BFA2E4500375BFEFE0A2E55009E50F
:10208300BFA2E5500375BFDFE0A2E65009E5BFA29A
:10209300E6500375BFBFD083D082D0D0D0E032C02A
:1020A300E074F21218D5E5A7A2E4500FE5A1A2E46B
:1020B300500953A7EF75A1EF1220F6E5A7A2E5504B
:1020C3000CE5A1A2E5500653A7DF75A1DFE5A7A2A2
:1020D300E15009E5A1A2E1500375A1FDE5A7A2E244
:1020E300500CE5A1A2E2500653A7FB75A1FB7F01AB
:1020F30002193474F81217E9751C01900479E0642D
:102103000670077A007B00120C7DA2AFE433FED287
:10211300AF90047FE0640170187A207B009004780C
:10212300E0F912107F7A207B00900478E0F9121016
:1021330001906182E0D2E6F09007F7E0602185C666
:102143001D801690047EE064017008E5C654F844CF
:1021530005F5C653BEFC121ED47401651C60E4EE83
:10216300A2E092AF7F0102189574E91217E974FA9D
:10217300121725EAFEEBFF8C088D09900479E02401
:10218300F7C394055006751001022297120C1D8A9D
:102193000A8B0BEA450B7003022294120CB38A0CD0
:1021A3008B0D120CB3EA650C7003EB650D60ECEE5E
:1021B300FCEFFD851982851A83AA82AB83120CB9C1
:1021C300850A82850B83A3A3780C1215F590905C86
:1021D300780C1215BC851982851A8378141215F5AB
:1021E30090905C78141215BC780C79141213E25099
:1021F3001F780C7914121581909064780C121402D4
:102203004047850C10850D11850E12850F138045EF
:10221300909064851410851511851612851713780F
:1022230010790C1215817810121402501C751000CD
:102233007511007512007513017810791412158148
:102243007810790C121548800C7510017511007502
:1022530012007513007409781012152990906C7888
:102263000C1215F57810790C1214A1900479E0641E
:1022730008600AE064066005E0640570209090A0A1
:1022830078101214025016909054781012155B8037
:102293000C75100075110075120075130085088206
:1022A3008509837810121604740612173B7F1002F7
:1022B300189574F71217E9120CCB9007F5E0640137
:1022C3007010906245E4F0A3F053F4F343FE0C5313
:1022D30090F3120C6BE5C654804449F5C6E59E5451
:1022E3007F644970F8906185740FF09007F3E0F410
:1022F3007002A3E0602C7508017509009007F3E0F4
:102303007808121712E508F4FAA3E0600814600ACB
:1023130014600C800DEA52808008EA52908003EA30
:1023230052A079007F0202189574F71217E9E9FEAB
:10233300EAFF74016E700C7A807B00900478E0F9F8
:10234300120FFB902520E493F46008E493F912093B
:10235300F5800953C680E59E547F70FA120C719084
:1023630007F5E064017003120A2B9007F3E0F470A1
:1023730002A3E0602A7508017509009007F3E0786D
:1023830008121712AA08A3E0600814600A14600C6C
:10239300800DEA42808008EA42908003EA42A0125C
:1023A3000C1D8A088B09A808A909E8496017E5E10B
:1023B30070FCE82414F582E93400F583E0F874FF37
:1023C30068600288E174016F700A7A01900478E012
:1023D300F912104F02232774F11217E98A088B09A7
:1023E3008C0A8D0B90905C78081215BC740F121731
:1023F30071780C1215F590905C780C1215BC780866
:10240300790C1213E290906450107808790C12152D
:102413008178081214024014800E780C7908121582
:1024230081780C12140250047901800279007F082C
:1024330002189574ED1217E98A088B098C0A8D0B23
:1024430090905C78081215BC7413121771780C12F3
:1024530015F590905C780C1215BC780C7908121362
:10246300E240117808790C121581AA08AB09AC0A6D
:10247300AD0B8022751000751100751200751301E4
:102483007810790C12158178107908121548AA1062
:10249300AB11AC12AD137F0C021895C082C083E957
:1024A300906000F0D083D08222C2AF02000022C02D
:1024B300E074F21218D5A2AFE433FED2AFE589A2DD
:1024C300E15003121241758900C2C5751B00EEA2CB
:1024D300E092AF7F01021934C0E074F21218D5A262
:1024E300AFE433FED2AFE58BA2E050031212417585
:1024F3008B00C2E880D5C0E0C0D0E8C0E0E9C0E00E
:10250300E5A8D2AFC2C7751B00A2E7A2E792AFD07E
:10251300E0F9D0E0F8D0D0D0E032020132FFFFFF83
:10252300FFFFFFFFFFC082C083E9900FFBF0D08362
:10253300D08202013274F612177DE9900365F07CB4
:10254300A57D037AFF7BFF12073D7A008A08750990
:10255300007402780812171274662508F87403359C
:1025630009122587A3F00AEAC3940340DF79051211
:1025730006CB900365E0F91205ED7A557B07120847
:10258300F3023B83F98882898374FF122594E4F074
:1025930022F0A3123A2EA32274F412177D8A088B19
:1025A30009EB54806030900365E0F9120FE38A0A67
:1025B3008B0BAE0AAF0BEE4F60138E828F83E064FA
:1025C300B070031206DDEEFAEFFB120FD1AA08E595
:1025D300096480FB80047A007B0002276C74F2128A
:1025E300177D74FC121725EAFEEBFFEE4F6038747B
:1025F30002121771EEF0A3EF1229F1ECF0A3ED1222
:1026030029F1AA82AB831205E7E9F5087071741208
:102613001217711235D5E50A450B60638E828F83DD
:1026230012268CEE4F700575080280537A067B00E4
:102633001210378A0C8B0DA80CA90DE8497005758B
:102643000813803B88828983E4122594EEF0A3EF7C
:10265300123A76E50AF0A3E50BF0900373122764B0
:102663009003736017E0FCA3E08003EAFCEBFD8CAE
:10267300828D8312276470F38C828D831234D8A9E0
:1026830008740412173B023C61A3A3A3A3E0FEA3B7
:10269300E0FF2274F212177D890AE975F045A4FE62
:1026A300AFF0900372E4F09003681227646028127D
:1026B300103D790089087509007402780812171211
:1026C30074682508F58274033509F583E4F0A3F0F3
:1026D30009E9C3940340DDEEFAEFFB1210378A08D1
:1026E3008B09EA45096075EEFCEFFD7900120FB91D
:1026F3007D008D0C750D007402780C12171274682E
:10270300250CF87403350DF9E50AF5F0EDA475F021
:1027130017A4FAABF0E5082AFAE5093BFB8882899E
:1027230083EAF0A3EBF07E00801BEE75F017A4FAAA
:10273300ABF088828983E02AFCA3E03B8C82F5839B
:10274300E4F0A3F00EEEC3950A40DF0DEDC394034E
:1027530040A0E50A900372F0790080027913023CED
:1027630061E0FAA3E0FBEA4B227F0402184F74F402
:1027730012177D7900EAA2E0501B750814750990C1
:1027830078081219907C047D007AFD7B0F1206C530
:10279300740212173B80D2C082C083900373123A33
:1027A3006849601C88828983A3A3E06A7003A3E05D
:1027B3006B8882898370E7A3A3A3A312327C80046E
:1027C3007A007B0002253174EE12177D74FC121718
:1027D30025EAFEEBFF851982851A83E4F0A3F0EE68
:1027E30024021234C3EE24051229DFEE2404F50E6D
:1027F300EF122DBBE024FE603924FC604624FE600A
:102803005224FE605E24FE70030228E424FE70035B
:1028130002295C24FE700302296B24FE7003022943
:102823007A24FC700302298924FE7003022998028A
:1028330029D590038C7417F0A3E41229F912025DD1
:102843000229D5851982851A83AC82AD831206E3EA
:102853000229A5851982851A83AC82AD831206E904
:102863000229A5850C08850D097402121771AC8223
:10287300AD8385088285098312327C12060B8A0C8C
:102883008B0DAC0CAD0DEC4D6042E4F50CF50D7801
:102893000C121990750C8C750D03780C1219907528
:1028A3000C8D750D03780C121990740812177112A0
:1028B30019A77916123276120725740812173BE905
:1028C300F50C700B123272120275800F750C0185B4
:1028D30008828509831229E71234D8850C08022956
:1028E300A87402121771AC82AD83850C82850D83A7
:1028F30012327C12060B8A108B11AC10AD11EC4D09
:102903006043850C82850D83A3A31219A775108CD0
:10291300751103781012199075108D7511037810C5
:1029230012199074081217711219A77916123276B8
:10293300120725740812173BE9F509700B1232725E
:1029430012027B800F750901850C82850D83122984
:10295300E71234D8850908804C851982851A83AC1F
:1029630082AD831206EF803A851982851A83AC8281
:10297300AD831206F5802B851982851A83AC82AD4F
:10298300831206FB801C851982851A83AC82AD8372
:10299300120701800D851982851A83AC82AD8312DB
:1029A3000707E9F508E50860298E828F83A3E064B1
:1029B30014601F850E82850F83E090038C1229F12A
:1029C300123D3090038D1234D8E508A31229F91271
:1029D3000257EEFAEFFB1206890233CAF50CEF3405
:1029E30000F50D22123D34851982851A8322F08564
:1029F3001982851A8322F07C8C7D03850A82850BDC
:102A030083E0FAA3E0FB2274EE12177D74FC121725
:102A1300258A0A8B0B8C0E8D0FEA2405F508EB34FF
:102A230000F5097C157D0079007A8C7B03120FB9C0
:102A3300E5082402F50CE5091229E2851982851AB5
:102A430083858210858311781012199085088285F9
:102A53000983A3A3A3A3122F04121990E508240545
:102A6300F510E5093400F5117810121990850C82E0
:102A7300850D8312326612327C1206057406121714
:102A83003B8A108B11AE10AF11E50A2402F50AE55B
:102A93000B1234C6EE4F7003022BD380177402124D
:102AA300177112327C88828983EAF0A3EBF09003DA
:102AB3008CE004F090038CE0C394054003022BD315
:102AC300E4F510F51178101219907510757511034E
:102AD30078101219907510767511037810121990E9
:102AE30074061217711219A77910EEFCEFFD12325A
:102AF30076120725740812173BE9705E85088285F4
:102B03000983A3A3A3A3A3A3A3E0F8900375E06899
:102B13007048122F041219907C767D03E50824086F
:102B2300FAE5093400FB120FB3740212173BE96094
:102B3300298E828F83A3A3A3A312327C90038CE0FC
:102B4300F51074027810121712748D2510F5827423
:102B5300033511F583EAF0A3EBF0740212177185C4
:102B63008210858311781012199074021217711252
:102B730019A7850C82850D83123D45120611740435
:102B830012173B8A108B11AE10AF1190038CE0F536
:102B93001075110074027810121712748C2510F836
:102BA30074033511F988828983A3122764700302A1
:102BB3002A97E82403F8E93400F9EE4F6003022A68
:102BC300A08882898374FFF0A3F090038CE004F063
:102BD30090038CE0600A1232721202697900800B52
:102BE3008508828509831234CF790A0233CA74EACD
:102BF30012177D74FE1217258C128D13EA2405F526
:102C03000CEB123D4F122690750800750900EA245B
:102C130002F510EB3400F511851982851A8385823C
:102C23000A85830B780A121990850C82850D83A37C
:102C3300A3A3A3122DC5121990E50C2405F50AE5EB
:102C43000D1234C6780A121990850C82850D8312F1
:102C53003D43120605740612173B8A0A8B0BEA459D
:102C63000B7003022D86EA2404F50EEB122DBB1222
:102C730026908A828B83A3A3A3E0F9851082851112
:102C83008312327C1205F3E9F5096003022D86E411
:102C9300F514F515781412199075147575150378D4
:102CA300141219907514767515037814121990740B
:102CB300061217711219A77913AC0AAD0B8510828E
:102CC30085118312327C120725740812173BE9F52C
:102CD300096003022D86900375E0F8E5087009E0AA
:102CE300240290038DF0801790038DE0FCE824020A
:102CF300FAE43400FBEA6C7001EB6003022D8A8571
:102D03000882AA82122EFB9414122EF35075850E9C
:102D130082850F83E0C0E0123132D0E0F0050885F0
:102D23000E82850F83A3E0C0E085080A748E250A0E
:102D3300F58274033400F583D0E0F0050890037541
:102D4300122DC51219907C767D0385080A748E2591
:102D53000AFA74033400FB120FA1740212173B909A
:102D63000375E02508F50874FF6E700374FF6F6048
:102D730012EE24010EEF3400FFE508C39414500350
:102D8300022C1BE5086013123158851082851183CC
:102D930012327C12026F79008014E5097003750901
:102DA3000A851282851383EEF0A3EFF0A90974025A
:102DB30012173B7F0E02184F3400F50F850E82F574
:102DC3008322123A852274EE12177D74FE121725A0
:102DD3008C0E8D0FEA2405F50CEB1229E2750B001E
:102DE30090038CE4F0F50AEA2402F508EB3400F5CD
:102DF30009804990038CE0FA900375E0F8122EFBEA
:102E03009417122EF3400D90038CE0F87416C398B8
:102E1300900375F0122F041219907C767D03748D44
:102E23002AFA74033400FB120FA1740212173B90A9
:102E33000375E0F890038CE028F0050AE50C2416EE
:102E4300F582E50D3400F583E0F8E50AC398400305
:102E5300022EDC90038CE0C39416507DE50AC33345
:102E6300F8E433F9E50C28FEE50D39FF8519828571
:102E73001A83AC82AD838E828F8312327C12060B4F
:102E83008A108B11AC10AD11EC4D7005750B0180E0
:102E930043E4F510F511781012199075107575113A
:102EA30003781012199075107675110378101219A2
:102EB3009074061217711219A7791685088285096D
:102EC3008312327C120725740812173BE9F50B7045
:102ED30003022DF61234CB80107C8C7D038508828F
:102EE30085098312327C120281A90B74020233CC4E
:102EF300E99400C365D03322EA28F8E43400F9E802
:102F030022E0F51075110078102274EA12177D740F
:102F1300FC1217258A0C8B0D8C128D13EA2405F5F0
:102F23000AEB1234C6750800750900E50A2402F598
:102F330010E50B3400F511740212177185820E85AA
:102F4300830F780E121990850A82850B83A3A3A39E
:102F5300A3123A35121990E50A2405F50EE50B3450
:102F630000F50F780E1219908510828511831233A4
:102F7300C4123276120605740612173B8A0E8B0FA3
:102F8300AE0EAF0FE50C2402F50EE50D3400F50F80
:102F930080408882898374FFF0050812313E74FFF4
:102FA300F00508900375E0F50C750D00780C121907
:102FB300907C767D0385080C748E250CFA7403349B
:102FC30000FB120FA1740212173B900375E0250852
:102FD300F508EE4F60718E828F83A3A3A3E0F9857A
:102FE3000E82850F8312327C1205F3E9F509EE2474
:102FF300041229DFE97044E4F514F5157814121965
:1030030090751475751503781412199075147675E7
:103013001503781412199074081217711219A779ED
:1030230011EEFCEFFD850E82850F8312327C1207B1
:1030330025740812173BE9F5096027850C82850D75
:103043008312314E1234D8E508700302311812315D
:1030530058850E82850F8312327C12028779000213
:10306300312D850882AA82EA9003757009E0240451
:1030730090038DF08022E0F890038DE0F514E824AE
:1030830004FCE43400FDEC65147001ED70C0122EF5
:10309300FB9412122EF350B6850C82850D83E0C08B
:1030A300E0123132D0E0F00508850C82850D83A350
:1030B300E0C0E012313ED0E012316A85820C858394
:1030C3000D780C12199074041217711219A7851038
:1030D30082851183123D45120611740412173B8A2F
:1030E3000C8B0DAE0CAF0D85080C748E250CF8748B
:1030F300033400F9EE4F7003022F95851982851A68
:1031030083E08882898312316AA3E0C0E012313EF2
:10311300D0E0022FA3E509700375090A850A8285A9
:103123000B8312314E1234D8A9097404022DB374DF
:103133008E2AF58274033400F5832285080C748E7D
:10314300250CF58274033400F58322123D34851275
:10315300828513832290038DE0F5F0E508849003C4
:103163008CF07C8C7D0322F00508851982851A83F7
:103173002274EC12177D74FE1217258A088B098CB2
:103183000E8D0FEA2405FEEB3400FF851982851AA4
:1031930083AC82AD838E828F8312327C12060B8ABC
:1031A3000A8B0BEE24181229DFEA450B7003023257
:1031B300411233AC5032851982851A8312327C1244
:1031C30007198A108B11EA4511606E7912AC0AADAA
:1031D3000B85088285098312327C851082851183D1
:1031E30012177BE9F50A705BE4F50AF50B780A120E
:1031F30019908E828F83A3A3E0F50A780A1219909F
:10320300EE24031234C3780A1219908E828F83122C
:10321300326612327C12072B740612173BE9F50A49
:103223007021850C82850D83E0701F8508828509D6
:103233008312327C12028D8011750A0E8009750A81
:10324300018004E50A60031234CB850C82850D836B
:10325300E0600479008002A90A740212173B7F0C14
:1032630002184FE0FCA3E0FD850882850983227CD8
:103273008C7D03850A82850B83E0FAA3E0FB22742D
:10328300EE12177D74FE1217258A088B098C0C8D9C
:103293000DEA2405FEEB3400FF750E0085198285C7
:1032A3001A83AC82AD838E828F8312327C12060B1B
:1032B3008A0A8B0BEA450B70030233981233AC5026
:1032C30035851982851A8312327C1207198A0E8B6F
:1032D3000FEA450F605E7912AC0AAD0B8508828553
:1032E300098312327C850E82850F8312177BE9F5E1
:1032F3000E600302339B8508828509831235D5AAA4
:103303000AFB12070D8A108B11A810A911E8497046
:103313001E7AFF7BFF12070D8A108B11A810A911CB
:10332300E849606C88828983E50AF0A3E50BF075B0
:103333000A008007750E0E805F050A900372E0FA9B
:10334300E50AC39A504AE50A75F017A4FAABF08868
:10335300828983A3A3E02AFAA3E03BFB8A828B83BF
:103363001233C4EC4D70D2750A17750B00780A122C
:103373001990EEFCEFFD120FA1740212173BEEFC45
:10338300EFFD85088285098312327C120293801433
:10339300750E098003750E01123D2C850C82850D77
:1033A300831234D8A90E022EEEE5082402F508E5AF
:1033B300093400F5098A828B83A3A3A3E0A2E52243
:1033C300A3E0FCA3E0FD22740412173B7F0A02185A
:1033D3004F74EC12177D8C108D11EA2405F50CEB5C
:1033E3001229E2750F00EA2402F50AEB1234C685AE
:1033F3000A82F58312327C12070D8A088B09EA458B
:103403000970030234B8750E008071850C82850D36
:1034130083E06401704F8E828F83A3A31219A78E5A
:10342300828F83A3A3A3A3E0F5127513007812126E
:103433001990EE2405F512EF3400F51378121219E2
:103443009012327612072B740612173BE9F50F60C0
:1034530014850C82850D83E4F0123D2C8510828542
:1034630011831234D87C177D007900EEFAEFFB123A
:103473000FB98E828F83E4F0A3F0050E900372E000
:10348300F8E50EC398501FE50E75F017A4F8A9F0E0
:10349300850882850983A3A3123D59FCA3E0FDECB3
:1034A3004D600302340E85088285098374FFF0A3FF
:1034B300F0E50F7006123276120299A90F023261FB
:1034C300F50AEF3400F50B228E828F83123D34858B
:1034D3000E82850F83E8F0A3E9F02274F612177DBC
:1034E3007C008C08750900740278081217121235D3
:1034F300106A7003A3E06B7006E8FAE9FB800B0C1B
:10350300ECC3940340DC7A007B00023B83746625A2
:1035130008F874033509F988828983E02274F71265
:10352300177D7F00EF75F003A4F8A9F0EC28F8ED00
:1035330039F988828983E06A7003A3E06B7006E837
:10354300FAE9FB800B0FEFC3940440D87A007B00A9
:103553007F0102184F74F612177D1206D78A828BE9
:1035630083E582458370067A007B008007A3A3A3CB
:10357300A312327C023B8374F212177DE9FE740EB0
:103583001217711235D57410121771123A508C82BA
:103593008D83E064027036A3123D3AF50CA3E0F983
:1035A300A80C74026870037429697021750C027584
:1035B3000D00780C1219907808121990780A1219D4
:1035C30090EEF912074F740612173B80027901023D
:1035D3003C61E0F50AA3E0F50B2274E812177D7451
:1035E300FB121725E9851982851A83F08A168B1732
:1035F300ECFEEDFF751000741D121771123D30744F
:103603001D1217711234D88E828F83A3A3A3E0A255
:10361300E4502D741D12177112327C1207198A821D
:103623008B83E58245837003023A1F790AEEFCEF30
:10363300FDAA16AB1712177BE9F5106003023A22B5
:10364300741F121771123A5074211217711235D563
:103653007423121771E0F50EA3E0F50F8E828F83AA
:10366300E0640260030239CDA3123D3085088285F0
:103673000983A3858212858313EE24061229DF882A
:10368300828983E0FAA3E0F9EA2400F514E439F52A
:10369300157814121A1A010000280128C1360700F0
:1036A300022886370328F3360029BD380129E83874
:1036B300022989380329BD3804296739CD39E50E34
:1036C300450F60030239C8850C82850D83123A6861
:1036D300FAE9FB8A828B83E0850A82850B83123A9F
:1036E3007C1219908A828B83A3E0FCA3E0023951F8
:1036F300E50E450F60030239C8850A82850B837482
:1037030001F0123A58850882850983F07C007D0018
:103713008E828F83A3A3A3A3E02401FAA3E0340042
:10372300FB12060BEA4B60418A828B83E02402F88A
:10373300850A82850B83E028F0EA2404F8EB340041
:10374300F988828983E0851282851383123A8E1267
:103753003A7C1219908A828B831233C3E5082403BF
:10376300FAE5093400FB023956850A82850B83E0AA
:103773002404F07C047D007900AA12AB13120FB964
:10378300023A22E50E450F60030239C8123A58FE89
:10379300A3E0FF850A82850B837404F0EE8508821B
:1037A300850983F0EF851282851383F07403121762
:1037B30071AC82AD83EEFAEFFB12060B8A0C8B0D14
:1037C300EA450D700302386A8A828B83A3A312260B
:1037D3008C740112177185820E85830F780E12196E
:1037E3009074051217711219A77CFF7DFF12061141
:1037F300740412173B8B0FEA450F7033850C8285D7
:103803000D83123A35121990850C82850D83A3120C
:1038130019A77C027D007AD87B9012038974041265
:10382300173BE9700A740112177174FFF0A3F08E4D
:10383300828F83E064027039750C02750D00780C79
:103843001219908E828F831233C3E5082404FAE59C
:10385300093400FB120FA1740212173B850A8285FB
:103863000B83E0240280097401121771EEF0A3EFB9
:10387300F07401121771123A46F07401121771A312
:10388300123A3E0239C2E50E450F60030239C8857C
:103893000C82850D831233C4AA16AB171207438516
:1038A3000A82850B837402F0EA850882850983F016
:1038B300851282851383EB0239C5E50E450F60033C
:1038C3000239C8123A58F8A3E0F9850A82850B83B6
:1038D3007402F0E8850882850983F0E98512828500
:1038E30013830239C5850C82850D8312327C120F36
:1038F3009BEAFC8C82A882C3950EE4950F405FE897
:10390300650E7002E50F70047C00802285198285A4
:103913001A83E0FAE50E2AFAE50F3400FBC3EA98AE
:10392300EB94005003E08005E50ECCC39CFCEC85D2
:103933000A82850B83F08C0A750B00780A121990A2
:10394300850C82850D83E0250EFCA3E0350FFDAACF
:1039530008AB09120FA1740212173B023A22751029
:1039630007023A22E50E450F705B850C82850D83B5
:10397300123D30850A82850B837407F08882898320
:10398300123A3E123A2EE0851282851383F0E82420
:1039930002FAE93400FB8A828B83123A3E123A6DB3
:1039A300123A46A3123A76123A4AF0E82405F8E9A5
:1039B3003400F988828983123A4AA3123A8EA3A368
:1039C300A3A3F0805A75100B8055741D1217711242
:1039D300327C1206D78A828B83E5824583603D124F
:1039E3003D30880C890DE8450D6031780E12199031
:1039F300780A12199078081219907406121771E058
:103A0300F9EEFCEFFDAA16AB17850C82850D831228
:103A1300177B740612173BE9F510800375100EA986
:103A230010740512173B7F1002184FF088828983A8
:103A3300A322E0F50E750F00780E22E0850882853B
:103A4300098322123A9522123A95A3A322E0F5089C
:103A5300A3E0F50922850C82850D83E0F8A3E0F548
:103A6300838882E022123D34E822A3A3F08A828B6A
:103A730083A322122596A3A322F08A828B83123A70
:103A83008522E0F50A750B00780A22123A2E123AC3
:103A93009522E0850882850983A3A32274EE121779
:103AA3007D74FE1217258A0A8B0BECFAEDFB741456
:103AB300121771E0F510A3E0F5117416121771E0F7
:103AC300FE7418121771E0F50EA3E0F50F85198245
:103AD300851A83AC82AD8312060B8A0C8B0DEA45E3
:103AE3000D6049851982851A8312327C1206D78AA2
:103AF300828B83E5824583602FA3A3123A50E508A6
:103B030045096024780E1219907810121990EEF975
:103B1300AC0CAD0DAA0AAB0B85088285098312177D
:103B23007B740412173B8006790E80027901022E02
:103B3300EE74F612177D74FE121725740C121771AA
:103B4300123A68851982851A83F07401121771E994
:103B5300F0E4F508F5097808121990750802780859
:103B630012199074041217718582088583097808E5
:103B730012199012072B740612173B740212173B8B
:103B83007F0202184F74F712177DEAFEEBFF8908D4
:103B93007CA57D03120743EA5402600BA908EEFAE1
:103BA300EFFB1205FF8002790102355374F61217F9
:103BB3007D74FF6A700374FF6B701B7B00EB75F001
:103BC30003A4F8A9F0EC28F8ED391225870BEBC311
:103BD3009404501480E71207138A088B09A808A9D4
:103BE30009E8496003122588809674F612177D123E
:103BF30007138A828B83E58245836006A3A3E0FAD9
:103C030080027A007B00023B8374F212177D8A08DC
:103C13008B09ECFEEDFF740E121771E0F50A120723
:103C2300138A0C8B0DA80CA90DE8497026EEFCEF46
:103C3300FD7AFF7BFF1207138A0C8B0DA80CA90DCD
:103C4300E84970047911801688828983E508F0A316
:103C5300E509F088828983A3A3E50AF079007F064A
:103C630002184F74EE12177DEAFEEBFF8C088D09E4
:103C7300890C7414121771123D30741612177112D5
:103C8300327C750D00E8496003023D247402650C23
:103C93006003023D1F7412121771123D3AFCA3E038
:103CA300F9EC2400F50EE439F50FEAF4F8EBF4F936
:103CB300EC58F8E50F59F9E849705CE5082406F873
:103CC300ED3400F9880A890B8882F583123D451289
:103CD30007438A108B11E50E65107004E50F65111B
:103CE3006042780E121990850A82850B83123D4536
:103CF300120749740212173BE9F50D7027780E126B
:103D03001990850882850983A3A3123D4312075B9B
:103D1300740212173B800D750D808008750D0D80A0
:103D230003750D0BA90D0233CF8E828F83123D34A1
:103D330022E0F8A3E0F922123D3488828983E0224D
:103D4300A3A3E0FCA3E0FDEEFAEFFB223400F50DA4
:103D5300850C82F58322E028FEA3E039FF8E828F53
:103D630083E02274F212177DEAFEEBFF890B7401E4
:103D7300650B600E7402650B706B7901120911E912
:103D83007063EEFAEFFB12070D8A088B09EA450907
:103D93006048750A00800B7C177D007900120FB90B
:103DA300050A900372E0F8E50AC3985022E50A7504
:103DB300F017A4F8A9F0850882850983A3A3E02856
:103DC300FAA3E039FB8A828B83123A684970C8856B
:103DD300088285098374FFF0A3F07CA57D03EEFAC6
:103DE300EFFB12073D023C6174F212177D8A088BC8
:103DF30009ECFEEDFF740E1217711235D5900FFB0F
:103E0300E0F4603D7A097B00120FCBEA4B60328A03
:103E1300828B8374B1F0A3E4123A6FA3123A6DA3B9
:103E2300E508F0A3E509123E47EEF0A3EF123E4783
:103E3300A3A3E50AF0A3E50BF0900FFBE0F9120F43
:103E4300D7023C61F08A828B83A3A3A3A3A322C0DE
:103E530082C0839061907404F0A37448F0A3E4F0EB
:103E63009061807440F09061BC7407F09061877436
:103E730069F09061B67416F07900120A197902128A
:103E83000A1F902520E493F46006E493F91209F5E0
:103E93007905120D85024273C082C083E9540FF97C
:103EA300906185E0696012E5C654804449F5C6E532
:103EB3009E547F644970F8E9F053C680E59E547FB1
:103EC30070FA02427374F712177DE5A8FE53A87EB9
:103ED300120A01C2BA539AFEC289759B00C2C2126A
:103EE3000A0775A91175B905120A0DD2BA439A01C9
:103EF30074805E42A8025197C082C083906181E4BE
:103F0300F0A3F0A3F002427375E90075910075BF49
:103F130000020132C082C083906181E4F0A374C0C7
:103F2300F0A3E480DFC082C08374F81217259004E5
:103F33007B1255E6700302400790047BE054406017
:103F4300237908851982851A83AA82AB83120B2DE4
:103F5300851982851A83AA82AB831207CD90047BCD
:103F6300E054BFF0E054806010790C7A1B7B081298
:103F73000B2D90047BE0547FF0E0A2E0500F79001A
:103F8300120A191207D390047BE054FEF0E05402A6
:103F9300600F7901120A191207D390047BE054FDD4
:103FA300F0E05404600F7900120A1F1207D990043D
:103FB3007BE054FBF0E05408600F7901120A1F12F2
:103FC30007D990047BE054F7F0E05410600F7902B6
:103FD300120A1F1207D990047BE054EFF0E054203B
:103FE300600F7903120A1F1207D990047BE054DF94
:103FF300F0A3E05401600D120A2B1207DF90047C3A
:10400300E054FEF0740812173B024273C082C0836F
:10401300E9600514602A804F90619A7433F0A374A9
:1040230055F09061A0743AF09007F5E064017009CF
:10403300C29190047D7467802D90047D7461802605
:1040430090619A743FF0A3745AF09061A0747FF06A
:104053009007F5E064017009D29190047D7471803A
:104063000590047D746AF0024273C082C083E960E4
:104073000B14600D14601714600C802090252480AD
:104083001590252580109007F5E0640170059025B3
:10409300268003902527E493906186F0024273748F
:1040A300EE12177D74F4121725851982851A83ACD5
:1040B30082AD8375839075824474041216389025FB
:1040C3002493F460030241CC907808E0C394025037
:1040D300030241AC7404121771AC82AD8375838FF4
:1040E3007582F77408121638FC7EFF7FFF8E0C7DF5
:1040F300008C8285820E800F74086D606D74096D6B
:104103006068740A6D60638D08750900740278082D
:104113001217121241D61215F5A909E50AC9F88832
:104123001074187808121510E5104508FAE9FBE534
:104133000EC333F8E433F97404121771E58228F5DA
:1041430082E583391248C8C3E89AE99B4008E8C36B
:104153009AF8E99B8006EAC398F8EB99F9C3E89EBD
:10416300E99F5006E8FEE9FF8D0C0DEDC394134063
:104173008774FF6E700374FF6F6024850C087402EC
:1041830078081217121241D61215F5851982851A6D
:1041930083E582250EF582E583124CE1E508F00CF8
:1041A300ECC3940450030240EC75080175090078D0
:1041B300081219907402121771AC82AD837A497B8D
:1041C30009121217740212173B740C12173B7F0A61
:1041D30002184F74482508F58274783509F58378F9
:1041E3000822C082C083906186E0F8902527E4937B
:1041F300687009902526E493906186F09061AE740F
:1042030068F0A3746AF090624574FBF0A304F05362
:10421300F4FD43FE029007F57401F09061A0E064A1
:104223003A7004790080027901120A190242737FFD
:104233000402184FC082C0839007D3E06401701357
:104243009007D9E0F87401686019E87006A3E06488
:104253000160109007EAE06401700C9007F0E064DD
:10426300017004790C800279008005E0F912249E24
:10427300D083D08202013212496E940622E0C43305
:104283003354C022C082C0839007DD7425F09007A9
:10429300DB7401F0A3E4F07A01FB120D011242D3A7
:1042A3002416F582E8124CE1744FF0A3740AF090DF
:1042B30007DAE0640170169007D9E07010790112F3
:1042C3000D61120D31120D5B7900120D6D024273F7
:1042D3009007C91246572274F612177D74FA121703
:1042E300259007D2E064017008120A379007D2E4E0
:1042F300F075E1F11242D32415F582E8124CE17412
:1043030001F09007D4E064017053909026C0828539
:104313001982851A83AC82AD83758390D08274062B
:1043230012163875D90D9007CB1242804403F5D984
:104333007800880874CC125270740712427A40F2E3
:1043430078008808851982851A83E582125270E500
:104353008312427A40EC75E195790180027900126B
:104363000D0790101D1243D074D5F0A3740BF0A366
:104373001243D01243D012452474DBF0A3740B1202
:1043830045399007CBE0F97ACC7B07120CE3900711
:10439300DDE0F912249E7901120D0D909050121652
:1043A30013120D25909070121613120CEF79001250
:1043B3000D791242D32414F582E8124CE17416F0FD
:1043C3009004797405F00412173B0249D874CFF0B6
:1043D300A3740BF0A32274F412177D8908A80812A2
:1043E30050DC9007E2E0F97AE37B07120CE39007D5
:1043F300F0E0701A7900120D439007B8E070047969
:1044030000800279017AB97B07120CE980057901F2
:10441300120D4375E1F175D9239007E212428044EE
:1044230005F5D97800880A74E3250AF58274071222
:10443300427A40F175D90075D90075D90075D90054
:1044430075D90075D9007A00125532242212488793
:1044530040F67A001255322426F582E91249E00A21
:10446300EAC3940340EEEE242B1249DD7A00125581
:1044730032242C12488D40F67A00125532242E1223
:10448300488D40F67A00125532243012488D40F69A
:104493007A00125532243212488D40F67A008A0A85
:1044A300EE250AF8EF124DF9124899940540EFEE04
:1044B3002437F582EF125030541FF8EE242AF58288
:1044C300EF125030C43354E048F5D975E19590109C
:1044D3001D749FF0A3740BF0A374A5F0A3740B12C7
:1044E300451B74ABF0A3740B1245399007EFE0F949
:1044F30012249E909050121613120D259090701254
:104503001613120CEF90600DE4F07901120D7990FF
:1045130004797406F0024232F0A3124524124524B2
:1045230022124528227499F0A3740BF0A37499F016
:10453300A3740BF0A32212453D22F090102B1245D9
:1045430049A3124549221245287499F0A3740BF02C
:104553002274EC12177D9007E01250F378101215B5
:10456300F59007F1E0FAF875F005A4C8ACF02CF962
:1045730074D728F582740439F583E0FEA3E0FFEED7
:10458300C333FEEF33FF8E0CF50D750E00750F0070
:1045930085100885110985120A85130B90902C78D4
:1045A3000812155B780812198C8510088511098586
:1045B300120A85130B7808790C1215487810790CB8
:1045C3001214A1E4F50EF50F7808790C1215818AFF
:1045D3000C750D007403780C1217127808790C12FD
:1045E300154890905C78081215BCAA08AB09AC0A70
:1045F300AD0B122436740412173B8A088B09A808E2
:10460300A909C3EE98EF995006E82EF8E93FF9E8B7
:1046130090600EF0E9A3F0EEA3F0EFA3F090600D2D
:1046230074C1F07F0C02184FC082C0839007C91277
:10463300464B9007DD02426EC082C0839007E012B2
:10464300464B9007EF02426E1246572406F582E866
:10465300124A7922E0F8A3E0C82202013274F2126E
:10466300177D1247CAF50AEF124B5760047804808E
:10467300027800E8240EF8EAC3985003024727752E
:10468300080C9007FBE4F0EE2476F582EF1250302D
:104693009007FCF07902EE2477FCEF3400FD7AFDFD
:1046A3007B07120B1B7902EE2479FCEF3400FD1219
:1046B3000B1B7902EE247BFCEF3400FD120B1B79FC
:1046C30002EE247DFCEF3400FD120B1BEE2474126A
:1046D30047E0120B1B850A82850B83E0601E750879
:1046E300FB75090778081219907C0C7903EEFAEF31
:1046F300FB120B8D740212173B7508107401250809
:10470300F5D975D90378008009880A74FB250A1244
:1047130047BFE8C3950840F175E1957904120D2B65
:104723007901800279007F0602184F74F212177D17
:104733001247CAF508EF3400F509850882F583E0CE
:104743006004780480027800E8240AF8EAC39840F9
:1047530060750A089007FB7401F079057CBF7D073B
:104763007AFC7B07120B1BEE24801247E0120B1B13
:10477300850882850983E0601E7508FB7509077843
:10478300081219907C087903EEFAEFFB120B8D7473
:104793000212173B750A0C124A5680031247B9E8F6
:1047A300C3950A40F775E1957904120D2B790180C1
:1047B300027900024729880874FB2508F5827407EB
:1047C300125034F5D908221247CE22EAFEEBFF90AD
:1047D30061D0E0F87480C398FAEE248222FCEF34AF
:1047E30000FD8E828F83A3A3A3A3A31255F58C820E
:1047F3008D83E028F0A3E039F079022274F61217D2
:104803007DEAFEEBFF9061D0E0707475D91875D91D
:104813000375D9037A008A08EE2508125537249BBD
:104823001248A040F17A008A08EE25081255372471
:10483300A312488D40F17A008A08EE2508125537F5
:1048430024931248A040F17A008A08EE25081255F5
:1048530037248712488740F175E1957908EE249350
:10486300FAEF3400FB120B217904EE2487FAEF34BC
:1048730000FB120B217904120D2B1248A980027937
:10488300000249D8124893940422124893940222B6
:10489300F582E912518CE0F5D90AEAC32212489352
:1048A30094082275E195EE246FF582EF1251881278
:1048B30055F5EE2471F582EF125188E8F0A3E9F083
:1048C3007901223400F5831255F52274F612177D0F
:1048D300EAFEEBFF9007FB74061249781219907CED
:1048E300017903120B8D740212173B75D90675D922
:1048F30003780012495E40FB75E195900479E0640A
:10490300087017EE246FF582EF1248C6EE2471F596
:1049130082EF124CE1E8F0A3E9F079010249D8747F
:10492300F612177DEAFEEBFF9061D0E07029900745
:10493300FB740A1249781219907C017903120B8DCA
:10494300740212173B75D90675D903780012495EB4
:1049530040FB1248A680027900807A880874FB2500
:1049630008F582740712496E94052212518CE0F502
:10497300D908E8C322F07508FB7509077808227483
:10498300F612177DEAFEEBFF9061D0E070427901E9
:104993009007FB740BF0900479E0640770197508B5
:1049A300FB75090778081219907C010909120B8D10
:1049B300740212173B7905740129F5D975D9037867
:1049C3000080031247B9E8C39940F81248A6800251
:1049D30079008001F07F0202184FF582EF12503404
:1049E300F5D92274F512177D124A81600478048088
:1049F300027800E8240BF8EAC3984052750A09903C
:104A030007FB7408F0F9124A62120B1B85088285B2
:104A13000983E0601E7508FB750907780812199071
:104A23007C097903EEFAEFFB120B8D740212173B2C
:104A3300750A0D124A5680031247B9E8C3950A4016
:104A4300F775E1957904120D2B1248A980027900BC
:104A5300024CD77401250AF5D975D903780022EEE3
:104A630024E4FCEF3400FD7AFC7B0722EE241DF5E1
:104A730082EF124A792212518CE4F0A3F0221247FA
:104A8300CEF8EF124A8A223400F98808890988820D
:104A9300F583E02274F312177D8A088B09124BED1C
:104AA300FAE5082482F50AEB124B57600478048078
:104AB300027800E82408F8EAC3985003024B5075C3
:104AC3000C069007FB740CF0900496E09007FCF042
:104AD3007402C0E0F97C977D047AFD7B07120B1BFF
:104AE300D0E0F97C997D04120B1B850A82850B8328
:104AF300E0601E750AFB750B07780A1219907C0695
:104B03007903AA08AB09120B8D740212173B750CBB
:104B13000A7401250CF5D975D90378008009880A30
:104B230074FB250A1247BFE8C3950C40F175E19564
:104B33007904120D2BE508246FF582E5091248C6A6
:104B4300E5082471F582E5091248BB800279007FEC
:104B53000502184F3400F50B850A82F583E02274B1
:104B6300F612177DEAFEEBFF124BEDFCEE2482F802
:104B7300EF124C7060047A0480027A00EA2404FA8B
:104B8300ECC39A40607A029007FBEAF0EE24F6F554
:104B930082EF124BF7601B7508FB75090778081243
:104BA30019907C027903EEFA120B8D740212173BF3
:104BB3007A0674012AF5D975D90378008003124760
:104BC300B9E8C39A40F875E195EE2473125275EE75
:104BD300247F125275124A6F7904120D2BEE240DA5
:104BE3001248AC800279000249D89061D0E0F87491
:104BF30080C398221250349007FCF088828983E0A6
:104C03002274F612177D124BEDFEEA2482F8EB12A2
:104C13004C7060047C0480027C00EC2404FCEEC332
:104C23009C40457C029007FB7407F0EA24F7F58269
:104C3300EB124BF760177508FB7509077808121913
:104C4300907903120B8D740212173B7C0674012CAE
:104C5300F5D975D903780080031247B9E8C39C409E
:104C6300F875E1957901800279000249D83400F999
:104C730088828983E02274F512177DE9FEA2AFE4EE
:104C830033F50AC2AF7F00EA246EF8EB3400F980F3
:104C9300010F88828983E0F508EFC3950850188FC8
:104CA30008EA2508FCEB3400FDEC246AF582ED12DA
:104CB30050306E70DC8017EA2508FAEB3400FBEA0B
:104CC300246AF582EB124CE1EE124BFD04F0E50A87
:104CD300A2E092AF7F0302184F246AF582E91251D2
:104CE300882274F612177DA2AFE433FFC2AFEA2421
:104CF3006EF8EB125324E014F07E0080198E08EA5C
:104D03002508F8EB125539246B12502DC0E0E81238
:104D13004CDCD0E0F00E8C828D83E0F8EEC398403B
:104D2300DCEA246DF582EB124CE174FF124D5AEF6D
:104D3300A2E092AF0249D8C082C083E5A8F8C2AF0F
:104D4300EA246AF582EB124CE1E9124D5AE8A2E734
:104D5300A2E792AF024273F0EA2469124D6222F590
:104D630082EB12518CE4F02274F212177D8C828D47
:104D730083A3A3A3A3E0541FF0EA243612531A8E8D
:104D8300828F83E4F0F50C850C8285820AEC250A78
:104D9300F8ED124A8AC0E0EA250AF8EB124DF9D081
:104DA300E0F0750D00850882850983E0F50A750B2F
:104DB30000E50D780A1216F3E50AA2E05023E50C8C
:104DC30033333354F8250DC0E08E828F83E0F8121D
:104DD3004FCD2438124CDED0E0F08E828F83E00476
:104DE300F0050DE50DC3940840BB050CE50CC39419
:104DF3000540940247293400F9E8245DF582E9125D
:104E030051882274F412177D9004A5E064037003A3
:104E1300024FB37E00EEF875F005A4C8AAF02AF994
:104E230074AB28F582740439F583E06003024FA95B
:104E330074A928FA740439FB8A828B83A3A37401AF
:104E430012558CA3A3A3E4F0EA2404F8EB1255391A
:104E5300FCE9FDEE8C828D83F0EA2462124FBA24C2
:104E630067F582EB124CE17401124FDFE4F0A312F9
:104E73004FDFA3A3124FDA240F124FBA2435F58262
:104E8300EB125278F508F509F50AF50BEA24181226
:104E93004FC2121604EA241C124FC8241D124FD607
:104EA300247F124FC82473124FC82468F582EB1273
:104EB3004CE17480124D5AEA246E124FC824EC124E
:104EC3004FC824ED124FC824EE124FC824EF124FDF
:104ED300C824F0124FD624F2124FD624F5124FC82D
:104EE3002482124FC824D2124FC824D3124FC8248D
:104EF300D4124FC2121604EA24D8124FC212160457
:104F0300EA24DE124FC824E0124FC824DC124FC833
:104F130024E1124FC824E2124FC824F8124FD624BA
:104F2300FA124FD624FC124FD624FEF582EB124A16
:104F330075FE8E08EA2508F8EB125539124CDC741D
:104F4300FFF00EEEC3940440E97E008E82A88274C3
:104F5300BF28F5827407125030C0E0124FCD245D94
:104F6300124CDED0E0F00EEEC3940540DE7E008EE0
:104F730082A882748D28F5827404125030C0E01226
:104F83004FCD24E4124CDED0E0F00EEEC394084083
:104F9300DE9004A5E004F0640170198C828D83E037
:104FA3009004A7F0800E0EEEC394035003024E1834
:104FB3007A007B000242321251857401F0EA221218
:104FC3005185780822124D62EA22EA28F8EB340070
:104FD300F9E822125185E4F0A3F0EA22F08A828BE9
:104FE30083A3A3A3A3A322C082C083EA2403F582DD
:104FF300EB1250306008E4F09004A6E014F0900443
:10500300A5E014F070069004A774FFF08A828B83E6
:10501300A3A3E4F09007C4E0700D9004A6E064013C
:1050230070057900120CF5024273F582E9125034CF
:105033002212518CE022C082C0837B00EBF875F012
:1050430005A4C8AAF02AF974A528F87404125244D6
:10505300A3A3A3A3E4F088828983A3A3A3A3A3A305
:10506300F00BEBC3940340D49004A5E4F0A3F0A3A6
:1050730074FFF075E1F102427374F512177D750840
:1050830000750900750A00A80A1250DC8E828F830E
:10509300A3A3A3E0602BE5084509601D850882856D
:1050A30009831250F31219A31250EF12161312238D
:1050B300DA740412173BE97008EEF8EFF9880889EF
:1050C30009050AE50AC3940340BD8508828509835F
:1050D300A3A3A3A3E0F9024CD7E875F005A4C8AADB
:1050E300F02AF974A928FE740439FF228E828F8373
:1050F300E0F8A3E0F5838882A3A32274F712177D57
:1051030078FF79FF7F00EFFC75F005A4CCAEF02E9D
:10511300FD74A92CFC74043DFD8C828D83A3A3A391
:10512300E0603EEC2473F582ED125030FE74FF68AC
:10513300700374FF69700774016E701C800D740135
:105143006E700DEC24791251785016EC2479800B93
:10515300EC242E1251785009EC242EF582ED1248DE
:10516300C60FEFC39403409EC3EA98EB994004E84B
:10517300FAE9FB801FF582ED125188C3E098A3E0A2
:105183009922F582EB12518C223400F58322A2E09E
:1051930092AF79007F0102184F74F612177DEAFE71
:1051A300EBFFEE2463F508EF3400F5098016AA0837
:1051B300AB09120B0F1212E99007C5E004F0900738
:1051C300C6E004F08508828509831255E670DFEE98
:1051D300FAEFFB120ABBEEFAEFFB120C170249D8E7
:1051E30074F712177DEAFEEBFF8E828F83A3A3A3CE
:1051F300A3E0FA7B00120827EEFAEFFB120AD312A0
:105203000BF98090C082C0837B00EBF875F005A496
:10521300C8AAF02AF974A928F87404125244E06069
:1052230014E8246E12502D600CE8246A12502D707D
:1052330004790180090BEBC3940340CE7900024249
:105243007339F988828983A3A3A32274F612177D85
:1052530078008808748D125270740412527808E82A
:10526300C3940840ED90048D74010249D72508F5D5
:105273008222F582EF124D652274F712177D74FCBA
:10528300121725851982851A83E4F0A3F0A3F0A3EE
:10529300F0120B27E9851982851A83F0120B277404
:1052A30001121771E9F0120B277402121771E9F05A
:1052B300851982851A83121613740412173B02513F
:1052C3009774F612177DEA240D12531AEC2403F88F
:1052D300ED3400F988088909EC2407F8ED1253240A
:1052E3001248CA850882850983E0FAA3E0FB1216F7
:1052F3009A8E828F83E8F0A3E91255EC85088285A4
:105303000983E0FAA3E0FB12169A8B09EA450960C8
:10531300031253300249D8F8EB3400F9E8FEE9FFF1
:10532300223400F9E8FCE9FD8C828D83228E828F82
:1053330083E02401F0A3E03400F02274F612177D19
:10534300EA242EF582EB125030FCA3E0FDEA246F31
:1053530012531A780079FAECFAEDFB12169A8E8240
:105363008F83E8F0A3E9F0780079FAECFAEDFB1209
:10537300169A8B09EA450960031253300249D8741F
:10538300F012177DEAFEEBFF741012177178081202
:1053930015F5120CAD8A0C8B0D8C0E8D0F90903081
:1053A300780C12155B90905C780C1215BC780C127B
:1053B300198C1250EF1216131223DA740412173BCE
:1053C300E9600302546A8E828F83E02402F8A3E02B
:1053D300125539FAE9FB8A828B83780812156E908D
:1053E300905C78081215F58A828B8378081215CFA2
:1053F300EE240BF582EF124CE1C082C0838E828FC4
:1054030083A3A3A3A3A3E02401F8A3E03400F9D06A
:1054130083D082E0687003A3E06970047901804956
:10542300EE2407F8EF3400F988828983125334EEAF
:1054330024731254717014EE247412547A7003A3FB
:10544300E06D70078A828B83125334EE247F1254EB
:10545300717014EE248012547A7003A3E06D700708
:105463008A828B8312533479007F0802184FF582A6
:10547300EF125034640122FAEF3400FB8A828B83EB
:10548300E0FCA3E0FD88828983E06C2274F31217A9
:105493007DE9FEECFFEA2462F582EB1254746003AB
:1054A30002552D9061D0E0F508EA2482F582EB12D3
:1054B3005030F50C60047804800278007480C39542
:1054C30008FC95E0FDEF28F8E41255392402F8E9C9
:1054D3003400F9EC98ED99A2D265D0334048740DAD
:1054E300121771E0F50AA3E0F50BE50C6015780AD5
:1054F300121990EFFCEEF9120B8D740212173B7424
:10550300042FFF74012FF5D98ED97800800C8808F9
:10551300E50A125270E50B1247C3E8C39F40EF75CB
:10552300E195790080067907800279FF024B528A60
:105533000AEE250AF8EF3400F9E82274F712177D12
:10554300A2AFE433F508C2AFEA2402F8EB3400F962
:105553008A828B83E0FEA3E0FFEE4F600E88828990
:1055630083E0FAA3E0F5838A8280048A828B83EC4A
:10557300F0A3EDF088828983125592F0E508025179
:10558300918C828D83E8F0A3E9F08A828B8322ECED
:10559300F0A3EDF08C828D83E4F0A32274F712174D
:1055A3007DEAFCEBFD7A007B00A2AFE433FEC2AFE1
:1055B3008C828D831255E66022E8FAE9FB8A828B9E
:1055C300831248CA125584E4F0A31255ECE84970DB
:1055D3000A8C828D83A3A3E4F0A3F0EEA2E092AF42
:1055E3000251971255F5E84922F08C828D831255AA
:1055F300F522E0F8A3E0F922C082C08380031256AB
:1056030029E9F874FF28190470F4ECFAEDFB02425F
:1056130073C082C0838003125629E9F874FF2819E6
:105623000470F40242738C828D83E08A828B83F050
:105633008C828D83A3AC82AD838A828B83A3AA825F
:10564300AB832274F012177D74FA121725890BECC1
:10565300FEEDFF750A008A088B0978081219D40039
:10566300041090588956A756C156D956F7560F5766
:1056730032574A575E57885710582158385852584E
:10568300905873589E577401650B600302588B8EB4
:10569300828F83E0F8C39403400302588BE8901091
:1056A3003F0258887402650B600302588B8E828F09
:1056B30083126048901040E8F0A3E902588874010F
:1056C300650B600302588B1258BD400302588BE8E8
:1056D300900DBF0258887401650B600302588B8ECE
:1056E300828F83E0F8C39405400302588BE8900D42
:1056F300C00258887401650B600302588B1258BDB1
:10570300400302588BE8900DC10258887410650B52
:10571300600302588B7508107509007808121990F8
:105723007AC27B0D120FA1740212173B0258B17497
:1057330001650B600302588B1258BD400302588B5E
:10574300E8900DD20258887401650B600302588BF0
:105753008E828F83E09010430258887404650B6037
:105763000302588B8E828F83780C1215F590903C30
:10577300780C121402500302588B900DD4780C123B
:1057830016040258B1E9600302588B120521E9702F
:10579300051211998060900E67806E7407650B6027
:1057A3000302588B75080675090078081219908E44
:1057B300828F83A3AC82AD837402121771AA82AB6A
:1057C30083120FA7740212173B7C007D0085198298
:1057D300851A83AA82AB838E828F83E0F9121133F9
:1057E300E9F508C3940A40030258AE120521E97093
:1057F3000CA90812119F795012136D806E746825DD
:1058030008F582740E3400F58374018078740165A1
:105813000B70751258BD5070E8900DD380677401FA
:10582300650B70648E828F83E0F8C3940A5059E845
:1058330090104280507401650B704D8E828F83E00F
:10584300F874F928C3940A503FE8901044803674E2
:1058530001650B7033900E66E0F88E828F83E090C3
:105863000E66F0E87048E06401704312118D803ECB
:105873007401650B70128E828F83E0F8C394045019
:1058830007E8901045F08026750A188021C3EA9432
:1058930027EB940050157402650B700F8E828F8373
:1058A300126438120407E9F50A8003750A02A90A8B
:1058B300740612173B7F0802184F8E828F83E0F81D
:1058C300C394022274F212177D74DA121725890A1F
:1058D300ECFEEDFF7420121771AC82AD83758390DB
:1058E30075822074061216387420121771AC82ADBB
:1058F30083121133E9F5087434121771E0F50BE9DB
:10590300C3940A4003025A22121175E9F509901053
:105913003FE06402700474018001E4F50C780C121A
:105923001994AD0BAC09A908EEFAEFFB1211C3747D
:105933000112173B7C147D007900740C121771AAB5
:1059430082AB83120FB975F006E508A4F50B740C4E
:10595300121771AC82AD837A107424250BF91213DC
:1059630067E9703D7C1079FF740C121771AA82AB42
:105973008312101FE9702A741C121771AC82AD8355
:105983007A047425250BF9121367740C121771AC82
:1059930082AD83E509A2E0E433F9EEFAEFFB1204EA
:1059A3009D851982851A83AC82AD837A0C74702528
:1059B30008F9121367E97053851982851A83AA823D
:1059C300AB83121169750800E50875F003A4F8A903
:1059D300F0851982851A83E58228F8E583126245EA
:1059E300126432601D88828983A3A3E0F50C750DD0
:1059F30000780C121990EEFAEFFB120731740212C1
:105A0300173B0508E508C3940440BDE509A2E1502E
:105A130046900DBEE0F9EEFAEFFB120737803874BB
:105A230008650B703290103FE06402702A7C007DA1
:105A330000A90AEEFAEFFB1211BD126CC76018122F
:105A4300604D88828983E5824583600B7C00790001
:105A5300EEFAEFFB12177B7900742602640E74F0E2
:105A630012177DEAFEEBFF8C088D09750A0AE960BF
:105A73000C146009146037146079025B10121181F1
:105A8300E9F50AC3940A4003025B10E5084509607F
:105A93007C750E06750F00780E121990EEFCEFFD63
:105AA300AA08AB09120FA1740212173B805F750B92
:105AB30000750E06750F00780E121990EEFCEFFDBF
:105AC300E50B75F00EA4F8A9F074E028FA740D390B
:105AD300FB120FB3740212173BE9600C850B0AE546
:105AE3000AC3940A50278016050BE50BC3940A508A
:105AF3001C80BE121187E9F50AC3940A500FE5080A
:105B030045096009AA08AB09A90A12117BA90A026F
:105B130058B874F412177D890875091574FF6A70F3
:105B23000374FF6B70277E00AC087A027B00EEF9EA
:105B3300121157E960037509000EEEC3940A40E899
