:020000040000FA
:0600000002011A02213882
:03002B00022801A7
:030033000227D9C8
:030053000221AED9
:03006B000227B1B8
:10008300021FE7E5C754F84401F5C77901220000D0
:100093000080FB120086B90003020104E479217891
:1000A30008B800028004F709D8FCE479297802B87B
:1000B30000028004F709D8FCE490028178C3790731
:1000C3008002F0A3D8FCD9FA781B90014A7A01BACE
:1000D30000028007E493A3F608DAF97A437B0990D8
:1000E300014B780279048015E493A3AD82AE838A31
:1000F300828B83F0A3AA82AB838D828E83D8E9D9C6
:10010300E77582FD7583C4740312012C75829175A2
:100113008300740012012C75D00075813F7519811D
:10012300751A02759F00020096C09FF59FE473D075
:100133009F22D083D082C09FE493C0E0740193C018
:10014300E0740293F59F2201FF0000B40000280031
:100153002800283075A000A000A000A0000008001F
:1001630008E001F000100010001000100010001053
:100173000050005000500010001000D00700000095
:100183000000000F0001000500307507001000019A
:100193000081FF00000000FF4A0668065006FF02C8
:1001A300020208025000A0000000E80302079001C9
:1001B3000000E58F0203900100009A0902F58F0108
:1001C3000000B3020203900100009B0902F78F01B4
:1001D3000000C9020203900100009C0902F98F018B
:1001E3000000CB020203900100009D0902FB8F086F
:1001F3000000CC020203900100009E0902FD8F0162
:1002030000009F09FF0100FF20020790010000EB9F
:100213008F020390010000030A02FF8F0000000019
:100223000002F38F03000019037A0C7A0C7A0C7A1C
:100233000C7A0C7A0C7A0C7A0C7A0C7A0C7A0C7A8B
:100243000C7A0C560F6E0F500FFFFF0202020202D0
:1002530002020202010D00000010010207900100DA
:1002630000E88F020390010000460A021790010084
:10027300006107020390010000470A021590010084
:1002830000138F020390010000480A02139001003B
:1002930000058F020390010000490A02119001003A
:1002A30000B58E0203900100004A0A020F9001007C
:1002B300007F8E0203900100004B0A020D900100A3
:1002C30000918E0203900100004C0A020B90010082
:1002D30000A38E0203900100004D0A020990010061
:1002E30000F78E0203900100004E0A0229900100DC
:1002F300004F0A01E803053F100AFF0001307503B0
:1003030002010600000000000000000000000000E1
:10031300000000000000000000000000000000FFDB
:10032300FF0600800CE803140953696D706C654285
:100333004C455065726970686572616C05125000B6
:100343002003020A000201060302F0FF53696D70E5
:100353006C6520424C452050657269706865726116
:100363006CAE140000BA140A436861726163746569
:100373007269737469632031000243686172616357
:10038300746572697374696320320008436861722B
:100393006163746572697374696320330010436821
:1003A30061726163746572697374696320340002F6
:1003B300436861726163746572697374696320353C
:1003C30000020790010000EE8F020390010000621B
:1003D3000B021F90030000340902F18F0100006338
:1003E3000B020390010000740B0221900100003501
:1003F3000902F18F010000750B02039001000086D2
:100403000B022390020000360902F18F01000087DE
:100413000B020390010000980B02259000000037A7
:100423000902F38F030000380902F18F01000099DC
:100433000B020390010000AA0B0227900400003E68
:100443000902F18F010000AB0B120135E0B8031272
:100453000135F7B80312013528B90312013563B921
:10046300031201358DB903120135B7B903120135F2
:10047300CEB903120135E5B903120135FCB90312F4
:10048300013525BA0312013538BA031201354EBAC4
:100493000312013561BA0312013588BA031201351B
:1004A3006BA5021201356FA602120135A7A602122F
:1004B3000135CAA602120135D5A602120135F8A6E6
:1004C3000212013507A802120135DCA80212013518
:1004D30057A902120135DFA9021201351AAA021225
:1004E300013551AA02120135DFAA02120135B8AB58
:1004F3000212013518AC0212013523AC0212013588
:10050300A2AC02120135A5AC02120135A8AC02124D
:10051300013537AD021201353AAD021201356AAD2C
:100523000212013594AD0212013582AE0212013579
:1005330034AF02120135C28403120135EA84031277
:1005430001351885031201354F8503120135AD8539
:1005530003120135F8850312013543860312013571
:10056300838603120135C98603120135F786031208
:100573000135B48703120135BE8703120135CB87DA
:1005830003120135FE8703120135CA8803120135B0
:10059300D68803120135EE8803120135F888031259
:1005A300013529C20312013537C2031201354FC287
:1005B3000312013567C203120135C5D40112013597
:1005C30071D501120135ECD5011201350DD7011298
:1005D300013549D701120135F2D701120135D9D8B6
:1005E300011201353DDA0112013594DA01120135A8
:1005F30015DB0112013505DC0112013552DC011254
:100603000135D8DC011201350ADD011201351EDF87
:100613000112013560DF011201357EDF0112013560
:1006230001E001120135D5E0011201359DE101120E
:1006330001356CDA021201353FDB02120135E8DBCA
:10064300021201353BDC02120135EBDC02120135EB
:1006530077DD0212013563DE0212013592DE0212EA
:100663000135A5DF02120135EDDF02120135C2E0CB
:1006730002120135FEE0021201351AE102120135C0
:1006830079C4031201353C970312013552970312C3
:1006930001357897031201359498031201359E981A
:1006A30003120135D39903120135CB9A0312013595
:1006B30079ED02120135A9EE02120135DCEE0212C8
:1006C300013526EF02120135EDF002120135D6C4D1
:1006D3000112013540C5011201359FC601120135D2
:1006E300AFC601120135DCC60112013533C7011251
:1006F3000135DCC701120135E3C801120135ADC96B
:10070300011201350DCB0112013550CB0112013518
:10071300F5CB0112013542CC0112013568CC01122F
:10072300013576CE011201357BCE0112013580D021
:1007330001120135CDD00112013540D1011201352D
:1007430073D10112013515D201120135BED2011246
:100753000135F6D201120135F9D20112013541D327
:100763000112013581D301120135D8D301120135AC
:10077300C2A903120135DAA90312013522AA031211
:10078300013538AA031201357FAA0312013593AB51
:100793000312013520AC031201356BAC0312013592
:1007A3004146001201354D460012013588460012BC
:1007B3000135CD46001201358D470012013513482E
:1007C30000120135784800120135A44800120135A2
:1007D300DD48001201351B4B00120135FF4C00129E
:1007E3000135E54E001201352850001201357652CD
:1007F30000120135885300120135D354001201351C
:10080300E355001201350056001201353B56001224
:1008130001355D5600120135C05600120135815B6A
:1008230000120135165C00120135675C00120135B8
:100833008E5C00120135E05C00120135FE5C001293
:100843000135585D00120135415E00120135B75F75
:10085300001201353B60001201357F890312013517
:10086300898903120135CC8903120135E789031203
:100873000135778A031201359F8A03120135DC8A19
:1008830003120135138B031201353C8B031201351F
:10089300B18B03120135C68B03120135DB8B0312B7
:1008A30001350C8C03120135208C03120135458C64
:1008B300031201357F8C03120135AB8C0312013512
:1008C300E38C03120135628D03120135AB8D0312E4
:1008D3000135D58D03120135008E0312013521C078
:1008E300031201352F8E021201355D8E021201357E
:1008F300AB8F021201358B9002120135AA900212BE
:1009030001352791021201356A9102120135C09215
:100913000212013581930212013508960212013544
:10092300A996021201359F97021201359C98021273
:100933000135F69902120135819A021201353FBC45
:1009430003120135A8BC03120135FCBC03120135A7
:1009530023BD0312013554BD03120135CF92031297
:1009630001353C93031201358393031201359B94A4
:10097300031201359795031201357A960312013557
:10098300E8C2021201352AC302120135FCC3021266
:100993000135D5C402120135CFC502120135B1C6E6
:1009A300021201351AC702120135D0C702120135EE
:1009B30044C802120135B0C802120135D9C8021267
:1009C300013553C902120135ECC90212013551CA6E
:1009D3000212013566CA02120135ACCA0212013590
:1009E300C5CA021201352ACB021201352DCB0212E0
:1009F3000135FCA00312013524A10312013562A1C4
:100A03000312013520A20312013587A20312013517
:100A1300A3A203120135CBA203120135FBA20312D9
:100A230001350AA30312013587A303120135ADA3D0
:100A330003120135CFB4011201356DB60112013530
:100A430088B801120135C4B801120135F1B8011299
:100A53000135D6B9011201351DBA0112013561BA4A
:100A63000112013573BA01120135B3BA011201350E
:100A7300E0BA011201352BBB011201356BBB011228
:100A8300013599BB01120135EBBB011201357BBC6A
:100A93000112013519BF011201352FC101120135B0
:100AA3006DC101120135FEC20112013543C30112AA
:100AB3000135BAC30112013504C4011201352FC433
:100AC300011201356FB902120135EEB90212013577
:100AD300B0BF02120135BFC00212013527C2021294
:100AE3000135BEC202120135A26000120135EB606E
:100AF300001201351861001201354B6100120135F6
:100B030058610012013564610012013576610012EB
:100B130001355D6200120135BB6200120135F062DE
:100B2300001201353364001201358064001201356F
:100B3300A46400120135116500120135CF6500125E
:100B43000135886600120135F56600120135A76785
:100B530000120135B767001201353E6800120135F6
:100B6300FD68001201352A6900120135A3690012DC
:100B73000135006A001201354A6A00120135E06A44
:100B830000120135AB6B00120135606C00120135A8
:100B9300D56C00120135366D00120135A06D0012BF
:100BA3000135D96D001201357B6E001201358B6F53
:100BB30000120135CB6F00120135E86F00120135C9
:100BC3000770001201354E70001201357370001268
:100BD3000135A070001201351A71001201355B71E5
:100BE300001201357F72001201352F730012013597
:100BF300867300120135F073001201350974001277
:100C03000135A5AF02120135F8AF0212013504B068
:100C130002120135D9B00212013500B102120135B9
:100C23003BB102120135A7B102120135E3B1021241
:100C330001351CB20212013534B20212013589B2F8
:100C430002120135A2B202120135EBB202120135D2
:100C5300FEB20212013518B3021201352EB302128D
:100C6300013561B402120135A8B502120135AAB6E5
:100C730002120135A4B702120135292800120135E9
:100C830022F20112013552F2011201351AF6011254
:100C9300013571F7011201353AF801120135BAF93C
:100CA300011201358BFA01120135C8FA011201351F
:100CB300EBFA0112013529FB0112013532FB011256
:100CC30001357CFB0112013586FB0112013530FC35
:100CD3000112013509FD011201355DFD01120135D6
:100CE300BFFD0112013512FE0112013541FE011251
:100CF30001357EFE0112013542A301120135A9A679
:100D030001120135AFA60112013531AC01120135D3
:100D1300AAB00112013580B40112013559FC021247
:100D23000135CFFC02120135E5FC0212013526FD27
:100D33000212013560FD02120135D9FD021201359F
:100D430014FE0212013587FE02120135C5FE02129E
:100D53000135CEFE02120135DAFE02120135F6FE2E
:100D63000212013521FF0212013537FF021201354C
:100D730060FF02120135C3FF0212013596F702121A
:100D83000135A9F702120135C3F702120135ECF759
:100D9300021201352FF8021201356EF802120135E5
:100DA300ACF80212013511F90212013526F90212CB
:100DB300013531F9021201353EF90212013555F9B7
:100DC3000212013563F9021201356EF9021201357F
:100DD3007AF9021201358DF90212013598F90212DE
:100DE3000135BBF90212013562FA0212013572FABA
:100DF300021201358CFA02120135A9FA02120135E9
:100E0300C5FA02120135EAFA02120135F5FA0212A5
:100E130001350AFB021201351EFB021201357FFB6D
:100E23000212013585FB021201358BFB02120135DB
:100E330091FB02120135A9FB02120135DCFB021200
:100E4300013505800212013589800212013538818E
:100E530002120135978202120135B884021201355C
:100E6300A48502120135D98502120135FB850212D0
:100E73000135AA8602120135A28802120135CB88F8
:100E8300021201355D89021201358F890212013583
:100E93009C8902120135F38902120135198A021263
:100EA3000135868C02120135898D02120135E18DDF
:100EB30002120135B6E301120135C0E40112013516
:100EC300A7E501120135B1E501120135D3E50112A0
:100ED3000135DFE50112013578E701120135A7E796
:100EE30001120135C3E8011201351CE90112013574
:100EF30082EA0112013561EB01120135BDEB0112EA
:100F030001352AEC0112013565EC01120135A4EC1F
:100F1300011201355DEF0112013577EF0112013541
:100F230003F00112013511F0011201356AF00112CB
:100F3300013578F001120135EBF0011201354FF163
:100F43000112013599F1011201353B74001201358B
:100F53005D74001201358376001201359879001211
:100F63000135B07A00120135637B00120135457CEF
:100F7300001201359ABA03120135BFBA03120135C3
:100F830031BB03120135F2D202120135FBD2021238
:100F9300013504D302120135DBD3021201358CD59E
:100FA30002120135C2D502120135FCD502120135F8
:100FB30032D6021201356CD602120135A0D60212C6
:100FC3000135CCD60212013515D7021201354FD7A0
:100FD3000212013598D702120135F0D702120135FA
:100FE30025D80212013580D802120135BAD802126F
:100FF30001350BD90212013541D9021201357BD9D2
:1010030002120135A9D902120135CCD902120135D8
:10101300CEC303120135FAC30312013555C40312BB
:1010230001355FC4031201356FC40312013551CB7F
:101033000212013566CB02120135BECB0212013515
:1010430025CC021201356DCC02120135E3CC02121C
:10105300013512CD0212013520CD0212013584CDA6
:1010630002120135C2CD02120135DDCD0212013566
:1010730075CE021201351ECF02120135A1CF021225
:101083000135DACF0212013565D002120135BCD029
:10109300021201351BD1021201352DD10212013585
:1010A30053D1021201355CD102120135BBD20212B7
:1010B3000135E6BE03120135C5BF031201357FB406
:1010C30003120135C4B4031201350AB50312013505
:1010D3009DB60312013500C3031201351BC303126E
:1010E30001352BC30312013582C30312013559FFA6
:1010F300011201358FE102120135AFE10212013510
:10110300B3E202120135FFE2021201351FE30212BC
:10111300013572E302120135DFE30212013525E4E2
:101123000212013589E4021201353BE7021201354F
:10113300BCE702120135FB9D031201353C9E0312ED
:1011430001356C9E03120135C69E03120135A29F21
:1011530003120135A79F03120135AC9F031201351A
:10116300AF9F03120135B29F03120135B59F0312DE
:101173000135C39F03120135D79F03120135E39F46
:101183000312013518A00312013567A003120135BC
:101193006AA0031201359CA0031201359FA003121C
:1011A3000135A2A003120135A5A003120135A8A0A1
:1011B30003120135A0F202120135C5F20212013504
:1011C30000F302120135697F001201353428001241
:1011D3000135422B00120135022D00120135AD2DD0
:1011E30000120135512E00120135EA2E001201358D
:1011F300192F00120135F333001201359E3400120A
:1012030001350E36001201357636001201352A37C4
:1012130000120135EC39001201352B3A0012013569
:101223009F3A00120135FE3A001201355D3B001270
:101233000135CC3B00120135BF3C00120135053DA1
:10124300001201354A3D001201356D3D0012013592
:10125300E83E00120135FB3E001201350440001246
:1012630001354340001201356F4000120135C24081
:1012730000120135E3400012013527410012013508
:10128300794300120135BA43001201356544001257
:101293000135D044001201350D46001201353AC123
:1012A300031201354BC10312013542AF031201355D
:1012B300DDB103120135A1C503120135EBB10312F0
:1012C3000135FBB10312013515B20312013579B4AF
:1012D30003120135E5A6031201358BA7031201356D
:1012E300A7A9031201359ABD03120135D0BD03121C
:1012F30001352EBE031201353CBE0312013598BEE3
:1013030003120135D5BE03120135D8BE03120135D0
:10131300CDE70212013526E802120135BBE80212BD
:101323000135ABE90212013508EC0212013543ED38
:10133300021201355BED02120135F87F001201350F
:1013430095AC031201358CAE03120135F8AE0312CE
:1013530001353FAF03120135F5A30312013501A493
:101363000312013509A40312013515A40312013533
:101373001DA4031201352BA40312013550A403123B
:1013830001356DA40312013592A403120135BEA4E5
:1013930003120135DDA40312013502A50312013541
:1013A30041A50312013565A50312013581A5031279
:1013B3000135D0A5031201353DA603120135E1B66F
:1013C300031201354AB70312013508B80312013578
:1013D30087B803120135D59A03120135079B03120F
:1013E30001350F9C03120135349D03120135029B15
:1013F30002120135E89B02120135359C02120135B8
:10140300789C02120135ED9C021201354E9D0212A9
:101413000135C39D021201359F9E02120135AA9F19
:10142300021201352BA002120135D2A1021201359D
:1014330068A202120135DBA20212013557A3021280
:1014430001356EA302120135A5A402120135FFA4D2
:10145300021201352C9001120135C4940112013599
:10146300989701120135C19701120135EA970112CC
:1014730001359C9801120135829A01120135BD9BF9
:1014830001120135F3A0011201352CA1011201351E
:1014930070A10112013582A20112013500800312ED
:1014A3000135BD8203120135708303120135738345
:1014B3000312013549840312013582840312013575
:1014C300288E031201357B8E03120135988E031289
:1014D3000135868F031201350390031201352A91DA
:1014E3000312013592920312013557C503120135D8
:1014F30083C503E066701008A3E066700A08A3E0E2
:1015030066700408A3E06622C3E7960809E7960815
:1015130009E7960809E79622C3E09608A3E0960830
:10152300A3E09608A3E09622C008C3E096F5080856
:10153300A3E096420808A3E096420808A3E0964574
:10154300087001D3D00822080808EAC0E0EBC0E025
:1015530086F0E7A4FA180986F0E7A42AFA180986A0
:10156300F0E7A42AFA180986F0E7A42AFA1986F004
:10157300E7A4FBE5F02AFA190886F0E7A42BFBE5BC
:10158300F03AFA190886F0E7A42BFBE5F03AFA18CB
:10159300180986F0E7A4C5F02BFBE43AFA1908E72B
:1015A300C5F0C6A426F6E5F03BFBE43AFA1886F04C
:1015B300E7A4F6E5F00826F6E43B08F6E43A08F675
:1015C300D0E0FBD0E0FA22E4CFC0E0E4CEC0E0E418
:1015D300CDC0E0E4CCC0E075F020E626F608E633A3
:1015E300F608E633F608E633F6181818EC33FCED84
:1015F30033FDEE33FEEF33FFC3EC9709ED9709EEAE
:101603009709EF97191919400FFFEC97FC09ED970C
:10161300FD09EE97FE191906D5F0BFECF709EDF7B2
:1016230009EEF709EFF7191919D0E0FCD0E0FDD066
:10163300E0FED0E0FF226016080808C6C313C618F0
:10164300C613C618C613C618C613C6D5E0EA227059
:1016530009080808226016181818C6C333C608C636
:1016630033C608C633C608C633C6D5E0EA22E62722
:10167300F60809E637F60809E637F60809E637F605
:1016830022E026F608A3E036F608A3E036F608A320
:10169300E036F622E026F008A3E036F008A3E036B1
:1016A300F008A3E036F022C3E697F60809E697F6BA
:1016B3000809E697F60809E697F622C3E096F008CC
:1016C300A3E096F008A3E096F008A3E096F022E0EA
:1016D30056F608A3E056F608A3E056F608A3E0562C
:1016E300F622E056F008A3E056F008A3E056F0080F
:1016F300A3E056F022E0F608A3E0F608A3E0F6081C
:10170300A3E0F622E6F008A3E6F008A3E6F008A3B8
:10171300E6F022E0FAA3E0FBA3E0FCA3E0FD22EA6B
:10172300F0A3EBF0A3ECF0A3EDF022CAC0E0E6F0E7
:10173300A308DAFAD0E0FA22CAC0E0E0A3C582CC5B
:10174300C582C583CDC583F0A3C582CCC582C583BD
:10175300CDC583DAE6D0E0CA22C3E498F8E499F968
:1017630012179D8026C3E49AFAE49BFBE920E7E97C
:1017730012179DE498F8E499F922C3E498F8E499E0
:10178300F912179DE498F8E499F9C3E49AFAE49BF3
:10179300FB22EB20E7CFE920E7E0B90010BB00080C
:1017A300E88AF084F8AAF022E4FBC8FA22EB70225C
:1017B3007B10C833C8C933C9335007C39AC3DBF29C
:1017C30080069A50012ADBEAC833F4C8C933F4C946
:1017D300FA2275F008E4C833C8C933C933C99AC9B2
:1017E3009B5004C92AC93BD5F0ECFBC833F4C8E4C9
:1017F300C9FA22600D08C6A2E713C618C613C6D5D8
:10180300E0F322600C08C6C313C618C613C6D5E09E
:10181300F422700422600D18C6C333C608C633C64B
:10182300D5E0F41822251910AF08F519400C151A44
:101833008008F5194002151AD2AF2200C0D025192D
:1018430010AF08F519500C051A8008F51950020558
:101853001AD2AFD0D0222519F58210AF08F519405E
:101863000C151A8008F5194002151AD2AF851A8390
:10187300222519F582E4351AF58322E4732519C567
:1018830082C0E0E51A34FFC583C0E0E519C3958241
:1018930024F810AF0885831A858219800885831A76
:1018A300858219D2AFCEF0A3E520F0A37808E6082D
:1018B300F0A3DEFAEFF0A3E58124FAF8E608F0A33B
:1018C300E608F0A3E608F0A30808E608F0A3E60894
:1018D300F0A315811581D0E0FED0E0F815811581C4
:1018E3001581E8C0E0EEC0E0222519C582C0E0E51D
:1018F3001A34FFC583C0E0E519C3958224F910AFFC
:101903000885831A858219800885831A858219D2EE
:10191300AFCEF0A3E520F0A37808E608F0A3DEFA43
:10192300EFF0A3E58124FBF8E608F0A3E608F0A3B3
:101933000808E608F0A3E608F0A315811581D0E0B6
:10194300FED0E0F815811581E8C0E0EEC0E0228505
:101953001A83851982E0A3FEE0A3F5207808E0A3AB
:10196300F608DFFAE0A3FFE0A3C0E0E0A3C0E0E0F5
:10197300A3C0E0E0A3C0E0E0A3C0E010AF0885820D
:101983001985831A800885821985831AD2AFD0837B
:10199300D082020132851A83851982E0A3FEE0A377
:1019A300F5207808E0A3F608DFFAE0A3FFE0A3C080
:1019B300E0E0A3C0E0E0A3C0E0E0A3C0E010AF0814
:1019C30085821985831A800885821985831AD2AF87
:1019D300D083D08222C0D02519C582C0E0E51A3455
:1019E300FFC583C0E0E519C3958224F310AF0885D2
:1019F300831A858219800885831A858219D2AFC814
:101A0300F0A3E9F0A3EAF0A3EBF0A37908E709F068
:101A1300A3D8FAECF0A3EDF0A3EEF0A3EFF0A3D07C
:101A2300E0F0A3D0E0F0A3D0E0F0A3E520F0A3E53D
:101A3300F0F0A322851A83851982E0C0E0A3E0F9C0
:101A4300A3E0FAA3E0FBA37808E0F608A3DFFAE03B
:101A5300FCA3E0FDA3E0FEA3E0FFA3E0C0E0A3E05E
:101A6300C0E0A3E0F5D0A3E0F520A3E0A3F5F010D8
:101A7300AF0885831A858219800885831A858219A0
:101A8300D2AFD082D083D0E0F8D0E03274048006A5
:101A9300740280027401C0E0F404121859D0E012F9
:101AA300172E227404800474028000CCC0E0EDC0C1
:101AB300E0E519C39CCCAD1A50011D10AF068C197B
:101AC3008D1A80068C198D1AD2AF12173BD0E0FD08
:101AD300D0E0FC22D083D082E9C0E0E493A3C386A4
:101AE300F0C5F095F0F908E493A386F0C5F095F0FE
:101AF300700BE493A3C3994005E9048002A3E47542
:101B0300F002A42582F582E5F03583F583D0E0F970
:101B1300E493A3C0E0E493C0E022D083D082ECC07E
:101B2300E0EDC0E0E493A3FCE493A3FDED4C600D72
:101B3300121B69EC24FFFCED34FFFD80EFE493A35B
:101B4300FCE493A3FDED4C600D121BA8EC24FFFCF9
:101B5300ED34FFFD80EFD0E0FDD0E0FCE493A3C0C3
:101B6300E0E493C0E022C0E0C3E4939608740193D9
:101B73009618400FE4936670080874019366187012
:101B8300007019A3A3C3E49396087401939618A352
:101B9300A3400DD0E0D0E0D0E0021B59A3A3A3A340
:101BA300A3A3D0E022C0E0C0F088F0E493667008FD
:101BB3000874019366187000A8F0A3A3700BD0F00B
:101BC300D0E0D0E0D0E0021B59A3A3D0F0D0E022B4
:101BD40074F51218ECEAFEEBFFEE2434F8EF34004F
:101BE400F988088909EE2435121D00F8EE2437120D
:101BF4001D00F50AEC850AF0A4FCAAF0850AF0EDB4
:101C0400A42AFDE82CF8E43DF97A257B0012179DFF
:101C1400EA850882850983F074075AF87401B800CC
:101C2400028004C333D8FCFBEA131313541FF8EEE9
:101C340028F8EF3400F9E8245DF582E9121D035B0E
:101C44006003EA801CEE2436121D00F5F0EA84A835
:101C5400F0EE28F8EF3400F9E82438F582E9121D93
:101C640003F97F0402199874F51218ECEAFEEBFFED
:101C7400EE2434121D00C0E0EE2435F582EF34006A
:101C8400F583D0E0F08E828F83A3A3A3A3A3E0FA0D
:101C9400A3E0FB8E828F83A3A3A3A3A3A3A3E0FC4F
:101CA400A3E0FDECC39AF50AED9BF50BEE247FF55A
:101CB40008EF3400F509850882F583E06401702B90
:101CC400EE2480F582EF3400F583121AAA121D095E
:101CD400740212183EE960137CDC7D04EEFAEFFB1B
:101CE400120BA2850882850983E4F0AC0AAD0BEEE1
:101CF400FAEFFB121BD412279D021C66F582EF3407
:101D040000F583E022C082C083851982851A83E0AE
:101D1400F8A3E0F9C3EA9CEB9D5010C3EC98ED994D
:101D2400401BC3EA98EB995014800EC3EA98EB99D0
:101D34004007C3EC98ED994004790180027900D002
:101D440083D08222EAC39CFAEB9DFB2274ED121825
:101D5400EC9003A2E064086005E06407702C9061D5
:101D6400C8E060269003D0E0F874FF68601CE87552
:101D7400F003A4C8AAF02AF974D228FE740339FF28
:101D84008E828F83A3A3A3E070057900021EF0EE78
:101D94002468F510EF3400F511906060E08510823E
:101DA400851183F0750A45750B05750800750900E2
:101DB400E5D914F50EE5D95403F50F601CEE248221
:101DC400F50CEF3400F50D7403650F6058E50E60F3
:101DD40013EE2467121D00700B793DEEFAEFFB122F
:101DE4000BC680A6900540E064016026850C8285C0
:101DF4000D83E06004780480027800850E08E5080D
:101E0400C398FA95E0FB120A468A088B09EA450949
:101E14007006120E24021D8E850C82850D83E070DF
:101E2400048A0A8B0B78008016E5D9C0E08812E595
:101E34000A2512F582E50B3400F583D0E0F008E8BA
:101E4400C3950E40E4850C82850D83E0602874FC04
:101E5400250EF50E780A121A93AC0EA90FEEFAEFBE
:101E6400FB120C74740212183EE9700AAA08AB093A
:101E74001213C4021DDD7403650F6058850E0C75C2
:101E84000D00780C121A93AC0AAD0BAA08AB091218
:101E94000C38740212183E851082851183E0F874A0
:101EA40080687005750C7F8002880CE50CF50A7853
:101EB4000A121A97E50FF50A780A121A97A90EACB6
:101EC40008AD099003D0E0FA7B001208DE74021218
:101ED400183E80139003A2E06408600BAC0AAD0BBB
:101EE400EEFAEFFB120D0A120E3079017F0C021983
:101EF4009874F31218EC74FC121828EAFEEBFF89AC
:101F040008A2AFE433F509C2AFEE2463F50AEF3457
:101F140000F50B8010AA0AAB0B120BF01213C4903D
:101F240004E3E004F0850A82850B83E0F8A3E0F97A
:101F3400E849602FE82402FAE93400FBEA2402F5B8
:101F44000CEB3400F50D780C121A938A828B83E023
:101F5400FCA3E0F9EEFAEFFB120BE4740212183E54
:101F6400E960B29004E3E060579004E4E0F8900480
:101F7400E3E0C398500C7402650870449004E5E0F3
:101F8400603E8E828F83A3A3A3A3E0851982851A62
:101F940083121FD47402121874E8121FD49004E23E
:101FA400E028F07402121874AC82AD83851982851E
:101FB4001A83AA82AB8379011208EA9004E3E4F05D
:101FC400E509A2E092AF740412183E7F0602199844
:101FD400F0A3E4F09004E3E0F82200008521878573
:101FE40022C622C0E074EF1219D8A2AFE433FEC2B5
:101FF400AF759B00906182E0A2E05012E591A2E0EF
:10200400500C7591FE740165217003121D50E0A2FD
:10201400E55051E591A2E5504B7591DF9003A2E0A4
:1020240064076005E06408702374016521703579E4
:10203400019003D0E0FA75F003A4CAA8F028FB7459
:10204400D22AFA74033BFB121EF58018E0640D706B
:10205400139003C4E004F064287002E4F07A00E012
:10206400F9120E36906182E0A2E6400302210EE5E9
:1020740091A2E6400302210E7591BF9003A2E06491
:10208400057008120D4C120D588003120D52752163
:1020940000120DC4E99003A3F07900120DB8120BDD
:1020A4000C7A017B009003A1E0F912108890780368
:1020B400E064427055900544E014F0704DC2AF12D4
:1020C40020C600782AD0E0F618D0E0F6E59F540741
:1020D40070057509FF800375097FC4C0E07829E69F
:1020E400F50808E65509F509740B7808121806D0A6
:1020F400E02508F8906270E0A2E740F8E8C3339066
:102104006272F0906270E0D2E0F0906181E0A2E34C
:102114005009E5E9A2E3500375E9F7A3E0A2E7500B
:1021240009E591A2E7500375917FEEA2E092AF7F9B
:1021340004021A37C0E0C0D0C082C083906183E03B
:10214400A2E05009E5BFA2E0500375BFFEE0A2E1A2
:102154005009E5BFA2E1500375BFFDE0A2E25009BA
:10216400E5BFA2E2500375BFFBE0A2E35009E5BF5F
:10217400A2E3500375BFF7E0A2E45009E5BFA2E46F
:10218400500375BFEFE0A2E55009E5BFA2E5500397
:1021940075BFDFE0A2E65009E5BFA2E6500375BFB4
:1021A400BFD083D082D0D0D0E032C0E074F2121914
:1021B400D8E5A7A2E4500FE5A1A2E4500953A7EF84
:1021C40075A1EF122202E5A7A2E5500CE5A1A2E554
:1021D400500653A7DF75A1DFE5A7A2E15009E5A1E9
:1021E400A2E1500375A1FDE5A7A2E2500CE5A1A26E
:1021F400E2500653A7FB75A1FB7F01021A3774F85E
:102204001218EC7521019003A2E0640670077A00AD
:102214007B00120D34A2AFE433FED2AF9003A8E0EA
:10222400640170187A207B009003A1E0F912111860
:102234007A207B009003A1E0F912108E906182E075
:10224400D2E6F0900541E0602185C6228016900315
:10225400A7E064017008E5C654F84405F5C653BE0A
:10226400FC121FE07401652160E4EEA2E092AF7FEE
:10227400010219988E238F24858228858327851946
:1022840082851A83E0CEA3E0CF852882852783EB5D
:10229400C9EAC8EDCBECCA75F010C3E833C8E9331A
:1022A400C9EA33CAEB33CBC3EA9EF526EB9FF52587
:1022B400B35004AB25AA26EC33CCED33CDD5F0DAFC
:1022C400AE23AF242274E91218EC74FA121828EA27
:1022D400FEEBFF8C088D099003A2E024F7C394055C
:1022E40050067510010223F4120CAA8A0A8B0BEA19
:1022F400450B70030223F1120D6A8A0C8B0D120D2B
:102304006AEA650C7003EB650D60ECEEFCEFFD858D
:102314001982851A83AA82AB83120D70850A82857D
:102324000B83A3A3780C1216F8908FC1780C1216A5
:10233400D2851982851A8378141216F8908FC17881
:10234400141216D2780C791412150B501F780C79CC
:10235400141216AA908F59780C12152B4047850C2D
:1023640010850D11850E12850F138045908F5985A8
:1023740014108515118516128517137810790C120F
:1023840016AA781012152B501C75100075110075C3
:102394001200751301781079141216AA7810790CAA
:1023A400121671800C7510017511007512007513E9
:1023B4000074097810121652908FCD780C1216F80A
:1023C4007810790C1215CA9003A2E06408600AE040
:1023D40064066005E064057020908F5D7810121526
:1023E4002B5016908F617810121684800C75100093
:1023F40075110075120075130085088285098378AC
:1024040010121707740612183E7F1002199874F7F9
:102414001218EC120D8290053FE064017010906276
:1024240045E4F0A3F053F4F343FE0C5390F3120D80
:1024340022E5C654804449F5C6E59E547F6449703C
:10244400F8906185740FF090053DE0F47002A3E00C
:10245400602C75080175090090053DE07808121894
:1024640015E508F4FAA3E0600814600A14600C800F
:102474000DEA52808008EA52908003EA52A0790063
:102484007F0202199874F71218ECE9FEEAFF74014E
:102494006E700C7A807B009003A1E0F91210889092
:1024A400282CE493F46008E493F9120AEE800953AB
:1024B400C680E59E547F70FA120D2890053FE064B3
:1024C400017003120B2490053DE0F47002A3E06058
:1024D4002A75080175090090053DE0780812181561
:1024E400AA08A3E0600814600A14600C800DEA4294
:1024F400808008EA42908003EA42A0120CAA8A086B
:102504008B09A808A909E8496017E5E170FCE824EB
:1025140014F582E93400F583E0F874FF68600288FA
:10252400E174016F700A7A019003A1E0F91210E2DC
:1025340002248474F11218EC8A088B098C0A8D0B1E
:10254400908FC178081216D2740F121874780C1276
:1025540016F8908FC1780C1216D27808790C1215DF
:102564000B908F5950107808790C1216AA7808121B
:10257400152B4014800E780C79081216AA780C12C8
:10258400152B50047901800279007F080219987490
:10259400ED1218EC8A088B098C0A8D0B908FC17888
:1025A400081216D27413121874780C1216F8908F3D
:1025B400C1780C1216D2780C790812150B401178D8
:1025C40008790C1216AAAA08AB09AC0AAD0B802232
:1025D4007510007511007512007513017810790CCF
:1025E4001216AA78107908121671AA10AB11AC123F
:1025F400AD137F0C021998908FC178081216F88ACF
:10260400828B8378081216E57F0402199874F512F8
:1026140018EC8C828D8378081216F88A828B837862
:10262400081216BE122665C3E098F0A3E09912269C
:1026340057401E908F9578081216F88A828B8378FB
:10264400081216978E828F83E02420F0A3E0344E84
:10265400F080A4F08E828F83C3E09420A3E0944E94
:1026640022EA2404F8EB3400F9E8FEE9FF8C828DB9
:1026740083A3A3A3A3E0F8A3E0F98E828F8322743B
:10268400F51218ECE9FE9004F7E0FAA3E0FBEEC3C0
:1026940033F8E433F974E728F582748E39F583E06E
:1026A4002AF508A3E03BF5097808121A93908FDD08
:1026B400121716122278740212183E8A088B098C9B
:1026C4000A8D0B74107808121639AA08AB097F0416
:1026D40002199874F11218EC8A0C8B0D8C0E8D0F64
:1026E400740F121874E0FAA3E0FB7411121874E06A
:1026F400F508A3E0F5097808121A93EA2401F5080D
:10270400EB3400F509E4F50AF50B780C7908121599
:102714004A908F6D78081216F8780C790812154AC9
:10272400AA0CAB0DAC0EAD0F122278740212183E37
:102734008B09EA450960047A0180027A00EC2AFCDC
:10274400ED3400FD7413121874E0F8A3E0F9E8FE08
:10275400E9FFECF8EDF97A717B0212179D8808897C
:1027640009E4F50AF50B8E828F837808121707ECBB
:10277400F8EDF97A717B0212179D8A088B097405AA
:1027840078081218158E828F83A3A3A3A3E508F0FB
:10279400A3E509F07F08021998C082C083E990601C
:1027A40000F0D083D08222C2AF02000022C0E074C5
:1027B400F21219D8A2AFE433FED2AFE589542160F6
:1027C400031212FEC2C5751B00EEF8EEA2E092AF32
:1027D4007F01021A37C0E0C0D0E8C0E0E9C0E0A23F
:1027E400AFE433F8D2AFC2E8751B00E8F9E8A2E021
:1027F40092AFD0E0F9D0E0F8D0D0D0E032C0E0C061
:10280400D0E8C0E0E9C0E0A2AFE433F8D2AFC2C779
:10281400751B00E8F9E8A2E092AFD0E0F9D0E0F847
:10282400D0D0D0E032020132FFFFFFFFFFFFFFFFF5
:1028340074EE12188074FA1218288A0A8B0B89090C
:10284400ECFEEDFF750800850A0C850B0D780C1263
:102854001AD70004100D2B7D289E28BD28DE28FFE2
:10286400282029532974298B29B929772A982AB829
:102874002AE22A0D2B0D2BE4297401650970158EAB
:10288400828F83E0C39403500B8E828F83E0900A7F
:10289400EEF08003750818022B3674026509701374
:1028A4008E828F83E0F8A3E0F9900AEFE8F0A3E9C1
:1028B400F08003750818022B367401650970158EB3
:1028C400828F83E0C39402500B8E828F83E0900743
:1028D4006AF08003750818022B36740165097015B7
:1028E4008E828F83E0C39405500B8E828F83E09099
:1028F400076BF08003750818022B367401650970A4
:10290400158E828F83E0C39402500B8E828F83E0F6
:1029140090076CF08003750818022B367410650953
:102924007027750C10750D00780C121A93EEFCEFDD
:10293400FD7A6D7B07121034740212183E8A0C8BD8
:102944000D850C82850D838003750818022B36745F
:1029540001650970158E828F83E0C39402500B8E3B
:10296400828F83E090077DF08003750818022B3670
:1029740074016509700B8E828F83E0900AF2F080F7
:1029840003750818022B36740465097022908FDDD4
:10299400780C1216F88E828F83780C12151B500F48
:1029A4008E828F8312171690077F12172280037569
:1029B4000818022B36E5097021120698E9701312E3
:1029C4001244E9F50C795012144EE9F50D12123245
:1029D400800B9008127401F08003750818022B36DE
:1029E400740765096003022A71750E06750F007875
:1029F4000E121A938E828F83A3AC82AD837402125B
:102A04001874AA82AB8312103A740212183E8A1008
:102A14008B1185100E85110F7C007D008519828530
:102A24001A83AA82AB838E828F83E0F91211D8E9CC
:102A3400F50CE50CC3940A502F120698E97015A9F9
:102A44000C12124AE9F50D795012144EE9F50E12E2
:102A54001232801C750D007413250CF58274083530
:102A64000DF5837401F08008750802800375081859
:102A7400022B367401650970158E828F83E0C3942E
:102A840002500B8E828F83E090077EF080037508DE
:102A940018022B367401650970158E828F83E0C38A
:102AA400940A500B8E828F83E0900AF1F0800375B4
:102AB4000818807E74016509701F8E828F83E0C3BD
:102AC400940740158E828F83E0C39411500B8E823D
:102AD4008F83E0900AF3F0805975081880547401CC
:102AE40065097020900811E0F50C8E828F83E090C8
:102AF4000811F0E50C703B900811E064017033128A
:102B04001232802E7508188029C3E50A9427E50B34
:102B14009400501B7402650970158E828F83E0FC4B
:102B2400A3E0FDAA0AAB0B120536E9F5088003758C
:102B34000802A908740612183E7F0A02195274EC9E
:102B440012188074DA121828890D8A128B138C0AD1
:102B54008D0B743A121874E0F50C908F34C082C057
:102B640083851982851A83AC82AD83D083D0827425
:102B74000612173B851982851A83AC82AD83AA128B
:102B8400AB13A90D1211D8E9FEEEC3940A40030257
:102B94002CE1EEF9121214E9FF900AEEE0640270DF
:102BA40004740180027400F5087808121A97AD0CB9
:102BB400EFFCEEF9AA0AAB0B121286740112183E4E
:102BC4007C147D0079007412121874AA82AB8312EB
:102BD400104C8A0E8B0F850E08850F09741212187B
:102BE40074AC82AD837A1075F006EEA42424F91235
:102BF4001448E970437C1079FF7412121874AA8285
:102C0400AB831210ACE970307422121874AC82AD2C
:102C1400837A0475F006EEA42425F9121448E9F524
:102C2400087412121874AC82AD83EFA2E0E433F995
:102C3400AA0AAB0B1205C0E97406121874AC82AD73
:102C4400837A0C74702EF9121448E9707E7406129B
:102C54001874AA82AB83121208750E00E50EC39491
:102C6400045068E50EA80E7900E875F003A4C8AA1C
:102C7400F075F000A42AFA75F003E9A42AF97406A1
:102C8400121874E58228F508E58339F50985088268
:102C9400850983E0F8A3E0F9E849602B850882857B
:102CA4000983A3A3E0F5107511007810121A938517
:102CB4000882850983E0FCA3E0FDAA0AAB0B120895
:102CC40024740212183EE9050E8091EFA2E1500D22
:102CD400900769E0F9AA0AAB0B12082AE9740465A3
:102CE4000C700F900AEEE064027007AA0AAB0B1294
:102CF40012807900742612183E7F0C02195274F265
:102D0400121880890BEAFEEBFF8C088D09750A0AFC
:102D1400E50B600C146009146044146064022DA671
:102D2400EEFAEFFB121226E9F50AE50AC3940A50FB
:102D340071E5084509606B750C06750D00780C1279
:102D44001A93EEFCEFFDAA08AB09121034740212B8
:102D5400183E8A0C8B0D850C82850D838044EEFA17
:102D6400EFFB121220E9F50AE50AC3940A5033E591
:102D7400084509602DAA08AB09A90A12121AE980AC
:102D840021EEFAEFFB12122CE9F50AE50AC3940AC4
:102D94005010E5084509600AAA08AB09A90A1212ED
:102DA4001AE9A90A7F0602195274F21218808A0CD1
:102DB4008B0DE9FE7F1574FF650C700474FF650DBF
:102DC400702A750800E508C3940A5014EEFC7A02D0
:102DD4007B00A9081211F6E960027F00050880E56E
:102DE400EE60637A6E7B12120A28805AAA0CAB0D2D
:102DF400120A0A8A0A8B0B850A08850B09E508451D
:102E04000960417C007D00E5082405FAE5093400E9
:102E1400FB850882850983A3A3A3A3E0F91211D833
:102E2400E9F50AE50AC3940A500EEEFC7A027B0027
:102E3400A90A1211F6E97F00EE600BAA08AB091289
:102E4400126E80027F14EFF97F0602195274EE129B
:102E540018808A0E8B0F8C0A8D0B7412121874E072
:102E6400F50CA3E0F50D75081574FF650E70047478
:102E7400FF650F701E7E00EEC3940A5062AC0CAD69
:102E84000DAA0AAB0BEEF91211FCE96003750800F8
:102E94000E80E4AA0EAB0F120A0A8A108B11AE1030
:102EA400AF11EE4F60367C007D00EE2405FAEF345E
:102EB40000FB8E828F83A3A3A3A3E0F91211D8E9A8
:102EC400F509E509C3940A5016AC0CAD0DAA0AAB7A
:102ED4000BA9091211FCE97508008003750814A9EF
:102EE400087F0A02195274F7121880EAFEEBFF9069
:102EF4000783EEF0A3EFF0900769E0FC7D007A26EB
:102F04007B00120536E9F508900769E0F91207A07D
:102F14007F0102195274F212188074EC1218288A74
:102F24000A8B0B850A82850B83A3A3E024FA700322
:102F340002337924FD70030231EF14700302300C64
:102F440014601024FD700302319714700302322FB1
:102F54000233E7AE0AAF0B900783E0F8A3E0F9E889
:102F6400496069900783E0F8A3E0F5838882E0F87C
:102F7400A3E0F9E8496055EE240CF582EF3400F53E
:102F840083E0F5087808121A97EE240BF582EF34E3
:102F940000F583E0F98E828F83A3A3A3A3A3A3A345
:102FA400A3A3E0FCA3E0FDEE2403FAEF3400FB90BE
:102FB4000783E0F8A3E0F5838882E0F8A3E0F583D3
:102FC400888212187E740112183E80398E828F8393
:102FD400A3A3A3A3A3A3A3A3A3121AAA90077F1234
:102FE40017161205D2740212183EE9601879018E80
:102FF400828F83A3A3A3A3A3A3A3A3A3E0FAA3E021
:10300400FB1205CCE90233E7AE0AAF0B8E828F8345
:10301400A3E060030231458E828F83A3A3A3A3A3FD
:10302400E0A2E0400302314590081DE0F8A3E0F976
:10303400E84960030231457C0E7D007900851982E0
:10304400851A83AA82AB8312104C8A088B09AA08BA
:10305400AB09EE240CF582EF3400F583E0F8A3E02D
:10306400F9E849603B7508067509007808121A9357
:10307400EE240CF582EF3400F583E02410FCA3E089
:103084003400FD7402121874AA82AB8312103474D3
:103094000212183E8A088B098508828509838054A8
:1030A4008E828F83A3A3A3E0FAA3E0FB120A0A8A09
:1030B4000C8B0D850C08850D09E5084509603275F2
:1030C4000C06750D00780C121A93E5082405FCE52E
:1030D400093400FD7402121874AA82AB83121034EE
:1030E400740212183E8A0C8B0D850C82850D838028
:1030F400030233E78E828F83A3A3A3A3A3E0A2E2F8
:103104005004D2F08002C2F0A2F0E433F8790074E3
:103114000C121874E048F0A3E049F0EEFCEFFD85D2
:103124001982851A83AA82AB8312120EE970127A6D
:10313400027B00900769E0F9121088E979000233F4
:10314400E9900783E0F8A3E0F9E849604390078336
:10315400E0F8A3E0F5838882A3A3E0F8A3E0F9E80C
:1031640049602D8E828F83A3E0FC79018E828F8348
:10317400A3A3A3E0FAA3E0FB900783E0F8A3E0F5A0
:10318400838882A3A3E0F8A3E0F583888212187EE3
:103194000233E7AE0AAF0B900783E0F8A3E0F9E847
:1031A400496045900783E0F8A3E0F5838882A3A3F0
:1031B400E0F8A3E0F9E849602F850A82850B83A330
:1031C400E0FC79028E828F83A3A3A3E0FAA3E0FB41
:1031D400900783E0F8A3E0F5838882A3A3E0F8A333
:1031E400E0F583888212187E0233E7AE0AAF0B7CC7
:1031F400007D00EE2404FAEF3400FB8E828F83A35B
:10320400A3A3E0F91211D8E9F508E508C3940A501C
:1032140017EE240AFCEF3400FD7A0475F006E50885
:10322400A42425F9121442E90233E7AE0AAF0B9045
:10323400077EE06018900AF1E0F98E828F83A3A3E1
:10324400A3E0FAA3E0FB1205CCE90233E7900AEE0F
:10325400E0701579058E828F83A3A3A3E0FAA3E01F
:10326400FB1205CCE90233E78E828F83A3A3A3E08C
:10327400FAA3E0FB120A0A8A0C8B0D850C08850D53
:10328400098E828F83A3A3A3A3A3A3A3E0A2E050E8
:1032940075E5084509606C850882850983A3A3A3A5
:1032A400A3E060628E828F83A3A3A3A3A3A3A3A39B
:1032B400A3E0F8A3E0F9E8C4540FF879005401F846
:1032C400E95400F9E8A2E0403D740E121874AC828F
:1032D400AD83E5082405FAE5093400FB85088285F9
:1032E4000983A3A3A3A3E0F91211D8E97018790301
:1032F4008E828F83A3A3A3E0FAA3E0FB1205CCE99B
:103304000233E70233E7EE2405FCEF3400FD8508C1
:1033140082850983A3A3A3A3E0F98E828F83A3A349
:10332400A3E0FAA3E0FB12127A900783E0F8A3E08B
:10333400F9E849603E900783E0F8A3E0F5838882CA
:10334400A3A3E0F8A3E0F9E84960287C0079008EA3
:10335400828F83A3A3A3E0FAA3E0FB900783E0F8A2
:10336400A3E0F5838882A3A3E0F8A3E0F583888231
:1033740012187E806E120698E97068900812E06454
:1033840001701A121244E9FE9008127400F07C0ACB
:103394007D0079007A137B0812104C803C7E00EE8D
:1033A400C3940A50348E0875090074132508F582F5
:1033B40074083509F583E06401701BEEF912124AB2
:1033C400E9F88E0875090074132508F58274083528
:1033D40009F5837400F00E80C6795012144EE9FE8C
:1033E4001212327901741412183E7F0602195274B3
:1033F400F312188074F21218288909EAFEEBFF8C84
:103404000C851982851A83AC82AD837A0E75F00619
:10341400E509A42420F9121448E970727C0679FFA6
:10342400851982851A83AA82AB831210ACE9705E77
:10343400740C121874E0F8A3E0F9E8F508E50C60E0
:1034440005EE42088004EEF4520885080A750B0064
:10345400740C121874E0650A7004A3E0650B602A0A
:10346400E508A8087900740C121874E508F0A3E9BB
:10347400F0851982851A83AC82AD837A0E75F006C5
:10348400E509A42420F9121442E9790180027900A3
:10349400740E12183E7F0502195274F012188074CB
:1034A400E6121828890B8A0C8B0DECFEEDFF740CC8
:1034B400121874AC82AD837A0E75F006E50BA42461
:1034C40020F9121448E960030236027C0679FF747D
:1034D4000C121874AA82AB831210ACE96003023692
:1034E40002851982851A83AC82AD837A0C747025A7
:1034F4000BF9121448E960030235FE750A008519B8
:1035040082851A83AA82AB83121208E50C450D70DA
:103514003A7C0C7900851982851A83AA82AB8312BE
:1035240010ACE960030235D87C0C7D007900851964
:1035340082851A83AA82AB8312104C8A088B098570
:103544000882850983750A010235D8851982851A8E
:1035540083AC82AD83AA0CAB0D1212028A0E8B0FC0
:10356400850E08850F09E50845097036EE4F602180
:10357400851982851A83AC82AD837A007B0012128E
:10358400028A0E8B0FA80EA90F88088909E84970D2
:10359400047900806B850882850983E50CF0A3E536
:1035A4000DF0850882850983A3A3E0F87900EE680D
:1035B4007002EF69601EEE850882850983A3A3F07B
:1035C400EE4F700D8508828509837400F0A37400A2
:1035D400F0750A01E50A6022851982851A83AA8298
:1035E400AB83121208851982851A83AC82AD837A63
:1035F4000C7470250BF9121442E9790180027900E8
:10360400741A12183E7F0802195274F7121880EACD
:10361400FEEBFF7B00EBC39404504EEBF87900E81B
:1036240075F003A4C8AAF075F000A42AFA75F00393
:10363400E9A42AF9EC28F582ED39F583E06E7003EC
:10364400A3E06F7021EBF87900E875F003A4C8AA31
:10365400F075F000A42AFA75F003E9A42AF9EC281D
:10366400FAED39FB80070B80AC7A007B007F010206
:10367400195274F71218807F00EFC39404400302B8
:103684003725EFF87900E875F003A4C8ACF075F0BD
:1036940000A42CFC75F003E9A42CF9EA28F582EBCC
:1036A40039F583E0F4FCA3E0F4FDEFF87900E87564
:1036B400F003A4C8AEF075F000A42EFE75F003E983
:1036C400A42EF9EA28F582EB39F583ECF0A3EDF0AA
:1036D400EFF87900E875F003A4C8ACF075F000A425
:1036E4002CFC75F003E9A42CF9EA28F582EB39F5F2
:1036F40083A3A3E0F4C0E0EFF87900E875F003A435
:10370400C8ACF075F000A42CFC75F003E9A42CF906
:10371400EA28F582EB39F583A3A3D0E0F00F023653
:103724007D7F0102195274F012188074F412182863
:10373400EAFEEBFF8C088D0990081DE0F8A3E0F980
:10374400E849702CEE4F6006E508450970057901DB
:103754000239E2EEFAEFFB121226E9900AF4F09035
:103764000AF4E0C3940A4008121238E9900AF4F00B
:10377400900AF4E0C3940A40030239E090081DE083
:10378400F8A3E0F9E849600302382CEEFCEFFD7A77
:103794000E75F006900AF4E0A42420F9121442E90C
:1037A400F50C7C0C7D0079FF851982851A83AA8229
:1037B400AB8312104C8A0E8B0F850E0A850F0B8576
:1037C4001982851A83AC82AD837A0C900AF4E024C2
:1037D40070F9121442E9F50D750E0E750F00780E8E
:1037E400121A93EEFCEFFD900AF4E0F87900E87504
:1037F400F00EA4C8AAF075F000A42AFA75F00EE938
:10380400A42AF9748528FA740739FB121034740257
:1038140012183E8A0E8B0FA80EA90F90081DE508FA
:10382400F0A3E509F00239DC90081DE0F8A3E0C834
:103834002406F582E83400F583E0F8A3E0F9E849CA
:10384400604390081DE0F8A3E0C82406F582E8343C
:1038540000F583E0FCA3E0FD7A1B75F006900AF402
:10386400E0A42421F9121442E9F890081DE0F9A318
:10387400E0C92406F582E93400F5837400F0A374EA
:1038840000F00239DC90081DE0F8A3E0C8240AF532
:1038940082E83400F583E0F8A3E0F9E84960439056
:1038A400081DE0F8A3E0C8240AF582E83400F58393
:1038B400E0FCA3E0FD7A1B75F006900AF4E0A42472
:1038C40022F9121442E9F890081DE0F9A3E0C92492
:1038D4000AF582E93400F5837400F0A37400F00261
:1038E40039DC90081DE0F8A3E0C8240CF582E83424
:1038F40000F583E0F8A3E0F9E849604390081DE08F
:10390400F8A3E0C8240CF582E83400F583E0FCA3B6
:10391400E0FD7A1075F006900AF4E0A42423F9126D
:103924001442E9F890081DE0F9A3E0C9240CF582DB
:10393400E93400F5837400F0A37400F00239DC90DC
:10394400081DE0F8A3E0C82408F582E83400F583F4
:10395400E0F8A3E0F9E849606F90081DE0F8A3E0FF
:10396400C82408F582E83400F583E0FCA3E0FD7A7E
:103974001075F006900AF4E0A42424F9121442E924
:10398400F50A90081DE0F8A3E0C82408F582E8349D
:1039940000F583E02410FCA3E03400FD7A0475F004
:1039A40006900AF4E0A42425F9121442E9F89008D8
:1039B4001DE0F9A3E0C92408F582E93400F5837415
:1039C40000F0A37400F08010900811E0600312125C
:1039D4008C12127479018006790080027901740CCA
:1039E40012183E7F0802195274F712188074F212EA
:1039F4001828E9FE851982851A83AC82AD837A0E74
:103A040075F006A42420F9121448E9700E740C12FF
:103A14001874E0F8A3E0F9E8F980027900740E1252
:103A2400183E7F0102195274F412188074F21218AD
:103A3400288909EAFEEBFFE509C3940A5004EE4F16
:103A440070047902804B851982851A83AC82AD8318
:103A54007A0E75F006E509A42420F9121448E9F554
:103A640008E508702A750A06750B00780A121A937D
:103A74007402121874AC82AD83EEFAEFFB121034A8
:103A8400740212183E8A0A8B0B850A82850B83A95D
:103A940008740E12183E7F0402195274F41218802E
:103AA400EAFEEBFF750800E508C3940A5045750A61
:103AB40006750B00780A121A93EEFCEFFDE508A8D0
:103AC400087900E875F00EA4C8AAF075F000A42ADD
:103AD400FA75F00EE9A42AF9748B28FA740739FBF5
:103AE400121046740212183EE96004A90880060503
:103AF4000880B4790A7F0402195274F4121880EA17
:103B0400FEEBFF750800E508C3940A5045750A06E4
:103B1400750B00780A121A93EEFCEFFDE508A8086D
:103B24007900E875F00EA4C8AAF075F000A42AFA8A
:103B340075F00EE9A42AF9748528FA740739FB1282
:103B44001046740212183EE96004A90880060508AC
:103B540080B4790A7F0402195274F712188074F041
:103B6400121828EAFEEBFF750800E508C3940A5012
:103B74004B851982851A83AC82AD837A1075F00661
:103B8400E508A42423F9121448E9702C7C1079FF69
:103B9400851982851A83AA82AB831210ACE9701846
:103BA400EEFCEFFD851982851A83AA82AB83120588
:103BB400A2E97004A9088006050880AE790A741089
:103BC40012183E7F0102195274F41218807508000D
:103BD400E508C3940A4003023CAEE508A80879004E
:103BE400E875F00EA4C8AAF075F000A42AFA75F0DE
:103BF4000EE9A42AF9748528FC740739FD7A0E7538
:103C0400F006E508A42420F9121448E97003023CE4
:103C1400A97C067D0079FFE508AA087B00EA75F017
:103C24000EA4CAA8F075F000A428F875F00EEBA451
:103C340028FB74852AFA74073BFB12104C8A0A8B02
:103C44000BAE0AAF0B7C067D0079FFE508AA087B62
:103C540000EA75F00EA4CAA8F075F000A428F8755F
:103C6400F00EEBA428FB748B2AFA74073BFB1210AA
:103C74004C8A0A8B0BAC0AAD0BE508A8087900E85E
:103C840075F00EA4C8AAF075F000A42AFA75F00E17
:103C9400E9A42AF9749128F582740739F58374002C
:103CA400F0A37400F00508023BD4900811E060030F
:103CB40012128C1212747F0402195274F7121880B3
:103CC4007E00EEC3940A50327C0679FFEEFA7B0044
:103CD400EA75F00EA4CAA8F075F000A428F875F0EF
:103CE4000EEBA428FB74852AFA74073BFB1210AC74
:103CF400E96004EEF980050E80C8790A7F01021993
:103D04005274F71218807E007F00EFC3940A502F7C
:103D14007C0679FFEFFA7B00EA75F00EA4CAA8F0DE
:103D240075F000A428F875F00EEBA428FB74852A1E
:103D3400FA74073BFB1210ACE970010E0F80CBEE56
:103D4400F97F0102195274F71218807E007F00EF88
:103D5400C3940A500DEE700AEFF912124AE9FE0FED
:103D640080EDEEF97F0102195274F012188074CBC1
:103D74001218288909900AF4E06509701D7A017BFC
:103D840000900769E0F912108EE97A027B0090072F
:103D940069E0F912108EE91212987427121874ACA3
:103DA40082AD837A0E75F006E509A42420F9121475
:103DB40048E96003023ED97C0679FF74271218741F
:103DC400AA82AB831210ACE96003023ED97C0E7D5B
:103DD4000079FF7427121874AA82AB8312104C8ADC
:103DE4000A8B0B850A0C850B0D7C1B7D0079FF74F7
:103DF4000C121874AA82AB8312104C8A0E8B0F8596
:103E04000E0A850F0B7C0C7D0079FF851982851ABB
:103E140083AA82AB8312104C8A0E8B0FAE0EAF0FA7
:103E24007427121874AC82AD837A0E75F006E50916
:103E3400A42420F9121442E9F508740C121874AC85
:103E440082AD837A1B75F006E509A42421F91214C6
:103E540042E94208740C121874AC82AD837A1B7563
:103E6400F006E509A42422F9121442E94208740C6C
:103E7400121874AC82AD837A1075F006E509A42497
:103E840023F9121442E94208740C121874AC82AD7E
:103E9400837A1075F006E509A42424F9121442E982
:103EA4004208740C121874AC82AD837A0475F0065F
:103EB400E509A42425F9121442E9420885198285EA
:103EC4001A83AC82AD837A0C74702509F9121442FA
:103ED400E942088003750800A908743512183E7F6A
:103EE4000802195274F7121880E9FE900769F0125B
:103EF40012327F0102195274F2121880890AEAFE02
:103F0400EBFFEE5400F8EF5480F9E8496035900770
:103F140069E0F91210708A0C8B0DA80CA90D8808A1
:103F24008909E8496012AA08AB0912125CE9600821
:103F3400AA08AB0912105EE9EE6400FAEF6480FB94
:103F4400023FFFEE5402602D7C007D007A007B006E
:103F540012120EE960187A017B00900769E0F912E9
:103F64001088E9EE6402FAEF6400FB023FFF7A0274
:103F74007B00023FFFEEA2E0507D90081DE0F8A315
:103F8400E0F5838882A3A3A3E0FAA3E0FB121292D4
:103F9400E9605E900783E0F8A3E0F9E849604590A2
:103FA4000783E0F8A3E0F5838882A3A3E0F8A3E005
:103FB400F9E849602F7C00790190081DE0F8A3E03E
:103FC400F5838882A3A3A3E0FAA3E0FB900783E030
:103FD400F8A3E0F5838882A3A3E0F8A3E0F583883F
:103FE4008212187E121298EE6401FAEF6400FB80CC
:103FF4000A7A017B0080047A007B007F0602195252
:1040040074F7121880EAFEEBFF7508018E828F8325
:10401400E02450601314601924E1701CEEFAEFFBE5
:104024001211F0E9F5088010EEFAEFFB121262802B
:1040340007EEFAEFFB121268A9087F010219527405
:10404400F7121880EAFEEBFF8E828F83A3A3A3A34B
:10405400E0641E701179008E828F83A3A3E0FAA31B
:10406400E0FB1211DEE97F0102195274F612188086
:10407400EAFEEBFF8E828F83A3A3A3A3E0703A8EA4
:10408400088F09850882850983A3A3A3A3A3A3A3F7
:10409400121AAA850882850983A3A3A3A3A3E0FC1B
:1040A400A3E0FD850882850983A3A3E0FAA3E0FBCE
:1040B4001211E4740212183EE97F0202195274F7D5
:1040C400121880EAFEEBFF900769E0F98E828F8375
:1040D400A3E0FAA3E0FB12082AE97F01021952C007
:1040E40082C08374FF12182812123EE9C39402405E
:1040F4000B851982851A837402F0800985198285DB
:104104001A83740AF0851982851A83AC82AD837A86
:104114000179051206B0E9740112183ED083D082E9
:1041240002013274F212188074E8121828EAFEEBC5
:10413400FF890A8C088D097C187D00790085198215
:10414400851A83AA82AB8312104C8A0C8B0DAC0C9B
:10415400AD0D851982851A83EEF0A3EFF090076BFD
:10416400E0C0E07402121874D0E0F090076CE0C074
:10417400E07403121874D0E0F0900AF3E0C0E07425
:1041840017121874D0E0F07415121874E054FEF885
:10419400A3E054FFF9900AF2E0A2E0E433FA7B00D2
:1041A400E84AF8E94BF97415121874E8F0A3E9F039
:1041B400900AF2E0A2E15004D2F08002C2F0741539
:1041C400121874E054FDFAA3E054FFFBA2F0E433A8
:1041D400F87900C333F8E933F9EA48F8EB49F9749C
:1041E40015121874E8F0A3E9F0900AF2E0A2E35083
:1041F40004D2F08002C2F07415121874E054F7FA75
:10420400A3E054FFFBA2F0E433F50C750D00740336
:10421400780C121815EA450CF8EB450DF9741512D3
:104224001874E8F0A3E9F0900AF2E0A2E45004D292
:10423400F08002C2F07415121874E054EFFAA3E08F
:1042440054FFFBA2F0E433F50C750D007404780CF4
:10425400121815EA450CF8EB450DF974151218748B
:10426400E8F0A3E9F0900AF2E0A2E55004D2F0806D
:1042740002C2F07415121874E054DFFAA3E054FF7C
:10428400FBA2F0E433F50C750D007405780C1218DC
:1042940015EA450CF8EB450DF97415121874E8F09D
:1042A400A3E9F0900AF2E0A2E25004D2F08002C244
:1042B400F07415121874E054FBFAA3E054FFFBA247
:1042C400F0E433F50C750D007402780C121815EA3D
:1042D400450CF8EB450DF97415121874E8F0A3E9D0
:1042E400F090076CE0602A750C10750D00780C12C4
:1042F4001A937C6D7D077406121874AA82AB83121C
:104304001034740212183E8A0C8B0D850C82850DB4
:104314008390077DE06012E50A600E74151218742C
:10432400E04402F0A3E04400F090077DE0600678EA
:104334000179008004780079007414121874E0483C
:10434400F090076AE06006780479008004780079C8
:10435400007414121874E048F0AC08AD0985198291
:10436400851A83AA82AB831205C6E9741812183E13
:104374007F0602195274F7121880EAFEEBFF7508E3
:104384000090077DE0600678017900800478007968
:1043940000E8420890076AE0600678047900800427
:1043A40078007900E84208A908EEFAEFFB120680CB
:1043B400E97F0102195274EE12188074E51218286C
:1043C4008A0C8B0DE9FF8C088D09742D121874E08A
:1043D400F50A74086509700A75F006EFA42422FE34
:1043E400800875F006EFA42421FE7C1B7D00790073
:1043F400851982851A83AA82AB8312104C8A108B8A
:104404001185100E85110F851982851A83AC82AD32
:10441400837A1BEEF9121448E9703C741A1218746A
:10442400E0C394074031741A121874E0C394115015
:1044340026E50AF50B780B121A977401121874AC5E
:1044440082AD83E508A2E0E433F9AA0CAB0D1205B2
:10445400D8740112183EE9741B12183E7F0A02191F
:104464005274F71218801208A2E97E00EEC3940A6F
:1044740050557C0679FFEEFA7B00EA75F00EA4CA6B
:10448400A8F075F000A428F875F00EEBA428FB74CE
:10449400852AFA74073BFB1210ACE97027EEF87911
:1044A40000E875F00EA4C8AAF075F000A42AFA7505
:1044B400F00EE9A42AF9748528FA740739FB790007
:1044C4001208A8E90E80A57F0102195274F6121889
:1044D4008074FD121828EAFEEBFF90081FE0F8A391
:1044E400E0F9E84970397508217509087808121A45
:1044F400937508027509007808121A937508F37504
:10450400098F7808121A937CFF7DFF7A017B0012D1
:1045140006F2740612183E90081FEAF0A3EBF0901E
:10452400081FE0F8A3E0F9E84970030245F1E4F557
:1045340008F5097808121A9374041218748582080D
:104544008583097808121A937404121874858208F2
:104554008583097808121A93900821121AAA7902FD
:1045640090081FE0FCA3E0FDEEFAEFFB12081874BC
:104574000812183EE9704A851982851A83E0FA7B8D
:10458400007401121874E0F87900E4C8F9EA28F517
:1045940008EB39F509E508450960267808121A93ED
:1045A40090081FE0F8A3E0F5838882A3A3A3A3E007
:1045B400FCA3E0FDEEFAEFFB1211E4740212183EC4
:1045C400E9E4F508F5097808121A93900821121AFB
:1045D400AA7CFF7DFF90081FE0FAA3E0FB1206FE11
:1045E400740412183E90081FEAF0A3EBF090081F21
:1045F400E0F8A3E0F9E849700479018002790074D5
:104604000312183E7F02021952C082C08390081D13
:10461400E0F8A3E0F9E849601790081DE0FAA3E088
:10462400FB12105EE9F890081D7400F0A37400F00A
:10463400900AF4740AF0D083D082020132C082C09E
:1046440083E9900A02F00248D074F7121880E990C6
:1046540002E1F07C197D037AFF7BFF12083090029F
:10466400E274FFF0A3F0A3E4F0A3F079051207B815
:104674009002E1E0F91206DA7A4E7B081209F87F1B
:104684000102195274F41218808A088B09EB5480C1
:1046940060309002E1E0F91210708A0A8B0BAE0AC6
:1046A400AF0BEE4F60138E828F83E064B070031201
:1046B40007D0EEFAEFFB12105EAA08E5096480FB4E
:1046C40080047A007B0002489F74F212188074FC04
:1046D400121828EAFEEBFFEE4F60387402121874C9
:1046E400EEF0A3EF124B04ECF0A3ED124B04AA82FC
:1046F400AB831206D4E9F50870737412121874129D
:1047040056B8E50A450B60658E828F8312477BEEAF
:104714004F700575080280557A067B001210CA8A0C
:104724000C8B0DA80CA90DE8497005750813803D84
:1047340088828983E4124785A3A3EEF0A3EF125B7A
:1047440051E50AF0A3E50BF09002E712480D900240
:10475400E76017E0FCA3E08003EAFCEBFD8C828DAC
:104764008312480D70F38C828D831255DDA9087471
:104774000412183E025D53A3A3A3A3E0FEA3E0FF2B
:1047840022F0A3F0888289832274F2121880890AA5
:10479400E975F017A4FEAFF09002E6E4F09002E4AD
:1047A40012480D600A1210D09002E4E4F0A3F0EE77
:1047B400FAEFFB1210CA8A088B09EA4509602FEE4A
:1047C400FCEFFD790012104C9002E4E508F0A3E53B
:1047D40009F07B0080081247F7E4F0A3F00BEBC369
:1047E400950A40F2E50A9002E6F079008002791316
:1047F400025D53EB75F017A4F8A9F09002E4E028E9
:10480400FAA3E0398A82F58322125373EA4B2274A5
:10481400F4121880750800750900740C12187412CB
:104824005B25FEE9FF800CE5082401F508E5093461
:1048340000F509C3E5089CE5099D503285080A8501
:10484400090B7403780A121815EA250AF8EB350BDC
:10485400F988828983A3A3A3A3A3A31256B8EE6500
:104864000A7003EF650B70BFE8FAE9FB80047A0075
:104874007B00802774F41218807900EAA2E0501BB0
:1048840075084075098F7808121A937C047D007AA4
:10489400047B0A1207B2740212183E7F04021952F2
:1048A400C082C0839002E71248D7601C8882898343
:1048B400A3A3E06A7003A3E06B8882898370E8A3F2
:1048C400A3A3A312536F80047A007B00D083D08209
:1048D400020132125E26E8492274EE12188074FC3A
:1048E400121828EAFEEBFF851982851A83E4F0A3E7
:1048F400F0EE24021255C1EE2405124AF2EE24040D
:10490400F50EEF124ED7E024FE603924FC604624F5
:10491400FE605224FE605E24FE70030249F724FE0A
:104924007003024A6F24FE7003024A7E24FE700361
:10493400024A8D24FC7003024A9C24FE7003024A3E
:10494400AB024AE89003007417F0A3E4124B0C1274
:104954000452024AE8851982851A83AC82AD831217
:1049640007D6024AB8851982851A83AC82AD8312B0
:1049740007DC024AB8850C08850D09740212187404
:10498400AC82AD8385088285098312536F1206F8C1
:104994008A0C8B0DAC0CAD0DEC4D6042E4F50CF5BE
:1049A4000D780C121A93750C00750D03780C121AFD
:1049B40093750C01750D03780C121A937408121870
:1049C40074121AAA79161253691208187408121864
:1049D4003EE9F50C700B12536512046A800F750CD6
:1049E40001850882850983124AFA1255DD850C086F
:1049F400024ABB7402121874AC82AD83850C8285A2
:104A04000D8312536F1206F88A108B11AC10AD117E
:104A1400EC4D6043850C82850D83A3A3121AAA75FD
:104A240010007511037810121A9375100175110393
:104A34007810121A937408121874121AAA7916129A
:104A44005369120818740812183EE9F509700B121C
:104A54005365120470800F750901850C82850D83DE
:104A6400124AFA1255DD850908804C851982851A87
:104A740083AC82AD831207E2803A851982851A835A
:104A8400AC82AD831207E8802B851982851A83AC2A
:104A940082AD831207EE801C851982851A83AC824D
:104AA400AD831207F4800D851982851A83AC82AD1B
:104AB400831207FAE9F508E50860298E828F83A33B
:104AC400E06414601F850E82850F83E0900300125A
:104AD4004B04125E229003011255DDE508A3124B2C
:104AE4000C12044CEEFAEFFB1207760254C9F50CD3
:104AF400EF3400F50D22125E26851982851A832271
:104B0400F0851982851A8322F07C007D03850A8250
:104B1400850B831253732274EE12188074FC1218DE
:104B2400288A0A8B0B8C0E8D0FEA2405F508EB34CA
:104B340000F5097C157D0079007A007B0312104C86
:104B4400E5082402F50CE509124AF5851982851A4F
:104B5400838582108583117810121A9385088285C3
:104B64000983A3A3A3A312501F121A93E5082405D3
:104B7400F510E5093400F5117810121A93850C82AA
:104B8400850D831253791206F2740612183E8A10A8
:104B94008B11AE10AF11E50A2402F50AE50B12558C
:104BA400C4EE4F7003024CE18017740212187412A1
:104BB400536F88828983EAF0A3EBF0900300E0044A
:104BC400F0900300E0C394054003024CE1E4F510C7
:104BD400F5117810121A937510E9751102781012F4
:104BE4001A937510EA7511027810121A937406124A
:104BF4001874121AAA7910EEFCEFFD125369120808
:104C040018740812183EE9705E850882850983A32A
:104C1400A3A3A3A3A3A3E0F89002E9E06870481259
:104C2400501F121A937CEA7D02E5082408FAE5096C
:104C34003400FB121046740212183EE960298E8279
:104C44008F83A3A3A3A312536F900300E0F5107402
:104C540002781012181574012510F58274033511A9
:104C6400F583EAF0A3EBF0740212187485821085C0
:104C740083117810121A937402121874121AAA85E6
:104C84000C82850D83125E371206FE740412183EE0
:104C94008A108B11AE10AF11900300E0F51075115E
:104CA400007402781012181574002510F874033576
:104CB40011F988828983A312480D7003024BA5E879
:104CC4002403F8E93400F9EE4F6003024BAE888206
:104CD400898374FFF0A3F0900300E004F0900300D4
:104CE400E0600A12536512045E7900800B85088225
:104CF4008509831255D4790A0254C974EA121880BA
:104D040074FE1218288C128D13EA2405F50CEB128C
:104D14005FA112477F750800750900EA2402F510A7
:104D2400EB3400F511851982851A8385820A8583FF
:104D34000B780A121A93850C82850D83A3A3A3A36F
:104D4400124EE1121A93E50C2405F50AE50D1255ED
:104D5400C4780A121A93850C82850D83125E35126B
:104D640006F2740612183E8A0A8B0BEA450B70038E
:104D7400024E92EA2404F50EEB124ED712477F8AB4
:104D8400828B83A3A3A3E0F9851082851183125338
:104D94006F1206E0E9F5096003024E92E4F514F59A
:104DA400157814121A937514E97515027814121AE9
:104DB400937514EA7515027814121A93740612186E
:104DC40074121AAA7913AC0AAD0B8510828511836B
:104DD40012536F120818740812183EE9F50960039B
:104DE400024E929002E9E0F8E5087009E02402908E
:104DF4000301F08017900301E0FCE82402FAE43494
:104E040000FBEA6C7001EB6003024E96850882AAEF
:104E140082125016941412500E5073850E82850F10
:104E240083E0C0E074022A124ECED0E0F00508857B
:104E34000E82850F83A3E0C0E085080A7402250A68
:104E4400124ECED0E0F005089002E9124EE1121A9B
:104E5400937CEA7D0285080A7402250AFA740334F5
:104E640000FB121034740212183E9002E9E0250887
:104E7400F50874FF6E700374FF6F6012EE24010E68
:104E8400EF3400FFE508C394145003024D29E508EC
:104E9400601312525A85108285118312536F1204C3
:104EA4006479008014E509700375090A8512828506
:104EB4001383EEF0A3EFF0A909740212183E7F0EDB
:104EC40002195285080C7402250CF582740334000F
:104ED400F583223400F50F850E82F58322125B647C
:104EE4002274EE12188074FE1218288C0E8D0FEAAC
:104EF4002405F50CEB124AF5750B00900300E4F061
:104F0400F50AEA2402F508EB3400F5098049900318
:104F140000E0FA9002E9E0F8125016941712500ECD
:104F2400400D900300E0F87416C3989002E9F01263
:104F3400501F121A937CEA7D0274012AFA74033416
:104F440000FB121034740212183E9002E9E0F8904B
:104F54000300E028F0050AE50C2416F582E50D129D
:104F64004ED2E0F8E50AC3984003024FF7900300DD
:104F7400E0C39416507DE50AC333F8E433F9E50C35
:104F840028FEE50D39FF851982851A83AC82AD832D
:104F94008E828F8312536F1206F88A108B11AC1015
:104FA400AD11EC4D7005750B018043E4F510F5115E
:104FB4007810121A937510E97511027810121A9369
:104FC4007510EA7511027810121A93740612187487
:104FD400121AAA791685088285098312536F12085A
:104FE40018740812183EE9F50B7003024F1212559B
:104FF400D080107C007D0385088285098312536F5D
:10500400120476A90B74020254CBE99400C365D050
:105014003322EA28F8E43400F9E822E0F5107511A7
:105024000078102274EA12188074FC1218288A0C72
:105034008B0D8C128D13EA2405F50AEB1255C475F9
:105044000800750900E50A2402F510E50B3400F5A3
:1050540011740212187485820E85830F780E121A49
:1050640093850A82850B83A3A3A3A3125B10121A50
:1050740093E50A2405F50EE50B3400F50F780E12BE
:105084001A938510828511831255CA125369120628
:10509400F2740612183E8A0E8B0FAE0EAF0FE50C9B
:1050A4002402F50EE50D3400F50F804088828983D3
:1050B40074FFF00508124EC774FFF005089002E96A
:1050C400E0F50C750D00780C121A937CEA7D0285CC
:1050D400080C7402250CFA74033400FB12103474A7
:1050E4000212183E9002E9E02508F508EE4F6071BF
:1050F4008E828F83A3A3A3E0F9850E82850F83128A
:10510400536F1206E0E9F509EE2404124AF2E9703D
:1051140044E4F514F5157814121A937514E9751509
:10512400027814121A937514EA7515027814121A77
:10513400937408121874121AAA7911EEFCEFFD8503
:105144000E82850F8312536F120818740812183ECA
:10515400E9F5096027850C82850D8312525012559A
:10516400DDE508700302523612525A850E82850F0D
:105174008312536F12047C790002524B850882AA71
:1051840082EA9002E97009E02404900301F080228D
:10519400E0F8900301E0F514E82404FCE43400FD95
:1051A400EC65147001ED70C0125016941212500E7A
:1051B40050B6850C82850D83E0C0E074022A124E3D
:1051C400CED0E0F00508850C82850D83A3E0C0E015
:1051D400124EC7D0E012526C85820C85830D780C78
:1051E400121A937404121874121AAA851082851163
:1051F40083125E371206FE740412183E8A0C8B0D5D
:10520400AE0CAF0D85080C7402250CF87403340041
:10521400F9EE4F70030250B0851982851A83E08835
:1052240082898312526CA3E0C0E0124EC7D0E00220
:1052340050BEE509700375090A850A82850B83123D
:1052440052501255DDA9097404024EBF125E268520
:10525400128285138322900301E0F5F0E50884901F
:105264000300F07C007D0322F00508851982851A6D
:10527400832274EC12188074FE1218288A088B0991
:105284008C0E8D0FEA2405FEEB3400FF8519828510
:105294001A83AC82AD838E828F8312536F1206F809
:1052A4008A0A8B0BEE2418124AF2EA450B700302A9
:1052B40053401254B25032851982851A8312536FA7
:1052C40012080C8A108B11EA4511606B7912AC0A32
:1052D400AD0B85088285098312536F851082851171
:1052E4008312187EE9F50A7058E4F50AF50B780A7A
:1052F400121A938E828F83A3A3E0F50A780A121AF6
:1053040093EE24031255C1780A121A938E828F8366
:1053140012537912081E740612183EE9F50A702118
:10532400850C82850D83E0701F85088285098312B0
:10533400536F1204828011750A0E8009750A018068
:1053440004E50A60031255D0850C82850D83E06064
:105354000479008002A90A740212183E7F0C021913
:10536400527C007D03850A82850B8312537322E0ED
:10537400FAA3E0FB22E0FCA3E0FD85088285098313
:105384001253732274EE12188074FE1218288A08BD
:105394008B098C0C8D0DEA2405FEEB3400FF750E91
:1053A40000851982851A83AC82AD838E828F831225
:1053B400536F1206F88A0A8B0BEA450B70030254EA
:1053C4009E1254B25035851982851A8312536F1276
:1053D400080C8A0E8B0FEA450F605E7912AC0AAD99
:1053E4000B85088285098312536F850E82850F838E
:1053F40012187EE9F50E60030254A185088285091E
:10540400831256B8AA0AFB1208008A108B11A8103E
:10541400A911E849701E7AFF7BFF1208008A108BDD
:1054240011A810A911E849606C88828983E50AF003
:10543400A3E50BF0750A008007750E0E805F050A60
:105444009002E6E0FAE50AC39A504AE50A75F017B5
:10545400A4FAABF088828983A3A3E02AFAA3E03BF1
:10546400FB8A828B831255CAEC4D70D2750A17756C
:105474000B00780A121A93EEFCEFFD12103474023A
:1054840012183EEEFCEFFD85088285098312536FE6
:105494001204888014750E098003750E01125E1EB5
:1054A400850C82850D831255DDA90E025009E5088D
:1054B4002402F508E5093400F5098A828B83A3A345
:1054C400A3E0A2E522740412183E7F0A0219527462
:1054D400EC1218808C108D11EA2405F50CEB124A9D
:1054E400F5750F00EA2402F50AEB1255C4850A8209
:1054F400F58312536F1208008A088B09EA45097074
:10550400030255B6750E008071850C82850D83E00B
:105514006401704F8E828F83A3A3121AAA8E828F86
:1055240083A3A3A3A3E0F5127513007812121A93B0
:10553400EE2405F512EF3400F5137812121A9312C3
:10554400536912081E740612183EE9F50F6014859B
:105554000C82850D83E4F0125E1E85108285118312
:105564001255DD7C177D007900EEFAEFFB12104C2A
:105574008E828F83E4F0A3F0050E9002E6E0F8E556
:105584000EC398501EE50E75F017A4F8A9F085080F
:1055940082850983A3A3125FAB1255CAEC4D600345
:1055A40002550D85088285098374FFF0A3F0E50F89
:1055B400700612536912048EA90F025360F50AEFA4
:1055C4003400F50B22A3E0FCA3E0FD228E828F833E
:1055D400125E26850E82850F83E8F0A3E9F022C0CF
:1055E40082C0839002E2E06A7003A3E06B70067AE3
:1055F400E27B0280047A007B000248D0C082C08330
:1056040078008C828D83E06A7003A3E06B7010E8ED
:1056140075F003A4F8A9F0EC28FAED39FB8015081D
:105624008C828D83A3A3A3E06A7003A3E06B60DF85
:105634007A007B000248D074F61218801207CA8AD6
:10564400828B83E582458370067A007B008007A302
:10565400A3A3A312536F025CCF74F2121880E9FE65
:10566400740E1218741256B87410121874125B3037
:105674008C828D83E064027036A3125E2CF50CA339
:10568400E0F9A80C74026870037429697021750C20
:1056940002750D00780C121A937808121A93780A7E
:1056A400121A93EEF9120842740612183E80027917
:1056B40001025D53E0F50AA3E0F50B2274E8121829
:1056C4008074FB121828E9851982851A83F08A16DA
:1056D4008B17ECFEEDFF751000741D121874125E2A
:1056E40022741D1218741255DD8E828F83A3A3A316
:1056F400E0A2E4502D741D12187412536F12080C9A
:105704008A828B83E58245837003025B01790AEE0A
:10571400FCEFFDAA16AB1712187EE9F51060030220
:105724005B04741F121874125B3074211218741203
:1057340056B87423121874E0F50EA3E0F50F8E82A8
:105744008F83E064026003025AAFA3125E228508CD
:1057540082850983A3858212858313EE2406124A67
:10576400F288828983E0FAA3E0F9EA2400F514E4DC
:1057740039F5157814121B1D010000280128A457BF
:105784000700022869580328D6570029A05901297F
:10579400CB5902296C590329A05904294A5AAF5AF2
:1057A400E50E450F6003025AAA850C82850D83120B
:1057B4005B25FAE9FB8A828B83E0850A82850B8369
:1057C400125B5B121A938A828B83A3E0FCA3E00230
:1057D4005A34E50E450F6003025AAA850A82850BE6
:1057E400837401F0125B38850882850983F07C009C
:1057F4007D008E828F83A3A3A3A3E02401FAA3E0F8
:105804003400FB1206F8EA4B60418A828B83E02461
:1058140002F8850A82850B83E028F0EA2404F8EB79
:105824003400F988828983E0851282851383125BB0
:105834006D125B5B121A938A828B831255C9E50839
:105844002403FAE5093400FB025A39850A82850BE0
:1058540083E02404F07C047D007900AA12AB1312C7
:10586400104C025B04E50E450F6003025AAA125B5A
:1058740038FEA3E0FF850A82850B837404F0EE856D
:105884000882850983F0EF851282851383F07403FF
:10589400121874AC82AD83EEFAEFFB1206F88A0C90
:1058A4008B0DEA450D700302594D8A828B83A3A3A5
:1058B40012477B740112187485820E85830F780E4B
:1058C400121A937405121874121AAA7CFF7DFF121F
:1058D40006FE740412183E8B0FEA450F7033850CD4
:1058E40082850D83125B10121A93850C82850D83B9
:1058F400A3121AAA7C027D007A057B9012052A74F1
:105904000412183EE9700A740112187474FFF0A3AB
:10591400F08E828F83E064027039750C02750D007D
:10592400780C121A938E828F831255C9E5082404C9
:10593400FAE5093400FB121034740212183E850A89
:1059440082850B83E0240280097401121874EEF03E
:10595400A3EFF07401121874125B21F07401121891
:1059640074A3125B19025AA4E50E450F6003025A90
:10597400AA850C82850D831255CAAA16AB17120884
:1059840036850A82850B837402F0EA8508828509CC
:1059940083F0851282851383EB025AA7E50E450F27
:1059A4006003025AAA125B38F8A3E0F9850A8285DB
:1059B4000B837402F0E8850882850983F0E9851277
:1059C40082851383025AA7850C82850D8312536F37
:1059D40012102EEAFC8C82A882C3950EE4950F4027
:1059E4005FE8650E7002E50F70047C008022851963
:1059F40082851A83E0FAE50E2AFAE50F3400FBC328
:105A0400EA98EB94005003E08005E50ECCC39CFCBF
:105A1400EC850A82850B83F08C0A750B00780A12D8
:105A24001A93850C82850D83E0250EFCA3E0350FC7
:105A3400FDAA08AB09121034740212183E025B046A
:105A4400751007025B04E50E450F705A850C8285BC
:105A54000D83125E22850A82850B837407124787A1
:105A6400125B19124787A3E0851282851383F0E83D
:105A74002402FAE93400FB8A828B83125B19125BDD
:105A840048125B21A3125B51125B2AF0E82405F84B
:105A9400E93400F988828983125B2AA3125B6DA31F
:105AA400A3A3A3F0805A75100B8055741D121874AB
:105AB40012536F1207CA8A828B83E5824583603D45
:105AC400125E22880C890DE8450D6031780E121A99
:105AD40093780A121A937808121A93740612187497
:105AE400E0F9EEFCEFFDAA16AB17850C82850D8359
:105AF40012187E740612183EE9F510800375100E14
:105B0400A910740512183E7F10021952E0F50E75A3
:105B14000F00780E22E085088285098322125B77C4
:105B240022125E26E822125B77A3A322E0F508A3E3
:105B3400E0F50922850C82850D83E0F8A3E0F58366
