:020000040000FA
:0600000002011A0220209B
:03002B000226E0CA
:030033000226C2E0
:03005300022096F2
:03006B00022699D1
:10008300021ECFE5C754F84401F5C77901220000E9
:100093000080FB120086B90003020104E479217891
:1000A30008B800028004F709D8FCE479297802B87B
:1000B30000028004F709D8FCE490028178BE790736
:1000C3008002F0A3D8FCD9FA781B90014A7A01BACE
:1000D30000028007E493A3F608DAF97A3E7B0990DD
:1000E300014B780279048015E493A3AD82AE838A31
:1000F300828B83F0A3AA82AB838D828E83D8E9D9C6
:10010300E775829B75839C740312012C758291752C
:100113008300740012012C75D00075813F7519811D
:10012300751A02759F00020096C09FF59FE473D075
:100133009F22D083D082C09FE493C0E0740193C018
:10014300E0740293F59F2201FF0000B40000280031
:100153002800283075A000A000A000A0000008001F
:1001630008E001F000100010001000100010001053
:100173000050005000500010001000D00700000095
:100183000000000F0001000500307507001000019A
:100193000081FF00000000FF4A0668065006FF02C8
:1001A300020208025000A0000000E80302FB8F01D6
:1001B3000000DD8F02EB8F010000950902F18F0132
:1001C3000000B30202EB8F010000960902F38F01D6
:1001D3000000C90202EB8F010000970902F58F01AD
:1001E3000000CB0202EB8F010000980902F78F0891
:1001F3000000CC0202EB8F010000990902F98F0184
:1002030000009A09FF0100FF2002FB8F010000E3B9
:100213008F02EB8F010000FE090213900000000023
:100223000002EF8F03000019037A0C7A0C7A0C7A20
:100233000C7A0C7A0C7A0C7A0C7A0C7A0C7A0C7A8B
:100243000C7A0C560F6E0F500FFFFF0202020202D0
:1002530002020202010D000000100102FB8F0100E7
:1002630000E08F02EB8F010000410A020F900100B2
:10027300005D0702EB8F010000420A020D900100AE
:1002830000138F02EB8F010000430A020B90010061
:1002930000058F02EB8F010000440A020990010060
:1002A300007F8E02EB8F010000450A0207900100D8
:1002B30000B58E02EB8F010000460A020590010093
:1002C30000A38E02EB8F010000470A020390010096
:1002D30000918E02EB8F010000480A022190010079
:1002E30000F78E02EB8F010000490A020190010022
:1002F300004A0A01E803053F100AFF0001307503B5
:1003030002010600000000000000000000000000E1
:10031300000000000000000000000000000000FFDB
:10032300FF0600800CE803140953696D706C654285
:100333004C455065726970686572616C05125000B6
:100343002003020A000201060302F0FF53696D70E5
:100353006C6520424C452050657269706865726116
:100363006C9A130000A0130A436861726163746599
:100373007269737469632031000243686172616357
:10038300746572697374696320320008436861722B
:100393006163746572697374696320330010436821
:1003A30061726163746572697374696320340002F6
:1003B300436861726163746572697374696320353C
:1003C3000002FB8F010000E68F02EB8F0100005D4E
:1003D3000B0217900300002F0902ED8F0100005E4E
:1003E3000B02EB8F0100006F0B021990010000302C
:1003F3000902ED8F010000700B02EB8F01000081F9
:100403000B021B90020000310902ED8F01000082F4
:100413000B02EB8F010000930B021D9000000032D2
:100423000902EF8F030000330902ED8F01000094EE
:100433000B02EB8F010000A50B021F900400003993
:100443000902ED8F010000A60B120135CE8C0312B9
:100453000135E58C03120135168D03120135518DDB
:10046300031201357B8D03120135A58D031201356E
:10047300BC8D03120135D38D03120135EA8D0312AE
:100483000135138E03120135268E031201353C8E7E
:10049300031201354F8E03120135768E0312013597
:1004A3000198021201350599021201353D99021294
:1004B30001356099021201356B99021201358E994B
:1004C300021201359D9A02120135729B0212013507
:1004D300ED9B02120135759C02120135B09C02128C
:1004E3000135E79C02120135759D021201354E9EBE
:1004F30002120135AE9E02120135B99E0212013578
:10050300389F021201353B9F021201353E9F0212B2
:100513000135CD9F02120135D09F0212013500A093
:10052300021201352AA00212013518A10212013567
:10053300CAA102120135CDDB02120135F5DB02122D
:10054300013523DC021201355ADC02120135B8DC15
:100553000212013503DD021201354EDD02120135AF
:100563008EDD02120135D4DD0212013502DE0212E4
:100573000135BFDE02120135C9DE02120135D6DEB6
:100583000212013509DF02120135D5DF02120135EE
:10059300E1DF02120135F9DF0212013503E0021235
:1005A30001359E9903120135AC9903120135C499A3
:1005B30003120135DC99031201351AB0011201351A
:1005C300C6B00112013541B10112013562B2011207
:1005D30001359EB20112013547B3011201352EB424
:1005E3000112013592B501120135E9B50112013548
:1005F3006AB6011201355AB701120135A7B70112C4
:1006030001352DB8011201355FB80112013573BAF6
:1006130001120135B5BA01120135D3BA0112013500
:1006230056BB011201352ABC01120135F2BC01127D
:1006330001353AC5021201350DC602120135B6C69F
:100643000212013509C702120135B9C70212013579
:1006530045C80212013531C90212013560C90212BF
:10066300013573CA02120135BBCA0212013590CBA0
:1006730002120135CCCB02120135E8CB021201354F
:10068300B89B0312013557F6021201356DF60212BB
:10069300013593F602120135AFF702120135B9F7AE
:1006A30002120135EEF802120135E6F902120135A4
:1006B300E3D10212013513D30212013546D30212DC
:1006C300013590D30212013557D5021201352BA003
:1006D3000112013595A001120135F4A10112013572
:1006E30004A20112013531A20112013588A20112BF
:1006F300013531A30112013538A40112013502A5D8
:100703000112013562A601120135A5A601120135B8
:100713004AA70112013597A701120135BDA701129E
:100723000135CBA901120135D0A901120135D5AB91
:100733000112013522AC0112013595AC01120135CC
:10074300C8AC011201356AAD0112013513AE0112B5
:1007530001354BAE011201354EAE0112013596AE95
:1007630001120135D6AE011201352DAF011201354B
:10077300F9820312013511830312013559830312E0
:1007830001356F8303120135B68303120135CA8421
:1007930003120135578503120135A2850312013572
:1007A3000C270012013518270012013553270012B8
:1007B3000135982700120135582800120135DE282B
:1007C300001201354329001201356F29001201354A
:1007D300A82900120135E62B00120135CA2D00129B
:1007E3000135B02F00120135F330001201354133CA
:1007F300001201355334001201359E3500120135C4
:10080300AE3600120135CB36001201350637001221
:1008130001352837001201358B37001201354C3C66
:1008230000120135E13C00120135323D0012013561
:10083300593D00120135AB3D00120135C93D00128F
:100843000135233E001201350C3F00120135824071
:10085300001201350641001201358AE0021201350A
:1008630094E002120135D7E002120135F2E00212E0
:10087300013582E102120135AAE102120135E7E1F5
:10088300021201351EE20212013547E2021201355E
:10089300BCE202120135D1E202120135E6E2021294
:1008A300013517E3021201352BE30212013550E340
:1008B300021201358AE302120135B6E30212013551
:1008C300EEE3021201356DE402120135B6E40212C1
:1008D3000135E0E4021201350BE502120135CC9437
:1008E300031201350080021201352E8002120135F8
:1008F3007C81021201355C82021201357B82021275
:100903000135F882021201353B83021201359184CD
:1009130002120135528502120135D98702120135BF
:100923007A88021201357089021201356D8A02122A
:100933000135C78B02120135528C021201357193B6
:1009430003120135DA93031201352E940312013594
:10095300559403120135869403120135CDE9021231
:1009630001353AEA0212013581EA0212013599EBA7
:100973000212013595EC0212013578ED02120135B0
:10098300DCF6011201351EF701120135F0F70112F1
:100993000135C9F801120135C3F901120135A5FA70
:1009A300011201350EFB01120135C4FB01120135A1
:1009B30038FC01120135A4FC01120135CDFC0112F2
:1009C300013547FD01120135E0FD0112013545FEF8
:1009D300011201355AFE01120135A0FE0112013543
:1009E300B9FE011201351EFF0112013521FF01126B
:1009F300013500800312013528800312013566801A
:100A0300031201352481031201358B810312013551
:100A1300A78103120135CF8103120135FF81031230
:100A230001350E82031201358B8203120135B18227
:100A330003120135249001120135C29101120135CF
:100A4300DD93011201351994011201354694011207
:100A530001352B9501120135729501120135B695B9
:100A630001120135C89501120135089601120135AD
:100A7300359601120135809601120135C096011297
:100A83000135EE9601120135409701120135D097D9
:100A9300011201356E9A01120135849C0112013550
:100AA300C29C01120135539E01120135989E011219
:100AB30001350F9F01120135599F01120135849FA2
:100AC3000112013505AC0212013584AC0212013565
:100AD30046B20212013555B302120135BDB40212FA
:100AE300013554B5021201350357001201354C5735
:100AF30000120135795700120135AC570012013548
:100B0300B95700120135C55700120135D7570012E6
:100B13000135BE58001201351C59001201355159D7
:100B230000120135945A00120135E15A00120135C1
:100B3300055B00120135725B00120135305C001257
:100B43000135E95C00120135565D00120135085E7E
:100B530000120135185E001201359F5E0012013547
:100B63005E5F001201358B5F0012013504600012D5
:100B73000135616000120135AB600012013541613E
:100B8300001201350C6200120135C16200120135F9
:100B930036630012013597630012013501640012B8
:100BA30001353A6400120135DC6400120135EC654D
:100BB300001201352C660012013549660012013519
:100BC300686600120135AF6600120135D466001263
:100BD30001350167001201357B6700120135BC67DF
:100BE30000120135E06800120135906900120135E9
:100BF300E76900120135516A001201356A6A001271
:100C030001353BA2021201358EA2021201359AA2CE
:100C1300021201356FA30212013596A302120135A8
:100C2300D1A3021201353DA40212013579A40212A7
:100C33000135B2A402120135CAA4021201351FA55F
:100C43000212013538A50212013581A502120135C0
:100C530094A502120135AEA502120135C4A50212F4
:100C63000135F7A6021201353EA80212013540A94B
:100C7300021201353AAA02120135EF7F0012013543
:100C8300A5E901120135D5E9011201359DED0112E6
:100C93000135F4EE01120135BDEF011201353DF1CD
:100CA300011201350EF2011201354BF20112013529
:100CB3006EF201120135ACF201120135B5F20112E7
:100CC3000135FFF20112013509F301120135B3F3C6
:100CD300011201358CF401120135E0F401120135E2
:100CE30042F50112013595F501120135C4F50112E2
:100CF300013501F6011201359C6A00120135036EBC
:100D030000120135096E001201358B730012013593
:100D1300047800120135DA7B00120135297C0012B8
:100D230001359F7C00120135B57C00120135F67C3C
:100D330000120135307D00120135A97D0012013505
:100D4300E47D00120135577E00120135957E0012B5
:100D530001359E7E00120135AA7E00120135C67E42
:100D630000120135F17E00120135077F00120135B3
:100D7300307F00120135937F001201350AD702122A
:100D830001351DD70212013537D70212013560D75D
:100D930002120135A3D702120135E2D7021201353F
:100DA30020D80212013585D8021201359AD80212D1
:100DB3000135A5D802120135B2D802120135C9D8BE
:100DC30002120135D7D802120135E2D802120135D9
:100DD300EED80212013501D9021201350CD90212E3
:100DE30001352FD902120135D6D902120135E6D9C0
:100DF3000212013500DA021201351DDA0212013541
:100E030039DA021201355EDA0212013569DA0212A9
:100E130001357EDA0212013592DA02120135F3DA74
:100E230002120135F9DA02120135FFDA0212013535
:100E330005DB021201351DDB0212013550DB021204
:100E430001357CCD0112013500CE01120135AFCE43
:100E5300011201350ED0011201352FD201120135D5
:100E63001BD30112013550D30112013572D3011284
:100E7300013521D40112013519D60112013542D6AB
:100E830001120135D4D60112013506D701120135FD
:100E930013D7011201356AD70112013590D7011218
:100EA3000135FDD90112013500DB0112013558DB93
:100EB300011201350BBF0112013515C001120135B5
:100EC300FCC00112013506C10112013528C101120E
:100ED300013534C101120135CDC201120135FCC205
:100EE3000112013518C40112013571C40112013513
:100EF300D7C501120135B6C60112013512C7011259
:100F030001357FC701120135BAC701120135F9C78F
:100F130001120135B2CA01120135CCCA01120135E1
:100F230058CB0112013566CB01120135BFCB01123B
:100F33000135CDCB0112013540CC01120135A4CCD2
:100F430001120135EECC01120135D38C02120135A9
:100F5300F58C021201351B8F0212013530920212F9
:100F63000135489302120135FB9302120135DD94DA
:100F730002120135888E03120135AD8E031201353D
:100F83001F8F03120135C0BD02120135C9BD021204
:100F93000135D2BD02120135A9BE021201355AC074
:100FA3000212013590C002120135CAC00212013586
:100FB30000C1021201353AC1021201356EC102129B
:100FC30001359AC102120135E3C1021201351DC276
:100FD3000212013566C202120135BEC20212013588
:100FE300F3C2021201354EC30212013588C3021245
:100FF3000135D9C3021201350FC40212013549C4A8
:101003000212013577C4021201359AC40212013566
:10101300759A03120135A19A03120135FC9A031242
:101023000135069B03120135169B031201355DCC76
:101033000212013567CC02120135A5CC021201352B
:10104300EECC0212013528CD0212013582CD0212F7
:101053000135A3CD02120135ACCD02120135F9CD14
:101063000212013522CE021201352CCE02120135B5
:1010730098CE021201352ACF0212013574CF021223
:101083000135AACF0212013536D00212013577D0CD
:1010930002120135AED002120135C0D00212013561
:1010A300DFD002120135E8D002120135B5D10212A8
:1010B3000135E99603120135DD8A03120135138BDD
:1010C30003120135498B03120135948C0312013548
:1010D300209B03120135369B03120135409B0312FB
:1010E30001358A9B031201353C9C0312013533E51C
:1010F3000212013548E502120135F8E50212013505
:1011030038E60212013551E6021201358CE602126D
:101113000135D9E6021201350BE7021201354DE71D
:10112300021201354EE902120135C0E902120135FE
:10113300BF9803120135E89803120135179903127A
:101143000135599903120135CC8503120135F18517
:10115300031201351B8603120135F39C031201357B
:101163006D4100120135D24300120135734500125F
:101173000135274600120135BA46001201353F47B3
:1011830000120135644700120135BA4A00120135D5
:10119300404B00120135734C00120135AD4C001267
:1011A3000135E24C00120135A24E00120135FF4E0B
:1011B30000120135484F00120135B34F00120135BB
:1011C3002450001201355650001201356E500012A2
:1011D3000135B75100120135C75100120135E252F2
:1011E300001201350453001201353A530012013540
:1011F300EE54001201357B5500120135BA55001229
:101203000135DE560012013545FF0112013556FF47
:1012130001120135499D03120135889D03120135E1
:10122300E7FF02120135E09703120135F09703122D
:101233000135059803120135B99803120135E59577
:10124300031201356A9603120135D0960312013554
:101253002D9003120135569003120135BC900312F1
:101263000135DC90031201352D910312013588916C
:1012730003120135C29103120135C59103120135E1
:101283003AEE0212013551EE02120135CBEE021293
:101293000135AFEF0212013586F102120135EBF190
:1012A3000212013542F202120135F87F00120135B4
:1012B300988803120135338A03120135948A031285
:1012C3000135DA8A03120135CF91031201352192D8
:1012D30003120135AB920312013512930312013548
:1012E30084FD02120135AEFD021201357CFE0212AD
:1012F300013557FF021201357EB50212013545B69D
:10130300021201357CB602120135A6B6021201356E
:1013130006B7021201355CB702120135C1B70212DA
:10132300013559B80212013568B902120135FFBA05
:10133300021201358CBB02120135F3BB02120135D7
:101343000ABC0212013524BD0212013562BD02122C
:101353000135A6DB0112013527DF01120135AFE0AC
:101363000112013506E10112013525E101120135B2
:10137300A3E10112013539E3011201351EE4011223
:1013830001352CE80112013502E90112013556F24B
:1013930002120135CDF40212013578F5021201353E
:1013A30022F602120135F0F90212013535FA021262
:1013B300013552FA0212013508FB021201355BFBBB
:1013C3000212013531FC021201354BFD02120135C7
:1013D300C37F00120135C9FF02E066701008A3E065
:1013E30066700A08A3E066700408A3E06622C3E7F8
:1013F300960809E7960809E7960809E79622C3E0E5
:101403009608A3E09608A3E09608A3E09622C008F6
:10141300C3E096F50808A3E096420808A3E09642C5
:101423000808A3E09645087001D3D00822080808ED
:10143300EAC0E0EBC0E086F0E7A4FA180986F0E71B
:10144300A42AFA180986F0E7A42AFA180986F0E70D
:10145300A42AFA1986F0E7A4FBE5F02AFA1908860C
:10146300F0E7A42BFBE5F03AFA190886F0E7A42B82
:10147300FBE5F03AFA18180986F0E7A4C5F02BFB50
:10148300E43AFA1908E7C5F0C6A426F6E5F03BFBF3
:10149300E43AFA1886F0E7A4F6E5F00826F6E43B0A
:1014A30008F6E43A08F6D0E0FBD0E0FA22E4CFC035
:1014B300E0E4CEC0E0E4CDC0E0E4CCC0E075F020D1
:1014C300E626F608E633F608E633F608E633F618BA
:1014D3001818EC33FCED33FDEE33FEEF33FFC3ECB2
:1014E3009709ED9709EE9709EF97191919400FFF1F
:1014F300EC97FC09ED97FD09EE97FE191906D5F057
:10150300BFECF709EDF709EEF709EFF7191919D051
:10151300E0FCD0E0FDD0E0FED0E0FF22601608083A
:1015230008C6C313C618C613C618C613C618C613EF
:10153300C6D5E0EA227009080808226016181818B0
:10154300C6C333C608C633C608C633C608C633C6C1
:10155300D5E0EA22E627F60809E637F60809E63772
:10156300F60809E637F622E026F608A3E036F60881
:10157300A3E036F608A3E036F622E026F008A3E05F
:1015830036F008A3E036F008A3E036F022C3E6976E
:10159300F60809E697F60809E697F60809E697F6C6
:1015A30022C3E096F008A3E096F008A3E096F008C3
:1015B300A3E096F022E056F608A3E056F608A3E06F
:1015C30056F608A3E056F622E056F008A3E056F0DC
:1015D30008A3E056F008A3E056F022E0F608A3E0E3
:1015E300F608A3E0F608A3E0F622E6F008A3E6F087
:1015F30008A3E6F008A3E6F022E0FAA3E0FBA3E0E9
:10160300FCA3E0FD22EAF0A3EBF0A3ECF0A3EDF0E2
:1016130022CAC0E0E6F0A308DAFAD0E0FA22CAC090
:10162300E0E0A3C582CCC582C583CDC583F0A3C545
:1016330082CCC582C583CDC583DAE6D0E0CA22C396
:10164300E498F8E499F91216838026C3E49AFAE43D
:101653009BFBE920E7E9121683E498F8E499F92261
:10166300C3E498F8E499F9121683E498F8E499F935
:10167300C3E49AFAE49BFB22EB20E7CFE920E7E0FF
:10168300B90010BB0008E88AF084F8AAF022E4FB52
:10169300C8FA22EB70227B10C833C8C933C9335050
:1016A30007C39AC3DBF280069A50012ADBEAC833E8
:1016B300F4C8C933F4C9FA2275F008E4C833C8C9B9
:1016C30033C933C99AC99B5004C92AC93BD5F0EC25
:1016D300FBC833F4C8E4C9FA22600D08C6A2E713B5
:1016E300C618C613C6D5E0F322600C08C6C313C6DA
:1016F30018C613C6D5E0F422700422600D18C6C3C1
:1017030033C608C633C6D5E0F41822251910AF082E
:10171300F519400C151A8008F5194002151AD2AFB5
:101723002200C0D0251910AF08F519500C051A80F6
:1017330008F5195002051AD2AFD0D0222519F58227
:1017430010AF08F519400C151A8008F51940021559
:101753001AD2AF851A83222519F582E4351AF58347
:1017630022E4732519C582C0E0E51A34FFC583C09E
:10177300E0E519C3958224F810AF0885831A8582A2
:1017830019800885831A858219D2AFCEF0A3E5208C
:10179300F0A37808E608F0A3DEFAEFF0A3E58124CE
:1017A300FAF8E608F0A3E608F0A3E608F0A30808B1
:1017B300E608F0A3E608F0A315811581D0E0FED07A
:1017C300E0F8158115811581E8C0E0EEC0E022251F
:1017D30019C582C0E0E51A34FFC583C0E0E519C32B
:1017E300958224F910AF0885831A858219800885AC
:1017F300831A858219D2AFCEF0A3E520F0A378082F
:10180300E608F0A3DEFAEFF0A3E58124FBF8E6088F
:10181300F0A3E608F0A30808E608F0A3E608F0A39F
:1018230015811581D0E0FED0E0F815811581E8C05F
:10183300E0EEC0E022851A83851982E0A3FEE0A3CF
:10184300F5207808E0A3F608DFFAE0A3FFE0A3C0E1
:10185300E0E0A3C0E0E0A3C0E0E0A3C0E0E0A3C0F9
:10186300E010AF0885821985831A8008858219855F
:10187300831AD2AFD083D082020132851A838519AD
:1018830082E0A3FEE0A3F5207808E0A3F608DFFAE0
:10189300E0A3FFE0A3C0E0E0A3C0E0E0A3C0E0E07A
:1018A300A3C0E010AF0885821985831A800885825A
:1018B3001985831AD2AFD083D08222C0D02519C50F
:1018C30082C0E0E51A34FFC583C0E0E519C3958201
:1018D30024F310AF0885831A858219800885831A3B
:1018E300858219D2AFC8F0A3E9F0A3EAF0A3EBF025
:1018F300A37908E709F0A3D8FAECF0A3EDF0A3EE7F
:10190300F0A3EFF0A3D0E0F0A3D0E0F0A3D0E0F099
:10191300A3E520F0A3E5F0F0A322851A83851982BD
:10192300E0C0E0A3E0F9A3E0FAA3E0FBA37808E0BA
:10193300F608A3DFFAE0FCA3E0FDA3E0FEA3E0FFCB
:10194300A3E0C0E0A3E0C0E0A3E0F5D0A3E0F5206E
:10195300A3E0A3F5F010AF0885831A8582198008E8
:1019630085831A858219D2AFD082D083D0E0F8D094
:10197300E03274048006740280027401C0E0F4044F
:1019830012173FD0E01216142274048004740280EC
:1019930000CCC0E0EDC0E0E519C39CCCAD1A50010A
:1019A3001D10AF068C198D1A80068C198D1AD2AFB3
:1019B300121621D0E0FDD0E0FC22D083D082E9C012
:1019C300E0E493A3C386F0C5F095F0F908E493A38C
:1019D30086F0C5F095F0700BE493A3C3994005E935
:1019E300048002A3E475F002A42582F582E5F035B4
:1019F30083F583D0E0F9E493A3C0E0E493C0E0224D
:101A0300D083D082ECC0E0EDC0E0E493A3FCE49388
:101A1300A3FDED4C600D121A4FEC24FFFCED34FFD7
:101A2300FD80EFE493A3FCE493A3FDED4C600D1262
:101A33001A8EEC24FFFCED34FFFD80EFD0E0FDD0E7
:101A4300E0FCE493A3C0E0E493C0E022C0E0C3E47D
:101A53009396087401939618400FE49366700808F0
:101A6300740193661870007019A3A3C3E4939608D6
:101A73007401939618A3A3400DD0E0D0E0D0E00208
:101A83001A3FA3A3A3A3A3A3D0E022C0E0C0F0887E
:101A9300F0E4936670080874019366187000A8F068
:101AA300A3A3700BD0F0D0E0D0E0D0E0021A3FA3A4
:061AB300A3D0F0D0E022F8
:101ABC0074F51217D2EAFEEBFFEE2434F8EF340083
:101ACC00F988088909EE2435121BE8F8EE24371240
:101ADC001BE8F50AEC850AF0A4FCAAF0850AF0EDE7
:101AEC00A42AFDE82CF8E43DF97A257B0012168334
:101AFC00EA850882850983F074075AF87401B800E6
:101B0C00028004C333D8FCFBEA131313541FF8EE02
:101B1C0028F8EF3400F9E8245DF582E9121BEB5B41
:101B2C006003EA801CEE2436121BE8F5F0EA84A868
:101B3C00F0EE28F8EF3400F9E82438F582E9121BAE
:101B4C00EBF97F0402187E74F51217D2EAFEEBFF54
:101B5C00EE2434121BE8C0E0EE2435F582EF34009D
:101B6C00F583D0E0F08E828F83A3A3A3A3A3E0FA26
:101B7C00A3E0FB8E828F83A3A3A3A3A3A3A3E0FC68
:101B8C00A3E0FDECC39AF50AED9BF50BEE247FF573
:101B9C0008EF3400F509850882F583E06401702BA9
:101BAC00EE2480F582EF3400F583121990121BF1AC
:101BBC007402121724E960137CDC7D04EEFAEFFB4F
:101BCC00120BA2850882850983E4F0AC0AAD0BEEFA
:101BDC00FAEFFB121ABC122685021B4EF582EF346B
:101BEC0000F583E022C082C083851982851A83E0C8
:101BFC00F8A3E0F9C3EA9CEB9D5010C3EC98ED9967
:101C0C00401BC3EA98EB995014800EC3EA98EB99E9
:101C1C004007C3EC98ED994004790180027900D01B
:101C2C0083D08222EAC39CFAEB9DFB2274ED12173F
:101C3C00D29003A2E064086005E06407702C906108
:101C4C00C8E060269003D0E0F874FF68601CE8756B
:101C5C00F003A4C8AAF02AF974D228FE740339FF41
:101C6C008E828F83A3A3A3E070057900021DD8EEAA
:101C7C002468F510EF3400F511906060E085108257
:101C8C00851183F0750A45750B05750800750900FB
:101C9C00E5D914F50EE5D95403F50F601CEE24823A
:101CAC00F50CEF3400F50D7403650F6058E50E600C
:101CBC0013EE2467121BE8700B793DEEFAEFFB1262
:101CCC000BC680A6900540E064016026850C8285D9
:101CDC000D83E06004780480027800850E08E50826
:101CEC00C398FA95E0FB120A468A088B09EA450963
:101CFC007006120E24021C76850C82850D83E07012
:101D0C00048A0A8B0B78008016E5D9C0E08812E5AE
:101D1C000A2512F582E50B3400F583D0E0F008E8D3
:101D2C00C3950E40E4850C82850D83E0602874FC1D
:101D3C00250EF50E780A121979AC0EA90FEEFAEFF2
:101D4C00FB120C747402121724E9700AAA08AB096E
:101D5C001212CE021CC57403650F6058850E0C75EB
:101D6C000D00780C121979AC0AAD0BAA08AB09124C
:101D7C000C387402121724851082851183E0F874D4
:101D8C0080687005750C7F8002880CE50CF50A786C
:101D9C000A12197DE50FF50A780A12197DA90EAC05
:101DAC0008AD099003D0E0FA7B001208DE74021231
:101DBC00172480139003A2E06408600BAC0AAD0BEF
:101DCC00EEFAEFFB120D0A120E3079017F0C02189D
:101DDC007E74F31217D274FC12170EEAFEEBFF8915
:101DEC0008A2AFE433F509C2AFEE2463F50AEF3471
:101DFC0000F50B8010AA0AAB0B120BF01212CE904E
:101E0C0004E3E004F0850A82850B83E0F8A3E0F993
:101E1C00E849602FE82402FAE93400FBEA2402F5D1
:101E2C000CEB3400F50D780C1219798A828B83E057
:101E3C00FCA3E0F9EEFAEFFB120BE4740212172488
:101E4C00E960B29004E3E060579004E4E0F8900499
:101E5C00E3E0C398500C7402650870449004E5E00C
:101E6C00603E8E828F83A3A3A3A3E0851982851A7B
:101E7C0083121EBC740212175AE8121EBC9004E2A4
:101E8C00E028F0740212175AAC82AD838519828552
:101E9C001A83AA82AB8379011208EA9004E3E4F076
:101EAC00E509A2E092AF74041217247F0602187E93
:101EBC00F0A3E4F09004E3E0F8220000852187858C
:101ECC0022C622C0E074EF1218BEA2AFE433FEC2E9
:101EDC00AF759B00906182E0A2E05012E591A2E008
:101EEC00500C7591FE740165217003121C38E0A230
:101EFC00E55051E591A2E5504B7591DF9003A2E0BE
:101F0C0064076005E06408702374016521703579FD
:101F1C00019003D0E0FA75F003A4CAA8F028FB7472
:101F2C00D22AFA74033BFB121DDD8018E0640D709D
:101F3C00139003C4E004F064287002E4F07A00E02B
:101F4C00F9120E36906182E0A2E64003021FF6E51C
:101F5C0091A2E64003021FF67591BF9003A2E064C4
:101F6C00057008120D4C120D588003120D5275217C
:101F7C0000120DC4E99003A3F07900120DB8120BF6
:101F8C000C7A017B009003A1E0F912108890780381
:101F9C00E064427055900544E014F0704DC2AF12ED
:101FAC001FAE00782AD0E0F618D0E0F6E59F540773
:101FBC0070057509FF800375097FC4C0E07829E6B8
:101FCC00F50808E65509F509740B78081216ECD0DB
:101FDC00E02508F8906270E0A2E740F8E8C333907F
:101FEC006272F0906270E0D2E0F0906181E0A2E366
:101FFC005009E5E9A2E3500375E9F7A3E0A2E75025
:10200C0009E591A2E7500375917FEEA2E092AF7FB4
:10201C000402191DC0E0C0D0C082C083906183E06F
:10202C00A2E05009E5BFA2E0500375BFFEE0A2E1BB
:10203C005009E5BFA2E1500375BFFDE0A2E25009D3
:10204C00E5BFA2E2500375BFFBE0A2E35009E5BF78
:10205C00A2E3500375BFF7E0A2E45009E5BFA2E488
:10206C00500375BFEFE0A2E55009E5BFA2E55003B0
:10207C0075BFDFE0A2E65009E5BFA2E6500375BFCD
:10208C00BFD083D082D0D0D0E032C0E074F212182E
:10209C00BEE5A7A2E4500FE5A1A2E4500953A7EFB7
:1020AC0075A1EF1220EAE5A7A2E5500CE5A1A2E587
:1020BC00500653A7DF75A1DFE5A7A2E15009E5A102
:1020CC00A2E1500375A1FDE5A7A2E2500CE5A1A287
:1020DC00E2500653A7FB75A1FB7F0102191D74F892
:1020EC001217D27521019003A2E0640670077A00E2
:1020FC007B00120D34A2AFE433FED2AF9003A8E004
:10210C00640170187A207B009003A1E0F91211127F
:10211C007A207B009003A1E0F912108E906182E08E
:10212C00D2E6F0900541E0602185C622801690032E
:10213C00A7E064017008E5C654F84405F5C653BE23
:10214C00FC121EC87401652160E4EEA2E092AF7F20
:10215C000102187E8E238F2485822885832785197A
:10216C0082851A83E0CEA3E0CF852882852783EB76
:10217C00C9EAC8EDCBECCA75F010C3E833C8E93333
:10218C00C9EA33CAEB33CBC3EA9EF526EB9FF525A0
:10219C00B35004AB25AA26EC33CCED33CDD5F0DA15
:1021AC00AE23AF242274E91217D274FA12170EEA76
:1021BC00FEEBFF8C088D099003A2E024F7C3940575
:1021CC0050067510010222DC120CAA8A0A8B0BEA4B
:1021DC00450B70030222D9120D6A8A0C8B0D120D5D
:1021EC006AEA650C7003EB650D60ECEEFCEFFD85A7
:1021FC001982851A83AA82AB83120D70850A828597
:10220C000B83A3A3780C1215DE908FBD780C1215DE
:10221C00B8851982851A8378141215DE908FBD78D3
:10222C00141215B8780C79141213F1501F780C791C
:10223C0014121590908F61780C1214114047850C74
:10224C0010850D11850E12850F138045908F6185B9
:10225C0014108515118516128517137810790C1228
:10226C0015907810121411501C7510007511007512
:10227C001200751301781079141215907810790CDE
:10228C00121557800C75100175110075120075131D
:10229C000074097810121538908FB5780C1215DE71
:1022AC007810790C1214B09003A2E06408600AE074
:1022BC0064066005E064057020908F657810121438
:1022CC00115016908F69781012156A800C751000D9
:1022DC0075110075120075130085088285098378C5
:1022EC00101215ED74061217247F1002187E74F765
:1022FC001217D2120D8290053FE0640170109062AB
:10230C0045E4F0A3F053F4F343FE0C5390F3120D99
:10231C0022E5C654804449F5C6E59E547F64497055
:10232C00F8906185740FF090053DE0F47002A3E025
:10233C00602C75080175090090053DE078081216AF
:10234C00FBE508F4FAA3E0600814600A14600C8042
:10235C000DEA52808008EA52908003EA52A079007C
:10236C007F0202187E74F71217D2E9FEEAFF74019D
:10237C006E700C7A807B009003A1E0F912108890AB
:10238C002704E493F46008E493F9120AEE800953ED
:10239C00C680E59E547F70FA120D2890053FE064CC
:1023AC00017003120B2490053DE0F47002A3E06071
:1023BC002A75080175090090053DE078081216FB96
:1023CC00AA08A3E0600814600A14600C800DEA42AD
:1023DC00808008EA42908003EA42A0120CAA8A0884
:1023EC008B09A808A909E8496017E5E170FCE82405
:1023FC0014F582E93400F583E0F874FF6860028814
:10240C00E174016F700A7A019003A1E0F91210DCFB
:10241C0002236C74F11217D28A088B098C0A8D0B6B
:10242C00908FBD78081215B8740F12175A780C12C9
:10243C0015DE908FBD780C1215B87808790C121334
:10244C00F1908F6150107808790C12159078081261
:10245C0014114014800E780C7908121590780C1217
:10246C00141150047901800279007F0802187E74DF
:10247C00ED1217D28A088B098C0A8D0B908FBD78C0
:10248C00081215B8741312175A780C1215DE908FA7
:10249C00BD780C1215B8780C79081213F14011782C
:1024AC0008790C121590AA08AB09AC0AAD0B802266
:1024BC007510007511007512007513017810790CE8
:1024CC0012159078107908121557AA10AB11AC128E
:1024DC00AD137F0C02187E908FBD78081215DE8A22
:1024EC00828B8378081215CB7F0402187E74F51248
:1024FC0017D28C828D8378081215DE8A828B8378B2
:10250C00081215A412254DC3E098F0A3E0991225EA
:10251C003F401E908F9178081215DE8A828B83784B
:10252C000812157D8E828F83E02420F0A3E0344EB8
:10253C00F080A4F08E828F83C3E09420A3E0944EAD
:10254C0022EA2404F8EB3400F9E8FEE9FF8C828DD2
:10255C0083A3A3A3A3E0F8A3E0F98E828F83227454
:10256C00F51217D2E9FE9004F7E0FAA3E0FBEEC3F4
:10257C0033F8E433F974E728F582748E39F583E087
:10258C002AF508A3E03BF5097808121979908FC950
:10259C001215FC12216074021217248A088B098C04
:1025AC000A8D0B7410780812151FAA08AB097F044A
:1025BC0002187E74F11217D28A0C8B0D8C0E8D0FB3
:1025CC00740F12175AE0FAA3E0FB741112175AE0B9
:1025DC00F508A3E0F5097808121979EA2401F50841
:1025EC00EB3400F509E4F50AF50B780C79081214B4
:1025FC0030908F7578081215DE780C79081214302B
:10260C00AA0CAB0DAC0EAD0F122160740212172484
:10261C008B09EA450960047A0180027A00EC2AFCF5
:10262C00ED3400FD741312175AE0F8A3E0F9E8FE3C
:10263C00E9FFECF8EDF97A717B02121683880889B0
:10264C0009E4F50AF50B8E828F8378081215EDECF0
:10265C00F8EDF97A717B021216838A088B097405DE
:10266C0078081216FB8E828F83A3A3A3A3E508F030
:10267C00A3E509F07F0802187EC082C083E9906050
:10268C0000F0D083D08222C2AF02000022C0E074DE
:10269C00F21218BEA2AFE433FED2AFE589A2E1502C
:1026AC000312126E758900C2C5751B00EEA2E09272
:1026BC00AF7F0102191DC0E074F21218BEA2AFE484
:1026CC0033FED2AFE58BA2E0500312126E758B0075
:1026DC00C2E880D5C0E0C0D0E8C0E0E9C0E0E5A821
:1026EC00D2AFC2C7751B00A2E7A2E792AFD0E0F948
:1026FC00D0E0F8D0D0D0E032FFFFFFFFFFFFFFFFAC
:10270C00C082C083E99009FDF002299B74F712176F
:10271C0066E99002E1F07C197D037AFF7BFF1208D9
:10272C00309002E274FFF0A3F0A3E4F0A3F079057B
:10273C001207B89002E1E0F91206DA7A4E7B081221
:10274C0009F87F0102183874F41217668A088B098D
:10275C00EB548060309002E1E0F91210708A0A8B21
:10276C000BAE0AAF0BEE4F60138E828F83E064B01A
:10277C0070031207D0EEFAEFFB12105EAA08E509FF
:10278C006480FB80047A007B0002296A74F21217C1
:10279C006674FC12170EEAFEEBFFEE4F6038740203
:1027AC0012175AEEF0A3EF122BCFECF0A3ED122B75
:1027BC00CFAA82AB831206D4E9F508707374121297
:1027CC00175A123783E50A450B60658E828F831288
:1027DC002846EE4F700575080280557A067B00126C
:1027EC0010C48A0C8B0DA80CA90DE849700575084E
:1027FC0013803D88828983E4122850A3A3EEF0A3B2
:10280C00EF123C1CE50AF0A3E50BF09002E712284E
:10281C00D89002E76017E0FCA3E08003EAFCEBFD34
:10282C008C828D831228D870F38C828D831236A8FB
:10283C00A9087404121724023E1EA3A3A3A3E0FE4E
:10284C00A3E0FF22F0A3F0888289832274F212178E
:10285C0066890AE975F017A4FEAFF09002E6E4F081
:10286C009002E41228D8600A1210CA9002E4E4F034
:10287C00A3F0EEFAEFFB1210C48A088B09EA4509A3
:10288C00602FEEFCEFFD790012104C9002E4E5088D
:10289C00F0A3E509F07B0080081228C2E4F0A3F055
:1028AC000BEBC3950A40F2E50A9002E6F079008042
:1028BC00027913023E1EEB75F017A4F8A9F09002F2
:1028CC00E4E028FAA3E0398A82F5832212343EEA46
:1028DC004B2274F4121766750800750900740C12FB
:1028EC00175A123BF0FEE9FF800CE5082401F508AD
:1028FC00E5093400F509C3E5089CE5099D503285CE
:10290C00080A85090B7403780A1216FBEA250AF8E3
:10291C00EB350BF988828983A3A3A3A3A3A3123756
:10292C0083EE650A7003EF650B70BFE8FAE9FB8074
:10293C00047A007B00802774F41217667900EAA2EF
:10294C00E0501B75084675098F78081219797C04BC
:10295C007D007AFF7B091207B274021217247F04E0
:10296C00021838C082C0839002E71229A2601C882A
:10297C00828983A3A3E06A7003A3E06B88828983B6
:10298C0070E8A3A3A3A312343A80047A007B00D08E
:10299C0083D082020132123EF1E8492274EE121702
:1029AC006674FC12170EEAFEEBFF851982851A83FA
:1029BC00E4F0A3F0EE240212368CEE2405122BBDAB
:1029CC00EE2404F50EEF122FA2E024FE603924FC55
:1029DC00604624FE605224FE605E24FE7003022AD0
:1029EC00C224FE7003022B3A24FE7003022B4924EE
:1029FC00FE7003022B5824FC7003022B6724FE701C
:102A0C0003022B76022BB39003007417F0A3E4128D
:102A1C002BD7120452022BB3851982851A83AC82F0
:102A2C00AD831207D6022B83851982851A83AC825B
:102A3C00AD831207DC022B83850C08850D0974020B
:102A4C0012175AAC82AD8385088285098312343AF9
:102A5C001206F88A0C8B0DAC0CAD0DEC4D6042E4FB
:102A6C00F50CF50D780C121979750C00750D0378B1
:102A7C000C121979750C01750D03780C12197974F7
:102A8C000812175A12199079161234341208187445
:102A9C0008121724E9F50C700B12343012046A80FA
:102AAC000F750C01850882850983122BC51236A877
:102ABC00850C08022B86740212175AAC82AD8385E2
:102ACC000C82850D8312343A1206F88A108B11ACE5
:102ADC0010AD11EC4D6043850C82850D83A3A312C0
:102AEC001990751000751103781012197975100171
:102AFC007511037810121979740812175A1219905B
:102B0C0079161234341208187408121724E9F509CE
:102B1C00700B123430120470800F750901850C8211
:102B2C00850D83122BC51236A8850908804C851992
:102B3C0082851A83AC82AD831207E2803A851982B2
:102B4C00851A83AC82AD831207E8802B85198285A8
:102B5C001A83AC82AD831207EE801C851982851A0C
:102B6C0083AC82AD831207F4800D851982851A839C
:102B7C00AC82AD831207FAE9F508E50860298E826C
:102B8C008F83A3E06414601F850E82850F83E09011
:102B9C000300122BCF123EED9003011236A8E5086C
:102BAC00A3122BD712044CEEFAEFFB120776023568
:102BBC0094F50CEF3400F50D22123EF18519828547
:102BCC001A8322F0851982851A8322F07C007D03FA
:102BDC00850A82850B8312343E2274EE12176674BA
:102BEC00FC12170E8A0A8B0B8C0E8D0FEA2405F53E
:102BFC0008EB3400F5097C157D0079007A007B0325
:102C0C0012104CE5082402F50CE509122BC08519AD
:102C1C0082851A8385821085831178101219798523
:102C2C000882850983A3A3A3A31230EA121979E5BC
:102C3C00082405F510E5093400F5117810121979FE
:102C4C00850C82850D831234441206F27406121719
:102C5C00248A108B11AE10AF11E50A2402F50AE597
:102C6C000B12368FEE4F7003022DAC8017740212CC
:102C7C00175A12343A88828983EAF0A3EBF0900356
:102C8C0000E004F0900300E0C394054003022DAC77
:102C9C00E4F510F51178101219797510E975110217
:102CAC0078101219797510EA7511027810121979C9
:102CBC00740612175A1219907910EEFCEFFD1234AB
:102CCC00341208187408121724E9705E850882857E
:102CDC000983A3A3A3A3A3A3A3E0F89002E9E0684C
:102CEC0070481230EA1219797CEA7D02E508240852
:102CFC00FAE5093400FB1210467402121724E9603D
:102D0C00298E828F83A3A3A3A312343A900300E0ED
:102D1C00F510740278101216FB74012510F58274EC
:102D2C00033511F583EAF0A3EBF0740212175A8500
:102D3C0082108583117810121979740212175A12A5
:102D4C001990850C82850D83123F021206FE7404C5
:102D5C001217248A108B11AE10AF11900300E0F5FE
:102D6C0010751100740278101216FB74002510F8FF
:102D7C0074033511F988828983A31228D870030251
:102D8C002C70E82403F8E93400F9EE4F6003022CB0
:102D9C00798882898374FFF0A3F0900300E004F03B
:102DAC00900300E0600A12343012045E7900800B4C
:102DBC0085088285098312369F790A02359474EA54
:102DCC0012176674FE12170E8C128D13EA2405F579
:102DDC000CEB12406C12284A750800750900EA24A5
:102DEC0002F510EB3400F511851982851A83858262
:102DFC000A85830B780A121979850C82850D83A3B9
:102E0C00A3A3A3122FAC121979E50C2405F50AE53E
:102E1C000D12368F780A121979850C82850D831262
:102E2C003F001206F274061217248A0A8B0BEA452D
:102E3C000B7003022F5DEA2404F50EEB122FA21285
:102E4C00284A8A828B83A3A3A3E0F985108285117B
:102E5C008312343A1206E0E9F5096003022F5DE4AF
:102E6C00F514F51578141219797514E9751502789D
:102E7C00141219797514EA751502781412197974EB
:102E8C000612175A1219907913AC0AAD0B851082E1
:102E9C0085118312343A1208187408121724E9F5B4
:102EAC00096003022F5D9002E9E0F8E5087009E083
:102EBC002402900301F08017900301E0FCE8240247
:102ECC00FAE43400FBEA6C7001EB6003022F6185BD
:102EDC000882AA821230E194141230D95073850EF4
:102EEC0082850F83E0C0E074022A122F99D0E0F0A3
:102EFC000508850E82850F83A3E0C0E085080A745F
:102F0C0002250A122F99D0E0F005089002E9122F41
:102F1C00AC1219797CEA7D0285080A7402250AFA3A
:102F2C0074033400FB12103474021217249002E95B
:102F3C00E02508F50874FF6E700374FF6F6012EEE5
:102F4C0024010EEF3400FFE508C394145003022D46
:102F5C00F4E5086013123325851082851183123431
:102F6C003A12046479008014E509700375090A8526
:102F7C001282851383EEF0A3EFF0A90974021217E5
:102F8C00247F0E02183885080C7402250CF5827407
:102F9C00033400F583223400F50F850E82F583226D
:102FAC00123C2F2274EE12176674FE12170E8C0E42
:102FBC008D0FEA2405F50CEB122BC0750B0090035A
:102FCC0000E4F0F50AEA2402F508EB3400F5098078
:102FDC0049900300E0FA9002E9E0F81230E194170E
:102FEC001230D9400D900300E0F87416C39890028B
:102FFC00E9F01230EA1219797CEA7D0274012AFA9E
:10300C0074033400FB12103474021217249002E97A
:10301C00E0F8900300E028F0050AE50C2416F58290
:10302C00E50D122F9DE0F8E50AC39840030230C26B
:10303C00900300E0C39416507DE50AC333F8E433E3
:10304C00F9E50C28FEE50D39FF851982851A83AC4C
:10305C0082AD838E828F8312343A1206F88A108BDB
:10306C0011AC10AD11EC4D7005750B018043E4F5FE
:10307C0010F51178101219797510E9751102781084
:10308C001219797510EA75110278101219797406F3
:10309C0012175A12199079168508828509831234F1
:1030AC003A1208187408121724E9F50B7003022F52
:1030BC00DD12369B80107C007D0385088285098398
:1030CC0012343A120476A90B7402023596E9940074
:1030DC00C365D03322EA28F8E43400F9E822E0F59D
:1030EC001075110078102274EA12176674FC12170E
:1030FC000E8A0C8B0D8C128D13EA2405F50AEB123B
:10310C00368F750800750900E50A2402F510E50BE9
:10311C003400F511740212175A85820E85830F78CC
:10312C000E121979850A82850B83A3A3A3A3123BE4
:10313C00DB121979E50A2405F50EE50B3400F50FC1
:10314C00780E1219798510828511831236951234F6
:10315C00341206F274061217248A0E8B0FAE0EAFC1
:10316C000FE50C2402F50EE50D3400F50F804088B8
:10317C0082898374FFF00508122F9274FFF0050802
:10318C009002E9E0F50C750D00780C1219797CEAC7
:10319C007D0285080C7402250CFA74033400FB12B2
:1031AC00103474021217249002E9E02508F508EE99
:1031BC004F60718E828F83A3A3A3E0F9850E828565
:1031CC000F8312343A1206E0E9F509EE2404122BAF
:1031DC00BDE97044E4F514F51578141219797514D9
:1031EC00E975150278141219797514EA75150278B7
:1031FC0014121979740812175A1219907911EEFCDD
:10320C00EFFD850E82850F8312343A12081874086C
:10321C00121724E9F5096027850C82850D8312337A
:10322C001B1236A8E5087003023301123325850EF4
:10323C0082850F8312343A12047C7900023316858E
:10324C000882AA82EA9002E97009E0240490030142
:10325C00F08022E0F8900301E0F514E82404FCE48B
:10326C003400FDEC65147001ED70C01230E1941265
:10327C001230D950B6850C82850D83E0C0E0740203
:10328C002A122F99D0E0F00508850C82850D83A3B6
:10329C00E0C0E0122F92D0E012333785820C858388
:1032AC000D780C121979740412175A121990851092
:1032BC0082851183123F021206FE74041217248AAF
:1032CC000C8B0DAE0CAF0D85080C7402250CF8742C
:1032DC00033400F9EE4F700302317B851982851A95
:1032EC0083E088828983123337A3E0C0E0122F92E7
:1032FC00D0E0023189E509700375090A850A8285D7
:10330C000B8312331B1236A8A9097404022F8A12DC
:10331C003EF185128285138322900301E0F5F0E5DE
:10332C000884900300F07C007D0322F005088519C9
:10333C0082851A832274EC12176674FE12170E8A99
:10334C00088B098C0E8D0FEA2405FEEB3400FF85EB
:10335C001982851A83AC82AD838E828F8312343AA4
:10336C001206F88A0A8B0BEE2418122BBDEA450BB9
:10337C00700302340B12357D5032851982851A8305
:10338C0012343A12080C8A108B11EA4511606B79D1
:10339C0012AC0AAD0B85088285098312343A85106C
:1033AC0082851183121764E9F50A7058E4F50AF561
:1033BC000B780A1219798E828F83A3A3E0F50A7811
:1033CC000A121979EE240312368C780A1219798EA6
:1033DC00828F8312344412081E7406121724E9F5E6
:1033EC000A7021850C82850D83E0701F850882850B
:1033FC00098312343A1204828011750A0E80097501
:10340C000A018004E50A600312369B850C82850D47
:10341C0083E0600479008002A90A74021217247FE9
:10342C000C0218387C007D03850A82850B831234CC
:10343C003E22E0FAA3E0FB22E0FCA3E0FD8508823B
:10344C0085098312343E2274EE12176674FE12172D
:10345C000E8A088B098C0C8D0DEA2405FEEB3400CA
:10346C00FF750E00851982851A83AC82AD838E821E
:10347C008F8312343A1206F88A0A8B0BEA450B70CA
:10348C000302356912357D5035851982851A8312F0
:10349C00343A12080C8A0E8B0FEA450F605E7912D3
:1034AC00AC0AAD0B85088285098312343A850E82ED
:1034BC00850F83121764E9F50E600302356C8508DD
:1034CC0082850983123783AA0AFB1208008A108BA3
:1034DC0011A810A911E849701E7AFF7BFF12080091
:1034EC008A108B11A810A911E849606C8882898315
:1034FC00E50AF0A3E50BF0750A008007750E0E8047
:10350C005F050A9002E6E0FAE50AC39A504AE50A1A
:10351C0075F017A4FAABF088828983A3A3E02AFA8A
:10352C00A3E03BFB8A828B83123695EC4D70D275EF
:10353C000A17750B00780A121979EEFCEFFD1210C0
:10354C00347402121724EEFCEFFD85088285098382
:10355C0012343A1204888014750E098003750E011A
:10356C00123EE9850C82850D831236A8A90E023015
:10357C00D4E5082402F508E5093400F5098A828BA4
:10358C0083A3A3A3E0A2E52274041217247F0A02EA
:10359C00183874EC1217668C108D11EA2405F50C92
:1035AC00EB122BC0750F00EA2402F50AEB12368FD2
:1035BC00850A82F58312343A1208008A088B09EACC
:1035CC0045097003023681750E008071850C828569
:1035DC000D83E06401704F8E828F83A3A312199028
:1035EC008E828F83A3A3A3A3E0F512751300781228
:1035FC00121979EE2405F512EF3400F51378121236
:10360C00197912343412081E7406121724E9F50FB6
:10361C006014850C82850D83E4F0123EE9851082DE
:10362C008511831236A87C177D007900EEFAEFFB2A
:10363C0012104C8E828F83E4F0A3F0050E9002E6FC
:10364C00E0F8E50EC398501EE50E75F017A4F8A926
:10365C00F0850882850983A3A3124076123695EC77
:10366C004D60030235D885088285098374FFF0A369
:10367C00F0E50F700612343412048EA90F02342BAD
:10368C00F50AEF3400F50B22A3E0FCA3E0FD228E3B
:10369C00828F83123EF1850E82850F83E8F0A3E9B9
:1036AC00F022C082C0839002E2E06A7003A3E06B58
:1036BC0070067AE27B0280047A007B0002299BC0B0
:1036CC0082C08378008C828D83E06A7003A3E06BE8
:1036DC007010E875F003A4F8A9F0EC28FAED39FBAA
:1036EC008015088C828D83A3A3A3E06A7003A3E0EA
:1036FC006B60DF7A007B0002299B74F6121766124E
:10370C0007CA8A828B83E582458370067A007B0028
:10371C008007A3A3A3A312343A023D9A74F21217A2
:10372C0066E9FE740E12175A123783741012175A68
:10373C00123BFB8C828D83E064027036A3123EF741
:10374C00F50CA3E0F9A80C74026870037429697075
:10375C0021750C02750D00780C1219797808121964
:10376C0079780A121979EEF91208427406121724A4
:10377C0080027901023E1EE0F50AA3E0F50B2274EB
:10378C00E812176674FB12170EE9851982851A83E5
:10379C00F08A168B17ECFEEDFF751000741D1217D6
:1037AC005A123EED741D12175A1236A88E828F8350
:1037BC00A3A3A3E0A2E4502D741D12175A12343A9D
:1037CC0012080C8A828B83E58245837003023BCC02
:1037DC00790AEEFCEFFDAA16AB17121764E9F51087
:1037EC006003023BCF741F12175A123BFB74211259
:1037FC00175A123783742312175AE0F50EA3E0F50B
:10380C000F8E828F83E064026003023B7AA3123E28
:10381C00ED850882850983A3858212858313EE24A6
:10382C0006122BBD88828983E0FAA3E0F9EA240012
:10383C00F514E439F5157814121A03010000280167
:10384C00286F380700022834390328A13800296B67
:10385C003A0129963A0229373A03296B3A04291579
:10386C003B7A3BE50E450F6003023B75850C828568
:10387C000D83123BF0FAE9FB8A828B83E0850A8286
:10388C00850B83123C261219798A828B83A3E0FC68
:10389C00A3E0023AFFE50E450F6003023B75850A73
:1038AC0082850B837401F0123C03850882850983A1
:1038BC00F07C007D008E828F83A3A3A3A3E0240160
:1038CC00FAA3E03400FB1206F8EA4B60418A828BC3
:1038DC0083E02402F8850A82850B83E028F0EA2431
:1038EC0004F8EB3400F988828983E0851282851311
:1038FC0083123C38123C261219798A828B83123639
:10390C0094E5082403FAE5093400FB023B04850A1C
:10391C0082850B83E02404F07C047D007900AA12DC
:10392C00AB1312104C023BCFE50E450F6003023B6C
:10393C0075123C03FEA3E0FF850A82850B83740499
:10394C00F0EE850882850983F0EF8512828513835A
:10395C00F0740312175AAC82AD83EEFAEFFB120629
:10396C00F88A0C8B0DEA450D7003023A188A828B8B
:10397C0083A3A3122846740112175A85820E8583DD
:10398C000F780E121979740512175A1219907CFFC0
:10399C007DFF1206FE74041217248B0FEA450F707C
:1039AC0033850C82850D83123BDB121979850C82D1
:1039BC00850D83A31219907C027D007AE97B8F120E
:1039CC00052A7404121724E9700A740112175A7428
:1039DC00FFF0A3F08E828F83E064027039750C02C5
:1039EC00750D00780C1219798E828F83123694E53E
:1039FC00082404FAE5093400FB121034740212177F
:103A0C0024850A82850B83E0240280097401121735
:103A1C005AEEF0A3EFF0740112175A123BECF0744B
:103A2C000112175AA3123BE4023B6FE50E450F60DF
:103A3C0003023B75850C82850D83123695AA16AB55
:103A4C0017120836850A82850B837402F0EA850802
:103A5C0082850983F0851282851383EB023B72E524
:103A6C000E450F6003023B75123C03F8A3E0F98589
:103A7C000A82850B837402F0E8850882850983F03D
:103A8C00E9851282851383023B72850C82850D8336
:103A9C0012343A12102EEAFC8C82A882C3950EE4E2
:103AAC00950F405FE8650E7002E50F70047C008096
:103ABC0022851982851A83E0FAE50E2AFAE50F347D
:103ACC0000FBC3EA98EB94005003E08005E50ECCB4
:103ADC00C39CFCEC850A82850B83F08C0A750B0069
:103AEC00780A121979850C82850D83E0250EFCA3CA
:103AFC00E0350FFDAA08AB0912103474021217241A
:103B0C00023BCF751007023BCFE50E450F705A856F
:103B1C000C82850D83123EED850A82850B8374071A
:103B2C00122852123BE4122852A3E085128285130C
:103B3C0083F0E82402FAE93400FB8A828B83123B7F
:103B4C00E4123C13123BECA3123C1C123BF5F0E8C4
:103B5C002405F8E93400F988828983123BF5A31215
:103B6C003C38A3A3A3A3F0805A75100B8055741D89
:103B7C0012175A12343A1207CA8A828B83E582458D
:103B8C0083603D123EED880C890DE8450D6031785F
:103B9C000E121979780A12197978081219797406A3
:103BAC0012175AE0F9EEFCEFFDAA16AB17850C8242
:103BBC00850D831217647406121724E9F51080031F
:103BCC0075100EA91074051217247F10021838E016
:103BDC00F50E750F00780E22E08508828509832288
:103BEC00123C4222123EF1E822123C42A3A322E0F4
:103BFC00F508A3E0F50922850C82850D83E0F8A376
:103C0C00E0F5838882E022A3A3F08A828B83A3222F
:103C1C00F088828983A3A3A3A322F08A828B8312C8
:103C2C003C2F22E0F50A750B00780A22F088828975
:103C3C0083A3123C4222E0850882850983A3A32238
:103C4C0074EE12176674FE12170E8A0A8B0BECFABE
:103C5C00EDFB741412175AE0F510A3E0F51174166D
:103C6C0012175AE0FE741812175AE0F50EA3E0F57D
:103C7C000F851982851A83AC82AD831206F88A0CE3
:103C8C008B0DEA450D6049851982851A8312343AE9
:103C9C001207CA8A828B83E5824583602FA3A31205
:103CAC003BFBE50845096024780E1219797810124F
:103CBC001979EEF9AC0CAD0DAA0AAB0B850882850F
:103CCC00098312176474041217248006790E80027B
:103CDC0079010230D474F612176674FE12170E7442
:103CEC000C12175A123BF0851982851A83F0740155
:103CFC0012175AE9F0E4F508F509780812197975E4
:103D0C0008027808121979740412175A85820885EA
:103D1C008309780812197912081E74061217247474
:103D2C0002121724806874F7121766EAFEEBFF89FB
:103D3C00087C197D03120836EA5402600BA908EEC0
:103D4C00FAEFFB1206EC8002790102274E74F61290
:103D5C00176674FF6A700374FF6B70168C828D8308
:103D6C00123D9FE4F08C828D83A3A3A3123D9FA3ED
:103D7C0080181208068A088B09A808A909E8496066
:103D8C000D8882898374FF122850A3A3E4F07F026C
:103D9C0002183874FFF0A3F08C828D83A3A32274D5
:103DAC00F61217661208068A828B83E582458360B9
:103DBC0006A3A3E0FA80027A007B0080D174F21291
:103DCC0017668A088B09ECFEEDFF740E12175AE089
:103DDC00F50A1208068A0C8B0DA80CA90DE849707F
:103DEC0026EEFCEFFD7AFF7BFF1208068A0C8B0D8A
:103DFC00A80CA90DE8497004791180168882898372
:103E0C00E508F0A3E509F088828983A3A3E50AF00D
:103E1C0079007F0602183874EE121766EAFEEBFF83
:103E2C008C088D09890C741412175A123EED7416F5
:103E3C0012175A12343A750D00E8496003023EE13C
:103E4C007402650C6003023EDC741212175A123EA7
:103E5C00F7FCA3E0F9EC2400F50EE439F50FEAF4D5
:103E6C00F8EBF4F9EC58F8E50F59F9E849705CE512
:103E7C00082406F8ED3400F9880A890B8882F5834A
:103E8C00123F021208368A108B11E50E6510700471
:103E9C00E50F65116042780E121979850A82850B3F
:103EAC0083123F0212083C7402121724E9F50D70BC
:103EBC0027780E121979850882850983A3A3123FEE
:103ECC00001208547402121724800D750D8080089E
:103EDC00750D0D8003750D0BA90D0235998E828F12
:103EEC0083123EF122E0F8A3E0F922123EF188821F
:103EFC008983E022A3A3E0FCA3E0FDEEFAEFFB2212
:103F0C0074E812176674E712170E851982851A83E6
:103F1C00EAF0A3EBF08C168D17890E750800750965
:103F2C0000743112175AE0F512A3E0F51374331232
:103F3C00175AE0F514A3E0F515743512175AE0F58D
:103F4C000FE50975F003A4F8A9F0851982851A8389
:103F5C00124076E0F47003A3E0F47003024059EED3
:103F6C002402F50CEF12406CE070030240598516E8
:103F7C000A85170B780A121979AC14AD15AA12AB75
:103F8C00131207BE74021217248A0A8B0BEA450B14
:103F9C007003024059E4F510F51178101219797478
:103FAC000612175A858210858311781012197974AC
:103FBC000912175A85821085831178101219798588
:103FCC001282851383A3A3A3A31219907914AC0AAC
:103FDC00AD0B8E828F8312343A12081874081217A4
:103FEC0024E97069850A82850B83A3A3A3A3123EDF
:103FFC00ED740212175A1236A8850C82850D83E0D7
:10400C00A2E05018A90E740212175AAC82AD838E1E
:10401C00828F8312343A120710E94208850C82858C
:10402C000D83E0A2E15026E50FF50A780A12197DFE
:10403C00A90E740312175AAC82AD838E828F831231
:10404C00343A12070A7401121724E942080509E5EB
:10405C0009C394025003023F4DA9087419023BD3C3
:10406C003400F50D850C82F58322E028FEA3E0399F
:10407C00FF8E828F832274F2121766EAFEEBFF89A1
:10408C000B7401650B600E7402650B706A7901127A
:10409C000A16E97062EEFAEFFB1208008A088B0927
:1040AC00EA45096047750A00800B7C177D00790092
:1040BC0012104C050A9002E6E0F8E50AC39850216C
:1040CC00E50A75F017A4F8A9F0850882850983A381
:1040DC00A3E028FAA3E039FB8A828B831229A27011
:1040EC00C985088285098374FFF0A3F07C197D03D0
:1040FC00EEFAEFFB120830023E1E74F21217668ABB
:10410C00088B09ECFEEDFF740E12175A12378390D0
:10411C0009FDE0F4603D7A097B00121058EA4B600F
:10412C00328A828B8374B1F0A3E4123C15A3123C47
:10413C0013A3E508F0A3E509124162EEF0A3EF1218
:10414C004162A3A3E50AF0A3E50BF09009FDE0F9A9
:10415C00121064023E1EF08A828B83A3A3A3A3A336
:10416C002274F012176674FA12170E890BECFEED1E
:10417C00FF750A008A088B0978081219BD00041013
:10418C00A043B041CE41E84100421E423642594262
:10419C0071428542AF42374348435F437A43A04361
:1041AC00A043C5427401650B600302439B8E828F52
:1041BC0083E0F8C39403400302439BE8900AE902AE
:1041CC0043777402650B600302439B8E828F8312CC
:1041DC004A9D900AEAE8F0A3E90243777401650B63
:1041EC00600302439B1243C8400302439BE89007C1
:1041FC00660243777401650B600302439B8E828FCA
:10420C0083E0F8C39405400302439BE890076702E0
:10421C0043777401650B600302439B1243C8400350
:10422C0002439BE89007680243777410650B6003A8
:10423C0002439B75081075090078081219797A6980
:10424C007B0712103474021217240243C1740165E7
:10425C000B600302439B1243C8400302439BE8904C
:10426C0007790243777401650B600302439B8E82CE
:10427C008F83E0900AED0243777404650B600302B0
:10428C00439B8E828F83780C1215DE908FC9780C2D
:10429C00121411500302439B90077B780C1215EDFE
:1042AC000243C1E9600302439B120698E9700512B0
:1042BC0011C6806090080E806E7407650B60030257
:1042CC00439B75080675090078081219798E828F40
:1042DC0083A3AC82AD83740212175AAA82AB8312E9
:1042EC00103A74021217247C007D00851982851AFD
:1042FC0083AA82AB838E828F83E0F912116CE9F56D
:10430C0008C3940A40030243BE120698E9700CA934
:10431C00081211CC795012134C806F740F2508F5CC
:10432C008274083400F583740180407401650B704D
:10433C005E1243C85059E890077A802F7401650BC0
:10434C00704D8E828F83E0F8C3940A5042E8900A35
:10435C00EC80187401650B70368E828F83E0F874D4
:10436C00F928C3940A5028E8900AEEF080477401AB
:10437C00650B701B90080DE0F88E828F83E090081F
:10438C000DF0E87030E06401702B1211BA802675C4
:10439C000A188021C3EA9427EB9400501574026527
:1043AC000B700F8E828F83124E9C120536E9F50A24
:1043BC008003750A02A90A7406024A928E828F83C0
:1043CC00E0F8C394022274F012176674CC12170E24
:1043DC008C0A8D0B742012175AAC82AD8375838FA7
:1043EC007582347406121621742012175AAC82ADE1
:1043FC008312116CE9F508744412175AE0FEE9C3F4
:10440C00940A400302454075F006E9A4F5097426A8
:10441C0012175AAC82AD837A0E74202509F9121347
:10442C0046E97009743212175AE0FF80027F00903F
:10443C000AE9E06402700474018001E4F50D780D62
:10444C0012197DEEFDEFFCA908AA0AAB0B1211F0B4
:10445C0074011217247C147D007900740C12175A05
:10446C00AA82AB8312104C740C12175AAC82AD8317
:10447C007A1074242509F9121346E9703C7C1079E2
:10448C00FF740C12175AAA82AB831210ACE9702974
:10449C00741C12175AAC82AD837A0474252509F961
:1044AC00121346740C12175AAC82AD83EFA2E0E4DF
:1044BC0033F9AA0AAB0B1205C0851982851A83AC95
:1044CC0082AD837A0C74702508F9121346E9705387
:1044DC00851982851A83AA82AB8312119C750800F8
:1044EC00E50875F003A4F8A9F0851982851A83E50F
:1044FC008228F8E583124CA6124E96601D8882899C
:10450C0083A3A3E0F50E750F00780E121979AA0A91
:10451C00AB0B12082474021217240508E508C39487
:10452C000440BDEFA2E1500C900765E0F9AA0AAB7C
:10453C000B12082A74046E7027900AE9E06402706A
:10454C001F7A00900779E060010A900766E060042A
:10455C00780480027800E84AF9AA0AAB0B120680AC
:10456C0079007434024A9274F0121766EAFEEBFF7B
:10457C008C088D09750A0AE9600C146009146037FF
:10458C001460790246221211AEE9F50AC3940A406E
:10459C0003024622E5084509607C750E06750F007E
:1045AC00780E121979EEFCEFFDAA08AB0912103443
:1045BC007402121724805F750B00750E06750F00C0
:1045CC00780E121979EEFCEFFDE50B75F00EA4F8E0
:1045DC00A9F0748728FA740739FB1210467402127A
:1045EC001724E9600C850B0AE50AC3940A5027804E
:1045FC0016050BE50BC3940A501C80BE1211B4E9CE
:10460C00F50AC3940A500FE50845096009AA08ABDE
:10461C0009A90A1211A8A90A024A9574F41217667C
:10462C00890875091574FF6A700374FF6B70277E17
:10463C0000AC087A027B00EEF912118AE96003756E
:10464C0009000EEEC3940A40E8E50860537ADE7B5D
:10465C0011120A28804A120A0A8A0A8B0BAE0AAF78
:10466C000BEE4F60387C007D00EE2405FAEF340031
:10467C00FB8E828F83A3A3A3A3E0F912116CE9C371
:10468C00940A500CAC087A027B0012118A7509004E
:10469C00E508600CEEFAEFFB1211DE8003750914CD
:1046AC00A9098005740E1217247F0402183874F2BD
:1046BC00121766ECFEEDFF750815740E12175AE012
:1046CC00F50AA3E0F50B74FF6A700374FF6B70219D
:1046DC00750900AC0AAD0BEEFAEFFBA909121190AB
:1046EC00E960037508000509E509C3940A503F8089
:1046FC00E2120A0A8A828B83E5824583602D7C0054
:10470C007D00E5822405FAE5833400FBA3A3A3A373
:10471C00E0F912116CE9C3940A5013AC0AAD0BEE1C
:10472C00FAEFFB1211907508008003750814A908A4
:10473C000254D8C082C08390077FEAF0A3EBF090BC
:10474C000765E0FC7D007A267B0012053690076534
:10475C00E0F91207A002533374F012176674EC12CE
:10476C00170EEAFEEBFFEE240CF50CEF3400F50D02
:10477C00EE2405F50EEF3400F50FEE2409F50AEFE3
:10478C003400F50BEE2403F508EF3400F5098E82A6
:10479C008F83A3A3E024FA7003024A3624FD70032E
:1047AC0002495114700302483D14601024FD70033B
:1047BC00024928147003024985024A8E1256D360AE
:1047CC0048E0F5838882124A9D880E890FE8450FD0
:1047DC006037850C82850D83E0F50C780C12197D01
:1047EC00EE240BF582EF124C6DF9850A82850B8352
:1047FC00124E9C0A0A0AAB09850E82850F8312178A
:10480C00647401121724024A8E850A82850B831266
:10481C00199090077B1215FC1205D2740212172402
:10482C00E97003024A8E7901850A82850B83024A5C
:10483C00018E828F83A385820A85830BE06003023D
:10484C00490B850E82850F83E0A2E0400302490BE1
:10485C009008191256D6600302490B7C0E7D007924
:10486C0000851982851A83AA82AB8312104C850CA1
:10487C0082850D831252FEEA4B6010750C06750D85
:10488C0000780C121979EA2410801B1252F8120AC3
:10489C000AEA4B7003024A8E750C06750D00780CF3
:1048AC00121979EA2405FCEB3400FD740212175A34
:1048BC00AA82AB831210347402121724850E8285DF
:1048CC000F83E0A2E25004D2F08002C2F0A2F0E426
:1048DC0033F8740C12175AE048F0EEFCEFFD851912
:1048EC0082851A83AA82AB831211A2E970117A0213
:1048FC007B00900765E0F91210887900024A90124B
:10490C0056D37003024A8E124AA37003024A8E8554
:10491C000A82850B83E0FC7901024A2A1256D37075
:10492C0003024A8E124A9A890BE8450B7003024A1D
:10493C008E8E828F83A3E0FC79021252F8888285D6
:10494C000B83024A317C007D00EE2404FAEF340024
:10495C00FB850882850983E0F912116CE9F8C39490
:10496C000A4003024A8EEE240AFCEF124E72E8A4AF
:10497C002425F9121340024A8E1252F890077AE05D
:10498C006007900AECE0F9806F900AE9E070047916
:10499C00058065120A0A8A0C8B0DA80CA90DE82457
:1049AC0004F50CE93400F50D8E828F83A3A3A3A329
:1049BC00A3A3A3E0A2E05046E8497003024A8E8507
:1049CC000C82850D83E0FE6035850A82850B83E0C1
:1049DC005410702A740E12175AAC82AD83E8240559
:1049EC00FAE93400FBEEF912116CE97011790385C8
:1049FC0008828509831252FE1205CC024A8EAC0E37
:104A0C00AD0F850C82850D83E0F91252F81211EA74
:104A1C001256D3606D124AA360687C007900125262
:104A2C00F88E828F831217648058120698E97052A0
:104A3C0090080EE0640170151211C690080EE4F097
:104A4C007C0AFDF97A0F7B0812104C802D750A0038
:104A5C00850A08740F2508FE74083400FF8E828FB7
:104A6C0083E06401700BA90A1211CC8E828F83E44F
:104A7C00F0050AE50AC3940A40D6795012134C1279
:104A8C0011BA790174141217247F08021838124ACB
:104A9C00B2E0F8A3E0F922124AB2E0F8A3E0F9E898
:104AAC00FEE9FFEE4F22E0F5838882A3A32274F483
:104ABC0012176674F212170EEAFE8C0B75F006E9EB
:104ACC00A42420F508851982851A83AC82AD837ADB
:104ADC000EF9121346E970577C0679FF8519828509
:104AEC001A83AA82AB831210ACE97043740C1217B0
:104AFC005A124A9DE8F509E50B6005EE420980045F
:104B0C00EEF45209850982AA82E86A7001E9601BF9
:104B1C00740C12175AEAF0A3E4F0851982851A83F3
:104B2C00AC82AD837A0EA908121340790180027908
:104B3C00000246B074F212176674E612170E890A58
:104B4C008A088B09ECFEEDFF740C12175AAC82AD7F
:104B5C00837A0E75F006E9A42420F9121346E96055
:104B6C0003024C607C0679FF740C12175AAA82ABB4
:104B7C00831210ACE96003024C607470250AF50BCB
:104B8C00851982851A83AC82AD837A0CF91213468F
:104B9C00E96003024C5C851982851A83AA82AB8377
:104BAC0012119CE5084509702C7C0C790085198242
:104BBC00851A83AA82AB831210ACE96003024C5CA9
:104BCC007C0C7D007900851982851A83AA82AB83BF
:104BDC0012104C805D851982851A83AC82AD83AA34
:104BEC0008AB091211968A0C8B0DA80CA90DE8497B
:104BFC007028EE4F605E851982851A83AC82AD8376
:104C0C007A007B00121196EAF8EBF9EA4B604588C2
:104C1C00828983E508F0A3E509F0124C67FAEE6A85
:104C2C007001EF602BEEF04F700888828983E4F0FE
:104C3C00A3F0851982851A83AA82AB8312119C85F5
:104C4C001982851A83AC82AD837A0CA90B1213409E
:104C5C00790180027900741A0254D5E82402F58295
:104C6C00E93400F583E02274F71217667F00EF75C4
:104C7C00F003A4F8A9F0EC28F8ED124CA6E06A7049
:104C8C0003A3E06B7006E8FAE9FB800B0FEFC3940B
:104C9C000440DB7A007B0002505139F98882898309
:104CAC002274F71217667E00EE75F003A4F8A9F0D3
:104CBC00EA28F8EB124CA6E0F4FCA3E0F4FD8882A1
:104CCC008983ECF0A3EDF0124C67F4F00EEEC39474
:104CDC000440D502505174F212176674F412170E78
:104CEC00EAFEEBFF8C088D099008191256D670510C
:104CFC00EE4F7003024E6BEC45097003024E6B12C3
:104D0C0011AEE9900AEFF0C3940A4035750B007CA4
:104D1C000679FFE50B75F00EA4FAABF074812AFA54
:104D2C0074073BFB1210ACE96005850B0A800C057F
:104D3C000BE50BC3940A40D7750A0AE50A900AEFF3
:104D4C00F0900AEFE0C3940A4003024E6B75F00634
:104D5C00E0A4FB9008191256D6706FEEFCEFFD7AAA
:104D6C000E74202BF91213407C0C7D0079FF8519F1
:104D7C0082851A83AA82AB8312104C851982851AFC
:104D8C0083AC82AD837A0C900AEFE02470F9121395
:104D9C0040750C0E750D00780C121979EEFCEFFDB8
:104DAC00900AEFE075F00EA4F8A9F0748128FA745B
:104DBC000739FB1210347402121724900819E508F5
:104DCC00F0A3E509F07900024E6DE0C82406124EFE
:104DDC008F601A7A1B74212BF9121340124E7B240C
:104DEC0006F582E83400F583E4F0A380D7124E7BFD
:104DFC00240A124E8F60107A1B74222BF912134066
:104E0C00124E7B240A80DA124E7B240C124E8F60D9
:104E1C00107A1074232BF9121340124E7B240C8041
:104E2C00C0124E84124E8F602A7A1074242BF91201
:104E3C001340124E84F582E8124C6D2410FCA3E052
:104E4C00124E72900AEFE0A42425F9121340124E70
:104E5C0084808E90080DE060031211F61211E47933
:104E6C0001740C0254D53400FD7A0475F0062290BE
:104E7C000819E0F8A3E0C822900819E0F8A3E0C8EC
:104E8C00240822F582E83400F583124E9CEC4D2266
:104E9C00E0FCA3E0FD2274F412176674F212170EF4
:104EAC00EAFEEBFFE9C3940A5004EE4F700479025A
:104EBC00803E851982851A83AC82AD837A0E75F09B
:104ECC0006E9A42420F9121346E9F5087020750AA6
:104EDC0006750B00780A121979740212175AAC82F3
:104EEC00AD83EEFAEFFB1210347402121724A908EA
:104EFC000246B074F4121766EAFEEBFF75080075F3
:104F0C000A06750B00780A121979EEFCEFFDE5081C
:104F1C0075F00EA4F8A9F0748128FA740739FB1205
:104F2C0010467402121724E96004A908800B0508C6
:104F3C00E508C3940A40C8790A0246B574F71217FB
:104F4C006674F012170EEAFEEBFF750800851982E5
:104F5C00851A83AC82AD837A1075F006E508A4241B
:104F6C0023F9121346E9702C7C1079FF8519828580
:104F7C001A83AA82AB831210ACE97018EEFCEFFD19
:104F8C00851982851A83AA82AB831205A2E9700463
:104F9C00A908800B0508E508C3940A40B0790A7487
:104FAC001012172402505174F7121766750800E599
:104FBC000875F00EA4F8A9F0748128FE740739FF67
:104FCC00EEFCEFFD7A0E75F006E508A42420F9122C
:104FDC001346E9602C7C067D0079FFEEFAEFFB129C
:104FEC00104C7C067D0079FFEE2406FAEF3400FBB2
:104FFC0012104CEE240CF582EF3400F583E4F0A390
:10500C00F00508E508C3940A40A590080DE060037C
:10501C001211F61211E4802D74F71217667E007FC0
:10502C00007C0679FFEF75F00EA4FAABF074812AC0
:10503C00FA74073BFB1210ACE970010E0FEFC3942E
:10504C000A40DEEEF97F0102183874F71217667EFB
:10505C0000EEF91211CC0EEEC3940A5003E960F184
:10506C0080E374F312176674CB12170EE9FE900AE4
:10507C00EFE06E701B7A017B00900765E0F912106F
:10508C008E7A027B00900765E0F912108E121202E4
:10509C0075F006EEA4FF74202FF508742712175A2A
:1050AC00AC82AD837A0EA908121346E96003025153
:1050BC00A87C0679FF742712175AAA82AB831210A8
:1050CC00ACE960030251A87C0E7D0079FF742712B5
:1050DC00175AAA82AB8312104C7C1B7D0079FF748B
:1050EC000C12175AAA82AB8312104C7C0C7D0079DF
:1050FC00FF851982851A83AA82AB8312104C742700
:10510C0012175AAC82AD837A0EA908121340E9F536
:10511C0008740C12175AAC82AD837A1B74212FF9C8
:10512C00121340E9F509740C12175AAC82AD837A4C
:10513C001B74222FF9121340E9F50A740C12175A3A
:10514C00AC82AD837A1074232FF9121340E9F50B5E
:10515C00740C12175AAC82AD837A1074242FF91286
:10516C001340E9F50C740C12175AAC82AD837A0417
:10517C0074252FF9121340E9FF851982851A83AC27
:10518C0082AD837A0C74702EF9121340E9F8E5099C
:10519C00450A450B450C4F4842088003750800A989
:1051AC000874351217247F0502183874F712176625
:1051BC00E9900765F01211BA02505174F412176697
:1051CC00EAFEEBFF5480700302525F900765E0F932
:1051DC001210708A088B09EA4509607078018A827E
:1051EC008B83E02450603D14600624E1604F8052B4
:1051FC00A3A3A3A3E0704E8A828B83A3A3A3A3A330
:10520C00A3A31219908A828B83A3A3A3A3A3124EE8
:10521C009C8A828B83A3A31252FE12117874021201
:10522C0017248021A3A3A3A3E0641E701879008A1D
:10523C00828B83A3A31252FE121172800812118466
:10524C00E9F8E86007AA08AB0912105EEEFAEF6401
:10525C00808065EE540260237C007D007A007B0028
:10526C001211A2E960117A017B00900765E0F91236
:10527C001088EE6402803F7A028046EEA2E0503F36
:10528C001252D21252FE1211FCE9602F1256D36048
:10529C001F124A9A88088909E8450960137C00792D
:1052AC00011252D21252FE850882850983121764AC
:1052BC00121202EE6401FAEFFB80087A0180027A86
:1052CC00007B000246B5900819E0F8A3124AB2A37D
:1052DC00227F02021838C082C083900765E0F98AE9
:1052EC00828B83A31252FE12082A803B850882858A
:1052FC000983E0FAA3E0FB22C082C08374FF12177B
:10530C000E1211C0E9C39402851982851A834004D8
:10531C0074028002740AF0AC82AD837A01790512B2
:10532C0006B07401121724D083D08202013274F2B9
:10533C0012176674E812170EEAFEEBFF890A8C0846
:10534C008D097C187D007900851982851A83AA82C3
:10535C00AB8312104C851982851A83EEF0A3EFF003
:10536C00900767E0C0E0740212175AD0E0F0900783
:10537C0068E0C0E0740312175AD0E0F0900AEEE037
:10538C00C0E0741712175AD0E0F0741512175AE0D7
:10539C0054FEF8A3E0F9900AEDE0A2E0E433FAE859
:1053AC004AF8741512175A1254E4A2E15004D2F0C0
:1053BC008002C2F0E854FDFAA2F0E43333F8EA4874
:1053CC00F8741512175A1254E4A2E35004D2F08068
:1053DC0002C2F0E854F7FAA2F0E433F50C750D00B4
:1053EC007403780C1216FB1254DD12175A1254E483
:1053FC00A2E45004D2F08002C2F0E854EFFAA2F01A
:10540C00E433F50C7404780C1216FB1254DD1217ED
:10541C005A1254E4A2E55004D2F08002C2F0E854CF
:10542C00DFFAA2F0E433F50C7405780C1216FB12BB
:10543C0054DD12175A1254E4A2E25004D2F0800246
:10544C00C2F0E854FBFAA2F0E433F50C7402780CC9
:10545C001216FB1254DD12175AE8F0A3E9F090076C
:10546C0068E0601D750C10780C1219797C697D0749
:10547C00740612175AAA82AB8312103474021217D4
:10548C0024900779E06011E50A6009741512175A27
:10549C00E04402F0780180027800741412175AE08C
:1054AC0048F0900766E06004780480027800741479
:1054BC0012175AE048F0AC08AD09851982851A8399
:1054CC00AA82AB831205C674181217247F06021821
:1054DC0038EA450CF8741522E8F0A3E9F0900AEDCF
:1054EC00E02274F312176674E512170EEAFEEBFF56
:1054FC008C098D0A742812175AE0F50C75F006E920
:10550C00A4F87408650A700474228002742128F5CA
:10551C000B7C1B7D007900851982851A83AA82ABCE
:10552C008312104C851982851A83AC82AD837A1B49
:10553C00A90B121346E97032741A12175AE024F9A7
:10554C00C3940A5025E50CF50B780B12197D7401E8
:10555C0012175AAC82AD83E509A2E0E433F9EEFAF6
:10556C00EFFB1205D87401121724741B0251AF748F
:10557C00F71217661208A2750800E50875F00EA45C
:10558C00F8A9F0748128FE740739FF7C0679FFEEC8
:10559C00FAEFFB1210ACE97009EEFAEFFB7900128E
:1055AC0008A80508E508C3940A40CF02505174F6C8
:1055BC0012176674FD12170EEAFEEBFF90081B1211
:1055CC0056D6703975081D75090878081219797541
:1055DC00080275090078081219797508EF75098F9A
:1055EC0078081219797CFF7DFF7A017B001206F294
:1055FC00740612172490081BEAF0A3EBF090081B1A
:10560C001256D670030256BDE4F508F50978081257
:10561C001979740412175A8582088583097808123F
:10562C001979740412175A8582088583097808122F
:10563C00197990081D121990790290081B1256CBFB
:10564C001208187408121724E97034851982851A07
:10565C0083E0FA740112175AE0F9EA2400F508E421
:10566C0039F509EA45096017780812197990081B71
:10567C001252D5A31256CB1211787402121724E4CD
:10568C00F508F509780812197990081D1219907C03
:10569C00FF7DFF90081B1252FE1206FE74041217B7
:1056AC002490081BEAF0A3EBF090081B1256D6705E
:1056BC000479018002790074031217240252DD125E
:1056CC004E9CEEFAEFFB2290077FE0F8A3E0F9E89E
:1056DC004922C082C0839008191256D660109008D7
:1056EC00191252FE12105E900819E4F0A3F0900A01
:1056FC00EF740AF0025333C082C08390619074043B
:10570C00F0A37448F0A3E4F09061807440F09061D1
:10571C00BC7407F09061877469F09061B67416F0F0
:10572C007900120B127902120B18902704E493F4EF
:10573C006006E493F9120AEE7905120E18025AFE6D
:10574C00C082C083E9540FF9906185E0696012E56D
:10575C00C654804449F5C6E59E547F644970F8E907
:10576C00F053C680E59E547F70FA025AFE74F7120D
:10577C001766E5A8FE53A87E120AFAC2BA539AFE1F
:10578C00C289759B00C2C2120B0075A91175B905AF
:10579C00120B06D2BA439A0174805E42A80260953D
:1057AC00C082C083906181E4F0A3025AFB75E900CA
:1057BC0075910075BF00020132C082C08390618177
:1057CC00E4F0A374C0F0A3E4025AFDC082C0837459
:1057DC00F812170E9003A4126A2E70030258B6909A
:1057EC0003A4E0544060237908851982851A83AAA2
:1057FC0082AB83120C0E851982851A83AA82AB8325
:10580C001208C69003A4E054BFF0E05480601079F5
:10581C000C7A657B05120C0E9003A4E0547FF0E02B
:10582C00A2E0500F7900120B121208CC9003A4E0E6
:10583C0054FEF0E05402600F7901120B121208CCE6
:10584C009003A4E054FDF0E05404600F7900120BB7
:10585C00181208D29003A4E054FBF0E05408600F37
:10586C007901120B181208D29003A4E054F7F0E05F
:10587C005410600F7902120B181208D29003A4E096
:10588C0054EFF0E05420600F7903120B181208D279
:10589C009003A4E054DFF0A3E05401600D120B243C
:1058AC001208D89003A5E054FEF0740812172402D5
:1058BC005AFEC082C083E9600514602A804F906153
:1058CC009A7433F0A37455F09061A0743AF090057B
:1058DC003FE064017009C2919003A67467802D901B
:1058EC0003A67461802690619A743FF0A3745AF0F9
:1058FC009061A0747FF090053FE064017009D29133
:10590C009003A6747180059003A6746AF0025AFE87
:10591C00C082C083E9600B14600D14601714600C16
:10592C0080209027088015902709801090053FE073
:10593C006401700590270A800390270BE493906113
:10594C0086F0025AFE74EE12176674F412170E8566
:10595C001982851A83AC82AD8375838F7582AD7481
:10596C000412162190270893F46003025A7B907856
:10597C0008E0C394025003025A5B740412175AAC29
:10598C0082AD8375838F7582267408121621FC7E76
:10599C00FF7FFF8E0C7D008C8285820E800F740839
:1059AC006D606D74096D6068740A6D60638D087547
:1059BC000900740278081216FB125A851215DEA91A
:1059CC0009E50AC9F888107418780812151FE51033
:1059DC004508FAE9FBE50EC333F8E433F974041215
:1059EC00175AE58228F582E58339125F85C3E89A58
:1059FC00E99B4008E8C39AF8E99B8006EAC398F84B
:105A0C00EB99F9C3E89EE99F5006E8FEE9FF8D0C7F
:105A1C000DEDC39413408774FF6E700374FF6F60B9
:105A2C0024850C08740278081216FB125A8512157C
:105A3C00DE851982851A83E582250EF582E58312AF
:105A4C006424E508F00CECC39404500302599B75D4
:105A5C0008017509007808121979740212175AACEA
:105A6C0082AD837AC27B0912124474021217247419
:105A7C000C1217247F0A02183874482508F5827412
:105A8C00783509F583780822C082C083906186E05E
:105A9C00F890270BE49368700990270AE4939061BF
:105AAC0086F09061AE7468F0A3746AF090624574ED
:105ABC00FBF0A304F053F4FD43FE0290053F740188
:105ACC00F09061A0E0643A700479008002790112D0
:105ADC000B12025AFEC082C0839004F1E064017084
:105AEC000A9004F6E06004790C800279008003F0DF
:105AFC00A3F0D083D082020132C082C08375E1F161
:105B0C009004F4E0604D1460091460511460491461
:105B1C007050120B369004EAE0F97AEB7B04120D0C
:105B2C009A908F851215FC120DD0908FC11215FC16
