:020000040000FA
:0600000002010702219835
:03002B0002261595
:030033000225F0B3
:03003B0002263A60
:030043000225A3F0
:0300530002220E78
:03006B000225CBA0
:10008300022047E5C754F84401F5C779012200006F
:100093000080FB120086B900030200F1E4792178A5
:1000A30008B800028004F709D8FCE479297802B87B
:1000B30000028004F709D8FCE4900281788A790D64
:1000C3008002F0A3D8FCD9FA7A0A7B0F9001377823
:1000D300F879038015E493A3AD82AE838A828B8380
:1000E300F0A3AA82AB838D828E83D8E9D9E7758288
:1000F300857583FF740212011975829175830074EB
:100103000012011975D00075813F751A81751B02A4
:10011300759F00020096C09FF59FE473D09F22D085
:1001230083D082C09FE493C0E0740193C0E0740263
:1001330093F59F22FF0000B4000028002800283018
:1001430075A000A000A000A00000080008E001F0D6
:10015300001000100010001000100010005000509C
:1001630000500010001000D0070000000000000F36
:100173000001000500307507001000010081FF0039
:10018300000000FF2C064A063206FF0202020802A4
:100193005000A0000000E80302DB8F010000C98FBC
:1001A30002DF8F010000610F02E58F010000B3023F
:1001B30002DF8F010000620F02FF8F010000C902FE
:1001C30002DF8F010000630F02E98F010000CB0201
:1001D30002DF8F010000640F02EB8F080000CC02E6
:1001E30002DF8F010000650F02ED8F010000660F33
:1001F300FF0100FF2002DB8F010000CC8F02DF8FA5
:10020300010000CA0F02EF8F000000000002E38F1D
:1002130003000019035C0C5C0C5C0C5C0C5C0C5C58
:100223000C5C0C5C0C5C0C5C0C5C0C5C0C5C0C32B5
:100233000F4A0F2C0FFFFF02020202020202020208
:10024300010D000000100102DB8F010000CF8F02BF
:10025300DF8F0100000D1002FB8F010000830802F5
:10026300DF8F0100000E1002F98F010000138F02CF
:10027300DF8F0100000F1002F78F010000058F02CE
:10028300DF8F010000101002F58F010000B58E0210
:10029300DF8F010000111002F38F0100007F8E0237
:1002A300DF8F0100001210020D90010000918E02F9
:1002B300DF8F010000131002F18F010000A38E02F3
:1002C300DF8F010000141002D58F010000F78E02AA
:1002D300DF8F010000151002E78F010000161001E7
:1002E300E803053F100AFF00013075030201060011
:1002F30000000000000000000000000000000000FB
:100303000000000000000000000000FFFF06008066
:100313000CE803FF09094163746E6F7661320512BD
:1003230050002003020A000201060302FFFF536983
:100333006D706C6520424C4520506572697068652C
:1003430072616CDE140000EA140A4368617261632F
:100353007465726973746963203100024368617262
:10036300616374657269737469632032000843685A
:100373006172616374657269737469632033001019
:10038300436861726163746572697374696320346D
:1003930000024368617261637465726973746963AF
:1003A30020350002DB8F010000D28F02DF8F0100B6
:1003B300001F11020390030000FB0E02E18F0100F6
:1003C30000201102DF8F01000031110205900100AE
:1003D30000FC0E02E18F010000321102DF8F0100E9
:1003E300004311020790020000FD0E02E18F01009D
:1003F30000441102DF8F0100005511020990000033
:1004030000FE0E02E38F030000FF0E02E18F0100E6
:1004130000561102DF8F0100006711020B900400E8
:1004230000050F02E18F010000681112012206C3CB
:10043300031201221DC3031201224EC30312012220
:1004430089C303120122B3C303120122DDC30312C2
:100453000122F4C3031201220BC40312012222C49A
:10046300031201224BC4031201225EC403120122B0
:1004730074C40312012287C403120122AEC40312FF
:100483000122C6A302120122CAA40212012202A55A
:100493000212012225A50212012230A50212012215
:1004A30053A50212012262A60212012237A70212E9
:1004B3000122B2A7021201223AA80212012275A850
:1004C30002120122ACA8021201223AA9021201224D
:1004D30013AA0212012273AA021201227EAA021295
:1004E3000122FDAA0212012200AB0212012203AB78
:1004F3000212012292AB0212012295AB02120122D7
:10050300C5AB02120122EFAB02120122DDAC0212D3
:1005130001228FAD02120122B98903120122E1895E
:10052300031201220F8A03120122468A03120122B7
:10053300A48A03120122EF8A031201223A8B0312C7
:1005430001227A8B03120122C08B03120122EE8B4C
:1005530003120122AB8C03120122B58C0312012278
:10056300C28C03120122F58C03120122C18D0312E6
:100573000122CD8D03120122E58D03120122EF8D9D
:100583000312012217CB0312012225CB03120122EE
:100593003DCB0312012255CB03120122A9D4011230
:1005A300012255D501120122D0D501120122F1D623
:1005B300011201222DD701120122D6D701120122E5
:1005C300BDD80112012221DA0112012278DA0112C7
:1005D3000122F9DA01120122E9DB0112012236DCE0
:1005E30001120122BCDC01120122EEDC0112012204
:1005F30002DF0112012244DF0112012262DF011234
:100603000122E5DF01120122B9E00112012281E199
:100613000112012252E20212012225E302120122F7
:10062300CEE30212012221E402120122D1E40212DA
:1006330001225DE50212012249E60212012278E657
:10064300021201228BE702120122D3E702120122D6
:10065300A8E802120122E4E80212012200E90212D0
:100663000122C6CD03120122E9A003120122FFA039
:100673000312012225A10312012241A20312012226
:100683004BA20312012280A30312012278A40312B6
:1006930001225EFA021201228EFB02120122C1FB29
:1006A300021201220BFC02120122D2FD02120122CC
:1006B300BAC40112012224C50112012283C6011208
:1006C300012293C601120122C0C60112012217C7DB
:1006D30001120122C0C701120122C7C8011201225F
:1006E30091C901120122F1CA0112012234CB011274
:1006F3000122D9CB0112012226CC011201224CCCBA
:10070300011201225ACE011201225FCE01120122EF
:1007130064D001120122B1D00112012224D10112AD
:10072300012257D101120122F9D101120122A2D2D1
:1007330001120122DAD201120122DDD201120122B9
:1007430025D30112012265D301120122BCD3011268
:100753000122B4B603120122CCB60312012214B74C
:10076300031201222AB70312012271B703120122D5
:1007730085B80312012212B9031201225DB90312D3
:100783000122CD4400120122D94400120122144552
:1007930000120122594500120122194600120122BA
:1007A3009F46001201220447001201223047001223
:1007B3000122694700120122A749001201228B4B33
:1007C30000120122714D00120122B44E00120122C7
:1007D3000251001201221452001201225F5300122F
:1007E30001226F54001201228C5400120122C754BB
:1007F30000120122E954001201224C550012012279
:100803000D5A00120122A25A00120122F35A0012B9
:1008130001221A5B001201226C5B001201228A5B27
:1008230000120122E45B00120122CD5C00120122BE
:10083300435E00120122C75E001201222C930312B1
:100843000122369303120122799303120122949316
:10085300031201222494031201224C940312012255
:10086300899403120122C09403120122E994031212
:1008730001225E95031201227395031201228895CA
:1008830003120122B99503120122CD95031201220D
:10089300F295031201222C96031201225896031299
:1008A30001229096031201220F97031201225897F7
:1008B30003120122829703120122AD970312012230
:1008C300D9FE0112012206F20112012234F20112B1
:1008D300012282F30112012262F40112012281F446
:1008E30001120122FEF40112012241F5011201223B
:1008F30097F60112012258F701120122DFF90112C2
:10090300012280FA0112012276FB0112012273FCFB
:1009130001120122CDFD0112012258FE0112012212
:1009230065C603120122CEC60312012222C7031297
:10093300012249C7031201227AC7031201227C9CB8
:1009430003120122E99C03120122309D03120122AA
:10095300489E03120122449F0312012227A003127F
:100963000122D4CA0212012216CB02120122E8CBC1
:1009730002120122C1CC02120122BBCD02120122BA
:100983009DCE0212012206CF02120122BCCF021217
:10099300012230D0021201229CD002120122C5D0C2
:1009A300021201223FD102120122D8D102120122E6
:1009B3003DD20212012252D20212012298D2021215
:1009C3000122B1D20212012216D30212012219D33B
:1009D30002120122FAAA0312012222AB03120122FC
:1009E30060AB031201221EAC0312012285AC031279
:1009F3000122A1AC03120122C9AC03120122F9ACFA
:100A03000312012208AD0312012285AD0312012254
:100A1300ABAD03120122B3B40112012251B601128C
:100A230001226CB801120122A8B801120122D5B823
:100A330001120122BAB90112012201BA01120122E3
:100A430045BA0112012257BA0112012297BA0112C3
:100A53000122C4BA011201220FBB011201224FBBB2
:100A6300011201227DBB01120122CFBB011201221F
:100A73005FBC01120122FDBE0112012213C101124A
:100A8300012251C101120122E2C20112012227C334
:100A9300011201229EC301120122E8C301120122A5
:100AA30013C4011201225BC102120122DAC1021234
:100AB30001229CC702120122ABC80212012213CAEF
:100AC30002120122AACA021201222E5F001201227F
:100AD300775F00120122A45F00120122D75F001288
:100AE3000122E45F00120122F05F00120122026082
:100AF30000120122E9600012012247610012012263
:100B03007C6100120122BF62001201220C630012F9
:100B130001223063001201229D63001201225B64F3
:100B230000120122146500120122816500120122C4
:100B3300336600120122436600120122CA660012C4
:100B43000122896700120122B667001201222F6871
:100B5300001201228C6800120122D66800120122C1
:100B63006C6900120122376A00120122EC6A00123A
:100B73000122616B00120122C26B001201222C6C54
:100B830000120122656C00120122076D001201227E
:100B9300176E00120122576E00120122746E0012AA
:100BA3000122936E00120122DA6E00120122FF6EFF
:100BB300001201222C6F00120122A66F00120122E3
:100BC300E76F001201220B7100120122BB710012A8
:100BD30001221272001201227C720012012295720C
:100BE3000012012200AE0212012253AE02120122B0
:100BF3005FAE0212012234AF021201225BAF021276
:100C0300012296AF0212012202B0021201223EB06B
:100C13000212012277B0021201228FB002120122C6
:100C2300E4B002120122FDB00212012246B1021207
:100C3300012259B10212012273B10212012289B1B8
:100C430002120122BCB20212012203B402120122D7
:100C530005B502120122FFB502120122B5260012C8
:100C63000122C77200120122F77200120122BF761D
:100C730000120122167800120122DF7800120122ED
:100C83005F7A00120122307B001201226D7B001279
:100C93000122907B00120122CE7B00120122D77B1E
:100CA30000120122217C001201222B7C001201225E
:100CB300D57C00120122AE7D00120122027E0012B9
:100CC3000122647E00120122B77E00120122E67E19
:100CD30000120122237F0012012226A30112012206
:100CE3008DA60112012293A60112012215AC011255
:100CF30001228EB00112012264B40112012282A4E6
:100D030003120122F8A4031201220EA503120122E9
:100D13004FA50312012289A50312012202A6031281
:100D230001223DA603120122B0A603120122EEA660
:100D330003120122F7A60312012203A703120122C1
:100D43001FA7031201224AA70312012260A703125D
:100D53000122A4A703120122F684031201220985AA
:100D6300031201222385031201224C85031201225F
:100D73008F8503120122CE85031201220C860312F2
:100D830001227186031201228686031201229186B3
:100D9300031201229E8603120122B5860312012249
:100DA300C38603120122CE8603120122DA860312BE
:100DB3000122ED8603120122F886031201221B870A
:100DC30003120122C28703120122D28703120122D6
:100DD300EC870312012209880312012225880312DA
:100DE30001224A88031201225588031201226A88CC
:100DF300031201227E8803120122DF8803120122DB
:100E0300E58803120122EB8803120122F188031201
:100E130001220989031201223C8903120122058060
:100E23000212012289800212012238810212012258
:100E3300978202120122B88402120122A4850212AF
:100E43000122D98502120122FB8502120122AA8600
:100E530002120122A28802120122CB88021201226D
:100E63005D89021201228F89021201229C890212DA
:100E73000122F38902120122198A02120122868CAD
:100E830002120122898D02120122E18D0212012236
:100E93009AE301120122A4E4011201228BE501125B
:100EA300012295E501120122B7E501120122C3E5F2
:100EB300011201225CE7011201228BE701120122D8
:100EC300A7E80112012200E90112012266EA0112D8
:100ED300012245EB01120122A1EB011201220EECCA
:100EE3000112012249EC0112012288EC01120122B4
:100EF30041EF011201225BEF01120122E7EF011220
:100F03000122F5EF011201224EF0011201225CF0E1
:100F130001120122CFF00112012233F10112012249
:100F23007DF1011201222F8E02120122518E021233
:100F330001227790021201228C9302120122A494BF
:100F4300021201225795021201223996021201223E
:100F5300C0C403120122E5C40312012257C50312C0
:100F63000122D8DA02120122E1DA02120122EADABC
:100F730002120122C1DB0212012272DD02120122DE
:100F8300A8DD02120122E2DD0212012218DE0212A2
:100F9300012252DE0212012286DE02120122B2DE99
:100FA30002120122FBDE0212012235DF02120122AC
:100FB3007EDF02120122D6DF021201220BE00212AF
:100FC300012266E002120122A0E002120122F1E0F6
:100FD3000212012227E10212012261E1021201221F
:100FE3008FE102120122B2E102120122EECB0312BF
:100FF30001221ACC0312012275CC031201227FCCE9
:10100300031201228FCC031201223DD302120122CB
:1010130052D302120122AAD30212012211D40212C4
:10102300012259D402120122CFD402120122FED48A
:10103300021201220CD50212012270D502120122E2
:10104300AED502120122C9D50212012261D60212C3
:1010530001220AD7021201228DD702120122C6D71A
:101063000212012251D802120122A8D8021201222F
:1010730007D90212012219D9021201223FD9021201
:10108300012248D902120122A1DA02120122C0C7A9
:10109300031201229FC803120122A5BE03120122DB
:1010A300EABE0312012230BF03120122C3C003129E
:1010B30001224ACE0312012265CE0312012275CE0C
:1010C3000312012299CC031201224BEF02120122D7
:1010D3006BEF021201226FF002120122BBF0021227
:1010E3000122DBF0021201222EF1021201229BF1F6
:1010F30002120122E1F10212012245F2021201223F
:10110300F7F402120122768E031201222B8F0312AF
:101113000122BC8F03120122EC8F0312012246909D
:10112300031201223D910312012242910312012273
:101133004791031201224A9103120122589103128B
:1011430001226F9103120122839103120122B891AC
:10115300031201220792031201220A9203120122AF
:101163005D920312012280920312012298920312CC
:101173000122D59203120122D89203120122008088
:10118300031201222580031201226080031201222F
:101193003CCD03120122C02600120122CE290012E7
:1011A30001228E2B00120122392C00120122DD2C88
:1011B30000120122762D00120122A52D0012012218
:1011C3007F32001201222A33001201229A340012C4
:1011D3000122023500120122B635001201227838AD
:1011E30000120122B738001201222B39001201220A
:1011F3008A3900120122E93900120122583A0012F9
:1012030001224B3B00120122913B00120122D63BEB
:1012130000120122F93B00120122743D0012012247
:10122300873D00120122903E00120122CF3E0012A0
:101233000122FB3E001201224E3F001201226F3FAA
:1012430000120122B33F00120122054200120122C3
:10125300464200120122F142001201225C430012B5
:10126300012299440012012228CA0312012239CA19
:101273000312012287B90312012222BC03120122A5
:101283003ECF03120122F3AD031201220CAE03126F
:10129300012229AE03120122D9B003120122D7B3CE
:1012A300031201227DB40312012299B60312012213
:1012B300FBC80312012231C9031201228FC9031291
:1012C3000122EBC90312012275E902120122B0E9DE
:1012D30002120122EBE902120122F0E902120122B9
:1012E300F5E9021201224EEA02120122E3EA021296
:1012F3000122D3EB0212012230EE0212012208F581
:1013030002120122E7F6021201226EF702120122F3
:1013130072F802120122F0F802120122D4F9021229
:101323000122D7F902120122E5F90212012202FA7F
:10133300021201222BFA0212012239FA02120122AD
:1013430050FA02120122E7B003120122F3B0031292
:101353000122FBB00312012207B1031201220FB1D4
:10136300031201221DB10312012242B10312012211
:101373005FB10312012284B103120122B0B103123F
:101383000122CFB103120122F4B10312012233B2BD
:101393000312012257B20312012273B20312012274
:1013A300C2B2031201222FB30312012207C1031297
:1013B300012270C1031201222EC203120122ADC207
:1013C30003120122D4A70312012206A80312012249
:1013D3000EA90312012233AA031201225D990212FC
:1013E3000122439A02120122909A02120122D39AF5
:1013F30002120122489B02120122A99B021201221E
:101403001E9C02120122FA9C02120122059E021264
:101413000122869E021201222DA002120122C3A0E4
:101423000212012236A102120122B2A102120122EA
:10143300C9A10212012200A3021201225AA302121D
:101443000122109001120122A894011201227C971B
:1014530001120122A59701120122CE970112012246
:10146300809801120122669A01120122A19B0112A6
:101473000122D7A00112012210A10112012254A1BD
:101483000112012266A20112012230BC03120122C1
:1014930050BC0312012263BC0312012274BC031269
:1014A30001229FBC03120122A4BC03120122BBBC74
:1014B30003120122CBBC03120122DBBC0312012263
:1014C300C3BD0312012243BE03120122CAB7021293
:1014D300012287BA02120122DFBD02120122E2BDFC
:1014E30002120122D6BE021201220FBF02120122F2
:1014F3004FBF021201227EBF02120122D5970312AF
:1015030001222898031201224598031201223399DC
:1015130003120122B09903120122D79A0312012266
:101523003F9C03120122CCCE0312012212CF0312DD
:101533000122DAFF02E066701008A3E066700A0871
:10154300A3E066700408A3E06622C3E7960809E7F0
:10155300960809E7960809E79622C3E09608A3E0F0
:101563009608A3E09608A3E09622C008C3E096F588
:101573000808A3E096420808A3E096420808A3E0FF
:101583009645087001D3D00822080808EAC0E0EBAA
:10159300C0E086F0E7A4FA180986F0E7A42AFA184F
:1015A3000986F0E7A42AFA180986F0E7A42AFA19AB
:1015B30086F0E7A4FBE5F02AFA190886F0E7A42BE6
:1015C300FBE5F03AFA190886F0E7A42BFBE5F03ABD
:1015D300FA18180986F0E7A4C5F02BFBE43AFA19C8
:1015E30008E7C5F0C6A426F6E5F03BFBE43AFA1893
:1015F30086F0E7A4F6E5F00826F6E43B08F6E43ABD
:1016030008F6D0E0FBD0E0FA22E4CFC0E0E4CEC09D
:10161300E0E4CDC0E0E4CCC0E075F020E626F608B7
:10162300E633F608E633F608E633F6181818EC3313
:10163300FCED33FDEE33FEEF33FFC3EC9709ED977B
:1016430009EE9709EF97191919400FFFEC97FC0959
:10165300ED97FD09EE97FE191906D5F0BFECF709D2
:10166300EDF709EEF709EFF7191919D0E0FCD0E00F
:10167300FDD0E0FED0E0FF226016080808C6C313C1
:10168300C618C613C618C613C618C613C6D5E0EACD
:10169300227009080808226016181818C6C333C632
:1016A30008C633C608C633C608C633C6D5E0EA2221
:1016B300E627F60809E637F60809E637F60809E6E5
:1016C30037F622E026F608A3E036F608A3E036F65E
:1016D30008A3E036F622E026F008A3E036F008A3DC
:1016E300E036F008A3E036F022C3E697F60809E6F1
:1016F30097F60809E697F60809E697F622C3E096F7
:10170300F008A3E096F008A3E096F008A3E096F0B3
:1017130022E056F608A3E056F608A3E056F608A31F
:10172300E056F622E056F008A3E056F008A3E05690
:10173300F008A3E056F022E0F608A3E0F608A3E0E1
:10174300F608A3E0F622E6F008A3E6F008A3E6F025
:1017530008A3E6F022E0FAA3E0FBA3E0FCA3E0FD8C
:1017630022EAF0A3EBF0A3ECF0A3EDF022CAC0E071
:10177300E6F0A308DAFAD0E0FA22CAC0E0E0A3C593
:1017830082CCC582C583CDC583F0A3C582CCC58277
:10179300C583CDC583DAE6D0E0CA22C3E498F8E472
:1017A30099F91217DF8026C3E49AFAE49BFBE92038
:1017B300E7E91217DFE498F8E499F922C3E498F80B
:1017C300E499F91217DFE498F8E499F9C3E49AFA73
:1017D300E49BFB22EB20E7CFE920E7E0B90010BB55
:1017E3000008E88AF084F8AAF022E4FBC8FA22EBA6
:1017F30070227B10C833C8C933C9335007C39AC397
:10180300DBF280069A50012ADBEAC833F4C8C933F5
:10181300F4C9FA2275F008E4C833C8C933C933C917
:101823009AC99B5004C92AC93BD5F0ECFBC833F4D1
:10183300C8E4C9FA22600D08C6A2E713C618C61386
:10184300C6D5E0F322600C08C6C313C618C613C678
:10185300D5E0F422700422600D18C6C333C608C64F
:1018630033C6D5E0F41822251A10AF08F51A400C38
:10187300151B8008F51A4002151BD2AF2200C0D0F9
:10188300251A10AF08F51A500C051B8008F51A50DD
:1018930002051BD2AFD0D022251AF58210AF08F56E
:1018A3001A400C151B8008F51A4002151BD2AF8590
:1018B3001B8322C582251AC582C583351B10AF073A
:1018C300F51B85821A8007F51B85821AD2AFC58363
:1018D30022251AF582E4351BF58322E473251AC504
:1018E30082C0E0E51B34FFC583C0E0E51AC39582DF
:1018F30024F810AF0885831B85821A800885831B13
:1019030085821AD2AFCEF0A3E520F0A37808E608CB
:10191300F0A3DEFAEFF0A3E58124FAF8E608F0A3DA
:10192300E608F0A3E608F0A30808E608F0A3E60833
:10193300F0A315811581D0E0FED0E0F81581158163
:101943001581E8C0E0EEC0E022251AC582C0E0E5BB
:101953001B34FFC583C0E0E51AC3958224F910AF99
:101963000885831B85821A800885831B85821AD28A
:10197300AFCEF0A3E520F0A37808E608F0A3DEFAE3
:10198300EFF0A3E58124FBF8E608F0A3E608F0A353
:101993000808E608F0A3E608F0A315811581D0E056
:1019A300FED0E0F815811581E8C0E0EEC0E02285A5
:1019B3001B83851A82E0A3FEE0A3F5207808E0A349
:1019C300F608DFFAE0A3FFE0A3C0E0E0A3C0E0E095
:1019D300A3C0E0E0A3C0E0E0A3C0E010AF088582AD
:1019E3001A85831B800885821A85831BD2AFD08317
:1019F300D08202011F851B83851A82E0A3FEE0A328
:101A0300F5207808E0A3F608DFFAE0A3FFE0A3C01F
:101A1300E0E0A3C0E0E0A3C0E0E0A3C0E010AF08B3
:101A230085821A85831B800885821A85831BD2AF22
:101A3300D083D08222C0D0251AC582C0E0E51B34F2
:101A4300FFC583C0E0E51AC3958224F310AF088570
:101A5300831B85821A800885831B85821AD2AFC8AF
:101A6300F0A3E9F0A3EAF0A3EBF0A37908E709F008
:101A7300A3D8FAECF0A3EDF0A3EEF0A3EFF0A3D01C
:101A8300E0F0A3D0E0F0A3D0E0F0A3E520F0A3E5DD
:101A9300F0F0A322851B83851A82E0C0E0A3E0F95E
:101AA300A3E0FAA3E0FBA37808E0F608A3DFFAE0DB
:101AB300FCA3E0FDA3E0FEA3E0FFA3E0C0E0A3E0FE
:101AC300C0E0A3E0F5D0A3E0F520A3E0A3F5F01078
:101AD300AF0885831B85821A800885831B85821A3C
:101AE300D2AFD082D083D0E0F8D0E0327404800645
:101AF300740280027401C0E0F40412189BD0E01257
:101B03001770227404800474028000CCC0E0EDC01E
:101B1300E0E51AC39CCCAD1B50011D10AF068C1A17
:101B23008D1B80068C1A8D1BD2AF12177DD0E0FD62
:101B3300D0E0FC22D083D082E9C0E0E493A3C38643
:101B4300F0C5F095F0F908E493A386F0C5F095F09D
:101B5300700BE493A3C3994005E9048002A3E475E1
:101B6300F002A42582F582E5F03583F583D0E0F910
:101B7300E493A3C0E0E493C0E022D083D082ECC01E
:101B8300E0EDC0E0E493A3FCE493A3FDED4C600D12
:101B9300121BC9EC24FFFCED34FFFD80EFE493A39B
:101BA300FCE493A3FDED4C600D121C08EC24FFFC38
:101BB300ED34FFFD80EFD0E0FDD0E0FCE493A3C063
:101BC300E0E493C0E022C0E0C3E493960874019379
:101BD3009618400FE49366700808740193661870B2
:101BE300007019A3A3C3E49396087401939618A3F2
:101BF300A3400DD0E0D0E0D0E0021BB9A3A3A3A380
:101C0300A3A3D0E022C0E0C0F088F0E4936670089C
:101C13000874019366187000A8F0A3A3700BD0F0AA
:101C2300D0E0D0E0D0E0021BB9A3A3D0F0D0E022F3
:101C340074F512194CEAFEEBFFEE2434F8EF34008D
:101C4400F988088909EE2435121D60F8EE2437124C
:101C54001D60F50AEC850AF0A4FCAAF0850AF0EDF3
:101C6400A42AFDE82CF8E43DF97A257B001217DF5D
:101C7400EA850882850983F074075AF87401B8006C
:101C8400028004C333D8FCFBEA131313541FF8EE89
:101C940028F8EF3400F9E8245DF582E9121D635B4E
:101CA4006003EA801CEE2436121D60F5F0EA84A875
:101CB400F0EE28F8EF3400F9E82438F582E9121D33
:101CC40063F97F040219F874F512194CEAFEEBFF6C
:101CD400EE2434121D60C0E0EE2435F582EF3400AA
:101CE400F583D0E0F08E828F83A3A3A3A3A3E0FAAD
:101CF400A3E0FB8E828F83A3A3A3A3A3A3A3E0FCEF
:101D0400A3E0FDECC39AF50AED9BF50BEE247FF5F9
:101D140008EF3400F509850882F583E06401702B2F
:101D2400EE2480F582EF3400F583121B0A121D693C
:101D34007402121880E960137CDC7D04EEFAEFFB78
:101D4400120B84850882850983E4F0AC0AAD0BEE9E
:101D5400FAEFFB121C3412258F021CC6F582EF34F5
:101D640000F583E022C082C083851A82851B83E04C
:101D7400F8A3E0F9C3EA9CEB9D5010C3EC98ED99ED
:101D8400401BC3EA98EB995014800EC3EA98EB9970
:101D94004007C3EC98ED994004790180027900D0A2
:101DA40083D08222EAC39CFAEB9DFB2274ED1219C4
:101DB4004C9003A2E064086005E06407702C906115
:101DC400C8E060269003D0E0F874FF68601CE875F2
:101DD400F003A4C8AAF02AF974D228FE740339FFC8
:101DE4008E828F83A3A3A3E070057900021F50EEB7
:101DF4002468F510EF3400F511906060E0851082DE
:101E0400851183F0750A45750B0575080075090081
:101E1400E5D914F50EE5D95403F50F601CEE2482C0
:101E2400F50CEF3400F50D7403650F6058E50E6092
:101E340013EE2467121D60700B793DEEFAEFFB126E
:101E44000BA880A6900540E064016026850C82857D
:101E54000D83E06004780480027800850E08E508AC
:101E6400C398FA95E0FB120A288A088B09EA450907
:101E74007006120E00021DEE850C82850D83E07043
:101E8400048A0A8B0B78008016E5D9C0E08812E535
:101E94000A2512F582E50B3400F583D0E0F008E85A
:101EA400C3950E40E4850C82850D83E0602874FCA4
:101EB400250EF50E780A121AF3AC0EA90FEEFAEFFE
:101EC400FB120C567402121880E9700AAA08AB09B6
:101ED4001213B2021E3D7403650F6058850E0C7513
:101EE4000D00780C121AF3AC0AAD0BAA08AB091258
:101EF4000C1A7402121880851082851183E0F8741C
:101F040080687005750C7F8002880CE50CF50A78F2
:101F14000A121AF7E50FF50A780A121AF7A90EAC95
:101F240008AD099003D0E0FA7B001208C0740212D5
:101F3400188080139003A2E06408600BAC0AAD0B18
:101F4400EEFAEFFB120CEC120E0C79017F0C021965
:101F5400F874F312194C74FC12186AEAFEEBFF8948
:101F640008A2AFE433F509C2AFEE2463F50AEF34F7
:101F740000F50B8010AA0AAB0B120BD21213B2900D
:101F840004E3E004F0850A82850B83E0F8A3E0F91A
:101F9400E849602FE82402FAE93400FBEA2402F558
:101FA4000CEB3400F50D780C121AF38A828B83E063
:101FB400FCA3E0F9EEFAEFFB120BC67402121880D0
:101FC400E960B29004E3E060579004E4E0F8900420
:101FD400E3E0C398500C7402650870449004E5E093
:101FE400603E8E828F83A3A3A3A3E0851A82851B00
:101FF4008312203474021218D4E81220349004E2BC
:10200400E028F074021218D4AC82AD83851A82855C
:102014001B83AA82AB8379011208CC9004E3E4F019
:10202400E509A2E092AF74041218807F060219F841
:10203400F0A3E4F09004E3E0F82200008521878512
:1020440022C622C0E074EF121A38A2AFE433FEC2F3
:10205400AF759B00906182E0A2E05012E591A2E08E
:10206400500C7591FE740165217003121DB0E0A23D
:10207400E55051E591A2E5504B7591DF9003A2E044
:1020840064076005E0640870237401652170357984
:10209400019003D0E0FA75F003A4CAA8F028FB74F9
:1020A400D22AFA74033BFB121F558018E0640D70AA
:1020B400139003C4E004F064287002E4F07A00E0B2
:1020C400F9120E12906182E0A2E6400302216EE54D
:1020D40091A2E6400302216E7591BF9003A2E064D1
:1020E400057008120D2E120D3A8003120D3475215D
:1020F40000120DA0E99003A3F07900120D94120AC6
:10210400EE7A017B009003A1E0F912106490780349
:10211400E064427055900544E014F0704DC2AF1273
:10212400212600782AD0E0F618D0E0F6E59F54077F
:1021340070057509FF800375097FC4C0E07829E63E
:10214400F50808E65509F509740B7808121848D003
:10215400E02508F8906270E0A2E740F8E8C3339005
:102164006272F0906270E0D2E0F0906181E0A2E3EC
:102174005009E5E9A2E3500375E9F7A3E0A2E750AB
:1021840009E591A2E7500375917FEEA2E092AF7F3B
:1021940004021A97C0E0C0D0C082C083906183E07B
:1021A400A2E05009E5BFA2E0500375BFFEE0A2E142
:1021B4005009E5BFA2E1500375BFFDE0A2E250095A
:1021C400E5BFA2E2500375BFFBE0A2E35009E5BFFF
:1021D400A2E3500375BFF7E0A2E45009E5BFA2E40F
:1021E400500375BFEFE0A2E55009E5BFA2E5500337
:1021F40075BFDFE0A2E65009E5BFA2E6500375BF54
:10220400BFD083D082D0D0D0E032C0E074F2121AB2
:1022140038E5A7A2E4500FE5A1A2E4500953A7EFC3
:1022240075A1EF122262E5A7A2E5500CE5A1A2E593
:10223400500653A7DF75A1DFE5A7A2E15009E5A188
:10224400A2E1500375A1FDE5A7A2E2500CE5A1A20D
:10225400E2500653A7FB75A1FB7F01021A9774F89D
:1022640012194C7521019003A2E0640670077A00EC
:102274007B00120D16A2AFE433FED2AF9003A8E0A8
:10228400640170187A207B009003A1E0F91210EE2B
:102294007A207B009003A1E0F912106A906182E039
:1022A400D2E6F0900541E0602185C62280169003B5
:1022B400A7E064017008E5C654F84405F5C653BEAA
:1022C400FC1220407401652160E4EEA2E092AF7F2D
:1022D400010219F88E238F24858228858327851A85
:1022E40082851B83E0CEA3E0CF852882852783EBFC
:1022F400C9EAC8EDCBECCA75F010C3E833C8E933BA
:10230400C9EA33CAEB33CBC3EA9EF526EB9FF52526
:10231400B35004AB25AA26EC33CCED33CDD5F0DA9B
:10232400AE23AF242274F112194C8A088B098C0A4B
:102334008D0B908FBD7808121714740F1218D4786F
:102344000C12173A908FBD780C1217147808790C78
:1023540012154D908F5950107808790C1216EC789C
:102364000812156D4014800E780C79081216EC785A
:102374000C12156D50047901800279007F0802194E
:10238400F874ED12194C8A088B098C0A8D0B908F06
:10239400BD780812171474131218D4780C12173A53
:1023A400908FBD780C121714780C790812154D40D3
:1023B400117808790C1216ECAA08AB09AC0AAD0B1B
:1023C40080227510007511007512007513017810C4
:1023D400790C1216EC781079081216B3AA10AB1106
:1023E400AC12AD137F0C0219F8908FBD7808121748
:1023F4003A8A828B8378081217277F040219F874AB
:10240400F512194C8C828D83780812173A8A828BC4
:10241400837808121700122457C3E098F0A3E099B8
:10242400122449401E908F99780812173A8A828B99
:102434008378081216D98E828F83E02420F0A3E0DB
:10244400344EF080A4F08E828F83C3E09420A3E006
:10245400944E22EA2404F8EB3400F9E8FEE9FF8CF8
:10246400828D83A3A3A3A3E0F8A3E0F98E828F83D4
:102474002274F512194CE9FE9004F7E0FAA3E0FB8C
:10248400EEC333F8E433F974E728F582748E39F532
:1024940083E02AF508A3E03BF5097808121AF390C3
:1024A4008FA91217581222D874021218808A088B26
:1024B400098C0A8D0B7410780812167BAA08AB09D4
:1024C4007F040219F874F112194C8A0C8B0D8C0ECE
:1024D4008D0F740F1218D4E0FAA3E0FB74111218D4
:1024E400D4E0F508A3E0F5097808121AF3EA240108
:1024F400F508EB3400F509E4F50AF50B780C7908D6
:1025040012158C908F65780812173A780C79081296
:10251400158CAA0CAB0DAC0EAD0F1222D87402129E
:1025240018808B09EA450960047A0180027A00EC7C
:102534002AFCED3400FD74131218D4E0F8A3E0F97A
:10254400E8FEE9FFECF8EDF97A717B021217DF88F7
:10255400088909E4F50AF50B8E828F83780812172F
:1025640049ECF8EDF97A717B021217DF8A088B09BE
:10257400740578081218578E828F83A3A3A3A3E54A
:1025840008F0A3E509F07F080219F8C082C083E9C6
:10259400906000F0D083D08222C2AF02000022C03B
:1025A400E074F2121A38A2AFE433FED2AFC2C0E52F
:1025B400D1A2E4500653D1EF121340EEF8EEA2E09C
:1025C40092AF7F01021A97C0E074F2121A38A2AFD8
:1025D400E433FED2AFE589542160031212C2C2C5AE
:1025E400EEF8EEA2E092AF7F01021A97C0E0C0D0ED
:1025F400E8C0E0E9C0E0A2AFE433F8D2AFC2E8E853
:10260400F9E8A2E092AFD0E0F9D0E0F8D0D0D0E081
:1026140032C0E0C0D0E8C0E0E9C0E0A2AFE433F8E3
:10262400D2AFC2C7E8F9E8A2E092AFD0E0F9D0E0B7
:10263400F8D0D0D0E032C0E0C0D0E8C0E0E9C0E0DB
:10264400C008C009C082C083A2AFE433F9D2AF90FE
:102654000B2FE0F8900B30E068700B539AFB900B53
:10266400317401F08031C2E9900B2FE0F508740158
:102674002508900B2FF075090074AF2508F58274B6
:102684000A3509F583E0F5C1900B2FE0C39480402F
:1026940006900B2F7400F0E9F8E9A2E092AFD08322
:1026A400D082D009D008D0E0F9D0E0F8D0D0D0E082
:1026B4003202011FFFFFFFFFFFFFFFFF74EE12183E
:1026C400E074FA12186A8A0A8B0B8909ECFEEDFF92
:1026D400750800850A0C850B0D780C121B37000455
:1026E40010992909272A2749276A278B27AC27DF2E
:1026F400270028172845280329242944296E2999C5
:1027040029992970287401650970158E828F83E0D8
:10271400C39403500B8E828F83E09010B5F0800336
:102724007508180229C27402650970138E828F839A
:10273400E0F8A3E0F99010B6E8F0A3E9F08003759F
:1027440008180229C27401650970158E828F83E00E
:10275400C39402500B8E828F83E090088CF0800328
:102764007508180229C27401650970158E828F8359
:10277400E0C39405500B8E828F83E090088DF08027
:10278400037508180229C27401650970158E828FB9
:1027940083E0C39402500B8E828F83E090088EF006
:1027A40080037508180229C2741065097027750C16
:1027B40010750D00780C121AF3EEFCEFFD7A8F7B86
:1027C4000812101074021218808A0C8B0D850C826A
:1027D400850D8380037508180229C2740165097088
:1027E400158E828F83E0C39402500B8E828F83E018
:1027F40090089FF080037508180229C274016509C6
:10280400700B8E828F83E09010B9F08003750818E6
:102814000229C2740465097022908FA9780C1217DA
:102824003A8E828F83780C12155D500F8E828F83BF
:102834001217589008A1121764800375081802290A
:10284400C2E509702112067AE9701312120EE9F535
:102854000C795012143CE9F50D1211FC800B90090F
:10286400347401F080037508180229C274076509DD
:1028740060030228FD750E06750F00780E121AF318
:102884008E828F83A3AC82AD8374021218D4AA8281
:10289400AB8312101674021218808A108B118510E3
:1028A4000E85110F7C007D00851A82851B83AA8208
:1028B400AB838E828F83E0F91211A2E9F50CE50C4B
:1028C400C3940A502F12067AE97015A90C12121437
:1028D400E9F50D795012143CE9F50E1211FC801C37
:1028E400750D007435250CF5827409350DF5837466
:1028F40001F0800875080280037508180229C27463
:1029040001650970158E828F83E0C39402500B8E8B
:10291400828F83E09008A0F080037508180229C212
:102924007401650970158E828F83E0C3940A500B7D
:102934008E828F83E09010B8F08003750818807E33
:1029440074016509701F8E828F83E0C3940740155C
:102954008E828F83E0C39411500B8E828F83E0901C
:1029640010BAF080597508188054740165097020F4
:10297400900933E0F50C8E828F83E0900933F0E503
:102984000C703B900933E0640170331211FC802E0B
:102994007508188029C3E50A9427E50B9400501B99
:1029A4007402650970158E828F83E0FCA3E0FDAA92
:1029B4000AAB0B120518E9F5088003750802A9088B
:1029C40074061218807F0A0219B274EC1218E074AB
:1029D400DA12186A890D8A128B138C0A8D0B743AD9
:1029E4001218D4E0F50C908F34C082C083851A820B
:1029F400851B83AC82AD83D083D082740612177D8D
:102A0400851A82851B83AC82AD83AA12AB13A90DF0
:102A14001211A2E9FEEEC3940A4003022B6DEEF9F3
:102A24001211DEE9FF9010B5E064027004740180B5
:102A3400027400F5087808121AF7AD0CEFFCEEF9F1
:102A4400AA0AAB0B12125074011218807C147D0078
:102A5400790074121218D4AA82AB831210288A0E39
:102A64008B0F850E08850F0974121218D4AC82AD31
:102A7400837A1075F006EEA42424F9121436E97052
:102A8400437C1079FF74121218D4AA82AB831210FB
:102A940088E9703074221218D4AC82AD837A04753C
:102AA400F006EEA42425F9121436E9F5087412127E
:102AB40018D4AC82AD83EFA2E0E433F9AA0AAB0BDD
:102AC4001205A2E974061218D4AC82AD837A0C7490
:102AD400702EF9121436E9707E74061218D4AA8284
:102AE400AB831211D2750E00E50EC394045068E551
:102AF4000EA80E7900E875F003A4C8AAF075F000DA
:102B0400A42AFA75F003E9A42AF974061218D4E584
:102B14008228F508E58339F509850882850983E06B
:102B2400F8A3E0F9E849602B850882850983A3A30B
:102B3400E0F5107511007810121AF38508828509E2
:102B440083E0FCA3E0FDAA0AAB0B12080674021290
:102B54001880E9050E8091EFA2E1500D90088BE0FA
:102B6400F9AA0AAB0B12080CE97404650C700F90F7
:102B740010B5E064027007AA0AAB0B12124A79007E
:102B840074261218807F0C0219B274F21218E089AC
:102B94000BEAFEEBFF8C088D09750A0AE50B600C45
:102BA400146009146044146064022C32EEFAEFFBE2
:102BB4001211F0E9F50AE50AC3940A5071E50845D3
:102BC40009606B750C06750D00780C121AF3EEFC97
:102BD400EFFDAA08AB0912101074021218808A0CB7
:102BE4008B0D850C82850D838044EEFAEFFB121168
:102BF400EAE9F50AE50AC3940A5033E50845096091
:102C04002DAA08AB09A90A1211E4E98021EEFAEF12
:102C1400FB1211F6E9F50AE50AC3940A5010E50817
:102C24004509600AAA08AB09A90A1211E4E9A90A2C
:102C34007F060219B274F21218E08A0C8B0DE9FEB9
:102C44007F1574FF650C700474FF650D702A750898
:102C540000E508C3940A5014EEFC7A027B00A9082C
:102C64001211C0E960027F00050880E5EE60637A16
:102C7400387B12120A0A805AAA0CAB0D1209EC8A8C
:102C84000A8B0B850A08850B09E508450960417C18
:102C9400007D00E5082405FAE5093400FB85088277
:102CA400850983A3A3A3A3E0F91211A2E9F50AE518
:102CB4000AC3940A500EEEFC7A027B00A90A121190
:102CC400C0E97F00EE600BAA08AB0912123880023B
:102CD4007F14EFF97F060219B274EE1218E08A0E1F
:102CE4008B0F8C0A8D0B74121218D4E0F50CA3E030
:102CF400F50D75081574FF650E700474FF650F708B
:102D04001E7E00EEC3940A5062AC0CAD0DAA0AAB51
:102D14000BEEF91211C6E960037508000E80E4AAEF
:102D24000EAB0F1209EC8A108B11AE10AF11EE4FDF
:102D340060367C007D00EE2405FAEF3400FB8E82C1
:102D44008F83A3A3A3A3E0F91211A2E9F509E5096E
:102D5400C3940A5016AC0CAD0DAA0AAB0BA9091208
:102D640011C6E97508008003750814A9087F0A02D2
:102D740019B274F71218E0EAFEEBFF9008A5EEF022
:102D8400A3EFF090088BE0FC7D007A267B0012050F
:102D940018E9F50890088BE0F91207827F010219FF
:102DA400B274F21218E074EC12186A8A0A8B0B855A
:102DB4000A82850B83A3A3E024FA7003023205245C
:102DC400FD700302307B147003022E9814601024EB
:102DD400FD70030230231470030230BB023273AE61
:102DE4000AAF0B9008A5E0F8A3E0F9E84960699000
:102DF40008A5E0F8A3E0F5838882E0F8A3E0F9E809
:102E0400496055EE240CF582EF3400F583E0F508B3
:102E14007808121AF7EE240BF582EF3400F583E0FC
:102E2400F98E828F83A3A3A3A3A3A3A3A3A3E0FCEC
:102E3400A3E0FDEE2403FAEF3400FB9008A5E0F8CC
:102E4400A3E0F5838882E0F8A3E0F5838882121872
:102E5400DE740112188080398E828F83A3A3A3A30A
:102E6400A3A3A3A3A3121B0A9008A1121758120527
:102E7400B47402121880E9601879018E828F83A3DA
:102E8400A3A3A3A3A3A3A3A3E0FAA3E0FB1205AE09
:102E9400E9023273AE0AAF0B8E828F83A3E0600324
:102EA400022FD18E828F83A3A3A3A3A3E0A2E04029
:102EB40003022FD190093FE0F8A3E0F9E849600349
:102EC400022FD17C0E7D007900851A82851B83AA8E
:102ED40082AB831210288A088B09AA08AB09EE2456
:102EE4000CF582EF3400F583E0F8A3E0F9E84960DB
:102EF4003B7508067509007808121AF3EE240CF5E0
:102F040082EF3400F583E02410FCA3E03400FD7468
:102F1400021218D4AA82AB83121010740212188001
:102F24008A088B0985088285098380548E828F8361
:102F3400A3A3A3E0FAA3E0FB1209EC8A0C8B0D8592
:102F44000C08850D09E50845096032750C06750DF8
:102F540000780C121AF3E5082405FCE5093400FD99
:102F640074021218D4AA82AB8312101074021218BD
:102F7400808A0C8B0D850C82850D8380030232734D
:102F84008E828F83A3A3A3A3A3E0A2E25004D2F072
:102F94008002C2F0A2F0E433F87900740C1218D461
:102FA400E048F0A3E049F0EEFCEFFD851A82851BB2
:102FB40083AA82AB831211D8E970127A027B009043
:102FC400088BE0F9121064E979000232759008A5C3
:102FD400E0F8A3E0F9E84960439008A5E0F8A3E02D
:102FE400F5838882A3A3E0F8A3E0F9E849602D8E75
:102FF400828F83A3E0FC79018E828F83A3A3A3E055
:10300400FAA3E0FB9008A5E0F8A3E0F5838882A387
:10301400A3E0F8A3E0F58388821218DE023273AECF
:103024000AAF0B9008A5E0F8A3E0F9E849604590E1
:1030340008A5E0F8A3E0F5838882A3A3E0F8A3E061
:10304400F9E849602F850A82850B83A3E0FC7902A5
:103054008E828F83A3A3A3E0FAA3E0FB9008A5E0EC
:10306400F8A3E0F5838882A3A3E0F8A3E0F58388BE
:10307400821218DE023273AE0AAF0B7C007D00EEC2
:103084002404FAEF3400FB8E828F83A3A3A3E0F918
:103094001211A2E9F508E508C3940A5017EE240AB0
:1030A400FCEF3400FD7A0475F006E508A42425F944
:1030B400121430E9023273AE0AAF0B9008A0E0603C
:1030C400189010B8E0F98E828F83A3A3A3E0FAA32B
:1030D400E0FB1205AEE90232739010B5E070157989
:1030E400058E828F83A3A3A3E0FAA3E0FB1205AEAF
:1030F400E90232738E828F83A3A3A3E0FAA3E0FBD9
:103104001209EC8A0C8B0D850C08850D098E828FB3
:1031140083A3A3A3A3A3A3A3E0A2E05075E508455A
:1031240009606C850882850983A3A3A3A3E0606278
:103134008E828F83A3A3A3A3A3A3A3A3A3E0F8A333
:10314400E0F9E8C4540FF879005401F8E95400F99F
:10315400E8A2E0403D740E1218D4AC82AD83E508B9
:103164002405FAE5093400FB850882850983A3A3B5
:10317400A3A3E0F91211A2E9701879038E828F8358
:10318400A3A3A3E0FAA3E0FB1205AEE902327302A3
:103194003273EE2405FCEF3400FD85088285098333
:1031A400A3A3A3A3E0F98E828F83A3A3A3E0FAA32E
:1031B400E0FB1212449008A5E0F8A3E0F9E84960A6
:1031C4003E9008A5E0F8A3E0F5838882A3A3E0F885
:1031D400A3E0F9E84960287C0079008E828F83A3FC
:1031E400A3A3E0FAA3E0FB9008A5E0F8A3E0F5832D
:1031F4008882A3A3E0F8A3E0F58388821218DE8016
:103204006E12067AE97068900934E06401701A124B
:10321400120EE9FE9009347400F07C0A7D007900F6
:103224007A357B09121028803C7E00EEC3940A5044
:10323400348E0875090074352508F582740935093A
:10324400F583E06401701BEEF9121214E9F88E089C
:1032540075090074352508F58274093509F58374F8
:1032640000F00E80C6795012143CE9FE1211FC796C
:103274000174141218807F060219B274F31218E054
:1032840074F212186A8909EAFEEBFF8C0C851A8223
:10329400851B83AC82AD837A0E75F006E509A42400
:1032A40020F9121436E970727C0679FF851A82853A
:1032B4001B83AA82AB83121088E9705E740C121807
:1032C400D4E0F8A3E0F9E8F508E50C6005EE42085F
:1032D4008004EEF4520885080A750B00740C121869
:1032E400D4E0650A7004A3E0650B602AE508A80829
:1032F4007900740C1218D4E508F0A3E9F0851A8259
:10330400851B83AC82AD837A0E75F006E509A4248F
:1033140020F9121430E9790180027900740E121830
:10332400807F050219B274F01218E074E612186A6C
:10333400890B8A0C8B0DECFEEDFF740C1218D4ACC7
:1033440082AD837A0E75F006E50BA42420F91214DD
:1033540036E9600302348E7C0679FF740C1218D4AB
:10336400AA82AB83121088E9600302348E851A8224
:10337400851B83AC82AD837A0C7470250BF912140F
:1033840036E9600302348A750A00851A82851B8334
:10339400AA82AB831211D2E50C450D703A7C0C79EC
:1033A40000851A82851B83AA82AB83121088E96088
:1033B400030234647C0C7D007900851A82851B83AA
:1033C400AA82AB831210288A088B09850882850992
:1033D40083750A01023464851A82851B83AC82AD2D
:1033E40083AA0CAB0D1211CC8A0E8B0F850E0885A7
:1033F4000F09E50845097036EE4F6021851A82856C
:103404001B83AC82AD837A007B001211CC8A0E8BB5
:103414000FA80EA90F88088909E84970047900806B
:103424006B850882850983E50CF0A3E50DF085081A
:1034340082850983A3A3E0F87900EE687002EF693E
:10344400601EEE850882850983A3A3F0EE4F700DFC
:103454008508828509837400F0A37400F0750A015D
:10346400E50A6022851A82851B83AA82AB83121126
:10347400D2851A82851B83AC82AD837A0C74702545
:103484000BF9121430E9790180027900741A1218C8
:10349400807F080219B274F71218E0EAFEEBFF7B92
:1034A40000EBC39404504EEBF87900E875F003A4E4
:1034B400C8AAF075F000A42AFA75F003E9A42AF961
:1034C400EC28F582ED39F583E06E7003A3E06F70AC
:1034D40021EBF87900E875F003A4C8AAF075F000B0
:1034E400A42AFA75F003E9A42AF9EC28FAED39FBC9
:1034F40080070B80AC7A007B007F010219B274F75D
:103504001218E07F00EFC3940440030235B1EFF8D2
:103514007900E875F003A4C8ACF075F000A42CFCA5
:1035240075F003E9A42CF9EA28F582EB39F583E078
:10353400F4FCA3E0F4FDEFF87900E875F003A4C807
:10354400AEF075F000A42EFE75F003E9A42EF9EA9E
:1035540028F582EB39F583ECF0A3EDF0EFF8790070
:10356400E875F003A4C8ACF075F000A42CFC75F069
:1035740003E9A42CF9EA28F582EB39F583A3A3E047
:10358400F4C0E0EFF87900E875F003A4C8ACF07576
:10359400F000A42CFC75F003E9A42CF9EA28F582C8
:1035A400EB39F583A3A3D0E0F00F0235097F0102C4
:1035B40019B274F01218E074F412186AEAFEEBFF00
:1035C4008C088D0990093FE0F8A3E0F9E849702CD4
:1035D400EE4F6006E50845097005790102386EEE84
:1035E400FAEFFB1211F0E99010BBF09010BBE0C3AE
:1035F400940A4008121202E99010BBF09010BBE04C
:10360400C3940A400302386C90093FE0F8A3E0F940
:10361400E84960030236B8EEFCEFFD7A0E75F00659
:103624009010BBE0A42420F9121430E9F50C7C0CB2
:103634007D0079FF851A82851B83AA82AB831210D1
:10364400288A0E8B0F850E0A850F0B851A82851B1F
:1036540083AC82AD837A0C9010BBE02470F9121411
:1036640030E9F50D750E0E750F00780E121AF3EE93
:10367400FCEFFD9010BBE0F87900E875F00EA4C8EB
:10368400AAF075F000A42AFA75F00EE9A42AF974D8
:10369400A728FA740839FB12101074021218808AD1
:1036A4000E8B0FA80EA90F90093FE508F0A3E509BA
:1036B400F002386890093FE0F8A3E0C82406F582D8
:1036C400E83400F583E0F8A3E0F9E84960439009A1
:1036D4003FE0F8A3E0C82406F582E83400F583E06F
:1036E400FCA3E0FD7A1B75F0069010BBE0A4242136
:1036F400F9121430E9F890093FE0F9A3E0C924066F
:10370400F582E93400F5837400F0A37400F0023804
:103714006890093FE0F8A3E0C8240AF582E8340081
:10372400F583E0F8A3E0F9E849604390093FE0F845
:10373400A3E0C8240AF582E83400F583E0FCA3E0A2
:10374400FD7A1B75F0069010BBE0A42422F9121434
:1037540030E9F890093FE0F9A3E0C9240AF582E9C9
:103764003400F5837400F0A37400F0023868900903
:103774003FE0F8A3E0C8240CF582E83400F583E0C8
:10378400F8A3E0F9E849604390093FE0F8A3E0C8F2
:10379400240CF582E83400F583E0FCA3E0FD7A1004
:1037A40075F0069010BBE0A42423F9121430E9F854
:1037B40090093FE0F9A3E0C9240CF582E93400F54F
:1037C400837400F0A37400F002386890093FE0F8B5
:1037D400A3E0C82408F582E83400F583E0F8A3E008
:1037E400F9E849606F90093FE0F8A3E0C82408F5C0
:1037F40082E83400F583E0FCA3E0FD7A1075F0065E
:103804009010BBE0A42424F9121430E9F50A9009BD
:103814003FE0F8A3E0C82408F582E83400F583E02B
:103824002410FCA3E03400FD7A0475F0069010BB6C
:10383400E0A42425F9121430E9F890093FE0F9A333
:10384400E0C92408F582E93400F5837400F0A37418
:1038540000F08010900933E0600312125612123EF9
:1038640079018006790080027901740C1218807F36
:10387400080219B274F71218E074F212186AE9FE19
:10388400851A82851B83AC82AD837A0E75F006A4FB
:103894002420F9121436E9700E740C1218D4E0F8CE
:1038A400A3E0F9E8F980027900740E1218807F0110
:1038B4000219B274F41218E074F212186A8909EA4F
:1038C400FEEBFFE509C3940A5004EE4F700479023D
:1038D400804B851A82851B83AC82AD837A0E75F08A
:1038E40006E509A42420F9121436E9F508E5087060
:1038F4002A750A06750B00780A121AF37402121854
:10390400D4AC82AD83EEFAEFFB12101074021218DD
:10391400808A0A8B0B850A82850B83A908740E1290
:1039240018807F040219B274F41218E0EAFEEBFF67
:10393400750800E508C3940A5045750A06750B001E
:10394400780A121AF3EEFCEFFDE508A8087900E8FE
:1039540075F00EA4C8AAF075F000A42AFA75F00E4A
:10396400E9A42AF974AD28FA740839FB12102274F8
:1039740002121880E96004A9088006050880B47959
:103984000A7F040219B274F41218E0EAFEEBFF7520
:103994000800E508C3940A5045750A06750B0078BB
:1039A4000A121AF3EEFCEFFDE508A8087900E875A1
:1039B400F00EA4C8AAF075F000A42AFA75F00EE976
:1039C400A42AF974A728FA740839FB121022740285
:1039D400121880E96004A9088006050880B4790AF1
:1039E4007F040219B274F71218E074F012186AEA2C
:1039F400FEEBFF750800E508C3940A504B851A8254
:103A0400851B83AC82AD837A1075F006E508A42487
:103A140023F9121436E9702C7C1079FF851A8285FB
:103A24001B83AA82AB83121088E97018EEFCEFFDA9
:103A3400851A82851B83AA82AB83120584E97004EC
:103A4400A9088006050880AE790A74101218807FD0
:103A5400010219B274F41218E0750800E508C39461
:103A64000A4003023B3AE508A8087900E875F00E1D
:103A7400A4C8AAF075F000A42AFA75F00EE9A42AE5
:103A8400F974A728FC740839FD7A0E75F006E50868
:103A9400A42420F9121436E97003023B357C067D18
:103AA4000079FFE508AA087B00EA75F00EA4CAA80D
:103AB400F075F000A428F875F00EEBA428FB74A7A9
:103AC4002AFA74083BFB1210288A0A8B0BAE0AAF41
:103AD4000B7C067D0079FFE508AA087B00EA75F0F7
:103AE4000EA4CAA8F075F000A428F875F00EEBA493
:103AF40028FB74AD2AFA74083BFB1210288A0A8B3F
:103B04000BAC0AAD0BE508A8087900E875F00EA423
:103B1400C8AAF075F000A42AFA75F00EE9A42AF9EF
:103B240074B328F582740839F5837400F0A3740023
:103B3400F00508023A60900933E06003121256124D
:103B4400123E7F040219B274F71218E07E00EEC32D
:103B5400940A50327C0679FFEEFA7B00EA75F00E87
:103B6400A4CAA8F075F000A428F875F00EEBA428F8
:103B7400FB74A72AFA74083BFB121088E96004EE70
:103B8400F980050E80C8790A7F010219B274F71210
:103B940018E07E007F00EFC3940A502F7C0679FF63
:103BA400EFFA7B00EA75F00EA4CAA8F075F000A441
:103BB40028F875F00EEBA428FB74A72AFA74083BC6
:103BC400FB121088E970010E0F80CBEEF97F010221
:103BD40019B274F71218E07E007F00EFC3940A5004
:103BE4000DEE700AEFF9121214E9FE0F80EDEEF9F2
:103BF4007F010219B274F01218E074CB12186A89AA
:103C0400099010BBE06509701D7A017B0090088B58
:103C1400E0F912106AE97A027B0090088BE0F9124D
:103C2400106AE912126274271218D4AC82AD837A36
:103C34000E75F006E509A42420F9121436E9600390
:103C4400023D657C0679FF74271218D4AA82AB83DF
:103C5400121088E96003023D657C0E7D0079FF74D3
:103C6400271218D4AA82AB831210288A0A8B0B85D8
:103C74000A0C850B0D7C1B7D0079FF740C1218D483
:103C8400AA82AB831210288A0E8B0F850E0A850F29
:103C94000B7C0C7D0079FF851A82851B83AA82AB7D
:103CA400831210288A0E8B0FAE0EAF0F74271218D2
:103CB400D4AC82AD837A0E75F006E509A42420F90C
:103CC400121430E9F508740C1218D4AC82AD837A5E
:103CD4001B75F006E509A42421F9121430E9420801
:103CE400740C1218D4AC82AD837A1B75F006E50906
:103CF400A42422F9121430E94208740C1218D4AC2A
:103D040082AD837A1075F006E509A42423F9121410
:103D140030E94208740C1218D4AC82AD837A107561
:103D2400F006E509A42424F9121430E94208740CBD
:103D34001218D4AC82AD837A0475F006E509A42484
:103D440025F9121430E94208851A82851B83AC8256
:103D5400AD837A0C74702509F9121430E942088095
:103D640003750800A90874351218807F080219B277
:103D740074F71218E0E9FE90088BF01211FC7F0131
:103D84000219B274F21218E0890AEAFEEBFFEE544B
:103D940000F8EF5480F9E849603590088BE0F91297
:103DA400104C8A0C8B0DA80CA90D88088909E849C8
:103DB4006012AA08AB09121226E96008AA08AB0926
:103DC40012103AE9EE6400FAEF6480FB023E8BEED7
:103DD4005402602D7C007D007A007B001211D8E92A
:103DE40060187A017B0090088BE0F9121064E9EE08
:103DF4006402FAEF6400FB023E8B7A027B00023E0F
:103E04008BEEA2E0507D90093FE0F8A3E0F58388B3
:103E140082A3A3A3E0FAA3E0FB12125CE9605E9024
:103E240008A5E0F8A3E0F9E84960459008A5E0F8A2
:103E3400A3E0F5838882A3A3E0F8A3E0F9E849604E
:103E44002F7C00790190093FE0F8A3E0F583888294
:103E5400A3A3A3E0FAA3E0FB9008A5E0F8A3E0F590
:103E6400838882A3A3E0F8A3E0F58388821218DE96
:103E7400121262EE6401FAEF6400FB800A7A017B9D
:103E84000080047A007B007F060219B274F71218CE
:103E9400E0EAFEEBFF7508018E828F83E024506018
:103EA4001314601924E1701CEEFAEFFB1211BAE945
:103EB400F5088010EEFAEFFB12122C8007EEFAEFF1
:103EC400FB121232A9087F010219B274F71218E02A
:103ED400EAFEEBFF8E828F83A3A3A3A3E0641E708C
:103EE4001179008E828F83A3A3E0FAA3E0FB121161
:103EF400A8E97F010219B274F61218E0EAFEEBFF9A
:103F04008E828F83A3A3A3A3E0703A8E088F0985C2
:103F14000882850983A3A3A3A3A3A3A3121B0A85D1
:103F24000882850983A3A3A3A3A3E0FCA3E0FD85E2
:103F34000882850983A3A3E0FAA3E0FB1211AE74FF
:103F440002121880E97F020219B274F71218E0EA2B
:103F5400FEEBFF90088BE0F98E828F83A3E0FAA337
:103F6400E0FB12080CE97F010219B2C082C083741D
:103F7400FF12186A121208E9C39402400B851A82D0
:103F8400851B837402F08009851A82851B83740A59
:103F9400F0851A82851B83AC82AD837A0179051280
:103FA4000692E97401121880D083D08202011F7432
:103FB400F21218E074E812186AEAFEEBFF890A8C20
:103FC400088D097C187D007900851A82851B83AAD7
:103FD40082AB831210288A0C8B0DAC0CAD0D851AA4
:103FE40082851B83EEF0A3EFF090088DE0C0E074AF
:103FF400021218D4D0E0F090088EE0C0E0740312EE
:1040040018D4D0E0F09010BAE0C0E074171218D4BD
:10401400D0E0F074151218D4E054FEF8A3E054FF75
:10402400F99010B9E0A2E0E433FA7B00E84AF8E939
:104034004BF974151218D4E8F0A3E9F09010B9E024
:10404400A2E15004D2F08002C2F074151218D4E038
:1040540054FDFAA3E054FFFBA2F0E433F87900C363
:1040640033F8E933F9EA48F8EB49F974151218D42E
:10407400E8F0A3E9F09010B9E0A2E35004D2F08094
:1040840002C2F074151218D4E054F7FAA3E054FFF6
:10409400FBA2F0E433F50C750D007403780C1218D0
:1040A40057EA450CF8EB450DF974151218D4E8F0ED
:1040B400A3E9F09010B9E0A2E45004D2F08002C267
:1040C400F074151218D4E054EFFAA3E054FFFBA2E5
:1040D400F0E433F50C750D007404780C121857EAEB
:1040E400450CF8EB450DF974151218D4E8F0A3E962
:1040F400F09010B9E0A2E55004D2F08002C2F0744E
:10410400151218D4E054DFFAA3E054FFFBA2F0E444
:1041140033F50C750D007405780C121857EA450C2C
:10412400F8EB450DF974151218D4E8F0A3E9F090F2
:1041340010B9E0A2E25004D2F08002C2F074151269
:1041440018D4E054FBFAA3E054FFFBA2F0E433F5E7
:104154000C750D007402780C121857EA450CF8EB34
:10416400450DF974151218D4E8F0A3E9F090088EFF
:10417400E0602A750C10750D00780C121AF37C8F10
:104184007D0874061218D4AA82AB8312101074022C
:104194001218808A0C8B0D850C82850D8390089FE4
:1041A400E06012E50A600E74151218D4E04402F0BF
:1041B400A3E04400F090089FE06006780179008055
:1041C400047800790074141218D4E048F090088C34
:1041D400E060067804790080047800790074141291
:1041E40018D4E048F0AC08AD09851A82851B83AA6F
:1041F40082AB831205A8E974181218807F0602198D
:10420400B274F71218E0EAFEEBFF75080090089FFD
:10421400E0600678017900800478007900E84208BB
:1042240090088CE0600678047900800478007900B6
:10423400E84208A908EEFAEFFB120662E97F0102E0
:1042440019B274EE1218E074E512186A8A0C8B0D18
:10425400E9FF8C088D09742D1218D4E0F50A74084E
:104264006509700A75F006EFA42422FE800875F033
:1042740006EFA42421FE7C1B7D007900851A82852B
:104284001B83AA82AB831210288A108B1185100E0F
:1042940085110F851A82851B83AC82AD837A1BEE50
:1042A400F9121436E9703C741A1218D4E0C3940756
:1042B4004031741A1218D4E0C394115026E50AF55B
:1042C4000B780B121AF774011218D4AC82AD83E583
:1042D40008A2E0E433F9AA0CAB0D1205BA7401127A
:1042E4001880E9741B1218807F0A0219B274F7123D
:1042F40018E0120884E97E00EEC3940A50557C0647
:1043040079FFEEFA7B00EA75F00EA4CAA8F075F006
:1043140000A428F875F00EEBA428FB74A72AFA74FD
:10432400083BFB121088E97027EEF87900E875F075
:104334000EA4C8AAF075F000A42AFA75F00EE9A438
:104344002AF974A728FA740839FB790012088AE953
:104354000E80A57F010219B274F61218E074FD12E2
:10436400186AEAFEEBFF900941E0F8A3E0F9E84996
:1043740070397508437509097808121AF37508022B
:104384007509007808121AF37508E375098F78081F
:10439400121AF37CFF7DFF7A017B001206D47406A7
:1043A400121880900941EAF0A3EBF0900941E0F87B
:1043B400A3E0F9E849700302447DE4F508F50978BF
:1043C40008121AF374041218D485820885830978B4
:1043D40008121AF374041218D485820885830978A4
:1043E40008121AF3900943121B0A7902900941E05A
:1043F400FCA3E0FDEEFAEFFB1207FA740812188032
:10440400E9704A851A82851B83E0FA7B00740112E5
:1044140018D4E0F87900E4C8F9EA28F508EB39F58E
:1044240009E508450960267808121AF3900941E065
:10443400F8A3E0F5838882A3A3A3A3E0FCA3E0FD93
:10444400EEFAEFFB1211AE7402121880E9E4F508DB
:10445400F5097808121AF3900943121B0A7CFF7DB0
:10446400FF900941E0FAA3E0FB1206E0740412187D
:1044740080900941EAF0A3EBF0900941E0F8A3E051
:10448400F9E84970047901800279007403121880F4
:104494007F020219B2C082C08390093FE0F8A3E012
:1044A400F9E849601790093FE0FAA3E0FB12103ADB
:1044B400E9F890093F7400F0A37400F09010BB7405
:1044C4000AF0D083D08202011FC082C083E9900F1A
:1044D400C9F002475C74F71218E0E99002E1F07C3D
:1044E400197D037AFF7BFF1208129002E274FFF039
:1044F400A3F0A3E4F0A3F0790512079A9002E1E097
:10450400F91206BC7A307B081209DA7F010219B26B
:1045140074F41218E08A088B09EB5480603090021E
:10452400E1E0F912104C8A0A8B0BAE0AAF0BEE4F86
:1045340060138E828F83E064B070031207B2EEFAC8
:10454400EFFB12103AAA08E5096480FB80047A00A4
:104554007B0002472B74F21218E074FC12186AEA0A
:10456400FEEBFFEE4F603874021218D4EEF0A3EFA6
:10457400124990ECF0A3ED124990AA82AB83120683
:10458400B6E9F508707374121218D4125544E50A8A
:10459400450B60658E828F83124607EE4F7005755A
:1045A400080280557A067B001210A68A0C8B0DA88F
:1045B4000CA90DE8497005750813803D888289832C
:1045C400E4124611A3A3EEF0A3EF1259DDE50AF0BD
:1045D400A3E50BF09002E71246999002E76017E01A
:1045E400FCA3E08003EAFCEBFD8C828D83124699E8
:1045F40070F38C828D83125469A908740412188094
:10460400025BDFA3A3A3A3E0FEA3E0FF22F0A3F0D9
:10461400888289832274F21218E0890AE975F017F6
:10462400A4FEAFF09002E6E4F09002E41246996032
:104634000A1210AC9002E4E4F0A3F0EEFAEFFB12DD
:1046440010A68A088B09EA4509602FEEFCEFFD7974
:10465400001210289002E4E508F0A3E509F07B00BD
:104664008008124683E4F0A3F00BEBC3950A40F2F2
:10467400E50A9002E6F0790080027913025BDFEB31
:1046840075F017A4F8A9F09002E4E028FAA3E03941
:104694008A82F583221251FFEA4B2274F41218E045
:1046A400750800750900740C1218D41259B1FEE98A
:1046B400FF800CE5082401F508E5093400F509C379
:1046C400E5089CE5099D503285080A85090B7403A9
:1046D400780A121857EA250AF8EB350BF98882890B
:1046E40083A3A3A3A3A3A3125544EE650A7003EF07
:1046F400650B70BFE8FAE9FB80047A007B00802731
:1047040074F41218E07900EAA2E0501B75084075B1
:10471400098F7808121AF37C047D007ACB7B0F1280
:10472400079474021218807F040219B2C082C083F5
:104734009002E7124763601C88828983A3A3E06A1E
:104744007003A3E06B8882898370E8A3A3A3A312F8
:1047540051FB80047A007B00D083D08202011F12B7
:104764005CB2E8492274EE1218E074FC12186AEA8A
:10477400FEEBFF851A82851B83E4F0A3F0EE24028E
:1047840012544DEE240512497EEE2404F50EEF1268
:104794004D63E024FE603924FC604624FE6052240C
:1047A400FE605E24FE700302488324FE7003024808
:1047B400FB24FE700302490A24FE700302491924F3
:1047C400FC700302492824FE70030249370249742D
:1047D4009003007417F0A3E41249981204340249B8
:1047E40074851A82851B83AC82AD831207B8024993
:1047F40044851A82851B83AC82AD831207BE0249AD
:1048040044850C08850D0974021218D4AC82AD835A
:104814008508828509831251FB1206DA8A0C8B0DF6
:10482400AC0CAD0DEC4D6042E4F50CF50D780C12BA
:104834001AF3750C00750D03780C121AF3750C013C
:10484400750D03780C121AF374081218D4121B0A8B
:1048540079161251F51207FA7408121880E9F50C4A
:10486400700B1251F112044C800F750C01850882F3
:10487400850983124986125469850C0802494774D4
:10488400021218D4AC82AD83850C82850D8312513B
:10489400FB1206DA8A108B11AC10AD11EC4D60439B
:1048A400850C82850D83A3A3121B0A751000751154
:1048B400037810121AF37510017511037810121A87
:1048C400F374081218D4121B0A79161251F5120740
:1048D400FA7408121880E9F509700B1251F11204E8
:1048E40052800F750901850C82850D831249861249
:1048F4005469850908804C851A82851B83AC82AD76
:10490400831207C4803A851A82851B83AC82AD83E7
:104914001207CA802B851A82851B83AC82AD831251
:1049240007D0801C851A82851B83AC82AD83120755
:10493400D6800D851A82851B83AC82AD831207DC79
:10494400E9F508E50860298E828F83A3E06414608A
:104954001F850E82850F83E0900300124990125C3C
:10496400AE900301125469E508A312499812042E6B
:10497400EEFAEFFB120758025355F50CEF3400F52D
:104984000D22125CB2851A82851B8322F0851A825D
:10499400851B8322F07C007D03850A82850B8312AC
:1049A40051FF2274EE1218E074FC12186A8A0A8B02
:1049B4000B8C0E8D0FEA2405F508EB3400F5097C09
:1049C400157D0079007A007B03121028E508240283
:1049D400F50CE509124981851A82851B83858210AD
:1049E4008583117810121AF3850882850983A3A39D
:1049F400A3A3124EAB121AF3E5082405F510E5093A
:104A04003400F5117810121AF3850C82850D831287
:104A140052051206D474061218808A108B11AE1037
:104A2400AF11E50A2402F50AE50B125450EE4F705B
:104A340003024B6D801774021218D41251FB888242
:104A44008983EAF0A3EBF0900300E004F090030004
:104A5400E0C394054003024B6DE4F510F5117810A2
:104A6400121AF37510E97511027810121AF3751001
:104A7400EA7511027810121AF374061218D4121B74
:104A84000A7910EEFCEFFD1251F51207FA740812C0
:104A94001880E9705E850882850983A3A3A3A3A374
:104AA400A3A3E0F89002E9E0687048124EAB121A32
:104AB400F37CEA7D02E5082408FAE5093400FB12D8
:104AC40010227402121880E960298E828F83A3A3B6
:104AD400A3A31251FB900300E0F5107402781012A6
:104AE400185774012510F58274033511F583EAF023
:104AF400A3EBF074021218D4858210858311781008
:104B0400121AF374021218D4121B0A850C82850D32
:104B140083125CC31206E074041218808A108B118D
:104B2400AE10AF11900300E0F51075110074027817
:104B34001012185774002510F874033511F988827F
:104B44008983A31246997003024A31E82403F8E9E1
:104B54003400F9EE4F6003024A3A8882898374FF75
:104B6400F0A3F0900300E004F0900300E0600A1268
:104B740051F11204407900800B8508828509831263
:104B84005460790A02535574EA1218E074FE12183C
:104B94006A8C128D13EA2405F50CEB125E2D124675
:104BA4000B750800750900EA2402F510EB3400F5D2
:104BB40011851A82851B8385820A85830B780A12E4
:104BC4001AF3850C82850D83A3A3A3A3124D6D1242
:104BD4001AF3E50C2405F50AE50D125450780A126F
:104BE4001AF3850C82850D83125CC11206D47406F7
:104BF4001218808A0A8B0BEA450B7003024D1EEAD9
:104C04002404F50EEB124D6312460B8A828B83A3A8
:104C1400A3A3E0F98510828511831251FB1206C209
:104C2400E9F5096003024D1EE4F514F51578141234
:104C34001AF37514E97515027814121AF37514EA47
:104C44007515027814121AF374061218D4121B0A7A
:104C54007913AC0AAD0B8510828511831251FB12B6
:104C640007FA7408121880E9F5096003024D1E90D2
:104C740002E9E0F8E5087009E02402900301F080FD
:104C840017900301E0FCE82402FAE43400FBEA6C28
:104C94007001EB6003024D22850882AA82124EA2A3
:104CA4009414124E9A5073850E82850F83E0C0E0EF
:104CB40074022A124D5AD0E0F00508850E82850F41
:104CC40083A3E0C0E085080A7402250A124D5AD075
:104CD400E0F005089002E9124D6D121AF37CEA7DAA
:104CE4000285080A7402250AFA74033400FB1210C0
:104CF4001074021218809002E9E02508F50874FF88
:104D04006E700374FF6F6012EE24010EEF3400FF27
:104D1400E508C394145003024BB5E5086013125020
:104D2400E68510828511831251FB120446790080B6
:104D340014E509700375090A851282851383EEF060
:104D4400A3EFF0A90974021218807F0E0219B2852C
:104D5400080C7402250CF58274033400F5832234A4
:104D640000F50F850E82F583221259F02274EE129B
:104D740018E074FE12186A8C0E8D0FEA2405F50CE7
:104D8400EB124981750B00900300E4F0F50AEA2464
:104D940002F508EB3400F5098049900300E0FA902D
:104DA40002E9E0F8124EA29417124E9A400D9003B5
:104DB40000E0F87416C3989002E9F0124EAB121A90
:104DC400F37CEA7D0274012AFA74033400FB1210A6
:104DD4001074021218809002E9E0F8900300E028B1
:104DE400F0050AE50C2416F582E50D124D5EE0F897
:104DF400E50AC3984003024E83900300E0C394166F
:104E0400507DE50AC333F8E433F9E50C28FEE50DDB
:104E140039FF851A82851B83AC82AD838E828F8392
:104E24001251FB1206DA8A108B11AC10AD11EC4D45
:104E34007005750B018043E4F510F5117810121A12
:104E4400F37510E97511027810121AF37510EA75EA
:104E540011027810121AF374061218D4121B0A796C
:104E6400168508828509831251FB1207FA74081209
:104E74001880E9F50B7003024D9E12545C80107C7F
:104E8400007D038508828509831251FB120458A909
:104E94000B7402025357E99400C365D03322EA2805
:104EA400F8E43400F9E822E0F510751100781022D6
:104EB40074EA1218E074FC12186A8A0C8B0D8C12B6
:104EC4008D13EA2405F50AEB125450750800750990
:104ED40000E50A2402F510E50B3400F51174021202
:104EE40018D485820E85830F780E121AF3850A82F0
:104EF400850B83A3A3A3A312599C121AF3E50A24D6
:104F040005F50EE50B3400F50F780E121AF3851033
:104F1400828511831254561251F51206D474061266
:104F240018808A0E8B0FAE0EAF0FE50C2402F50E1F
:104F3400E50D3400F50F80408882898374FFF00505
:104F440008124D5374FFF005089002E9E0F50C7562
:104F54000D00780C121AF37CEA7D0285080C7402A9
:104F6400250CFA74033400FB12101074021218801A
:104F74009002E9E02508F508EE4F60718E828F8378
:104F8400A3A3A3E0F9850E82850F831251FB1206B9
:104F9400C2E9F509EE240412497EE97044E4F514EB
:104FA400F5157814121AF37514E9751502781412AC
:104FB4001AF37514EA7515027814121AF3740812A8
:104FC40018D4121B0A7911EEFCEFFD850E82850FB1
:104FD400831251FB1207FA7408121880E9F509606C
:104FE40027850C82850D831250DC125469E5087004
:104FF400030250C21250E6850E82850F831251FBC4
:1050040012045E79000250D7850882AA82EA9002CF
:10501400E97009E02404900301F08022E0F8900391
:1050240001E0F514E82404FCE43400FDEC6514709C
:1050340001ED70C0124EA29412124E9A50B6850C15
:1050440082850D83E0C0E074022A124D5AD0E0F04C
:105054000508850C82850D83A3E0C0E0124D53D072
:10506400E01250F885820C85830D780C121AF374C3
:10507400041218D4121B0A851082851183125CC392
:105084001206E074041218808A0C8B0DAE0CAF0D5E
:1050940085080C7402250CF874033400F9EE4F7083
:1050A40003024F3C851A82851B83E0888289831220
:1050B40050F8A3E0C0E0124D53D0E0024F4AE50996
:1050C400700375090A850A82850B831250DC125419
:1050D40069A9097404024D4B125CB28512828513CE
:1050E4008322900301E0F5F0E50884900300F07C4E
:1050F400007D0322F00508851A82851B832274EC47
:105104001218E074FE12186A8A088B098C0E8D0F2F
:10511400EA2405FEEB3400FF851A82851B83AC82EA
:10512400AD838E828F831251FB1206DA8A0A8B0BAF
:10513400EE241812497EEA450B70030251CC125337
:105144003E5032851A82851B831251FB1207EE8A68
:10515400108B11EA4511606B7912AC0AAD0B85080E
:10516400828509831251FB8510828511831218DE12
:10517400E9F50A7058E4F50AF50B780A121AF38E69
:10518400828F83A3A3E0F50A780A121AF3EE2403AC
:1051940012544D780A121AF38E828F83125205121A
:1051A40008007406121880E9F50A7021850C8285BE
:1051B4000D83E0701F8508828509831251FB120458
:1051C400648011750A0E8009750A018004E50A607D
:1051D4000312545C850C82850D83E06004790080A1
:1051E40002A90A74021218807F0C0219B27C007D95
:1051F40003850A82850B831251FF22E0FAA3E0FBA8
:1052040022E0FCA3E0FD8508828509831251FF2278
:1052140074EE1218E074FE12186A8A088B098C0C5A
:105224008D0DEA2405FEEB3400FF750E00851A820D
:10523400851B83AC82AD838E828F831251FB120651
:10524400DA8A0A8B0BEA450B700302532A12533E87
:105254005035851A82851B831251FB1207EE8A0E84
:105264008B0FEA450F605E7912AC0AAD0B8508829C
:105274008509831251FB850E82850F831218DEE99E
:10528400F50E600302532D85088285098312554467
:10529400AA0AFB1207E28A108B11A810A911E84987
:1052A400701E7AFF7BFF1207E28A108B11A810A9E7
:1052B40011E849606C88828983E50AF0A3E50BF064
:1052C400750A008007750E0E805F050A9002E6E0FD
:1052D400FAE50AC39A504AE50A75F017A4FAABF046
:1052E40088828983A3A3E02AFAA3E03BFB8A828B0A
:1052F40083125456EC4D70D2750A17750B00780A58
:10530400121AF3EEFCEFFD1210107402121880EE64
:10531400FCEFFD8508828509831251FB12046A8023
:1053240014750E098003750E01125CAA850C828522
:105334000D83125469A90E024E95E5082402F5085E
:10534400E5093400F5098A828B83A3A3A3E0A2E5CF
:105354002274041218807F0A0219B274EC1218E045
:105364008C108D11EA2405F50CEB124981750F00A0
:10537400EA2402F50AEB125450850A82F58312518D
:10538400FB1207E28A088B09EA45097003025442BA
:10539400750E008071850C82850D83E06401704F69
:1053A4008E828F83A3A3121B0A8E828F83A3A3A34F
:1053B400A3E0F5127513007812121AF3EE2405F522
:1053C40012EF3400F5137812121AF31251F5120881
:1053D400007406121880E9F50F6014850C82850D9F
:1053E40083E4F0125CAA8510828511831254697CCF
:1053F400177D007900EEFAEFFB1210288E828F835E
:10540400E4F0A3F0050E9002E6E0F8E50EC3985030
:105414001EE50E75F017A4F8A9F0850882850983A6
:10542400A3A3125E37125456EC4D600302539985C0
:10543400088285098374FFF0A3F0E50F700612510A
:10544400F5120470A90F0251ECF50AEF3400F50BC4
:1054540022A3E0FCA3E0FD228E828F83125CB2853E
:105464000E82850F83E8F0A3E9F022C082C0839006
:1054740002E2E06A7003A3E06B70067AE27B0280CA
:10548400047A007B0002475CC082C08378008C826F
:105494008D83E06A7003A3E06B7010E875F003A4D9
:1054A400F8A9F0EC28FAED39FB8015088C828D837D
:1054B400A3A3A3E06A7003A3E06B60DF7A007B0020
:1054C40002475C74F61218E01207AC8A828B83E5FB
:1054D40082458370067A007B008007A3A3A3A312EE
:1054E40051FB025B5B74F21218E0E9FE740E1218B1
:1054F400D412554474101218D41259BC8C828D8362
:10550400E064027036A3125CB8F50CA3E0F9A80CB1
:1055140074026870037429697021750C02750D009A
:10552400780C121AF37808121AF3780A121AF3EEA6
:10553400F9120824740612188080027901025BDFD4
:10554400E0F50AA3E0F50B2274E81218E074FB12EC
:10555400186AE9851A82851B83F08A168B17ECFE7C
:10556400EDFF751000741D1218D4125CAE741D1278
:1055740018D41254698E828F83A3A3A3E0A2E450AB
:105584002D741D1218D41251FB1207EE8A828B83DC
:10559400E5824583700302598D790AEEFCEFFDAA7A
:1055A40016AB171218DEE9F5106003025990741F48
:1055B4001218D41259BC74211218D41255447423ED
:1055C4001218D4E0F50EA3E0F50F8E828F83E06409
:1055D40002600302593BA3125CAE850882850983ED
:1055E400A3858212858313EE240612497E8882895C
:1055F40083E0FAA3E0F9EA2400F514E439F5157818
:1056040014121B7D010000280128305607000228CF
:10561400F5560328625600292C58012957580229A7
:10562400F85703292C580429D6583B59E50E450F41
:105634006003025936850C82850D831259B1FAE94B
:10564400FB8A828B83E0850A82850B831259E712D9
:105654001AF38A828B83A3E0FCA3E00258C0E50E10
:10566400450F6003025936850A82850B837401F065
:105674001259C4850882850983F07C007D008E82DE
:105684008F83A3A3A3A3E02401FAA3E03400FB12B5
:1056940006DAEA4B60418A828B83E02402F8850AA9
:1056A40082850B83E028F0EA2404F8EB3400F988BF
:1056B400828983E08512828513831259F91259E78E
:1056C400121AF38A828B83125455E5082403FAE5EF
:1056D400093400FB0258C5850A82850B83E0240443
:1056E400F07C047D007900AA12AB13121028025931
:1056F40090E50E450F60030259361259C4FEA3E02B
:10570400FF850A82850B837404F0EE85088285097F
:1057140083F0EF851282851383F074031218D4ACDE
:1057240082AD83EEFAEFFB1206DA8A0C8B0DEA45A2
:105734000D70030257D98A828B83A3A31246077480
:10574400011218D485820E85830F780E121AF37411
:10575400051218D4121B0A7CFF7DFF1206E07404A4
:105764001218808B0FEA450F7033850C82850D83E8
:1057740012599C121AF3850C82850D83A3121B0AFD
:105784007C027D007ADD7B8F12050C740412188074
:10579400E9700A74011218D474FFF0A3F08E828F9A
:1057A40083E064027039750C02750D00780C121ACE
:1057B400F38E828F83125455E5082404FAE50934E4
:1057C40000FB1210107402121880850A82850B8364
:1057D400E02402800974011218D4EEF0A3EFF074EF
:1057E400011218D41259ADF074011218D4A312592D
:1057F400A5025930E50E450F6003025936850C8227
:10580400850D83125456AA16AB17120818850A82FE
:10581400850B837402F0EA850882850983F085127A
:1058240082851383EB025933E50E450F6003025959
:10583400361259C4F8A3E0F9850A82850B837402F1
:10584400F0E8850882850983F0E98512828513834F
:10585400025933850C82850D831251FB12100AEA1A
:10586400FC8C82A882C3950EE4950F405FE8650E18
:105874007002E50F70047C008022851A82851B83E8
:10588400E0FAE50E2AFAE50F3400FBC3EA98EB943C
:10589400005003E08005E50ECCC39CFCEC850A8235
:1058A400850B83F08C0A750B00780A121AF3850CA9
:1058B40082850D83E0250EFCA3E0350FFDAA08AB1D
:1058C4000912101074021218800259907510070200
:1058D4005990E50E450F705A850C82850D83125C34
:1058E400AE850A82850B8374071246131259A512DA
:1058F4004613A3E0851282851383F0E82402FAE9B3
:105904003400FB8A828B831259A51259D41259ADE3
:10591400A31259DD1259B6F0E82405F8E93400F968
:10592400888289831259B6A31259F9A3A3A3A3F0B9
:10593400805A75100B8055741D1218D41251FB1225
:1059440007AC8A828B83E5824583603D125CAE8816
:105954000C890DE8450D6031780E121AF3780A129D
:105964001AF37808121AF374061218D4E0F9EEFC4C
:10597400EFFDAA16AB17850C82850D831218DE7411
:1059840006121880E9F510800375100EA91074052D
:105994001218807F100219B2E0F50E750F00780E10
:1059A40022E085088285098322125A0322125CB2FE
:1059B400E822125A03A3A322E0F508A3E0F5092282
:1059C400850C82850D83E0F8A3E0F5838882E022CC
:1059D400A3A3F08A828B83A322F088828983A3A362
:1059E400A3A322F08A828B831259F022E0F50A7570
:1059F4000B00780A22F088828983A3125A0322E0DA
:105A0400850882850983A3A32274EE1218E074FE2C
:105A140012186A8A0A8B0BECFAEDFB74141218D470
:105A2400E0F510A3E0F51174161218D4E0FE741812
:105A34001218D4E0F50EA3E0F50F851A82851B83B6
:105A4400AC82AD831206DA8A0C8B0DEA450D6049EF
:105A5400851A82851B831251FB1207AC8A828B83C1
:105A6400E5824583602FA3A31259BCE5084509606C
:105A740024780E121AF37810121AF3EEF9AC0CAD66
:105A84000DAA0AAB0B8508828509831218DE7404FB
:105A94001218808006790E80027901024E9574F600
:105AA4001218E074FE12186A740C1218D41259B148
:105AB400851A82851B83F074011218D4E9F0E4F589
:105AC40008F5097808121AF37508027808121AF30F
:105AD40074041218D48582088583097808121AF38D
:105AE40012080074061218807402121880806874F8
:105AF400F71218E0EAFEEBFF89087C197D0312080F
:105B040018EA5402600BA908EEFAEFFB1206CE80E5
:105B140002790102450F74F61218E074FF6A7003EB
:105B240074FF6B70168C828D83125B60E4F08C8240
