:020000040000FA
:0600000002011A0220704B
:03002B0002271B8E
:030053000220E6A2
:03006B000226E981
:10008300021F1FE5C754F84401F5C7790122000098
:100093000080FB120086B90003020104E479217891
:1000A30008B800028004F709D8FCE479297802B87B
:1000B30000028004F709D8FCE490028178C579072F
:1000C3008002F0A3D8FCD9FA781B90014A7A01BACE
:1000D30000028007E493A3F608DAF97A457B0990D6
:1000E300014B783B79048015E493A3AD82AE838AF8
:1000F300828B83F0A3AA82AB838D828E83D8E9D9C6
:10010300E77582EA75839D740312012C75829175DC
:100113008300740012012C75D00075813F7519811D
:10012300751A02759F00020096C09FF59FE473D075
:100133009F22D083D082C09FE493C0E0740193C018
:10014300E0740293F59F2201FF0000B40000280031
:100153002800283075A000A000A000A0000008001F
:1001630008E001F000100010001000100010001053
:100173000050005000500010001000D00700000095
:100183000000000F0001000500307507001000019A
:100193000081FF00000000FF8306A1068906FF021D
:1001A300020208025000A0000000E80302069001CA
:1001B3000000EF8F0202900100009C0902F68F01FC
:1001C3000000B3020202900100009D0902F88F01B2
:1001D3000000C9020202900100009E0902FA8F0189
:1001E3000000CB020202900100009F0902FC8F086D
:1001F3000000CC02020290010000A00902FE8F0160
:100203000000A109FF0100FF20020690010000E3A6
:100213008F020290010000050A0200900000000016
:100223000002F48F0300001903B30CB30CB30CB337
:100233000CB30CB30CB30CB30CB30CB30CB30CB3C3
:100243000CB30C8F0FA70F890FFFFF0202020202EC
:1002530002020202010D00000010010206900100DB
:1002630000EC8F020290010000480A022690010070
:10027300005D07020290010000490A021890010084
:1002830000138F0202900100004A0A021690010037
:1002930000F78E0202900100004B0A021490010045
:1002A30000A38E0202900100004C0A02129001008A
:1002B30000B58E0202900100004D0A021090010069
:1002C30000918E0202900100004E0A020E9001007E
:1002D300007F8E0202900100004F0A020C90010081
:1002E30000058F020290010000500A020A900100EB
:1002F30000510A01E803053F100AFF0001307503AE
:1003030002010600000000000000000000000000E1
:10031300000000000000000000000000000000FFDB
:10032300FF0600800CE803140953696D706C654285
:100333004C455065726970686572616C05125000B6
:100343002003020A000201050302F0FF53696D70E6
:100353006C6520424C452050657269706865726116
:100363006CCD130000D3130A436861726163746533
:100373007269737469632031000243686172616357
:10038300746572697374696320320008436861722B
:100393006163746572697374696320330010436821
:1003A30061726163746572697374696320340002F6
:1003B300436861726163746572697374696320353C
:1003C30000020690010000E68F0202900100006423
:1003D3000B021C900300002F0902F28F010000653D
:1003E3000B020290010000760B021E900100003008
:1003F3000902F28F010000770B02029001000088CE
:100403000B022090020000310902F28F01000089E3
:100413000B0202900100009A0B02229000000032AE
:100423000902F48F030000330902F28F0100009BDD
:100433000B020290010000AC0B022490040000396F
:100443000902F28F010000AD0B104B657920507249
:100453006573732053746174650002069001000094
:10046300E98F020290010000460C022C900000006C
:100473003E0902F48F0300003F0902F28F010000DE
:10048300470C12013538FE021201354FFE021201EC
:100493003580FE02120135BBFE02120135E5FE0274
:1004A3001201350FFF0212013526FF021201353DFD
:1004B300FF0212013554FF021201357DFF021201C2
:1004C3003590FF02120135A6FF02120135B9FF0272
:1004D300120135E0FF0212013501980212013505C0
:1004E30099021201353D99021201356099021201F8
:1004F300356B99021201358E99021201359D9A02CC
:10050300120135729B02120135ED9B021201357502
:100513009C02120135B09C02120135E79C021201C4
:1005230035759D021201354E9E02120135AE9E02B3
:10053300120135B99E02120135389F021201353B73
:100543009F021201353E9F02120135CD9F02120117
:1005530035D09F0212013500A0021201352AA002F4
:1005630012013518A102120135CAA102120135CDBB
:10057300DB02120135F5DB0212013523DC02120125
:10058300355ADC02120135B8DC0212013503DD02F3
:100593001201354EDD021201358EDD02120135D412
:1005A300DD0212013502DE02120135BFDE02120145
:1005B30035C9DE02120135D6DE0212013509DF022A
:1005C300120135D5DF02120135E1DF02120135F9DF
:1005D300DF0212013503E002120135309C031201E0
:1005E300353E9C03120135569C031201356E9C0364
:1005F30012013527B001120135D3B0011201354E76
:10060300B1011201356FB201120135ABB201120112
:100613003554B3011201353BB4011201359FB501C5
:10062300120135F6B50112013577B60112013567AE
:10063300B701120135B4B7011201353AB8011201FD
:10064300356CB80112013580BA01120135C2BA0105
:10065300120135E0BA0112013563BB0112013537CE
:10066300BC01120135FFBC011201353AC50212016A
:10067300350DC602120135B6C60212013509C7028D
:10068300120135B9C70212013545C80212013531CD
:10069300C90212013560C90212013573CA0212017F
:1006A30035BBCA0212013590CB02120135CCCB0205
:1006B300120135E8CB02120135079D031201359F64
:1006C300FA02120135B5FA02120135DBFA02120100
:1006D30035F7FB0212013501FC0212013536FD022A
:1006E3001201352EFE02120135E3D1021201351338
:1006F300D30212013546D30212013590D3021201FF
:100703003557D50212013538A001120135A2A001D7
:1007130012013501A20112013511A2011201353E68
:10072300A20112013595A2011201353EA301120166
:100733003545A4011201350FA5011201356FA6013C
:10074300120135B2A60112013557A701120135A4D2
:10075300A701120135CAA701120135D8A901120157
:1007630035DDA901120135E2AB011201352FAC01D0
:10077300120135A2AC01120135D5AC011201357756
:10078300AD0112013520AE0112013558AE0112013F
:10079300355BAE01120135A3AE01120135E3AE01A3
:1007A3001201353AAF01120135948303120135ACBE
:1007B3008303120135F483031201350A8403120102
:1007C30035518403120135658503120135F2850322
:1007D3001201353D860312013548270012013554B5
:1007E30027001201358F2700120135D4270012018B
:1007F300359428001201351A29001201357F29008A
:10080300120135AB2900120135E42900120135220A
:100813002C00120135062E00120135EC2F001201B7
:10082300352F31001201357D33001201358F34002D
:10083300120135DA3500120135EA360012013507A7
:1008430037001201354237001201356437001201B7
:1008530035C73700120135883C001201351D3D00B4
:100863001201356E3D00120135953D00120135E749
:100873003D00120135053E001201355F3E001201B5
:1008830035483F00120135BE400012013542410098
:100893001201353CE50212013546E50212013589A4
:1008A300E502120135A4E50212013534E602120114
:1008B300355CE60212013599E602120135D0E602F3
:1008C300120135F9E6021201356EE7021201358392
:1008D300E70212013598E702120135C9E702120156
:1008E30035DDE70212013502E8021201353CE80268
:1008F30012013568E802120135A0E8021201351F22
:10090300E90212013568E90212013592E902120186
:1009130035BDE90212013546970312013500800205
:100923001201352E80021201357C81021201355CE1
:1009330082021201357B8202120135F88202120112
:10094300353B83021201359184021201355285022F
:10095300120135D987021201357A880212013570E6
:1009630089021201356D8A02120135C78B02120109
:1009730035528C02120135C294031201352B9503B3
:100983001201357F9503120135A69503120135D760
:1009930095031201357FEE02120135ECEE021201CE
:1009A3003533EF021201354BF00212013547F102E4
:1009B3001201352AF202120135E9F6011201352B33
:1009C300F701120135FDF701120135D6F8011201C5
:1009D30035D0F901120135B2FA011201351BFB01C1
:1009E300120135D1FB0112013545FC01120135B16C
:1009F300FC01120135DAFC0112013554FD0112012B
:100A030035EDFD0112013552FE0112013567FE017C
:100A1300120135ADFE01120135C6FE011201352B5F
:100A2300FF011201352EFF01120135657C00120111
:100A3300358D7C00120135CB7C00120135897D0098
:100A4300120135F07D001201350C7E0012013534A0
:100A53007E00120135647E00120135737E0012019F
:100A630035F07E00120135167F00120135319001F9
:100A7300120135CF9101120135EA93011201352696
:100A83009401120135539401120135389501120175
:100A9300357F9501120135C39501120135D59501B5
:100AA3001201351596011201354296011201358D59
:100AB3009601120135CD9601120135FB9601120103
:100AC300354D9701120135DD97011201357B9A01EE
:100AD300120135919C01120135CF9C011201356041
:100AE3009E01120135A59E011201351C9F011201C1
:100AF30035669F01120135919F0112013505AC0244
:100B030012013584AC0212013546B2021201355589
:100B1300B302120135BDB40212013554B5021201FC
:100B2300353F5700120135885700120135B557007C
:100B3300120135E85700120135F55700120135014E
:100B43005800120135135800120135FA58001201EA
:100B5300355859001201358D5900120135D05A000C
:100B63001201351D5B00120135415B00120135AEE8
:100B73005B001201356C5C00120135255D0012012A
:100B830035925D00120135445E00120135545E005A
:100B9300120135DB5E001201359A5F00120135C781
:100BA3005F001201354060001201359D60001201A3
:100BB30035E760001201357D61001201354862009E
:100BC300120135FD6200120135726300120135D343
:100BD30063001201353D6400120135766400120191
:100BE3003518650012013528660012013568660064
:100BF300120135856600120135A46600120135EB3A
:100C030066001201351067001201353D67001201BD
:100C130035B76700120135F867001201351C69000A
:100C2300120135CC6900120135236A001201358D9A
:100C33006A00120135A66A001201353BA2021201B5
:100C4300358EA2021201359AA2021201356FA30258
:100C530012013596A302120135D1A3021201353DCB
:100C6300A40212013579A402120135B2A4021201C1
:100C730035CAA4021201351FA50212013538A50297
:100C830012013581A50212013594A502120135AE78
:100C9300A502120135C4A502120135F7A6021201FD
:100CA300353EA80212013540A9021201353AAA02C3
:100CB300120135FDFF01120135B2E901120135E2DE
:100CC300E901120135AAED0112013501EF0112010B
:100CD30035CAEF011201354AF1011201351BF20148
:100CE30012013558F2011201357BF201120135B9B7
:100CF300F201120135C2F2011201350CF3011201A6
:100D03003516F301120135C0F30112013599F401CF
:100D1300120135EDF4011201354FF501120135A22F
:100D2300F501120135D1F5011201350EF60112015B
:100D330035D86A001201353F6E00120135456E0049
:100D4300120135C7730012013540780012013516C0
:100D53007C0012013505F7021201357BF7021201FF
:100D63003591F702120135D2F7021201350CF80260
:100D730012013585F802120135C0F802120135332C
:100D8300F90212013571F9021201357AF9021201E1
:100D93003586F902120135A2F902120135CDF902A5
:100DA300120135E3F9021201350CFA021201356F13
:100DB300FA021201350AD7021201351DD7021201B8
:100DC3003537D70212013560D702120135A3D70296
:100DD300120135E2D70212013520D80212013585FE
:100DE300D8021201359AD802120135A5D802120190
:100DF30035B2D802120135C9D802120135D7D8024B
:100E0300120135E2D802120135EED8021201350182
:100E1300D9021201350CD9021201352FD902120160
:100E230035D6D902120135E6D90212013500DA02AC
:100E33001201351DDA0212013539DA021201355E6B
:100E4300DA0212013569DA021201357EDA02120181
:100E53003592DA02120135F3DA02120135F9DA02B8
:100E6300120135FFDA0212013505DB021201351DCD
:100E7300DB0212013550DB0212013589CD0112016B
:100E8300350DCE01120135BCCE011201351BD00147
:100E93001201353CD20112013528D3011201355D0F
:100EA300D3011201357FD3011201352ED401120172
:100EB3003526D6011201354FD601120135E1D6018F
:100EC30012013513D70112013520D70112013577ED
:100ED300D7011201359DD7011201350ADA0112013A
:100EE300350DDB0112013565DB0112013518BF0138
:100EF30012013522C00112013509C1011201351356
:100F0300C10112013535C10112013541C10112017F
:100F130035DAC20112013509C30112013525C401B5
:100F23001201357EC401120135E4C501120135C336
:100F3300C6011201351FC7011201358CC701120109
:100F430035C7C70112013506C801120135BFCA01F1
:100F5300120135D9CA0112013565CB01120135736E
:100F6300CB01120135CCCB01120135DACB011201D1
:100F7300354DCC01120135B1CC01120135FBCC0149
:100F8300120135D38C02120135F58C021201351B87
:100F93008F02120135309202120135489302120179
:100FA30035FB9302120135DD94021201357B910367
:100FB300120135A09103120135129203120135C0BB
:100FC300BD02120135C9BD02120135D2BD021201A3
:100FD30035A9BE021201355AC00212013590C00272
:100FE300120135CAC00212013500C1021201353A9D
:100FF300C1021201356EC1021201359AC1021201FA
:1010030035E3C1021201351DC20212013566C20267
:10101300120135BEC202120135F3C2021201354E6E
:10102300C30212013588C302120135D9C30212016A
:10103300350FC40212013549C40212013577C402C7
:101043001201359AC40212013552FF011201357E95
:10105300FF01120135D9FF01120135E3FF0112012E
:1010630035F3FF011201355DCC0212013567CC0265
:10107300120135A5CC02120135EECC02120135283E
:10108300CD0212013582CD02120135A3CD02120128
:1010930035ACCD02120135F9CD0212013522CE0253
:1010A3001201352CCE0212013598CE021201352AD7
:1010B300CF0212013574CF02120135AACF021201F9
:1010C3003536D00212013577D002120135AED00287
:1010D300120135C0D002120135DFD002120135E80A
:1010E300D002120135B5D1021201355A9A03120109
:1010F30035BD8D03120135F38D03120135298E039E
:10110300120135748F031201355E7F0012013574AD
:101113007F001201357E7F00120135C87F00120166
:10112300358B9D03120135E5E902120135FAE90217
:10113300120135AAEA02120135EAEA021201350365
:10114300EB021201353EEB021201358BEB02120169
:1011530035BDEB02120135FFEB0212013500EE0241
:1011630012013572EE021201356399031201358CB7
:101173009903120135BB9903120135D39903120167
:1011830035159A031201356786031201358C8603E0
:10119300120135B68603120135429E03120135A9A9
:1011A30041001201350E4400120135AF4500120112
:1011B30035634600120135F646001201357B4700C0
:1011C300120135A04700120135F64A001201357CA1
:1011D3004B00120135AF4C00120135E94C001201EE
:1011E300351E4D00120135DE4E001201353B4F0016
:1011F300120135844F00120135EF4F0012013560A3
:101203005000120135925000120135AA500012010C
:1012130035F351001201350352001201351E5300FC
:101223001201354053001201357653001201352A5D
:101233005500120135B75500120135F6550012015C
:10124300351A57001201352B9F03120135989E035F
:10125300120135D79E031201353C9F03120135510C
:101263009B03120135619B03120135769B03120127
:10127300352A9C031201355F9803120135E4980364
:101283001201354A99031201351D960312013544A3
:1012930096031201359A9603120135AC9603120197
:1012A30035FC96031201353A97031201353D970336
:1012B300120135ECF20212013500F3021201357A04
:1012C300F3021201355EF40212013535F602120102
:1012D300359AF602120135F1F602120135F87F0054
:1012E300120135788B03120135138D031201357406
:1012F3008D03120135BA8D031201352093031201B8
:1013030035729303120135FC930312013563940381
:101313001201353389031201355D89031201352B1F
:101323008A03120135068B031201357EB5021201C1
:101333003545B6021201357CB602120135A6B60256
:1013430012013506B7021201355CB702120135C12D
:10135300B70212013559B80212013568B9021201F8
:1013630035FFBA021201358CBB02120135F3BB0201
:101373001201350ABC0212013524BD021201356285
:10138300BD02120135B3DB0112013534DF01120155
:1013930035BCE00112013513E10112013532E101DF
:1013A300120135B0E10112013546E3011201352B7B
:1013B300E40112013539E8011201350FE901120187
:1013C300358AE00212013537E3021201355DE4028A
:1013D30012013507E502120135008003120135457C
:1013E3008003120135628003120135188103120153
:1013F300356B81031201354182031201355B83038F
:10140300120135AE8F03120135F38F0312013547F5
:101413009003120135CA9003120135429103120160
:1014230035E19E031201350D9F03E066701008A39A
:10143300E066700A08A3E066700408A3E06622C3AE
:10144300E7960809E7960809E7960809E79622C38D
:10145300E09608A3E09608A3E09608A3E09622C0CE
:1014630008C3E096F50808A3E096420808A3E096AF
:10147300420808A3E09645087001D3D00822080863
:1014830008EAC0E0EBC0E086F0E7A4FA180986F0AA
:10149300E7A42AFA180986F0E7A42AFA180986F0BD
:1014A300E7A42AFA1986F0E7A4FBE5F02AFA19085B
:1014B30086F0E7A42BFBE5F03AFA190886F0E7A4D7
:1014C3002BFBE5F03AFA18180986F0E7A4C5F02BD0
:1014D300FBE43AFA1908E7C5F0C6A426F6E5F03BA3
:1014E300FBE43AFA1886F0E7A4F6E5F00826F6E4FA
:1014F3003B08F6E43A08F6D0E0FBD0E0FA22E4CF6A
:10150300C0E0E4CEC0E0E4CDC0E0E4CCC0E075F0E0
:1015130020E626F608E633F608E633F608E633F661
:10152300181818EC33FCED33FDEE33FEEF33FFC335
:10153300EC9709ED9709EE9709EF97191919400FE1
:10154300FFEC97FC09ED97FD09EE97FE191906D5F7
:10155300F0BFECF709EDF709EEF709EFF7191919E1
:10156300D0E0FCD0E0FDD0E0FED0E0FF2260160822
:101573000808C6C313C618C613C618C613C618C6AA
:1015830013C6D5E0EA227009080808226016181865
:1015930018C6C333C608C633C608C633C608C6331F
:1015A300C6D5E0EA22E627F60809E637F60809E693
:1015B30037F60809E637F622E026F608A3E036F602
:1015C30008A3E036F608A3E036F622E026F008A3E7
:1015D300E036F008A3E036F008A3E036F022C3E6D5
:1015E30097F60809E697F60809E697F60809E697D5
:1015F300F622C3E096F008A3E096F008A3E096F085
:1016030008A3E096F022E056F608A3E056F608A3F6
:10161300E056F608A3E056F622E056F008A3E0569B
:10162300F008A3E056F008A3E056F022E0F608A382
:10163300E0F608A3E0F608A3E0F622E6F008A3E646
:10164300F008A3E6F008A3E6F022E0FAA3E0FBA388
:10165300E0FCA3E0FD22EAF0A3EBF0A3ECF0A3EDA2
:10166300F022CAC0E0E6F0A308DAFAD0E0FA22CA10
:10167300C0E0E0A3C582CCC582C583CDC583F0A3FA
:10168300C582CCC582C583CDC583DAE6D0E0CA2244
:10169300C3E498F8E499F91216D48026C3E49AFABD
:1016A300E49BFBE920E7E91216D4E498F8E499F9FE
:1016B30022C3E498F8E499F91216D4E498F8E4996B
:1016C300F9C3E49AFAE49BFB22EB20E7CFE920E796
:1016D300E0B90010BB0008E88AF084F8AAF022E41D
:1016E300FBC8FA22EB70227B10C833C8C933C93355
:1016F3005007C39AC3DBF280069A50012ADBEAC87B
:1017030033F4C8C933F4C9FA2275F008E4C833C8FE
:10171300C933C933C99AC99B5004C92AC93BD5F0F7
:10172300ECFBC833F4C8E4C9FA22600D08C6A2E78B
:1017330013C618C613C6D5E0F322600C08C6C3133C
:10174300C618C613C6D5E0F422700422600D18C66D
:10175300C333C608C633C6D5E0F41822251910AF23
:1017630008F519400C151A8008F5194002151AD20C
:10177300AF2200C0D0251910AF08F519500C051A77
:101783008008F5195002051AD2AFD0D0222519F5D9
:101793008210AF08F519400C151A8008F51940029C
:1017A300151AD2AF851A83222519F582E4351AF565
:1017B3008322E4732519C582C0E0E51A34FFC5838B
:1017C300C0E0E519C3958224F810AF0885831A8514
:1017D3008219800885831A858219D2AFCEF0A3E5DA
:1017E30020F0A37808E608F0A3DEFAEFF0A3E58182
:1017F30024FAF8E608F0A3E608F0A3E608F0A30845
:1018030008E608F0A3E608F0A315811581D0E0FEF1
:10181300D0E0F8158115811581E8C0E0EEC0E02223
:101823002519C582C0E0E51A34FFC583C0E0E51978
:10183300C3958224F910AF0885831A85821980081D
:1018430085831A858219D2AFCEF0A3E520F0A37861
:1018530008E608F0A3DEFAEFF0A3E58124FBF8E63F
:1018630008F0A3E608F0A30808E608F0A3E608F0EA
:10187300A315811581D0E0FED0E0F815811581E82C
:10188300C0E0EEC0E022851A83851982E0A3FEE062
:10189300A3F5207808E0A3F608DFFAE0A3FFE0A3AE
:1018A300C0E0E0A3C0E0E0A3C0E0E0A3C0E0E0A3A9
:1018B300C0E010AF0885821985831A8008858219D4
:1018C30085831AD2AFD083D082020132851A8385F1
:1018D3001982E0A3FEE0A3F5207808E0A3F608DF71
:1018E300FAE0A3FFE0A3C0E0E0A3C0E0E0A3C0E010
:1018F300E0A3C0E010AF0885821985831A800885AC
:10190300821985831AD2AFD083D08222C0D0251901
:10191300C582C0E0E51A34FFC583C0E0E519C3956D
:101923008224F310AF0885831A8582198008858382
:101933001A858219D2AFC8F0A3E9F0A3EAF0A3EBAA
:10194300F0A37908E709F0A3D8FAECF0A3EDF0A32C
:10195300EEF0A3EFF0A3D0E0F0A3D0E0F0A3D0E04B
:10196300F0A3E520F0A3E5F0F0A322851A838519FF
:1019730082E0C0E0A3E0F9A3E0FAA3E0FBA37808C8
:10198300E0F608A3DFFAE0FCA3E0FDA3E0FEA3E09A
:10199300FFA3E0C0E0A3E0C0E0A3E0F5D0A3E0F53F
:1019A30020A3E0A3F5F010AF0885831A8582198080
:1019B3000885831A858219D2AFD082D083D0E0F80C
:1019C300D0E03274048006740280027401C0E0F433
:1019D30004121790D0E01216652274048004740276
:1019E3008000CCC0E0EDC0E0E519C39CCCAD1A503B
:1019F300011D10AF068C198D1A80068C198D1AD211
:101A0300AF121672D0E0FDD0E0FC22D083D082E981
:101A1300C0E0E493A3C386F0C5F095F0F908E4931E
:101A2300A386F0C5F095F0700BE493A3C39940052A
:101A3300E9048002A3E475F002A42582F582E5F0AF
:101A43003583F583D0E0F9E493A3C0E0E493C0E0E9
:101A530022D083D082ECC0E0EDC0E0E493A3FCE4A9
:101A630093A3FDED4C600D121AA0EC24FFFCED34A2
:101A7300FFFD80EFE493A3FCE493A3FDED4C600D25
:101A8300121ADFEC24FFFCED34FFFD80EFD0E0FD04
:101A9300D0E0FCE493A3C0E0E493C0E022C0E0C341
:101AA300E49396087401939618400FE493667008C4
:101AB30008740193661870007019A3A3C3E4939686
:101AC300087401939618A3A3400DD0E0D0E0D0E0B2
:101AD300021A90A3A3A3A3A3A3D0E022C0E0C0F063
:101AE30088F0E4936670080874019366187000A880
:101AF300F0A3A3700BD0F0D0E0D0E0D0E0021A90B6
:071B0300A3A3D0F0D0E02203
:101B0C0074F5121823EAFEEBFFEE2434F8EF3400E0
:101B1C00F988088909EE2435121C38F8EE2437129E
:101B2C001C38F50AEC850AF0A4FCAAF0850AF0ED45
:101B3C00A42AFDE82CF8E43DF97A257B001216D492
:101B4C00EA850882850983F074075AF87401B80095
:101B5C00028004C333D8FCFBEA131313541FF8EEB2
:101B6C0028F8EF3400F9E8245DF582E9121C3B5BA0
:101B7C006003EA801CEE2436121C38F5F0EA84A8C7
:101B8C00F0EE28F8EF3400F9E82438F582E9121C5D
:101B9C003BF97F040218CF74F5121823EAFEEBFF11
:101BAC00EE2434121C38C0E0EE2435F582EF3400FC
:101BBC00F583D0E0F08E828F83A3A3A3A3A3E0FAD6
:101BCC00A3E0FB8E828F83A3A3A3A3A3A3A3E0FC18
:101BDC00A3E0FDECC39AF50AED9BF50BEE247FF523
:101BEC0008EF3400F509850882F583E06401702B59
:101BFC00EE2480F582EF3400F5831219E1121C41BA
:101C0C007402121775E960137CDC7D04EEFAEFFBAD
:101C1C00120BDB850882850983E4F0AC0AAD0BEE70
:101C2C00FAEFFB121B0C1226D5021B9EF582EF3429
:101C3C0000F583E022C082C083851982851A83E077
:101C4C00F8A3E0F9C3EA9CEB9D5010C3EC98ED9916
:101C5C00401BC3EA98EB995014800EC3EA98EB9999
:101C6C004007C3EC98ED994004790180027900D0CB
:101C7C0083D08222EAC39CFAEB9DFB2274ED1218EE
:101C8C00239003A2E064086005E06407702C906167
:101C9C00C8E060269003D0E0F874FF68601CE8751B
:101CAC00F003A4C8AAF02AF974D228FE740339FFF1
:101CBC008E828F83A3A3A3E070057900021E28EE09
:101CCC002468F510EF3400F511906060E085108207
:101CDC00851183F0750A45750B05750800750900AB
:101CEC00E5D914F50EE5D95403F50F601CEE2482EA
:101CFC00F50CEF3400F50D7403650F6058E50E60BC
:101D0C0013EE2467121C38700B793DEEFAEFFB12C0
:101D1C000BFF80A6900540E064016026850C82854F
:101D2C000D83E06004780480027800850E08E508D5
:101D3C00C398FA95E0FB120A7F8A088B09EA4509D9
:101D4C007006120E5D021CC6850C82850D83E07038
:101D5C00048A0A8B0B78008016E5D9C0E08812E55E
:101D6C000A2512F582E50B3400F583D0E0F008E883
:101D7C00C3950E40E4850C82850D83E0602874FCCD
:101D8C00250EF50E780A1219CAAC0EA90FEEFAEF51
:101D9C00FB120CAD7402121775E9700AAA08AB0994
:101DAC00121301021D157403650F6058850E0C7516
:101DBC000D00780C1219CAAC0AAD0BAA08AB0912AB
:101DCC000C717402121775851082851183E0F874FA
:101DDC0080687005750C7F8002880CE50CF50A781C
:101DEC000A1219CEE50FF50A780A1219CEA90EAC13
:101DFC0008AD099003D0E0FA7B00120917740212A7
:101E0C00177580139003A2E06408600BAC0AAD0B4D
:101E1C00EEFAEFFB120D43120E6979017F0C0218DA
:101E2C00CF74F312182374FC12175FEAFEEBFF89D0
:101E3C0008A2AFE433F509C2AFEE2463F50AEF3420
:101E4C0000F50B8010AA0AAB0B120C29121301908F
:101E5C0004E3E004F0850A82850B83E0F8A3E0F943
:101E6C00E849602FE82402FAE93400FBEA2402F581
:101E7C000CEB3400F50D780C1219CA8A828B83E0B6
:101E8C00FCA3E0F9EEFAEFFB120C1D7402121775AD
:101E9C00E960B29004E3E060579004E4E0F8900449
:101EAC00E3E0C398500C7402650870449004E5E0BC
:101EBC00603E8E828F83A3A3A3A3E0851982851A2B
:101ECC0083121F0C74021217ABE8121F0C9004E261
:101EDC00E028F074021217ABAC82AD8385198285B1
:101EEC001A83AA82AB8379011209239004E3E4F0EC
:101EFC00E509A2E092AF74041217757F060218CFA1
:101F0C00F0A3E4F09004E3E0F8220000852187853B
:101F1C0022C622C0E074EF12190FA2AFE433FEC246
:101F2C00AF759B00906182E0A2E05012E591A2E0B7
:101F3C00500C7591FE740165217003121C88E0A28F
:101F4C00E55051E591A2E5504B7591DF9003A2E06D
:101F5C0064076005E06408702374016521703579AD
:101F6C00019003D0E0FA75F003A4CAA8F028FB7422
:101F7C00D22AFA74033BFB121E2D8018E0640D70FC
:101F8C00139003C4E004F064287002E4F07A00E0DB
:101F9C00F9120E6F906182E0A2E64003022046E542
:101FAC0091A2E640030220467591BF9003A2E06423
:101FBC00057008120D85120D918003120D8B752181
:101FCC0000120DFDE99003A3F07900120DF1120B34
:101FDC00457A017B009003A1E0F91210C1907803BF
:101FEC00E064427055900544E014F0704DC2AF129D
:101FFC001FFE00782AD0E0F618D0E0F6E59F5407D3
:10200C0070057509FF800375097FC4C0E07829E667
:10201C00F50808E65509F509740B780812173DD038
:10202C00E02508F8906270E0A2E740F8E8C333902E
:10203C006272F0906270E0D2E0F0906181E0A2E315
:10204C005009E5E9A2E3500375E9F7A3E0A2E750D4
:10205C0009E591A2E7500375917FEEA2E092AF7F64
:10206C000402196EC0E0C0D0C082C083906183E0CE
:10207C00A2E05009E5BFA2E0500375BFFEE0A2E16B
:10208C005009E5BFA2E1500375BFFDE0A2E2500983
:10209C00E5BFA2E2500375BFFBE0A2E35009E5BF28
:1020AC00A2E3500375BFF7E0A2E45009E5BFA2E438
:1020BC00500375BFEFE0A2E55009E5BFA2E5500360
:1020CC0075BFDFE0A2E65009E5BFA2E6500375BF7D
:1020DC00BFD083D082D0D0D0E032C0E074F21219DD
:1020EC000FE5A7A2E4500FE5A1A2E4500953A7EF16
:1020FC0075A1EF12213AE5A7A2E5500CE5A1A2E5E6
:10210C00500653A7DF75A1DFE5A7A2E15009E5A1B1
:10211C00A2E1500375A1FDE5A7A2E2500CE5A1A236
:10212C00E2500653A7FB75A1FB7F0102196E74F8F0
:10213C001218237521019003A2E0640670077A003F
:10214C007B00120D6DA2AFE433FED2AF9003A8E07A
:10215C00640170187A207B009003A1E0F912114BF6
:10216C007A207B009003A1E0F91210C7906182E005
:10217C00D2E6F0900541E0602185C62280169003DE
:10218C00A7E064017008E5C654F84405F5C653BED3
:10219C00FC121F187401652160E4EEA2E092AF7F7F
:1021AC00010218CF8E238F248582288583278519D9
:1021BC0082851A83E0CEA3E0CF852882852783EB26
:1021CC00C9EAC8EDCBECCA75F010C3E833C8E933E3
:1021DC00C9EA33CAEB33CBC3EA9EF526EB9FF52550
:1021EC00B35004AB25AA26EC33CCED33CDD5F0DAC5
:1021FC00AE23AF242274E912182374FA12175FEA83
:10220C00FEEBFF8C088D099003A2E024F7C3940524
:10221C00500675100102232C120CE38A0A8B0BEA70
:10222C00450B7003022329120DA38A0C8B0D120D82
:10223C00A3EA650C7003EB650D60ECEEFCEFFD851D
:10224C001982851A83AA82AB83120DA9850A82850D
:10225C000B83A3A3780C12162F908FC3780C121635
:10226C0009851982851A83781412162F908FC378DA
:10227C0014121609780C7914121442501F780C7928
:10228C00141215E1908F63780C1214624047850C80
:10229C0010850D11850E12850F138045908F638567
:1022AC0014108515118516128517137810790C12D8
:1022BC0015E17810121462501C7510007511007520
:1022CC001200751301781079141215E17810790C3D
:1022DC001215A8800C75100175110075120075137C
:1022EC000074097810121589908F8B780C12162FA8
:1022FC007810790C1215019003A2E06408600AE0D2
:10230C0064066005E064057020908F6778101214E5
:10231C00625016908F6B78101215BB800C751000E4
:10232C007511007512007513008508828509837874
:10233C001012163E74061217757F100218CF74F720
:10234C00121823120DBB90053FE0640170109062CF
:10235C0045E4F0A3F053F4F343FE0C5390F3120D49
:10236C005BE5C654804449F5C6E59E547F644970CC
:10237C00F8906185740FF090053DE0F47002A3E0D5
:10238C00602C75080175090090053DE0780812175E
:10239C004CE508F4FAA3E0600814600A14600C80A1
:1023AC000DEA52808008EA52908003EA52A079002C
:1023BC007F020218CF74F7121823E9FEEAFF7401AA
:1023CC006E700C7A807B009003A1E0F91210C19022
:1023DC002740E493F46008E493F9120B2780095327
:1023EC00C680E59E547F70FA120D6190053FE06443
:1023FC00017003120B5D90053DE0F47002A3E060E8
:10240C002A75080175090090053DE0780812174CF3
:10241C00AA08A3E0600814600A14600C800DEA425C
:10242C00808008EA42908003EA42A0120CE38A08FA
:10243C008B09A808A909E8496017E5E170FCE824B4
:10244C0014F582E93400F583E0F874FF68600288C3
:10245C00E174016F700A7A019003A1E0F912111571
:10246C000223BC74F11218238A088B098C0A8D0B79
:10247C00908FC37808121609740F1217AB780C12D0
:10248C00162F908FC3780C1216097808790C121439
:10249C0042908F6350107808790C1215E17808126D
:1024AC0014624014800E780C79081215E1780C1225
:1024BC00146250047901800279007F080218CF74ED
:1024CC00ED1218238A088B098C0A8D0B908FC37818
:1024DC000812160974131217AB780C12162F908F62
:1024EC00C3780C121609780C790812144240117832
:1024FC0008790C1215E1AA08AB09AC0AAD0B8022C5
:10250C007510007511007512007513017810790C97
:10251C001215E1781079081215A8AA10AB11AC129B
:10252C00AD137F0C0218CF908FC3780812162F8A28
:10253C00828B83780812161C7F040218CF74F51254
:10254C0018238C828D83780812162F8A828B8378BD
:10255C00081215F512259DC3E098F0A3E0991225F9
:10256C008F401E908F9F780812162F8A828B83784B
:10257C00081215CE8E828F83E02420F0A3E0344E17
:10258C00F080A4F08E828F83C3E09420A3E0944E5D
:10259C0022EA2404F8EB3400F9E8FEE9FF8C828D82
:1025AC0083A3A3A3A3E0F8A3E0F98E828F83227404
:1025BC00F5121823E9FE9004F7E0FAA3E0FBEEC352
:1025CC0033F8E433F974E728F582748E39F583E037
:1025DC002AF508A3E03BF50978081219CA908FCFA9
:1025EC0012164D1221B074021217758A088B098CC1
:1025FC000A8D0B74107808121570AA08AB097F04A9
:10260C000218CF74F11218238A0C8B0D8C0E8D0FBF
:10261C00740F1217ABE0FAA3E0FB74111217ABE0C6
:10262C00F508A3E0F50978081219CAEA2401F5089F
:10263C00EB3400F509E4F50AF50B780C7908121463
:10264C0081908F77780812162F780C7908121481E4
:10265C00AA0CAB0DAC0EAD0F1221B0740212177593
:10266C008B09EA450960047A0180027A00EC2AFCA5
:10267C00ED3400FD74131217ABE0F8A3E0F9E8FE9B
:10268C00E9FFECF8EDF97A717B021216D48808890F
:10269C0009E4F50AF50B8E828F83780812163EEC4E
:1026AC00F8EDF97A717B021216D48A088B0974053D
:1026BC00780812174C8E828F83A3A3A3A3E508F08E
:1026CC00A3E509F07F080218CFC082C083E99060AF
:1026DC0000F0D083D08222C2AF02000022C0E0748E
:1026EC00F212190FA2AFE433FED2AFE589A2E0409B
:1026FC0006E589A2E150031212A1758900758900C3
:10270C00C2C5751B00EEA2E092AF7F0102196EC02C
:10271C00E0C0D0E8C0E0E9C0E0E5A8D2AFC2C77520
:10272C001B00A2E7A2E792AFD0E0F9D0E0F8D0D03E
:03273C00D0E032B8
:10274000FFFFFFFFFFFFFFFFC082C083E9900A0485
:10275000F00229D774F71217B7E99002E1F07C195B
:102760007D037AFF7BFF1208699002E274FFF0A3F9
:10277000F0A3E4F0A3F079051207F19002E1E0F98B
:102780001207137A877B08120A317F0102188974B5
:10279000F41217B78A088B09EB548060309002E17D
:1027A000E0F91210A98A0A8B0BAE0AAF0BEE4F604C
:1027B000138E828F83E064B07003120809EEFAEF83
:1027C000FB121097AA08E5096480FB80047A007B5D
:1027D000000229A674F21217B774FC12175FEAFE02
:1027E000EBFFEE4F603874021217ABEEF0A3EF125E
:1027F0002C0BECF0A3ED122C0BAA82AB8312070D6D
:10280000E9F508707374121217AB1237BFE50A4569
:102810000B60658E828F83122882EE4F70057508DB
:102820000280557A067B001210FD8A0C8B0DA80CD5
:10283000A90DE8497005750813803D88828983E4F5
:1028400012288CA3A3EEF0A3EF123C58E50AF0A3E4
:10285000E50BF09002E71229149002E76017E0FC04
:10286000A3E08003EAFCEBFD8C828D8312291470B7
:10287000F38C828D831236E4A90874041217750252
:102880003E5AA3A3A3A3E0FEA3E0FF22F0A3F08897
:102890008289832274F21217B7890AE975F017A4A6
:1028A000FEAFF09002E6E4F09002E4122914600A10
:1028B0001211039002E4E4F0A3F0EEFAEFFB121021
:1028C000FD8A088B09EA4509602FEEFCEFFD7900CF
:1028D0001210859002E4E508F0A3E509F07B008082
:1028E000081228FEE4F0A3F00BEBC3950A40F2E5D2
:1028F0000A9002E6F0790080027913023E5AEB75E5
:10290000F017A4F8A9F09002E4E028FAA3E0398ACD
:1029100082F5832212347AEA4B2274F41217B775C7
:102920000800750900740C1217AB123C2CFEE9FF6D
:10293000800CE5082401F508E5093400F509C3E534
:10294000089CE5099D503285080A85090B740378B7
:102950000A12174CEA250AF8EB350BF988828983AD
:10296000A3A3A3A3A3A31237BFEE650A7003EF6569
:102970000B70BFE8FAE9FB80047A007B00802774C3
:10298000F41217B77900EAA2E0501B75084C7509DC
:102990008F78081219CA7C047D007A067B0A120718
:1029A000EB74021217757F04021889C082C08390ED
:1029B00002E71229DE601C88828983A3A3E06A7083
:1029C00003A3E06B8882898370E8A3A3A3A31234D6
:1029D0007680047A007B00D083D082020132123FDD
:1029E0002DE8492274EE1217B774FC12175FEAFE45
:1029F000EBFF851982851A83E4F0A3F0EE2402121E
:102A000036C8EE2405122BF9EE2404F50EEF122F32
:102A1000DEE024FE603924FC604624FE605224FE81
:102A2000605E24FE7003022AFE24FE7003022B76F1
:102A300024FE7003022B8524FE7003022B9424FCD9
:102A40007003022BA324FE7003022BB2022BEF9023
:102A500003007417F0A3E4122C1312048B022BEF63
:102A6000851982851A83AC82AD8312080F022BBFB1
:102A7000851982851A83AC82AD83120815022BBF9B
:102A8000850C08850D0974021217ABAC82AD8385E5
:102A900008828509831234761207318A0C8B0DACBB
:102AA0000CAD0DEC4D6042E4F50CF50D780C1219EF
:102AB000CA750C00750D03780C1219CA750C0175D6
:102AC0000D03780C1219CA74081217AB1219E179A8
:102AD000161234701208517408121775E9F50C704B
:102AE0000B12346C1204A3800F750C0185088285CB
:102AF0000983122C011236E4850C08022BC27402E1
:102B00001217ABAC82AD83850C82850D83123476AF
:102B10001207318A108B11AC10AD11EC4D6043855A
:102B20000C82850D83A3A31219E1751000751103A2
:102B300078101219CA75100175110378101219CA8C
:102B400074081217AB1219E1791612347012085179
:102B50007408121775E9F509700B12346C1204A988
:102B6000800F750901850C82850D83122C011236A8
:102B7000E4850908804C851982851A83AC82AD836F
:102B800012081B803A851982851A83AC82AD8312A4
:102B90000821802B851982851A83AC82AD831208A7
:102BA00027801C851982851A83AC82AD8312082D7B
:102BB000800D851982851A83AC82AD83120833E9B2
:102BC000F508E50860298E828F83A3E06414601FF6
:102BD000850E82850F83E0900300122C0B123F2993
:102BE0009003011236E4E508A3122C13120485EEBB
:102BF000FAEFFB1207AF0235D0F50CEF3400F50DFC
:102C000022123F2D851982851A8322F0851982852B
:102C10001A8322F07C007D03850A82850B8312349F
:102C20007A2274EE1217B774FC12175F8A0A8B0BA4
:102C30008C0E8D0FEA2405F508EB3400F5097C15A0
:102C40007D0079007A007B03121085E5082402F5E7
:102C50000CE509122BFC851982851A838582108563
:102C6000831178101219CA850882850983A3A3A34A
:102C7000A31231261219CAE5082405F510E5093416
:102C800000F51178101219CA850C82850D83123453
:102C90008012072B74061217758A108B11AE10AFB5
:102CA00011E50A2402F50AE50B1236CBEE4F70034C
:102CB000022DE8801774021217AB123476888289CD
:102CC00083EAF0A3EBF0900300E004F0900300E04F
:102CD000C394054003022DE8E4F510F511781012B5
:102CE00019CA7510E975110278101219CA7510EA1F
:102CF00075110278101219CA74061217AB1219E175
:102D00007910EEFCEFFD123470120851740812179E
:102D100075E9705E850882850983A3A3A3A3A3A395
:102D2000A3E0F89002E9E06870481231261219CA4F
:102D30007CEA7D02E5082408FAE5093400FB12105C
:102D40007F7402121775E960298E828F83A3A3A373
:102D5000A3123476900300E0F51074027810121775
:102D60004C74012510F58274033511F583EAF0A344
:102D7000EBF074021217AB85821085831178101264
:102D800019CA74021217AB1219E1850C82850D83E2
:102D9000123F3E12073774041217758A108B11AE5A
:102DA00010AF11900300E0F5107511007402781057
:102DB00012174C74002510F874033511F9888289B4
:102DC00083A31229147003022CACE82403F8E9341D
:102DD00000F9EE4F6003022CB58882898374FFF0FE
:102DE000A3F0900300E004F0900300E0600A1234C6
:102DF0006C1204977900800B85088285098312364E
:102E0000DB790A0235D074EA1217B774FE12175F25
:102E10008C128D13EA2405F50CEB1240A8122886BB
:102E2000750800750900EA2402F510EB3400F5116D
:102E3000851982851A8385820A85830B780A12197F
:102E4000CA850C82850D83A3A3A3A3122FE81219B0
:102E5000CAE50C2405F50AE50D1236CB780A1219DD
:102E6000CA850C82850D83123F3C12072B74061213
:102E700017758A0A8B0BEA450B7003022F99EA2417
:102E800004F50EEB122FDE1228868A828B83A3A311
:102E9000A3E0F9851082851183123476120719E9AF
:102EA000F5096003022F99E4F514F5157814121949
:102EB000CA7514E975150278141219CA7514EA75E1
:102EC000150278141219CA74061217AB1219E17997
:102ED00013AC0AAD0B85108285118312347612086B
:102EE000517408121775E9F5096003022F999002D1
:102EF000E9E0F8E5087009E02402900301F080178A
:102F0000900301E0FCE82402FAE43400FBEA6C7070
:102F100001EB6003022F9D850882AA8212311D9465
:102F2000141231155073850E82850F83E0C0E07452
:102F3000022A122FD5D0E0F00508850E82850F8376
:102F4000A3E0C0E085080A7402250A122FD5D0E05C
:102F5000F005089002E9122FE81219CA7CEA7D02F6
:102F600085080A7402250AFA74033400FB12106DF6
:102F700074021217759002E9E02508F50874FF6ED7
:102F8000700374FF6F6012EE24010EEF3400FFE552
:102F900008C394145003022E30E508601312336105
:102FA00085108285118312347612049D7900801475
:102FB000E509700375090A851282851383EEF0A373
:102FC000EFF0A90974021217757F0E02188985089F
:102FD0000C7402250CF58274033400F5832234004E
:102FE000F50F850E82F58322123C6B2274EE1217C8
:102FF000B774FE12175F8C0E8D0FEA2405F50CEBEB
:10300000122BFC750B00900300E4F0F50AEA240291
:10301000F508EB3400F5098049900300E0FA9002CE
:10302000E9E0F812311D9417123115400D9003009C
:10303000E0F87416C3989002E9F01231261219CA0A
:103040007CEA7D0274012AFA74033400FB12106DCD
:1030500074021217759002E9E0F8900300E028F07E
:10306000050AE50C2416F582E50D122FD9E0F8E5E6
:103070000AC39840030230FE900300E0C394165048
:103080007DE50AC333F8E433F9E50C28FEE50D3994
:10309000FF851982851A83AC82AD838E828F83125D
:1030A00034761207318A108B11AC10AD11EC4D70D3
:1030B00005750B018043E4F510F51178101219CA5B
:1030C0007510E975110278101219CA7510EA751198
:1030D0000278101219CA74061217AB1219E1791688
:1030E00085088285098312347612085174081217F4
:1030F00075E9F50B70030230191236D780107C0089
:103100007D038508828509831234761204AFA90BEA
:1031100074020235D2E99400C365D03322EA28F85C
:10312000E43400F9E822E0F51075110078102274FB
:10313000EA1217B774FC12175F8A0C8B0D8C128D74
:1031400013EA2405F50AEB1236CB75080075090061
:10315000E50A2402F510E50B3400F511740212178C
:10316000AB85820E85830F780E1219CA850A828577
:103170000B83A3A3A3A3123C171219CAE50A2405C3
:10318000F50EE50B3400F50F780E1219CA85108282
:103190008511831236D112347012072B7406121760
:1031A000758A0E8B0FAE0EAF0FE50C2402F50EE5FF
:1031B0000D3400F50F80408882898374FFF0050884
:1031C000122FCE74FFF005089002E9E0F50C750DA2
:1031D00000780C1219CA7CEA7D0285080C7402255D
:1031E0000CFA74033400FB12106D74021217759000
:1031F00002E9E02508F508EE4F60718E828F83A307
:10320000A3A3E0F9850E82850F8312347612071985
:10321000E9F509EE2404122BF9E97044E4F514F5FC
:103220001578141219CA7514E97515027814121953
:10323000CA7514EA75150278141219CA740812179F
:10324000AB1219E17911EEFCEFFD850E82850F833B
:103250001234761208517408121775E9F5096027BF
:10326000850C82850D831233571236E4E50870030E
:1032700002333D123361850E82850F83123476123C
:1032800004B57900023352850882AA82EA9002E9E5
:103290007009E02404900301F08022E0F89003011B
:1032A000E0F514E82404FCE43400FDEC651470013E
:1032B000ED70C012311D941212311550B6850C827A
:1032C000850D83E0C0E074022A122FD5D0E0F0050E
:1032D00008850C82850D83A3E0C0E0122FCED0E0DC
:1032E00012337385820C85830D780C1219CA74040D
:1032F0001217AB1219E1851082851183123F3E121D
:10330000073774041217758A0C8B0DAE0CAF0D8540
:10331000080C7402250CF874033400F9EE4F7003A6
:103320000231B7851982851A83E088828983123336
:1033300073A3E0C0E0122FCED0E00231C5E50970E2
:103340000375090A850A82850B831233571236E406
:10335000A9097404022FC6123F2D8512828513839A
:1033600022900301E0F5F0E50884900300F07C0072
:103370007D0322F00508851982851A832274EC12D8
:1033800017B774FE12175F8A088B098C0E8D0FEA2F
:103390002405FEEB3400FF851982851A83AC82ADCB
:1033A000838E828F831234761207318A0A8B0BEE5A
:1033B0002418122BF9EA450B70030234471235B971
:1033C0005032851982851A831234761208458A1084
:1033D0008B11EA4511606B7912AC0AAD0B8508823E
:1033E0008509831234768510828511831217B5E919
:1033F000F50A7058E4F50AF50B780A1219CA8E829C
:103400008F83A3A3E0F50A780A1219CAEE240312E7
:1034100036C8780A1219CA8E828F83123480120835
:10342000577406121775E9F50A7021850C82850D0F
:1034300083E0701F8508828509831234761204BBED
:103440008011750A0E8009750A018004E50A60037F
:103450001236D7850C82850D83E0600479008002E6
:10346000A90A74021217757F0C0218897C007D036B
:10347000850A82850B8312347A22E0FAA3E0FB22CC
:10348000E0FCA3E0FD85088285098312347A22746A
:10349000EE1217B774FE12175F8A088B098C0C8D19
:1034A0000DEA2405FEEB3400FF750E0085198285B8
:1034B0001A83AC82AD838E828F83123476120731E9
:1034C0008A0A8B0BEA450B70030235A51235B950F9
:1034D00035851982851A831234761208458A0E8B37
:1034E0000FEA450F605E7912AC0AAD0B8508828544
:1034F0000983123476850E82850F831217B5E9F59C
:103500000E60030235A88508828509831237BFAA99
:103510000AFB1208398A108B11A810A911E849700A
:103520001E7AFF7BFF1208398A108B11A810A9118F
:10353000E849606C88828983E50AF0A3E50BF075A1
:103540000A008007750E0E805F050A9002E6E0FA19
:10355000E50AC39A504AE50A75F017A4FAABF08859
:10356000828983A3A3E02AFAA3E03BFB8A828B83B0
:103570001236D1EC4D70D2750A17750B00780A120D
:1035800019CAEEFCEFFD12106D7402121775EEFCF5
:10359000EFFD8508828509831234761204C18014F8
:1035A000750E098003750E01123F25850C82850D6D
:1035B000831236E4A90E023110E5082402F508E56D
:1035C000093400F5098A828B83A3A3A3E0A2E52234
:1035D00074041217757F0A02188974EC1217B78CDD
:1035E000108D11EA2405F50CEB122BFC750F00EA87
:1035F0002402F50AEB1236CB850A82F58312347663
:103600001208398A088B09EA450970030236BD752C
:103610000E008071850C82850D83E06401704F8EF1
:10362000828F83A3A31219E18E828F83A3A3A3A306
:10363000E0F51275130078121219CAEE2405F5127E
:10364000EF3400F51378121219CA123470120857A9
:103650007406121775E9F50F6014850C82850D83C9
:10366000E4F0123F258510828511831236E47C1721
:103670007D007900EEFAEFFB1210858E828F83E4D5
:10368000F0A3F0050E9002E6E0F8E50EC398501E98
:10369000E50E75F017A4F8A9F0850882850983A3C3
:1036A000A31240B21236D1EC4D60030236148508E5
:1036B0008285098374FFF0A3F0E50F700612347061
:1036C0001204C7A90F023467F50AEF3400F50B2284
:1036D000A3E0FCA3E0FD228E828F83123F2D850E96
:1036E00082850F83E8F0A3E9F022C082C0839002B4
:1036F000E2E06A7003A3E06B70067AE27B0280046A
:103700007A007B000229D7C082C08378008C828D2A
:1037100083E06A7003A3E06B7010E875F003A4F80F
:10372000A9F0EC28FAED39FB8015088C828D83A373
:10373000A3A3E06A7003A3E06B60DF7A007B000262
:1037400029D774F61217B71208038A828B83E58291
:10375000458370067A007B008007A3A3A3A31234DD
:1037600076023DD674F21217B7E9FE740E1217AB4B
:103770001237BF74101217AB123C378C828D83E066
:1037800064027036A3123F33F50CA3E0F9A80C7461
:10379000026870037429697021750C02750D007838
:1037A0000C1219CA78081219CA780A1219CAEEF945
:1037B00012087B740612177580027901023E5AE0E6
:1037C000F50AA3E0F50B2274E81217B774FB121781
:1037D0005FE9851982851A83F08A168B17ECFEED56
:1037E000FF751000741D1217AB123F29741D1217BC
:1037F000AB1236E48E828F83A3A3A3E0A2E4502D04
:10380000741D1217AB1234761208458A828B83E539
:103810008245837003023C08790AEEFCEFFDAA168C
:10382000AB171217B5E9F5106003023C0B741F12B9
:1038300017AB123C3774211217AB1237BF74231227
:1038400017ABE0F50EA3E0F50F8E828F83E06402E4
:103850006003023BB6A3123F29850882850983A332
:10386000858212858313EE2406122BF988828983C0
:10387000E0FAA3E0F9EA2400F514E439F515781428
:10388000121A54010000280128AB380700022870E2
:10389000390328DD380029A73A0129D23A022973D1
:1038A0003A0329A73A0429513BB63BE50E450F6080
:1038B00003023BB1850C82850D83123C2CFAE9FB97
:1038C0008A828B83E0850A82850B83123C621219FF
:1038D000CA8A828B83A3E0FCA3E0023B3BE50E4552
:1038E0000F6003023BB1850A82850B837401F012DD
:1038F0003C3F850882850983F07C007D008E828FA5
:1039000083A3A3A3A3E02401FAA3E03400FB1207DE
:1039100031EA4B60418A828B83E02402F8850A8277
:10392000850B83E028F0EA2404F8EB3400F9888260
:103930008983E0851282851383123C74123C6212E3
:1039400019CA8A828B831236D0E5082403FAE50966
:103950003400FB023B40850A82850B83E02404F09F
:103960007C047D007900AA12AB13121085023C0B77
:10397000E50E450F6003023BB1123C3FFEA3E0FFA2
:10398000850A82850B837404F0EE8508828509839D
:10399000F0EF851282851383F074031217ABAC82AB
:1039A000AD83EEFAEFFB1207318A0C8B0DEA450D61
:1039B0007003023A548A828B83A3A3122882740173
:1039C0001217AB85820E85830F780E1219CA740503
:1039D0001217AB1219E17CFF7DFF12073774041236
:1039E00017758B0FEA450F7033850C82850D831296
:1039F0003C171219CA850C82850D83A31219E17C2C
:103A0000027D007A047B901205637404121775E935
:103A1000700A74011217AB74FFF0A3F08E828F83CB
:103A2000E064027039750C02750D00780C1219CA29
:103A30008E828F831236D0E5082404FAE50934001B
:103A4000FB12106D7402121775850A82850B83E0D4
:103A50002402800974011217ABEEF0A3EFF0740199
:103A60001217AB123C28F074011217ABA3123C20C2
:103A7000023BABE50E450F6003023BB1850C82852E
:103A80000D831236D1AA16AB1712086F850A8285EC
:103A90000B837402F0EA850882850983F08512821F
:103AA000851383EB023BAEE50E450F6003023BB18D
:103AB000123C3FF8A3E0F9850A82850B837402F07B
:103AC000E8850882850983F0E985128285138302DF
:103AD0003BAE850C82850D83123476121067EAFCAA
:103AE0008C82A882C3950EE4950F405FE8650E7046
:103AF00002E50F70047C008022851982851A83E01C
:103B0000FAE50E2AFAE50F3400FBC3EA98EB9400BD
:103B10005003E08005E50ECCC39CFCEC850A828551
:103B20000B83F08C0A750B00780A1219CA850C8277
:103B3000850D83E0250EFCA3E0350FFDAA08AB0937
:103B400012106D7402121775023C0B751007023CBF
:103B50000BE50E450F705A850C82850D83123F29A7
:103B6000850A82850B83740712288E123C20122846
:103B70008EA3E0851282851383F0E82402FAE934EB
:103B800000FB8A828B83123C20123C4F123C28A3FC
:103B9000123C58123C31F0E82405F8E93400F98869
:103BA000828983123C31A3123C74A3A3A3A3F080A7
:103BB0005A75100B8055741D1217AB12347612080B
:103BC000038A828B83E5824583603D123F29880CFE
:103BD000890DE8450D6031780E1219CA780A12195C
:103BE000CA78081219CA74061217ABE0F9EEFCEF96
:103BF000FDAA16AB17850C82850D831217B57406C6
:103C0000121775E9F510800375100EA910740512CE
:103C100017757F10021889E0F50E750F00780E22D7
:103C2000E085088285098322123C7E22123F2DE81E
:103C300022123C7EA3A322E0F508A3E0F509228529
:103C40000C82850D83E0F8A3E0F5838882E022A34F
:103C5000A3F08A828B83A322F088828983A3A3A303
:103C6000A322F08A828B83123C6B22E0F50A750B4B
:103C700000780A22F088828983A3123C7E22E085A4
:103C80000882850983A3A32274EE1217B774FE126B
:103C9000175F8A0A8B0BECFAEDFB74141217ABE07A
:103CA000F510A3E0F51174161217ABE0FE741812AC
:103CB00017ABE0F50EA3E0F50F851982851A83ACEA
:103CC00082AD831207318A0C8B0DEA450D60498560
:103CD0001982851A831234761208038A828B83E54F
:103CE000824583602FA3A3123C37E5084509602471
:103CF000780E1219CA78101219CAEEF9AC0CAD0D73
:103D0000AA0AAB0B8508828509831217B5740412C1
:103D100017758006790E8002790102311074F6124F
:103D200017B774FE12175F740C1217AB123C2C8578
:103D30001982851A83F074011217ABE9F0E4F508D3
:103D4000F50978081219CA75080278081219CA7498
:103D5000041217AB85820885830978081219CA12E4
:103D6000085774061217757402121775806874F775
:103D70001217B7EAFEEBFF89087C197D0312086F62
:103D8000EA5402600BA908EEFAEFFB120725800245
:103D9000790102278A74F61217B774FF6A700374E8
:103DA000FF6B70168C828D83123DDBE4F08C828D6C
:103DB00083A3A3A3123DDBA3801812083F8A088BBC
:103DC00009A808A909E849600D8882898374FF124F
:103DD000288CA3A3E4F07F0202188974FFF0A3F0FB
:103DE0008C828D83A3A32274F61217B712083F8A20
:103DF000828B83E58245836006A3A3E0FA80027A82
:103E0000007B0080D174F21217B78A088B09ECFE90
:103E1000EDFF740E1217ABE0F50A12083F8A0C8B07
:103E20000DA80CA90DE8497026EEFCEFFD7AFF7B8A
:103E3000FF12083F8A0C8B0DA80CA90DE8497004ED
:103E40007911801688828983E508F0A3E509F08856
:103E5000828983A3A3E50AF079007F06021889749A
:103E6000EE1217B7EAFEEBFF8C088D09890C74146B
:103E70001217AB123F2974161217AB123476750D58
:103E800000E8496003023F1D7402650C6003023FB5
:103E90001874121217AB123F33FCA3E0F9EC2400A4
:103EA000F50EE439F50FEAF4F8EBF4F9EC58F8E51F
:103EB0000F59F9E849705CE5082406F8ED3400F97B
:103EC000880A890B8882F583123F3E12086F8A1098
:103ED0008B11E50E65107004E50F65116042780ED8
:103EE0001219CA850A82850B83123F3E1208757427
:103EF00002121775E9F50D7027780E1219CA850898
:103F000082850983A3A3123F3C12088D7402121705
:103F100075800D750D808008750D0D8003750D0B76
:103F2000A90D0235D58E828F83123F2D22E0F8A392
:103F3000E0F922123F2D88828983E022A3A3E0FCCE
:103F4000A3E0FDEEFAEFFB2274E81217B774E71254
:103F5000175F851982851A83EAF0A3EBF08C168D22
:103F600017890E75080075090074311217ABE0F55A
:103F700012A3E0F51374331217ABE0F514A3E0F5C8
:103F80001574351217ABE0F50FE50975F003A4F8C9
:103F9000A9F0851982851A831240B2E0F47003A358
:103FA000E0F47003024095EE2402F50CEF1240A8F5
:103FB000E0700302409585160A85170B780A1219DE
:103FC000CAAC14AD15AA12AB131207F7740212177C
:103FD000758A0A8B0BEA450B7003024095E4F510D5
:103FE000F51178101219CA74061217AB8582108564
:103FF000831178101219CA74091217AB85821085C3
:10400000831178101219CA851282851383A3A3A382
:10401000A31219E17914AC0AAD0B8E828F8312348E
:10402000761208517408121775E97069850A82853D
:104030000B83A3A3A3A3123F2974021217AB12365A
:10404000E4850C82850D83E0A2E05018A90E74026D
:104050001217ABAC82AD838E828F83123476120737
:1040600049E94208850C82850D83E0A2E15026E5EE
:104070000FF50A780A1219CEA90E74031217ABAC09
:1040800082AD838E828F83123476120743740112BD
:104090001775E942080509E509C394025003023F78
:1040A00089A9087419023C0F3400F50D850C82F5BE
:1040B0008322E028FEA3E039FF8E828F832274F2F0
:1040C0001217B7EAFEEBFF890B7401650B600E74E3
:1040D00002650B706A7901120A4FE97062EEFAEF1D
:1040E000FB1208398A088B09EA45096047750A00FE
:1040F000800B7C177D007900121085050A9002E67E
:10410000E0F8E50AC3985021E50A75F017A4F8A96C
:10411000F0850882850983A3A3E028FAA3E039FB90
:104120008A828B831229DE70C9850882850983748F
:10413000FFF0A3F07C197D03EEFAEFFB1208690291
:104140003E5A74F21217B78A088B09ECFEEDFF7421
:104150000E1217AB1237BF900A04E0F4603D7A09E3
:104160007B00121091EA4B60328A828B8374B1F02B
:10417000A3E4123C51A3123C4FA3E508F0A3E509C8
:1041800012419EEEF0A3EF12419EA3A3E50AF0A315
:10419000E50BF0900A04E0F912109D023E5AF08AF5
:1041A000828B83A3A3A3A3A32274F01217B774FA7C
:1041B00012175F890BECFEEDFF750A008A088B0968
:1041C0007808121A0E000410DC43EC410A42244223
:1041D0003C425A4272429542AD42C142EB42734365
:1041E00084439B43B643DC43DC4301437401650BCA
:1041F00060030243D78E828F83E0F8C394034003A9
:104200000243D7E8900AF00243B37402650B6003DF
:104210000243D78E828F83124AD9900AF1E8F0A325
:10422000E90243B37401650B60030243D7124404EF
:1042300040030243D7E89007660243B37401650B5D
:1042400060030243D78E828F83E0F8C39405400356
:104250000243D7E89007670243B37401650B60031C
:104260000243D712440440030243D7E89007680290
:1042700043B37410650B60030243D77508107509CA
:104280000078081219CA7A697B0712106D7402123D
:1042900017750243FD7401650B60030243D7124496
:1042A0000440030243D7E89007790243B3740165E1
:1042B0000B60030243D78E828F83E0900AF402439F
:1042C000B37404650B60030243D78E828F83780C2E
:1042D00012162F908FCF780C12146250030243D71E
:1042E00090077B780C12163E0243FDE960030243FF
:1042F000D71206D1E97005121205806090080E8071
:104300006E7407650B60030243D7750806750900D4
:1043100078081219CA8E828F83A3AC82AD8374028F
:104320001217ABAA82AB8312107374021217757C3A
:10433000007D00851982851A83AA82AB838E828FC5
:1043400083E0F91211ABE9F508C3940A4003024374
:10435000FA1206D1E9700CA90812120B7950121347
:104360007F806F740F2508F58274083400F583741C
:104370000180407401650B705E1244045059E8904E
:10438000077A802F7401650B704D8E828F83E0F861
:10439000C3940A5042E8900AF380187401650B70C8
:1043A000368E828F83E0F874F928C3940A5028E887
:1043B000900AF5F080477401650B701B90080DE0C2
:1043C000F88E828F83E090080DF0E87030E0640191
:1043D000702B1211F98026750A188021C3EA9427E0
:1043E000EB940050157402650B700F8E828F831250
:1043F0004ED812056FE9F50A8003750A02A90A74FE
:1044000006024ACE8E828F83E0F8C394022274F0B3
:104410001217B774CC12175F8C0A8D0B7420121709
:10442000ABAC82AD8375838F7582347406121672BD
:1044300074201217ABAC82AD831211ABE9F508748E
:10444000441217ABE0FEE9C3940A400302457C75B1
:10445000F006E9A4F50974261217ABAC82AD837A95
:104460000E74202509F9121379E9700974321217B4
:10447000ABE0FF80027F00900AF0E06402700474F9
:10448000018001E4F50D780D1219CEEEFDEFFCA9C7
:1044900008AA0AAB0B12122F74011217757C147D37
:1044A000007900740C1217ABAA82AB8312108574CA
:1044B0000C1217ABAC82AD837A1074242509F91263
:1044C0001379E9703C7C1079FF740C1217ABAA8247
:1044D000AB831210E5E97029741C1217ABAC82ADE6
:1044E000837A0474252509F9121379740C1217AB19
:1044F000AC82AD83EFA2E0E433F9AA0AAB0B12055C
:10450000F9851982851A83AC82AD837A0C74702583
:1045100008F9121379E97053851982851A83AA82E2
:10452000AB831211DB750800E50875F003A4F8A948
:10453000F0851982851A83E58228F8E583124CE21A
:10454000124ED2601D88828983A3A3E0F50E750FF9
:1045500000780E1219CAAA0AAB0B12085D74021277
:1045600017750508E508C3940440BDEFA2E1500C9F
:10457000900765E0F9AA0AAB0B12086374046E7029
:1045800027900AF0E06402701F7A00900779E060DB
:10459000010A900766E06004780480027800E84A27
:1045A000F9AA0AAB0B1206B979007434024ACE7428
:1045B000F01217B7EAFEEBFF8C088D09750A0AE9BD
:1045C000600C14600914603714607902465E1211A1
:1045D000EDE9F50AC3940A400302465EE508450981
:1045E000607C750E06750F00780E1219CAEEFCEF8E
:1045F000FDAA08AB0912106D7402121775805F7561
:104600000B00750E06750F00780E1219CAEEFCEF3E
:10461000FDE50B75F00EA4F8A9F0748728FA74076D
:1046200039FB12107F7402121775E9600C850B0AB2
:10463000E50AC3940A50278016050BE50BC3940ABC
:10464000501C80BE1211F3E9F50AC3940A500FE51D
:104650000845096009AA08AB09A90A1211E7A90AC5
:10466000024AD174F41217B7890875091574FF6AE4
:10467000700374FF6B70277E00AC087A027B00EE3B
:10468000F91211C9E960037509000EEEC3940A40DE
:10469000E8E50860537A1D7B12120A61804A120A0B
:1046A000438A0A8B0BAE0AAF0BEE4F60387C007D5D
:1046B00000EE2405FAEF3400FB8E828F83A3A3A3C0
:1046C000A3E0F91211ABE9C3940A500CAC087A02CA
:1046D0007B001211C9750900E508600CEEFAEFFBCA
:1046E00012121D8003750914A9098005740E121792
:1046F000757F0402188974F21217B7ECFEEDFF758E
:104700000815740E1217ABE0F50AA3E0F50B74FF61
:104710006A700374FF6B7021750900AC0AAD0BEE73
:10472000FAEFFBA9091211CFE9600375080005092A
:10473000E509C3940A503F80E2120A438A828B83C0
:10474000E5824583602D7C007D00E5822405FAE545
:10475000833400FBA3A3A3A3E0F91211ABE9C39434
:104760000A5013AC0AAD0BEEFAEFFB1211CF75082D
:10477000008003750814A908025514C082C08390F4
:10478000077FEAF0A3EBF0900765E0FC7D007A2656
:104790007B0012056F900765E0F91207D902536F8D
:1047A00074F01217B774EC12175FEAFEEBFFEE24F9
:1047B0000CF50CEF3400F50DEE2405F50EEF34008A
:1047C000F50FEE2409F50AEF3400F50BEE2403F59E
:1047D00008EF3400F5098E828F83A3A3E024FA70DA
:1047E00003024A7224FD700302498D1470030248CB
:1047F0007914601024FD70030249641470030249A7
:10480000C1024ACA12570F6048E0F5838882124AF3
:10481000D9880E890FE8450F6037850C82850D8396
:10482000E0F50C780C1219CEEE240BF582EF124C49
:10483000A9F9850A82850B83124ED80A0A0AAB09A8
:10484000850E82850F831217B57401121775024AFF
:10485000CA850A82850B831219E190077B12164DD7
:1048600012060B7402121775E97003024ACA790125
:10487000850A82850B83024A3D8E828F83A38582BF
:104880000A85830BE06003024947850E82850F830A
:10489000E0A2E04003024947900819125712600352
:1048A0000249477C0E7D007900851982851A83AA0A
:1048B00082AB83121085850C82850D8312533AEAF0
:1048C0004B6010750C06750D00780C1219CAEA249D
:1048D00010801B125334120A43EA4B7003024ACA77
:1048E000750C06750D00780C1219CAEA2405FCEB4C
:1048F0003400FD74021217ABAA82AB8312106D74E0
:1049000002121775850E82850F83E0A2E25004D251
:10491000F08002C2F0A2F0E433F8740C1217ABE09E
:1049200048F0EEFCEFFD851982851A83AA82AB83DD
:104930001211E1E970117A027B00900765E0F9122B
:1049400010C17900024ACC12570F7003024ACA12F2
:104950004ADF7003024ACA850A82850B83E0FC792C
:1049600001024A6612570F7003024ACA124AD689D8
:104970000BE8450B7003024ACA8E828F83A3E0FCCA
:1049800079021253348882850B83024A6D7C007D44
:1049900000EE2404FAEF3400FB850882850983E0E9
:1049A000F91211ABE9F8C3940A4003024ACAEE2493
:1049B0000AFCEF124EAEE8A42425F9121373024A42
:1049C000CA12533490077AE06007900AF3E0F98046
:1049D0006F900AF0E0700479058065120A438A0C32
:1049E0008B0DA80CA90DE82404F50CE93400F50D95
:1049F0008E828F83A3A3A3A3A3A3A3E0A2E0504628
:104A0000E8497003024ACA850C82850D83E0FE6086
:104A100035850A82850B83E05410702A740E1217B4
:104A2000ABAC82AD83E82405FAE93400FBEEF91261
:104A300011ABE97011790385088285098312533A15
:104A4000120605024ACAAC0EAD0F850C82850D8395
:104A5000E0F912533412122912570F606D124ADF17
:104A600060687C0079001253348E828F831217B5F0
:104A700080581206D1E9705290080EE0640170155A
:104A800012120590080EE4F07C0AFDF97A0F7B08FB
:104A9000121085802D750A00850A08740F2508FEFE
:104AA00074083400FF8E828F83E06401700BA90AC2
:104AB00012120B8E828F83E4F0050AE50AC3940A72
:104AC00040D6795012137F1211F97901741412171C
:104AD000757F08021889124AEEE0F8A3E0F9221265
:104AE0004AEEE0F8A3E0F9E8FEE9FFEE4F22E0F538
:104AF000838882A3A32274F41217B774F212175F8B
:104B0000EAFE8C0B75F006E9A42420F508851982CD
:104B1000851A83AC82AD837A0EF9121379E9705746
:104B20007C0679FF851982851A83AA82AB831210CD
:104B3000E5E97043740C1217AB124AD9E8F509E5A0
:104B40000B6005EE42098004EEF45209850982AA41
:104B500082E86A7001E9601B740C1217ABEAF0A3DB
:104B6000E4F0851982851A83AC82AD837A0EA90898
:104B70001213737901800279000246EC74F2121765
:104B8000B774E612175F890A8A088B09ECFEEDFFFD
:104B9000740C1217ABAC82AD837A0E75F006E9A4E3
:104BA0002420F9121379E96003024C9C7C0679FFFA
:104BB000740C1217ABAA82AB831210E5E9600302F2
:104BC0004C9C7470250AF50B851982851A83AC827A
:104BD000AD837A0CF9121379E96003024C988519B8
:104BE00082851A83AA82AB831211DBE5084509701E
:104BF0002C7C0C7900851982851A83AA82AB8312DA
:104C000010E5E96003024C987C0C7D007900851961
:104C100082851A83AA82AB83121085805D851982F2
:104C2000851A83AC82AD83AA08AB091211D58A0C10
:104C30008B0DA80CA90DE8497028EE4F605E851910
:104C400082851A83AC82AD837A007B001211D5EA8B
:104C5000F8EBF9EA4B604588828983E508F0A3E523
:104C600009F0124CA3FAEE6A7001EF602BEEF04FE0
:104C7000700888828983E4F0A3F0851982851A83FD
:104C8000AA82AB831211DB851982851A83AC82ADAF
:104C9000837A0CA90B121373790180027900741ABC
:104CA000025511E82402F582E93400F583E022740C
:104CB000F71217B77F00EF75F003A4F8A9F0EC28FE
:104CC000F8ED124CE2E06A7003A3E06B7006E8FABC
:104CD000E9FB800B0FEFC3940440DB7A007B0002FA
:104CE000508D39F9888289832274F71217B77E00B4
:104CF000EE75F003A4F8A9F0EA28F8EB124CE2E014
:104D0000F4FCA3E0F4FD88828983ECF0A3EDF012BB
:104D10004CA3F4F00EEEC3940440D502508D74F20F
:104D20001217B774F412175FEAFEEBFF8C088D09B7
:104D30009008191257127051EE4F7003024EA7ECF3
:104D400045097003024EA71211EDE9900AF6F0C36F
:104D5000940A4035750B007C0679FFE50B75F00E63
:104D6000A4FAABF074812AFA74073BFB1210E5E950
:104D70006005850B0A800C050BE50BC3940A40D730
:104D8000750A0AE50A900AF6F0900AF6E0C3940A5A
:104D90004003024EA775F006E0A4FB9008191257D5
:104DA00012706FEEFCEFFD7A0E74202BF912137364
:104DB0007C0C7D0079FF851982851A83AA82AB83DA
:104DC000121085851982851A83AC82AD837A0C9086
:104DD0000AF6E02470F9121373750C0E750D007845
:104DE0000C1219CAEEFCEFFD900AF6E075F00EA465
:104DF000F8A9F0748128FA740739FB12106D740257
:104E0000121775900819E508F0A3E509F07900027A
:104E10004EA9E0C82406124ECB601A7A1B74212BCF
:104E2000F9121373124EB72406F582E83400F583A5
:104E3000E4F0A380D7124EB7240A124ECB60107A4A
:104E40001B74222BF9121373124EB7240A80DA1244
:104E50004EB7240C124ECB60107A1074232BF9122B
:104E60001373124EB7240C80C0124EC0124ECB608A
:104E70002A7A1074242BF9121373124EC0F582E8AB
:104E8000124CA92410FCA3E0124EAE900AF6E0A446
:104E90002425F9121373124EC0808E90080DE06025
:104EA000031212351212237901740C0255113400C9
:104EB000FD7A0475F00622900819E0F8A3E0C822F4
:104EC000900819E0F8A3E0C8240822F582E834002D
:104ED000F583124ED8EC4D22E0FCA3E0FD2274F4E1
:104EE0001217B774F212175FEAFEEBFFE9C3940AD8
:104EF0005004EE4F70047902803E851982851A8332
:104F0000AC82AD837A0E75F006E9A42420F9121361
:104F100079E9F5087020750A06750B00780A1219F0
:104F2000CA74021217ABAC82AD83EEFAEFFB12101B
:104F30006D7402121775A9080246EC74F41217B7C3
:104F4000EAFEEBFF750800750A06750B00780A1279
:104F500019CAEEFCEFFDE50875F00EA4F8A9F0748F
:104F60008128FA740739FB12107F7402121775E951
:104F70006004A908800B0508E508C3940A40C879B5
:104F80000A0246F174F71217B774F012175FEAFEBF
:104F9000EBFF750800851982851A83AC82AD837A90
:104FA0001075F006E508A42423F9121379E9702C92
:104FB0007C1079FF851982851A83AA82AB8312102F
:104FC000E5E97018EEFCEFFD851982851A83AA8247
:104FD000AB831205DBE97004A908800B0508E5081E
:104FE000C3940A40B0790A741012177502508D7478
:104FF000F71217B7750800E50875F00EA4F8A9F0C8
:10500000748128FE740739FFEEFCEFFD7A0E75F00F
:1050100006E508A42420F9121379E9602C7C067DAA
:105020000079FFEEFAEFFB1210857C067D0079FF18
:10503000EE2406FAEF3400FB121085EE240CF58204
:10504000EF3400F583E4F0A3F00508E508C3940A03
:1050500040A590080DE06003121235121223802D36
:1050600074F71217B77E007F007C0679FFEF75F0AA
:105070000EA4FAABF074812AFA74073BFB1210E518
:10508000E970010E0FEFC3940A40DEEEF97F0102D2
:10509000188974F71217B77E00EEF912120B0EEE94
:1050A000C3940A5003E960F180E374F31217B774F4
:1050B000CB12175FE9FE900AF6E06E701B7A017B57
:1050C00000900765E0F91210C77A027B009007652F
:1050D000E0F91210C712124175F006EEA4FF742019
:1050E0002FF50874271217ABAC82AD837A0EA9088E
:1050F000121379E960030251E47C0679FF742712E8
:1051000017ABAA82AB831210E5E960030251E47C7D
:105110000E7D0079FF74271217ABAA82AB831210A1
:10512000857C1B7D0079FF740C1217ABAA82AB83C0
:105130001210857C0C7D0079FF851982851A83AA5F
:1051400082AB8312108574271217ABAC82AD837AC1
:105150000EA908121373E9F508740C1217ABAC8290
:10516000AD837A1B74212FF9121373E9F509740CBE
:105170001217ABAC82AD837A1B74222FF912137312
:10518000E9F50A740C1217ABAC82AD837A10742364
:105190002FF9121373E9F50B740C1217ABAC82AD37
:1051A000837A1074242FF9121373E9F50C740C121E
:1051B00017ABAC82AD837A0474252FF9121373E90F
:1051C000FF851982851A83AC82AD837A0C74702EA8
:1051D000F9121373E9F8E509450A450B450C4F48E8
:1051E00042088003750800A90874351217757F05F9
:1051F00002188974F71217B7E9900765F01211F9D0
:1052000002508D74F41217B7EAFEEBFF548070035E
:1052100002529B900765E0F91210A98A088B09EAEF
:105220004509607078018A828B83E02450603D14C8
:10523000600624E1604F8052A3A3A3A3E0704E8ACE
:10524000828B83A3A3A3A3A3A3A31219E18A828BB6
:1052500083A3A3A3A3A3124ED88A828B83A3A312F2
:10526000533A1211B774021217758021A3A3A3A396
:10527000E0641E701879008A828B83A3A312533ACC
:105280001211B180081211C3E9F8E86007AA08AB4F
:1052900009121097EEFAEF64808065EE54026023E5
:1052A0007C007D007A007B001211E1E960117A0137
:1052B0007B00900765E0F91210C1EE6402803F7A2E
:1052C000028046EEA2E0503F12530E12533A1212E1
:1052D0003BE9602F12570F601F124AD688088909D0
:1052E000E8450960137C00790112530E12533A8588
:1052F00008828509831217B5121241EE6401FAEF94
:10530000FB80087A0180027A007B000246F1900857
:1053100019E0F8A3124AEEA3227F02021889C08284
:10532000C083900765E0F98A828B83A312533A12F7
:105330000863803B850882850983E0FAA3E0FB22AD
:10534000C082C08374FF12175F1211FFE9C3940279
:10535000851982851A83400474028002740AF0ACB5
:1053600082AD837A0179051206E97401121775D0AE
:1053700083D08202013274F21217B774E812175FF9
:10538000EAFEEBFF890A8C088D097C187D00790004
:10539000851982851A83AA82AB83121085851982AA
:1053A000851A83EEF0A3EFF0900767E0C0E0740287
:1053B0001217ABD0E0F0900768E0C0E0740312175A
:1053C000ABD0E0F0900AF5E0C0E074171217ABD054
:1053D000E0F074151217ABE054FEF8A3E0F9900A60
:1053E000F4E0A2E0E433FAE84AF874151217AB12BD
:1053F0005520A2E15004D2F08002C2F0E854FDFA38
:10540000A2F0E43333F8EA48F874151217AB1255DA
:1054100020A2E35004D2F08002C2F0E854F7FAA2CE
:10542000F0E433F50C750D007403780C12174C1270
:1054300055191217AB125520A2E45004D2F0800285
:10544000C2F0E854EFFAA2F0E433F50C7404780CDF
:1054500012174C1255191217AB125520A2E5500421
:10546000D2F08002C2F0E854DFFAA2F0E433F50C87
:105470007405780C12174C1255191217AB125520DF
:10548000A2E25004D2F08002C2F0E854FBFAA2F08B
:10549000E433F50C7402780C12174C1255191217DC
:1054A000ABE8F0A3E9F0900768E0601D750C107898
:1054B0000C1219CA7C697D0774061217ABAA82AB5D
:1054C0008312106D7402121775900779E06011E570
:1054D0000A600974151217ABE04402F078018002EB
:1054E000780074141217ABE048F0900766E060048F
:1054F00078048002780074141217ABE048F0AC080E
:10550000AD09851982851A83AA82AB831205FF74BF
:10551000181217757F06021889EA450CF8741522CF
:10552000E8F0A3E9F0900AF4E02274F31217B774DC
:10553000E512175FEAFEEBFF8C098D0A742812173B
:10554000ABE0F50C75F006E9A4F87408650A700480
:1055500074228002742128F50B7C1B7D0079008564
:105560001982851A83AA82AB8312108585198285D8
:105570001A83AC82AD837A1BA90B121379E97032BE
:10558000741A1217ABE024F9C3940A5025E50CF500
:105590000B780B1219CE74011217ABAC82AD83E5F8
:1055A00009A2E0E433F9EEFAEFFB120611740112DE
:1055B0001775741B0251EB74F71217B71208DB75DD
:1055C0000800E50875F00EA4F8A9F0748128FE74AF
:1055D0000739FF7C0679FFEEFAEFFB1210E5E97060
:1055E00009EEFAEFFB79001208E10508E508C3941B
:1055F0000A40CF02508D74F61217B774FD12175F70
:10560000EAFEEBFF90081B125712703975081D75E2
:10561000090878081219CA75080275090078081275
:1056200019CA7508F475098F78081219CA7CFF7DAC
:10563000FF7A017B0012072B740612177590081B66
:10564000EAF0A3EBF090081B12571270030256F910
:10565000E4F508F50978081219CA74041217AB8525
:10566000820885830978081219CA74041217AB8559
:10567000820885830978081219CA90081D1219E159
:10568000790290081B1257071208517408121775F7
:10569000E97034851982851A83E0FA74011217AB18
:1056A000E0F9EA2400F508E439F509EA450960174C
:1056B00078081219CA90081B125311A31257071227
:1056C00011B77402121775E4F508F5097808121974
:1056D000CA90081D1219E17CFF7DFF90081B125330
:1056E0003A120737740412177590081BEAF0A3EBFF
:1056F000F090081B1257127004790180027900742F
:1057000003121775025319124ED8EEFAEFFB2290CE
:10571000077FE0F8A3E0F9E84922C082C08390083F
:1057200019125712601090081912533A12109790DC
:105730000819E4F0A3F0900AF6740AF002536FC05F
:1057400082C0839061907404F0A37448F0A3E4F0E5
:105750009061807440F09061BC7407F09061877430
:1057600069F09061B67416F07900120B4B79021251
:105770000B51902740E493F46006E493F9120B2751
:105780007905120E51025B3AC082C083E9540FF9C9
:10579000906185E0696012E5C654804449F5C6E52C
:1057A0009E547F644970F8E9F053C680E59E547FAB
:1057B00070FA025B3A74F71217B7E5A8FE53A87E99
:1057C000120B33C2BA539AFEC289759B00C2C21231
:1057D0000B3975A91175B905120B3FD2BA439A015D
:1057E00074805E42A80260D1C082C083906181E46F
:1057F000F0A3025B3775E90075910075BF000201E7
:1058000032C082C083906181E4F0A374C0F0A3E44D
:10581000025B39C082C08374F812175F9003A41230
:105820006A6A70030258F29003A4E054406023793E
:1058300008851982851A83AA82AB83120C478519C1
:1058400082851A83AA82AB831208FF9003A4E054D6
:10585000BFF0E054806010790C7A657B05120C472C
:105860009003A4E0547FF0E0A2E0500F7900120B07
:105870004B1209059003A4E054FEF0E05402600FBF
:105880007901120B4B1209059003A4E054FDF0E0DE
:105890005404600F7900120B5112090B9003A4E01D
:1058A00054FBF0E05408600F7901120B5112090B00
:1058B0009003A4E054F7F0E05410600F7902120B4B
:1058C0005112090B9003A4E054EFF0E05420600F54
:1058D0007903120B5112090B9003A4E054DFF0A3DB
:1058E000E05401600D120B5D1209119003A5E05404
:1058F000FEF07408121775025B3AC082C083E9603B
:105900000514602A804F90619A7433F0A37455F0A7
:105910009061A0743AF090053FE064017009C29173
:105920009003A67467802D9003A674618026906111
:105930009A743FF0A3745AF09061A0747FF09005C0
:105940003FE064017009D2919003A67471800590C4
:1059500003A6746AF0025B3AC082C083E9600B144C
:10596000600D14601714600C8020902744801590FF
:105970002745801090053FE0640170059027468020
:1059800003902747E493906186F0025B3A74EE122D
:1059900017B774F412175F851982851A83AC82AD2C
:1059A0008375838F7582BB7404121672902744939B
:1059B000F46003025AB7907808E0C39402500302DF
:1059C0005A9774041217ABAC82AD8375838F7582BE
:1059D000267408121672FC7EFF7FFF8E0C7D008CF1
:1059E0008285820E800F74086D606D74096D606829
:1059F000740A6D60638D08750900740278081217C7
:105A00004C125AC112162FA909E50AC9F888107458
:105A1000187808121570E5104508FAE9FBE50EC381
:105A200033F8E433F974041217ABE58228F582E504
:105A30008339125FC1C3E89AE99B4008E8C39AF82A
:105A4000E99B8006EAC398F8EB99F9C3E89EE99FC1
:105A50005006E8FEE9FF8D0C0DEDC39413408774EA
:105A6000FF6E700374FF6F6024850C087402780861
:105A700012174C125AC112162F851982851A83E506
:105A800082250EF582E583126460E508F00CECC314
:105A9000940450030259D77508017509007808125B
:105AA00019CA74021217ABAC82AD837AD17B09128A
:105AB000127D7402121775740C1217757F0A021882
:105AC0008974482508F58274783509F583780822A9
:105AD000C082C083906186E0F8902747E4936870A5
:105AE00009902746E493906186F09061AE7468F067
:105AF000A3746AF090624574FBF0A304F053F4FDC4
:105B000043FE0290053F7401F09061A0E0643A709A
:105B100004790080027901120B4B025B3AC082C00B
:105B2000839004F1E06401700A9004F6E060047967
:105B30000C800279008003F0A3F0D083D0820201B0
