:020000040000FA
:0600000002011A0220308B
:03002B000226F3B7
:030033000226CFD3
:030053000220A6E2
:03006B000226A9C1
:10008300021EDFE5C754F84401F5C77901220000D9
:100093000080FB120086B90003020104E479217891
:1000A30008B800028004F709D8FCE479297802B87B
:1000B30000028004F709D8FCE490028178C2790732
:1000C3008002F0A3D8FCD9FA781B90014A7A01BACE
:1000D30000028007E493A3F608DAF97A427B0990D9
:1000E300014B780279048015E493A3AD82AE838A31
:1000F300828B83F0A3AA82AB838D828E83D8E9D9C6
:10010300E77582D975839B740312012C75829175EF
:100113008300740012012C75D00075813F7519811D
:10012300751A02759F00020096C09FF59FE473D075
:100133009F22D083D082C09FE493C0E0740193C018
:10014300E0740293F59F2201FF0000B40000280031
:100153002800283075A000A000A000A0000008001F
:1001630008E001F000100010001000100010001053
:100173000050005000500010001000D00700000095
:100183000000000F0001000500307507001000019A
:100193000081FF00000000FF4A0668065006FF02C8
:1001A300020208025000A0000000E80302FB8F01D6
:1001B3000000DD8F02EB8F010000990902F18F012E
:1001C3000000B30202EB8F0100009A0902F38F01D2
:1001D3000000C90202EB8F0100009B0902F58F01A9
:1001E3000000CB0202EB8F0100009C0902F78F088D
:1001F3000000CC0202EB8F0100009D0902F98F0180
:1002030000009E09FF0100FF2002FB8F010000E3B5
:100213008F02EB8F010000020A021390000000001E
:100223000002EF8F03000019037A0C7A0C7A0C7A20
:100233000C7A0C7A0C7A0C7A0C7A0C7A0C7A0C7A8B
:100243000C7A0C560F6E0F500FFFFF0202020202D0
:1002530002020202010D000000100102FB8F0100E7
:1002630000E08F02EB8F010000450A020F900100AE
:1002730000610702EB8F010000460A020D900100A6
:1002830000138F02EB8F010000470A020B9001005D
:1002930000058F02EB8F010000480A02099001005C
:1002A300007F8E02EB8F010000490A0207900100D4
:1002B30000B58E02EB8F0100004A0A02059001008F
:1002C30000A38E02EB8F0100004B0A020390010092
:1002D30000918E02EB8F0100004C0A022190010075
:1002E30000F78E02EB8F0100004D0A02019001001E
:1002F300004E0A01E803053F100AFF0001307503B1
:1003030002010600000000000000000000000000E1
:10031300000000000000000000000000000000FFDB
:10032300FF0600800CE803140953696D706C654285
:100333004C455065726970686572616C05125000B6
:100343002003020A000201060302F0FF53696D70E5
:100353006C6520424C452050657269706865726116
:100363006CAC130000B2130A436861726163746575
:100373007269737469632031000243686172616357
:10038300746572697374696320320008436861722B
:100393006163746572697374696320330010436821
:1003A30061726163746572697374696320340002F6
:1003B300436861726163746572697374696320353C
:1003C3000002FB8F010000E68F02EB8F010000614A
:1003D3000B021790030000330902ED8F0100006246
:1003E3000B02EB8F010000730B0219900100003424
:1003F3000902ED8F010000740B02EB8F01000085F1
:100403000B021B90020000350902ED8F01000086EC
:100413000B02EB8F010000970B021D9000000036CA
:100423000902EF8F030000370902ED8F01000098E6
:100433000B02EB8F010000A90B021F900400003D8B
:100443000902ED8F010000AA0B120135CE8C0312B5
:100453000135E58C03120135168D03120135518DDB
:10046300031201357B8D03120135A58D031201356E
:10047300BC8D03120135D38D03120135EA8D0312AE
:100483000135138E03120135268E031201353C8E7E
:10049300031201354F8E03120135768E0312013597
:1004A3000198021201350599021201353D99021294
:1004B30001356099021201356B99021201358E994B
:1004C300021201359D9A02120135729B0212013507
:1004D300ED9B02120135759C02120135B09C02128C
:1004E3000135E79C02120135759D021201354E9EBE
:1004F30002120135AE9E02120135B99E0212013578
:10050300389F021201353B9F021201353E9F0212B2
:100513000135CD9F02120135D09F0212013500A093
:10052300021201352AA00212013518A10212013567
:10053300CAA102120135CDDB02120135F5DB02122D
:10054300013523DC021201355ADC02120135B8DC15
:100553000212013503DD021201354EDD02120135AF
:100563008EDD02120135D4DD0212013502DE0212E4
:100573000135BFDE02120135C9DE02120135D6DEB6
:100583000212013509DF02120135D5DF02120135EE
:10059300E1DF02120135F9DF0212013503E0021235
:1005A3000135879903120135959903120135AD99E8
:1005B30003120135C599031201351AB00112013531
:1005C300C6B00112013541B10112013562B2011207
:1005D30001359EB20112013547B3011201352EB424
:1005E3000112013592B501120135E9B50112013548
:1005F3006AB6011201355AB701120135A7B70112C4
:1006030001352DB8011201355FB80112013573BAF6
:1006130001120135B5BA01120135D3BA0112013500
:1006230056BB011201352ABC01120135F2BC01127D
:1006330001353AC5021201350DC602120135B6C69F
:100643000212013509C702120135B9C70212013579
:1006530045C80212013531C90212013560C90212BF
:10066300013573CA02120135BBCA0212013590CBA0
:1006730002120135CCCB02120135E8CB021201354F
:10068300F69A0312013557F6021201356DF602127E
:10069300013593F602120135AFF702120135B9F7AE
:1006A30002120135EEF802120135E6F902120135A4
:1006B300E3D10212013513D30212013546D30212DC
:1006C300013590D30212013557D5021201352BA003
:1006D3000112013595A001120135F4A10112013572
:1006E30004A20112013531A20112013588A20112BF
:1006F300013531A30112013538A40112013502A5D8
:100703000112013562A601120135A5A601120135B8
:100713004AA70112013597A701120135BDA701129E
:100723000135CBA901120135D0A901120135D5AB91
:100733000112013522AC0112013595AC01120135CC
:10074300C8AC011201356AAD0112013513AE0112B5
:1007530001354BAE011201354EAE0112013596AE95
:1007630001120135D6AE011201352DAF011201354B
:10077300F9820312013511830312013559830312E0
:1007830001356F8303120135B68303120135CA8421
:1007930003120135578503120135A2850312013572
:1007A3002027001201352C2700120135672700127C
:1007B3000135AC27001201356C2800120135F228EF
:1007C3000012013557290012013583290012013522
:1007D300BC2900120135FA2B00120135DE2D00125F
:1007E3000135C42F0012013507310012013555338D
:1007F30000120135673400120135B235001201359C
:10080300C23600120135DF36001201351A370012E5
:1008130001353C37001201359F3700120135603C2A
:1008230000120135F53C00120135463D0012013539
:100833006D3D00120135BF3D00120135DD3D001253
:100843000135373E00120135203F00120135964035
:10085300001201351A41001201358AE002120135F6
:1008630094E002120135D7E002120135F2E00212E0
:10087300013582E102120135AAE102120135E7E1F5
:10088300021201351EE20212013547E2021201355E
:10089300BCE202120135D1E202120135E6E2021294
:1008A300013517E3021201352BE30212013550E340
:1008B300021201358AE302120135B6E30212013551
:1008C300EEE3021201356DE402120135B6E40212C1
:1008D3000135E0E4021201350BE50212013585957D
:1008E300031201350080021201352E8002120135F8
:1008F3007C81021201355C82021201357B82021275
:100903000135F882021201353B83021201359184CD
:1009130002120135528502120135D98702120135BF
:100923007A88021201357089021201356D8A02122A
:100933000135C78B02120135528C02120135CF915A
:10094300031201353892031201358C9203120135DB
:10095300B39203120135E49203120135CDE9021279
:1009630001353AEA0212013581EA0212013599EBA7
:100973000212013595EC0212013578ED02120135B0
:10098300DCF6011201351EF701120135F0F70112F1
:100993000135C9F801120135C3F901120135A5FA70
:1009A300011201350EFB01120135C4FB01120135A1
:1009B30038FC01120135A4FC01120135CDFC0112F2
:1009C300013547FD01120135E0FD0112013545FEF8
:1009D300011201355AFE01120135A0FE0112013543
:1009E300B9FE011201351EFF0112013521FF01126B
:1009F300013500800312013528800312013566801A
:100A0300031201352481031201358B810312013551
:100A1300A78103120135CF8103120135FF81031230
:100A230001350E82031201358B8203120135B18227
:100A330003120135249001120135C29101120135CF
:100A4300DD93011201351994011201354694011207
:100A530001352B9501120135729501120135B695B9
:100A630001120135C89501120135089601120135AD
:100A7300359601120135809601120135C096011297
:100A83000135EE9601120135409701120135D097D9
:100A9300011201356E9A01120135849C0112013550
:100AA300C29C01120135539E01120135989E011219
:100AB30001350F9F01120135599F01120135849FA2
:100AC3000112013505AC0212013584AC0212013565
:100AD30046B20212013555B302120135BDB40212FA
:100AE300013554B50212013517570012013560570D
:100AF300001201358D5700120135C0570012013520
:100B0300CD5700120135D95700120135EB570012AA
:100B13000135D2580012013530590012013565599B
:100B230000120135A85A00120135F55A0012013599
:100B3300195B00120135865B00120135445C00121B
:100B43000135FD5C001201356A5D001201351C5E42
:100B5300001201352C5E00120135B35E001201351F
:100B6300725F001201359F5F001201351860001299
:100B73000135756000120135BF6000120135556102
:100B830000120135206200120135D56200120135D1
:100B93004A6300120135AB6300120135156400127C
:100BA30001354E6400120135F06400120135006610
:100BB300001201354066001201355D6600120135F1
:100BC3007C6600120135C36600120135E866001227
:100BD30001351567001201358F6700120135D067A3
:100BE30000120135F46800120135A46900120135C1
:100BF300FB6900120135656A001201357E6A001235
:100C030001353BA2021201358EA2021201359AA2CE
:100C1300021201356FA30212013596A302120135A8
:100C2300D1A3021201353DA40212013579A40212A7
:100C33000135B2A402120135CAA4021201351FA55F
:100C43000212013538A50212013581A502120135C0
:100C530094A502120135AEA502120135C4A50212F4
:100C63000135F7A6021201353EA80212013540A94B
:100C7300021201353AAA02120135F57F001201353D
:100C8300A5E901120135D5E9011201359DED0112E6
:100C93000135F4EE01120135BDEF011201353DF1CD
:100CA300011201350EF2011201354BF20112013529
:100CB3006EF201120135ACF201120135B5F20112E7
:100CC3000135FFF20112013509F301120135B3F3C6
:100CD300011201358CF401120135E0F401120135E2
:100CE30042F50112013595F501120135C4F50112E2
:100CF300013501F601120135B06A00120135176E94
:100D0300001201351D6E001201359F73001201356B
:100D1300187800120135EE7B001201353D7C00127C
:100D23000135B37C00120135C97C001201350A7DFF
:100D330000120135447D00120135BD7D00120135DD
:100D4300F87D001201356B7E00120135A97E001279
:100D53000135B27E00120135BE7E00120135DA7E06
:100D630000120135057F001201351B7F001201358A
:100D7300447F00120135A77F001201350AD7021202
:100D830001351DD70212013537D70212013560D75D
:100D930002120135A3D702120135E2D7021201353F
:100DA30020D80212013585D8021201359AD80212D1
:100DB3000135A5D802120135B2D802120135C9D8BE
:100DC30002120135D7D802120135E2D802120135D9
:100DD300EED80212013501D9021201350CD90212E3
:100DE30001352FD902120135D6D902120135E6D9C0
:100DF3000212013500DA021201351DDA0212013541
:100E030039DA021201355EDA0212013569DA0212A9
:100E130001357EDA0212013592DA02120135F3DA74
:100E230002120135F9DA02120135FFDA0212013535
:100E330005DB021201351DDB0212013550DB021204
:100E430001357CCD0112013500CE01120135AFCE43
:100E5300011201350ED0011201352FD201120135D5
:100E63001BD30112013550D30112013572D3011284
:100E7300013521D40112013519D60112013542D6AB
:100E830001120135D4D60112013506D701120135FD
:100E930013D7011201356AD70112013590D7011218
:100EA3000135FDD90112013500DB0112013558DB93
:100EB300011201350BBF0112013515C001120135B5
:100EC300FCC00112013506C10112013528C101120E
:100ED300013534C101120135CDC201120135FCC205
:100EE3000112013518C40112013571C40112013513
:100EF300D7C501120135B6C60112013512C7011259
:100F030001357FC701120135BAC701120135F9C78F
:100F130001120135B2CA01120135CCCA01120135E1
:100F230058CB0112013566CB01120135BFCB01123B
:100F33000135CDCB0112013540CC01120135A4CCD2
:100F430001120135EECC01120135D38C02120135A9
:100F5300F58C021201351B8F0212013530920212F9
:100F63000135489302120135FB9302120135DD94DA
:100F730002120135888E03120135AD8E031201353D
:100F83001F8F03120135C0BD02120135C9BD021204
:100F93000135D2BD02120135A9BE021201355AC074
:100FA3000212013590C002120135CAC00212013586
:100FB30000C1021201353AC1021201356EC102129B
:100FC30001359AC102120135E3C1021201351DC276
:100FD3000212013566C202120135BEC20212013588
:100FE300F3C2021201354EC30212013588C3021245
:100FF3000135D9C3021201350FC40212013549C4A8
:101003000212013577C4021201359AC40212013566
:1010130045FF0112013571FF01120135CCFF0112A9
:101023000135D6FF01120135E6FF011201355DCC12
:101033000212013567CC02120135A5CC021201352B
:10104300EECC0212013528CD0212013582CD0212F7
:101053000135A3CD02120135ACCD02120135F9CD14
:101063000212013522CE021201352CCE02120135B5
:1010730098CE021201352ACF0212013574CF021223
:101083000135AACF0212013536D00212013577D0CD
:1010930002120135AED002120135C0D00212013561
:1010A300DFD002120135E8D002120135B5D10212A8
:1010B3000135A29703120135DD8A03120135138B23
:1010C30003120135498B03120135948C0312013548
:1010D3005E9A03120135749A031201357E9A031244
:1010E3000135C89A031201357A9B0312013533E5A2
:1010F3000212013548E502120135F8E50212013505
:1011030038E60212013551E6021201358CE602126D
:101113000135D9E6021201350BE7021201354DE71D
:10112300021201354EE902120135C0E902120135FE
:101133002A93031201355393031201359393031238
:101143000135D593031201353094031201353E94D2
:10115300031201354A94031201354D9403120135EC
:101163005F9403120135CC8503120135F185031217
:1011730001351B8603120135319C03120135814170
:1011830000120135E643001201358745001201358F
:101193003B4600120135CE4600120135534700127B
:1011A3000135784700120135CE4A00120135544B00
:1011B30000120135874C00120135C14C0012013574
:1011C300F64C00120135B64E00120135134F0012D2
:1011D30001355C4F00120135C74F001201353850FD
:1011E300001201356A500012013582500012013598
:1011F300CB5100120135DB5100120135F6520012BA
:1012030001351853001201354E53001201350255B2
:10121300001201358F5500120135CE5500120135EC
:10122300F25600120135D09C03120135879C03123C
:101233000135C69C03120135E19C031201359998CF
:1012430003120135A99803120135C498031201351D
:101253008199031201359E960312013523970312D8
:1012630001358997031201356294031201358B947A
:1012730003120135DF9403120135EA940312013599
:101283003B95031201357995031201357C950312C1
:1012930001353AEE0212013551EE02120135CBEE61
:1012A30002120135AFEF0212013586F10212013548
:1012B300EBF10212013542F202120135F87F0012FE
:1012C3000135988803120135338A03120135948A54
:1012D30003120135DA8A031201352D900312013509
:1012E3007F900312013509910312013570910312A6
:1012F300013584FD02120135AEFD021201357CFE7B
:101303000212013557FF021201357EB50212013573
:1013130045B6021201357CB602120135A6B6021299
:10132300013506B7021201355CB702120135C1B7A8
:101333000212013559B80212013568B9021201359A
:10134300FFBA021201358CBB02120135F3BB021244
:1013530001350ABC0212013524BD0212013562BDFA
:1013630002120135A6DB0112013527DF0112013517
:10137300AFE00112013506E10112013525E1011249
:101383000135A3E10112013539E3011201351EE4F0
:10139300011201352CE80112013502E90112013570
:1013A30056F202120135CDF40212013578F502121C
:1013B300013522F602120135F0F90212013535FA30
:1013C3000212013552FA0212013508FB02120135ED
:1013D3005BFB0212013531FC021201354BFD021297
:1013E3000135C9FF02120135D77F00E0667010088E
:1013F300A3E066700A08A3E066700408A3E066220F
:10140300C3E7960809E7960809E7960809E79622CD
:10141300C3E09608A3E09608A3E09608A3E096220B
:10142300C008C3E096F50808A3E096420808A3E0C5
:1014330096420808A3E09645087001D3D008220815
:101443000808EAC0E0EBC0E086F0E7A4FA180986D2
:10145300F0E7A42AFA180986F0E7A42AFA180986FD
:10146300F0E7A42AFA1986F0E7A4FBE5F02AFA19B3
:101473000886F0E7A42BFBE5F03AFA190886F0E7B3
:10148300A42BFBE5F03AFA18180986F0E7A4C5F097
:101493002BFBE43AFA1908E7C5F0C6A426F6E5F0F3
:1014A3003BFBE43AFA1886F0E7A4F6E5F00826F6E3
:1014B300E43B08F6E43A08F6D0E0FBD0E0FA22E495
:1014C300CFC0E0E4CEC0E0E4CDC0E0E4CCC0E07542
:1014D300F020E626F608E633F608E633F608E633A8
:1014E300F6181818EC33FCED33FDEE33FEEF33FF43
:1014F300C3EC9709ED9709EE9709EF97191919406E
:101503000FFFEC97FC09ED97FD09EE97FE191906FD
:10151300D5F0BFECF709EDF709EEF709EFF7191965
:1015230019D0E0FCD0E0FDD0E0FED0E0FF22601651
:10153300080808C6C313C618C613C618C613C618A8
:10154300C613C6D5E0EA22700908080822601618F7
:101553001818C6C333C608C633C608C633C608C67A
:1015630033C6D5E0EA22E627F60809E637F6080986
:10157300E637F60809E637F622E026F608A3E03652
:10158300F608A3E036F608A3E036F622E026F008D4
:10159300A3E036F008A3E036F008A3E036F022C358
:1015A300E697F60809E697F60809E697F60809E6C6
:1015B30097F622C3E096F008A3E096F008A3E0961E
:1015C300F008A3E096F022E056F608A3E056F608EA
:1015D300A3E056F608A3E056F622E056F008A3E08F
:1015E30056F008A3E056F008A3E056F022E0F60810
:1015F300A3E0F608A3E0F608A3E0F622E6F008A3CA
:10160300E6F008A3E6F008A3E6F022E0FAA3E0FB85
:10161300A3E0FCA3E0FD22EAF0A3EBF0A3ECF0A32C
:10162300EDF022CAC0E0E6F0A308DAFAD0E0FA222D
:10163300CAC0E0E0A3C582CCC582C583CDC583F013
:10164300A3C582CCC582C583CDC583DAE6D0E0CA03
:1016530022C3E498F8E499F91216958026C3E49A14
:10166300FAE49BFBE920E7E9121695E498F8E4997C
:10167300F922C3E498F8E499F9121695E498F8E48A
:1016830099F9C3E49AFAE49BFB22EB20E7CFE92024
:10169300E7E0B90010BB0008E88AF084F8AAF0225A
:1016A300E4FBC8FA22EB70227B10C833C8C933C9E4
:1016B300335007C39AC3DBF280069A50012ADBEA50
:1016C300C833F4C8C933F4C9FA2275F008E4C8333F
:1016D300C8C933C933C99AC99B5004C92AC93BD560
:1016E300F0ECFBC833F4C8E4C9FA22600D08C6A2C3
:1016F300E713C618C613C6D5E0F322600C08C6C3A9
:1017030013C618C613C6D5E0F422700422600D1860
:10171300C6C333C608C633C6D5E0F418222519104C
:10172300AF08F519400C151A8008F5194002151A6F
:10173300D2AF2200C0D0251910AF08F519500C05FF
:101743001A8008F5195002051AD2AFD0D0222519F4
:10175300F58210AF08F519400C151A8008F51940E9
:1017630002151AD2AF851A83222519F582E4351A98
:10177300F58322E4732519C582C0E0E51A34FFC559
:1017830083C0E0E519C3958224F810AF0885831A56
:10179300858219800885831A858219D2AFCEF0A37A
:1017A300E520F0A37808E608F0A3DEFAEFF0A3E55E
:1017B3008124FAF8E608F0A3E608F0A3E608F0A30C
:1017C3000808E608F0A3E608F0A315811581D0E028
:1017D300FED0E0F8158115811581E8C0E0EEC0E088
:1017E300222519C582C0E0E51A34FFC583C0E0E5B0
:1017F30019C3958224F910AF0885831A858219804D
:101803000885831A858219D2AFCEF0A3E520F0A311
:101813007808E608F0A3DEFAEFF0A3E58124FBF8ED
:10182300E608F0A3E608F0A30808E608F0A3E60834
:10183300F0A315811581D0E0FED0E0F81581158164
:10184300E8C0E0EEC0E022851A83851982E0A3FE9A
:10185300E0A3F5207808E0A3F608DFFAE0A3FFE0B1
:10186300A3C0E0E0A3C0E0E0A3C0E0E0A3C0E0E0E9
:10187300A3C0E010AF0885821985831A800885828A
:101883001985831AD2AFD083D082020132851A839D
:10189300851982E0A3FEE0A3F5207808E0A3F6080B
:1018A300DFFAE0A3FFE0A3C0E0E0A3C0E0E0A3C051
:1018B300E0E0A3C0E010AF0885821985831A800891
:1018C30085821985831AD2AFD083D08222C0D025D6
:1018D30019C582C0E0E51A34FFC583C0E0E519C32A
:1018E300958224F310AF0885831A858219800885B1
:1018F300831A858219D2AFC8F0A3E9F0A3EAF0A353
:10190300EBF0A37908E709F0A3D8FAECF0A3EDF024
:10191300A3EEF0A3EFF0A3D0E0F0A3D0E0F0A3D0C8
:10192300E0F0A3E520F0A3E5F0F0A322851A838578
:101933001982E0C0E0A3E0F9A3E0FAA3E0FBA378F7
:1019430008E0F608A3DFFAE0FCA3E0FDA3E0FEA3B2
:10195300E0FFA3E0C0E0A3E0C0E0A3E0F5D0A3E094
:10196300F520A3E0A3F5F010AF0885831A8582194B
:10197300800885831A858219D2AFD082D083D0E0C4
:10198300F8D0E03274048006740280027401C0E06F
:10199300F404121751D0E012162622740480047442
:1019A300028000CCC0E0EDC0E0E519C39CCCAD1AC9
:1019B30050011D10AF068C198D1A80068C198D1AD3
:1019C300D2AF121633D0E0FDD0E0FC22D083D08218
:1019D300E9C0E0E493A3C386F0C5F095F0F908E409
:1019E30093A386F0C5F095F0700BE493A3C39940DD
:1019F30005E9048002A3E475F002A42582F582E5DB
:101A0300F03583F583D0E0F9E493A3C0E0E493C019
:101A1300E022D083D082ECC0E0EDC0E0E493A3FCED
:101A2300E493A3FDED4C600D121A61EC24FFFCED71
:101A330034FFFD80EFE493A3FCE493A3FDED4C603E
:101A43000D121AA0EC24FFFCED34FFFD80EFD0E073
:101A5300FDD0E0FCE493A3C0E0E493C0E022C0E047
:101A6300C3E49396087401939618400FE493667049
:101A73000808740193661870007019A3A3C3E49354
:101A830096087401939618A3A3400DD0E0D0E0D03C
:101A9300E0021A51A3A3A3A3A3A3D0E022C0E0C0F2
:101AA300F088F0E493667008087401936618700078
:101AB300A8F0A3A3700BD0F0D0E0D0E0D0E0021ADE
:081AC30051A3A3D0F0D0E022F2
:101ACC0074F51217E4EAFEEBFFEE2434F8EF340061
:101ADC00F988088909EE2435121BF8F8EE24371220
:101AEC001BF8F50AEC850AF0A4FCAAF0850AF0EDC7
:101AFC00A42AFDE82CF8E43DF97A257B0012169512
:101B0C00EA850882850983F074075AF87401B800D5
:101B1C00028004C333D8FCFBEA131313541FF8EEF2
:101B2C0028F8EF3400F9E8245DF582E9121BFB5B21
:101B3C006003EA801CEE2436121BF8F5F0EA84A848
:101B4C00F0EE28F8EF3400F9E82438F582E9121B9E
:101B5C00FBF97F0402189074F51217E4EAFEEBFF10
:101B6C00EE2434121BF8C0E0EE2435F582EF34007D
:101B7C00F583D0E0F08E828F83A3A3A3A3A3E0FA16
:101B8C00A3E0FB8E828F83A3A3A3A3A3A3A3E0FC58
:101B9C00A3E0FDECC39AF50AED9BF50BEE247FF563
:101BAC0008EF3400F509850882F583E06401702B99
:101BBC00EE2480F582EF3400F5831219A2121C0179
:101BCC007402121736E960137CDC7D04EEFAEFFB2D
:101BDC00120BA2850882850983E4F0AC0AAD0BEEEA
:101BEC00FAEFFB121ACC122695021B5EF582EF342B
:101BFC0000F583E022C082C083851982851A83E0B8
:101C0C00F8A3E0F9C3EA9CEB9D5010C3EC98ED9956
:101C1C00401BC3EA98EB995014800EC3EA98EB99D9
:101C2C004007C3EC98ED994004790180027900D00B
:101C3C0083D08222EAC39CFAEB9DFB2274ED12172F
:101C4C00E49003A2E064086005E06407702C9061E6
:101C5C00C8E060269003D0E0F874FF68601CE8755B
:101C6C00F003A4C8AAF02AF974D228FE740339FF31
:101C7C008E828F83A3A3A3E070057900021DE8EE8A
:101C8C002468F510EF3400F511906060E085108247
:101C9C00851183F0750A45750B05750800750900EB
:101CAC00E5D914F50EE5D95403F50F601CEE24822A
:101CBC00F50CEF3400F50D7403650F6058E50E60FC
:101CCC0013EE2467121BF8700B793DEEFAEFFB1242
:101CDC000BC680A6900540E064016026850C8285C9
:101CEC000D83E06004780480027800850E08E50816
:101CFC00C398FA95E0FB120A468A088B09EA450953
:101D0C007006120E24021C86850C82850D83E070F1
:101D1C00048A0A8B0B78008016E5D9C0E08812E59E
:101D2C000A2512F582E50B3400F583D0E0F008E8C3
:101D3C00C3950E40E4850C82850D83E0602874FC0D
:101D4C00250EF50E780A12198BAC0EA90FEEFAEFD0
:101D5C00FB120C747402121736E9700AAA08AB094C
:101D6C001212E0021CD57403650F6058850E0C75B9
:101D7C000D00780C12198BAC0AAD0BAA08AB09122A
:101D8C000C387402121736851082851183E0F874B2
:101D9C0080687005750C7F8002880CE50CF50A785C
:101DAC000A12198FE50FF50A780A12198FA90EACD1
:101DBC0008AD099003D0E0FA7B001208DE74021221
:101DCC00173680139003A2E06408600BAC0AAD0BCD
:101DDC00EEFAEFFB120D0A120E3079017F0C02188D
:101DEC009074F31217E474FC121720EAFEEBFF89CF
:101DFC0008A2AFE433F509C2AFEE2463F50AEF3461
:101E0C0000F50B8010AA0AAB0B120BF01212E0902B
:101E1C0004E3E004F0850A82850B83E0F8A3E0F983
:101E2C00E849602FE82402FAE93400FBEA2402F5C1
:101E3C000CEB3400F50D780C12198B8A828B83E035
:101E4C00FCA3E0F9EEFAEFFB120BE4740212173666
:101E5C00E960B29004E3E060579004E4E0F8900489
:101E6C00E3E0C398500C7402650870449004E5E0FC
:101E7C00603E8E828F83A3A3A3A3E0851982851A6B
:101E8C0083121ECC740212176CE8121ECC9004E262
:101E9C00E028F0740212176CAC82AD838519828530
:101EAC001A83AA82AB8379011208EA9004E3E4F066
:101EBC00E509A2E092AF74041217367F060218905F
:101ECC00F0A3E4F09004E3E0F8220000852187857C
:101EDC0022C622C0E074EF1218D0A2AFE433FEC2C7
:101EEC00AF759B00906182E0A2E05012E591A2E0F8
:101EFC00500C7591FE740165217003121C48E0A210
:101F0C00E55051E591A2E5504B7591DF9003A2E0AD
:101F1C0064076005E06408702374016521703579ED
:101F2C00019003D0E0FA75F003A4CAA8F028FB7462
:101F3C00D22AFA74033BFB121DED8018E0640D707D
:101F4C00139003C4E004F064287002E4F07A00E01B
:101F5C00F9120E36906182E0A2E64003022006E5FB
:101F6C0091A2E640030220067591BF9003A2E064A3
:101F7C00057008120D4C120D588003120D5275216C
:101F8C0000120DC4E99003A3F07900120DB8120BE6
:101F9C000C7A017B009003A1E0F912108890780371
:101FAC00E064427055900544E014F0704DC2AF12DD
:101FBC001FBE00782AD0E0F618D0E0F6E59F540753
:101FCC0070057509FF800375097FC4C0E07829E6A8
:101FDC00F50808E65509F509740B78081216FED0B9
:101FEC00E02508F8906270E0A2E740F8E8C333906F
:101FFC006272F0906270E0D2E0F0906181E0A2E356
:10200C005009E5E9A2E3500375E9F7A3E0A2E75014
:10201C0009E591A2E7500375917FEEA2E092AF7FA4
:10202C000402192FC0E0C0D0C082C083906183E04D
:10203C00A2E05009E5BFA2E0500375BFFEE0A2E1AB
:10204C005009E5BFA2E1500375BFFDE0A2E25009C3
:10205C00E5BFA2E2500375BFFBE0A2E35009E5BF68
:10206C00A2E3500375BFF7E0A2E45009E5BFA2E478
:10207C00500375BFEFE0A2E55009E5BFA2E55003A0
:10208C0075BFDFE0A2E65009E5BFA2E6500375BFBD
:10209C00BFD083D082D0D0D0E032C0E074F212181E
:1020AC00D0E5A7A2E4500FE5A1A2E4500953A7EF95
:1020BC0075A1EF1220FAE5A7A2E5500CE5A1A2E567
:1020CC00500653A7DF75A1DFE5A7A2E15009E5A1F2
:1020DC00A2E1500375A1FDE5A7A2E2500CE5A1A277
:1020EC00E2500653A7FB75A1FB7F0102192F74F870
:1020FC001217E47521019003A2E0640670077A00C0
:10210C007B00120D34A2AFE433FED2AF9003A8E0F3
:10211C00640170187A207B009003A1E0F91211126F
:10212C007A207B009003A1E0F912108E906182E07E
:10213C00D2E6F0900541E0602185C622801690031E
:10214C00A7E064017008E5C654F84405F5C653BE13
:10215C00FC121ED87401652160E4EEA2E092AF7F00
:10216C00010218908E238F24858228858327851958
:10217C0082851A83E0CEA3E0CF852882852783EB66
:10218C00C9EAC8EDCBECCA75F010C3E833C8E93323
:10219C00C9EA33CAEB33CBC3EA9EF526EB9FF52590
:1021AC00B35004AB25AA26EC33CCED33CDD5F0DA05
:1021BC00AE23AF242274E91217E474FA121720EA42
:1021CC00FEEBFF8C088D099003A2E024F7C3940565
:1021DC0050067510010222EC120CAA8A0A8B0BEA2B
:1021EC00450B70030222E9120D6A8A0C8B0D120D3D
:1021FC006AEA650C7003EB650D60ECEEFCEFFD8597
:10220C001982851A83AA82AB83120D70850A828586
:10221C000B83A3A3780C1215F0908FBD780C1215BC
:10222C00CA851982851A8378141215F0908FBD789F
:10223C00141215CA780C7914121403501F780C79E7
:10224C00141215A2908F61780C1214234047850C40
:10225C0010850D11850E12850F138045908F6185A9
:10226C0014108515118516128517137810790C1218
:10227C0015A27810121423501C75100075110075DE
:10228C001200751301781079141215A27810790CBC
:10229C00121569800C7510017511007512007513FB
:1022AC00007409781012154A908FB5780C1215F03D
:1022BC007810790C1214C29003A2E06408600AE052
:1022CC0064066005E064057020908F657810121428
:1022DC00235016908F69781012157C800C751000A5
:1022EC0075110075120075130085088285098378B5
:1022FC00101215FF74061217367F1002189074F71F
:10230C001217E4120D8290053FE064017010906288
:10231C0045E4F0A3F053F4F343FE0C5390F3120D89
:10232C0022E5C654804449F5C6E59E547F64497045
:10233C00F8906185740FF090053DE0F47002A3E015
:10234C00602C75080175090090053DE0780812179E
:10235C000DE508F4FAA3E0600814600A14600C8020
:10236C000DEA52808008EA52908003EA52A079006C
:10237C007F0202189074F71217E4E9FEEAFF740169
:10238C006E700C7A807B009003A1E0F9121088909B
:10239C002718E493F46008E493F9120AEE800953C9
:1023AC00C680E59E547F70FA120D2890053FE064BC
:1023BC00017003120B2490053DE0F47002A3E06061
:1023CC002A75080175090090053DE0780812170D73
:1023DC00AA08A3E0600814600A14600C800DEA429D
:1023EC00808008EA42908003EA42A0120CAA8A0874
:1023FC008B09A808A909E8496017E5E170FCE824F5
:10240C0014F582E93400F583E0F874FF6860028803
:10241C00E174016F700A7A019003A1E0F91210DCEB
:10242C0002237C74F11217E48A088B098C0A8D0B39
:10243C00908FBD78081215CA740F12176C780C1295
:10244C0015F0908FBD780C1215CA7808790C1214FF
:10245C0003908F6150107808790C1215A27808122D
:10246C0014234014800E780C79081215A2780C12E3
:10247C00142350047901800279007F0802189074AB
:10248C00ED1217E48A088B098C0A8D0B908FBD789E
:10249C00081215CA741312176C780C1215F0908F61
:1024AC00BD780C1215CA780C7908121403401178F7
:1024BC0008790C1215A2AA08AB09AC0AAD0B802244
:1024CC007510007511007512007513017810790CD8
:1024DC001215A278107908121569AA10AB11AC125A
:1024EC00AD137F0C021890908FBD78081215F08AEE
:1024FC00828B8378081215DD7F0402189074F51214
:10250C0017E48C828D8378081215F08A828B83787D
:10251C00081215B612255DC3E098F0A3E0991225B8
:10252C004F401E908F9178081215F08A828B837819
:10253C000812158F8E828F83E02420F0A3E0344E96
:10254C00F080A4F08E828F83C3E09420A3E0944E9D
:10255C0022EA2404F8EB3400F9E8FEE9FF8C828DC2
:10256C0083A3A3A3A3E0F8A3E0F98E828F83227444
:10257C00F51217E4E9FE9004F7E0FAA3E0FBEEC3D2
:10258C0033F8E433F974E728F582748E39F583E077
:10259C002AF508A3E03BF509780812198B908FC92E
:1025AC0012160E12217074021217368A088B098CBF
:1025BC000A8D0B74107808121531AA08AB097F0428
:1025CC0002189074F11217E48A0C8B0D8C0E8D0F7F
:1025DC00740F12176CE0FAA3E0FB741112176CE085
:1025EC00F508A3E0F509780812198BEA2401F5081F
:1025FC00EB3400F509E4F50AF50B780C79081214A4
:10260C0042908F7578081215F0780C7908121442E4
:10261C00AA0CAB0DAC0EAD0F122170740212173652
:10262C008B09EA450960047A0180027A00EC2AFCE5
:10263C00ED3400FD741312176CE0F8A3E0F9E8FE1A
:10264C00E9FFECF8EDF97A717B021216958808898E
:10265C0009E4F50AF50B8E828F8378081215FFECCE
:10266C00F8EDF97A717B021216958A088B097405BC
:10267C00780812170D8E828F83A3A3A3A3E508F00D
:10268C00A3E509F07F08021890C082C083E990602E
:10269C0000F0D083D08222C2AF02000022C0E074CE
:1026AC00F21218D0A2AFE433FED2AFE58954216008
:1026BC0003121280C2C5751B00EEA2E092AF7F011F
:1026CC0002192FC0E0C0D0E8C0E0E9C0E0E5A8D214
:1026DC00AFC2E8751B00A2E7A2E792AFD0E0F9D039
:1026EC00E0F8D0D0D0E032C0E0C0D0E8C0E0E9C023
:1026FC00E0E5A8D2AFC2C7751B00A2E7A2E792AF74
:0B270C00D0E0F9D0E0F8D0D0D0E032EF
:10271800FFFFFFFFFFFFFFFFC082C083E9900A01B0
:10272800F00229AF74F7121778E99002E1F07C19EA
:102738007D037AFF7BFF1208309002E274FFF0A35A
:10274800F0A3E4F0A3F079051207B89002E1E0F9EC
:102758001206DA7A4E7B081209F87F0102184A74C9
:10276800F41217788A088B09EB548060309002E1E4
:10277800E0F91210708A0A8B0BAE0AAF0BEE4F60AD
:10278800138E828F83E064B070031207D0EEFAEFE5
:10279800FB12105EAA08E5096480FB80047A007BBE
:1027A8000002297E74F212177874FC121720EAFED0
:1027B800EBFFEE4F6038740212176CEEF0A3EF12C5
:1027C8002BE3ECF0A3ED122BE3AA82AB831206D421
:1027D800E9F5087073741212176C123797E50A45F9
:1027E8000B60658E828F8312285AEE4F700575082C
:1027F8000280557A067B001210C48A0C8B0DA80C37
:10280800A90DE8497005750813803D88828983E41D
:10281800122864A3A3EEF0A3EF123C30E50AF0A35C
:10282800E50BF09002E71228EC9002E76017E0FC55
:10283800A3E08003EAFCEBFD8C828D831228EC7008
:10284800F38C828D831236BCA908740412173602E1
:102858003E32A3A3A3A3E0FEA3E0FF22F0A3F088E7
:102868008289832274F2121778890AE975F017A40D
:10287800FEAFF09002E6E4F09002E41228EC600A61
:102888001210CA9002E4E4F0A3F0EEFAEFFB121083
:10289800C48A088B09EA4509602FEEFCEFFD790030
:1028A80012104C9002E4E508F0A3E509F07B0080E3
:1028B800081228D6E4F0A3F00BEBC3950A40F2E522
:1028C8000A9002E6F0790080027913023E32EB7535
:1028D800F017A4F8A9F09002E4E028FAA3E0398AF6
:1028E80082F58322123452EA4B2274F41217787557
:1028F8000800750900740C12176C123C04FEE9FFFD
:10290800800CE5082401F508E5093400F509C3E55C
:10291800089CE5099D503285080A85090B740378DF
:102928000A12170DEA250AF8EB350BF98882898314
:10293800A3A3A3A3A3A3123797EE650A7003EF65B9
:102948000B70BFE8FAE9FB80047A007B00802774EB
:10295800F41217787900EAA2E0501B750846750949
:102968008F780812198B7C047D007A037B0A120782
:10297800B274021217367F0402184AC082C08390CC
:1029880002E71229B6601C88828983A3A3E06A70D3
:1029980003A3E06B8882898370E8A3A3A3A31234FE
:1029A8004E80047A007B00D083D082020132123F2D
:1029B80005E8492274EE12177874FC121720EAFE13
:1029C800EBFF851982851A83E4F0A3F0EE24021246
:1029D80036A0EE2405122BD1EE2404F50EEF122FAB
:1029E800B6E024FE603924FC604624FE605224FED2
:1029F800605E24FE7003022AD624FE7003022B4E6A
:102A080024FE7003022B5D24FE7003022B6C24FC51
:102A18007003022B7B24FE7003022B8A022BC790C3
:102A280003007417F0A3E4122BEB120452022BC715
:102A3800851982851A83AC82AD831207D6022B973B
:102A4800851982851A83AC82AD831207DC022B9725
:102A5800850C08850D09740212176CAC82AD83854C
:102A6800088285098312344E1206F88A0C8B0DAC45
:102A78000CAD0DEC4D6042E4F50CF50D780C121917
:102A88008B750C00750D03780C12198B750C01757C
:102A98000D03780C12198B740812176C1219A2798D
:102AA800161234481208187408121736E9F50C7013
:102AB8000B12344412046A800F750C018508828554
:102AC8000983122BD91236BC850C08022B9A740282
:102AD80012176CAC82AD83850C82850D8312344E3F
:102AE8001206F88A108B11AC10AD11EC4D604385BD
:102AF8000C82850D83A3A31219A27510007511030A
:102B0800781012198B751001751103781012198B32
:102B1800740812176C1219A2791612344812081880
:102B28007408121736E9F509700B12344412047050
:102B3800800F750901850C82850D83122BD91236F9
:102B4800BC850908804C851982851A83AC82AD83BF
:102B58001207E2803A851982851A83AC82AD831206
:102B680007E8802B851982851A83AC82AD8312070A
:102B7800EE801C851982851A83AC82AD831207F416
:102B8800800D851982851A83AC82AD831207FAE914
:102B9800F508E50860298E828F83A3E06414601F1E
:102BA800850E82850F83E0900300122BE3123F010C
:102BB8009003011236BCE508A3122BEB12044CEE6D
:102BC800FAEFFB1207760235A8F50CEF3400F50D85
:102BD80022123F05851982851A8322F0851982857C
:102BE8001A8322F07C007D03850A82850B831234C8
:102BF800522274EE12177874FC1217208A0A8B0B73
:102C08008C0E8D0FEA2405F508EB3400F5097C15C8
:102C18007D0079007A007B0312104CE5082402F548
:102C28000CE509122BD4851982851A8385821085B3
:102C38008311781012198B850882850983A3A3A3B1
:102C4800A31230FE12198BE5082405F510E50934A6
:102C580000F511781012198B850C82850D831234BA
:102C6800581206F274061217368A108B11AE10AF7E
:102C780011E50A2402F50AE50B1236A3EE4F70039C
:102C8800022DC08017740212176C12344E88828984
:102C980083EAF0A3EBF0900300E004F0900300E077
:102CA800C394054003022DC0E4F510F51178101205
:102CB800198B7510E9751102781012198B7510EAC5
:102CC800751102781012198B740612176C1219A25A
:102CD8007910EEFCEFFD1234481208187408121728
:102CE80036E9705E850882850983A3A3A3A3A3A3FD
:102CF800A3E0F89002E9E06870481230FE12198BE0
:102D08007CEA7D02E5082408FAE5093400FB121084
:102D1800467402121736E960298E828F83A3A3A313
:102D2800A312344E900300E0F510740278101217C5
:102D38000D74012510F58274033511F583EAF0A3AB
:102D4800EBF0740212176C858210858311781012CB
:102D5800198B740212176C1219A2850C82850D83C7
:102D6800123F161206FE74041217368A108B11AE23
:102D780010AF11900300E0F510751100740278107F
:102D880012170D74002510F874033511F98882891B
:102D980083A31228EC7003022C84E82403F8E93496
:102DA80000F9EE4F6003022C8D8882898374FFF04E
:102DB800A3F0900300E004F0900300E0600A1234EE
:102DC8004412045E7900800B8508828509831236D7
:102DD800B3790A0235A874EA12177874FE1217201C
:102DE8008C128D13EA2405F50CEB12408012285E34
:102DF800750800750900EA2402F510EB3400F51196
:102E0800851982851A8385820A85830B780A1219A7
:102E18008B850C82850D83A3A3A3A3122FC012193F
:102E28008BE50C2405F50AE50D1236A3780A12196C
:102E38008B850C82850D83123F141206F2740612DC
:102E480017368A0A8B0BEA450B7003022F71EA24A6
:102E580004F50EEB122FB612285E8A828B83A3A389
:102E6800A3E0F985108285118312344E1206E0E939
:102E7800F5096003022F71E4F514F5157814121999
:102E88008B7514E9751502781412198B7514EA7587
:102E98001502781412198B740612176C1219A2797C
:102EA80013AC0AAD0B85108285118312344E1208BB
:102EB800187408121736E9F5096003022F71900299
:102EC800E9E0F8E5087009E02402900301F08017B2
:102ED800900301E0FCE82402FAE43400FBEA6C7099
:102EE80001EB6003022F75850882AA821230F594DF
:102EF800141230ED5073850E82850F83E0C0E074A4
:102F0800022A122FADD0E0F00508850E82850F83C6
:102F1800A3E0C0E085080A7402250A122FADD0E0AC
:102F2800F005089002E9122FC012198B7CEA7D0285
:102F380085080A7402250AFA74033400FB12103457
:102F480074021217369002E9E02508F50874FF6E3E
:102F5800700374FF6F6012EE24010EEF3400FFE57A
:102F680008C394145003022E08E50860131233397D
:102F780085108285118312344E12046479008014FE
:102F8800E509700375090A851282851383EEF0A39B
:102F9800EFF0A90974021217367F0E02184A850845
:102FA8000C7402250CF58274033400F58322340076
:102FB800F50F850E82F58322123C432274EE121718
:102FC8007874FE1217208C0E8D0FEA2405F50CEB91
:102FD800122BD4750B00900300E4F0F50AEA2402E2
:102FE800F508EB3400F5098049900300E0FA9002F7
:102FF800E9E0F81230F594171230ED400D90030017
:10300800E0F87416C3989002E9F01230FE12198B9A
:103018007CEA7D0274012AFA74033400FB1210342E
:1030280074021217369002E9E0F8900300E028F0E5
:10303800050AE50C2416F582E50D122FB1E0F8E536
:103048000AC39840030230D6900300E0C394165098
:103058007DE50AC333F8E433F9E50C28FEE50D39BC
:10306800FF851982851A83AC82AD838E828F831285
:10307800344E1206F88A108B11AC10AD11EC4D705D
:1030880005750B018043E4F510F511781012198BC2
:103098007510E9751102781012198B7510EA7511FF
:1030A80002781012198B740612176C1219A279166D
:1030B80085088285098312344E120818740812177D
:1030C80036E9F50B7003022FF11236AF80107C0041
:1030D8007D0385088285098312344E120476A90B74
:1030E80074020235AAE99400C365D03322EA28F8AD
:1030F800E43400F9E822E0F5107511007810227424
:10310800EA12177874FC1217208A0C8B0D8C128D1A
:1031180013EA2405F50AEB1236A3750800750900B1
:10312800E50A2402F510E50B3400F51174021217B4
:103138006C85820E85830F780E12198B850A82851D
:103148000B83A3A3A3A3123BEF12198BE50A240553
:10315800F50EE50B3400F50F780E12198B851082E9
:103168008511831236A91234481206F27406121712
:10317800368A0E8B0FAE0EAF0FE50C2402F50EE566
:103188000D3400F50F80408882898374FFF00508AC
:10319800122FA674FFF005089002E9E0F50C750DF2
:1031A80000780C12198B7CEA7D0285080C740225C4
:1031B8000CFA74033400FB121034740212173690A0
:1031C80002E9E02508F508EE4F60718E828F83A32F
:1031D800A3A3E0F9850E82850F8312344E1206E010
:1031E800E9F509EE2404122BD1E97044E4F514F54D
:1031F80015781412198B7514E975150278141219BB
:103208008B7514EA751502781412198B7408121745
:103218006C1219A27911EEFCEFFD850E82850F83E1
:1032280012344E1208187408121736E9F509602787
:10323800850C82850D8312332F1236BCE508700386
:10324800023315123339850E82850F8312344E12DC
:10325800047C790002332A850882AA82EA9002E96E
:103268007009E02404900301F08022E0F890030143
:10327800E0F514E82404FCE43400FDEC6514700166
:10328800ED70C01230F594121230ED50B6850C82F4
:10329800850D83E0C0E074022A122FADD0E0F0055E
:1032A80008850C82850D83A3E0C0E0122FA6D0E02C
:1032B80012334B85820C85830D780C12198B74049C
:1032C80012176C1219A2851082851183123F1612EB
:1032D80006FE74041217368A0C8B0DAE0CAF0D85E2
:1032E800080C7402250CF874033400F9EE4F7003CF
:1032F80002318F851982851A83E088828983123387
:103308004BA3E0C0E0122FA6D0E002319DE5097082
:103318000375090A850A82850B8312332F1236BC7E
:10332800A9097404022F9E123F0585128285138312
:1033380022900301E0F5F0E50884900300F07C009A
:103348007D0322F00508851982851A832274EC1200
:10335800177874FE1217208A088B098C0E8D0FEAD5
:103368002405FEEB3400FF851982851A83AC82ADF3
:10337800838E828F8312344E1206F88A0A8B0BEEE4
:103388002418122BD1EA450B700302341F12359111
:103398005032851982851A8312344E12080C8A100D
:1033A8008B11EA4511606B7912AC0AAD0B85088266
:1033B80085098312344E851082851183121776E9A8
:1033C800F50A7058E4F50AF50B780A12198B8E8203
:1033D8008F83A3A3E0F50A780A12198BEE2403124F
:1033E80036A0780A12198B8E828F831234581208ED
:1033F8001E7406121736E9F50A7021850C82850DB0
:1034080083E0701F85088285098312344E12048276
:103418008011750A0E8009750A018004E50A6003A7
:103428001236AF850C82850D83E060047900800236
:10343800A90A74021217367F0C02184A7C007D0311
:10344800850A82850B8312345222E0FAA3E0FB221C
:10345800E0FCA3E0FD8508828509831234522274BA
:10346800EE12177874FE1217208A088B098C0C8DBF
:103478000DEA2405FEEB3400FF750E0085198285E0
:103488001A83AC82AD838E828F8312344E1206F873
:103498008A0A8B0BEA450B700302357D1235915071
:1034A80035851982851A8312344E12080C8A0E8BC0
:1034B8000FEA450F605E7912AC0AAD0B850882856C
:1034C800098312344E850E82850F83121776E9F52B
:1034D8000E6003023580850882850983123797AA12
:1034E8000AFB1208008A108B11A810A911E849706C
:1034F8001E7AFF7BFF1208008A108B11A810A911F1
:10350800E849606C88828983E50AF0A3E50BF075C9
:103518000A008007750E0E805F050A9002E6E0FA41
:10352800E50AC39A504AE50A75F017A4FAABF08881
:10353800828983A3A3E02AFAA3E03BFB8A828B83D8
:103548001236A9EC4D70D2750A17750B00780A125D
:10355800198BEEFCEFFD1210347402121736EEFCD4
:10356800EFFD85088285098312344E120488801481
:10357800750E098003750E01123EFD850C82850DBE
:10358800831236BCA90E0230E8E5082402F508E5E6
:10359800093400F5098A828B83A3A3A3E0A2E5225C
:1035A80074041217367F0A02184A74EC1217788CC2
:1035B800108D11EA2405F50CEB122BD4750F00EAD7
:1035C8002402F50AEB1236A3850A82F58312344EDB
:1035D8001208008A088B09EA4509700302369575B6
:1035E8000E008071850C82850D83E06401704F8E1A
:1035F800828F83A3A31219A28E828F83A3A3A3A36E
:10360800E0F512751300781212198BEE2405F512E5
:10361800EF3400F513781212198B12344812081E71
:103628007406121736E9F50F6014850C82850D8330
:10363800E4F0123EFD8510828511831236BC7C179A
:103648007D007900EEFAEFFB12104C8E828F83E436
:10365800F0A3F0050E9002E6E0F8E50EC398501EC0
:10366800E50E75F017A4F8A9F0850882850983A3EB
:10367800A312408A1236A9EC4D60030235EC850886
:103688008285098374FFF0A3F0E50F7006123448B1
:1036980012048EA90F02343FF50AEF3400F50B220D
:1036A800A3E0FCA3E0FD228E828F83123F05850EE6
:1036B80082850F83E8F0A3E9F022C082C0839002DC
:1036C800E2E06A7003A3E06B70067AE27B02800492
:1036D8007A007B000229AFC082C08378008C828D7B
:1036E80083E06A7003A3E06B7010E875F003A4F838
:1036F800A9F0EC28FAED39FB8015088C828D83A39C
:10370800A3A3E06A7003A3E06B60DF7A007B00028A
:1037180029AF74F61217781207CA8A828B83E5825A
:10372800458370067A007B008007A3A3A3A3123405
:103738004E023DAE74F2121778E9FE740E12176C41
:10374800123797741012176C123C0F8C828D83E01D
:1037580064027036A3123F0BF50CA3E0F9A80C74B1
:10376800026870037429697021750C02750D007860
:103778000C12198B780812198B780A12198BEEF92A
:10378800120842740612173680027901023E32E0AE
:10379800F50AA3E0F50B2274E812177874FB1217E8
:1037A80020E9851982851A83F08A168B17ECFEEDBD
:1037B800FF751000741D12176C123F01741D12174B
:1037C8006C1236BC8E828F83A3A3A3E0A2E4502D93
:1037D800741D12176C12344E12080C8A828B83E502
:1037E8008245837003023BE0790AEEFCEFFDAA16DE
:1037F800AB17121776E9F5106003023BE3741F124A
:10380800176C123C0F742112176C1237977423121D
:10381800176CE0F50EA3E0F50F8E828F83E064024B
:103828006003023B8EA3123F01850882850983A3AA
:10383800858212858313EE2406122BD18882898310
:10384800E0FAA3E0F9EA2400F514E439F515781450
:10385800121A150100002801288338070002284899
:10386800390328B53800297F3A0129AA3A02294B99
:103878003A03297F3A0429293B8E3BE50E450F6020
:1038880003023B89850C82850D83123C04FAE9FB0F
:103898008A828B83E0850A82850B83123C3A12194F
:1038A8008B8A828B83A3E0FCA3E0023B13E50E45E1
:1038B8000F6003023B89850A82850B837401F0122D
:1038C8003C17850882850983F07C007D008E828FF5
:1038D80083A3A3A3A3E02401FAA3E03400FB120608
:1038E800F8EA4B60418A828B83E02402F8850A82D9
:1038F800850B83E028F0EA2404F8EB3400F9888289
:103908008983E0851282851383123C4C123C3A125B
:10391800198B8A828B831236A8E5082403FAE509F5
:103928003400FB023B18850A82850B83E02404F0EF
:103938007C047D007900AA12AB1312104C023BE301
:10394800E50E450F6003023B89123C17FEA3E0FF1A
:10395800850A82850B837404F0EE850882850983C5
:10396800F0EF851282851383F0740312176CAC8212
:10397800AD83EEFAEFFB1206F88A0C8B0DEA450DC3
:103988007003023A2C8A828B83A3A312285A7401EB
:1039980012176C85820E85830F780E12198B7405A9
:1039A80012176C1219A27CFF7DFF1206FE74041216
:1039B80017368B0FEA450F7033850C82850D8312FD
:1039C8003BEF12198B850C82850D83A31219A27CFB
:1039D800027D007AE97B8F12052A7404121736E9F2
:1039E800700A740112176C74FFF0A3F08E828F8333
:1039F800E064027039750C02750D00780C12198B91
:103A08008E828F831236A8E5082404FAE50934006B
:103A1800FB1210347402121736850A82850B83E074
:103A280024028009740112176CEEF0A3EFF0740100
:103A380012176C123C00F0740112176CA3123BF8B9
:103A4800023B83E50E450F6003023B89850C8285A6
:103A58000D831236A9AA16AB17120836850A828575
:103A68000B837402F0EA850882850983F085128247
:103A7800851383EB023B86E50E450F6003023B8905
:103A8800123C17F8A3E0F9850A82850B837402F0CB
:103A9800E8850882850983F0E98512828513830207
:103AA8003B86850C82850D8312344E12102EEAFC5B
:103AB8008C82A882C3950EE4950F405FE8650E706E
:103AC80002E50F70047C008022851982851A83E044
:103AD800FAE50E2AFAE50F3400FBC3EA98EB9400E6
:103AE8005003E08005E50ECCC39CFCEC850A82857A
:103AF8000B83F08C0A750B00780A12198B850C82DF
:103B0800850D83E0250EFCA3E0350FFDAA08AB095F
:103B18001210347402121736023BE3751007023B89
:103B2800E3E50E450F705A850C82850D83123F011F
:103B3800850A82850B837407122866123BF81228BF
:103B480066A3E0851282851383F0E82402FAE9343B
:103B580000FB8A828B83123BF8123C27123C00A39D
:103B6800123C30123C09F0E82405F8E93400F988E1
:103B7800828983123C09A3123C4CA3A3A3A3F0801F
:103B88005A75100B8055741D12176C12344E12079B
:103B9800CA8A828B83E5824583603D123F01880C87
:103BA800890DE8450D6031780E12198B780A1219C3
:103BB8008B780812198B740612176CE0F9EEFCEF7B
:103BC800FDAA16AB17850C82850D8312177674062D
:103BD800121736E9F510800375100EA91074051236
:103BE80017367F1002184AE0F50E750F00780E227E
:103BF800E085088285098322123C5622123F05E897
:103C080022123C56A3A322E0F508A3E0F509228579
:103C18000C82850D83E0F8A3E0F5838882E022A377
:103C2800A3F08A828B83A322F088828983A3A3A32B
:103C3800A322F08A828B83123C4322E0F50A750B9B
:103C480000780A22F088828983A3123C5622E085F4
:103C58000882850983A3A32274EE12177874FE12D2
:103C680017208A0A8B0BECFAEDFB741412176CE020
:103C7800F510A3E0F511741612176CE0FE74181213
:103C8800176CE0F50EA3E0F50F851982851A83AC51
:103C980082AD831206F88A0C8B0DEA450D604985C2
:103CA8001982851A8312344E1207CA8A828B83E5D9
:103CB800824583602FA3A3123C0FE50845096024C1
:103CC800780E12198B781012198BEEF9AC0CAD0D19
:103CD800AA0AAB0B85088285098312177674041229
:103CE80017368006790E800279010230E874F612E0
:103CF800177874FE121720740C12176C123C048586
:103D08001982851A83F0740112176CE9F0E4F5083A
:103D1800F509780812198B750802780812198B743E
:103D28000412176C858208858309780812198B128A
:103D3800081E74061217367402121736806874F754
:103D4800121778EAFEEBFF89087C197D0312083602
:103D5800EA5402600BA908EEFAEFFB1206EC8002A7
:103D6800790102276274F612177874FF6A70037477
:103D7800FF6B70168C828D83123DB3E4F08C828DBC
:103D880083A3A3A3123DB3A380181208068A088B45
:103D980009A808A909E849600D8882898374FF1277
:103DA8002864A3A3E4F07F0202184A74FFF0A3F08A
:103DB8008C828D83A3A32274F61217781208068AC0
:103DC800828B83E58245836006A3A3E0FA80027AAA
:103DD800007B0080D174F21217788A088B09ECFEF8
:103DE800EDFF740E12176CE0F50A1208068A0C8BA8
:103DF8000DA80CA90DE8497026EEFCEFFD7AFF7BB3
:103E0800FF1208068A0C8B0DA80CA90DE84970044E
:103E18007911801688828983E508F0A3E509F0887E
:103E2800828983A3A3E50AF079007F0602184A7401
:103E3800EE121778EAFEEBFF8C088D09890C7414D2
:103E480012176C123F01741612176C12344E750D4E
:103E580000E8496003023EF57402650C6003023E07
:103E6800F0741212176C123F0BFCA3E0F9EC24005B
:103E7800F50EE439F50FEAF4F8EBF4F9EC58F8E547
:103E88000F59F9E849705CE5082406F8ED3400F9A3
:103E9800880A890B8882F583123F161208368A1021
:103EA8008B11E50E65107004E50F65116042780E00
:103EB80012198B850A82850B83123F1612083C74EF
:103EC80002121736E9F50D7027780E12198B85083E
:103ED80082850983A3A3123F14120854740212178F
:103EE80036800D750D808008750D0D8003750D0BDE
:103EF800A90D0235AD8E828F83123F0522E0F8A30B
:103F0800E0F922123F0588828983E022A3A3E0FC1E
:103F1800A3E0FDEEFAEFFB2274E812177874E712BB
:103F28001720851982851A83EAF0A3EBF08C168D89
:103F380017890E750800750900743112176CE0F5C1
:103F480012A3E0F513743312176CE0F514A3E0F52F
:103F580015743512176CE0F50FE50975F003A4F830
:103F6800A9F0851982851A8312408AE0F47003A3A8
:103F7800E0F4700302406DEE2402F50CEF1240806D
:103F8800E0700302406D85160A85170B780A12192E
:103F98008BAC14AD15AA12AB131207BE740212171C
:103FA800368A0A8B0BEA450B700302406DE4F51064
:103FB800F511781012198B740612176C858210850A
:103FC8008311781012198B740912176C8582108569
:103FD8008311781012198B851282851383A3A3A3EA
:103FE800A31219A27914AC0AAD0B8E828F831234F6
:103FF8004E1208187408121736E97069850A828506
:104008000B83A3A3A3A3123F01740212176C1236E9
:10401800BC850C82850D83E0A2E05018A90E7402BD
:1040280012176CAC82AD838E828F8312344E1207C6
:1040380010E94208850C82850D83E0A2E15026E54F
:104048000FF50A780A12198FA90E740312176CACAF
:1040580082AD838E828F8312344E12070A74011246
:104068001736E942080509E509C394025003023FDF
:1040780061A9087419023BE73400F50D850C82F537
:104088008322E028FEA3E039FF8E828F832274F218
:10409800121778EAFEEBFF890B7401650B600E744A
:1040A80002650B706A7901120A16E97062EEFAEF7E
:1040B800FB1208008A088B09EA45096047750A005F
:1040C800800B7C177D00790012104C050A9002E6DF
:1040D800E0F8E50AC3985021E50A75F017A4F8A995
:1040E800F0850882850983A3A3E028FAA3E039FBB9
:1040F8008A828B831229B670C985088285098374E0
:10410800FFF0A3F07C197D03EEFAEFFB12083002F2
:104118003E3274F21217788A088B09ECFEEDFF74B0
:104128000E12176C123797900A01E0F4603D7A0975
:104138007B00121058EA4B60328A828B8374B1F08C
:10414800A3E4123C29A3123C27A3E508F0A3E50940
:10415800124176EEF0A3EF124176A3A3E50AF0A38D
:10416800E50BF0900A01E0F9121064023E32F08A81
:10417800828B83A3A3A3A3A32274F012177874FAE3
:10418800121720890BECFEEDFF750A008A088B09CF
:1041980078081219CF000410B443C441E241FC412D
:1041A800144232424A426D4285429942C3424B43CD
:1041B8005C4373438E43B443B443D9427401650BE3
:1041C80060030243AF8E828F83E0F8C394034003F9
:1041D8000243AFE8900AED02438B7402650B60035B
:1041E8000243AF8E828F83124AB1900AEEE8F0A3A1
:1041F800E902438B7401650B60030243AF1243DC91
:1042080040030243AFE890076A02438B7401650BD1
:1042180060030243AF8E828F83E0F8C394054003A6
:104228000243AFE890076B02438B7401650B600390
:104238000243AF1243DC40030243AFE890076C022D
:10424800438B7410650B60030243AF750810750942
:1042580000780812198B7A6D7B07121034740212D9
:1042680017360243D57401650B60030243AF12434E
:10427800DC40030243AFE890077D02438B7401657D
:104288000B60030243AF8E828F83E0900AF10243F2
:104298008B7404650B60030243AF8E828F83780CA6
:1042A8001215F0908FC9780C12142350030243AFF3
:1042B80090077F780C1215FF0243D5E9600302438B
:1042C800AF120698E970051211E480609008128018
:1042D8006E7407650B60030243AF75080675090025
:1042E800780812198B8E828F83A3AC82AD837402F7
:1042F80012176CAA82AB8312103A74021217367C1A
:10430800007D00851982851A83AA82AB838E828FED
:1043180083E0F912118AE9F508C3940A40030243BD
:10432800D2120698E9700CA9081211EA79501213F2
:104338005E806F74132508F58274083400F5837461
:104348000180407401650B705E1243DC5059E8909F
:10435800077E802F7401650B704D8E828F83E0F885
:10436800C3940A5042E8900AF080187401650B70F3
:10437800368E828F83E0F874F928C3940A5028E8AF
:10438800900AF2F080477401650B701B900811E0E9
:10439800F88E828F83E0900811F0E87030E06401B5
:1043A800702B1211D88026750A188021C3EA942729
:1043B800EB940050157402650B700F8E828F831278
:1043C8004EB0120536E9F50A8003750A02A90A7487
:1043D80006024AA68E828F83E0F8C394022274F004
:1043E80012177874CC1217208C0A8D0B74201217B0
:1043F8006CAC82AD8375838F758234740612163364
:10440800742012176CAC82AD8312118AE9F5087416
:104418004412176CE0FEE9C3940A40030245547540
:10442800F006E9A4F509742612176CAC82AD837AFC
:104438000E74202509F9121358E9700974321217FD
:104448006CE0FF80027F00900AEDE0640270047463
:10445800018001E4F50D780D12198FEEFDEFFCA92E
:1044680008AA0AAB0B12120E74011217367C147DBF
:10447800007900740C12176CAA82AB8312104C746A
:104488000C12176CAC82AD837A1074242509F912CA
:104498001358E9703C7C1079FF740C12176CAA82CF
:1044A800AB831210ACE97029741C12176CAC82AD86
:1044B800837A0474252509F9121358740C12176CA1
:1044C800AC82AD83EFA2E0E433F9AA0AAB0B120584
:1044D800C0851982851A83AC82AD837A0C747025E5
:1044E80008F9121358E97053851982851A83AA822C
:1044F800AB831211BA750800E50875F003A4F8A992
:10450800F0851982851A83E58228F8E583124CBA6A
:10451800124EAA601D88828983A3A3E0F50E750F49
:1045280000780E12198BAA0AAB0B12082474021217
:1045380017360508E508C3940440BDEFA2E1500C06
:10454800900769E0F9AA0AAB0B12082A74046E7086
:1045580027900AEDE06402701F7A0090077DE06002
:10456800010A90076AE06004780480027800E84A4B
:10457800F9AA0AAB0B12068079007434024AA674B1
:10458800F0121778EAFEEBFF8C088D09750A0AE924
:10459800600C1460091460371460790246361211F1
:1045A800CCE9F50AC3940A4003024636E5084509F2
:1045B800607C750E06750F00780E12198BEEFCEFF5
:1045C800FDAA08AB091210347402121736805F7501
:1045D8000B00750E06750F00780E12198BEEFCEFA6
:1045E800FDE50B75F00EA4F8A9F0748B28FA740792
:1045F80039FB1210467402121736E9600C850B0A53
:10460800E50AC3940A50278016050BE50BC3940AE4
:10461800501C80BE1211D2E9F50AC3940A500FE566
:104628000845096009AA08AB09A90A1211C6A90A0E
:10463800024AA974F4121778890875091574FF6A73
:10464800700374FF6B70277E00AC087A027B00EE63
:10465800F91211A8E960037509000EEEC3940A4027
:10466800E8E50860537AFC7B11120A28804A120A8E
:104678000A8A0A8B0BAE0AAF0BEE4F60387C007DBE
:1046880000EE2405FAEF3400FB8E828F83A3A3A3E8
:10469800A3E0F912118AE9C3940A500CAC087A0213
:1046A8007B001211A8750900E508600CEEFAEFFB13
:1046B8001211FC8003750914A9098005740E1217DC
:1046C800367F0402184A74F2121778ECFEEDFF7573
:1046D8000815740E12176CE0F50AA3E0F50B74FFC9
:1046E8006A700374FF6B7021750900AC0AAD0BEE9C
:1046F800FAEFFBA9091211AEE96003750800050974
:10470800E509C3940A503F80E2120A0A8A828B8321
:10471800E5824583602D7C007D00E5822405FAE56D
:10472800833400FBA3A3A3A3E0F912118AE9C3947D
:104738000A5013AC0AAD0BEEFAEFFB1211AE750876
:10474800008003750814A9080254ECC082C0839045
:104758000783EAF0A3EBF0900769E0FC7D007A2676
:104768007B00120536900769E0F91207A00253474B
:1047780074F012177874EC121720EAFEEBFFEE249F
:104788000CF50CEF3400F50DEE2405F50EEF3400B2
:10479800F50FEE2409F50AEF3400F50BEE2403F5C6
:1047A80008EF3400F5098E828F83A3A3E024FA7002
:1047B80003024A4A24FD7003024965147003024843
:1047C8005114601024FD700302493C14700302491F
:1047D80099024AA21256E76048E0F5838882124A95
:1047E800B1880E890FE8450F6037850C82850D83E7
:1047F800E0F50C780C12198FEE240BF582EF124CB1
:1048080081F9850A82850B83124EB00A0A0AAB0920
:10481800850E82850F831217767401121736024AA5
:10482800A2850A82850B831219A290077F12160EA1
:104838001205D27402121736E97003024AA27901EE
:10484800850A82850B83024A158E828F83A385820F
:104858000A85830BE0600302491F850E82850F835A
:10486800E0A2E0400302491F90081D1256EA6003C7
:1048780002491F7C0E7D007900851982851A83AA5A
:1048880082AB8312104C850C82850D83125312EA79
:104898004B6010750C06750D00780C12198BEA2404
:1048A80010801B12530C120A0AEA4B7003024AA228
:1048B800750C06750D00780C12198BEA2405FCEBB3
:1048C8003400FD740212176CAA82AB831210347480
:1048D80002121736850E82850F83E0A2E25004D2B9
:1048E800F08002C2F0A2F0E433F8740C12176CE006
:1048F80048F0EEFCEFFD851982851A83AA82AB8306
:104908001211C0E970117A027B00900769E0F91270
:1049180010887900024AA41256E77003024AA212CC
:104928004AB77003024AA2850A82850B83E0FC79A4
:1049380001024A3E1256E77003024AA2124AAE89A1
:104948000BE8450B7003024AA28E828F83A3E0FC1A
:10495800790212530C8882850B83024A457C007DBC
:1049680000EE2404FAEF3400FB850882850983E011
:10497800F912118AE9F8C3940A4003024AA2EE2404
:104988000AFCEF124E86E8A42425F9121352024AB3
:10499800A212530C90077EE06007900AF0E0F980BD
:1049A8006F900AEDE0700479058065120A0A8A0C96
:1049B8008B0DA80CA90DE82404F50CE93400F50DBD
:1049C8008E828F83A3A3A3A3A3A3A3E0A2E0504650
:1049D800E8497003024AA2850C82850D83E0FE60D7
:1049E80035850A82850B83E05410702A740E1217DD
:1049F8006CAC82AD83E82405FAE93400FBEEF912C9
:104A0800118AE97011790385088285098312531286
:104A18001205CC024AA2AC0EAD0F850C82850D831F
:104A2800E0F912530C1212081256E7606D124AB7D9
:104A380060687C00790012530C8E828F831217767F
:104A48008058120698E97052900812E064017015B7
:104A58001211E4900812E4F07C0AFDF97A137B083D
:104A680012104C802D750A00850A0874132508FE5B
:104A780074083400FF8E828F83E06401700BA90AEA
:104A88001211EA8E828F83E4F0050AE50AC3940ABC
:104A980040D6795012135E1211D879017414121786
:104AA800367F0802184A124AC6E0F8A3E0F9221233
:104AB8004AC6E0F8A3E0F9E8FEE9FFEE4F22E0F588
:104AC800838882A3A32274F412177874F212172031
:104AD800EAFE8C0B75F006E9A42420F508851982F6
:104AE800851A83AC82AD837A0EF9121358E9705790
:104AF8007C0679FF851982851A83AA82AB831210F6
:104B0800ACE97043740C12176C124AB1E8F509E568
:104B18000B6005EE42098004EEF45209850982AA69
:104B280082E86A7001E9601B740C12176CEAF0A342
:104B3800E4F0851982851A83AC82AD837A0EA908C0
:104B48001213527901800279000246C474F21217D6
:104B58007874E6121720890A8A088B09ECFEEDFFA3
:104B6800740C12176CAC82AD837A0E75F006E9A44A
:104B78002420F9121358E96003024C747C0679FF6B
:104B8800740C12176CAA82AB831210ACE960030292
:104B98004C747470250AF50B851982851A83AC82CA
:104BA800AD837A0CF9121358E96003024C70851929
:104BB80082851A83AA82AB831211BAE50845097067
:104BC8002C7C0C7900851982851A83AA82AB831202
:104BD80010ACE96003024C707C0C7D0079008519EB
:104BE80082851A83AA82AB8312104C805D85198254
:104BF800851A83AC82AD83AA08AB091211B48A0C5A
:104C08008B0DA80CA90DE8497028EE4F605E851938
:104C180082851A83AC82AD837A007B001211B4EAD4
:104C2800F8EBF9EA4B604588828983E508F0A3E54B
:104C380009F0124C7BFAEE6A7001EF602BEEF04F30
:104C4800700888828983E4F0A3F0851982851A8325
:104C5800AA82AB831211BA851982851A83AC82ADF8
:104C6800837A0CA90B121352790180027900741A05
:104C78000254E9E82402F582E93400F583E022745D
:104C8800F71217787F00EF75F003A4F8A9F0EC2865
:104C9800F8ED124CBAE06A7003A3E06B7006E8FA0C
:104CA800E9FB800B0FEFC3940440DB7A007B000222
:104CB800506539F9888289832274F71217787E0043
:104CC800EE75F003A4F8A9F0EA28F8EB124CBAE064
:104CD800F4FCA3E0F4FD88828983ECF0A3EDF012E4
:104CE8004C7BF4F00EEEC3940440D502506574F288
:104CF80012177874F4121720EAFEEBFF8C088D095E
:104D080090081D1256EA7051EE4F7003024E7FEC68
:104D180045097003024E7F1211CCE9900AF3F0C3E3
:104D2800940A4035750B007C0679FFE50B75F00E8B
:104D3800A4FAABF074852AFA74073BFB1210ACE9AD
:104D48006005850B0A800C050BE50BC3940A40D758
:104D5800750A0AE50A900AF3F0900AF3E0C3940A88
:104D68004003024E7F75F006E0A4FB90081D125622
:104D7800EA706FEEFCEFFD7A0E74202BF9121352D5
:104D88007C0C7D0079FF851982851A83AA82AB8302
:104D980012104C851982851A83AC82AD837A0C90E7
:104DA8000AF3E02470F9121352750C0E750D007891
:104DB8000C12198BEEFCEFFD900AF3E075F00EA4CF
:104DC800F8A9F0748528FA740739FB1210347402B4
:104DD80012173690081DE508F0A3E509F0790002DE
:104DE8004E81E0C82406124EA3601A7A1B74212B48
:104DF800F9121352124E8F2406F582E83400F58317
:104E0800E4F0A380D7124E8F240A124EA360107AC2
:104E18001B74222BF9121352124E8F240A80DA12B5
:104E28004E8F240C124EA360107A1074232BF912A3
:104E38001352124E8F240C80C0124E98124EA3604B
:104E48002A7A1074242BF9121352124E98F582E81C
:104E5800124C812410FCA3E0124E86900AF3E0A4C1
:104E68002425F9121352124E98808E900811E06092
:104E7800031212141212027901740C0254E934005C
:104E8800FD7A0475F0062290081DE0F8A3E0C82218
:104E980090081DE0F8A3E0C8240822F582E8340051
:104EA800F583124EB0EC4D22E0FCA3E0FD2274F431
:104EB80012177874F2121720EAFEEBFFE9C3940A7E
:104EC8005004EE4F70047902803E851982851A835A
:104ED800AC82AD837A0E75F006E9A42420F912138A
:104EE80058E9F5087020750A06750B00780A12193A
:104EF8008B740212176CAC82AD83EEFAEFFB1210C2
:104F0800347402121736A9080246C474F4121778CA
:104F1800EAFEEBFF750800750A06750B00780A12A1
:104F2800198BEEFCEFFDE50875F00EA4F8A9F074F6
:104F38008528FA740739FB1210467402121736E9ED
:104F48006004A908800B0508E508C3940A40C879DD
:104F58000A0246C974F712177874F0121720EAFE8D
:104F6800EBFF750800851982851A83AC82AD837AB8
:104F78001075F006E508A42423F9121358E9702CDB
:104F88007C1079FF851982851A83AA82AB83121057
:104F9800ACE97018EEFCEFFD851982851A83AA82A8
:104FA800AB831205A2E97004A908800B0508E5087F
:104FB800C3940A40B0790A74101217360250657407
:104FC800F7121778750800E50875F00EA4F8A9F02F
:104FD800748528FE740739FFEEFCEFFD7A0E75F034
:104FE80006E508A42420F9121358E9602C7C067DF4
:104FF8000079FFEEFAEFFB12104C7C067D0079FF7A
:10500800EE2406FAEF3400FB12104CEE240CF58265
:10501800EF3400F583E4F0A3F00508E508C3940A2B
:1050280040A5900811E06003121214121202802D9C
:1050380074F71217787E007F007C0679FFEF75F011
:105048000EA4FAABF074852AFA74073BFB1210AC75
:10505800E970010E0FEFC3940A40DEEEF97F0102FA
:10506800184A74F71217787E00EEF91211EA0EEE5C
:10507800C3940A5003E960F180E374F3121778745B
:10508800CB121720E9FE900AF3E06E701B7A017BC1
:1050980000900769E0F912108E7A027B0090076988
:1050A800E0F912108E12122075F006EEA4FF74209B
:1050B8002FF508742712176CAC82AD837A0EA908F5
:1050C800121358E960030251BC7C0679FF74271259
:1050D800176CAA82AB831210ACE960030251BC7C46
:1050E8000E7D0079FF742712176CAA82AB83121009
:1050F8004C7C1B7D0079FF740C12176CAA82AB8361
:1051080012104C7C0C7D0079FF851982851A83AAC0
:1051180082AB8312104C742712176CAC82AD837A61
:105128000EA908121352E9F508740C12176CAC8218
:10513800AD837A1B74212FF9121352E9F509740C07
:1051480012176CAC82AD837A1B74222FF91213529A
:10515800E9F50A740C12176CAC82AD837A107423CB
:105168002FF9121352E9F50B740C12176CAC82ADBF
:10517800837A1074242FF9121352E9F50C740C1267
:10518800176CAC82AD837A0474252FF9121352E997
:10519800FF851982851A83AC82AD837A0C74702ED0
:1051A800F9121352E9F8E509450A450B450C4F4831
:1051B80042088003750800A90874351217367F0560
:1051C80002184A74F7121778E9900769F01211D893
:1051D80002506574F4121778EAFEEBFF54807003EE
:1051E800025273900769E0F91210708A088B09EA75
:1051F8004509607078018A828B83E02450603D14F1
:10520800600624E1604F8052A3A3A3A3E0704E8AF6
:10521800828B83A3A3A3A3A3A3A31219A28A828B1D
:1052280083A3A3A3A3A3124EB08A828B83A3A31242
:10523800531212119674021217368021A3A3A3A346
:10524800E0641E701879008A828B83A3A31253121C
:1052580012119080081211A2E9F8E86007AA08ABB9
:105268000912105EEEFAEF64808065EE5402602346
:105278007C007D007A007B001211C0E960117A0180
:105288007B00900769E0F9121088EE6402803F7A8B
:10529800028046EEA2E0503F1252E612531212125A
:1052A8001AE9602F1256E7601F124AAE880889096A
:1052B800E8450960137C0079011252E61253128501
:1052C8000882850983121776121220EE6401FAEF1C
:1052D800FB80087A0180027A007B000246C99008A8
:1052E8001DE0F8A3124AC6A3227F0202184AC08210
:1052F800C083900769E0F98A828B83A31253121244
:10530800082A803B850882850983E0FAA3E0FB220E
:10531800C082C08374FF1217201211DEE9C3940201
:10532800851982851A83400474028002740AF0ACDD
:1053380082AD837A0179051206B07401121736D04E
:1053480083D08202013274F212177874E81217209F
:10535800EAFEEBFF890A8C088D097C187D0079002C
:10536800851982851A83AA82AB8312104C8519820B
:10537800851A83EEF0A3EFF090076BE0C0E07402AB
:1053880012176CD0E0F090076CE0C0E074031217BD
:105398006CD0E0F0900AF2E0C0E0741712176CD0FD
:1053A800E0F0741512176CE054FEF8A3E0F9900AC7
:1053B800F1E0A2E0E433FAE84AF8741512176C1227
:1053C80054F8A2E15004D2F08002C2F0E854FDFA89
:1053D800A2F0E43333F8EA48F8741512176C125443
:1053E800F8A2E35004D2F08002C2F0E854F7FAA21F
:1053F800F0E433F50C750D007403780C12170D12D8
:1054080054F112176C1254F8A2E45004D2F080023E
:10541800C2F0E854EFFAA2F0E433F50C7404780C07
:1054280012170D1254F112176C1254F8A2E5500419
:10543800D2F08002C2F0E854DFFAA2F0E433F50CAF
:105448007405780C12170D1254F112176C1254F8D7
:10545800A2E25004D2F08002C2F0E854FBFAA2F0B3
:10546800E433F50C7402780C12170D1254F112176C
:105478006CE8F0A3E9F090076CE0601D750C1078FB
:105488000C12198B7C6D7D07740612176CAA82ABFF
:1054980083121034740212173690077DE06011E50C
:1054A8000A6009741512176CE04402F07801800252
:1054B8007800741412176CE048F090076AE06004F2
:1054C800780480027800741412176CE048F0AC0875
:1054D800AD09851982851A83AA82AB831205C67421
:1054E800181217367F0602184AEA450CF874152276
:1054F800E8F0A3E9F0900AF1E02274F31217787447
:10550800E5121720EAFEEBFF8C098D0A74281217A2
:105518006CE0F50C75F006E9A4F87408650A7004E7
:1055280074228002742128F50B7C1B7D007900858C
:105538001982851A83AA82AB8312104C8519828539
:105548001A83AC82AD837A1BA90B121358E9703207
:10555800741A12176CE024F9C3940A5025E50CF567
:105568000B780B12198F740112176CAC82AD83E59E
:1055780009A2E0E433F9EEFAEFFB1205D874011240
:105588001736741B0251C374F71217781208A275E4
:105598000800E50875F00EA4F8A9F0748528FE74D3
:1055A8000739FF7C0679FFEEFAEFFB1210ACE970C1
:1055B80009EEFAEFFB79001208A80508E508C3947C
:1055C8000A40CF02506574F612177874FD1217203E
:1055D800EAFEEBFF90081F1256EA7039750821752C
:1055E8000908780812198B750802750900780812DD
:1055F800198B7508EF75098F780812198B7CFF7D58
:10560800FF7A017B001206F2740612173690081F03
:10561800EAF0A3EBF090081F1256EA70030256D185
:10562800E4F508F509780812198B740412176C85CB
:105638008208858309780812198B740412176C85FF
:105648008208858309780812198B9008211219A2FB
:10565800790290081F1256DF1208187408121736BC
:10566800E97034851982851A83E0FA740112176C7F
:10567800E0F9EA2400F508E439F509EA4509601774
:10568800780812198B90081F1252E9A31256DF12DC
:1056980011967402121736E4F508F50978081219FC
:1056A8008B9008211219A27CFF7DFF90081F1253CE
:1056B800121206FE740412173690081FEAF0A3EBC4
:1056C800F090081F1256EA7004790180027900747C
:1056D800031217360252F1124EB0EEFAEFFB229087
:1056E8000783E0F8A3E0F9E84922C082C083900864
:1056F8001D1256EA601090081D12531212105E9087
:10570800081DE4F0A3F0900AF3740AF0025347C0AE
:1057180082C0839061907404F0A37448F0A3E4F00D
:105728009061807440F09061BC7407F09061877458
:1057380069F09061B67416F07900120B12790212B2
:105748000B18902718E493F46006E493F9120AEE14
:105758007905120E18025B12C082C083E9540FF952
:10576800906185E0696012E5C654804449F5C6E554
:105778009E547F644970F8E9F053C680E59E547FD3
:1057880070FA025B1274F7121778E5A8FE53A87E28
:10579800120AFAC2BA539AFEC289759B00C2C21293
:1057A8000B0075A91175B905120B06D2BA439A01F7
:1057B80074805E42A80260A9C082C083906181E4BF
:1057C800F0A3025B0F75E90075910075BF00020137
:1057D80032C082C083906181E4F0A374C0F0A3E476
:1057E800025B11C082C08374F81217209003A412C0
:1057F8006A4270030258CA9003A4E05440602379B7
:1058080008851982851A83AA82AB83120C0E851922
:1058180082851A83AA82AB831208C69003A4E05437
:10582800BFF0E054806010790C7A657B05120C0E8D
:105838009003A4E0547FF0E0A2E0500F7900120B2F
:10584800121208CC9003A4E054FEF0E05402600F5A
:105858007901120B121208CC9003A4E054FDF0E079
:105868005404600F7900120B181208D29003A4E0B8
:1058780054FBF0E05408600F7901120B181208D29B
:105888009003A4E054F7F0E05410600F7902120B73
:10589800181208D29003A4E054EFF0E05420600FEF
:1058A8007903120B181208D29003A4E054DFF0A376
:1058B800E05401600D120B241208D89003A5E0549F
:1058C800FEF07408121736025B12C082C083E960CA
:1058D8000514602A804F90619A7433F0A37455F0D0
:1058E8009061A0743AF090053FE064017009C2919C
:1058F8009003A67467802D9003A67461802690613A
:105908009A743FF0A3745AF09061A0747FF09005E8
:105918003FE064017009D2919003A67471800590EC
:1059280003A6746AF0025B12C082C083E9600B149C
:10593800600D14601714600C802090271C8015904F
:10594800271D801090053FE06401700590271E8098
:105958000390271FE493906186F0025B1274EE12A5
:10596800177874F4121720851982851A83AC82ADD2
:105978008375838F7582AD740412163390271C9338
:10598800F46003025A8F907808E0C394025003022F
:105998005A6F740412176CAC82AD8375838F75824D
:1059A800267408121633FC7EFF7FFF8E0C7D008C58
:1059B8008285820E800F74086D606D74096D606851
:1059C800740A6D60638D08750900740278081217EF
:1059D8000D125A991215F0A909E50AC9F888107428
:1059E800187808121531E5104508FAE9FBE50EC3E9
:1059F80033F8E433F9740412176CE58228F582E56C
:105A08008339125F99C3E89AE99B4008E8C39AF87A
:105A1800E99B8006EAC398F8EB99F9C3E89EE99FE9
:105A28005006E8FEE9FF8D0C0DEDC3941340877412
:105A3800FF6E700374FF6F6024850C087402780889
:105A480012170D125A991215F0851982851A83E5D5
:105A580082250EF582E583126438E508F00CECC364
:105A6800940450030259AF750801750900780812AB
:105A7800198B740212176CAC82AD837AC77B09123A
:105A8800125C7402121736740C1217367F0A021849
:105A98004A74482508F58274783509F58378082210
:105AA800C082C083906186E0F890271FE4936870F5
:105AB8000990271EE493906186F09061AE7468F0B7
:105AC800A3746AF090624574FBF0A304F053F4FDEC
:105AD80043FE0290053F7401F09061A0E0643A70C3
:105AE80004790080027901120B12025B12C082C095
:105AF800839004F1E06401700A9004F6E060047990
:105B08000C800279008003F0A3F0D083D0820201D8
:105B180032C082C08375E1F19004F4E0604D1460F6
:105B280009146051146049147050120B369004EA3D
