:020000040000FA
:0600000002011A02202C8F
:03002B000226ECBE
:030033000226CED4
:030053000220A2E6
:03006B000226A5C5
:10008300021EDBE5C754F84401F5C77901220000DD
:100093000080FB120086B90003020104E479217891
:1000A30008B800028004F709D8FCE479297802B87B
:1000B30000028004F709D8FCE490028178BF790735
:1000C3008002F0A3D8FCD9FA781B90014A7A01BACE
:1000D30000028007E493A3F608DAF97A3F7B0990DC
:1000E300014B780279048015E493A3AD82AE838A31
:1000F300828B83F0A3AA82AB838D828E83D8E9D9C6
:10010300E77582BB75839C740312012C758291750C
:100113008300740012012C75D00075813F7519811D
:10012300751A02759F00020096C09FF59FE473D075
:100133009F22D083D082C09FE493C0E0740193C018
:10014300E0740293F59F2201FF0000B40000280031
:100153002800283075A000A000A000A0000008001F
:1001630008E001F000100010001000100010001053
:100173000050005000500010001000D00700000095
:100183000000000F0001000500307507001000019A
:100193000081FF00000000FF4A0668065006FF02C8
:1001A300020208025000A0000000E80302FB8F01D6
:1001B3000000DD8F02EB8F010000960902F18F0131
:1001C3000000B30202EB8F010000970902F38F01D5
:1001D3000000C90202EB8F010000980902F58F01AC
:1001E3000000CB0202EB8F010000990902F78F0890
:1001F3000000CC0202EB8F0100009A0902F98F0183
:1002030000009B09FF0100FF2002FB8F010000E3B8
:100213008F02EB8F010000FF090213900000000022
:100223000002EF8F03000019037A0C7A0C7A0C7A20
:100233000C7A0C7A0C7A0C7A0C7A0C7A0C7A0C7A8B
:100243000C7A0C560F6E0F500FFFFF0202020202D0
:1002530002020202010D000000100102FB8F0100E7
:1002630000E08F02EB8F010000420A020F900100B1
:10027300005E0702EB8F010000430A020D900100AC
:1002830000138F02EB8F010000440A020B90010060
:1002930000058F02EB8F010000450A02099001005F
:1002A300007F8E02EB8F010000460A0207900100D7
:1002B30000B58E02EB8F010000470A020590010092
:1002C30000A38E02EB8F010000480A020390010095
:1002D30000918E02EB8F010000490A022190010078
:1002E30000F78E02EB8F0100004A0A020190010021
:1002F300004B0A01E803053F100AFF0001307503B4
:1003030002010600000000000000000000000000E1
:10031300000000000000000000000000000000FFDB
:10032300FF0600800CE803140953696D706C654285
:100333004C455065726970686572616C05125000B6
:100343002003020A000201060302F0FF53696D70E5
:100353006C6520424C452050657269706865726116
:100363006CA6130000AC130A436861726163746581
:100373007269737469632031000243686172616357
:10038300746572697374696320320008436861722B
:100393006163746572697374696320330010436821
:1003A30061726163746572697374696320340002F6
:1003B300436861726163746572697374696320353C
:1003C3000002FB8F010000E68F02EB8F0100005E4D
:1003D3000B021790030000300902ED8F0100005F4C
:1003E3000B02EB8F010000700B021990010000312A
:1003F3000902ED8F010000710B02EB8F01000082F7
:100403000B021B90020000320902ED8F01000083F2
:100413000B02EB8F010000940B021D9000000033D0
:100423000902EF8F030000340902ED8F01000095EC
:100433000B02EB8F010000A60B021F900400003A91
:100443000902ED8F010000A70B120135CE8C0312B8
:100453000135E58C03120135168D03120135518DDB
:10046300031201357B8D03120135A58D031201356E
:10047300BC8D03120135D38D03120135EA8D0312AE
:100483000135138E03120135268E031201353C8E7E
:10049300031201354F8E03120135768E0312013597
:1004A3000198021201350599021201353D99021294
:1004B30001356099021201356B99021201358E994B
:1004C300021201359D9A02120135729B0212013507
:1004D300ED9B02120135759C02120135B09C02128C
:1004E3000135E79C02120135759D021201354E9EBE
:1004F30002120135AE9E02120135B99E0212013578
:10050300389F021201353B9F021201353E9F0212B2
:100513000135CD9F02120135D09F0212013500A093
:10052300021201352AA00212013518A10212013567
:10053300CAA102120135CDDB02120135F5DB02122D
:10054300013523DC021201355ADC02120135B8DC15
:100553000212013503DD021201354EDD02120135AF
:100563008EDD02120135D4DD0212013502DE0212E4
:100573000135BFDE02120135C9DE02120135D6DEB6
:100583000212013509DF02120135D5DF02120135EE
:10059300E1DF02120135F9DF0212013503E0021235
:1005A3000135BE9903120135CC9903120135E49943
:1005B30003120135FC99031201351AB001120135FA
:1005C300C6B00112013541B10112013562B2011207
:1005D30001359EB20112013547B3011201352EB424
:1005E3000112013592B501120135E9B50112013548
:1005F3006AB6011201355AB701120135A7B70112C4
:1006030001352DB8011201355FB80112013573BAF6
:1006130001120135B5BA01120135D3BA0112013500
:1006230056BB011201352ABC01120135F2BC01127D
:1006330001353AC5021201350DC602120135B6C69F
:100643000212013509C702120135B9C70212013579
:1006530045C80212013531C90212013560C90212BF
:10066300013573CA02120135BBCA0212013590CBA0
:1006730002120135CCCB02120135E8CB021201354F
:10068300D89B0312013557F6021201356DF602129B
:10069300013593F602120135AFF702120135B9F7AE
:1006A30002120135EEF802120135E6F902120135A4
:1006B300E3D10212013513D30212013546D30212DC
:1006C300013590D30212013557D5021201352BA003
:1006D3000112013595A001120135F4A10112013572
:1006E30004A20112013531A20112013588A20112BF
:1006F300013531A30112013538A40112013502A5D8
:100703000112013562A601120135A5A601120135B8
:100713004AA70112013597A701120135BDA701129E
:100723000135CBA901120135D0A901120135D5AB91
:100733000112013522AC0112013595AC01120135CC
:10074300C8AC011201356AAD0112013513AE0112B5
:1007530001354BAE011201354EAE0112013596AE95
:1007630001120135D6AE011201352DAF011201354B
:10077300F9820312013511830312013559830312E0
:1007830001356F8303120135B68303120135CA8421
:1007930003120135578503120135A2850312013572
:1007A3001827001201352427001201355F27001294
:1007B3000135A42700120135642800120135EA2807
:1007C300001201354F29001201357B290012013532
:1007D300B42900120135F22B00120135D62D001277
:1007E3000135BC2F00120135FF30001201354D33A6
:1007F300001201355F3400120135AA3500120135AC
:10080300BA3600120135D7360012013512370012FD
:100813000135343700120135973700120135583C42
:1008230000120135ED3C001201353E3D0012013549
:10083300653D00120135B73D00120135D53D00126B
:1008430001352F3E00120135183F001201358E404D
:10085300001201351241001201358AE002120135FE
:1008630094E002120135D7E002120135F2E00212E0
:10087300013582E102120135AAE102120135E7E1F5
:10088300021201351EE20212013547E2021201355E
:10089300BCE202120135D1E202120135E6E2021294
:1008A300013517E3021201352BE30212013550E340
:1008B300021201358AE302120135B6E30212013551
:1008C300EEE3021201356DE402120135B6E40212C1
:1008D3000135E0E4021201350BE502120135CC9437
:1008E300031201350080021201352E8002120135F8
:1008F3007C81021201355C82021201357B82021275
:100903000135F882021201353B83021201359184CD
:1009130002120135528502120135D98702120135BF
:100923007A88021201357089021201356D8A02122A
:100933000135C78B02120135528C021201357193B6
:1009430003120135DA93031201352E940312013594
:10095300559403120135869403120135CDE9021231
:1009630001353AEA0212013581EA0212013599EBA7
:100973000212013595EC0212013578ED02120135B0
:10098300DCF6011201351EF701120135F0F70112F1
:100993000135C9F801120135C3F901120135A5FA70
:1009A300011201350EFB01120135C4FB01120135A1
:1009B30038FC01120135A4FC01120135CDFC0112F2
:1009C300013547FD01120135E0FD0112013545FEF8
:1009D300011201355AFE01120135A0FE0112013543
:1009E300B9FE011201351EFF0112013521FF01126B
:1009F300013500800312013528800312013566801A
:100A0300031201352481031201358B810312013551
:100A1300A78103120135CF8103120135FF81031230
:100A230001350E82031201358B8203120135B18227
:100A330003120135249001120135C29101120135CF
:100A4300DD93011201351994011201354694011207
:100A530001352B9501120135729501120135B695B9
:100A630001120135C89501120135089601120135AD
:100A7300359601120135809601120135C096011297
:100A83000135EE9601120135409701120135D097D9
:100A9300011201356E9A01120135849C0112013550
:100AA300C29C01120135539E01120135989E011219
:100AB30001350F9F01120135599F01120135849FA2
:100AC3000112013505AC0212013584AC0212013565
:100AD30046B20212013555B302120135BDB40212FA
:100AE300013554B5021201350F570012013558571D
:100AF30000120135855700120135B8570012013530
:100B0300C55700120135D15700120135E3570012C2
:100B13000135CA58001201352859001201355D59B3
:100B230000120135A05A00120135ED5A00120135A9
:100B3300115B001201357E5B001201353C5C001233
:100B43000135F55C00120135625D00120135145E5A
:100B530000120135245E00120135AB5E001201352F
:100B63006A5F00120135975F0012013510600012B1
:100B730001356D6000120135B760001201354D611A
:100B830000120135186200120135CD6200120135E1
:100B9300426300120135A363001201350D64001294
:100BA3000135466400120135E86400120135F86529
:100BB3000012013538660012013555660012013501
:100BC300746600120135BB6600120135E06600123F
:100BD30001350D6700120135876700120135C867BB
:100BE30000120135EC68001201359C6900120135D1
:100BF300F369001201355D6A00120135766A00124D
:100C030001353BA2021201358EA2021201359AA2CE
:100C1300021201356FA30212013596A302120135A8
:100C2300D1A3021201353DA40212013579A40212A7
:100C33000135B2A402120135CAA4021201351FA55F
:100C43000212013538A50212013581A502120135C0
:100C530094A502120135AEA502120135C4A50212F4
:100C63000135F7A6021201353EA80212013540A94B
:100C7300021201353AAA02120135ED7F0012013545
:100C8300A5E901120135D5E9011201359DED0112E6
:100C93000135F4EE01120135BDEF011201353DF1CD
:100CA300011201350EF2011201354BF20112013529
:100CB3006EF201120135ACF201120135B5F20112E7
:100CC3000135FFF20112013509F301120135B3F3C6
:100CD300011201358CF401120135E0F401120135E2
:100CE30042F50112013595F501120135C4F50112E2
:100CF300013501F601120135A86A001201350F6EA4
:100D030000120135156E001201359773001201357B
:100D1300107800120135E67B00120135357C001294
:100D23000135AB7C00120135C17C00120135027D17
:100D3300001201353C7D00120135B57D00120135ED
:100D4300F07D00120135637E00120135A17E001291
:100D53000135AA7E00120135B67E00120135D27E1E
:100D630000120135FD7E00120135137F001201359B
:100D73003C7F001201359F7F001201350AD7021212
:100D830001351DD70212013537D70212013560D75D
:100D930002120135A3D702120135E2D7021201353F
:100DA30020D80212013585D8021201359AD80212D1
:100DB3000135A5D802120135B2D802120135C9D8BE
:100DC30002120135D7D802120135E2D802120135D9
:100DD300EED80212013501D9021201350CD90212E3
:100DE30001352FD902120135D6D902120135E6D9C0
:100DF3000212013500DA021201351DDA0212013541
:100E030039DA021201355EDA0212013569DA0212A9
:100E130001357EDA0212013592DA02120135F3DA74
:100E230002120135F9DA02120135FFDA0212013535
:100E330005DB021201351DDB0212013550DB021204
:100E430001357CCD0112013500CE01120135AFCE43
:100E5300011201350ED0011201352FD201120135D5
:100E63001BD30112013550D30112013572D3011284
:100E7300013521D40112013519D60112013542D6AB
:100E830001120135D4D60112013506D701120135FD
:100E930013D7011201356AD70112013590D7011218
:100EA3000135FDD90112013500DB0112013558DB93
:100EB300011201350BBF0112013515C001120135B5
:100EC300FCC00112013506C10112013528C101120E
:100ED300013534C101120135CDC201120135FCC205
:100EE3000112013518C40112013571C40112013513
:100EF300D7C501120135B6C60112013512C7011259
:100F030001357FC701120135BAC701120135F9C78F
:100F130001120135B2CA01120135CCCA01120135E1
:100F230058CB0112013566CB01120135BFCB01123B
:100F33000135CDCB0112013540CC01120135A4CCD2
:100F430001120135EECC01120135D38C02120135A9
:100F5300F58C021201351B8F0212013530920212F9
:100F63000135489302120135FB9302120135DD94DA
:100F730002120135888E03120135AD8E031201353D
:100F83001F8F03120135C0BD02120135C9BD021204
:100F93000135D2BD02120135A9BE021201355AC074
:100FA3000212013590C002120135CAC00212013586
:100FB30000C1021201353AC1021201356EC102129B
:100FC30001359AC102120135E3C1021201351DC276
:100FD3000212013566C202120135BEC20212013588
:100FE300F3C2021201354EC30212013588C3021245
:100FF3000135D9C3021201350FC40212013549C4A8
:101003000212013577C4021201359AC40212013566
:10101300959A03120135C19A031201351C9B0312E1
:101023000135269B03120135369B031201355DCC36
:101033000212013567CC02120135A5CC021201352B
:10104300EECC0212013528CD0212013582CD0212F7
:101053000135A3CD02120135ACCD02120135F9CD14
:101063000212013522CE021201352CCE02120135B5
:1010730098CE021201352ACF0212013574CF021223
:101083000135AACF0212013536D00212013577D0CD
:1010930002120135AED002120135C0D00212013561
:1010A300DFD002120135E8D002120135B5D10212A8
:1010B3000135E29703120135DD8A03120135138BE3
:1010C30003120135498B03120135948C0312013548
:1010D300409B03120135569B03120135609B03129B
:1010E3000135AA9B031201355C9C0312013533E5DC
:1010F3000212013548E502120135F8E50212013505
:1011030038E60212013551E6021201358CE602126D
:101113000135D9E6021201350BE7021201354DE71D
:10112300021201354EE902120135C0E902120135FE
:10113300E996031201351297031201354197031201
:101143000135839703120135C89703120135D697EA
:1011530003120135CC8503120135F18503120135E4
:101163001B8603120135139D0312013579410012C9
:101173000135DE43001201357F4500120135334648
:1011830000120135C646001201354B4700120135E6
:10119300704700120135C64A001201354C4B00124C
:1011A30001357F4C00120135B94C00120135EE4C6C
:1011B30000120135AE4E001201350B4F00120135FE
:1011C300544F00120135BF4F001201353050001249
:1011D30001356250001201357A5000120135C351B6
:1011E30000120135D35100120135EE5200120135C0
:1011F300105300120135465300120135FA54001200
:101203000135875500120135C65500120135EA56DE
:101213000012013545FF0112013556FF0112013558
:10122300699D03120135A89D03120135B29D031276
:101233000135D99803120135E99803120135049950
:1012430003120135B89903120135E59503120135EF
:101253006A9603120135D096031201352D900312BD
:101263000135569003120135BC9003120135DC9011
:10127300031201352D9103120135889103120135B3
:10128300C29103120135C591031201353AEE0212E0
:10129300013551EE02120135CBEE02120135AFEFEB
:1012A3000212013586F102120135EBF1021201350A
:1012B30042F202120135F87F0012013598880312B9
:1012C3000135338A03120135948A03120135DA8A10
:1012D30003120135CF910312013521920312013517
:1012E300AB920312013512930312013584FD0212EE
:1012F3000135AEFD021201357CFE0212013557FFA6
:10130300021201357EB50212013545B602120135CE
:101313007CB602120135A6B60212013506B70212D7
:1013230001355CB702120135C1B70212013559B854
:101333000212013568B902120135FFBA02120135F2
:101343008CBB02120135F3BB021201350ABC021237
:10135300013524BD0212013562BD02120135A6DB3F
:101363000112013527DF01120135AFE0011201350A
:1013730006E10112013525E101120135A3E1011254
:10138300013539E3011201351EE4011201352CE860
:101393000112013502E90112013556F2021201353B
:1013A300CDF40212013578F50212013522F602124C
:1013B3000135F0F90212013535FA0212013552FAFC
:1013C3000212013508FB021201355BFB02120135E3
:1013D30031FC021201354BFD02120135C9FF021225
:1013E3000135CF7F00E066701008A3E066700A083D
:1013F300A3E066700408A3E06622C3E7960809E742
:10140300960809E7960809E79622C3E09608A3E041
:101413009608A3E09608A3E09622C008C3E096F5D9
:101423000808A3E096420808A3E096420808A3E050
:101433009645087001D3D00822080808EAC0E0EBFB
:10144300C0E086F0E7A4FA180986F0E7A42AFA18A0
:101453000986F0E7A42AFA180986F0E7A42AFA19FC
:1014630086F0E7A4FBE5F02AFA190886F0E7A42B37
:10147300FBE5F03AFA190886F0E7A42BFBE5F03A0E
:10148300FA18180986F0E7A4C5F02BFBE43AFA1919
:1014930008E7C5F0C6A426F6E5F03BFBE43AFA18E4
:1014A30086F0E7A4F6E5F00826F6E43B08F6E43A0E
:1014B30008F6D0E0FBD0E0FA22E4CFC0E0E4CEC0EF
:1014C300E0E4CDC0E0E4CCC0E075F020E626F60809
:1014D300E633F608E633F608E633F6181818EC3365
:1014E300FCED33FDEE33FEEF33FFC3EC9709ED97CD
:1014F30009EE9709EF97191919400FFFEC97FC09AB
:10150300ED97FD09EE97FE191906D5F0BFECF70923
:10151300EDF709EEF709EFF7191919D0E0FCD0E060
:10152300FDD0E0FED0E0FF226016080808C6C31312
:10153300C618C613C618C613C618C613C6D5E0EA1E
:10154300227009080808226016181818C6C333C683
:1015530008C633C608C633C608C633C6D5E0EA2272
:10156300E627F60809E637F60809E637F60809E636
:1015730037F622E026F608A3E036F608A3E036F6AF
:1015830008A3E036F622E026F008A3E036F008A32D
:10159300E036F008A3E036F022C3E697F60809E642
:1015A30097F60809E697F60809E697F622C3E09648
:1015B300F008A3E096F008A3E096F008A3E096F005
:1015C30022E056F608A3E056F608A3E056F608A371
:1015D300E056F622E056F008A3E056F008A3E056E2
:1015E300F008A3E056F022E0F608A3E0F608A3E033
:1015F300F608A3E0F622E6F008A3E6F008A3E6F077
:1016030008A3E6F022E0FAA3E0FBA3E0FCA3E0FDDD
:1016130022EAF0A3EBF0A3ECF0A3EDF022CAC0E0C2
:10162300E6F0A308DAFAD0E0FA22CAC0E0E0A3C5E4
:1016330082CCC582C583CDC583F0A3C582CCC582C8
:10164300C583CDC583DAE6D0E0CA22C3E498F8E4C3
:1016530099F912168F8026C3E49AFAE49BFBE920DA
:10166300E7E912168FE498F8E499F922C3E498F8AD
:10167300E499F912168FE498F8E499F9C3E49AFA15
:10168300E49BFB22EB20E7CFE920E7E0B90010BBA6
:101693000008E88AF084F8AAF022E4FBC8FA22EBF7
:1016A30070227B10C833C8C933C9335007C39AC3E8
:1016B300DBF280069A50012ADBEAC833F4C8C93347
:1016C300F4C9FA2275F008E4C833C8C933C933C969
:1016D3009AC99B5004C92AC93BD5F0ECFBC833F423
:1016E300C8E4C9FA22600D08C6A2E713C618C613D8
:1016F300C6D5E0F322600C08C6C313C618C613C6CA
:10170300D5E0F422700422600D18C6C333C608C6A0
:1017130033C6D5E0F41822251910AF08F519400C8B
:10172300151A8008F5194002151AD2AF2200C0D04D
:10173300251910AF08F519500C051A8008F5195032
:1017430002051AD2AFD0D0222519F58210AF08F5C1
:1017530019400C151A8008F5194002151AD2AF85E5
:101763001A83222519F582E4351AF58322E47325B9
:1017730019C582C0E0E51A34FFC583C0E0E519C38B
:10178300958224F810AF0885831A8582198008850D
:10179300831A858219D2AFCEF0A3E520F0A378088F
:1017A300E608F0A3DEFAEFF0A3E58124FAF8E608F1
:1017B300F0A3E608F0A3E608F0A30808E608F0A300
:1017C300E608F0A315811581D0E0FED0E0F815817D
:1017D30015811581E8C0E0EEC0E0222519C582C05D
:1017E300E0E51A34FFC583C0E0E519C3958224F907
:1017F30010AF0885831A858219800885831A85822C
:1018030019D2AFCEF0A3E520F0A37808E608F0A341
:10181300DEFAEFF0A3E58124FBF8E608F0A3E6087F
:10182300F0A30808E608F0A3E608F0A315811581E4
:10183300D0E0FED0E0F815811581E8C0E0EEC0E00D
:1018430022851A83851982E0A3FEE0A3F520780898
:10185300E0A3F608DFFAE0A3FFE0A3C0E0E0A3C043
:10186300E0E0A3C0E0E0A3C0E0E0A3C0E010AF0865
:1018730085821985831A800885821985831AD2AFD8
:10188300D083D082020132851A83851982E0A3FEB8
:10189300E0A3F5207808E0A3F608DFFAE0A3FFE071
:1018A300A3C0E0E0A3C0E0E0A3C0E0E0A3C0E01079
:1018B300AF0885821985831A800885821985831A62
:1018C300D2AFD083D08222C0D02519C582C0E0E533
:1018D3001A34FFC583C0E0E519C3958224F310AF22
:1018E3000885831A858219800885831A858219D20F
:1018F300AFC8F0A3E9F0A3EAF0A3EBF0A37908E7FC
:1019030009F0A3D8FAECF0A3EDF0A3EEF0A3EFF007
:10191300A3D0E0F0A3D0E0F0A3D0E0F0A3E520F063
:10192300A3E5F0F0A322851A83851982E0C0E0A322
:10193300E0F9A3E0FAA3E0FBA37808E0F608A3DF4D
:10194300FAE0FCA3E0FDA3E0FEA3E0FFA3E0C0E018
:10195300A3E0C0E0A3E0F5D0A3E0F520A3E0A3F566
:10196300F010AF0885831A858219800885831A854C
:101973008219D2AFD082D083D0E0F8D0E0327404A1
:101983008006740280027401C0E0F40412174BD085
:10199300E0121620227404800474028000CCC0E09C
:1019A300EDC0E0E519C39CCCAD1A50011D10AF0684
:1019B3008C198D1A80068C198D1AD2AF12162DD060
:1019C300E0FDD0E0FC22D083D082E9C0E0E493A321
:1019D300C386F0C5F095F0F908E493A386F0C5F04B
:1019E30095F0700BE493A3C3994005E9048002A327
:1019F300E475F002A42582F582E5F03583F583D002
:101A0300E0F9E493A3C0E0E493C0E022D083D08262
:101A1300ECC0E0EDC0E0E493A3FCE493A3FDED4C44
:101A2300600D121A5BEC24FFFCED34FFFD80EFE444
:101A330093A3FCE493A3FDED4C600D121A9AEC24DE
:101A4300FFFCED34FFFD80EFD0E0FDD0E0FCE4933C
:101A5300A3C0E0E493C0E022C0E0C3E4939608741B
:101A630001939618400FE493667008087401936617
:101A73001870007019A3A3C3E49396087401939696
:101A830018A3A3400DD0E0D0E0D0E0021A4BA3A3EB
:101A9300A3A3A3A3D0E022C0E0C0F088F0E4936640
:101AA30070080874019366187000A8F0A3A3700B64
:101AB300D0F0D0E0D0E0D0E0021A4BA3A3D0F0D016
:021AC300E0221F
:101AC80074F51217DEEAFEEBFFEE2434F8EF34006B
:101AD800F988088909EE2435121BF4F8EE24371228
:101AE8001BF4F50AEC850AF0A4FCAAF0850AF0EDCF
:101AF800A42AFDE82CF8E43DF97A257B0012168F1C
:101B0800EA850882850983F074075AF87401B800D9
:101B1800028004C333D8FCFBEA131313541FF8EEF6
:101B280028F8EF3400F9E8245DF582E9121BF75B29
:101B38006003EA801CEE2436121BF4F5F0EA84A850
:101B4800F0EE28F8EF3400F9E82438F582E9121BA2
:101B5800F7F97F0402188A74F51217DEEAFEEBFF24
:101B6800EE2434121BF4C0E0EE2435F582EF340085
:101B7800F583D0E0F08E828F83A3A3A3A3A3E0FA1A
:101B8800A3E0FB8E828F83A3A3A3A3A3A3A3E0FC5C
:101B9800A3E0FDECC39AF50AED9BF50BEE247FF567
:101BA80008EF3400F509850882F583E06401702B9D
:101BB800EE2480F582EF3400F58312199C121BFD88
:101BC8007402121730E960137CDC7D04EEFAEFFB37
:101BD800120BA2850882850983E4F0AC0AAD0BEEEE
:101BE800FAEFFB121AC8122691021B5AF582EF343B
:101BF80000F583E022C082C083851982851A83E0BC
:101C0800F8A3E0F9C3EA9CEB9D5010C3EC98ED995A
:101C1800401BC3EA98EB995014800EC3EA98EB99DD
:101C28004007C3EC98ED994004790180027900D00F
:101C380083D08222EAC39CFAEB9DFB2274ED121733
:101C4800DE9003A2E064086005E06407702C9061F0
:101C5800C8E060269003D0E0F874FF68601CE8755F
:101C6800F003A4C8AAF02AF974D228FE740339FF35
:101C78008E828F83A3A3A3E070057900021DE4EE92
:101C88002468F510EF3400F511906060E08510824B
:101C9800851183F0750A45750B05750800750900EF
:101CA800E5D914F50EE5D95403F50F601CEE24822E
:101CB800F50CEF3400F50D7403650F6058E50E6000
:101CC80013EE2467121BF4700B793DEEFAEFFB124A
:101CD8000BC680A6900540E064016026850C8285CD
:101CE8000D83E06004780480027800850E08E5081A
:101CF800C398FA95E0FB120A468A088B09EA450957
:101D08007006120E24021C82850C82850D83E070F9
:101D1800048A0A8B0B78008016E5D9C0E08812E5A2
:101D28000A2512F582E50B3400F583D0E0F008E8C7
:101D3800C3950E40E4850C82850D83E0602874FC11
:101D4800250EF50E780A121985AC0EA90FEEFAEFDA
:101D5800FB120C747402121730E9700AAA08AB0956
:101D68001212DA021CD17403650F6058850E0C75C7
:101D78000D00780C121985AC0AAD0BAA08AB091234
:101D88000C387402121730851082851183E0F874BC
:101D980080687005750C7F8002880CE50CF50A7860
:101DA8000A121989E50FF50A780A121989A90EACE1
:101DB80008AD099003D0E0FA7B001208DE74021225
:101DC800173080139003A2E06408600BAC0AAD0BD7
:101DD800EEFAEFFB120D0A120E3079017F0C021891
:101DE8008A74F31217DE74FC12171AEAFEEBFF89E5
:101DF80008A2AFE433F509C2AFEE2463F50AEF3465
:101E080000F50B8010AA0AAB0B120BF01212DA9035
:101E180004E3E004F0850A82850B83E0F8A3E0F987
:101E2800E849602FE82402FAE93400FBEA2402F5C5
:101E38000CEB3400F50D780C1219858A828B83E03F
:101E4800FCA3E0F9EEFAEFFB120BE4740212173070
:101E5800E960B29004E3E060579004E4E0F890048D
:101E6800E3E0C398500C7402650870449004E5E000
:101E7800603E8E828F83A3A3A3A3E0851982851A6F
:101E880083121EC87402121766E8121EC89004E274
:101E9800E028F07402121766AC82AD83851982853A
:101EA8001A83AA82AB8379011208EA9004E3E4F06A
:101EB800E509A2E092AF74041217307F0602188A6F
:101EC800F0A3E4F09004E3E0F82200008521878580
:101ED80022C622C0E074EF1218CAA2AFE433FEC2D1
:101EE800AF759B00906182E0A2E05012E591A2E0FC
:101EF800500C7591FE740165217003121C44E0A218
:101F0800E55051E591A2E5504B7591DF9003A2E0B1
:101F180064076005E06408702374016521703579F1
:101F2800019003D0E0FA75F003A4CAA8F028FB7466
:101F3800D22AFA74033BFB121DE98018E0640D7085
:101F4800139003C4E004F064287002E4F07A00E01F
:101F5800F9120E36906182E0A2E64003022002E503
:101F680091A2E640030220027591BF9003A2E064AB
:101F7800057008120D4C120D588003120D52752170
:101F880000120DC4E99003A3F07900120DB8120BEA
:101F98000C7A017B009003A1E0F912108890780375
:101FA800E064427055900544E014F0704DC2AF12E1
:101FB8001FBA00782AD0E0F618D0E0F6E59F54075B
:101FC80070057509FF800375097FC4C0E07829E6AC
:101FD800F50808E65509F509740B78081216F8D0C3
:101FE800E02508F8906270E0A2E740F8E8C3339073
:101FF8006272F0906270E0D2E0F0906181E0A2E35A
:102008005009E5E9A2E3500375E9F7A3E0A2E75018
:1020180009E591A2E7500375917FEEA2E092AF7FA8
:1020280004021929C0E0C0D0C082C083906183E057
:10203800A2E05009E5BFA2E0500375BFFEE0A2E1AF
:102048005009E5BFA2E1500375BFFDE0A2E25009C7
:10205800E5BFA2E2500375BFFBE0A2E35009E5BF6C
:10206800A2E3500375BFF7E0A2E45009E5BFA2E47C
:10207800500375BFEFE0A2E55009E5BFA2E55003A4
:1020880075BFDFE0A2E65009E5BFA2E6500375BFC1
:10209800BFD083D082D0D0D0E032C0E074F2121822
:1020A800CAE5A7A2E4500FE5A1A2E4500953A7EF9F
:1020B80075A1EF1220F6E5A7A2E5500CE5A1A2E56F
:1020C800500653A7DF75A1DFE5A7A2E15009E5A1F6
:1020D800A2E1500375A1FDE5A7A2E2500CE5A1A27B
:1020E800E2500653A7FB75A1FB7F0102192974F87A
:1020F8001217DE7521019003A2E0640670077A00CA
:102108007B00120D34A2AFE433FED2AF9003A8E0F7
:10211800640170187A207B009003A1E0F912111273
:102128007A207B009003A1E0F912108E906182E082
:10213800D2E6F0900541E0602185C6228016900322
:10214800A7E064017008E5C654F84405F5C653BE17
:10215800FC121ED47401652160E4EEA2E092AF7F08
:102168000102188A8E238F24858228858327851962
:1021780082851A83E0CEA3E0CF852882852783EB6A
:10218800C9EAC8EDCBECCA75F010C3E833C8E93327
:10219800C9EA33CAEB33CBC3EA9EF526EB9FF52594
:1021A800B35004AB25AA26EC33CCED33CDD5F0DA09
:1021B800AE23AF242274E91217DE74FA12171AEA52
:1021C800FEEBFF8C088D099003A2E024F7C3940569
:1021D80050067510010222E8120CAA8A0A8B0BEA33
:1021E800450B70030222E5120D6A8A0C8B0D120D45
:1021F8006AEA650C7003EB650D60ECEEFCEFFD859B
:102208001982851A83AA82AB83120D70850A82858A
:102218000B83A3A3780C1215EA908FBD780C1215C6
:10222800C4851982851A8378141215EA908FBD78AF
:10223800141215C4780C79141213FD501F780C79F8
:102248001412159C908F61780C12141D4047850C50
:1022580010850D11850E12850F138045908F6185AD
:1022680014108515118516128517137810790C121C
:10227800159C781012141D501C75100075110075EE
:1022880012007513017810791412159C7810790CC6
:10229800121563800C751001751100751200751305
:1022A8000074097810121544908FB5780C1215EA4D
:1022B8007810790C1214BC9003A2E06408600AE05C
:1022C80064066005E064057020908F65781012142C
:1022D8001D5016908F697810121576800C751000B5
:1022E80075110075120075130085088285098378B9
:1022F800101215F974061217307F1002188A74F735
:102308001217DE120D8290053FE064017010906292
:1023180045E4F0A3F053F4F343FE0C5390F3120D8D
:1023280022E5C654804449F5C6E59E547F64497049
:10233800F8906185740FF090053DE0F47002A3E019
:10234800602C75080175090090053DE078081217A2
:1023580007E508F4FAA3E0600814600A14600C802A
:102368000DEA52808008EA52908003EA52A0790070
:102378007F0202188A74F71217DEE9FEEAFF740179
:102388006E700C7A807B009003A1E0F9121088909F
:102398002710E493F46008E493F9120AEE800953D5
:1023A800C680E59E547F70FA120D2890053FE064C0
:1023B800017003120B2490053DE0F47002A3E06065
:1023C8002A75080175090090053DE078081217077D
:1023D800AA08A3E0600814600A14600C800DEA42A1
:1023E800808008EA42908003EA42A0120CAA8A0878
:1023F8008B09A808A909E8496017E5E170FCE824F9
:1024080014F582E93400F583E0F874FF6860028807
:10241800E174016F700A7A019003A1E0F91210DCEF
:1024280002237874F11217DE8A088B098C0A8D0B47
:10243800908FBD78081215C4740F121766780C12A5
:1024480015EA908FBD780C1215C47808790C121310
:10245800FD908F6150107808790C12159C7808123D
:10246800141D4014800E780C790812159C780C12F3
:10247800141D50047901800279007F0802188A74BB
:10248800ED1217DE8A088B098C0A8D0B908FBD78A8
:10249800081215C47413121766780C1215EA908F77
:1024A800BD780C1215C4780C79081213FD40117808
:1024B80008790C12159CAA08AB09AC0AAD0B80224E
:1024C8007510007511007512007513017810790CDC
:1024D80012159C78107908121563AA10AB11AC126A
:1024E800AD137F0C02188A908FBD78081215EA8AFE
:1024F800828B8378081215D77F0402188A74F51224
:1025080017DE8C828D8378081215EA8A828B83788D
:10251800081215B0122559C3E098F0A3E0991225C6
:102528004B401E908F9178081215EA8A828B837827
:10253800081215898E828F83E02420F0A3E0344EA0
:10254800F080A4F08E828F83C3E09420A3E0944EA1
:1025580022EA2404F8EB3400F9E8FEE9FF8C828DC6
:1025680083A3A3A3A3E0F8A3E0F98E828F83227448
:10257800F51217DEE9FE9004F7E0FAA3E0FBEEC3DC
:1025880033F8E433F974E728F582748E39F583E07B
:102598002AF508A3E03BF5097808121985908FC938
:1025A80012160812216C74021217308A088B098CD3
:1025B8000A8D0B7410780812152BAA08AB097F0432
:1025C80002188A74F11217DE8A0C8B0D8C0E8D0F8F
:1025D800740F121766E0FAA3E0FB7411121766E095
:1025E800F508A3E0F5097808121985EA2401F50829
:1025F800EB3400F509E4F50AF50B780C79081214A8
:102608003C908F7578081215EA780C790812143CFA
:10261800AA0CAB0DAC0EAD0F12216C740212173060
:102628008B09EA450960047A0180027A00EC2AFCE9
:10263800ED3400FD7413121766E0F8A3E0F9E8FE24
:10264800E9FFECF8EDF97A717B0212168F88088998
:1026580009E4F50AF50B8E828F8378081215F9ECD8
:10266800F8EDF97A717B0212168F8A088B097405C6
:1026780078081217078E828F83A3A3A3A3E508F017
:10268800A3E509F07F0802188AC082C083E9906038
:1026980000F0D083D08222C2AF02000022C0E074D2
:1026A800F21218CAA2AFE433FED2AFE589A2E15014
:1026B8000312127A758900C2C5751B00EEA2E0925A
:1026C800AF7F01021929C0E074F21218CAA2AFE460
:1026D80033FED2AFE58BA2E0500312127A758B005D
:1026E800C2E880D5C0E0C0D0E8C0E0E9C0E0E5A815
:1026F800D2AFC2C7751B00A2E7A2E792AFD0E0F93C
:10270800D0E0F8D0D0D0E032FFFFFFFFFFFFFFFF9F
:10271800C082C083E99009FEF00229A774F7121756
:1027280072E99002E1F07C197D037AFF7BFF1208C1
:10273800309002E274FFF0A3F0A3E4F0A3F079056F
:102748001207B89002E1E0F91206DA7A4E7B081215
:1027580009F87F0102184474F41217728A088B0969
:10276800EB548060309002E1E0F91210708A0A8B15
:102778000BAE0AAF0BEE4F60138E828F83E064B00E
:1027880070031207D0EEFAEFFB12105EAA08E509F3
:102798006480FB80047A007B0002297674F21217A9
:1027A8007274FC12171AEAFEEBFFEE4F60387402DF
:1027B800121766EEF0A3EF122BDBECF0A3ED122B51
:1027C800DBAA82AB831206D4E9F50870737412127F
:1027D800176612378FE50A450B60658E828F831264
:1027E8002852EE4F700575080280557A067B001254
:1027F80010C48A0C8B0DA80CA90DE8497005750842
:1028080013803D88828983E412285CA3A3EEF0A399
:10281800EF123C28E50AF0A3E50BF09002E7122836
:10282800E49002E76017E0FCA3E08003EAFCEBFD1C
:102838008C828D831228E470F38C828D831236B4D7
:10284800A9087404121730023E2AA3A3A3A3E0FE2A
:10285800A3E0FF22F0A3F0888289832274F2121782
:1028680072890AE975F017A4FEAFF09002E6E4F069
:102878009002E41228E4600A1210CA9002E4E4F01C
:10288800A3F0EEFAEFFB1210C48A088B09EA450997
:10289800602FEEFCEFFD790012104C9002E4E50881
:1028A800F0A3E509F07B0080081228CEE4F0A3F03D
:1028B8000BEBC3950A40F2E50A9002E6F079008036
:1028C800027913023E2AEB75F017A4F8A9F09002DA
:1028D800E4E028FAA3E0398A82F5832212344AEA2E
:1028E8004B2274F4121772750800750900740C12E3
:1028F8001766123BFCFEE9FF800CE5082401F50889
:10290800E5093400F509C3E5089CE5099D503285C1
:10291800080A85090B7403780A121707EA250AF8CA
:10292800EB350BF988828983A3A3A3A3A3A312374A
:102938008FEE650A7003EF650B70BFE8FAE9FB805C
:10294800047A007B00802774F41217727900EAA2D7
:10295800E0501B75084675098F78081219857C04A4
:102968007D007A007B0A1207B274021217307F04C6
:10297800021844C082C0839002E71229AE601C8806
:10298800828983A3A3E06A7003A3E06B88828983AA
:1029980070E8A3A3A3A312344680047A007B00D076
:1029A80083D082020132123EFDE8492274EE1217EA
:1029B8007274FC12171AEAFEEBFF851982851A83D6
:1029C800E4F0A3F0EE2402123698EE2405122BC987
:1029D800EE2404F50EEF122FAEE024FE603924FC3D
:1029E800604624FE605224FE605E24FE7003022AC4
:1029F800CE24FE7003022B4624FE7003022B5524BE
:102A0800FE7003022B6424FC7003022B7324FE70F7
:102A180003022B82022BBF9003007417F0A3E41269
:102A28002BE3120452022BBF851982851A83AC82CC
:102A3800AD831207D6022B8F851982851A83AC8243
:102A4800AD831207DC022B8F850C08850D097402F3
:102A5800121766AC82AD83850882850983123446D5
:102A68001206F88A0C8B0DAC0CAD0DEC4D6042E4EF
:102A7800F50CF50D780C121985750C00750D037899
:102A88000C121985750C01750D03780C12198574D3
:102A98000812176612199C79161234401208187415
:102AA80008121730E9F50C700B12343C12046A80D6
:102AB8000F750C01850882850983122BD11236B453
:102AC800850C08022B927402121766AC82AD8385BE
:102AD8000C82850D831234461206F88A108B11ACCD
:102AE80010AD11EC4D6043850C82850D83A3A312B4
:102AF800199C75100075110378101219857510014D
:102B08007511037810121985740812176612199C2A
:102B180079161234401208187408121730E9F509AA
:102B2800700B12343C120470800F750901850C82F9
:102B3800850D83122BD11236B4850908804C85196E
:102B480082851A83AC82AD831207E2803A851982A6
:102B5800851A83AC82AD831207E8802B851982859C
:102B68001A83AC82AD831207EE801C851982851A00
:102B780083AC82AD831207F4800D851982851A8390
:102B8800AC82AD831207FAE9F508E50860298E8260
:102B98008F83A3E06414601F850E82850F83E09005
:102BA8000300122BDB123EF99003011236B4E5083C
:102BB800A3122BE312044CEEFAEFFB120776023550
:102BC800A0F50CEF3400F50D22123EFD8519828523
:102BD8001A8322F0851982851A8322F07C007D03EE
:102BE800850A82850B8312344A2274EE1217727496
:102BF800FC12171A8A0A8B0B8C0E8D0FEA2405F526
:102C080008EB3400F5097C157D0079007A007B0318
:102C180012104CE5082402F50CE509122BCC851995
:102C280082851A838582108583117810121985850B
:102C38000882850983A3A3A3A31230F6121985E598
:102C4800082405F510E5093400F5117810121985E6
:102C5800850C82850D831234501206F27406121701
:102C6800308A108B11AE10AF11E50A2402F50AE57F
:102C78000B12369BEE4F7003022DB88017740212A8
:102C8800176612344688828983EAF0A3EBF0900332
:102C980000E004F0900300E0C394054003022DB85F
:102CA800E4F510F51178101219857510E9751102FF
:102CB80078101219857510EA7511027810121985A5
:102CC800740612176612199C7910EEFCEFFD123487
:102CD800401208187408121730E9705E850882855A
:102CE8000983A3A3A3A3A3A3A3E0F89002E9E06840
:102CF80070481230F61219857CEA7D02E50824082E
:102D0800FAE5093400FB1210467402121730E96024
:102D1800298E828F83A3A3A3A3123446900300E0D5
:102D2800F5107402781012170774012510F58274D3
:102D3800033511F583EAF0A3EBF0740212176685E8
:102D48008210858311781012198574021217661281
:102D5800199C850C82850D83123F0E1206FE7404A1
:102D68001217308A108B11AE10AF11900300E0F5E6
:102D7800107511007402781012170774002510F8E6
:102D880074033511F988828983A31228E470030239
:102D98002C7CE82403F8E93400F9EE4F6003022C98
:102DA800858882898374FFF0A3F0900300E004F023
:102DB800900300E0600A12343C12045E7900800B34
:102DC8008508828509831236AB790A0235A074EA30
:102DD80012177274FE12171A8C128D13EA2405F555
:102DE8000CEB124078122856750800750900EA2481
:102DF80002F510EB3400F511851982851A83858256
:102E08000A85830B780A121985850C82850D83A3A0
:102E1800A3A3A3122FB8121985E50C2405F50AE51A
:102E28000D12369B780A121985850C82850D83123E
:102E38003F0C1206F274061217308A0A8B0BEA4509
:102E48000B7003022F69EA2404F50EEB122FAE1261
:102E580028568A828B83A3A3A3E0F9851082851163
:102E6800831234461206E0E9F5096003022F69E48B
:102E7800F514F51578141219857514E97515027885
:102E8800141219857514EA751502781412198574C7
:102E98000612176612199C7913AC0AAD0B851082BD
:102EA8008511831234461208187408121730E9F590
:102EB800096003022F699002E9E0F8E5087009E06B
:102EC8002402900301F08017900301E0FCE824023B
:102ED800FAE43400FBEA6C7001EB6003022F6D85A5
:102EE8000882AA821230ED94141230E55073850ED0
:102EF80082850F83E0C0E074022A122FA5D0E0F08B
:102F08000508850E82850F83A3E0C0E085080A7452
:102F180002250A122FA5D0E0F005089002E9122F29
:102F2800B81219857CEA7D0285080A7402250AFA16
:102F380074033400FB12103474021217309002E943
:102F4800E02508F50874FF6E700374FF6F6012EED9
:102F580024010EEF3400FFE508C394145003022E39
:102F680000E508601312333185108285118312340D
:102F78004612046479008014E509700375090A850E
:102F88001282851383EEF0A3EFF0A90974021217D9
:102F9800307F0E02184485080C7402250CF58274E3
:102FA800033400F583223400F50F850E82F5832261
:102FB800123C3B2274EE12177274FE12171A8C0E12
:102FC8008D0FEA2405F50CEB122BCC750B00900342
:102FD80000E4F0F50AEA2402F508EB3400F509806C
:102FE80049900300E0FA9002E9E0F81230ED9417F6
:102FF8001230E5400D900300E0F87416C398900273
:10300800E9F01230F61219857CEA7D0274012AFA79
:1030180074033400FB12103474021217309002E962
:10302800E0F8900300E028F0050AE50C2416F58284
:10303800E50D122FA9E0F8E50AC39840030230CE47
:10304800900300E0C39416507DE50AC333F8E433D7
:10305800F9E50C28FEE50D39FF851982851A83AC40
:1030680082AD838E828F831234461206F88A108BC3
:1030780011AC10AD11EC4D7005750B018043E4F5F2
:1030880010F51178101219857510E975110278106C
:103098001219857510EA75110278101219857406CF
:1030A80012176612199C79168508828509831234CD
:1030B800461208187408121730E9F50B7003022F2E
:1030C800E91236A780107C007D0385088285098374
:1030D800123446120476A90B74020235A2E9940050
:1030E800C365D03322EA28F8E43400F9E822E0F591
:1030F8001075110078102274EA12177274FC1217F6
:103108001A8A0C8B0D8C128D13EA2405F50AEB1222
:10311800369B750800750900E50A2402F510E50BD1
:103128003400F511740212176685820E85830F78B4
:103138000E121985850A82850B83A3A3A3A3123BCC
:10314800E7121985E50A2405F50EE50B3400F50F9D
:10315800780E1219858510828511831236A11234D2
:10316800401206F274061217308A0E8B0FAE0EAF9D
:103178000FE50C2402F50EE50D3400F50F804088AC
:1031880082898374FFF00508122F9E74FFF00508EA
:103198009002E9E0F50C750D00780C1219857CEAAF
:1031A8007D0285080C7402250CFA74033400FB12A6
:1031B800103474021217309002E9E02508F508EE81
:1031C8004F60718E828F83A3A3A3E0F9850E828559
:1031D8000F831234461206E0E9F509EE2404122B97
:1031E800C9E97044E4F514F51578141219857514B5
:1031F800E975150278141219857514EA751502789F
:1032080014121985740812176612199C7911EEFCAC
:10321800EFFD850E82850F83123446120818740854
:10322800121730E9F5096027850C82850D83123362
:10323800271236B4E508700302330D123331850EB8
:1032480082850F8312344612047C7900023322856A
:103258000882AA82EA9002E97009E0240490030136
:10326800F08022E0F8900301E0F514E82404FCE47F
:103278003400FDEC65147001ED70C01230ED94124D
:103288001230E550B6850C82850D83E0C0E07402EB
:103298002A122FA5D0E0F00508850C82850D83A39E
:1032A800E0C0E0122F9ED0E012334385820C858364
:1032B8000D780C121985740412176612199C851062
:1032C80082851183123F0E1206FE74041217308A8B
:1032D8000C8B0DAE0CAF0D85080C7402250CF87420
:1032E800033400F9EE4F7003023187851982851A7D
:1032F80083E088828983123343A3E0C0E0122F9EC3
:10330800D0E0023195E509700375090A850A8285BE
:103318000B831233271236B4A9097404022F9612AC
:103328003EFD85128285138322900301E0F5F0E5C6
:103338000884900300F07C007D0322F005088519BD
:1033480082851A832274EC12177274FE12171A8A75
:10335800088B098C0E8D0FEA2405FEEB3400FF85DF
:103368001982851A83AC82AD838E828F831234468C
:103378001206F88A0A8B0BEE2418122BC9EA450BA1
:1033880070030234171235895032851982851A83E1
:1033980012344612080C8A108B11EA4511606B79B9
:1033A80012AC0AAD0B850882850983123446851054
:1033B80082851183121770E9F50A7058E4F50AF549
:1033C8000B780A1219858E828F83A3A3E0F50A78F9
:1033D8000A121985EE2403123698780A1219858E76
:1033E800828F8312345012081E7406121730E9F5C2
:1033F8000A7021850C82850D83E0701F85088285FF
:1034080009831234461204828011750A0E800975E8
:103418000A018004E50A60031236A7850C82850D2F
:1034280083E0600479008002A90A74021217307FD1
:103438000C0218447C007D03850A82850B831234B4
:103448004A22E0FAA3E0FB22E0FCA3E0FD85088223
:1034580085098312344A2274EE12177274FE121709
:103468001A8A088B098C0C8D0DEA2405FEEB3400B2
:10347800FF750E00851982851A83AC82AD838E8212
:103488008F831234461206F88A0A8B0BEA450B70B2
:10349800030235751235895035851982851A8312CC
:1034A800344612080C8A0E8B0FEA450F605E7912BB
:1034B800AC0AAD0B850882850983123446850E82D5
:1034C800850F83121770E9F50E60030235788508B9
:1034D8008285098312378FAA0AFB1208008A108B8B
:1034E80011A810A911E849701E7AFF7BFF12080085
:1034F8008A108B11A810A911E849606C8882898309
:10350800E50AF0A3E50BF0750A008007750E0E803A
:103518005F050A9002E6E0FAE50AC39A504AE50A0E
:1035280075F017A4FAABF088828983A3A3E02AFA7E
:10353800A3E03BFB8A828B831236A1EC4D70D275D7
:103548000A17750B00780A121985EEFCEFFD1210A8
:10355800347402121730EEFCEFFD8508828509836A
:103568001234461204888014750E098003750E0102
:10357800123EF5850C82850D831236B4A90E0230F1
:10358800E0E5082402F508E5093400F5098A828B8C
:1035980083A3A3A3E0A2E52274041217307F0A02D2
:1035A800184474EC1217728C108D11EA2405F50C6E
:1035B800EB122BCC750F00EA2402F50AEB12369BAE
:1035C800850A82F5831234461208008A088B09EAB4
:1035D8004509700302368D750E008071850C828551
:1035E8000D83E06401704F8E828F83A3A312199C10
:1035F8008E828F83A3A3A3A3E0F51275130078121C
:10360800121985EE2405F512EF3400F5137812121D
:10361800198512344012081E7406121730E9F50F86
:103628006014850C82850D83E4F0123EF5851082C6
:103638008511831236B47C177D007900EEFAEFFB12
:1036480012104C8E828F83E4F0A3F0050E9002E6F0
:10365800E0F8E50EC398501EE50E75F017A4F8A91A
:10366800F0850882850983A3A31240821236A1EC53
:103678004D60030235E485088285098374FFF0A351
:10368800F0E50F700612344012048EA90F02343789
:10369800F50AEF3400F50B22A3E0FCA3E0FD228E2F
:1036A800828F83123EFD850E82850F83E8F0A3E9A1
:1036B800F022C082C0839002E2E06A7003A3E06B4C
:1036C80070067AE27B0280047A007B000229A7C098
:1036D80082C08378008C828D83E06A7003A3E06BDC
:1036E8007010E875F003A4F8A9F0EC28FAED39FB9E
:1036F8008015088C828D83A3A3A3E06A7003A3E0DE
:103708006B60DF7A007B000229A774F61217721229
:1037180007CA8A828B83E582458370067A007B001C
:103728008007A3A3A3A3123446023DA674F212177E
:1037380072E9FE740E12176612378F74101217662C
:10374800123C078C828D83E064027036A3123F031B
:10375800F50CA3E0F9A80C74026870037429697069
:1037680021750C02750D00780C121985780812194C
:1037780085780A121985EEF9120842740612173074
:1037880080027901023E2AE0F50AA3E0F50B2274D3
:10379800E812177274FB12171AE9851982851A83C1
:1037A800F08A168B17ECFEEDFF751000741D1217CA
:1037B80066123EF9741D1217661236B48E828F8314
:1037C800A3A3A3E0A2E4502D741D12176612344679
:1037D80012080C8A828B83E58245837003023BD8EA
:1037E800790AEEFCEFFDAA16AB17121770E9F5106F
:1037F8006003023BDB741F121766123C0774211228
:10380800176612378F7423121766E0F50EA3E0F5DA
:103818000F8E828F83E064026003023B86A3123E10
:10382800F9850882850983A3858212858313EE248E
:1038380006122BC988828983E0FAA3E0F9EA2400FA
:10384800F514E439F5157814121A0F01000028014F
:10385800287B380700022840390328AD380029772B
:103868003A0129A23A0229433A0329773A0429213D
:103878003B863BE50E450F6003023B81850C828544
:103888000D83123BFCFAE9FB8A828B83E0850A826E
:10389800850B83123C321219858A828B83A3E0FC44
:1038A800A3E0023B0BE50E450F6003023B81850A4E
:1038B80082850B837401F0123C0F85088285098389
:1038C800F07C007D008E828F83A3A3A3A3E0240154
:1038D800FAA3E03400FB1206F8EA4B60418A828BB7
:1038E80083E02402F8850A82850B83E028F0EA2425
:1038F80004F8EB3400F988828983E0851282851305
:1039080083123C44123C321219858A828B83123608
:10391800A0E5082403FAE5093400FB023B10850AF8
:1039280082850B83E02404F07C047D007900AA12D0
:10393800AB1312104C023BDBE50E450F6003023B54
:1039480081123C0FFEA3E0FF850A82850B83740475
:10395800F0EE850882850983F0EF8512828513834E
:10396800F07403121766AC82AD83EEFAEFFB120611
:10397800F88A0C8B0DEA450D7003023A248A828B73
:1039880083A3A3122852740112176685820E8583B9
:103998000F780E121985740512176612199C7CFF90
:1039A8007DFF1206FE74041217308B0FEA450F7064
:1039B80033850C82850D83123BE7121985850C82AD
:1039C800850D83A312199C7C027D007AE97B8F12F6
:1039D800052A7404121730E9700A74011217667404
:1039E800FFF0A3F08E828F83E064027039750C02B9
:1039F800750D00780C1219858E828F831236A0E51A
:103A0800082404FAE5093400FB1210347402121772
:103A180030850A82850B83E024028009740112171D
:103A280066EEF0A3EFF07401121766123BF8F0741B
:103A380001121766A3123BF0023B7BE50E450F60AF
:103A480003023B81850C82850D831236A1AA16AB31
:103A580017120836850A82850B837402F0EA8508F6
:103A680082850983F0851282851383EB023B7EE50C
:103A78000E450F6003023B81123C0FF8A3E0F98565
:103A88000A82850B837402F0E8850882850983F031
:103A9800E9851282851383023B7E850C82850D831E
:103AA80012344612102EEAFC8C82A882C3950EE4CA
:103AB800950F405FE8650E7002E50F70047C00808A
:103AC80022851982851A83E0FAE50E2AFAE50F3471
:103AD80000FBC3EA98EB94005003E08005E50ECCA8
:103AE800C39CFCEC850A82850B83F08C0A750B005D
:103AF800780A121985850C82850D83E0250EFCA3B2
:103B0800E0350FFDAA08AB09121034740212173001
:103B1800023BDB751007023BDBE50E450F705A854B
:103B28000C82850D83123EF9850A82850B83740702
:103B380012285E123BF012285EA3E08512828513DC
:103B480083F0E82402FAE93400FB8A828B83123B73
:103B5800F0123C1F123BF8A3123C28123C01F0E87B
:103B68002405F8E93400F988828983123C01A312FC
:103B78003C44A3A3A3A3F0805A75100B8055741D71
:103B88001217661234461207CA8A828B83E5824569
:103B980083603D123EF9880C890DE8450D60317847
:103BA8000E121985780A1219857808121985740673
:103BB800121766E0F9EEFCEFFDAA16AB17850C822A
:103BC800850D831217707406121730E9F5108003FB
:103BD80075100EA91074051217307F10021844E0F2
:103BE800F50E750F00780E22E0850882850983227C
:103BF800123C4E22123EFDE822123C4EA3A322E0C4
:103C0800F508A3E0F50922850C82850D83E0F8A369
:103C1800E0F5838882E022A3A3F08A828B83A32223
:103C2800F088828983A3A3A3A322F08A828B8312BC
:103C38003C3B22E0F50A750B00780A22F08882895D
:103C480083A3123C4E22E0850882850983A3A32220
:103C580074EE12177274FE12171A8A0A8B0BECFA9A
:103C6800EDFB7414121766E0F510A3E0F511741655
:103C7800121766E0FE7418121766E0F50EA3E0F559
:103C88000F851982851A83AC82AD831206F88A0CD7
:103C98008B0DEA450D6049851982851A83123446D1
:103CA8001207CA8A828B83E5824583602FA3A312F9
:103CB8003C07E50845096024780E1219857810122A
:103CC8001985EEF9AC0CAD0DAA0AAB0B85088285F7
:103CD800098312177074041217308006790E800257
:103CE80079010230E074F612177274FE12171A7412
:103CF8000C121766123BFC851982851A83F0740131
:103D0800121766E9F0E4F508F509780812198575BF
:103D180008027808121985740412176685820885C6
:103D28008309780812198512081E74061217307450
:103D380002121730806874F7121772EAFEEBFF89D7
:103D4800087C197D03120836EA5402600BA908EEB4
:103D5800FAEFFB1206EC8002790102275A74F61278
:103D6800177274FF6A700374FF6B70168C828D83F0
:103D7800123DABE4F08C828D83A3A3A3123DABA3C9
:103D880080181208068A088B09A808A909E849605A
:103D98000D8882898374FF12285CA3A3E4F07F0254
:103DA80002184474FFF0A3F08C828D83A3A32274BD
:103DB800F61217721208068A828B83E582458360A1
:103DC80006A3A3E0FA80027A007B0080D174F21285
:103DD80017728A088B09ECFEEDFF740E121766E065
:103DE800F50A1208068A0C8B0DA80CA90DE8497073
:103DF80026EEFCEFFD7AFF7BFF1208068A0C8B0D7E
:103E0800A80CA90DE8497004791180168882898365
:103E1800E508F0A3E509F088828983A3A3E50AF001
:103E280079007F0602184474EE121772EAFEEBFF5F
:103E38008C088D09890C7414121766123EF97416D1
:103E4800121766123446750D00E8496003023EED0C
:103E58007402650C6003023EE87412121766123F82
:103E680003FCA3E0F9EC2400F50EE439F50FEAF4BD
:103E7800F8EBF4F9EC58F8E50F59F9E849705CE506
:103E8800082406F8ED3400F9880A890B8882F5833E
:103E9800123F0E1208368A108B11E50E6510700459
:103EA800E50F65116042780E121985850A82850B27
:103EB80083123F0E12083C7402121730E9F50D7098
:103EC80027780E121985850882850983A3A3123FD6
:103ED8000C1208547402121730800D750D8080087A
:103EE800750D0D8003750D0BA90D0235A58E828FFA
:103EF80083123EFD22E0F8A3E0F922123EFD8882FB
:103F08008983E022A3A3E0FCA3E0FDEEFAEFFB2205
:103F180074E812177274E712171A851982851A83C2
:103F2800EAF0A3EBF08C168D17890E750800750959
:103F3800007431121766E0F512A3E0F5137433121A
:103F48001766E0F514A3E0F5157435121766E0F569
:103F58000FE50975F003A4F8A9F0851982851A837D
:103F6800124082E0F47003A3E0F47003024065EEAF
:103F78002402F50CEF124078E070030240658516C4
:103F88000A85170B780A121985AC14AD15AA12AB5D
:103F9800131207BE74021217308A0A8B0BEA450BFC
:103FA8007003024065E4F510F51178101219857454
:103FB8000612176685821085831178101219857488
:103FC8000912176685821085831178101219858564
:103FD8001282851383A3A3A3A312199C7914AC0A94
:103FE800AD0B8E828F83123446120818740812178C
:103FF80030E97069850A82850B83A3A3A3A3123EC7
:10400800F974021217661236B4850C82850D83E0A6
:10401800A2E05018A90E7402121766AC82AD838E06
:10402800828F83123446120710E94208850C828574
:104038000D83E0A2E15026E50FF50A780A121989E6
:10404800A90E7403121766AC82AD838E828F831219
:10405800344612070A7401121730E942080509E5C7
:1040680009C394025003023F59A9087419023BDF9F
:104078003400F50D850C82F58322E028FEA3E03993
:10408800FF8E828F832274F2121772EAFEEBFF8989
:104098000B7401650B600E7402650B706A7901126E
:1040A8000A16E97062EEFAEFFB1208008A088B091B
:1040B800EA45096047750A00800B7C177D00790086
:1040C80012104C050A9002E6E0F8E50AC398502160
:1040D800E50A75F017A4F8A9F0850882850983A375
:1040E800A3E028FAA3E039FB8A828B831229AE70F9
:1040F800C985088285098374FFF0A3F07C197D03C4
:10410800EEFAEFFB120830023E2A74F21217728A96
:10411800088B09ECFEEDFF740E12176612378F90AC
:1041280009FEE0F4603D7A097B00121058EA4B6002
:10413800328A828B8374B1F0A3E4123C21A3123C2F
:104148001FA3E508F0A3E50912416EEEF0A3EF12F4
:10415800416EA3A3E50AF0A3E50BF09009FEE0F990
:10416800121064023E2AF08A828B83A3A3A3A3A31E
:104178002274F012177274FA12171A890BECFEEDFA
:10418800FF750A008A088B0978081219C9000410FB
:10419800AC43BC41DA41F4410C422A4242426542F6
:1041A8007D429142BB42434354436B438643AC43F5
:1041B800AC43D1427401650B60030243A78E828F22
:1041C80083E0F8C3940340030243A7E8900AEA0295
:1041D80043837402650B60030243A78E828F8312A8
:1041E8004AA9900AEBE8F0A3E90243837401650B3E
:1041F80060030243A71243D440030243A7E8900791
:10420800670243837401650B60030243A78E828FA4
:1042180083E0F8C3940540030243A7E890076802C7
:1042280043837401650B60030243A71243D4400320
:104238000243A7E89007690243837410650B600383
:104248000243A775081075090078081219857A6A5B
:104258007B0712103474021217300243CD740165C3
:104268000B60030243A71243D440030243A7E8901C
:10427800077A0243837401650B60030243A78E82A9
:104288008F83E0900AEE0243837404650B60030297
:1042980043A78E828F83780C1215EA908FC9780C09
:1042A80012141D50030243A790077C780C1215F9CD
:1042B8000243CDE960030243A7120698E97005128C
:1042C80011D2806090080F806E7407650B6003023E
:1042D80043A775080675090078081219858E828F1C
:1042E80083A3AC82AD837402121766AA82AB8312D1
:1042F800103A74021217307C007D00851982851AE5
:1043080083AA82AB838E828F83E0F9121178E9F554
:1043180008C3940A40030243CA120698E9700CA91C
:10432800081211D87950121358806F74102508F5A7
:104338008274083400F583740180407401650B7041
:104348005E1243D45059E890077B802F7401650BA7
:10435800704D8E828F83E0F8C3940A5042E8900A29
:10436800ED80187401650B70368E828F83E0F874C7
:10437800F928C3940A5028E8900AEFF0804774019E
:10438800650B701B90080EE0F88E828F83E0900812
:104398000EF0E87030E06401702B1211C6802675AB
:1043A8000A188021C3EA9427EB940050157402651B
:1043B8000B700F8E828F83124EA8120536E9F50A0C
:1043C8008003750A02A90A7406024A9E8E828F83A8
:1043D800E0F8C394022274F012177274CC12171A00
:1043E8008C0A8D0B7420121766AC82AD8375838F8F
:1043F800758234740612162D7420121766AC82ADBD
:1044080083121178E9F5087444121766E0FEE9C3CF
:10441800940A400302454C75F006E9A4F509742690
:10442800121766AC82AD837A0E74202509F912132F
:1044380052E970097432121766E0FF80027F00901B
:104448000AEAE06402700474018001E4F50D780D55
:10445800121989EEFDEFFCA908AA0AAB0B1211FC90
:1044680074011217307C147D007900740C121766E1
:10447800AA82AB8312104C740C121766AC82AD83FF
:104488007A1074242509F9121352E9703C7C1079CA
:10449800FF740C121766AA82AB831210ACE970295C
:1044A800741C121766AC82AD837A0474252509F949
:1044B800121352740C121766AC82AD83EFA2E0E4BB
:1044C80033F9AA0AAB0B1205C0851982851A83AC89
:1044D80082AD837A0C74702508F9121352E970536F
:1044E800851982851A83AA82AB831211A8750800E0
:1044F800E50875F003A4F8A9F0851982851A83E503
:104508008228F8E583124CB2124EA2601D88828977
:1045180083A3A3E0F50E750F00780E121985AA0A79
:10452800AB0B12082474021217300508E508C3946F
:104538000440BDEFA2E1500C900766E0F9AA0AAB6F
:104548000B12082A74046E7027900AEAE06402705D
:104558001F7A0090077AE060010A900767E060041C
:10456800780480027800E84AF9AA0AAB0B120680A0
:1045780079007434024A9E74F0121772EAFEEBFF57
:104588008C088D09750A0AE9600C146009146037F3
:1045980014607902462E1211BAE9F50AC3940A404A
:1045A8000302462EE5084509607C750E06750F0066
:1045B800780E121985EEFCEFFDAA08AB091210342B
:1045C8007402121730805F750B00750E06750F00A8
:1045D800780E121985EEFCEFFDE50B75F00EA4F8C8
:1045E800A9F0748828FA740739FB1210467402126D
:1045F8001730E9600C850B0AE50AC3940A50278036
:1046080016050BE50BC3940A501C80BE1211C0E9B5
:10461800F50AC3940A500FE50845096009AA08ABD2
:1046280009A90A1211B4A90A024AA174F41217724C
:10463800890875091574FF6A700374FF6B70277E0B
:1046480000AC087A027B00EEF9121196E960037556
:1046580009000EEEC3940A40E8E50860537AEA7B45
:1046680011120A28804A120A0A8A0A8B0BAE0AAF6C
:104678000BEE4F60387C007D00EE2405FAEF340025
:10468800FB8E828F83A3A3A3A3E0F9121178E9C359
:10469800940A500CAC087A027B0012119675090036
:1046A800E508600CEEFAEFFB1211EA8003750914B5
:1046B800A9098005740E1217307F0402184474F299
:1046C800121772ECFEEDFF750815740E121766E0EE
:1046D800F50AA3E0F50B74FF6A700374FF6B702191
:1046E800750900AC0AAD0BEEFAEFFBA90912119C93
:1046F800E960037508000509E509C3940A503F807D
:10470800E2120A0A8A828B83E5824583602D7C0047
:104718007D00E5822405FAE5833400FBA3A3A3A367
:10472800E0F9121178E9C3940A5013AC0AAD0BEE04
:10473800FAEFFB12119C7508008003750814A9088C
:104748000254E4C082C083900780EAF0A3EBF090A3
:104758000766E0FC7D007A267B0012053690076626
:10476800E0F91207A002533F74F012177274EC12AA
:10477800171AEAFEEBFFEE240CF50CEF3400F50DEA
:10478800EE2405F50EEF3400F50FEE2409F50AEFD7
:104798003400F50BEE2403F508EF3400F5098E829A
:1047A8008F83A3A3E024FA7003024A4224FD700316
:1047B80002495D14700302484914601024FD700317
:1047C800024934147003024991024A9A1256DF6072
:1047D80048E0F5838882124AA9880E890FE8450FB8
:1047E8006037850C82850D83E0F50C780C121989E9
:1047F800EE240BF582EF124C79F9850A82850B833A
:10480800124EA80A0A0AAB09850E82850F83121771
:10481800707401121730024A9A850A82850B831236
:10482800199C90077C1216081205D27402121730D0
:10483800E97003024A9A7901850A82850B83024A44
:104848000D8E828F83A385820A85830BE060030225
:104858004917850E82850F83E0A2E04003024917BD
:1048680090081A1256E260030249177C0E7D0079FF
:1048780000851982851A83AA82AB8312104C850C95
:1048880082850D8312530AEA4B6010750C06750D6C
:1048980000780C121985EA2410801B125304120A9E
:1048A8000AEA4B7003024A9A750C06750D00780CDB
:1048B800121985EA2405FCEB3400FD740212176610
:1048C800AA82AB831210347402121730850E8285C7
:1048D8000F83E0A2E25004D2F08002C2F0A2F0E41A
:1048E80033F8740C121766E048F0EEFCEFFD8519FA
:1048F80082851A83AA82AB831211AEE970117A02FB
:104908007B00900766E0F91210887900024A9C1231
:1049180056DF7003024A9A124AAF7003024A9A8518
:104928000A82850B83E0FC7901024A361256DF7051
:1049380003024A9A124AA6890BE8450B7003024AF9
:104948009A8E828F83A3E0FC7902125304888285B1
:104958000B83024A3D7C007D00EE2404FAEF34000C
:10496800FB850882850983E0F9121178E9F8C39478
:104978000A4003024A9AEE240AFCEF124E7EE8A48B
:104988002425F912134C024A9A12530490077BE02B
:104998006007900AEDE0F9806F900AEAE070047908
:1049A800058065120A0A8A0C8B0DA80CA90DE8244B
:1049B80004F50CE93400F50D8E828F83A3A3A3A31D
:1049C800A3A3A3E0A2E05046E8497003024A9A85EF
:1049D8000C82850D83E0FE6035850A82850B83E0B5
:1049E8005410702A740E121766AC82AD83E8240541
:1049F800FAE93400FBEEF9121178E97011790385B0
:104A0800088285098312530A1205CC024A9AAC0E11
:104A1800AD0F850C82850D83E0F91253041211F64F
:104A28001256DF606D124AAF60687C00790012533D
:104A3800048E828F831217708058120698E970527C
:104A480090080FE0640170151211D290080FE4F07D
:104A58007C0AFDF97A107B0812104C802D750A002B
:104A6800850A0874102508FE74083400FF8E828FAA
:104A780083E06401700BA90A1211D88E828F83E437
:104A8800F0050AE50AC3940A40D679501213581261
:104A980011C6790174141217307F08021844124A9B
:104AA800BEE0F8A3E0F922124ABEE0F8A3E0F9E874
:104AB800FEE9FFEE4F22E0F5838882A3A32274F477
:104AC80012177274F212171AEAFE8C0B75F006E9C7
:104AD800A42420F508851982851A83AC82AD837ACF
:104AE8000EF9121352E970577C0679FF85198285F1
:104AF8001A83AA82AB831210ACE97043740C1217A4
:104B080066124AA9E8F509E50B6005EE420980043A
:104B1800EEF45209850982AA82E86A7001E9601BED
:104B2800740C121766EAF0A3E4F0851982851A83DB
:104B3800AC82AD837A0EA90812134C7901800279F0
:104B4800000246BC74F212177274E612171A890A28
:104B58008A088B09ECFEEDFF740C121766AC82AD67
:104B6800837A0E75F006E9A42420F9121352E9603D
:104B780003024C6C7C0679FF740C121766AA82AB90
:104B8800831210ACE96003024C6C7470250AF50BB3
:104B9800851982851A83AC82AD837A0CF912135277
:104BA800E96003024C68851982851A83AA82AB835F
:104BB8001211A8E5084509702C7C0C79008519822A
:104BC800851A83AA82AB831210ACE96003024C6891
:104BD8007C0C7D007900851982851A83AA82AB83B3
:104BE80012104C805D851982851A83AC82AD83AA28
:104BF80008AB091211A28A0C8B0DA80CA90DE84963
:104C08007028EE4F605E851982851A83AC82AD8369
:104C18007A007B001211A2EAF8EBF9EA4B604588AA
:104C2800828983E508F0A3E509F0124C73FAEE6A6D
:104C38007001EF602BEEF04F700888828983E4F0F2
:104C4800A3F0851982851A83AA82AB831211A885DD
:104C58001982851A83AC82AD837A0CA90B12134C86
:104C6800790180027900741A0254E1E82402F5827D
:104C7800E93400F583E02274F71217727F00EF75AC
:104C8800F003A4F8A9F0EC28F8ED124CB2E06A7031
:104C980003A3E06B7006E8FAE9FB800B0FEFC394FF
:104CA8000440DB7A007B0002505D39F988828983F1
:104CB8002274F71217727E00EE75F003A4F8A9F0BB
:104CC800EA28F8EB124CB2E0F4FCA3E0F4FD888289
:104CD8008983ECF0A3EDF0124C73F4F00EEEC3945C
:104CE8000440D502505D74F212177274F412171A48
:104CF800EAFEEBFF8C088D0990081A1256E27051F3
:104D0800EE4F7003024E77EC45097003024E77129E
:104D180011BAE9900AF0F0C3940A4035750B007C8B
:104D28000679FFE50B75F00EA4FAABF074822AFA47
:104D380074073BFB1210ACE96005850B0A800C0573
:104D48000BE50BC3940A40D7750A0AE50A900AF0E6
:104D5800F0900AF0E0C3940A4003024E7775F0061B
:104D6800E0A4FB90081A1256E2706FEEFCEFFD7A91
:104D78000E74202BF912134C7C0C7D0079FF8519D9
:104D880082851A83AA82AB8312104C851982851AF0
:104D980083AC82AD837A0C900AF0E02470F9121388
:104DA8004C750C0E750D00780C121985EEFCEFFD94
:104DB800900AF0E075F00EA4F8A9F0748228FA744D
:104DC8000739FB121034740212173090081AE508DC
:104DD800F0A3E509F07900024E79E0C82406124EE6
:104DE8009B601A7A1B74212BF912134C124E8724DC
:104DF80006F582E83400F583E4F0A380D7124E87E5
:104E0800240A124E9B60107A1B74222BF912134C41
:104E1800124E87240A80DA124E87240C124E9B60A9
:104E2800107A1074232BF912134C124E87240C801D
:104E3800C0124E90124E9B602A7A1074242BF912DD
:104E4800134C124E90F582E8124C792410FCA3E022
:104E5800124E7E900AF0E0A42425F912134C124E4B
:104E680090808E90080EE060031212021211F07901
:104E780001740C0254E13400FD7A0475F0062290A6
:104E8800081AE0F8A3E0C82290081AE0F8A3E0C8DE
:104E9800240822F582E83400F583124EA8EC4D224E
:104EA800E0FCA3E0FD2274F412177274F212171AD0
:104EB800EAFEEBFFE9C3940A5004EE4F700479024E
:104EC800803E851982851A83AC82AD837A0E75F08F
:104ED80006E9A42420F9121352E9F5087020750A8E
:104EE80006750B00780A1219857402121766AC82CF
:104EF800AD83EEFAEFFB1210347402121730A908D2
:104F08000246BC74F4121772EAFEEBFF75080075CE
:104F18000A06750B00780A121985EEFCEFFDE50804
:104F280075F00EA4F8A9F0748228FA740739FB12F8
:104F380010467402121730E96004A908800B0508AE
:104F4800E508C3940A40C8790A0246C174F71217E3
:104F58007274F012171AEAFEEBFF750800851982C1
:104F6800851A83AC82AD837A1075F006E508A4240F
:104F780023F9121352E9702C7C1079FF8519828568
:104F88001A83AA82AB831210ACE97018EEFCEFFD0D
:104F9800851982851A83AA82AB831205A2E9700457
:104FA800A908800B0508E508C3940A40B0790A747B
:104FB8001012173002505D74F7121772750800E569
:104FC8000875F00EA4F8A9F0748228FE740739FF5A
:104FD800EEFCEFFD7A0E75F006E508A42420F91220
:104FE8001352E9602C7C067D0079FFEEFAEFFB1284
:104FF800104C7C067D0079FFEE2406FAEF3400FBA6
:1050080012104CEE240CF582EF3400F583E4F0A383
:10501800F00508E508C3940A40A590080EE060036F
:105028001212021211F0802D74F71217727E007F8F
:10503800007C0679FFEF75F00EA4FAABF074822AB3
:10504800FA74073BFB1210ACE970010E0FEFC39422
:105058000A40DEEEF97F0102184474F71217727ED7
:1050680000EEF91211D80EEEC3940A5003E960F16C
:1050780080E374F312177274CB12171AE9FE900AC0
:10508800F0E06E701B7A017B00900766E0F9121061
:105098008E7A027B00900766E0F912108E12120ECB
:1050A80075F006EEA4FF74202FF508742712176612
:1050B800AC82AD837A0EA908121352E9600302513B
:1050C800B47C0679FF7427121766AA82AB83121084
:1050D800ACE960030251B47C0E7D0079FF7427129D
:1050E8001766AA82AB8312104C7C1B7D0079FF7473
:1050F8000C121766AA82AB8312104C7C0C7D0079C7
:10510800FF851982851A83AA82AB8312104C7427F3
:10511800121766AC82AD837A0EA90812134CE9F512
:1051280008740C121766AC82AD837A1B74212FF9B0
:1051380012134CE9F509740C121766AC82AD837A28
:105148001B74222FF912134CE9F50A740C12176616
:10515800AC82AD837A1074232FF912134CE9F50B46
:10516800740C121766AC82AD837A1074242FF9126E
:10517800134CE9F50C740C121766AC82AD837A04F3
:1051880074252FF912134CE9FF851982851A83AC0F
:1051980082AD837A0C74702EF912134CE9F8E50984
:1051A800450A450B450C4F4842088003750800A97D
:1051B8000874351217307F0502184474F7121772F5
:1051C800E9900766F01211C602505D74F412177266
:1051D800EAFEEBFF5480700302526B900766E0F919
:1051E8001210708A088B09EA4509607078018A8272
:1051F8008B83E02450603D14600624E1604F8052A8
:10520800A3A3A3A3E0704E8A828B83A3A3A3A3A323
:10521800A3A312199C8A828B83A3A3A3A3A3124ED0
:10522800A88A828B83A3A312530A121184740212D0
:1052380017308021A3A3A3A3E0641E701879008A05
:10524800828B83A3A312530A12117E800812119035
:10525800E9F8E86007AA08AB0912105EEEFAEF64F5
:10526800808065EE540260237C007D007A007B001C
:105278001211AEE960117A017B00900766E0F9121D
:105288001088EE6402803F7A028046EEA2E0503F2A
:105298001252DE12530A121208E9602F1256DF600A
:1052A8001F124AA688088909E8450960137C007915
:1052B800011252DE12530A8508828509831217707B
:1052C80012120EEE6401FAEFFB80087A0180027A6E
:1052D800007B000246C190081AE0F8A3124ABEA358
:1052E800227F02021844C082C083900766E0F98AD0
:1052F800828B83A312530A12082A803B8508828571
:105308000983E0FAA3E0FB22C082C08374FF12176E
:105318001A1211CCE9C39402851982851A834004B4
:1053280074028002740AF0AC82AD837A01790512A6
:1053380006B07401121730D083D08202013274F2A1
:1053480012177274E812171AEAFEEBFF890A8C0822
:105358008D097C187D007900851982851A83AA82B7
:10536800AB8312104C851982851A83EEF0A3EFF0F7
:10537800900768E0C0E07402121766D0E0F090076A
:1053880069E0C0E07403121766D0E0F0900AEFE01D
:10539800C0E07417121766D0E0F07415121766E0B3
:1053A80054FEF8A3E0F9900AEEE0A2E0E433FAE84C
:1053B8004AF874151217661254F0A2E15004D2F09C
:1053C8008002C2F0E854FDFAA2F0E43333F8EA4868
:1053D800F874151217661254F0A2E35004D2F08044
:1053E80002C2F0E854F7FAA2F0E433F50C750D00A8
:1053F8007403780C1217071254E91217661254F046
:10540800A2E45004D2F08002C2F0E854EFFAA2F00D
:10541800E433F50C7404780C1217071254E91217C8
:10542800661254F0A2E55004D2F08002C2F0E854AB
:10543800DFFAA2F0E433F50C7405780C12170712A2
:1054480054E91217661254F0A2E25004D2F0800216
:10545800C2F0E854FBFAA2F0E433F50C7402780CBD
:105468001217071254E9121766E8F0A3E9F090073B
:1054780069E0601D750C10780C1219857C6A7D072F
:105488007406121766AA82AB8312103474021217BC
:105498003090077AE06011E50A6009741512176602
:1054A800E04402F07801800278007414121766E074
:1054B80048F0900767E0600478048002780074146C
:1054C800121766E048F0AC08AD09851982851A8381
:1054D800AA82AB831205C674181217307F06021809
:1054E80044EA450CF8741522E8F0A3E9F0900AEEB6
:1054F800E02274F312177274E512171AEAFEEBFF32
:105508008C098D0A7428121766E0F50C75F006E907
:10551800A4F87408650A700474228002742128F5BE
:105528000B7C1B7D007900851982851A83AA82ABC2
:105538008312104C851982851A83AC82AD837A1B3D
:10554800A90B121352E97032741A121766E024F983
:10555800C3940A5025E50CF50B780B1219897401D0
:10556800121766AC82AD83E509A2E0E433F9EEFADE
:10557800EFFB1205D87401121730741B0251BB746B
:10558800F71217721208A2750800E50875F00EA444
:10559800F8A9F0748228FE740739FF7C0679FFEEBB
:1055A800FAEFFB1210ACE97009EEFAEFFB79001282
:1055B80008A80508E508C3940A40CF02505D74F6B0
:1055C80012177274FD12171AEAFEEBFF90081C12EC
:1055D80056E2703975081E7509087808121985751C
:1055E800080275090078081219857508EF75098F82
:1055F80078081219857CFF7DFF7A017B001206F27C
:10560800740612173090081CEAF0A3EBF090081CFF
:105618001256E270030256C9E4F508F50978081233
:10562800198574041217668582088583097808121B
:10563800198574041217668582088583097808120B
:10564800198590081E12199C790290081C1256D7C9
:105658001208187408121730E97034851982851AEF
:1056680083E0FA7401121766E0F9EA2400F508E409
:1056780039F509EA45096017780812198590081C58
:105688001252E1A31256D71211847402121730E491
:10569800F508F509780812198590081E12199C7CDE
:1056A800FF7DFF90081C12530A1206FE740412179D
:1056B8003090081CEAF0A3EBF090081C1256E27038
:1056C8000479018002790074031217300252E9123A
:1056D8004EA8EEFAEFFB22900780E0F8A3E0F9E885
:1056E8004922C082C08390081A1256E260109008BE
:1056F8001A12530A12105E90081AE4F0A3F0900AE6
:10570800F0740AF002533FC082C083906190740421
:10571800F0A37448F0A3E4F09061807440F09061C5
:10572800BC7407F09061877469F09061B67416F0E4
:105738007900120B127902120B18902710E493F4D7
:105748006006E493F9120AEE7905120E18025B0A54
:10575800C082C083E9540FF9906185E0696012E561
:10576800C654804449F5C6E59E547F644970F8E9FB
:10577800F053C680E59E547F70FA025B0A74F712F4
:105788001772E5A8FE53A87E120AFAC2BA539AFE07
:10579800C289759B00C2C2120B0075A91175B905A3
:1057A800120B06D2BA439A0174805E42A80260A125
:1057B800C082C083906181E4F0A3025B0775E900B1
:1057C80075910075BF00020132C082C0839061816B
:1057D800E4F0A374C0F0A3E4025B09C082C0837440
:1057E800F812171A9003A4126A3A70030258C2906A
:1057F80003A4E0544060237908851982851A83AA96
:1058080082AB83120C0E851982851A83AA82AB8318
:105818001208C69003A4E054BFF0E05480601079E9
:105828000C7A657B05120C0E9003A4E0547FF0E01F
:10583800A2E0500F7900120B121208CC9003A4E0DA
:1058480054FEF0E05402600F7901120B121208CCDA
:105858009003A4E054FDF0E05404600F7900120BAB
:10586800181208D29003A4E054FBF0E05408600F2B
:105878007901120B181208D29003A4E054F7F0E053
:105888005410600F7902120B181208D29003A4E08A
:1058980054EFF0E05420600F7903120B181208D26D
:1058A8009003A4E054DFF0A3E05401600D120B2430
:1058B8001208D89003A5E054FEF0740812173002BD
:1058C8005B0AC082C083E9600514602A804F90613A
:1058D8009A7433F0A37455F09061A0743AF090056F
:1058E8003FE064017009C2919003A67467802D900F
:1058F80003A67461802690619A743FF0A3745AF0ED
:105908009061A0747FF090053FE064017009D29126
:105918009003A6747180059003A6746AF0025B0A6E
:10592800C082C083E9600B14600D14601714600C0A
:1059380080209027148015902715801090053FE04F
:10594800640170059027168003902717E4939061EF
:1059580086F0025B0A74EE12177274F412171A8535
:105968001982851A83AC82AD8375838F7582AD7475
:105978000412162D90271493F46003025A87907826
:1059880008E0C394025003025A677404121766AC05
:1059980082AD8375838F758226740812162DFC7E5E
:1059A800FF7FFF8E0C7D008C8285820E800F74082D
:1059B8006D606D74096D6068740A6D60638D08753B
:1059C800090074027808121707125A911215EAA9E9
:1059D80009E50AC9F888107418780812152BE5101B
:1059E8004508FAE9FBE50EC333F8E433F974041209
:1059F8001766E58228F582E58339125F91C3E89A34
:105A0800E99B4008E8C39AF8E99B8006EAC398F83E
:105A1800EB99F9C3E89EE99F5006E8FEE9FF8D0C73
:105A28000DEDC39413408774FF6E700374FF6F60AD
:105A380024850C0874027808121707125A91121557
:105A4800EA851982851A83E582250EF582E5831297
:105A58006430E508F00CECC3940450030259A775B0
:105A6800080175090078081219857402121766ACC6
:105A780082AD837AC57B09121250740212173074F2
:105A88000C1217307F0A02184474482508F58274EE
:105A9800783509F583780822C082C083906186E052
:105AA800F8902717E493687009902716E49390619B
:105AB80086F09061AE7468F0A3746AF090624574E1
:105AC800FBF0A304F053F4FD43FE0290053F74017C
:105AD800F09061A0E0643A700479008002790112C4
:105AE8000B12025B0AC082C0839004F1E06401706B
:105AF8000A9004F6E06004790C800279008003F0D3
:105B0800A3F0D083D082020132C082C08375E1F154
:105B18009004F4E0604D1460091460511460491455
:105B28007050120B369004EAE0F97AEB7B04120D00
