:020000040000FA
:0600000002011A02206853
:03002B0002272881
:0300330002270A97
:030053000220DEAA
:03006B000226E189
:10008300021F17E5C754F84401F5C77901220000A0
:100093000080FB120086B90003020104E479217891
:1000A30008B800028004F709D8FCE479297802B87B
:1000B30000028004F709D8FCE490028178A879074C
:1000C3008002F0A3D8FCD9FA781B90014A7A01BACE
:1000D30000028007E493A3F608DAF97A287B0990F3
:1000E300014B780279048015E493A3AD82AE838A31
:1000F300828B83F0A3AA82AB838D828E83D8E9D9C6
:10010300E775827B7583A1740312012C7582917547
:100113008300740012012C75D00075813F7519811D
:10012300751A02759F00020096C09FF59FE473D075
:100133009F22D083D082C09FE493C0E0740193C018
:10014300E0740293F59F2201FF0000B40000280031
:100153002800283075A000A000A000A0000008001F
:1001630008E001F000100010001000100010001053
:100173000050005000500010001000D00700000095
:100183000000000F0001000500307507001000019A
:100193000081FF00000000FF4A0668065006FF02C8
:1001A300020208025000A0000000E803029690013A
:1001B300000085900292900100007F0902B2900135
:1001C3000000B3020292900100008009029C90019A
:1001D3000000C9020292900100008109029A900175
:1001E3000000CB0202929001000082090290900865
:1001F3000000CC0202929001000083090288900162
:1002030000008409FF0100FF20029690010000A96D
:100213008F029290010000E809028A90000000001A
:1002230000028C9003000019037A0C7A0C7A0C7A82
:100233000C7A0C7A0C7A0C7A0C7A0C7A0C7A0C7A8B
:100243000C7A0C560F6E0F500FFFFF0202020202D0
:1002530002020202010D000000100102969001004B
:10026300007F900292900100002B0A02AE900100E1
:10027300005D070292900100002C0A02AC9001007D
:1002830000688F0292900100002D0A02AA900100DB
:10029300004D8F0292900100002E0A02A8900100E7
:1002A30000958E0292900100002F0A02A690010091
:1002B30000DD8E029290010000300A02A49001003A
:1002C30000CB8E029290010000310A02A29001003D
:1002D30000B98E029290010000320A02A090010040
:1002E300003F8F029290010000330A029E900100AA
:1002F30000340A01E803053F100AFF0001307503CB
:1003030002010600000000000000000000000000E1
:10031300000000000000000000000000000000FFDB
:10032300FF0600800CE803140953696D706C654285
:100333004C455065726970686572616C05125000B6
:100343002003020A000201060302F0FF53696D70E5
:100353006C6520424C452050657269706865726116
:100363006CD0130000D6130A43686172616374652D
:100373007269737469632031000243686172616357
:10038300746572697374696320320008436861722B
:100393006163746572697374696320330010436821
:1003A30061726163746572697374696320340002F6
:1003B300436861726163746572697374696320353C
:1003C3000002969001000082900292900100004783
:1003D3000B02C0900300001909028E90010000482F
:1003E3000B029290010000590B02BC900100001A0D
:1003F30009028E900100005A0B0292900100006BDB
:100403000B02BA900200001B09028E900100006CDF
:100413000B0292900100007D0B02B8900000001CBB
:1004230009028C900300001D09028E900100007EDA
:100433000B0292900100008F0B02B4900400002382
:1004430009028E90010000900B1201356290031295
:100453000135799003120135AA9003120135E59015
:10046300031201350F91031201353991031201353E
:100473005091031201356791031201357E910312E6
:100483000135A79103120135BA9103120135D091B9
:1004930003120135E391031201350A920312013568
:1004A3000198021201350599021201353D99021294
:1004B30001356099021201356B99021201358E994B
:1004C300021201359D9A02120135729B0212013507
:1004D300ED9B02120135759C02120135B09C02128C
:1004E3000135E79C02120135759D021201354E9EBE
:1004F30002120135AE9E02120135B99E0212013578
:10050300389F021201353B9F021201353E9F0212B2
:100513000135CD9F02120135D09F0212013500A093
:10052300021201352AA00212013518A10212013567
:10053300CAA102120135E2E3021201350AE40212F2
:10054300013538E4021201356FE402120135CDE4BE
:100553000212013518E50212013563E50212013575
:10056300A3E502120135E9E50212013517E602128D
:100573000135D4E602120135DEE602120135EBE65F
:10058300021201351EE702120135EAE702120135B4
:10059300F6E7021201350EE80212013518E80212DD
:1005A3000135C89D03120135D69D03120135EE9D19
:1005B30003120135069E03120135BFB00112013546
:1005C3006BB101120135E6B10112013507B3011216
:1005D300013543B301120135ECB301120135D3B434
:1005E3000112013537B6011201358EB601120135FC
:1005F3000FB701120135FFB7011201354CB80112D3
:100603000135D2B80112013504B90112013518BB05
:10061300011201355ABB0112013578BB01120135B4
:10062300FBBB01120135CFBC0112013597BD01128D
:10063300013598CD021201356BCE0212013514CF6C
:100643000212013567CF0212013517D002120135AC
:10065300A3D0021201358FD102120135BED102128D
:100663000135D1D20212013519D302120135EED36D
:10067300021201352AD40212013546D40212013581
:1006830098A003120135DCF902120135F2F90212C6
:10069300013518FA0212013534FB021201353EFB13
:1006A3000212013573FC021201356BFD0212013592
:1006B300F8D90212013528DB021201355BDB021285
:1006C3000135A5DB021201356CDD02120135D0A024
:1006D300011201353AA10112013599A20112013526
:1006E300A9A201120135D6A2011201352DA30112CF
:1006F3000135D6A301120135DDA401120135A7A5E9
:100703000112013507A7011201354AA7011201356C
:10071300EFA7011201353CA80112013562A80112AD
:10072300013570AA0112013575AA011201357AAC9F
:1007330001120135C7AC011201353AAD0112013581
:100743006DAD011201350FAE01120135B8AE0112C4
:100753000135F0AE01120135F3AE011201353BAFA5
:10076300011201357BAF01120135D2AF0112013500
:100773008D8603120135A58603120135ED8603121A
:1007830001350387031201354A87031201355E8859
:1007930003120135EB880312013536890312013543
:1007A3005427001201356027001201359B270012E0
:1007B3000135E02700120135A02800120135262952
:1007C300001201358B2900120135B72900120135BA
:1007D300F029001201352E2C00120135122E0012C1
:1007E3000135F82F001201353B31001201358933F1
:1007F300001201359B3400120135E6350012013534
:10080300F636001201351337001201354E37001248
:100813000135703700120135D33700120135943C8E
:1008230000120135293D001201357A3D00120135D0
:10083300A13D00120135F33D00120135113E0012B6
:1008430001356B3E00120135543F00120135CA4099
:10085300001201354E41001201359FE802120135A5
:10086300A9E802120135ECE80212013507E9021288
:10087300013597E902120135BFE902120135FCE99E
:100883000212013533EA021201355CEA0212013524
:10089300D1EA02120135E6EA02120135FBEA02123D
:1008A30001352CEB0212013540EB0212013565EBE9
:1008B300021201359FEB02120135CBEB0212013517
:1008C30003EC0212013582EC02120135CBEC021269
:1008D3000135F5EC0212013520ED02120135D799ED
:1008E300031201350080021201352E8002120135F8
:1008F3007C81021201355C82021201357B82021275
:100903000135F882021201353B83021201359184CD
:1009130002120135528502120135D98702120135BF
:100923007A88021201357089021201356D8A02122A
:100933000135C78B02120135528C021201357C98A6
:1009430003120135E5980312013539990312013574
:10095300609903120135919903120135D5F1021201
:10096300013542F20212013589F202120135A1F377
:10097300021201359DF40212013580F50212013590
:1009830081F701120135C3F70112013595F8011200
:1009930001356EF90112013568FA011201354AFB7E
:1009A30001120135B3FB0112013569FC0112013556
:1009B300DDFC0112013549FD0112013572FD011201
:1009C3000135ECFD0112013585FE01120135EAFE08
:1009D30001120135FFFE0112013545FF01120135F8
:1009E3005EFF01120135C3FF01120135C6FF01127B
:1009F3000135948303120135BC8303120135FA8355
:100A030003120135B884031201351F850312013522
:100A13003B85031201356385031201359385031268
:100A23000135A285031201351F8603120135458660
:100A330003120135C9900112013567920112013584
:100A4300829401120135BE9401120135EB94011217
:100A53000135D095011201351796011201355B96C8
:100A6300011201356D9601120135AD960112013562
:100A7300DA960112013525970112013565970112A6
:100A83000135939701120135E597011201357598E8
:100A930001120135139B01120135299D0112013504
:100AA300679D01120135F89E011201353D9F011228
:100AB3000135B49F01120135FE9F0112013529A0B2
:100AC3000112013505AC0212013584AC0212013565
:100AD30046B20212013555B302120135BDB40212FA
:100AE300013554B5021201354B57001201359457A5
:100AF30000120135C15700120135F45700120135B8
:100B03000158001201350D58001201351F5800120B
:100B130001350659001201356459001201359959FE
:100B230000120135DC5A00120135295B0012013530
:100B33004D5B00120135BA5B00120135785C00127F
:100B43000135315D001201359E5D00120135505EA5
:100B530000120135605E00120135E75E00120135B7
:100B6300A65F00120135D35F001201354C600012FD
:100B73000135A96000120135F36000120135896166
:100B83000012013554620012013509630012013568
:100B93007E6300120135DF630012013549640012E0
:100BA3000135826400120135246500120135346673
:100BB3000012013574660012013591660012013589
:100BC300B06600120135F766001201351C6700128A
:100BD3000135496700120135C36700120135046806
:100BE30000120135286900120135D8690012013558
:100BF3002F6A00120135996A00120135B26A001298
:100C030001353BA2021201358EA2021201359AA2CE
:100C1300021201356FA30212013596A302120135A8
:100C2300D1A3021201353DA40212013579A40212A7
:100C33000135B2A402120135CAA4021201351FA55F
:100C43000212013538A50212013581A502120135C0
:100C530094A502120135AEA502120135C4A50212F4
:100C63000135F7A6021201353EA80212013540A94B
:100C7300021201353AAA02120135F7FF02120135B9
:100C83004AEA011201357AEA0112013542EE0112F4
:100C9300013599EF0112013562F001120135E2F1DC
:100CA30001120135B3F201120135F0F201120135DF
:100CB30013F30112013551F3011201355AF30112F5
:100CC3000135A4F301120135AEF30112013558F4D5
:100CD3000112013531F50112013585F50112013596
:100CE300E7F5011201353AF60112013569F60112F1
:100CF3000135A6F601120135E46A001201354B6E87
:100D030000120135516E00120135D3730012013503
:100D13004C7800120135227C0012013542F6021292
:100D23000135B8F602120135CEF6021201350FF77E
:100D33000212013549F702120135C2F702120135D9
:100D4300FDF70212013570F802120135AEF80212F6
:100D53000135B7F802120135C3F802120135DFF885
:100D6300021201350AF90212013520F90212013586
:100D730049F902120135ACF9021201351FDF0212E3
:100D8300013532DF021201354CDF0212013575DF06
:100D930002120135B8DF02120135F7DF0212013505
:100DA30035E0021201359AE002120135AFE002127A
:100DB3000135BAE002120135C7E002120135DEE067
:100DC30002120135ECE002120135F7E0021201359F
:100DD30003E10212013516E10212013521E102128B
:100DE300013544E102120135EBE102120135FBE169
:100DF3000212013515E20212013532E20212013507
:100E03004EE20212013573E2021201357EE2021252
:100E1300013593E202120135A7E20212013508E31C
:100E2300021201350EE30212013514E302120135F9
:100E33001AE30212013532E30212013565E30212AD
:100E4300013521CE01120135A5CE0112013554CF52
:100E530001120135B3D001120135D4D2011201358B
:100E6300C0D301120135F5D30112013517D4011294
:100E73000135C6D401120135BED601120135E7D6BC
:100E83000112013579D701120135ABD701120135B2
:100E9300B8D7011201350FD80112013535D8011227
:100EA3000135A2DA01120135A5DB01120135FDDBA3
:100EB30001120135B0BF01120135BAC0011201356B
:100EC300A1C101120135ABC101120135CDC101121E
:100ED3000135D9C10112013572C301120135A1C314
:100EE30001120135BDC40112013516C501120135C8
:100EF3007CC6011201355BC701120135B7C7011268
:100F0300013524C8011201355FC8011201359EC89D
:100F13000112013557CB0112013571CB0112013595
:100F2300FDCB011201350BCC0112013564CC01124A
:100F3300013572CC01120135E5CC0112013549CDE1
:100F43000112013593CD01120135D38C0212013503
:100F5300F58C021201351B8F0212013530920212F9
:100F63000135489302120135FB9302120135DD94DA
:100F7300021201351C92031201354192031201350D
:100F8300B392031201351EC60212013527C602129F
:100F9300013530C60212013507C702120135B8C840
:100FA30002120135EEC80212013528C902120135B9
:100FB3005EC90212013598C902120135CCC9021269
:100FC3000135F8C90212013541CA021201357BCA43
:100FD30002120135C4CA021201351CCB02120135BB
:100FE30051CB02120135ACCB02120135E6CB021212
:100FF300013537CC021201356DCC02120135A7CC75
:1010030002120135D5CC02120135F8CC021201359A
:10101300559F03120135819F03120135DC9F031293
:101023000135E69F03120135F69F031201357EB5A4
:101033000212013588B502120135C6B50212013517
:101043000FB60212013549B602120135A3B60212D8
:101053000135C4B6021201359CB902120135A5B996
:1010630002120135F2B9021201351BBA021201351F
:1010730025BA0212013591BA0212013523BB0212BD
:1010830001356DBB02120135A3BB021201352FBC22
:101093000212013570BC02120135A7BC02120135E0
:1010A300B9BC02120135D8BC02120135E1BC0212EF
:1010B3000135AEBD02120135F49B03120135718E69
:1010C30003120135A78E03120135DD8E031201359C
:1010D30028900312013500A00312013516A0031254
:1010E300013520A0031201356AA0031201351CA1AA
:1010F3000312013548ED021201355DED021201358F
:101103000DEE021201354DEE0212013566EE0212AA
:101113000135A1EE02120135EEEE0212013520EF88
:101123000212013562EF0212013563F10212013539
:101133000597031201352E97031201355D970312AC
:101143000135F5970312013537980312013560898C
:1011530003120135858903120135AF890312013565
:10116300D3A103120135B541001201351A4400120F
:101173000135BB45001201356F46001201350247A8
:1011830000120135874700120135AC4700120135C3
:10119300024B00120135884B00120135BB4C001283
:1011A3000135F54C001201352A4D00120135EA4E86
:1011B30000120135474F00120135904F00120135DF
:1011C300FB4F001201356C50001201359E50001286
:1011D3000135B65000120135FF51001201350F528F
:1011E300001201352A53001201354C530012013508
:1011F300825300120135365500120135C3550012D2
:1012030001350256001201352657001201359F9E03
:1012130003120135B09E0312013529A203120135D1
:1012230068A203120135E6FF02120135EB9C03129B
:101233000135FB9C03120135109D03120135C29D3C
:1012430003120135F09A03120135759B0312013520
:10125300DB9B031201356395031201358C95031251
:101263000135F29503120135129603120135639687
:1012730003120135BE9603120135F89603120135A8
:10128300FB9603120135717C00120135867C001236
:101293000135B17D001201352D7E00120135A17E8D
:1012A30000120135BB7E00120135D27E00120135DA
:1012B300E57E00120135FF7E00120135167F001214
:1012C30001353C7F001201358D7F00120135EAFFA5
:1012D30001120135FAFF01120135FDFF011201353B
:1012E300F87F001201352C8C03120135C78D0312D0
:1012F3000135288E031201356E8E03120135C19319
:10130300031201351394031201359D940312013521
:1013130004950312013575FD021201359FFD02127A
:1013230001356DFE0212013548FF02120135DCBDA5
:1013330002120135A3BE02120135DABE02120135D3
:1013430004BF0212013564BF02120135BABF021293
:1013530001351FC002120135B7C002120135C6C1E3
:10136300021201355DC302120135EAC302120135CF
:1013730051C40212013568C40212013582C502123A
:101383000135C0C5021201354BDC01120135CCDF3A
:101393000112013554E101120135ABE101120135AE
:1013A300CAE10112013548E201120135DEE30112FF
:1013B3000135C3E401120135D1E801120135A7E972
:1013C30001120135BBD40212013536D702120135A1
:1013D300E1D70212013504D90212013577D902127D
:1013E3000135008003120135458003120135628007
:1013F300031201351881031201356B810312013584
:101403004182031201355B8303120135BAFF0212D5
:101413000135C27F0012013572A2031201359AA26F
:1014230003E066701008A3E066700A08A3E0667024
:101433000408A3E06622C3E7960809E7960809E7CC
:10144300960809E79622C3E09608A3E09608A3E06E
:101453009608A3E09622C008C3E096F50808A3E027
:1014630096420808A3E096420808A3E09645087050
:1014730001D3D00822080808EAC0E0EBC0E086F0F8
:10148300E7A4FA180986F0E7A42AFA180986F0E710
:10149300A42AFA180986F0E7A42AFA1986F0E7A421
:1014A300FBE5F02AFA190886F0E7A42BFBE5F03AEE
:1014B300FA190886F0E7A42BFBE5F03AFA181809A5
:1014C30086F0E7A4C5F02BFBE43AFA1908E7C5F068
:1014D300C6A426F6E5F03BFBE43AFA1886F0E7A447
:1014E300F6E5F00826F6E43B08F6E43A08F6D0E021
:1014F300FBD0E0FA22E4CFC0E0E4CEC0E0E4CDC00C
:10150300E0E4CCC0E075F020E626F608E633F60802
:10151300E633F608E633F6181818EC33FCED33FD22
:10152300EE33FEEF33FFC3EC9709ED9709EE97090E
:10153300EF97191919400FFFEC97FC09ED97FD0977
:10154300EE97FE191906D5F0BFECF709EDF709EE92
:10155300F709EFF7191919D0E0FCD0E0FDD0E0FE50
:10156300D0E0FF226016080808C6C313C618C613C6
:10157300C618C613C618C613C6D5E0EA22700908F2
:101583000808226016181818C6C333C608C633C61F
:1015930008C633C608C633C6D5E0EA22E627F608EE
:1015A30009E637F60809E637F60809E637F622E0D2
:1015B30026F608A3E036F608A3E036F608A3E036DD
:1015C300F622E026F008A3E036F008A3E036F008A0
:1015D300A3E036F022C3E697F60809E697F6080972
:1015E300E697F60809E697F622C3E096F008A3E02B
:1015F30096F008A3E096F008A3E096F022E056F6F2
:1016030008A3E056F608A3E056F608A3E056F62230
:10161300E056F008A3E056F008A3E056F008A3E074
:1016230056F022E0F608A3E0F608A3E0F608A3E0EC
:10163300F622E6F008A3E6F008A3E6F008A3E6F036
:1016430022E0FAA3E0FBA3E0FCA3E0FD22EAF0A37F
:10165300EBF0A3ECF0A3EDF022CAC0E0E6F0A308A0
:10166300DAFAD0E0FA22CAC0E0E0A3C582CCC58290
:10167300C583CDC583F0A3C582CCC582C583CDC543
:1016830083DAE6D0E0CA22C3E498F8E499F91216A3
:10169300CB8026C3E49AFAE49BFBE920E7E9121620
:1016A300CBE498F8E499F922C3E498F8E499F912A1
:1016B30016CBE498F8E499F9C3E49AFAE49BFB2285
:1016C300EB20E7CFE920E7E0B90010BB0008E88A88
:1016D300F084F8AAF022E4FBC8FA22EB70227B1014
:1016E300C833C8C933C9335007C39AC3DBF2800672
:1016F3009A50012ADBEAC833F4C8C933F4C9FA2281
:1017030075F008E4C833C8C933C933C99AC99B50B3
:1017130004C92AC93BD5F0ECFBC833F4C8E4C9FAC1
:1017230022600D08C6A2E713C618C613C6D5E0F398
:1017330022600C08C6C313C618C613C6D5E0F4222C
:10174300700422600D18C6C333C608C633C6D5E07D
:10175300F41822251910AF08F519400C151A800842
:10176300F5194002151AD2AF2200C0D0251910AFC7
:1017730008F519500C051A8008F5195002051AD2FC
:10178300AFD0D0222519F58210AF08F519400C15FA
:101793001A8008F5194002151AD2AF851A8322253B
:1017A30019F582E4351AF58322E4732519C582C03D
:1017B300E0E51A34FFC583C0E0E519C3958224F838
:1017C30010AF0885831A858219800885831A85825C
:1017D30019D2AFCEF0A3E520F0A37808E608F0A372
:1017E300DEFAEFF0A3E58124FAF8E608F0A3E608B1
:1017F300F0A3E608F0A30808E608F0A3E608F0A3C0
:1018030015811581D0E0FED0E0F815811581158191
:10181300E8C0E0EEC0E0222519C582C0E0E51A3435
:10182300FFC583C0E0E519C3958224F910AF08858D
:10183300831A858219800885831A858219D2AFCECF
:10184300F0A3E520F0A37808E608F0A3DEFAEFF0B2
:10185300A3E58124FBF8E608F0A3E608F0A3080853
:10186300E608F0A3E608F0A315811581D0E0FED0C9
:10187300E0F815811581E8C0E0EEC0E022851A8307
:10188300851982E0A3FEE0A3F5207808E0A3F6081B
:10189300DFFAE0A3FFE0A3C0E0E0A3C0E0E0A3C061
:1018A300E0E0A3C0E0E0A3C0E010AF0885821985A3
:1018B300831A800885821985831AD2AFD083D08298
:1018C300020132851A83851982E0A3FEE0A3F52085
:1018D3007808E0A3F608DFFAE0A3FFE0A3C0E0E0A6
:1018E300A3C0E0E0A3C0E0E0A3C0E010AF0885829E
:1018F3001985831A800885821985831AD2AFD0830C
:10190300D08222C0D02519C582C0E0E51A34FFC5B4
:1019130083C0E0E519C3958224F310AF0885831AC9
:10192300858219800885831A858219D2AFC8F0A3EE
:10193300E9F0A3EAF0A3EBF0A37908E709F0A3D851
:10194300FAECF0A3EDF0A3EEF0A3EFF0A3D0E0F0F8
:10195300A3D0E0F0A3D0E0F0A3E520F0A3E5F0F0FE
:10196300A322851A83851982E0C0E0A3E0F9A3E0EE
:10197300FAA3E0FBA37808E0F608A3DFFAE0FCA3F0
:10198300E0FDA3E0FEA3E0FFA3E0C0E0A3E0C0E02E
:10199300A3E0F5D0A3E0F520A3E0A3F5F010AF0892
:1019A30085831A858219800885831A858219D2AFA7
:1019B300D082D083D0E0F8D0E03274048006740281
:1019C30080027401C0E0F404121787D0E012165CA1
:1019D300227404800474028000CCC0E0EDC0E0E512
:1019E30019C39CCCAD1A50011D10AF068C198D1A6A
:1019F30080068C198D1AD2AF121669D0E0FDD0E0A3
:101A0300FC22D083D082E9C0E0E493A3C386F0C56F
:101A1300F095F0F908E493A386F0C5F095F0700B08
:101A2300E493A3C3994005E9048002A3E475F0029B
:101A3300A42582F582E5F03583F583D0E0F9E493BC
:101A4300A3C0E0E493C0E022D083D082ECC0E0EDF9
:101A5300C0E0E493A3FCE493A3FDED4C600D121AE4
:101A630097EC24FFFCED34FFFD80EFE493A3FCE44B
:101A730093A3FDED4C600D121AD6EC24FFFCED345C
:101A8300FFFD80EFD0E0FDD0E0FCE493A3C0E0E4F1
:101A930093C0E022C0E0C3E49396087401939618C0
:101AA300400FE49366700808740193661870007021
:101AB30019A3A3C3E49396087401939618A3A340B0
:101AC3000DD0E0D0E0D0E0021A87A3A3A3A3A3A381
:101AD300D0E022C0E0C0F088F0E493667008087498
:101AE300019366187000A8F0A3A3700BD0F0D0E0A8
:0E1AF300D0E0D0E0021A87A3A3D0F0D0E0220A
:101B040074F512181AEAFEEBFFEE2434F8EF3400F1
:101B1400F988088909EE2435121C30F8EE243712AE
:101B24001C30F50AEC850AF0A4FCAAF0850AF0ED55
:101B3400A42AFDE82CF8E43DF97A257B001216CBA3
:101B4400EA850882850983F074075AF87401B8009D
:101B5400028004C333D8FCFBEA131313541FF8EEBA
:101B640028F8EF3400F9E8245DF582E9121C335BB0
:101B74006003EA801CEE2436121C30F5F0EA84A8D7
:101B8400F0EE28F8EF3400F9E82438F582E9121C65
:101B940033F97F040218C674F512181AEAFEEBFF33
:101BA400EE2434121C30C0E0EE2435F582EF34000C
:101BB400F583D0E0F08E828F83A3A3A3A3A3E0FADE
:101BC400A3E0FB8E828F83A3A3A3A3A3A3A3E0FC20
:101BD400A3E0FDECC39AF50AED9BF50BEE247FF52B
:101BE40008EF3400F509850882F583E06401702B61
:101BF400EE2480F582EF3400F5831219D8121C39D3
:101C0400740212176CE960137CDC7D04EEFAEFFBBE
:101C1400120BA2850882850983E4F0AC0AAD0BEEB1
:101C2400FAEFFB121B041226CD021B96F582EF3449
:101C340000F583E022C082C083851982851A83E07F
:101C4400F8A3E0F9C3EA9CEB9D5010C3EC98ED991E
:101C5400401BC3EA98EB995014800EC3EA98EB99A1
:101C64004007C3EC98ED994004790180027900D0D3
:101C740083D08222EAC39CFAEB9DFB2274ED1218F6
:101C84001A9003A2E064086005E06407702C906178
:101C9400C8E060269003D0E0F874FF68601CE87523
:101CA400F003A4C8AAF02AF974D228FE740339FFF9
:101CB4008E828F83A3A3A3E070057900021E20EE19
:101CC4002468F510EF3400F511906060E08510820F
:101CD400851183F0750A45750B05750800750900B3
:101CE400E5D914F50EE5D95403F50F601CEE2482F2
:101CF400F50CEF3400F50D7403650F6058E50E60C4
:101D040013EE2467121C30700B793DEEFAEFFB12D0
:101D14000BC680A6900540E064016026850C828590
:101D24000D83E06004780480027800850E08E508DD
:101D3400C398FA95E0FB120A468A088B09EA45091A
:101D44007006120E24021CBE850C82850D83E07081
:101D5400048A0A8B0B78008016E5D9C0E08812E566
:101D64000A2512F582E50B3400F583D0E0F008E88B
:101D7400C3950E40E4850C82850D83E0602874FCD5
:101D8400250EF50E780A1219C1AC0EA90FEEFAEF62
:101D9400FB120C74740212176CE9700AAA08AB09DE
:101DA400121304021D0D7403650F6058850E0C7523
:101DB4000D00780C1219C1AC0AAD0BAA08AB0912BC
:101DC4000C38740212176C851082851183E0F87444
:101DD40080687005750C7F8002880CE50CF50A7824
:101DE4000A1219C5E50FF50A780A1219C5A90EAC2D
:101DF40008AD099003D0E0FA7B001208DE740212E9
:101E0400176C80139003A2E06408600BAC0AAD0B5E
:101E1400EEFAEFFB120D0A120E3079017F0C021854
:101E2400C674F312181A74FC121756EAFEEBFF89F3
:101E340008A2AFE433F509C2AFEE2463F50AEF3428
:101E440000F50B8010AA0AAB0B120BF012130490CE
:101E540004E3E004F0850A82850B83E0F8A3E0F94B
:101E6400E849602FE82402FAE93400FBEA2402F589
:101E74000CEB3400F50D780C1219C18A828B83E0C7
:101E8400FCA3E0F9EEFAEFFB120BE4740212176CF8
:101E9400E960B29004E3E060579004E4E0F8900451
:101EA400E3E0C398500C7402650870449004E5E0C4
:101EB400603E8E828F83A3A3A3A3E0851982851A33
:101EC40083121F0474021217A2E8121F049004E282
:101ED400E028F074021217A2AC82AD8385198285C2
:101EE4001A83AA82AB8379011208EA9004E3E4F02E
:101EF400E509A2E092AF740412176C7F060218C6BB
:101F0400F0A3E4F09004E3E0F82200008521878543
:101F140022C622C0E074EF121906A2AFE433FEC257
:101F2400AF759B00906182E0A2E05012E591A2E0BF
:101F3400500C7591FE740165217003121C80E0A29F
:101F4400E55051E591A2E5504B7591DF9003A2E075
:101F540064076005E06408702374016521703579B5
:101F6400019003D0E0FA75F003A4CAA8F028FB742A
:101F7400D22AFA74033BFB121E258018E0640D700C
:101F8400139003C4E004F064287002E4F07A00E0E3
:101F9400F9120E36906182E0A2E6400302203EE58B
:101FA40091A2E6400302203E7591BF9003A2E06433
:101FB400057008120D4C120D588003120D52752134
:101FC40000120DC4E99003A3F07900120DB8120BAE
:101FD4000C7A017B009003A1E0F912108E90780333
:101FE400E064427055900544E014F0704DC2AF12A5
:101FF4001FF600782AD0E0F618D0E0F6E59F5407E3
:1020040070057509FF800375097FC4C0E07829E66F
:10201400F50808E65509F509740B7808121734D049
:10202400E02508F8906270E0A2E740F8E8C3339036
:102034006272F0906270E0D2E0F0906181E0A2E31D
:102044005009E5E9A2E3500375E9F7A3E0A2E750DC
:1020540009E591A2E7500375917FEEA2E092AF7F6C
:1020640004021965C0E0C0D0C082C083906183E0DF
:10207400A2E05009E5BFA2E0500375BFFEE0A2E173
:102084005009E5BFA2E1500375BFFDE0A2E250098B
:10209400E5BFA2E2500375BFFBE0A2E35009E5BF30
:1020A400A2E3500375BFF7E0A2E45009E5BFA2E440
:1020B400500375BFEFE0A2E55009E5BFA2E5500368
:1020C40075BFDFE0A2E65009E5BFA2E6500375BF85
:1020D400BFD083D082D0D0D0E032C0E074F21219E5
:1020E40006E5A7A2E4500FE5A1A2E4500953A7EF27
:1020F40075A1EF122132E5A7A2E5500CE5A1A2E5F6
:10210400500653A7DF75A1DFE5A7A2E15009E5A1B9
:10211400A2E1500375A1FDE5A7A2E2500CE5A1A23E
:10212400E2500653A7FB75A1FB7F0102196574F801
:1021340012181A7521019003A2E0640670077A0050
:102144007B00120D34A2AFE433FED2AF9003A8E0BB
:10215400640170187A207B009003A1E0F912111831
:102164007A207B009003A1E0F9121094906182E040
:10217400D2E6F0900541E0602185C62280169003E6
:10218400A7E064017008E5C654F84405F5C653BEDB
:10219400FC121F107401652160E4EEA2E092AF7F8F
:1021A400010218C68E238F248582288583278519EA
:1021B40082851A83E0CEA3E0CF852882852783EB2E
:1021C400C9EAC8EDCBECCA75F010C3E833C8E933EB
:1021D400C9EA33CAEB33CBC3EA9EF526EB9FF52558
:1021E400B35004AB25AA26EC33CCED33CDD5F0DACD
:1021F400AE23AF242274E912181A74FA121756EA9D
:10220400FEEBFF8C088D099003A2E024F7C394052C
:102214005006751001022324120CAA8A0A8B0BEAB9
:10222400450B7003022321120D6A8A0C8B0D120DCB
:102234006AEA650C7003EB650D60ECEEFCEFFD855E
:102244001982851A83AA82AB83120D70850A82854E
:102254000B83A3A3780C121626909043780C1216C5
:1022640000851982851A8378141216269090437873
:1022740014121600780C7914121439501F780C7942
:10228400141215D890900F780C1214594047850CED
:1022940010850D11850E12850F13804590900F85C2
:1022A40014108515118516128517137810790C12E0
:1022B40015D87810121459501C751000751100753A
:1022C4001200751301781079141215D87810790C4E
:1022D40012159F800C75100175110075120075138D
:1022E4000074097810121580909077780C121626D5
:1022F4007810790C1214F89003A2E06408600AE0E4
:1023040064066005E06405702090900B7810121448
:1023140059501690902B78101215B2800C7510003D
:10232400751100751200751300850882850983787C
:1023340010121635740612176C7F100218C674F743
:1023440012181A120D8290053FE064017010906219
:1023540045E4F0A3F053F4F343FE0C5390F3120D51
:1023640022E5C654804449F5C6E59E547F6449700D
:10237400F8906185740FF090053DE0F47002A3E0DD
:10238400602C75080175090090053DE07808121766
:1023940043E508F4FAA3E0600814600A14600C80B2
:1023A4000DEA52808008EA52908003EA52A0790034
:1023B4007F020218C674F712181AE9FEEAFF7401C4
:1023C4006E700C7A807B009003A1E0F912108E905D
:1023D400274CE493F46008E493F9120AEE8009535D
:1023E400C680E59E547F70FA120D2890053FE06484
:1023F400017003120B2490053DE0F47002A3E06029
:102404002A75080175090090053DE0780812174304
:10241400AA08A3E0600814600A14600C800DEA4264
:10242400808008EA42908003EA42A0120CAA8A083B
:102434008B09A808A909E8496017E5E170FCE824BC
:1024440014F582E93400F583E0F874FF68600288CB
:10245400E174016F700A7A019003A1E0F91210E2AD
:102464000223B474F112181A8A088B098C0A8D0B92
:102474009090437808121600740F1217A2780C1269
:102484001626909043780C1216007808790C1214D2
:102494003990900F50107808790C1215D8780812DA
:1024A40014594014800E780C79081215D8780C123F
:1024B400145950047901800279007F080218C67407
:1024C400ED12181A8A088B098C0A8D0B90904378A8
:1024D4000812160074131217A2780C121626909084
:1024E40043780C121600780C7908121439401178CC
:1024F40008790C1215D8AA08AB09AC0AAD0B8022D6
:102504007510007511007512007513017810790C9F
:102514001215D87810790812159FAA10AB11AC12B5
:10252400AD137F0C0218C690904378081216268AC1
:10253400828B8378081216137F040218C674F5126E
:10254400181A8C828D8378081216268A828B8378D7
:10255400081215EC122595C3E098F0A3E099122512
:1025640087401E90902F78081216268A828B8378D3
:10257400081215C58E828F83E02420F0A3E0344E28
:10258400F080A4F08E828F83C3E09420A3E0944E65
:1025940022EA2404F8EB3400F9E8FEE9FF8C828D8A
:1025A40083A3A3A3A3E0F8A3E0F98E828F8322740C
:1025B400F512181AE9FE9004F7E0FAA3E0FBEEC363
:1025C40033F8E433F9740028F582748F39F583E025
:1025D4002AF508A3E03BF50978081219C190905F29
:1025E4001216441221A8740212176C8A088B098CE3
:1025F4000A8D0B74107808121567AA08AB097F04BA
:102604000218C674F112181A8A0C8B0D8C0E8D0FD9
:10261400740F1217A2E0FAA3E0FB74111217A2E0E0
:10262400F508A3E0F50978081219C1EA2401F508B0
:10263400EB3400F509E4F50AF50B780C790812146B
:1026440078908FF77808121626780C790812147887
:10265400AA0CAB0DAC0EAD0F1221A8740212176CAC
:102664008B09EA450960047A0180027A00EC2AFCAD
:10267400ED3400FD74131217A2E0F8A3E0F9E8FEAC
:10268400E9FFECF8EDF97A717B021216CB88088920
:1026940009E4F50AF50B8E828F837808121635EC5F
:1026A400F8EDF97A717B021216CB8A088B0974054E
:1026B40078081217438E828F83A3A3A3A3E508F09F
:1026C400A3E509F07F080218C6C082C083E99060C0
:1026D40000F0D083D08222C2AF02000022C0E07496
:1026E400F2121906A2AFE433FED2AFE589A2E1509B
:1026F40003121274758900C2C5751B00EEA2E09224
:10270400AF7F01021965C0E074F2121906A2AFE4AA
:1027140033FED2AFE58BA2E05003121274758B0026
:10272400C2E880D5C0E0C0D0E8C0E0E9C0E0E5A8D8
:10273400D2AFC2C7751B00A2E7A2E792AFD0E0F9FF
:10274400D0E0F8D0D0D0E032FFFFFFFFFFFFFFFF63
:10275400C082C083E99009E7F00229E374F71217F5
:10276400AEE99002E1F07C197D037AFF7BFF120849
:10277400309002E274FFF0A3F0A3E4F0A3F0790533
:102784001207B89002E1E0F91206DA7A4E7B0812D9
:1027940009F87F0102188074F41217AE8A088B09B5
:1027A400EB548060309002E1E0F91210768A0A8BD3
:1027B4000BAE0AAF0BEE4F60138E828F83E064B0D2
:1027C40070031207D0EEFAEFFB121064AA08E509B1
:1027D4006480FB80047A007B000229B274F2121731
:1027E400AE74FC121756EAFEEBFFEE4F603874022B
:1027F4001217A2EEF0A3EF122C17ECF0A3ED122C9B
:1028040017AA82AB831206D4E9F508707374121206
:1028140017A21237CBE50A450B60658E828F8312AF
:10282400288EEE4F700575080280557A067B0012DB
:1028340010CA8A0C8B0DA80CA90DE84970057508FF
:1028440013803D88828983E4122898A3A3EEF0A321
:10285400EF123C64E50AF0A3E50BF09002E71229BD
:10286400209002E76017E0FCA3E08003EAFCEBFDA4
:102874008C828D8312292070F38C828D831236F022
:10288400A908740412176C023E66A3A3A3A3E0FE76
:10289400A3E0FF22F0A3F0888289832274F2121746
:1028A400AE890AE975F017A4FEAFF09002E6E4F0F1
:1028B4009002E4122920600A1210D09002E4E4F09D
:1028C400A3F0EEFAEFFB1210CA8A088B09EA450955
:1028D400602FEEFCEFFD790012104C9002E4E50845
:1028E400F0A3E509F07B00800812290AE4F0A3F0C4
:1028F4000BEBC3950A40F2E50A9002E6F0790080FA
:10290400027913023E66EB75F017A4F8A9F0900261
:10291400E4E028FAA3E0398A82F58322123486EAB5
:102924004B2274F41217AE750800750900740C126A
:1029340017A2123C38FEE9FF800CE5082401F508D3
:10294400E5093400F509C3E5089CE5099D50328585
:10295400080A85090B7403780A121743EA250AF852
:10296400EB350BF988828983A3A3A3A3A3A312370E
:10297400CBEE650A7003EF650B70BFE8FAE9FB80E4
:10298400047A007B00802774F41217AE7900EAA25F
:10299400E0501B7508DA75098F78081219C17C0498
:1029A4007D007AE97B091207B2740212176C7F0466
:1029B400021880C082C0839002E71229EA601C8852
:1029C400828983A3A3E06A7003A3E06B888289836E
:1029D40070E8A3A3A3A312348280047A007B00D0FE
:1029E40083D082020132123F39E8492274EE121771
:1029F400AE74FC121756EAFEEBFF851982851A8322
:102A0400E4F0A3F0EE24021236D4EE2405122C05D1
:102A1400EE2404F50EEF122FEAE024FE603924FCC4
:102A2400604624FE605224FE605E24FE7003022B86
:102A34000A24FE7003022B8224FE7003022B9124CD
:102A4400FE7003022BA024FC7003022BAF24FE7043
:102A540003022BBE022BFB9003007417F0A3E412B5
:102A64002C1F120452022BFB851982851A83AC8217
:102A7400AD831207D6022BCB851982851A83AC82CB
:102A8400AD831207DC022BCB850C08850D0974027B
:102A94001217A2AC82AD8385088285098312348221
:102AA4001206F88A0C8B0DAC0CAD0DEC4D6042E4B3
:102AB400F50CF50D780C1219C1750C00750D037821
:102AC4000C1219C1750C01750D03780C1219C1741F
:102AD400081217A21219D8791612347C1208187425
:102AE4000812176CE9F50C700B12347812046A8022
:102AF4000F750C01850882850983122C0D1236F09E
:102B0400850C08022BCE74021217A2AC82AD838509
:102B14000C82850D831234821206F88A108B11AC54
:102B240010AD11EC4D6043850C82850D83A3A31277
:102B340019D875100075110378101219C175100198
:102B440075110378101219C174081217A21219D83A
:102B5400791612347C120818740812176CE9F509F6
:102B6400700B123478120470800F750901850C8281
:102B7400850D83122C0D1236F0850908804C8519B9
:102B840082851A83AC82AD831207E2803A8519826A
:102B9400851A83AC82AD831207E8802B8519828560
:102BA4001A83AC82AD831207EE801C851982851AC4
:102BB40083AC82AD831207F4800D851982851A8354
:102BC400AC82AD831207FAE9F508E50860298E8224
:102BD4008F83A3E06414601F850E82850F83E090C9
:102BE4000300122C17123F359003011236F0E5084A
:102BF400A3122C1F12044CEEFAEFFB1207760235D7
:102C0400DCF50CEF3400F50D22123F39851982856D
:102C14001A8322F0851982851A8322F07C007D03B1
:102C2400850A82850B831234862274EE1217AE74E1
:102C3400FC1217568A0A8B0B8C0E8D0FEA2405F5AD
:102C440008EB3400F5097C157D0079007A007B03DC
:102C540012104CE5082402F50CE509122C0885191C
:102C640082851A8385821085831178101219C18593
:102C74000882850983A3A3A3A31231321219C1E5E3
:102C8400082405F510E5093400F51178101219C16E
:102C9400850C82850D8312348C1206F27406121789
:102CA4006C8A108B11AE10AF11E50A2402F50AE507
:102CB4000B1236D7EE4F7003022DF48017740212F4
:102CC40017A212348288828983EAF0A3EBF090037E
:102CD40000E004F0900300E0C394054003022DF4E7
:102CE400E4F510F51178101219C17510E975110287
:102CF40078101219C17510EA75110278101219C1F1
:102D040074061217A21219D87910EEFCEFFD1234D2
:102D14007C120818740812176CE9705E85088285A5
:102D24000983A3A3A3A3A3A3A3E0F89002E9E06803
:102D340070481231321219C17CEA7D02E508240878
:102D4400FAE5093400FB121046740212176CE960AC
:102D5400298E828F83A3A3A3A3123482900300E05D
:102D6400F5107402781012174374012510F582745B
:102D7400033511F583EAF0A3EBF074021217A28570
:102D8400821085831178101219C174021217A212CD
:102D940019D8850C82850D83123F4A1206FE7404ED
:102DA40012176C8A108B11AE10AF11900300E0F56E
:102DB400107511007402781012174374002510F86E
:102DC40074033511F988828983A3122920700302C0
:102DD4002CB8E82403F8E93400F9EE4F6003022C20
:102DE400C18882898374FFF0A3F0900300E004F0AB
:102DF400900300E0600A12347812045E7900800BBC
:102E04008508828509831236E7790A0235DC74EA7B
:102E14001217AE74FE1217568C128D13EA2405F5A0
:102E24000CEB1240B4122892750800750900EA24CC
:102E340002F510EB3400F511851982851A83858219
:102E44000A85830B780A1219C1850C82850D83A328
:102E5400A3A3A3122FF41219C1E50C2405F50AE566
:102E64000D1236D7780A1219C1850C82850D83128A
:102E74003F481206F2740612176C8A0A8B0BEA4555
:102E84000B7003022FA5EA2404F50EEB122FEA12AD
:102E940028928A828B83A3A3A3E0F98510828511EB
:102EA400831234821206E0E9F5096003022FA5E4D7
:102EB400F514F51578141219C17514E9751502780D
:102EC400141219C17514EA75150278141219C17413
:102ED400061217A21219D87913AC0AAD0B85108209
:102EE400851183123482120818740812176CE9F5DC
:102EF400096003022FA59002E9E0F8E5087009E0F3
:102F04002402900301F08017900301E0FCE82402FE
:102F1400FAE43400FBEA6C7001EB6003022FA9852C
:102F24000882AA8212312994141231215073850E19
:102F340082850F83E0C0E074022A122FE1D0E0F012
:102F44000508850E82850F83A3E0C0E085080A7416
:102F540002250A122FE1D0E0F005089002E9122FB1
:102F6400F41219C17CEA7D0285080A7402250AFA62
:102F740074033400FB121034740212176C9002E9CB
:102F8400E02508F50874FF6E700374FF6F6012EE9D
:102F940024010EEF3400FFE508C394145003022EFD
:102FA4003CE508601312336D851082851183123459
:102FB4008212046479008014E509700375090A8596
:102FC4001282851383EEF0A3EFF0A909740212179D
:102FD4006C7F0E02188085080C7402250CF582742F
:102FE400033400F583223400F50F850E82F5832225
:102FF400123C772274EE1217AE74FE1217568C0E22
:103004008D0FEA2405F50CEB122C08750B009003C8
:1030140000E4F0F50AEA2402F508EB3400F509802F
:1030240049900300E0FA9002E9E0F812312994177C
:10303400123121400D900300E0F87416C3989002F9
:10304400E9F01231321219C17CEA7D0274012AFAC4
:1030540074033400FB121034740212176C9002E9EA
:10306400E0F8900300E028F0050AE50C2416F58248
:10307400E50D122FE5E0F8E50AC398400302310A92
:10308400900300E0C39416507DE50AC333F8E4339B
:10309400F9E50C28FEE50D39FF851982851A83AC04
:1030A40082AD838E828F831234821206F88A108B4B
:1030B40011AC10AD11EC4D7005750B018043E4F5B6
:1030C40010F51178101219C17510E97511027810F4
:1030D4001219C17510EA75110278101219C174061B
:1030E4001217A21219D87916850882850983123419
:1030F40082120818740812176CE9F50B7003023079
:10310400251236E380107C007D03850882850983BF
:10311400123482120476A90B74020235DEE994009B
:10312400C365D03322EA28F8E43400F9E822E0F554
:103134001075110078102274EA1217AE74FC12177D
:10314400568A0C8B0D8C128D13EA2405F50AEB12AA
:1031540036D7750800750900E50A2402F510E50B59
:103164003400F51174021217A285820E85830F783C
:103174000E1219C1850A82850B83A3A3A3A3123C53
:10318400231219C1E50A2405F50EE50B3400F50FE9
:10319400780E1219C18510828511831236DD12341E
:1031A4007C1206F2740612176C8A0E8B0FAE0EAFE9
:1031B4000FE50C2402F50EE50D3400F50F80408870
:1031C40082898374FFF00508122FDA74FFF0050872
:1031D4009002E9E0F50C750D00780C1219C17CEA37
:1031E4007D0285080C7402250CFA74033400FB126A
:1031F4001034740212176C9002E9E02508F508EE09
:103204004F60718E828F83A3A3A3E0F9850E82851C
:103214000F831234821206E0E9F509EE2404122C1D
:1032240005E97044E4F514F51578141219C1751400
:10323400E975150278141219C17514EA7515027826
:10324400141219C174081217A21219D87911EEFCBC
:10325400EFFD850E82850F831234821208187408DC
:1032640012176CE9F5096027850C82850D831233EA
:10327400631236F0E508700302334912336D850E8C
:1032840082850F8312348212047C790002335E85B6
:103294000882AA82EA9002E97009E02404900301FA
:1032A400F08022E0F8900301E0F514E82404FCE443
:1032B4003400FDEC65147001ED70C01231299412D4
:1032C40012312150B6850C82850D83E0C0E0740272
:1032D4002A122FE1D0E0F00508850C82850D83A326
:1032E400E0C0E0122FDAD0E012337F85820C8583B0
:1032F4000D780C1219C174041217A21219D8851072
:1033040082851183123F4A1206FE740412176C8AD6
:103314000C8B0DAE0CAF0D85080C7402250CF874E3
:10332400033400F9EE4F70030231C3851982851A04
:1033340083E08882898312337FA3E0C0E0122FDA0E
:10334400D0E00231D1E509700375090A850A828546
:103354000B831233631236F0A9097404022FD212BC
:103364003F3985128285138322900301E0F5F0E54D
:103374000884900300F07C007D0322F00508851981
:1033840082851A832274EC1217AE74FE1217568AC1
:10339400088B098C0E8D0FEA2405FEEB3400FF85A3
:1033A4001982851A83AC82AD838E828F8312348214
:1033B4001206F88A0A8B0BEE2418122C05EA450B28
:1033C40070030234531235C55032851982851A832D
:1033D40012348212080C8A108B11EA4511606B7941
:1033E40012AC0AAD0B8508828509831234828510DC
:1033F400828511831217ACE9F50A7058E4F50AF5D1
:103404000B780A1219C18E828F83A3A3E0F50A7880
:103414000A1219C1EE24031236D4780A1219C18E85
:10342400828F8312348C12081E740612176CE9F50D
:103434000A7021850C82850D83E0701F85088285C2
:1034440009831234821204828011750A0E80097570
:103454000A018004E50A60031236E3850C82850DB7
:1034640083E0600479008002A90A740212176C7F59
:103474000C0218807C007D03850A82850B8312343C
:103484008622E0FAA3E0FB22E0FCA3E0FD850882AB
:103494008509831234862274EE1217AE74FE121755
:1034A400568A088B098C0C8D0DEA2405FEEB34003A
:1034B400FF750E00851982851A83AC82AD838E82D6
:1034C4008F831234821206F88A0A8B0BEA450B703A
:1034D400030235B11235C55035851982851A831218
:1034E400348212080C8A0E8B0FEA450F605E791243
:1034F400AC0AAD0B850882850983123482850E825D
:10350400850F831217ACE9F50E60030235B4850804
:10351400828509831237CBAA0AFB1208008A108B12
:1035240011A810A911E849701E7AFF7BFF12080048
:103534008A108B11A810A911E849606C88828983CC
:10354400E50AF0A3E50BF0750A008007750E0E80FE
:103554005F050A9002E6E0FAE50AC39A504AE50AD2
:1035640075F017A4FAABF088828983A3A3E02AFA42
:10357400A3E03BFB8A828B831236DDEC4D70D2755F
:103584000A17750B00780A1219C1EEFCEFFD121030
:1035940034740212176CEEFCEFFD850882850983F2
:1035A4001234821204888014750E098003750E018A
:1035B400123F31850C82850D831236F0A90E02313B
:1035C4001CE5082402F508E5093400F5098A828B14
:1035D40083A3A3A3E0A2E522740412176C7F0A025A
:1035E400188074EC1217AE8C108D11EA2405F50CBA
:1035F400EB122C08750F00EA2402F50AEB1236D7F9
:10360400850A82F5831234821208008A088B09EA3B
:10361400450970030236C9750E008071850C8285D8
:103624000D83E06401704F8E828F83A3A31219D897
:103634008E828F83A3A3A3A3E0F5127513007812DF
:103644001219C1EE2405F512EF3400F513781212A5
:1036540019C112347C12081E740612176CE9F50F96
:103664006014850C82850D83E4F0123F318510824D
:103674008511831236F07C177D007900EEFAEFFB9A
:1036840012104C8E828F83E4F0A3F0050E9002E6B4
:10369400E0F8E50EC398501EE50E75F017A4F8A9DE
:1036A400F0850882850983A3A31240BE1236DDEC9F
:1036B4004D600302362085088285098374FFF0A3D8
:1036C400F0E50F700612347C12048EA90F023473D5
:1036D400F50AEF3400F50B22A3E0FCA3E0FD228EF3
:1036E400828F83123F39850E82850F83E8F0A3E928
:1036F400F022C082C0839002E2E06A7003A3E06B10
:1037040070067AE27B0280047A007B000229E3C01F
:1037140082C08378008C828D83E06A7003A3E06B9F
:103724007010E875F003A4F8A9F0EC28FAED39FB61
:103734008015088C828D83A3A3A3E06A7003A3E0A1
:103744006B60DF7A007B000229E374F61217AE1275
:1037540007CA8A828B83E582458370067A007B00E0
:103764008007A3A3A3A3123482023DE274F21217CA
:10377400AEE9FE740E1217A21237CB74101217A200
:10378400123C438C828D83E064027036A3123F3F67
:10379400F50CA3E0F9A80C7402687003742969702D
:1037A40021750C02750D00780C1219C178081219D4
:1037B400C1780A1219C1EEF9120842740612176C84
:1037C40080027901023E66E0F50AA3E0F50B22745B
:1037D400E81217AE74FB121756E9851982851A830D
:1037E400F08A168B17ECFEEDFF751000741D12178E
:1037F400A2123F35741D1217A21236F08E828F83E7
:10380400A3A3A3E0A2E4502D741D1217A2123482C4
:1038140012080C8A828B83E58245837003023C1470
:10382400790AEEFCEFFDAA16AB171217ACE9F510F6
:103834006003023C17741F1217A2123C4374211236
:1038440017A21237CB74231217A2E0F50EA3E0F5EA
:103854000F8E828F83E064026003023BC2A3123F97
:1038640035850882850983A3858212858313EE2416
:1038740006122C0588828983E0FAA3E0F9EA240081
:10388400F514E439F5157814121A4B0100002801D7
:1038940028B738070002287C390328E9380029B3FF
:1038A4003A0129DE3A02297F3A0329B33A04295D11
:1038B4003BC23BE50E450F6003023BBD850C828590
:1038C4000D83123C38FAE9FB8A828B83E0850A82F5
:1038D400850B83123C6E1219C18A828B83A3E0FC90
:1038E400A3E0023B47E50E450F6003023BBD850A9A
:1038F40082850B837401F0123C4B85088285098311
:10390400F07C007D008E828F83A3A3A3A3E0240117
:10391400FAA3E03400FB1206F8EA4B60418A828B7A
:1039240083E02402F8850A82850B83E028F0EA24E8
:1039340004F8EB3400F988828983E08512828513C8
:1039440083123C80123C6E1219C18A828B83123618
:10395400DCE5082403FAE5093400FB023B4C850A44
:1039640082850B83E02404F07C047D007900AA1294
:10397400AB1312104C023C17E50E450F6003023BDB
:10398400BD123C4BFEA3E0FF850A82850B837404C1
:10399400F0EE850882850983F0EF85128285138312
:1039A400F074031217A2AC82AD83EEFAEFFB120699
:1039B400F88A0C8B0DEA450D7003023A608A828BFB
:1039C40083A3A312288E74011217A285820E858305
:1039D4000F780E1219C174051217A21219D87CFFA0
:1039E4007DFF1206FE740412176C8B0FEA450F70EC
:1039F40033850C82850D83123C231219C1850C82F8
:103A0400850D83A31219D87C027D007A947B9012D1
:103A1400052A740412176CE9700A74011217A2744F
:103A2400FFF0A3F08E828F83E064027039750C027C
:103A3400750D00780C1219C18E828F831236DCE565
:103A4400082404FAE5093400FB1210347402121736
:103A54006C850A82850B83E02402800974011217A5
:103A6400A2EEF0A3EFF074011217A2123C34F0742A
:103A7400011217A2A3123C2C023BB7E50E450F60BE
:103A840003023BBD850C82850D831236DDAA16AB7D
:103A940017120836850A82850B837402F0EA8508BA
:103AA40082850983F0851282851383EB023BBAE594
:103AB4000E450F6003023BBD123C4BF8A3E0F985B1
:103AC4000A82850B837402F0E8850882850983F0F5
:103AD400E9851282851383023BBA850C82850D83A6
:103AE40012348212102EEAFC8C82A882C3950EE452
:103AF400950F405FE8650E7002E50F70047C00804E
:103B040022851982851A83E0FAE50E2AFAE50F3434
:103B140000FBC3EA98EB94005003E08005E50ECC6B
:103B2400C39CFCEC850A82850B83F08C0A750B0020
:103B3400780A1219C1850C82850D83E0250EFCA339
:103B4400E0350FFDAA08AB09121034740212176C89
:103B5400023C17751007023C17E50E450F705A8595
:103B64000C82850D83123F35850A82850B83740789
:103B740012289A123C2C12289AA3E08512828513EB
:103B840083F0E82402FAE93400FB8A828B83123C36
:103B94002C123C5B123C34A3123C64123C3DF0E812
:103BA4002405F8E93400F988828983123C3DA31284
:103BB4003C80A3A3A3A3F0805A75100B8055741DF9
:103BC4001217A21234821207CA8A828B83E58245B5
:103BD40083603D123F35880C890DE8450D603178CE
:103BE4000E1219C1780A1219C178081219C1740683
:103BF4001217A2E0F9EEFCEFFDAA16AB17850C82B2
:103C0400850D831217AC740612176CE9F510800346
:103C140075100EA910740512176C7F10021880E03D
:103C2400F50E750F00780E22E0850882850983223F
:103C3400123C8A22123F39E822123C8AA3A322E0D2
:103C4400F508A3E0F50922850C82850D83E0F8A32D
:103C5400E0F5838882E022A3A3F08A828B83A322E7
:103C6400F088828983A3A3A3A322F08A828B831280
:103C74003C7722E0F50A750B00780A22F0888289E5
:103C840083A3123C8A22E0850882850983A3A322A8
:103C940074EE1217AE74FE1217568A0A8B0BECFAE6
:103CA400EDFB74141217A2E0F510A3E0F5117416DD
:103CB4001217A2E0FE74181217A2E0F50EA3E0F5A5
:103CC4000F851982851A83AC82AD831206F88A0C9B
:103CD4008B0DEA450D6049851982851A8312348259
:103CE4001207CA8A828B83E5824583602FA3A312BD
:103CF4003C43E50845096024780E1219C178101276
:103D040019C1EEF9AC0CAD0DAA0AAB0B850882857E
:103D140009831217AC740412176C8006790E8002A2
:103D2400790102311C74F61217AE74FE1217567420
:103D34000C1217A2123C38851982851A83F074017B
:103D44001217A2E9F0E4F508F50978081219C1750B
:103D5400080278081219C174041217A28582088512
:103D6400830978081219C112081E740612176C749C
:103D74000212176C806874F71217AEEAFEEBFF8923
:103D8400087C197D03120836EA5402600BA908EE78
:103D9400FAEFFB1206EC8002790102279674F61200
:103DA40017AE74FF6A700374FF6B70168C828D8378
:103DB400123DE7E4F08C828D83A3A3A3123DE7A315
:103DC40080181208068A088B09A808A909E849601E
:103DD4000D8882898374FF122898A3A3E4F07F02DC
:103DE40002188074FFF0A3F08C828D83A3A3227445
:103DF400F61217AE1208068A828B83E58245836029
:103E040006A3A3E0FA80027A007B0080D174F21248
:103E140017AE8A088B09ECFEEDFF740E1217A2E0B0
:103E2400F50A1208068A0C8B0DA80CA90DE8497036
:103E340026EEFCEFFD7AFF7BFF1208068A0C8B0D41
:103E4400A80CA90DE8497004791180168882898329
:103E5400E508F0A3E509F088828983A3A3E50AF0C5
:103E640079007F0602188074EE1217AEEAFEEBFFAB
:103E74008C088D09890C74141217A2123F3574161C
:103E84001217A2123482750D00E8496003023F291B
:103E94007402650C6003023F2474121217A2123FCD
:103EA4003FFCA3E0F9EC2400F50EE439F50FEAF445
:103EB400F8EBF4F9EC58F8E50F59F9E849705CE5CA
:103EC400082406F8ED3400F9880A890B8882F58302
:103ED400123F4A1208368A108B11E50E65107004E1
:103EE400E50F65116042780E1219C1850A82850BAF
:103EF40083123F4A12083C740212176CE9F50D70E4
:103F040027780E1219C1850882850983A3A3123F5D
:103F140048120854740212176C800D750D808008C5
:103F2400750D0D8003750D0BA90D0235E18E828F81
:103F340083123F3922E0F8A3E0F922123F39888244
:103F44008983E022A3A3E0FCA3E0FDEEFAEFFB22C9
:103F540074E81217AE74E7121756851982851A830E
:103F6400EAF0A3EBF08C168D17890E75080075091D
:103F74000074311217A2E0F512A3E0F513743312A2
:103F840017A2E0F514A3E0F51574351217A2E0F5B5
:103F94000FE50975F003A4F8A9F0851982851A8341
:103FA4001240BEE0F47003A3E0F470030240A1EEFB
:103FB4002402F50CEF1240B4E070030240A1851610
:103FC4000A85170B780A1219C1AC14AD15AA12ABE5
:103FD400131207BE740212176C8A0A8B0BEA450B84
:103FE40070030240A1E4F510F51178101219C174A0
:103FF400061217A285821085831178101219C174D4
:10400400091217A285821085831178101219C185AF
:104014001282851383A3A3A3A31219D87914AC0A1B
:10402400AD0B8E828F831234821208187408121713
:104034006CE97069850A82850B83A3A3A3A3123F4D
:104044003574021217A21236F0850C82850D83E0B6
:10405400A2E05018A90E74021217A2AC82AD838E8E
:10406400828F83123482120710E94208850C8285FC
:104074000D83E0A2E15026E50FF50A780A1219C56E
:10408400A90E74031217A2AC82AD838E828F8312A1
:10409400348212070A740112176CE942080509E513
:1040A40009C394025003023F95A9087419023C1BEA
:1040B4003400F50D850C82F58322E028FEA3E03957
:1040C400FF8E828F832274F21217AEEAFEEBFF8911
:1040D4000B7401650B600E7402650B706A79011232
:1040E4000A16E97062EEFAEFFB1208008A088B09DF
:1040F400EA45096047750A00800B7C177D0079004A
:1041040012104C050A9002E6E0F8E50AC398502123
:10411400E50A75F017A4F8A9F0850882850983A338
:10412400A3E028FAA3E039FB8A828B831229EA7080
:10413400C985088285098374FFF0A3F07C197D0387
:10414400EEFAEFFB120830023E6674F21217AE8AE2
:10415400088B09ECFEEDFF740E1217A21237CB90F8
:1041640009E7E0F4603D7A097B0012105EEA4B60D7
:10417400328A828B8374B1F0A3E4123C5DA3123CB7
:104184005BA3E508F0A3E5091241AAEEF0A3EF1240
:1041940041AAA3A3E50AF0A3E50BF09009E7E0F92F
:1041A40012106A023E66F08A828B83A3A3A3A3A3A0
:1041B4002274F01217AE74FA121756890BECFEED46
:1041C400FF750A008A088B097808121A0500041082
:1041D400E843F84116423042484266427E42A142D8
:1041E400B942CD42F7427F439043A743C243E843D9
:1041F400E8430D437401650B60030243E38E828F31
:1042040083E0F8C3940340030243E3E8900AD30233
:1042140043BF7402650B60030243E38E828F8312F3
:104224004AE5900AD4E8F0A3E90243BF7401650BA0
:1042340060030243E312441040030243E3E890079F
:10424400660243BF7401650B60030243E38E828FF1
:1042540083E0F8C3940540030243E3E89007670250
:1042640043BF7401650B60030243E312441040032F
:104274000243E3E89007680243BF7410650B6003D0
:104284000243E375081075090078081219C17A69A8
:104294007B07121034740212176C0244097401650E
:1042A4000B60030243E312441040030243E3E8902B
:1042B40007790243BF7401650B60030243E38E82F6
:1042C4008F83E0900AD70243BF7404650B60030236
:1042D40043E38E828F83780C12162690905F780CBD
:1042E40012145950030243E390077B780C121635DD
:1042F400024409E960030243E3120698E9700512D7
:1043040011CC806090080E806E7407650B60030208
:1043140043E375080675090078081219C18E828F67
:1043240083A3AC82AD8374021217A2AA82AB831258
:10433400103A740212176C7C007D00851982851A6C
:1043440083AA82AB838E828F83E0F9121172E9F51E
:1043540008C3940A4003024406120698E9700CA9A3
:10436400081211D27950121382806F740F2508F548
:104374008274083400F583740180407401650B7005
:104384005E1244105059E890077A802F7401650B2F
:10439400704D8E828F83E0F8C3940A5042E8900AED
:1043A400D680187401650B70368E828F83E0F874A2
:1043B400F928C3940A5028E8900AD8F08047740179
:1043C400650B701B90080DE0F88E828F83E09008D7
:1043D4000DF0E87030E06401702B1211C080267576
:1043E4000A188021C3EA9427EB94005015740265DF
:1043F4000B700F8E828F83124EE4120536E9F50A94
:104404008003750A02A90A7406024ADA8E828F832F
:10441400E0F8C394022274F01217AE74CC1217564B
:104424008C0A8D0B74201217A2AC82AD8375838F16
:104434007582E0740612166974201217A2AC82AD5C
:1044440083121172E9F50874441217A2E0FEE9C35D
:10445400940A400302458875F006E9A4F509742618
:104464001217A2AC82AD837A0E74202509F91213B7
:104474007CE9700974321217A2E0FF80027F009079
:104484000AD3E06402700474018001E4F50D780D30
:104494001219C5EEFDEFFCA908AA0AAB0B1211F61E
:1044A400740112176C7C147D007900740C1217A22D
:1044B400AA82AB8312104C740C1217A2AC82AD8387
:1044C4007A1074242509F912137CE9703C7C107964
:1044D400FF740C1217A2AA82AB831210B2E97029DE
:1044E400741C1217A2AC82AD837A0474252509F9D1
:1044F40012137C740C1217A2AC82AD83EFA2E0E419
:1045040033F9AA0AAB0B1205C0851982851A83AC4C
:1045140082AD837A0C74702508F912137CE9705308
:10452400851982851A83AA82AB831211A2750800A9
:10453400E50875F003A4F8A9F0851982851A83E5C6
:104544008228F8E583124CEE124EDE601D888289C3
:1045540083A3A3E0F50E750F00780E1219C1AA0A01
:10456400AB0B120824740212176C0508E508C394F7
:104574000440BDEFA2E1500C900765E0F9AA0AAB34
:104584000B12082A74046E7027900AD3E064027038
:104594001F7A00900779E060010A900766E06004E2
:1045A400780480027800E84AF9AA0AAB0B12068064
:1045B40079007434024ADA74F01217AEEAFEEBFFA3
:1045C4008C088D09750A0AE9600C146009146037B7
:1045D40014607902466A1211B4E9F50AC3940A40D8
:1045E4000302466AE5084509607C750E06750F00EE
:1045F400780E1219C1EEFCEFFDAA08AB09121034B3
:10460400740212176C805F750B00750E06750F002F
:10461400780E1219C1EEFCEFFDE50B75F00EA4F84F
:10462400A9F0748728FA740739FB12104674021231
:10463400176CE9600C850B0AE50AC3940A502780BD
:1046440016050BE50BC3940A501C80BE1211BAE97F
:10465400F50AC3940A500FE50845096009AA08AB96
:1046640009A90A1211AEA90A024ADD74F41217AE9E
:10467400890875091574FF6A700374FF6B70277ECF
:1046840000AC087A027B00EEF9121190E960037520
:1046940009000EEEC3940A40E8E50860537AE47B0F
:1046A40011120A28804A120A0A8A0A8B0BAE0AAF30
:1046B4000BEE4F60387C007D00EE2405FAEF3400E9
:1046C400FB8E828F83A3A3A3A3E0F9121172E9C323
:1046D400940A500CAC087A027B0012119075090000
:1046E400E508600CEEFAEFFB1211E480037509147F
:1046F400A9098005740E12176C7F0402188074F2E5
:104704001217AEECFEEDFF750815740E1217A2E039
:10471400F50AA3E0F50B74FF6A700374FF6B702154
:10472400750900AC0AAD0BEEFAEFFBA9091211965C
:10473400E960037508000509E509C3940A503F8040
:10474400E2120A0A8A828B83E5824583602D7C000B
:104754007D00E5822405FAE5833400FBA3A3A3A32B
:10476400E0F9121172E9C3940A5013AC0AAD0BEECE
:10477400FAEFFB1211967508008003750814A90856
:10478400025520C082C08390077FEAF0A3EBF0902B
:104794000765E0FC7D007A267B00120536900765EC
:1047A400E0F91207A002537B74F01217AE74EC12F6
:1047B4001756EAFEEBFFEE240CF50CEF3400F50D72
:1047C400EE2405F50EEF3400F50FEE2409F50AEF9B
:1047D4003400F50BEE2403F508EF3400F5098E825E
:1047E4008F83A3A3E024FA7003024A7E24FD70039E
:1047F40002499914700302488514601024FD700363
:104804000249701470030249CD024AD612571B6044
:1048140048E0F5838882124AE5880E890FE8450F3F
:104824006037850C82850D83E0F50C780C1219C570
:10483400EE240BF582EF124CB5F9850A82850B83C1
:10484400124EE40A0A0AAB09850E82850F831217F9
:10485400AC740112176C024AD6850A82850B831246
:1048640019D890077B1216441205D2740212176CE1
:10487400E97003024AD67901850A82850B83024ACC
:10488400498E828F83A385820A85830BE0600302AD
:104894004953850E82850F83E0A2E0400302495309
:1048A40090081912571E60030249537C0E7D00794B
:1048B40000851982851A83AA82AB8312104C850C59
:1048C40082850D83125346EA4B6010750C06750DF4
:1048D40000780C1219C1EA2410801B125340120AEA
:1048E4000AEA4B7003024AD6750C06750D00780C63
:1048F4001219C1EA2405FCEB3400FD74021217A25C
:10490400AA82AB83121034740212176C850E82854E
:104914000F83E0A2E25004D2F08002C2F0A2F0E4DD
:1049240033F8740C1217A2E048F0EEFCEFFD851981
:1049340082851A83AA82AB831211A8E970117A02C4
:104944007B00900765E0F912108E7900024AD812B4
:10495400571B7003024AD6124AEB7003024AD685EB
:104964000A82850B83E0FC7901024A7212571B709C
:1049740003024AD6124AE2890BE8450B7003024A45
:10498400D68E828F83A3E0FC7902125340888285FD
:104994000B83024A797C007D00EE2404FAEF340094
:1049A400FB850882850983E0F9121172E9F8C39442
:1049B4000A4003024AD6EE240AFCEF124EBAE8A4D7
:1049C4002425F9121376024AD612534090077AE04E
:1049D4006007900AD6E0F9806F900AD3E0700479FA
:1049E400058065120A0A8A0C8B0DA80CA90DE8240F
:1049F40004F50CE93400F50D8E828F83A3A3A3A3E1
:104A0400A3A3A3E0A2E05046E8497003024AD68576
:104A14000C82850D83E0FE6035850A82850B83E078
:104A24005410702A740E1217A2AC82AD83E82405C8
:104A3400FAE93400FBEEF9121172E9701179038579
:104A440008828509831253461205CC024AD6AC0E5D
:104A5400AD0F850C82850D83E0F91253401211F0DD
:104A640012571B606D124AEB60687C007900125388
:104A7400408E828F831217AC8058120698E97052C8
:104A840090080EE0640170151211CC90080EE4F049
:104A94007C0AFDF97A0F7B0812104C802D750A00F0
:104AA400850A08740F2508FE74083400FF8E828F6F
:104AB40083E06401700BA90A1211D28E828F83E401
:104AC400F0050AE50AC3940A40D6795012138212FB
:104AD40011C07901741412176C7F08021880124AED
:104AE400FAE0F8A3E0F922124AFAE0F8A3E0F9E8C0
:104AF400FEE9FFEE4F22E0F5838882A3A32274F43B
:104B04001217AE74F2121756EAFE8C0B75F006E912
:104B1400A42420F508851982851A83AC82AD837A92
:104B24000EF912137CE970577C0679FF851982858A
:104B34001A83AA82AB831210B2E97043740C121761
:104B4400A2124AE5E8F509E50B6005EE4209800486
:104B5400EEF45209850982AA82E86A7001E9601BB1
:104B6400740C1217A2EAF0A3E4F0851982851A8363
:104B7400AC82AD837A0EA90812137679018002798A
:104B8400000246F874F21217AE74E6121756890A38
:104B94008A088B09ECFEEDFF740C1217A2AC82ADEF
:104BA400837A0E75F006E9A42420F912137CE960D7
:104BB40003024CA87C0679FF740C1217A2AA82ABDC
:104BC400831210B2E96003024CA87470250AF50B35
:104BD400851982851A83AC82AD837A0CF912137C11
:104BE400E96003024CA4851982851A83AA82AB83E7
:104BF4001211A2E5084509702C7C0C7900851982F4
:104C0400851A83AA82AB831210B2E96003024CA412
:104C14007C0C7D007900851982851A83AA82AB8376
:104C240012104C805D851982851A83AC82AD83AAEB
:104C340008AB0912119C8A0C8B0DA80CA90DE8492C
:104C44007028EE4F605E851982851A83AC82AD832D
:104C54007A007B0012119CEAF8EBF9EA4B60458874
:104C6400828983E508F0A3E509F0124CAFFAEE6AF5
:104C74007001EF602BEEF04F700888828983E4F0B6
:104C8400A3F0851982851A83AA82AB831211A285A7
:104C94001982851A83AC82AD837A0CA90B12137620
:104CA400790180027900741A02551DE82402F58204
:104CB400E93400F583E02274F71217AE7F00EF7534
:104CC400F003A4F8A9F0EC28F8ED124CEEE06A70B9
:104CD40003A3E06B7006E8FAE9FB800B0FEFC394C3
:104CE4000440DB7A007B0002509939F98882898379
:104CF4002274F71217AE7E00EE75F003A4F8A9F043
:104D0400EA28F8EB124CEEE0F4FCA3E0F4FD888210
:104D14008983ECF0A3EDF0124CAFF4F00EEEC394E3
:104D24000440D502509974F21217AE74F412175657
:104D3400EAFEEBFF8C088D0990081912571E70517A
:104D4400EE4F7003024EB3EC45097003024EB312EA
:104D540011B4E9900AD9F0C3940A4035750B007C6C
:104D64000679FFE50B75F00EA4FAABF074812AFA0C
:104D740074073BFB1210B2E96005850B0A800C0531
:104D84000BE50BC3940A40D7750A0AE50A900AD9C1
:104D9400F0900AD9E0C3940A4003024EB375F006BA
:104DA400E0A4FB90081912571E706FEEFCEFFD7A19
:104DB4000E74202BF91213767C0C7D0079FF851973
:104DC40082851A83AA82AB8312104C851982851AB4
:104DD40083AC82AD837A0C900AD9E02470F9121363
:104DE40076750C0E750D00780C1219C1EEFCEFFDF2
:104DF400900AD9E075F00EA4F8A9F0748128FA7429
:104E04000739FB121034740212176C900819E50864
:104E1400F0A3E509F07900024EB5E0C82406124E6D
:104E2400D7601A7A1B74212BF9121376124EC324FD
:104E340006F582E83400F583E4F0A380D7124EC36C
:104E4400240A124ED760107A1B74222BF91213769F
:104E5400124EC3240A80DA124EC3240C124ED760B9
:104E6400107A1074232BF9121376124EC3240C807B
:104E7400C0124ECC124ED7602A7A1074242BF91229
:104E84001376124ECCF582E8124CB52410FCA3E044
:104E9400124EBA900AD9E0A42425F9121376124EC0
:104EA400CC808E90080DE060031211FC1211EA7997
:104EB40001740C02551D3400FD7A0475F00622902D
:104EC4000819E0F8A3E0C822900819E0F8A3E0C8A4
:104ED400240822F582E83400F583124EE4EC4D22D6
:104EE400E0FCA3E0FD2274F41217AE74F21217561C
:104EF400EAFEEBFFE9C3940A5004EE4F7004790212
:104F0400803E851982851A83AC82AD837A0E75F052
:104F140006E9A42420F912137CE9F5087020750A27
:104F240006750B00780A1219C174021217A2AC821A
:104F3400AD83EEFAEFFB121034740212176CA90859
:104F44000246F874F41217AEEAFEEBFF750800751A
:104F54000A06750B00780A1219C1EEFCEFFDE5088C
:104F640075F00EA4F8A9F0748128FA740739FB12BD
:104F74001046740212176CE96004A908800B050836
:104F8400E508C3940A40C8790A0246FD74F712176B
:104F9400AE74F0121756EAFEEBFF7508008519820D
:104FA400851A83AC82AD837A1075F006E508A424D3
:104FB40023F912137CE9702C7C1079FF8519828502
:104FC4001A83AA82AB831210B2E97018EEFCEFFDCB
:104FD400851982851A83AA82AB831205A2E970041B
:104FE400A908800B0508E508C3940A40B0790A743F
:104FF4001012176C02509974F71217AE750800E579
:105004000875F00EA4F8A9F0748128FE740739FF1E
:10501400EEFCEFFD7A0E75F006E508A42420F912E3
:10502400137CE9602C7C067D0079FFEEFAEFFB121D
:10503400104C7C067D0079FFEE2406FAEF3400FB69
:1050440012104CEE240CF582EF3400F583E4F0A347
:10505400F00508E508C3940A40A590080DE0600334
:105064001211FC1211EA802D74F71217AE7E007F24
:10507400007C0679FFEF75F00EA4FAABF074812A78
:10508400FA74073BFB1210B2E970010E0FEFC394E0
:105094000A40DEEEF97F0102188074F71217AE7E23
:1050A40000EEF91211D20EEEC3940A5003E960F136
:1050B40080E374F31217AE74CB121756E9FE900A0C
:1050C400D9E06E701B7A017B00900765E0F912103D
:1050D400947A027B00900765E0F91210941212088A
:1050E40075F006EEA4FF74202FF50874271217A29A
:1050F400AC82AD837A0EA90812137CE960030251D5
:10510400F07C0679FF74271217A2AA82AB831210CF
:10511400B2E960030251F07C0E7D0079FF7427121E
:1051240017A2AA82AB8312104C7C1B7D0079FF74FA
:105134000C1217A2AA82AB8312104C7C0C7D00794E
:10514400FF851982851A83AA82AB8312104C7427B7
:105154001217A2AC82AD837A0EA908121376E9F570
:1051640008740C1217A2AC82AD837A1B74212FF938
:10517400121376E9F509740C1217A2AC82AD837A86
:105184001B74222FF9121376E9F50A740C1217A274
:10519400AC82AD837A1074232FF9121376E9F50BE0
:1051A400740C1217A2AC82AD837A1074242FF912F6
:1051B4001376E9F50C740C1217A2AC82AD837A0451
:1051C40074252FF9121376E9FF851982851A83ACA9
:1051D40082AD837A0C74702EF9121376E9F8E5091E
:1051E400450A450B450C4F4842088003750800A941
:1051F40008743512176C7F0502188074F71217AE05
:10520400E9900765F01211C002509974F41217AEB8
:10521400EAFEEBFF548070030252A7900765E0F9A1
:105224001210768A088B09EA4509607078018A822F
:105234008B83E02450603D14600624E1604F80526B
:10524400A3A3A3A3E0704E8A828B83A3A3A3A3A3E7
:10525400A3A31219D88A828B83A3A3A3A3A3124E58
:10526400E48A828B83A3A312534612117E74021222
:10527400176C8021A3A3A3A3E0641E701879008A8D
:10528400828B83A3A3125346121178800812118AC9
:10529400E9F8E86007AA08AB09121064EEFAEF64B3
:1052A400808065EE540260237C007D007A007B00E0
:1052B4001211A8E960117A017B00900765E0F912E8
:1052C400108EEE6402803F7A028046EEA2E0503FE8
:1052D40012531A125346121202E9602F12571B601E
:1052E4001F124AE288088909E8450960137C00799D
:1052F4000112531A1253468508828509831217AC8A
:10530400121208EE6401FAEFFB80087A0180027A37
:10531400007B000246FD900819E0F8A3124AFAA3A4
:10532400227F02021880C082C083900765E0F98A58
:10533400828B83A312534612082A803B85088285F8
:105344000983E0FAA3E0FB22C082C08374FF121732
:10535400561211C6E9C39402851982851A83400442
:1053640074028002740AF0AC82AD837A017905126A
:1053740006B0740112176CD083D08202013274F229
:105384001217AE74E8121756EAFEEBFF890A8C086E
:105394008D097C187D007900851982851A83AA827B
:1053A400AB8312104C851982851A83EEF0A3EFF0BB
:1053B400900767E0C0E074021217A2D0E0F09007F3
:1053C40068E0C0E074031217A2D0E0F0900AD8E0BD
:1053D400C0E074171217A2D0E0F074151217A2E0FF
:1053E40054FEF8A3E0F9900AD7E0A2E0E433FAE827
:1053F4004AF874151217A212552CA2E15004D2F0E7
:105404008002C2F0E854FDFAA2F0E43333F8EA482B
:10541400F874151217A212552CA2E35004D2F0808E
:1054240002C2F0E854F7FAA2F0E433F50C750D006B
:105434007403780C1217431255251217A212552C17
:10544400A2E45004D2F08002C2F0E854EFFAA2F0D1
:10545400E433F50C7404780C121743125525121713
:10546400A212552CA2E55004D2F08002C2F0E854F6
:10547400DFFAA2F0E433F50C7405780C121743122A
:1054840055251217A212552CA2E25004D2F0800224
:10549400C2F0E854FBFAA2F0E433F50C7402780C81
:1054A4001217431255251217A2E8F0A3E9F090074A
:1054B40068E0601D750C10780C1219C17C697D07B9
:1054C40074061217A2AA82AB831210347402121744
:1054D4006C900779E06011E50A600974151217A24F
:1054E400E04402F078018002780074141217A2E0FC
:1054F40048F0900766E06004780480027800741431
:105504001217A2E048F0AC08AD09851982851A8308
:10551400AA82AB831205C6741812176C7F06021890
:1055240080EA450CF8741522E8F0A3E9F0900AD754
:10553400E02274F31217AE74E5121756EAFEEBFF7D
:105544008C098D0A74281217A2E0F50C75F006E98F
:10555400A4F87408650A700474228002742128F582
:105564000B7C1B7D007900851982851A83AA82AB86
:105574008312104C851982851A83AC82AD837A1B01
:10558400A90B12137CE97032741A1217A2E024F9E1
:10559400C3940A5025E50CF50B780B1219C5740158
:1055A4001217A2AC82AD83E509A2E0E433F9EEFA66
:1055B400EFFB1205D8740112176C741B0251F774B7
:1055C400F71217AE1208A2750800E50875F00EA4CC
:1055D400F8A9F0748128FE740739FF7C0679FFEE80
:1055E400FAEFFB1210B2E97009EEFAEFFB79001240
:1055F40008A80508E508C3940A40CF02509974F638
:105604001217AE74FD121756EAFEEBFF90081B1238
:10561400571E703975081D75090878081219C17567
:10562400080275090078081219C175088C7509906B
:1056340078081219C17CFF7DFF7A017B001206F203
:10564400740612176C90081BEAF0A3EBF090081B89
:1056540012571E7003025705E4F508F5097808127D
:1056640019C174041217A285820885830978081267
:1056740019C174041217A285820885830978081257
:1056840019C190081D1219D8790290081B125713DA
:10569400120818740812176CE97034851982851A77
:1056A40083E0FA74011217A2E0F9EA2400F508E491
:1056B40039F509EA4509601778081219C190081BE1
:1056C40012531DA312571312117E740212176CE4A5
:1056D400F508F50978081219C190081D1219D87C2B
:1056E400FF7DFF90081B1253461206FE7404121726
:1056F4006C90081BEAF0A3EBF090081B12571E7085
:1057040004790180027900740312176C0253251284
:105714004EE4EEFAEFFB2290077FE0F8A3E0F9E80D
:105724004922C082C08390081912571E6010900845
:1057340019125346121064900819E4F0A3F0900A69
:10574400D9740AF002537BC082C0839061907404C0
:10575400F0A37448F0A3E4F09061807440F0906189
:10576400BC7407F09061877469F09061B67416F0A8
:105774007900120B127902120B1890274CE493F45F
:105784006006E493F9120AEE7905120E18025B46DC
:10579400C082C083E9540FF9906185E0696012E525
:1057A400C654804449F5C6E59E547F644970F8E9BF
:1057B400F053C680E59E547F70FA025B4674F7127C
:1057C40017AEE5A8FE53A87E120AFAC2BA539AFE8F
:1057D400C289759B00C2C2120B0075A91175B90567
:1057E400120B06D2BA439A0174805E42A80260DDAD
:1057F400C082C083906181E4F0A3025B4375E90039
:1058040075910075BF00020132C082C0839061812E
:10581400E4F0A374C0F0A3E4025B45C082C08374C7
:10582400F81217569003A4126A7670030258FE9079
:1058340003A4E0544060237908851982851A83AA59
:1058440082AB83120C0E851982851A83AA82AB83DC
:105854001208C69003A4E054BFF0E05480601079AD
:105864000C7A657B05120C0E9003A4E0547FF0E0E3
:10587400A2E0500F7900120B121208CC9003A4E09E
:1058840054FEF0E05402600F7901120B121208CC9E
:105894009003A4E054FDF0E05404600F7900120B6F
:1058A400181208D29003A4E054FBF0E05408600FEF
:1058B4007901120B181208D29003A4E054F7F0E017
:1058C4005410600F7902120B181208D29003A4E04E
:1058D40054EFF0E05420600F7903120B181208D231
:1058E4009003A4E054DFF0A3E05401600D120B24F4
:1058F4001208D89003A5E054FEF0740812176C0245
:105904005B46C082C083E9600514602A804F9061C1
:105914009A7433F0A37455F09061A0743AF0900532
:105924003FE064017009C2919003A67467802D90D2
:1059340003A67461802690619A743FF0A3745AF0B0
:105944009061A0747FF090053FE064017009D291EA
:105954009003A6747180059003A6746AF0025B46F6
:10596400C082C083E9600B14600D14601714600CCE
:1059740080209027508015902751801090053FE09B
:10598400640170059027528003902753E49390613B
:1059940086F0025B4674EE1217AE74F41217568545
:1059A4001982851A83AC82AD8375839075823B74AA
:1059B4000412166990275093F46003025AC3907836
:1059C40008E0C394025003025AA374041217A2AC51
:1059D40082AD8375838F7582B27408121669FC7E5A
:1059E400FF7FFF8E0C7D008C8285820E800F7408F1
:1059F4006D606D74096D6068740A6D60638D0875FF
:105A0400090074027808121743125ACD121626A9F7
:105A140009E50AC9F8881074187808121567E510A2
:105A24004508FAE9FBE50EC333F8E433F9740412CC
:105A340017A2E58228F582E58339125FCDC3E89A7F
:105A4400E99B4008E8C39AF8E99B8006EAC398F802
:105A5400EB99F9C3E89EE99F5006E8FEE9FF8D0C37
:105A64000DEDC39413408774FF6E700374FF6F6071
:105A740024850C0874027808121743125ACD1216A2
:105A840026851982851A83E582250EF582E583121F
:105A9400646CE508F00CECC3940450030259E375FC
:105AA400080175090078081219C174021217A2AC12
:105AB40082AD837AD47B0912124A740212176C7471
:105AC4000C12176C7F0A02188074482508F582743A
:105AD400783509F583780822C082C083906186E016
:105AE400F8902753E493687009902752E4939061E7
:105AF40086F09061AE7468F0A3746AF090624574A5
:105B0400FBF0A304F053F4FD43FE0290053F74013F
:105B1400F09061A0E0643A70047900800279011287
:105B24000B12025B46C082C0839004F1E0640170F2
:105B34000A9004F6E06004790C800279008003F096
