:020000040000FA
:0600000002010702282C9A
:03002B00022CA004
:03003300022D2B70
:03003B00022CC1D3
:03004300022C3755
:030053000228A2DE
:03007B00022C5DF7
:100083000226DBE5C754F84401F5C77901220000D5
:100093000080FB120086B900030200F1E4792178A5
:1000A3000FB800028004F709D8FCE479307802B86D
:1000B30000028004F709D8FCE4900281783B790FB1
:1000C3008002F0A3D8FCD9FA7ABB7B109001377871
:1000D3006179028015E493A3AD82AE838A828B8318
:1000E300F0A3AA82AB838D828E83D8E9D9E7758288
:1000F300477583D374041201197582917583007453
:100103000012011975D00075813F751981751A02A6
:10011300759F00020096C09FF59FE473D09F22D085
:1001230083D082C09FE493C0E0740193C0E0740263
:1001330093F59F2271048304AD047704FF0000B498
:10014300000028002800283075A000A000A000A00F
:100153000000080008E001F000100010001000107B
:10016300001000100050005000500010001000D08C
:10017300070000000000000F0001000500307507B4
:10018300001000010081FF00000000FF1506330688
:100193001B06FF02020208025000A0000000E80351
:1001A30002469101000035910240910100001A11AD
:1001B300023A91010000BA020240910100001B11B2
:1001C300023C91010000D0020240910100001C1189
:1001D300023E91010000D2020240910100001D1174
:1001E300024E91080000D3020240910100001E114B
:1001F3000242910100001F11FFFF0100FF20024690
:1002030091010000329102409101000084110244E7
:10021300910000000000023891030000B4038F1026
:100223008F108F108F108F108F108F108F108F10D3
:100233008F108F108F108F1011132F130B134F1458
:1002430067144914FF544920424C4520416C6C000B
:10025300000000000000000000001100FF00000388
:1002630030003100320033003400350036003700EF
:1002730038003900300031003200330034003500DB
:1002830036003700380039007F1AD41AD41AD41A2A
:10029300D41ADC1A12012242C3041201227FC304BE
:1002A30012012295C304120122C4C304120122FACB
:1002B300C30412012211C40412012228C40412012E
:1002C300225BC40412012292C404120122E5C40475
:1002D300120122FCC40412012213C5041201222BB1
:1002E300C50412012242C50412012273C50412017E
:1002F30022AEC504120122D8C50412012202C6048B
:1003030012012219C60412012230C6041201224727
:10031300C60412012270C60412012283C60412010C
:100323002299C604120122ACC604120122D3C604C8
:10033300120122A3A702120122A7A802120122D4AA
:10034300A8021201221FA9021201222AA9021201E4
:10035300224DA90212012261A90212012290A902CF
:1003630012012292A902120122B5A902120122BB93
:10037300AA02120122FFAB02120122C3AC02120134
:100383002298AD0212012209AE0212012295AE0299
:1003930012012298AE0212012220AF021201225B47
:1003A300AF02120122C2AF02120122C5AF02120133
:1003B30022FCAF0212012225B002120122D0B002A8
:1003C3001201225AB102120122A9B102120122B66C
:1003D300B102120122B9B10212012219B2021201B1
:1003E300221CB20212012255B202120122A0B20251
:1003F3001201221FB30212012222B3021201226C44
:10040300B3021201226FB302120122E6B3021201F8
:1004130022E9B30212012278B4021201227BB40250
:100423001201220AB5021201221AB5021201224A4E
:10043300B50212012257B5021201225AB502120166
:1004430022DBB502120122E8B502120122D6B6025E
:1004530012012288B702120122D5C603120122CD4E
:10046300C70312012201C80312012283C803120128
:1004730022A3C803120122EBC8031201223EC903BF
:10048300120122A2C9031201222FCA03120122E977
:10049300CA03120122F8CD0312012283CF031201F2
:1004A30022A6CF031201228DA0041201222AA20444
:1004B3001201227AA2041201224AA304120122A9E0
:1004C300A304120122B7A304120122E0A304120120
:1004D3002200800412012228800412012256800483
:1004E3001201228D8004120122EB80041201227971
:1004F3008204120122C482041201220F8304120116
:10050300224F8304120122958304120122C3830420
:100513001201228084041201228A84041201229788
:100523008404120122CA8404120122968504120152
:1005330022A28504120122BA8504120122C4850471
:1005430012012242860412012231CF041201223FFA
:10055300CF0412012257CF041201226FCF041201DC
:100563002287CF04120122B7C70212012263C802F5
:10057300120122DEC802120122FFC9021201223B2C
:10058300CA02120122D5CA021201227ECB02120133
:100593002265CC02120122C9CD0212012220CE0211
:1005A300120122A1CE0212012291CF02120122DEF8
:1005B300CF0212012264D00212012296D00212014C
:1005C30022AAD202120122ECD2021201220AD3027F
:1005D3001201228DD30212012261D40212012229B7
:1005E300D50212012236D702120122CFB103120122
:1005F30022A2B2031201224BB30312012297B303C7
:100603001201224EB40312012267B40312012281A4
:10061300B40312012231B503120122BDB503120145
:1006230022A9B603120122D8B603120122EBB703A3
:1006330012012233B803120122F4B8031201225823
:10064300B903120122BBB903120122EBB903120150
:100653002265BA0312012208BC0312012244BC031F
:1006630012012260BC03120122D7D1041201221C01
:10067300A90412012232A90412012258A904120169
:100683002274AA041201227EAA04120122B3AB042B
:10069300120122ABAC04120122B5AC041201228177
:1006A300FA03120122B1FB03120122E4FB0312013C
:1006B300222EFC03120122F5FD03120122E9D501CA
:1006C30012012262D60112012272D601120122D432
:1006D300D60112012265D7011201224BD801120162
:1006E3002277D801120122B4D801120122CBD801FA
:1006F30012012257D90112012261D9011201227379
:10070300D901120122ABD9011201220EDA01120121
:10071300226DDA01120122B0DA01120122BBDA01E1
:10072300120122C6DA011201227DDB0112012280AD
:10073300DB0112012283DB0112012286DB0112019C
:100743002289DB0112012273DC01120122D6DC01B2
:1007530012012238DD01120122D6DD01120122F637
:10076300DE01120122DDE00112012296E2011201F3
:100773002272E30112012226E40112012263E7013E
:1007830012012211E80112012280E9011201220063
:10079300EB01120122A7EB01120122F0EB0112017E
:1007A3002227EC01120122C4EC011201224FED01B8
:1007B3001201224FD702120122A4D70212012203EF
:1007C300D90212012213D90212012240D9021201C5
:1007D300229CD902120122A3DA021201226DDB024A
:1007E300120122CDDC0212012210DD02120122B518
:1007F300DD0212012202DE0212012228DE021201B0
:100803002236E0021201223BE00212012240E20200
:100813001201228DE20212012200E30212012233AD
:10082300E302120122D5E3021201227EE402120145
:1008330022B6E402120122B9E40212012201E50206
:1008430012012243E5021201229AE5021201227EDD
:10085300B60412012291B6041201229FB6041201BA
:1008630022E7B604120122FDB60412012244B704A2
:1008730012012258B804120122E5B80412012230F1
:10088300B90412012235BD0112012245BD01120135
:1008930022A8BD01120122EDBD01120122A3BE0156
:1008A3001201227EBF01120122A7BF01120122D72A
:1008B300BF0112012217C201120122FEC30112015C
:1008C30022D6C5011201221AC70112012281C901D0
:1008D3001201228FCA01120122E1CB01120122EB84
:1008E300CC011201222DCD0112012265CD0112018D
:1008F3002287CD01120122EACD01120122ACD201DD
:1009030012012246D30112012284D301120122A330
:10091300D301120122FDD301120122FDD4011201E0
:100923002282D5011201222CEE0112012236EE01A0
:10093300120122DAEE011201221DEF01120122310E
:10094300EF0112012269EF01120122B2EF0112013C
:1009530022DBEF0112012220F00112012269F001D2
:1009630012012291F0011201221AF101120122D384
:10097300F101120122E9F10112012225F201120112
:10098300224DF20112012285F201120122B8F20175
:10099300120122EFF2011201220EF301120122379A
:1009A300F301120122B0F301120122C5F301120176
:1009B30022DAF301120122EFF30112012224F401DE
:1009C3001201225EF40112012282F4011201224B70
:1009D300F50112012261F50112012280F5011201D4
:1009E3002293F501120122A8F501120122BDF5019E
:1009F30012012233F60112012247F6011201229F4E
:100A0300F601120122AEF6011201220AF7011201C8
:100A13002244F70112012279F701120122A5F701FD
:100A2300120122D3F70112012206F8011201221B3F
:100A3300F80112012230F80112012260F8011201BB
:100A430022ABF8011201220AF9011201224BF9012A
:100A530012012287F901120122B2F90112012221A6
:100A6300FA011201225EFA0112012289FA0112012E
:100A730022B9FA01120122E4FA011201220EFB014A
:100A830012012245FB011201227AFB01120122B756
:100A9300FB01120122E1FB0112012211FC011201EF
:100AA300223BFC0112012265FC0112012290FC0190
:100AB300120122B9FC0112012210FD01120122527E
:100AC300FD011201227DFD01120122E1FD0112014E
:100AD300220BFE0112012236FE0112012261FE01E8
:100AE30012012291FE01120122DAFE0112012204F7
:100AF300FF0112012229FF01120122B0FF0112019D
:100B030022CACB041201221DCC04120122F9B7021E
:100B130012012227B80212012282B90212012262B3
:100B2300BA0212012281BA02120122FEBA02120192
:100B33002241BB02120122BCBC021201222BBD02C4
:100B430012012256BF02120122DAC1021201228BC4
:100B5300C20212012281C30212012221C402120124
:100B6300221FC50212012279C60212012204C70202
:100B730012012279C7021201222CCA041201229502
:100B8300CA04120122E9CA041201220BCB04120186
:100B93002232CB0412012263CB0412012284CB0440
:100BA300120122209C041201228D9C04120122D4E2
:100BB3009C04120122EC9D04120122E89E041201FE
:100BC30022CB9F041201224ADA031201228CDA0398
:100BD3001201225EDB0312012237DC0312012231F0
:100BE300DD0312012213DE031201227CDE03120154
:100BF3002213DF0312012230DF031201224CDF0331
:100C0300120122F5DF0312012269E003120122D54A
:100C1300E003120122D8E00312012201E1031201D1
:100C2300227BE10312012214E20312012279E2037F
:100C33001201228EE203120122D4E203120122EDF9
:100C4300E20312012252E30312012255E3031201CC
:100C53002211B0041201224DB0041201228BB00400
:100C630012012255B104120122C4B104120122FF60
:100C7300B1041201223DB2041201226DB204120129
:100C83002294B20412012202B304120122529101EE
:100C93001201224193011201220496011201224002
:100CA30096011201226D96011201225A9701120137
:100CB300229D9701120122E49701120122F6970166
:100CC300120122369801120122779801120122861D
:100CD3009801120122B39801120122FE9801120118
:100CE300223599011201228F9901120122B599012E
:100CF300120122E999011201220C9A01120122AA7E
:100D03009A01120122E29A011201225C9B01120153
:100D130022AE9B011201223B9C01120122B79E01CC
:100D2300120122E49F0112012251A001120122C9E2
:100D3300A001120122DFA2011201221DA30112014F
:100D4300228BA401120122ACA401120122F1A401FD
:100D5300120122F1A501120122D7A7011201224299
:100D6300A80112012292A801120122C3AD011201AE
:100D73002213AE0112012251AE011201225EB00113
:100D830012012249B101120122DBB2011201221325
:100D9300B301120122B5B30112012295B40112016C
:100DA30022C6B401120122F0B4011201221AB501C4
:100DB3001201224FB50112012274B50112012293CF
:100DC300B501120122C0B50112012236B60112018A
:100DD30022B7B601120122FFB60112012221B70187
:100DE30012012243B80112012207B901120122386C
:100DF300B9011201229BB901120122C0B9011201EA
:100E030022ACBA01120122C8BA0112012274BB0139
:100E1300120122FBBB0112012226BC011201226D29
:100E2300BC01120122ADBC01120122E6BC01120178
:100E33002208BD0112012226BC0412012298BC041F
:100E4300120122EEBC0412012232BD04120122520D
:100E5300BD041201229FBD04120122E7BD04120149
:100E6300223ABE041201228BBE04120122D1D00306
:100E730012012250D10312012212D703120122219F
:100E8300D80312012289D90312012220DA031201A5
:100E9300229B5B00120122E45B00120122115C0021
:100EA300120122445C00120122545C0012012260F0
:100EB3005C00120122715C00120122585D001201D4
:100EC30022B65D00120122EB5D00120122225E00B8
:100ED300120122655F00120122B85F00120122098C
:100EE30060001201227460001201221861001201D5
:100EF30022CA6100120122286200120122986200B4
:100F0300120122EB62001201222E640012012294CC
:100F130065001201226B66001201227C6600120139
:100F230022B86600120122C86600120122E8660098
:100F3300120122EB6600120122B967001201228A14
:100F430068001201222B6900120122E169001201DB
:100F5300220E6A00120122616A00120122C96A008C
:100F63001201221D6B00120122566B00120122D2C4
:100F73006B001201227A6C00120122456D001201EE
:100F830022E76D001201225C6E00120122BF6E0087
:100F93001201221D6F001201224E6F00120122F571
:100FA3006F001201224470001201222B7200120101
:100FB300227A7200120122C17200120122477300C9
:100FC300120122CF73001201221674001201223B78
:100FD3007400120122867400120122B674001201F9
:100FE30022FE7400120122787500120122BC7500E2
:100FF300120122CD76001201227C7700120122DD3C
:10100300770012012239780012012252780012016E
:1010130022D5BC0312012228BD0312012234BD03D1
:1010230012012209BE0312012230BE031201226BF8
:10103300BE03120122D7BE0312012213BF03120102
:101043002249BF0312012282BF031201229ABF0366
:10105300120122EFBF0312012208C0031201225121
:10106300C00312012264C0031201227EC0031201D5
:101073002294C003120122C7C1031201220EC3032B
:1010830012012210C4031201220AC503120122D540
:101093002D00120122649204120122D3950412013D
:1010A300220C9704120122CC9A03120122429D03BF
:1010B300120122489D03120122B09F03120122173D
:1010C300A203120122579704120122ED9704120181
:1010D30022A49804120122CE9804120122C19A0478
:1010E300120122E99B041201220080021201223420
:1010F3008002120122598C02120122AD8D021201CB
:1011030022B88E021201223890021201221A910291
:10111300120122549102120122779102120122B983
:101123009102120122C291021201220C92021201B7
:1011330022169202120122C09202120122999302F4
:10114300120122ED93021201224F9402120122A2F4
:101153009402120122D194021201220E950212016D
:10116300220D96021201227999021201227F99021D
:10117300120122059F021201227EA30212012254B0
:10118300A702120122BFAC0412012235AD041201E1
:10119300224BAD041201228CAD04120122C6AD0410
:1011A3001201223FAE041201227AAE04120122ED93
:1011B300AE041201222BAF0412012234AF04120138
:1011C3002240AF041201225CAF0412012287AF0454
:1011D3001201229DAF04120122E1AF041201227910
:1011E300E3031201228CE303120122A6E30312019B
:1011F30022CFE30312012212E40312012251E4037A
:101203001201228FE403120122F4E40312012209E2
:10121300E50312012214E50312012221E503120161
:101223002238E50312012246E50312012255E503A4
:101233001201226AE5031201227FE5031201228AC9
:10124300E50312012296E503120122A3E50312012D
:1012530022B6E503120122C1E503120122E6E503EA
:10126300120122EBE50312012285E603120122EBB0
:10127300E603120122FBE60312012210E703120127
:101283002225E7031201223FE7031201225AE70353
:1012930012012277E70312012282E7031201223EA1
:1012A300E8031201222AE90312012246E90312018B
:1012B300225DE90312012268E9031201227DE90399
:1012C30012012291E903120122F2E903120122F829
:1012D300E903120122FEE90312012204EA031201C7
:1012E3002218EA031201223FEA031201227AEA03D7
:1012F30012012293EA03120122D3EA031201220606
:10130300EB03120122FDF4021201221FF502120166
:1013130022FFF502120122D6F80212012202FA027A
:1013230012012226FB02120122D8FB0212012279AA
:10133300FC0212012205800312012289800312019B
:1013430022388103120122978203120122B88403F7
:10135300120122A48503120122D98503120122FB63
:101363008503120122AA8603120122A28803120115
:1013730022CB88031201225D89031201228F890384
:101383001201229C8903120122F3890312012219FB
:101393008A03120122868C03120122898D03120112
:1013A30022E18D0312012287E60212012291E70254
:1013B30012012278E80212012282E8021201228C31
:1013C300E802120122AEE802120122BAE802120177
:1013D3002253EA0212012282EA021201229EEB0246
:1013E300120122F7EB021201225DED021201223CEF
:1013F300EE0212012298EE0212012205EF021201FF
:101403002240EF021201227FEF0212012238F20280
:1014130012012252F202120122DEF202120122EC26
:10142300F20212012245F30212012253F3021201C6
:1014330022C6F3021201222AF40212012274F402D8
:10144300120122A1A603120122C3A603120122E95B
:10145300A803120122FEAB0312012216AD031201EF
:1014630022C9AD03120122ABAE03120122E5C60469
:101473001201220AC7041201227CC704120122842A
:1014830078001201228D7800120122967800120151
:10149300226D79001201221E7B00120122547B006F
:1014A3001201228E7B00120122C47B00120122FE54
:1014B3007B00120122327C001201225E7C001201A9
:1014C30022A77C00120122E17C001201222A7D0066
:1014D300120122827D00120122B77D001201221225
:1014E3007E001201224C7E001201229D7E00120119
:1014F30022D37E001201220D7F001201223B7F00C6
:101503001201225E7F001201222F8E03120122623A
:101513008E03120122A58E03120122B08E03120143
:1015230022BB8E03120122C68E03120122D18E0327
:101533001201223D92031201221093031201228A07
:1015430093031201220194031201220E9403120148
:10155300221B94031201222594031201222F9403C8
:101563001201224B94031201225B94031201229D68
:101573009403120122C39403120122CD9403120196
:1015830022D79403120122E19403120122EE940361
:10159300120122F894031201220295031201220C74
:1015A300950312012216950312012260950312017D
:1015B300227D95031201229A9503120122AA950313
:1015C300120122B495031201220F96031201221C69
:1015D3009603120122E09603120122EA96031201F6
:1015E30022F49603120122FE96031201221B970393
:1015F300120122389703120122FC970312012206DB
:101603009803120122139803120122209803120156
:10161300224198031201224A98031201227198036E
:10162300120122989803120122BD9803120122C6C7
:101633009803120122D59803120122ED9803120197
:1016430022F6980312012205990312012214990329
:101653001201221D99031201222C99031201223C2B
:1016630099031201225B9903120122689903120163
:10167300227599031201228599031201229299037B
:10168300120122A29903120122B29903120122C26A
:101693009903120122F49903120122FE9903120104
:1016A300220E9A031201221E9A031201222B9A037D
:1016B300120122509A031201225D9A031201226D34
:1016C3009A03120122779A03120122849A031201C8
:1016D300228E9A031201229E9A03120122A89A03D0
:1016E300120122B29A03120122C29A03120122A00A
:1016F300D304120122A18C04120122AB8C04120127
:1017030022E98C04120122328D041201226C8D0411
:10171300120122C68D04120122E78D04120122F068
:101723008D041201223D8E04120122668E041201E1
:1017330022708E041201227A8E04120122E68E0494
:10174300120122788F04120122C28F04120122F89F
:101753008F04120122849004120122C59004120105
:1017630022FC90041201221B9104120122249104F1
:10177300120122EC91041201223692041201223A40
:10178300CE04120122A8FF0312012251C104120147
:101793002287C104120122BDC10412012208C3041D
:1017A300120122DDD204120122F3D204120122FD1E
:1017B300D204120122F4A40412012209A504120185
:1017C30022BCA504120122FCA50412012215A604C1
:1017D30012012250A6041201229DA604120122CF57
:1017E300A60412012211A70412012237D404120104
:1017F3002266D40412012253D104120122A8D40474
:10180300120122EED3041201222DD40412012295D7
:10181300D404120122BED004120122CED00412013C
:1018230022E3D00412012249D10412012236CD044D
:10183300120122BBCD0412012221CE041201225334
:10184300FF0212012256FF021201228FFF02120130
:1018530022E2FF02120122B9D404120122CA860431
:101863001201225A8704120122E687041201227808
:101873008804120122098904120122AE890412018B
:1018830022F78904120122388A04120122F38A04FE
:10189300120122298B04120122C38B04120122DEBE
:1018A3008B04120122FB8B041201225C8C041201B3
:1018B300229E8C04120122E02D001201225B2E00D5
:1018C300120122FB2E001201225A3000120122B112
:1018D30031001201224F3200120122803B0012011B
:1018E30022C84200120122F54B00120122404D0092
:1018F300120122F15700120122A058001201224FB7
:101903005A00120122355B00120122785B0012019A
:101913002220D00412012291D0041201229CD0046F
:10192300120122ACD004120122B7D0041201228A80
:10193300C804120122DCC80412012266C904120180
:1019430022CDC9041201225AB90412012284B90416
:1019530012012252BA041201222DBB04120122B435
:10196300BB0412012283EB031201224AEC0312018E
:101973002281EC03120122ABEC031201220BED03D3
:1019830012012261ED03120122C6ED031201225E50
:10199300EE031201226DEF0312012204F10312017F
:1019A3002291F103120122F8F1031201220FF20333
:1019B30012012229F3031201225BD2041201228BAA
:1019C300D204120122C0D204120122C2D204120193
:1019D30022C4D204120122D5D204120122D7D20486
:1019E300120122DAD204120122D3BE0412012240D0
:1019F300BF0412012262BF041201229ABF04120122
:101A030022D0BF041201224AB3041201228DB3046F
:101A1300120122ABB304120122E1B504120122190F
:101A2300B6041201223EB604120122A3D30412010A
:101A33002267F3031201224CF4031201223DF50342
:101A43001201224EF5031201225FF503120122A9AE
:101A5300F50312012246F703120122A7F80312012C
:101A630022D7F803120122A5F90312012205FA0372
:101A730012012269D404120122D8FF0112010002CB
:101A8300020000205104AA16090001020301090201
:101A93004300020100801909040000010202010051
:101AA3000524001001042402020524060001052474
:101AB3000100010705820340004009040100020AF6
:101AC30000000007058402400001070504024000EE
:101AD300019A1A0000BD1A0000E066701008A3E026
:101AE30066700A08A3E066700408A3E06622C3E7F1
:101AF300960809E7960809E7960809E79622C3E0DE
:101B03009608A3E09608A3E09608A3E09622C008EF
:101B1300C3E096F50808A3E096420808A3E09642BE
:101B23000808A3E09645087001D3D00822BB010240
:101B3300E722C082C08389828A83BB0003E08002DC
:101B4300E493D083D08222BB000EC082C0838A83F9
:101B53008982F0D083D08222BB0101F722080808D2
:101B6300EAC0E0EBC0E086F0E7A4FA180986F0E7E4
:101B7300A42AFA180986F0E7A42AFA180986F0E7D6
:101B8300A42AFA1986F0E7A4FBE5F02AFA190886D5
:101B9300F0E7A42BFBE5F03AFA190886F0E7A42B4B
:101BA300FBE5F03AFA18180986F0E7A4C5F02BFB19
:101BB300E43AFA1908E7C5F0C6A426F6E5F03BFBBC
:101BC300E43AFA1886F0E7A4F6E5F00826F6E43BD3
:101BD30008F6E43A08F6D0E0FBD0E0FA22E4CFC0FE
:101BE300E0E4CEC0E0E4CDC0E0E4CCC0E075F0209A
:101BF300E626F608E633F608E633F608E633F61883
:101C03001818EC33FCED33FDEE33FEEF33FFC3EC7A
:101C13009709ED9709EE9709EF97191919400FFFE7
:101C2300EC97FC09ED97FD09EE97FE191906D5F01F
:101C3300BFECF709EDF709EEF709EFF7191919D01A
:101C4300E0FCD0E0FDD0E0FED0E0FF226016080803
:101C530008C6C313C618C613C618C613C618C613B8
:101C6300C6D5E0EA22700908080822601618181879
:101C7300C6C333C608C633C608C633C608C633C68A
:101C8300D5E0EA22E627F60809E637F60809E6373B
:101C9300F60809E637F622E026F608A3E036F6084A
:101CA300A3E036F608A3E036F622E026F008A3E028
:101CB30036F008A3E036F008A3E036F022C3E69737
:101CC300F60809E697F60809E697F60809E697F68F
:101CD30022C3E096F008A3E096F008A3E096F0088C
:101CE300A3E096F022E657F60809E657F60809E658
:101CF30057F60809E657F622E056F608A3E056F62B
:101D030008A3E056F608A3E056F622E056F008A32F
:101D1300E056F008A3E056F008A3E056F022E046B0
:101D2300F608A3E046F608A3E046F608A3E046F665
:101D330022E066F608A3E066F608A3E066F608A3C9
:101D4300E066F622E0F608A3E0F608A3E0F608A3AF
:101D5300E0F622E6F008A3E6F008A3E6F008A3E61F
:101D6300F022E0FAA3E0FBA3E0FCA3E0FD22EAF00B
:101D7300A3EBF0A3ECF0A3EDF022CAC0E0E6F0A3DE
:101D830008DAFAD0E0FA22CAC0E0E0A3C582CCC5E3
:101D930082C583CDC583F0A3C582CCC582C583CD5F
:101DA300C583DAE6D0E0CA22C3E498F8E499F912CD
:101DB3001DEC8026C3E49AFAE49BFBE920E7E912D1
:101DC3001DECE498F8E499F922C3E498F8E499F94E
:101DD300121DECE498F8E499F9C3E49AFAE49BFB46
:101DE30022EB20E7CFE920E7E0B90010BB0008E8C9
:101DF3008AF084F8AAF022E4FBC8FA22EB70227B73
:101E030010C833C8C933C9335007C39AC3DBF28040
:101E1300069A50012ADBEAC833F4C8C933F4C9FA75
:101E23002275F008E4C833C8C933C933C99AC99BBA
:101E33005004C92AC93BD5F0ECFBC833F4C8E4C944
:101E4300FA22600D08C6A2E713C618C613C6D5E06A
:101E5300F322600C08C6C313C618C613C6D5E0F434
:101E630022700422600D18C6C333C608C633C6D514
:101E7300E0F41822251910AF08F519400C151A8043
:101E830008F5194002151AD2AF2200C0D025191047
:101E9300AF08F519500C051A8008F5195002051AF8
:101EA300D2AFD0D0222519F58210AF08F519400C16
:101EB300151A8008F5194002151AD2AF851A832224
:101EC3002519F582E4351AF58322E4732519C582B1
:101ED300C0E0E51A34FFC583C0E0E519C395822449
:101EE300F810AF0885831A858219800885831A85BF
:101EF3008219D2AFCEF0A3E520F0A37808E608F06C
:101F0300A3DEFAEFF0A3E58124FAF8E608F0A3E6EE
:101F130008F0A3E608F0A30808E608F0A3E608F033
:101F2300A315811581D0E0FED0E0F8158115811548
:101F330081E8C0E0EEC0E0222519C582C0E0E51AC1
:101F430034FFC583C0E0E519C3958224F910AF08B7
:101F530085831A858219800885831A858219D2AFF1
:101F6300CEF0A3E520F0A37808E608F0A3DEFAEFAD
:101F7300F0A3E58124FBF8E608F0A3E608F0A30844
:101F830008E608F0A3E608F0A315811581D0E0FE6A
:101F9300D0E0F815811581E8C0E0EEC0E022851A93
:101FA30083851982E0A3FEE0A3F5207808E0A3F679
:101FB30008DFFAE0A3FFE0A3C0E0E0A3C0E0E0A3F2
:101FC300C0E0E0A3C0E0E0A3C0E010AF0885821941
:101FD30085831A800885821985831AD2AFD083D06E
:101FE3008202011F851A83851982E0A3FEE0A3F50F
:101FF300207808E0A3F608DFFAE0A3FFE0A3C0E03F
:10200300E0A3C0E0E0A3C0E0E0A3C0E010AF088518
:10201300821985831A800885821985831AD2AFD0E5
:1020230083D08222C0D02519C582C0E0E51A34FFCF
:10203300C583C0E0E519C3958224F310AF088583F7
:102043001A858219800885831A858219D2AFC8F050
:10205300A3E9F0A3EAF0A3EBF0A37908E709F0A35F
:10206300D8FAECF0A3EDF0A3EEF0A3EFF0A3D0E0E9
:10207300F0A3D0E0F0A3D0E0F0A3E520F0A3E5F0D7
:10208300F0A322851A83851982E0C0E0A3E0F9A3B7
:10209300E0FAA3E0FBA37808E0F608A3DFFAE0FC8C
:1020A300A3E0FDA3E0FEA3E0FFA3E0C0E0A3E0C044
:1020B300E0A3E0F5D0A3E0F520A3E0A3F5F010AF93
:1020C3000885831A858219800885831A858219D227
:1020D300AFD082D083D0E0F8D0E0327404800A74A9
:1020E300038006740280027401C0E0F404121EA887
:1020F300D0E0121D7D2274048008740380047402EE
:102103008000CCC0E0EDC0E0E519C39CCCAD1A5013
:10211300011D10AF068C198D1A80068C198D1AD2E9
:10212300AF121D8AD0E0FDD0E0FC22D083D082C55F
:10213300F0E493A3C5F0C395F0F5F0E493A3C3953E
:10214300F04005E5F0048001E475F002A42582F572
:1021530082E5F03583F583E493A3C0E0E493C0E024
:1021630022D083D082E9C0E0E493A3C386F0C5F014
:1021730095F0F908E493A386F0C5F095F0700BE4AD
:1021830093A3C3994005E9048002A3E475F002A474
:102193002582F582E5F03583F583D0E0F9E493A356
:1021A300C0E0E493C0E022D083D082CCC0E0E493CB
:1021B300A360061221D41470FAE493A360061221DB
:1021C300F31470FAD0E0FCE493A3C0E0E493C0E01E
:1021D30022C0E0E493A3D39C5010E493A3C39C4098
:1021E3000AD0E0D0E0D0E00221C7A3A3A3D0E0222D
:1021F300C0E0E493A36C7009D0E0D0E0D0E002210A
:10220300C7A3A3D0E022D083D082ECC0E0EDC0E02E
:10221300E493A3FCE493A3FDED4C600D122255EC73
:1022230024FFFCED34FFFD80EFE493A3FCE493A3D0
:10223300FDED4C600D122294EC24FFFCED34FFFD08
:1022430080EFD0E0FDD0E0FCE493A3C0E0E493C0D2
:10225300E022C0E0C3E49396087401939618400FFC
:10226300E49366700808740193661870007019A3EC
:10227300A3C3E49396087401939618A3A3400DD0C7
:10228300E0D0E0D0E0022245A3A3A3A3A3A3D0E020
:1022930022C0E0C0F088F0E49366700808740193EC
:1022A30066187000A8F0A3A3700BD0F0D0E0D0E0C4
:0C22B300D0E0022245A3A3D0F0D0E0222E
:1022C00074F5121F3BEAFEEBFFEE2434F8EF340006
:1022D000F988088909EE24351223ECF8EE24371228
:1022E00023ECF50AEC850AF0A4FCAAF0850AF0EDCF
:1022F000A42AFDE82CF8E43DF97A257B00121DECB8
:10230000EA850882850983F074075AF87401B800D9
:10231000028004C333D8FCFBEA131313541FF8EEF6
:1023200028F8EF3400F9E8245DF582E91223EF5B29
:102330006003EA801CEE24361223ECF5F0EA84A850
:10234000F0EE28F8EF3400F9E82438F582E912239A
:10235000EFF97F04021FE774F5121F3BEAFEEBFF63
:10236000EE24341223ECC0E0EE2435F582EF340085
:10237000F583D0E0F08E828F83A3A3A3A3A3E0FA1A
:10238000A3E0FB8E828F83A3A3A3A3A3A3A3E0FC5C
:10239000A3E0FDECC39AF50AED9BF50BEE247FF567
:1023A00008EF3400F509850882F583E06401702B9D
:1023B000EE2480F582EF3400F5831221011223F51B
:1023C0007402121E8DE960137CCF7D07EEFAEFFBDD
:1023D000120F99850882850983E4F0AC0AAD0BEEF3
:1023E000FAEFFB1222C0122C23022352F582EF34A3
:1023F00000F583E022C082C083851982851A83E0BC
:10240000F8A3E0F9C3EA9CEB9D5010C3EC98ED995A
:10241000401BC3EA98EB995014800EC3EA98EB99DD
:102420004007C3EC98ED994004790180027900D00F
:1024300083D08222EAC39CFAEB9DFB2274ED121F2B
:102440003B900489E064086005E06407702C9061AB
:10245000C8E060269004B7E0F874FF68601CE87577
:10246000F005A4C8AAF02AF974B928FE740439FF4B
:102470008E828F83A3A3A3E0700579000225E5EE89
:102480002468F510EF3400F511906060E08510824B
:10249000851183F0750862750908750A00750B00CF
:1024A000E5D914F50EE5D95403F50F601CEE24822E
:1024B000F50CEF3400F50D7403650F6058E50E6000
:1024C00013EE24671223EC700B793DEEFAEFFB124A
:1024D0000FC980A690085DE064016026850C8285A6
:1024E0000D83E06004780480027800850E0AE50A16
:1024F000C398FA95E0FB120C9F8A0A8B0BEA450BF6
:1025000070061212CF02247A850C82850D83E0704A
:10251000048A088B0978008016E5D9C0E08812E5A6
:10252000082512F582E5093400F583D0E0F008E8CB
:10253000C3950E40E4850C82850D83E0602874FC11
:10254000250EF50E78081220E6AC0EA90FEEFAEF74
:10255000FB1210897402121E8DE9700AAA0AAB0BD5
:102560001219350224C97403650F6058850E0C7565
:102570000D00780C1220E6AC08AD09AA0AAB0B12CC
:10258000104D7402121E8D851082851183E0F8743F
:1025900080687005750C7F8002880CE50CF5087862
:1025A000081220EAE50FF50878081220EAA90EAC17
:1025B0000AAD0B9004B7E0FA7B00120B077402120D
:1025C0001E8D801C900489E06408AC08AD09700978
:1025D000EEFAEFFB1210B98007EEFAEFFB1211735F
:1025E0001212DB79017F0C021FE774F3121F3B7498
:1025F000FC121E77EAFEEBFF8908A2AFE433F5096F
:10260000C2AFEE2463F50AEF3400F50B8010AA0A7E
:10261000AB0B120FFF1219359007D6E004F0850AB4
:1026200082850B83E0F8A3E0F9E849602FE82402F3
:10263000FAE93400FBEA2402F50CEB3400F50D78DE
:102640000C1220E68A828B83E0FCA3E0F9EEFAEF1D
:10265000FB120FF37402121E8DE960B29007D6E0F0
:1026600060579007D7E0F89007D6E0C398500C74F5
:1026700002650870449007D8E0603E8E828F83A385
:10268000A3A3A3E0851982851A831226C9740212B6
:102690001EC3E81226C99007D5E028F07402121E66
:1026A000C3AC82AD83851982851A83AA82AB8379F4
:1026B00001120B139007D6E4F0E509A2E092AF7483
:1026C00004121E8D7F06021FE7F0A3E4F09007D6E8
:1026D000E0F822008521878522C622C0E074EF122F
:1026E0002027A2AFE433FEC2AF759B00906182E069
:1026F000A2E05012E591A2E0500C7591FE740165C4
:1027000021700312243CE0A2E55051E591A2E5506E
:102710004B7591DF900489E064076005E064087000
:102720002374016521703579019004B7E0FA75F0E2
:1027300005A4CAA8F028FB74B92AFA74043BFB125A
:1027400025EA8018E0640D70139004ABE004F06497
:10275000287002E4F07A00E0F91212F9906182E048
:10276000A2E64003022802E591A2E6400302280205
:102770007591BF900489E0640570081211B51211BB
:10278000C180031211BB752100121239E990048A2D
:10279000F0790012121B120EB57A017B00900488AA
:1027A000E0F9121755907803E06442705590086183
:1027B000E014F0704DC2AF1227BA007831D0E0F6C5
:1027C00018D0E0F6E59F540770057509FF80037582
:1027D000097FC4C0E07830E6F50808E65509F50938
:1027E000740B7808121E55D0E02508F8906270E04E
:1027F000A2E740F8E8C333906272F0906270E0D2D2
:10280000E0F0906181E0A2E35009E5E9A2E3500322
:1028100075E9F7A3E0A2E75009E591A2E750037537
:10282000917FEEA2E092AF7F04022086C0E0C0D08C
:10283000C082C083906183E0A2E05009E5BFA2E0BE
:10284000500375BFFEE0A2E15009E5BFA2E15003CD
:1028500075BFFDE0A2E25009E5BFA2E2500375BFDB
:10286000FBE0A2E35009E5BFA2E3500375BFF7E028
:10287000A2E45009E5BFA2E4500375BFEFE0A2E572
:102880005009E5BFA2E5500375BFDFE0A2E650099D
:10289000E5BFA2E6500375BFBFD083D082D0D0D0B1
:1028A000E032C0E074F2122027E5A7A2E4500FE561
:1028B000A1A2E4500953A7EF75A1EF1228F6E5A7EE
:1028C000A2E5500CE5A1A2E5500653A7DF75A1DFF4
:1028D000E5A7A2E15009E5A1A2E1500375A1FDE53C
:1028E000A7A2E2500CE5A1A2E2500653A7FB75A1F6
:1028F000FB7F0102208674F8121F3B7521019004B2
:1029000089E0640670077A007B0012119DA2AFE493
:1029100033FED2AF90048FE0640170187A207B0000
:10292000900488E0F91217D97A207B00900488E09F
:10293000F912175B906182E0D2E6F090085EE060E9
:102940002185C622801690048EE064017008E5C6D9
:1029500054F84405F5C653BEFC1226D47401652113
:1029600060E4EEA2E092AF7F01021FE78E238F2486
:10297000858228858327851982851A83E0CEA3E086
:10298000CF852882852783EBC9EAC8EDCBECCA75D1
:10299000F010C3E833C8E933C9EA33CAEB33CBC319
:1029A000EA9EF526EB9FF525B35004AB25AA26EC4D
:1029B00033CCED33CDD5F0DAAE23AF242274F1124F
:1029C0001F3B8A088B098C0A8D0B9090FE780812A9
:1029D0001CFB740F121EC3780C121D479090FE78DA
:1029E0000C121CFB7808790C121AF19090F650101A
:1029F0007808790C121CC07808121B114014800E44
:102A0000780C7908121CC0780C121B115004790143
:102A1000800279007F08021FE774ED121F3B8A08CD
:102A20008B098C0A8D0B9090FE7808121CFB741396
:102A3000121EC3780C121D479090FE780C121CFBDE
:102A4000780C7908121AF140117808790C121CC020
:102A5000AA08AB09AC0AAD0B8022751000751100F5
:102A60007512007513017810790C121CC07810795A
:102A700008121C87AA10AB11AC12AD137F0C021FF9
:102A8000E79090FE7808121D478A828B837808129F
:102A90001D0E7F04021FE774F5121F3B8C828D838D
:102AA0007808121D478A828B837808121CD4122A58
:102AB000EBC3E098F0A3E099122ADD401E9091222A
:102AC0007808121D478A828B837808121CAD8E828B
:102AD0008F83E02420F0A3E0344EF080A4F08E82B7
:102AE0008F83C3E09420A3E0944E22EA2404F8EB01
:102AF0003400F9E8FEE9FF8C828D83A3A3A3A3E051
:102B0000F8A3E0F98E828F832274F5121F3BE9FE51
:102B10009007EAE0FAA3E0FBEEC333F8E433F9747C
:102B20005928F582749039F583E02AF508A3E03B33
:102B3000F50978081220E690911E121D6512296C85
:102B40007402121E8D8A088B098C0A8D0B74107802
:102B500008121C4FAA08AB097F04021FE774F11288
:102B60001F3B8A0C8B0D8C0E8D0F740F121EC3E051
:102B7000FAA3E0FB7411121EC3E0F508A3E0F50907
:102B800078081220E6EA2401F508EB3400F509E4A0
:102B9000F50AF50B780C7908121B60909102780801
:102BA000121D47780C7908121B60AA0CAB0DAC0EF5
:102BB000AD0F12296C7402121E8D8B09EA45096053
:102BC000047A0180027A00EC2AFCED3400FD7413D3
:102BD000121EC3E0F8A3E0F9E8FEE9FFECF8EDF916
:102BE0007A717B02121DEC88088909E4F50AF50B5D
:102BF0008E828F837808121D56ECF8EDF97A717B7E
:102C000002121DEC8A088B0974057808121E648E66
:102C1000828F83A3A3A3A3E508F0A3E509F07F08AF
:102C2000021FE7C082C083E9906000F0D083D082A9
:102C300022C2AF02000022C0E074F2122027A2AF2D
:102C4000E433FED2AFC2C0E5D1A2E4500653D1EFC7
:102C50001218B1EEA2E092AF7F01022086C0E074AC
:102C6000F2122027A2AFE433FED2AFE58AA2E250EF
:102C700007900E2DE0D2E0F0E58AA2E35007900E17
:102C80002DE0D2E1F0758A00C2EB7A107B00900E45
:102C900029E0F9121755EEA2E092AF7F01022086DB
:102CA000C0E0C0D0E8C0E0E9C0E0E5A8D2AFC2C74C
:102CB000A2E7A2E792AFD0E0F9D0E0F8D0D0D0E020
:102CC00032C0E0C0D0E8C0E0E9C0E0C008C009C040
:102CD00082C083A2AFE433F9D2AF900FB2E0F8A381
:102CE000E0687008539AFBA374018026C2E9900F34
:102CF000B2E0F50874012508F074322508F58274F5
:102D00000F3400F583E0F5C1900FB2E0C39480402A
:102D100002E4F0E9A2E092AFD083D082D009D008DB
:102D2000D0E0F9D0E0F8D0D0D0E032C0E074F112B9
:102D30002027E59DA2E650FA906206E0FAA2E25052
:102D400035A82EE890620BF0F508852F09740478F9
:102D500008121E55E508906207F0852E08852F0998
:102D600074097808121E55E508543E906209F090E7
:102D70006201E0D2E0F0782BEA46F6906202E0F5DC
:102D80000875090074047808121E64782BE508465B
:102D9000F608E50946F6906204E0F5087509007446
:102DA000097808121E64782CE50946F6EAA2E0507C
:102DB00003752D0174065A6003752D00E58BA2E59D
:102DC0005006758BDF752D001219E3758B00C2E874
:102DD0007F0202208602011FFFFFFFFFFFFFFFFFB0
:102DE00074F7121ECFE9900FC1F0121527900FC192
:102DF000E0F912066F1206BD900FC1E0F91206C38A
:102E0000900FC1E0F9120885909122121D651206FB
:102E1000A5909122121D651208A37ACC7B1112167F
:102E2000F57CCC7D11790012069F7CE17D117A0240
:102E3000790112069F7C2A7D107A1079021219B34B
:102E40007C3A7D107A1079031219B37CC27D0F7A17
:102E50000479041219B37F01021FA174F4121ECF6A
:102E60008A088B09EB54806072900FC1E0F9121749
:102E70003D8A0A8B0BAE0AAF0BEE4F60568E828FE7
:102E800083E0246F600924FE703C1218C3803AA3CB
:102E9000E0640E70378E828F83A3A3A3A3A31221B5
:102EA00001EE24FDF582EF34FFF583E024F9FC8E7A
:102EB000828F83A3A3A3124288FB790E120B317475
:102EC00002121E8D80061218E7E96007EEFAEFFB8A
:102ED000121725AA08E50964808016EB5440601497
:102EE0007CC27D0F7A0479041219ADAA08E5096441
:102EF00040FB80047A007B00024D3B74F4121ECF2D
:102F000074F9121E77EAFEEBFF851982851A83E4B5
:102F10001255FFF8A3E0F988828983E0C0E07401CC
:102F2000121EC3D0E0125655A882A983E0FCA3E08C
:102F3000FBECFA7402121EC3EAF0A3EBF0E82402E1
:102F4000F8E912556FC0E07404121EC3D0E01256A7
:102F50005508A9837405121EC3124BAB7402121ECE
:102F6000C3E0F508A3E085080AF50B7407780A1298
:102F70001E55780A1221640100040630862F992F0D
:102F8000AC2FC92FE62F7401121EC3AA82AB83E5B2
:102F900008547FF91218CF80687401121EC3AA82E8
:102FA000AB83E508547FF91218D5805585198285C1
:102FB0001A83AC82AD837401121EC3AA82AB83E56F
:102FC00008547FF91218DB8038851982851A83AC82
:102FD00082AD837401121EC3AA82AB83E508547FBD
:102FE000F91218E1801B851982851A83AC82AD83A2
:102FF0007401121EC3AA82AB83E508547FF912182C
:10300000C9E9F5088003750801EEFAEFFB121725F0
:10301000900FF2747FF0A37406F0E508A3F0740239
:10302000121EC3E0900FF5F07402121EC3A3E04419
:10303000FC900FF6F0851982851A83E0900FF7F067
:103040007CF27D0F851982851A83E02406FA79FFC8
:10305000120B3779007407024D3874EB121ECF8AB9
:10306000828B83ECFEEDFFA3A3A3A3E0F50AA3E00C
:10307000F50B8E828F83E4125B2C85820885830991
:10308000E914600C14605514700302318502318B11
:10309000850A82850B83E0F9850882850983E0FA39
:1030A000C394325010E924FE601014600D147005B2
:1030B00074046A600A7A0202318D74106A70F67CB8
:1030C000F87D0F1219B3E9FA600302318D85088289
:1030D000850983E08E828F83F002318D850A828597
:1030E0000B83E0F50C850882850983E0FAE50C2462
:1030F000FE600D14600A1470BC74046A70B7800519
:1031000074106A70B0E50A2402FEE50B3400FFEE8D
:10311000FCEFFDA90C1219ADE9FA7404650C706D91
:103120008E828F83E0F50CE4F50DF50EF50F850A20
:1031300082850B83A3A31231A1121C68780C79102D
:10314000121C87850A82850B83A3A3123194121C5B
:1031500068780C7910121C87850A82850B83A3A3DB
:10316000A3A3A3E0F508E4F509F50AF50B741878B4
:1031700008121C68780C7908121C87900FC2780C12
:10318000121D5680081217F10230B57A01EAF97F54
:103190000D021FA1A3A3E0F510E4F511741078103F
:1031A00022A3E0F510E4F511F512F5137408781078
:1031B0002274F4121ECF74F4121E7789088A828B4F
:1031C00083A3A3A3A31255B2E0FEA3E0FDEE240067
:1031D000E43DFFE82402FCE93400FDE50824F66044
:1031E0002624F870441232301220E67402121EC3F4
:1031F000AA82AB83120C097402121E8DE9702C1284
:103200003244120B9180241232301220E6740212E2
:103210001EC3AA82AB83120BF77402121E8DE970D3
:103220000A123244120B8B80027901740C024D3861
:103230008A828B83A3A3A3E024FEF50AE434FFF57E
:103240000B780A22900FC1123B5EEEFAEFFB22745C
:10325000EE121ECF74E7121E77890C8A0E8B0F8A2E
:10326000828B83A3A3A3A31242728C828D8312420A
:1032700088F9EA2400F50AE439F50B750846750962
:1032800091EC2403FAED3400FBEC2402FEED340053
:10329000FFE50C12212E011D033BD6320E334C33B9
:1032A0008433D4330C34AF34E734BB35F3353136A3
:1032B0006936A736DF361D375537E7371F3895385B
:1032C000033B033BC338603998391C3A033B4A3A05
:1032D000033B863AD63A851982851A83858208850A
:1032E000830978081220E6123B6B12033F74021226
:1032F0001E8DE9F50D6003023B06851982851A8350
:10330000AC82AD83AA0AAB0B1202DF023AFE85192A
:1033100082851A8385820885830978081220E685CC
:103320000E82850F831242B41220E60C0CEFFD7A58
:1033300000790012034B7404121E8DE9F50D600331
:10334000023B06123B531206C9023AFE85198285DA
:103350001A8385820885830978081220E6123B6B60
:103360001203577402121E8DE9F50D6003023B062D
:10337000851982851A83AC82AD83AA0AAB0B12022F
:10338000E5023AFE851982851A83858208858309BC
:1033900078081220E6850E82850F831242B412202F
:1033A000E60C0CEFFD7A0079001203637404121E20
:1033B0008DE9F50D6003023B067402121EC3122153
:1033C00001900FC1E0F97402121EC3123B3B1206BA
:1033D000ED0235AA851982851A83858208858309BD
:1033E00078081220E6123B6B12036F7402121E8DD6
:1033F000E9F50D6003023B06851982851A83AC82CC
:10340000AD83AA0AAB0B1202EB023AFE8519828544
:103410001A8385821085831178101220E6123B25CD
:103420001220E60C0CEFFD7A00790012037B740485
:10343000121E8DE9F50D6003023B067404121EC3D3
:10344000123B131220E67407121EC385820E858379
:103450000F780E1220E67C027D00AA08AB09120448
:103460004D7404121E8DE97003023A168519828587
:103470001A83E064017002A3E06003023A1674024A
:10348000121EC3E0F47003A3E0F46003023A1612C4
:10349000429F1220EA7408121EC3E0F97409121E3A
:1034A000C3AC82AD83AA0AAB0B1206D5023ACF8514
:1034B0001982851A8385820885830978081220E697
:1034C000123B6B1203877402121E8DE9F50D600327
:1034D000023B06851982851A83AC82AD83AA0AABAA
:1034E0000B1202F1023AFE851982851A8385820841
:1034F00085830978081220E6850E82850F831242A3
:10350000B41220E60C0CEFFD7A00790012039374DC
:1035100004121E8DE9F50D6003023B067404121EB1
:10352000C3123B1C1220E67407121EC38582088555
:10353000830978081220E67C027D007A4C7B911288
:10354000044D7404121E8DE9601A7402121EC31217
:103550002101900FC1E0F97402121EC3123B3B120D
:1035600006DB80467404121EC3123B1C1220E67454
:1035700007121EC385820885830978081220E67C1D
:10358000027D007A407B9112044D7404121E8DE975
:1035900060207402121EC3122101900FC1E0F97461
:1035A00002121EC3123B3B1206E17402121E8D0270
:1035B0003AFE123B531206F9023AFE851982851A29
:1035C0008385820885830978081220E6123B6B12F6
:1035D000039F7402121E8DE9F50D6003023B068500
:1035E0001982851A83AC82AD83AA0AAB0B1202F74B
:1035F000023AFE851982851A8385820885830978B7
:10360000081220E6850E82850F831242B41220E64E
:103610000C0CEFFD7A0079001203AB7404121E8DBE
:10362000E9F50D6003023B06123B531206F3023A22
:10363000FE851982851A8385820885830978081298
:1036400020E6123B6B1203B77402121E8DE9F50DD2
:103650006003023B06851982851A83AC82AD83AA7A
:103660000AAB0B1202FD023AFE851982851A838588
:10367000820885830978081220E6850E82850F83EB
:103680001242B41220E60C0CEFFD7A00790012030E
:10369000D57404121E8DE9F50D6003023B06123B42
:1036A000531206FF023AFE851982851A8385820825
:1036B00085830978081220E6123B6B1203E174023D
:1036C000121E8DE9F50D6003023B06851982851AED
:1036D00083AC82AD83AA0AAB0B120303023AFE85C8
:1036E0001982851A8385820885830978081220E665
:1036F000850E82850F831242B41220E60C0CEFFD7A
:103700007A0079001203ED7404121E8DE9F50D6044
:1037100003023B06123B53120705023AFE8519824B
:10372000851A8385820885830978081220E6123B72
:103730006B1203F97402121E8DE9F50D6003023B52
:1037400006851982851A83AC82AD83AA0AAB0B1257
:103750000309023AFE851982851A838582108583C2
:103760001178101220E6123B251220E60C0CEFFD1A
:103770007A0079001203937404121E8DE9F50D602E
:1037800003023B067404121EC3123B131220E6749C
:1037900007121EC385820E85830F780E1220E67CE9
:1037A000027D00AA08AB0912044D7404121E8DE9B3
:1037B0007003023A16851982851A83E0640170024B
:1037C000A3E06003023A167402121EC3E0F4700311
:1037D000A3E0F46003023A16900FC1E0F9AA0AAB25
:1037E0000B1206CF023AFE851982851A838582085C
:1037F00085830978081220E6123B6B1204057402D7
:10380000121E8DE9F50D6003023B06851982851AAB
:1038100083AC82AD83AA0AAB0B12030F023AFE857A
:103820001982851A8385820885830978081220E623
:10383000850E82850F83A3A3A3E024FC1242BE124F
:1038400020E6EC2404FCED3400FD8A828B83E0FA50
:103850008E828F83E0F91203BD7404121E8DE9F588
:103860000D6003023B067418121EC3E07009123B80
:1038700053120717023AFE7417121EC3124AFEAC07
:1038800082AD83AA0AAB0B700612070B023AFE1236
:103890000711023AFE851982851A8385820885837D
:1038A0000978081220E6123B6B1203C97402121E3B
:1038B0008DE9F50D6003023B06AA0AAB0B12031556
:1038C000023AFE851982851A8385820885830978E4
:1038D000081220E6850E82850F831242B41220E67C
:1038E0000C0CEFFD7A0079001204117404121E8D85
:1038F000E9F50D6003023B0690104B1255C9700F9D
:103900007A737B0012179790104BEAF0A3EBF090BC
:10391000104B1255C9604390104AE0C39405400310
:10392000023A16E0F9740129F07508177509007854
:10393000081220E67402121EC3AC82AD83E975F052
:1039400017A4F8A9F090104BE028FAA3E039FB1275
:1039500016FB7402121E8D023B06750D13023B0608
:10396000851982851A838582088583097808122043
:10397000E6123B6B12041D7402121E8DE9F50D60F8
:1039800003023B06851982851A83AC82AD83AA0A9D
:10399000AB0B12031B023AFE851982851A838582BE
:1039A0000885830978081220E6850E82850F831228
:1039B00042B41220E60C0CEFFD7A017900120429C2
:1039C0007404121E8DE9F50D6003023B0690104B46
:1039D0001255C9604112429F1220EA7401121EC39F
:1039E0001242A21220EA90104AE0F990104B123BCA
:1039F0003B1207237402121E8DE9F50D600A901028
:103A00004B124288FB12179D90104BE4F0A3F090EC
:103A1000104AF0023B06750D02023B0685198285AD
:103A20001A8385820885830978081220E6123B6B89
:103A300012042F7402121E8DE9F50D6003023B067D
:103A4000AA0AAB0B120321023AFE851982851A835A
:103A500085820885830978081220E6123B431220EC
:103A6000E60C0C0CEBFD7A00790012043B74041296
:103A70001E8DE9F50D6003023B068E828F83123B9B
:103A8000561207EF8078851982851A83858208850A
:103A9000830978081220E6123B431220E60C0C0C36
:103AA000EBFD7A00790012043B7404121E8DE9F5D7
:103AB0000D705312429F1220EA8E828F83E0F974B8
:103AC00001121EC3AC82AD83AA0AAB0B1207E974C4
:103AD00001121E8D8028851982851A8385820885AA
:103AE000830978081220E6123B6B1204417402121B
:103AF0001E8DE9F50D700FAA0AAB0B1202D9E9F57C
:103B00000D8003750D01A90D12190B7419121E8D6C
:103B100002589BE0F50E750F00780E22E0F508754F
:103B20000900780822850E82850F83A3A3A3E024D1
:103B3000FEF50EE434FFF50F780E22124272AA0A47
:103B4000AB0B22850E82850F83A3A3A3E024FD1275
:103B500042BE22900FC1123B5EAA0AAB0B22E0F9D3
:103B6000851982851A83AC82AD8322850E82850FEA
:103B700083A3A3A3E024FEFCE434FFFD1AEFFB22A1
:103B800074EA121ECF74E0121E77890E8A828B832C
:103B9000A3A3A3A3E0F508A3E0F509850882F583B4
:103BA000E0FCA3E0F9EC2400F50CE439F50DE508A0
:103BB0002405F512E5093400F513E5082404F51091
:103BC000E5093400F511E5082402FEE5093400FF9B
:103BD000E5082403F50AE5093400F50BE50E12218A
:103BE000AA001602273C042D3D06723C08EB3C0A55
:103BF0007F3D0C033E0E453E10693C12093F164BBB
:103C00003F1BC5411D0B4230913C32913C34C13DBC
:103C100036873E38C83E3A0E403CFF403E41414068
:103C20008341424B3F60427407121EC38582088560
:103C3000830978081220E61242B01220E6EEFCEF6B
:103C4000FD7A00790012034B7404121E8DE9F50A07
:103C50006003024263124297121EC3AC82AD83AA74
:103C60000CAB0D1206C902425B12428D1206CF0246
:103C7000425B12429F1220EA8A828B83A3A3A3E0B5
:103C800024FEF9EEFCEFFDAA0CAB0D1206D50242A4
:103C9000561242787404687001E960030240F98E9C
:103CA000828F83E0FA850A82850B83E0F9EA24009B
:103CB000FCE439FD851082851183E0FA8512828546
:103CC0001383E0F9EAF508E439F5097430650E78F4
:103CD00008700C1220E612428D1206DB023D7712AC
:103CE00020E612428D1206E1023D777407121EC3D0
:103CF00085820885830978081220E61242B01220D6
:103D0000E6EEFCEFFD7A0079001203937404121EB4
:103D10008DE9F50A6003024263124297121EC3AC9A
:103D200082AD83AA0CAB0D1206E702425B74071248
:103D30001EC385820885830978081220E61242B0E6
:103D40001220E6EEFCEFFD7A0079001203637404A2
:103D5000121E8DE9F50A60030242637409121EC344
:103D6000122101900FC1E0F97409121EC3124272B0
:103D7000AA0CAB0D1206ED7402121E8D02425B748A
:103D800007121EC385820885830978081220E6126F
:103D900042B01220E6EEFCEFFD7A0079001203AB90
:103DA0007404121E8DE9F50A600302426312429701
:103DB000121EC3AC82AD83AA0CAB0D1206F30242F5
:103DC0005B7407121EC38582088583097808122058
:103DD000E61242B01220E6EEFCEFFD7A0079001206
:103DE00003937404121E8DE9F50A60030242631204
:103DF0004297121EC3AC82AD83AA0CAB0D1206F91A
:103E000002425B7407121EC3858208858309780805
:103E10001220E61242B01220E6EEFCEFFD7A0079A5
:103E2000001203D57404121E8DE9F50A60030242E4
:103E300063124297121EC3AC82AD83AA0CAB0D1263
:103E400006FF02425B7407121EC385820885830940
:103E500078081220E61242B01220E6EEFCEFFD7A5E
:103E60000079001203ED7404121E8DE9F50A600357
:103E7000024263124297121EC3AC82AD83AA0CABFE
:103E80000D12070502425B7407121EC38582088566
:103E9000830978081220E61242B01220E6EEFCEF09
:103EA000FD7A0179001203BD7404121E8DE9F50A32
:103EB00060030242637407121EC3AC82AD83AA0C76
:103EC000AB0D12070B02425B7407121EC3858208FA
:103ED00085830978081220E61242B01220E6EEFC33
:103EE000EFFD7A0179011203BD7404121E8DE9F50C
:103EF0000A60030242637407121EC3AC82AD83AA38
:103F00000CAB0D12071102425B7407121EC38582AF
:103F10000885830978081220E61242B01220E6EEE6
:103F2000FCEFFD7A0079001203BD7404121E8DE9C6
:103F3000F50A6003024263124297121EC3AC82ADBF
:103F400083AA0CAB0D12071702425B8A828B83A3F4
:103F5000A3A3E0FA24FEF8E434FFF9C3E89405E9EA
:103F60009400A2D265D03350030240F974FA2AF5C6
:103F7000147404121EC3E514F0FA7B001217977430
:103F800005121EC3EAF0A3EBF07405121EC3E0FA9B
:103F90004B70030240ED8E828F83124B068519828F
:103FA000851A83124BAC851082851183E0FC851243
:103FB00082851383E0F9ECF87402121EC3124BAB36
:103FC0007404121EC3E0F50A750B00780A1220E68D
:103FD000E5082406FCE5093400FD1216FB74021204
:103FE0001E8D7416650E900FC170081242A812073C
:103FF0001D80061242A812073BE9F50AE50A700384
:104000000242637405121EC31242880240E6124245
:1040100078C3E89401E99400A2D265D0335003023A
:1040200040F98E828F83E0F50F74FF250FC394054E
:1040300040030240F3E50F75F017A4FAABF0121736
:10404000978A088B09AE08AF09EE4F70030240ED66
:10405000850A08850B097510008059850882850935
:1040600083E02404F512A3858208858309E5107591
:10407000F017A4F8A9F0EE28F50AEF39F50B780A45
:104080001220E685120A750B00780A1220E6AC08A9
:10409000AD097A0079001204117404121E8DE9F53D
:1040A0000A6003024263E5082512F508E5093400B9
:1040B000F5090510E510C3950F40A012429F12208C
:1040C000EA75080178081220EAA90FEEFCEFFDAAB4
:1040D0000CAB0D1207237402121E8DE9F50A700352
:1040E000024263EEFAEFFB12179D024263750A1358
:1040F000024263750A02024263750A040242637453
:1041000007121EC385820885830978081220E612EB
:1041100042B01220E6EEFCEFFD7A0079001203AB0C
:104120007404121E8DE9F50A60030242631242977D
:10413000121EC3AC82AD83AA0CAB0D12072902423A
:104140005B7407121EC385820885830978081220D4
:10415000E61242B01220E6EEFCEFFD7A0079001282
:1041600003D57404121E8DE9F50A6003024263123E
:104170004297121EC3AC82AD83AA0CAB0D12072F5F
:1041800002425B7407121EC3858208858309780882
:104190001220E61242B01220E6EEFCEFFD7A007922
:1041A000001203BD7404121E8DE9F50A6003024279
:1041B00063124297121EC3AC82AD83AA0CAB0D12E0
:1041C000073502425B7407121EC385820885830986
:1041D00078081220E68A828B83123B491220E6ACD3
:1041E0000AAD0B7A00790012043B7404121E8DE9AB
:1041F000F50A706F8E828F8312429A121EC3AC82B0
:10420000AD83AA0CAB0D1207EF80507407121EC3CA
:1042100085820885830978081220E68A828B8312BA
:104220003B491220E6AC0AAD0B7A00790012043B40
:104230007404121E8DE9F50A702912429F1220EAB9
:104240008E828F83E0F97408121EC3AC82AD83AAFC
:104250000CAB0D1207E97401121E8DE9F50A8003FB
:10426000750A01A90A12190B7420121E8D7F0E0205
:104270001FA1E0FCA3E0FD228A828B83A3A3A3E01D
:1042800024FEF8E434FFF922E0FAA3E022900FC103
:10429000E0F9AA0CAB0D22900FC1E0F9740722904F
:1042A0000FC1E0F508780822123B5EAA0CAB0D2284
:1042B0008A828B83A3A3A3E024FE1242BE22F508C8
:1042C000E434FFF50978082274EA121ECF74A512AF
:1042D0001E778C0C8D0D8A828B83A3A3A3A3E0FE93
:1042E000A3E0FF750E00EE2402F50AEF3400F50B93
:1042F0008E828F83A3858208858309E97003024338
:104300009624FD700302449E1470030244F214705C
:10431000030245351470030245F11470030246513F
:1043200014700302466814700302454014700302BF
:1043300045D8147003024673147003024981147047
:1043400003024A15147003024903147003024870F3
:1043500014700302486714700302459624E1700349
:104360000249921470030249BE147003024A0314F6
:104370007003024A1E147003024A94147003024A26
:10438000A6147003024AB9147003024AAE147003F3
:10439000024AB9024ABE8E828F83E0F5147C1079FE
:1043A00000AA0AAB0B121779E9701B750C10750D7A
:1043B00000780C1220E6AC0AAD0B7A2A7B1012169C
:1043C000FB7402121E8DEE2412F50AEF3400F50B79
:1043D0007C107900AA0AFB121779E9701B750C1082
:1043E000750D00780C1220E6AC0AAD0B7A3A7B1002
:1043F0001216FB7402121E8DEE2422125587F50C44
:10440000E4F50DF50FEE2423F582EF1255801231FD
:10441000A2121C68780C7910121C87EE2424F582F5
:10442000EF125580123196121C68780C7910121C0C
:1044300087EE2425F582EF125580124AF3121C688C
:10444000780C7910121C87E50C450D450E450F6060
:1044500008900FC2780C121D56750AC2750B0F78A2
:104460000A1220E6750A3A750B10780A1220E67CCB
:104470002A7D10850882850983E0FBAA14900FC16C
:10448000E0F91217F77404121E8DE9F50E900FC1B2
:10449000E0FC7D007A267B001204D1024AC1750A35
:1044A00000750B00740A121EC3AC82AD8375839035
:1044B0007582AA7406121D8A750C06F50D780C1209
:1044C00020E6740C121EC3AC82AD83AA08AB09129D
:1044D000170D7402121E8DE96401600685080A85B5
:1044E000090BAA0AAB0B8E828F83E0F91204E90252
:1044F0004AA9900FC1E0C0E07410121EC3D0E012B0
:104500004B98E0C0E07411121EC3D0E0124BBFC044
:10451000E07412121EC3D0E0124B8FE0C0E074139F
:10452000121EC3D0E0F07410121EC3AA82AB831215
:104530000459024AA9900FC1E0F912045F024AA986
:10454000900FC1124AFE124B98E0C0E07401121E97
:10455000C3D0E0124BBFC0E07402121EC3D0E01201
:104560004BD6C0E07403121EC3D0E0124BCA122017
:10457000E6EEFCEFFD7406121EC3AA82AB83121690
:10458000FB7402121E8D851982851A83AA82AB8361
:104590001204A7024AA9124B12851982851A8312A6
:1045A0004BB1FAA3E0F9EAF87402121EC3124BE30E
:1045B0007404121EC3124BE37406121EC3124BE3A3
:1045C0007408121EC3124BAB851982851A83AA8206
:1045D000AB831204B3024AA9850A82850B83E0FCEF
:1045E000124B1CE439FB900FC1E0F9120567024A37
:1045F000A98E828F83124AFE124BBFC0E074011253
:104600001EC3D0E0124BCA1220E6EEFCEFFD74048C
:10461000121EC3AA82AB831216FB7402121E8DEE09
:104620002406124AE4C0E07408121EC3D0E0124B04
:104630008FE0C0E07409121EC3D0E0F085198285B6
:104640001A83AA82AB83900FC1E0F91205EB024AEC
:10465000A9AC0AAD0BE0FB8E828F83E0FA900FC10C
:10466000E0F91205F1024AA9900FC1E0F91205F72D
:10467000024AA9750C00750D007C187D0079007444
:1046800014121EC3AA82AB83121713124B12F874B2
:1046900014121EC3E8124BB1C0E07416121EC3D030
:1046A000E0124B8FAE82AF83E0C0E07417121EC3DE
:1046B000D0E0124B8F0EAF83750810750900780893
:1046C0001220E6EEFCEFFD741A121EC3AA82AB8321
:1046D0001216FB7402121E8D124AE1C0E0742812F9
:1046E0001EC3D0E0124BD6C0E0742B121EC3D0E024
:1046F000124B9EA30E0EAF83A2E0E433FCEAA2E1CC
:104700005004D2F08002C2F0A2F0E433F8EAA2E250
:104710005004D2F08002C2F0A2F0E433F508EAA21D
:10472000E35004D2F08002C2F0A2F0E433F50A753F
:104730000B00EAA2E45004D2F08002C2F0A2F0E43E
:1047400033F50E750F00EAA2E55004D2F08002C2E4
:10475000F07429121EC3124B3B121E64124AC81277
:104760001E64EA450A54EFFA7404780E121E64EAD5
:10477000450E124AD3121E64EA4508F87429121E27
:10478000C3124BAB8E828F83E0A30EAF8370030204
:104790004854E0C0E0740A121EC3D0E0124BD6C0E9
:1047A000E0740B121EC3D0E0124BD6C0E0740C12A2
:1047B0001EC3D0E0124BD6C0E0740D121EC3D0E071
:1047C000124B9EA2E0E433FCEAA2E15004D2F08056
:1047D00002C2F0A2F0E433F8EAA2E25004D2F08080
:1047E00002C2F0A2F0E433F508EAA2E35004D2F0EA
:1047F0008002C2F0A2F0E433F50AEAA2E45004D247
:10480000F08002C2F0A2F0E433F50CEAA2E5500415
:10481000D2F08002C2F0740E121EC3124B3B121E65
:1048200064124AC8121E64EA450A54EFFA74047806
:104830000C121E64EA450C124AD3121E64EA4508A3
:10484000F8740E121EC3124BAB740A121EC385827B
:104850000C85830DAC0CAD0D7414121EC3AA82AB73
:1048600083120573024AA9124B22120579024AA942
:10487000124B591220E6EEFCEFFD7442121EC3AA41
:1048800082AB831216FB7402121E8DEE2410FEEF13
:104890003400FF8E828F83124288F9EAF874501236
:1048A0001EC3124BABEE2402FEEF3400FF750C0862
:1048B000780C1220E6EEFCEFFD7454121EC3AA829F
:1048C000AB831216FB7402121E8D8E828F83A3A3FC
:1048D000A3A3A3A3A3A3E0C0E0745A121EC3D0E015
:1048E000F0750B01780B1220EA7441121EC3AC82E2
:1048F000AD83A90AAA08AB0912058B7401121E8D9B
:10490000024AA9124B591220E6EEFCEFFD742E125A
:104910001EC3AA82AB831216FB7402121E8D124AAA
:10492000E1F50CE4F50F1231A1121C68780C791036
:10493000121C878E828F83123194121C68780C7936
:1049400010121C878E828F83A3A3A3124AF3121C1A
:1049500068780C7910121C87743C121EC3E50CF0A9
:10496000A3E50DF0A3E50EF0A3E50FF0742C121EE5
:10497000C3AC82AD83A90AAA08AB0912056D024A2D
:10498000A9124B1CFCE439FDAA0AAB0B12057F02ED
:104990004AA98E828F83E0FA7B008508828509838D
:1049A000124B062400E439FDEA64267003024AB97A
:1049B000EA94274003024AB91204D1024AA978FFB7
:1049C00079FF8E828F83E0FA7B00F46020EA642610
:1049D000601BEAC3942750151204D78A088B09A8D4
:1049E00008A90974FF68700374FF697003750E02EB
:1049F000850C82850D837402F0E8900FF8F0E9A32E
:104A0000024AB6EE2410FCEF3400FDEEFAEFFB1282
:104A10000549024AA9124B22120669024AA9E0F589
:104A20000EF58285820C750D002404FAE43400FB37
:104A30001217978A088B09EA450960538E828F8383
:104A4000E08A828B83F0A3E50EF0EA2402EB3400C7
:104A50000A0AFBE5082404F8E5093400F98A828B88
:104A600083124BAB780C1220E6AC0AAD0B8A828B1A
:104A700083124288FB1216FB7402121E8DAA08AB29
:104A8000091205FDE9F50E6038AA08AB0980127518
:104A90000E13802D8E828F83E0F9120603EA4B609D
:104AA0001812179D801B120609E9F50E8013750E6A
:104AB000028C828D83E4F08008750E028003750EEF
:104AC00001A90E745B02426AEA450854F7FA7403BE
:104AD000780A22541FFAA2F0E433F5087405780826
:104AE00022EE2410124AE822FEEF3400FF8E828F5D
:104AF00083E022E0F510E4F5127418781022E085C6
:104B00001982851A8322E0FC850A82850B83E0F9ED
:104B1000EC22124B1622124B81F9EA22124B162478
:104B20000022850A82850B83E0F98E828F83E0FC68
:104B3000850882850983E0FBECFA22E054FEFAA3A3
:104B4000E0FBEA4C54FDFAE8C333F8EA48F8EBF925
:104B5000E854FBFA7402780822124B81F8E4C8F991
:104B6000EA2400F508E439F5090E0EAF0B8E828FAA
:104B700083E0F50AA3AE82AF83750C10880D780C24
:104B8000228E828F83E0FA850882850983E02212D3
:104B90004B9322124B98A322F08E828F8322124BCA
:104BA00093E0FA22F9851982851A83E8F0A3E9F0E7
:104BB00022F0A3E9F00E0EAF0B8E828F83E022F07D
:104BC000AE08AF098E828F83E022124BDB75080698
:104BD000750900780822124BDBE022124B98A30ED5
:104BE000AF8322E8F0A3E9F0EE2402124AE8FAA328
:104BF000E0F9EAF82274F4121ECF74FD121E77EA6F
:104C0000FEEBFF851982851A83E4F0F508F50904A7
:104C1000121EC3E4F07402121EC37401F07C2C7DDA
:104C20000079007AC67B0F1217138E828F83E024DF
:104C30005E605324F2606D147003024CD624E16070
:104C400003024CFB7402121EC38582088583097817
:104C5000081220E67403121EC38582088583097832
:104C6000081220E67404121EC38582088583097821
:104C7000081220E67CC67D0FEEFAEFFB1218ED74E9
:104C800006121E8D8071851982851A83858208859A
:104C9000830978081220E67CC67D0FEEFAEFFB123E
:104CA00018F3804E7401121EC3858208858309782B
:104CB000081220E67402121EC385820885830978D3
:104CC000081220E67CC67D0FEEFAEFFB1218F9748D
:104CD00004121E8D8021851982851A83858208859C
:104CE000830978081220E67CC67D0FEEFAEFFB12EE
:104CF00018FF7402121E8D8A088B097402121EC3DB
:104D0000E06007EEFAEFFB121725851982851A83FA
:104D1000E0600AAC08AD09FA79FF120B37E50845E7
:104D20000960117401121EC3E064017007AA08AB88
:104D30000912179D79007403121E8D7F04021FA1B2
:104D400074E8121ECF74FE121E77EAFEEBFF8C0889
:104D50008D09741E121EC31255B2751000750A001B
:104D6000750B007401F0EC2406F8ED3400F9EC2426
:104D700005FAED3400FBEC2404F516ED3400F517CC
:104D80008C828D83A3858214858315EE2403125AA9
:104D900030858212858313741C121EC312427274F2
:104DA0001C121EC3ECF0A3ED1255FF605D147003DE
:104DB000024E9C147003024F99147003024FAD14FD
:104DC0007003024FB8147003024FD31470030250E3
:104DD0008D1470030250A714700302510C14700359
:104DE0000251281470030251DC1470030251A21402
:104DF000700302545D14700302549514700302533F
:104E00009D1470030253BE02551E850882850983D6
:104E1000E41257011220E61255371216FB740212E3
:104E20001E8D12575CC0E0125578D0E0F0750A1064
:104E3000780A1220E67C2A7D10E508240CFAE509A0
:104E40003400FB1216FB7402121E8D780A1220E643
:104E50007C3A7D10E508241CFAE5093400FB1216A3
:104E6000FB7402121E8D851282851383E070217CF3
:104E70002A7D107A1079021219AD7C3A7D107A10D1
:104E800079031219AD7CC27D0F7A0479041219AD31
:104E900085080A85090B75102C02551E851282851E
:104EA0001383E06003024F6C850E82850F83E070F0
:104EB00003024F8133333354F82404F510FA7B0096
:104EC0001217978A0A8B0BEA450B7003024F638A0D
:104ED000828B837401F0A374061256CD85128285ED
:104EE00013831256C6850E82850F831256C68E8294
:104EF0008F83125B6F124BA47E00805012559F125D
:104F000056C612559FA31256C67516067517007819
:104F1000161220E67402121EC3E02402FCA3E03441
:104F200000FDAA0CAB0D1216FB7402121E8DE50CCF
:104F30002406F50CE50D3400F50D0E851982851A51
:104F400083E02408F8A3E03400124BA4850E828588
:104F50000F83E0F8EEC39840A3741C121EC31255D1
:104F6000BB80088512828513837413F085128285B5
:104F70001383E0700C850E82850F83E06003025579
:104F80001E85088285098374011256D6F085088231
:104F9000850983A3A3A3E4800B8508828509837414
:104FA000021257191256F975100402551E8508820F
:104FB00085098374030253A58508828509837404D7
:104FC0001256258E828F83125AF91256F7751003E6
:104FD00002551E850882850983740512561D041228
:104FE00057DA1220E61255461216FB7402121E8D75
:104FF0008E828F83A3A3A3A3A3A3A3A3A3A3125BC4
:1050000006125695C0E0125578D0E0125638C0E02E
:10501000E508240C12557CD0E0F0EE240CF582EF6C
:10502000125580A3E0C0E0E508240D12557CD0E0C5
:10503000F0EE240E12556DC0E0E508240E12557CEA
:10504000D0E0125655E0C0E0E508240F12557CD0A0
:10505000E0F0EE241012556DC0E0E5082410125562
:105060007CD0E0125655E0C0E0E508241112557CD2
:10507000D0E0F0EE2412125587C0E0E508241212A9
:10508000557CD0E01256F975101302551E85088222
:10509000850983740612561D1257AB85080A8509C7
:1050A0000B75100602551E85088285098374071248
:1050B000561D14F0851282851383125AFA12560572
:1050C000125B0612560512567A12562EE08A828B11
:1050D00083125669888289831256E41256838508A2
:1050E00082850983A3A3A3A3A3A3A3A312562E126D
:1050F0005AF6125695850882850983A3A3A3A3A314
:10510000A3A3A31256F775100B02551E85088285BE
:10511000098374081257D71220E61255461216FB5F
:105120007402121E8D025451850882850983740908
:105130001257D71220E61255461216FB7402121EA1
:105140008D8E828F83A3A3A3A3A3A3A3A3A3A378DA
:105150000C121D47850882850983A3A3A3A3A3A3DB
:10516000A3A3A3A3125711121D47E50DF50CE508E3
:10517000240B12570A121D477410780C121C4FE5AD
:1051800008240C12570A121D477418780C121C4F71
:10519000E508240D12557CE50C1256F975100E0227
:1051A000551E850882850983740B1257011220E66B
:1051B0001255371216FB7402121E8D12575CC0E096
:1051C000125578D0E0125638C0E0E508240C12558C
:1051D0007CD0E01256F975100D02551E75106A7AD2
:1051E0006A7B001217978A0A8B0BEA450B70030241
:1051F0005386741C121EC31255BBF07C6A7D007965
:1052000000121713850A82850B83740A12577D8555
:105210000E82850F83A31256891256BCF9E84960A5
:105220003C12563D1257431220E68E828F83125550
:10523000F11216FB7402121E8D1255521255D21223
:1052400056BC12565C1220E68E828F8312558B124A
:1052500016FB7402121E8DE50824088004E508245C
:105260001C1255671255C1604D12563DA3A3A3A34E
:105270001257431220E68E828F83A3A31255EF129A
:1052800016FB7402121E8DE5082410125567125584
:10529000D0125689125B6E12565C1220E68E828FF7
:1052A00083A3A3A3A312558B1216FB7402121E8DA7
:1052B000E50824088004E508241CF508E509340005
:1052C000F509EE240CF582EF1255801255C9604C99
:1052D00085088285098374011257501220E6EE2456
:1052E0000CF582EF1255801255F71216FB7402125C
:1052F0001E8DE5082410F508E5093400F509750C44
:1053000006780C1220E612558424101255941216B9
:10531000FB7402121E8DE50824068004E50824179C
:105320001255561255C1700302551E850882850913
:105330008374011257501220E68E828F831255EF2C
:105340001216FB7402121E8D1255521255D0780C93
:10535000121D471257BC121D47E50D8508828509AD
:10536000831257C4121D477410780C121C4F125729
:10537000BC121D477418780C121C4F8508828509D1
:1053800083E50C02551D850882850983740A12562F
:1053900025850882850983A3A37413800B85088261
:1053A000850983740E1256D6F0850E82850F8312FE
:1053B0005A3D12566F1256F975100502551E850892
:1053C00082850983740F12561D74061257AB8E82A4
:1053D0008F83A3A3A3A3A3A3E08882898312566922
:1053E000850882850983A3A3A3A3A3A3A31256E4DC
:1053F000A3125683F8A2E0E433F50AE854026004ED
:105400007A0280027A00EA420AE8540460047A04CC
:1054100080027A00EA420AE8540860047A088002AE
:105420007A00EA420AE8541060047A1080027A0096
:10543000EA420AE854206004782080027800E845B7
:105440000A850882850983A3A3A3A3A3A3A3A3A377
:10545000F085080A85090B75100A02551E85088219
:10546000850983740C12571912566FF0750A067865
:105470000A1220E6125A271216FB7402121E8DEE33
:10548000240B125587C0E0125578D0E01256F975FA
:10549000100C02551E125584240DF510FA7B0012D3
:1054A00017978A0A8B0BEA450B606A8A828B837492
:1054B0000D12577D8E828F83125AF612579E750CED
:1054C00006750D00780C1220E6125A27AA08AB09BF
:1054D0001216FB7402121E8DE5082406F508E50974
:1054E0003400F509EE240B1255871256AA1256AA5B
:1054F000F50C780C1220E6EE240DF582EF125580A3
:105500001255F71216FB7402121E8D741C121EC364
:105510001255BB80088512828513837413F0741AA8
:10552000121EC31255A5E510F0AA0AAB0B740212A5
:105530001E8D7F10021FA1AC0EAD0FE5082403FAEB
:10554000E5093400FB22EE2404FCEF3400FD1AAB25
:105550001722E508241012555A22F508E5093400EF
:10556000F5098E828F832212555AA3A322F8EF34B5
:1055700000F988828983E022E508240BF582E50999
:105580001255EA22EE240C1256B422A3A3A3A3A31D
:10559000A3E02412FCA3E03400FDAA08AB09228595
:1055A0001982851A831255A922E0F8A3E0F58388B1
:1055B0008222125B73F988828983221255A97401B1
:1055C00022A3A3A3A3A3A3A3A3125B73F9E8492275
:1055D000A3A3A3A3A3A31255DA22A3A3E0F8A3E0F5
:1055E0001255E422C82410F582E83400F58322A382
:1055F000A3A3A3A3A3A3A3124272AA08AB092212D6
:105600004B93A3E022A3A312560B2212560F221291
:10561000561322F08E828F83A3A3A3A322F08514B6
:1056200082851583221256292212572DF0221256F6
:10563000322212560FA3A322F01256B122850882FD
:1056400085098374011256492212564D221257A21F
:105650008E828F8322F088828983A3221255E4A34D
:10566000125797750C08780C22125632A3E022F0DC
:1056700012567422850E82850F83A3E085168285DB
:105680001783221256EBA3E022125AFE125649A3A8
:10569000A3A3A3A32212569BA3E022A3A3A3A3A385
:1056A000A3A3A3A31256EFA3A3221257981256B195
:1056B00022EE240CF582EF1255EAE022125AFE1275
:1056C00057CD125B7322E0850C82850D83F0A38594
:1056D000820C85830D22125629851282851383122E
:1056E0005B0AA3221256EB125B24221256EF2212FF
:1056F0005613A3A3A3A322A3A3F085080A85090B2D
:1057000022125726750A06780A22F582E5091255F3
:10571000EAE50C1256A4780C22125726850E8285D3
:105720000F83125A412212572D12573722F0851437
:1057300082851583740622F0851282851383125A9E
:105740004AF022A3125B6EC8241A1255E7125AFEC1
:1057500012579E750C10750D00780C228E828F8367
:10576000A3A3A3A3A3A3A3A3A3125AFE12569B12FF
:105770005B24A3A3A3F0EE240B1256B422F0A3746F
:105780000612579E851282851383125797850E82C3
:10579000850F8312579722E0850882850983125767
:1057A000A222F0A3858208858309221257E31256AC
:1057B0007412560BA3E08A828B83F02285088285BF
:1057C0000983E50C1257CD1255DA780C2212564D8A
:1057D000A3A3A3A3A3A32212572D1257E3750A066E
:1057E000780A22125737850E82850F83125A45F0A8
:1057F0002274EE121ECFEAFEEBFF8C088D097412A4
:10580000121EC3E0F510A3E0F511EE2405F50CEF30
:105810003400F50D8E828F83A385820A85830B8EDB
:10582000828F83A3A3122101850A82850B83E0F96D
:10583000850C82850D83E04480FC7D04AA08AB09B9
:105840001219057402121E8DE9F50E850A82850B68
:1058500083E0703A890AE508250AFAE5093400FB75
:10586000EE2406FCEF3400FD850C82850D83E014E8
:10587000600A24F6600B24F8600C8012120BE5809D
:1058800008120BFD8003120C0FEA250EF50E851091
:1058900082851183E50EF0AA08AB097F0A021FA1D9
:1058A00074EE121ECFEAFEEBFF8C088D0974121203
:1058B0001EC3E0F510A3E0F5117414121EC31255B7
:1058C000B2750C00E4F0EE2404125A3085820A8589
:1058D000830BE060030259DDEC2406FAED3400FB93
:1058E000125A27850E82850F83E014605A14605D7A
:1058F0001460601460631460651460671460691458
:105900007003025990146065146067146069146034
:105910006B14606D14606F146071146073146075A3
:1059200014607724FC70030259C81470030259CD27
:105930001470030259D224FD70030259D724FE705B
:10594000030259D70259DD1203390259DA1203450D
:105950000259DA1203510259DA12035D807C1203F4
:105960006980771203758072120381806D1203992A
:1059700080681203A580631203B1805E1203CF809A
:10598000591203DB80541203E7804F1203F3804A5D
:1059900012038D80451203FF8040EE241C125587B0
:1059A0008A828B83F0EE241DF582EF125580125A05
:1059B0003DA3A3A3A3F0E5082408FAE5093400FBFE
:1059C0001203C3EA2402801312040B800D12041781
:1059D00080081204238003120435EAF50C8E828FAE
:1059E00083A3A3122101850A82850B83E0F9850E2A
:1059F00082850F83E0FC7D05AA08AB0912190574A6
:105A000002121E8D850882850983A3A3A3A3A3E5A3
:105A10000CF07406250C851082851183F0EEFAEFE8
:105A2000FB12085B025897EE2405FCEF3400FD22C0
:105A3000F50EEF3400F50F8E828F83A322125A41A8
:105A400022125A4522125A4AA322125B0EA3227432
:105A5000F2121ECF8C088D09740E121EC3E0FEA335
:105A6000E0FF750A00EA2404F8EB3400F9E8FCE9E9
:105A7000FD8A828B83A3A882A983E070278C828D04
:105A800083E07020EA2405125AE9125AFA125B17D1
:105A9000F0EA2407125AE9125B06A3125B17A3A3CC
:105AA000F0750A048A828B83A3A31221018882895C
:105AB00083E0F98C828D83E04480FC7D05AA08ABED
:105AC000091219057402121E8D850882850983A3A7
:105AD000A3A3A3A3E50AF07406250A8E828F83F0A0
:105AE000AA08AB097F06021FA1F50AEB3400F50BEB
:105AF000850A82F58322A3A3A3A3125AFE22E0857E
:105B0000088285098322125B0A22125B0E22E0853D
:105B10000882850983A322A3A3A3A3A3A3125B2CBA
:105B2000125B2422125A45A3A3A3A322F0850A8262
