:020000040000FA
:0600000002011A020F0CC0
:03002B000213D9E4
:030033000213BBFA
:03005300020F8217
:03006B00021392EB
:10008300020E0FE5C754F84401F5C77901220000B9
:100093000080FB120086B90003020104E47914789E
:1000A30002B800028004F709D8FCE479167802B894
:1000B30000028004F709D8FCE490028178D9790220
:1000C3008002F0A3D8FCD9FA781390014A7A01BAD6
:1000D30000028007E493A3F608DAF97A597B0490C7
:1000E300014B787379018015E493A3AD82AE838AC3
:1000F300828B83F0A3AA82AB838D828E83D8E9D9C6
:10010300E77582CA758378740012012C7582917524
:100113008300740012012C75D00075813F75118125
:10012300751202759F00020096C09FF59FE473D07D
:100133009F22D083D082C09FE493C0E0740193C018
:10014300E0740293F59F2201CF01DB01FF0000B4AD
:10015300000028002800283075A000A000A000A0FF
:100163000000080008E001F000100010001000106B
:10017300001000100050005000500010001000D07C
:10018300070000000000000F0001000500307507A4
:10019300001000010081FF00000000FF3D033D034C
:1001A3003D033D033D033D033D033D033D033D034C
:1001B3003D033D033D03FFFFFF001201350814001B
:1001C300120135001500120135341500120135B640
:1001D3001500120135FE15001201356216001201D9
:1001E30035EF1600120135A91700120135B81A00B0
:1001F300120135431C00120135661C0012013573D0
:1002030061001201359B6100120135C961001201C1
:10021300350062001201354B6200120135A3620002
:10022300120135D162001201358E6300120135507F
:1002330076001201356876001201355B6800120101
:10024300356668001201357868001201355069007F
:100253001201355569001201353C6A001201355708
:100263006A001201357F6A00120135BC6A0012016F
:1002730035F66A001201355D6B00120135A66B007D
:10028300120135D06B00120135F56B00120135C92F
:100293004300120135FC4300120135DC4400120116
:1002A300350145001201359346001201355D2500E5
:1002B300120135F62600120135C427001201354A12
:1002C3002800120135B928001201359F29001201B7
:1002D30035373800120135803800120135AD38004A
:1002E300120135E23800120135EF3800120135FBF7
:1002F30038001201350D3900120135E139001201C0
:10030300353E3A001201357C3A00120135BF3B00FD
:10031300120135193C001201356E3C00120135A65D
:100323003D00120135FC3D001201358D70001201B4
:1003330035997000120135777100120135FD1300F4
:10034300120135174E00120135AD4E00120135640E
:100353004F001201358E4F001201358151001201F9
:1003630035A95200120135CE2B00120135F32B00B3
:10037300120135262E00120135A92F00120135294D
:1003830031001201359A3100120135D731001201C3
:1003930035FA31001201351032001201352D3200C9
:1003A300120135A45A001201351A5B0012013530CF
:1003B3005B00120135715B00120135AB5B0012016A
:1003C30035245C001201355F5C00120135D25C00FC
:1003D300120135105D00120135195D00120135253A
:1003E3005D00120135545D001201356A5D00120192
:1003F30035935D00120135F65D001201353632008A
:100403001201354932001201356332001201358C75
:100413003200120135CF32001201350E33001201C2
:10042300357333001201358833001201359F3300D1
:10043300120135AD3300120135BC3300120135D141
:100443003300120135E63300120135F13300120196
:1004530035043400120135273400120135CE34003F
:10046300120135E33400120135FD34001201351851
:1004730035001201353535001201354035001201C2
:1004830035FC3500120135E836001201350D370011
:100493001201351837001201352D3700120135418D
:1004A3003700120135A23700120135BA37001201A5
:1004B300350177001201352D770012013588770059
:1004C300120135911D001201359B1D00120135DE0D
:1004D3001D00120135381E00120135591E0012018C
:1004E30035462100120135992100120135C2210040
:1004F300120135CC2100120135382200120135D00A
:1005030022001201352623001201355C230012015B
:1005130035E723001201352824001201355F24003A
:10052300120135712400120135902400120135990E
:100533002400120135BE73001201355A6600120100
:1005430035906600120135C6660012013521680038
:100553001201359A7700120135B07700120135BACE
:1005630077001201350478001201356B790012010E
:1005730035E05200120135F952001201359D530046
:10058300120135DD5300120135F6530012013531E6
:1005930054001201357E5400120135B75400120184
:1005A30035A65600120135135700120135266F0088
:1005B300120135566F00120135EE6F001201350638
:1005C30070001201354870001201353B7A001201A8
:1005D300359A7500120135AB750012013522790089
:1005E3001201356179001201357E7A00120135B8A6
:1005F3007400120135C87400120135E07400120151
:1006030035947500120135BA72001201353F73003B
:10061300120135A573001201351D6C001201354618
:100623006C00120135AC6C00120135CC6C00120168
:10063300351D6D00120135786D00120135B26D0064
:10064300120135B56D001201352057001201353501
:1006530057001201358258001201350F590012015B
:10066300358359001201359D5900120135B45900E3
:10067300120135C75900120135E15900120135F84D
:1006830059001201351E5A001201356F5A0012012A
:10069300352649001201353D4900120135B749009D
:1006A300120135894A00120135474D00120135AC5C
:1006B3004D00120135034E00120135F87F0012017F
:1006C30035156400120135B065001201351166005D
:1006D300120135576600120135BF6D00120135FC5A
:1006E3006D001201352B6E001201356C6E00120184
:1006F300357B6E001201358A6E00120135327800A7
:10070300120135B67100120135E071001201352373
:100713003E00120135EA3E00120135273F00120167
:1007230035873F00120135DD3F001201353A4000A5
:10073300120135E24000120135A242001201352FA9
:100743004300120135944300120135265E00120165
:1007530035865E00120135E95E001201358A5F00BD
:10076300120135F16000120135E77900120135B14C
:100773007900120135137A00120135607A00E066C0
:10078300701008A3E066700A08A3E066700408A36B
:10079300E06622C3E7960809E7960809E796080981
:1007A300E79622C3E09608A3E09608A3E09608A381
:1007B300E09622C008C3E096F50808A3E096420835
:1007C30008A3E096420808A3E09645087001D3D039
:1007D3000822080808EAC0E0EBC0E086F0E7A4FAC4
:1007E300180986F0E7A42AFA180986F0E7A42AFA7A
:1007F300180986F0E7A42AFA1986F0E7A4FBE5F0C6
:100803002AFA190886F0E7A42BFBE5F03AFA19084F
:1008130086F0E7A42BFBE5F03AFA18180986F0E70F
:10082300A4C5F02BFBE43AFA1908E7C5F0C6A426E1
:10083300F6E5F03BFBE43AFA1886F0E7A4F6E5F0B8
:100843000826F6E43B08F6E43A08F6D0E0FBD0E0ED
:10085300FA22E4CFC0E0E4CEC0E0E4CDC0E0E4CCD3
:10086300C0E075F020E626F608E633F608E633F630
:1008730008E633F6181818EC33FCED33FDEE33FEBF
:10088300EF33FFC3EC9709ED9709EE9709EF97193B
:100893001919400FFFEC97FC09ED97FD09EE97FE40
:1008A300191906D5F0BFECF709EDF709EEF709EFD3
:1008B300F7191919D0E0FCD0E0FDD0E0FED0E0FF3D
:1008C300226016080808C6C313C618C613C618C67E
:1008D30013C618C613C6D5E0EA2270090808082211
:1008E3006016181818C6C333C608C633C608C633FD
:1008F300C608C633C6D5E0EA22E627F60809E63776
:10090300F60809E637F60809E637F622E026F60880
:10091300A3E036F608A3E036F608A3E036F622E0B5
:1009230026F008A3E036F008A3E036F008A3E0368B
:10093300F022C3E697F60809E697F60809E697F664
:100943000809E697F622C3E096F008A3E096F008BC
:10095300A3E096F008A3E096F022E056F608A3E0A1
:1009630056F608A3E056F608A3E056F622E0F6088A
:10097300A3E0F608A3E0F608A3E0F622E6F008A356
:10098300E6F008A3E6F008A3E6F022E0FAA3E0FB12
:10099300A3E0FCA3E0FD22EAF0A3EBF0A3ECF0A3B9
:1009A300EDF022CAC0E0E6F0A308DAFAD0E0FA22BA
:1009B300CAC0E0E0A3C582CCC582C583CDC583F0A0
:1009C300A3C582CCC582C583CDC583DAE6D0E0CA90
:1009D30022B90010BB0008E88AF084F8AAF022E4E8
:1009E300FBC8FA22EB70227B10C833C8C933C93362
:1009F3005007C39AC3DBF280069A50012ADBEAC888
:100A030033F4C8C933F4C9FA2275F008E4C833C80B
:100A1300C933C933C99AC99B5004C92AC93BD5F004
:100A2300ECFBC833F4C8E4C9FA22600D08C6A2E798
:100A330013C618C613C6D5E0F322600C08C6C31349
:100A4300C618C613C6D5E0F422700422600D18C67A
:100A5300C333C608C633C6D5E0F41822251110AF38
:100A630008F511400C15128008F51140021512D239
:100A7300AF2200C0D0251110AF08F511500C05129C
:100A83008008F51150020512D2AFD0D0222511F5FE
:100A93008210AF08F511400C15128008F5114002C1
:100AA3001512D2AF851283222511F582E43512F592
:100AB3008322E4732511C582C0E0E51234FFC583A8
:100AC300C0E0E511C3958224F810AF088583128531
:100AD30082118008858312858211D2AFCEF0A3E5FF
:100AE30020F0A37808E608F0A3DEFAEFF0A3E5818F
:100AF30024FAF8E608F0A3E608F0A3E608F0A30852
:100B030008E608F0A3E608F0A315811581D0E0FEFE
:100B1300D0E0F8158115811581E8C0E0EEC0E02230
:100B23002511C582C0E0E51234FFC583C0E0E5119D
:100B3300C3958224F910AF0885831285821180083A
:100B4300858312858211D2AFCEF0A3E520F0A3787E
:100B530008E608F0A3DEFAEFF0A3E58124FBF8E64C
:100B630008F0A3E608F0A30808E608F0A3E608F0F7
:100B7300A315811581D0E0FED0E0F815811581E839
:100B8300C0E0EEC0E022851283851182E0A3FEE07F
:100B9300A3F5207808E0A3F608DFFAE0A3FFE0A3BB
:100BA300C0E0E0A3C0E0E0A3C0E0E0A3C0E0E0A3B6
:100BB300C0E010AF088582118583128008858211F9
:100BC300858312D2AFD083D082020132851283850E
:100BD3001182E0A3FEE0A3F5207808E0A3F608DF86
:100BE300FAE0A3FFE0A3C0E0E0A3C0E0E0A3C0E01D
:100BF300E0A3C0E010AF08858211858312800885C9
:100C03008211858312D2AFD083D08222C0D0251126
:100C1300C582C0E0E51234FFC583C0E0E511C3958A
:100C23008224F310AF08858312858211800885839F
:100C330012858211D2AFC8F0A3E9F0A3EAF0A3EBC7
:100C4300F0A37908E709F0A3D8FAECF0A3EDF0A339
:100C5300EEF0A3EFF0A3D0E0F0A3D0E0F0A3D0E058
:100C6300F0A3E520F0A3E5F0F0A32285128385111C
:100C730082E0C0E0A3E0F9A3E0FAA3E0FBA37808D5
:100C8300E0F608A3DFFAE0FCA3E0FDA3E0FEA3E0A7
:100C9300FFA3E0C0E0A3E0C0E0A3E0F5D0A3E0F54C
:100CA30020A3E0A3F5F010AF08858312858211809D
:100CB30008858312858211D2AFD082D083D0E0F829
:100CC300D0E03274048006740280027401C0E0F440
:100CD30004120A90D0E01209A62274048000CCC04A
:100CE300E0EDC0E0E511C39CCCAD1250011D10AF87
:100CF300068C118D1280068C118D12D2AF1209B39E
:100D0300D0E0FDD0E0FC22D083D082E9C0E0E493C0
:100D1300A3C386F0C5F095F0F908E493A386F0C564
:100D2300F095F0700BE493A3C3994005E9048002A6
:100D3300A3E475F002A42582F582E5F03583F583FB
:100D4300D0E0F9E493A3C0E0E493C0E022D083D0E1
:100D530082ECC0E0EDC0E0E493A3FCE493A3FDEDDB
:100D63004C600D120D9CEC24FFFCED34FFFD80EF75
:100D7300E493A3FCE493A3FDED4C600D120DDBECB7
:100D830024FFFCED34FFFD80EFD0E0FDD0E0FCE478
:100D930093A3C0E0E493C0E022C0E0C3E4939608C9
:100DA3007401939618400FE49366700808740193D6
:100DB300661870007019A3A3C3E493960874019393
:100DC3009618A3A3400DD0E0D0E0D0E0020D8CA391
:100DD300A3A3A3A3A3D0E022C0E0C0F088F0E493D0
:100DE3006670080874019366187000A8F0A3A370D6
:100DF3000BD0F0D0E0D0E0D0E0020D8CA3A3D0F074
:030E0300D0E0221A
:100E08008514878515C622C0E074EF120C0FA2AFB7
:100E1800E433FEC2AF759B00906182E0A2E0500906
:100E2800E591A2E050037591FEE0A2E55009E59135
:100E3800A2E550037591DFE0A2E64003020EE2E569
:100E480091A2E64003020EE27591BF9002C2E064EF
:100E58000570081203D31203DF80031203D9751437
:100E680000120445E99002C3F07900120427120227
:100E7800F57A017B009002C1E0F912051190780320
:100E8800E0644270559002F8E014F0704DC2AF1261
:100E98000E9A007817D0E0F618D0E0F6E59F5407D0
:100EA80070057509FF800375097FC4C0E07816E6F0
:100EB800F50808E65509F509740B7808120A3DD0BB
:100EC800E02508F8906270E0A2E740F8E8C33390A4
:100ED8006272F0906270E0D2E0F0906181E0A2E38B
:100EE8005009E5E9A2E3500375E9F7A3E0A2E7504A
:100EF80009E591A2E7500375917FEEA2E092AF7FDA
:100F080004020C6EC0E0C0D0C082C083906183E050
:100F1800A2E05009E5BFA2E0500375BFFEE0A2E1E0
:100F28005009E5BFA2E1500375BFFDE0A2E25009F8
:100F3800E5BFA2E2500375BFFBE0A2E35009E5BF9D
:100F4800A2E3500375BFF7E0A2E45009E5BFA2E4AD
:100F5800500375BFEFE0A2E55009E5BFA2E55003D5
:100F680075BFDFE0A2E65009E5BFA2E6500375BFF2
:100F7800BFD083D082D0D0D0E032C0E074F2120C5F
:100F88000FE5A7A2E4500FE5A1A2E4500953A7EF8B
:100F980075A1EF120FD6E5A7A2E5500CE5A1A2E5D1
:100FA800500653A7DF75A1DFE5A7A2E15009E5A127
:100FB800A2E1500375A1FDE5A7A2E2500CE5A1A2AC
:100FC800E2500653A7FB75A1FB7F01020C6E74F873
:100FD800120B237514019002C2E0640670077A00B0
:100FE8007B001203BBA2AFE433FED2AF9002C8E08D
:100FF800640170187A207B009002C1E0F91205950F
:101008007A207B009002C1E0F9120517906182E016
:10101800D2E6F09002F5E0602185C61580169002B0
:10102800C7E064017008E5C654F84405F5C653BE28
:10103800FC120E087401651460E4EEA2E092AF7F22
:1010480001020BCF74E9120B2374FA120A5FEAFE4D
:10105800EBFF8C088D099002C2E024F7C394055079
:101068000675100102117712038B8A0A8B0BEA4569
:101078000B70030211741203EB8A0C8B0D1203EB35
:10108800EA650C7003EB650D60ECEEFCEFFD851175
:1010980082851283AA82AB831203F1850A82850BAB
:1010A80083A3A3780C120970908EAB780C12095D9B
:1010B8008511828512837814120970908EAB78148A
:1010C80012095D780C7914120796501F780C791460
:1010D800120935908E7F780C1207B64047850C10A0
:1010E800850D11850E12850F138045908E7F85140E
:1010F800108515118516128517137810790C1209A9
:101108003578101207B6501C75100075110075124D
:1011180000751301781079141209357810790C12BA
:1011280008FC800C7510017511007512007513000C
:10113800740978101208DD908EB3780C1209707853
:1011480010790C1208559002C2E06408600AE06445
:10115800066005E064057020908EB778101207B617
:101168005016908E87781012090F800C7510007534
:10117800110075120075130085088285098378109F
:1011880012097F7406120A757F10020BCF74F712CA
:101198000B231204039002F3E0640170109062457F
:1011A800E4F0A3F053F4F343FE0C5390F31203A9B5
:1011B800E5C654804449F5C6E59E547F644970F8F5
:1011C800906185740FF09002F1E0F47002A3E06082
:1011D8002C7508017509009002F1E07808120A4C94
:1011E800E508F4FAA3E0600814600A14600C800DA6
:1011F800EA52808008EA52908003EA52A079007F80
:1012080002020BCF74F7120B23E9FEEAFF74016E9A
:10121800700C7A807B009002C1E0F91205119014DD
:1012280000E493F46008E493F91202D7800953C6E6
:1012380080E59E547F70FA1203AF9002F3E06401D8
:10124800700312030D9002F1E0F47002A3E0602A2B
:101258007508017509009002F1E07808120A4CAA95
:1012680008A3E0600814600A14600C800DEA42804C
:101278008008EA42908003EA42A012038B8A088B16
:1012880009A808A909E8496017E5E170FCE82414F1
:10129800F582E93400F583E0F874FF68600288E1BC
:1012A80074016F700A7A019002C1E0F912055F02B9
:1012B800120774F1120B238A088B098C0A8D0B9084
:1012C8008EAB780812095D740F120AAB780C1209FC
:1012D80070908EAB780C12095D7808790C1207961D
:1012E800908E7F50107808790C120935780812070B
:1012F800B64014800E780C7908120935780C12075C
:10130800B650047901800279007F08020BCF74ED92
:10131800120B238A088B098C0A8D0B908EAB7808E8
:1013280012095D7413120AAB780C120970908EAB17
:10133800780C12095D780C79081207964011780824
:10134800790C120935AA08AB09AC0AAD0B802275D5
:1013580010007511007512007513017810790C12C0
:101368000935781079081208FCAA10AB11AC12AD37
:10137800137F0C020BCFC082C083E9906000F0D0CD
:1013880083D08222C2AF02000022C0E074F2120CA5
:101398000FA2AFE433FED2AFE589A2E150031206F3
:1013A80037758900C2C5751300EEA2E092AF7F01C0
:1013B800020C6EC0E074F2120C0FA2AFE433FED23E
:1013C800AFE58BA2E05003120637758B00C2E880A8
:1013D800D5C0E0C0D0E8C0E0E9C0E0E5A8D2AFC21F
:1013E800C7751300A2E7A2E792AFD0E0F9D0E0F802
:1013F800D0D0D0E032020132FFFFFFFFFFFFFFFF36
:1014080074F4120AB7EAFEEBFF1214F560057911BD
:101418000214E5900284E0540A700579120214E57A
:101428007A047B0012054790029DEAF0A3EBF012C4
:1014380014F570030214E37508047509007808129E
:101448000CCAEEFCEFFD1214EA1204C97402120A67
:101458007512024DE9600F7A0C7B001202058A08AA
:101468008B097A0D80268E828F83A3E06402700F29
:101478007A127B001202058A088B097A13800D7A8A
:10148800107B001202058A088B097A117B00120270
:10149800058A0A8B0BAC0AAD0B8E828F83A3A3A39C
:1014A800E06004780180027800900285E070047999
:1014B8000080027901E8F50A780A120CCEE9F50AEB
:1014C800780A120CCEAA08AB098E828F83A3A3E0F8
:1014D800F912026B7402120A75800279137F0402F2
:1014E8000B8990029DE0FAA3E0FB22E9FE90029DA1
:1014F800E0F8A3E0F9E8492274F7120AB71214F3E6
:101508007004791280211215F8E06E600479038066
:10151800167A017B0090029FE0F912059579301246
:1015280001ED79001201F37F01020B8974F7120AA9
:10153800B789087A01900283E0F91201E1900284E8
:10154800E0540A605AE508900283F07A597B041245
:1015580002599002811214F87041900283E06049A8
:1015680075F00CA4FEAFF0FAEFFB1205479002816C
:10157800EAF0A3EBF09002811214F8601EEEFCEF83
:10158800FD79001204D57B008005EB1217820B90C1
:101598000283E0F8EBC39840F1800E7913800C9039
:1015A8000283E4F0FAFB120259790002152F74F64F
:1015B800120AB779018A088B097808120D0A0B20DC
:1015C80001EF15DE15CF158C828D83A3A3A3A3A3EA
:1015D8001215F5E060128C828D83A3A3A3A3A31236
:1015E8001C381201D58001197F02020B89E0F8A38B
:1015F800E0F58388822274F4120AB71214F3605556
:10160800EE703A1215F8A3E0640270047A038002BF
:101618007A027B001202058A088B09E4F50AF50BA9
:101628007808120CC67A017B0090029FE0F9120537
:10163800897404120A7579011201F3E9FEEE60114A
:101648007A017B0090029FE0F9120595EEF91201EC
:10165800ED7901800279000214E574F4120AB7EA00
:101668004B70111214F5607C79001201ED790012AB
:1016780001F38070EA2403F508EB3400F5098508C6
:1016880082F583E0605E8A828B83A3A3A3A3E0FE36
:10169800A3E0FFEE4F604D7A247B00120205EAF5C5
:1016A8000B750A008030EE2428F582EF3400F583AC
:1016B800E0C3950BA2D265D0334011EEFAEFFB12CE
:1016C80001E7E96007EEFAEFFB1201F9EE2429FEC3
:1016D800EF3400FF050A850882850983E0F8E50AEA
:1016E800C39840C20214E574F5120AB789088A093A
:1016F8009002811214F8607D750A00802FE50A7542
:10170800F00CA4FEAFF0121789121AB0600A120585
:101718004D121789E4F0A3F01217A3121AB0600A49
:1017280012054D1217A3E4F0A3F0050AE50AC395C4
:101738000840CAE509900281600F1214ED12054DA8
:10174800900281E4F0A3F0802C1214F86027E508D9
:1017580075F00CA4FCADF079009002811214ED1222
:1017680004D5750A008007E50A121782050AE50AFA
:10177800C3950840F27F03020B89121BFF74FFF028
:101788002212178D22900281E02EF8A3E03F888272
:10179800F583A3A3A3A3A3A3A3A32212178DA3A393
:1017A8002274E8120AB774FF120A5FEAFEEBFF75AB
:1017B80008007A007B001214F56075EE2408F50A1B
:1017C800EF3400F50BEE2409F512EF3400F5138E13
:1017D800828F83E0640160347812120CCA850A8211
:1017E800850B83E0FC7402120AABAA82AB837901F1
:1017F8001202357402120A75EA4B60078A828B83DB
:10180800E0F5088E828F83E06404603B90029D12AD
:1018180015F5A3E0F8740368602DE87004E5086026
:1018280026EA4B600B740168701274035508701730
:1018380079007401120A757F10020B8974026870AE
:10184800EFE508A2E050E98E828F83A385820E859A
:10185800830FEE2402F50CEF3400F50DAA0CFBE023
:10186800F912021DE9F8850E82850F83F0850C16A2
:10187800850D1788119002811214F8606A7510009E
:1018880080020510900283E0F8E510C3985058E5EF
:101898001075F00CA4F508E5F0F509900281E02533
:1018A80008FAA3E03509FB8A828B83E0F460D3A3AE
:1018B800E0651170CD7514067515007814120CCA00
:1018C800AC16AD17EA2402FAEB3400FB1204CF740D
:1018D80002120A75E960AB900281E02508F508A3B9
:1018E800E03509F50980067508007509008E828FB4
:1018F80083E0FAE508450970030219B6E508240AE9
:10190800F50EE5093400F50FE5082408F50CE5099E
:101918003400F50D74046A600C850C82850D83E033
:10192800FAA3E0800E850E82850F83E0F8A3E0F924
:10193800E8FAE9FBEA4B7003021A23850A82850B51
:1019480083E0F5148A828B83E06514702575150091
:101958007814120CCAAC12AD138A828B83A3AA82A4
:10196800AB831204CF7402120A75E9640170030292
:1019780018388E828F83E064046019850C82850D87
:1019880083121AB07003021A2312054D850C828542
:101998000D838014850E82850F83121AB0607C1225
:1019A800054D850E82850F83E4F0A3F0806D7404E5
:1019B8006A70030218389002811214F8602B7C00B8
:1019C80080010C900283E0F8ECC398501CEC75F091
:1019D8000CA4F8A9F0900281E028F8A3E039F9886E
:1019E800828983E0F470DB80067582007583008548
:1019F8008208858309E50845097003021838EAF06A
:101A0800850E82850F83121C1F120CCAAC0CAD0DFB
:101A1800121C141204C97402120A75850A82850BF5
:101A280083E02401FAE43400FB120547EA4B605EC8
:101A38008E828F83E064046014850882850983A3FD
:101A4800A3A3A3A3A3A3A3EAF0A3EB8018EAF8EB4C
:101A5800F9850882850983A3A3A3A3A3A3A3A3A3AA
:101A6800A3E8F0A3E9121AA78A828B83121AA7F5B2
:101A7800087509007808120CCAAC12AD138A828B5B
:101A880083A3AA82AB831204C97402120A75850A59
:101A980082850B83E07003021838790102183AF046
:101AA800850A82850B83E022E0FAA3E0FBEA4B2259
:101AB80074F0120AB7890B750A001214F570030244
:101AC8001BFA9002811214F87003021BFAE50B70DE
:101AD8001D750C00800DE50C121BFFE0F46002057B
:101AE8000A050C900283E0F8E50CC39840E8850AE3
:101AF8000875090074037808120A4CE5082406FAE8
:101B0800E5093400FB1204E18A088B09AE08AF0925
:101B1800EE4F70157A067B001204E18A088B09AE35
:101B280008AF09750A00750B13EE4F7003021BE32B
:101B38008E828F8374D0F0A3E50B121D807401127E
:101B48001D80A3E50AF0EE2404F582EF3400F58346
:101B5800E50A607DEE2406F508EF3400F509E5088E
:101B6800F0A3E509F0750C00900283E0F8E50CC3DA
:101B7800985062E50A605EE50C75F00CA4F8A9F0CF
:101B8800900281E028F8A3E039F9E8FAE9FB8A82B3
:101B98008B83E0F874FF686034E8850882850983E0
:101BA800F08A828B83A3121C1F120CCAEA2402FC3F
:101BB800EB3400FD121C141204C97402120A75E5F4
:101BC800082408F508E5093400F509150A050C800C
:101BD80097E4F0A3F0121C311204ED7A009002830E
:101BE800E0F91201E11214EA12054D90029DE4F0A9
:101BF800A3F07F08020B8975F00CA4F8A9F09002F5
:101C080081E028FAA3E0398A82F58322E5082402D4
:101C1800FAE5093400FB22E0850882850983A3F0F0
:101C2800750E06750F00780E22EEFAEFFB90029DF6
:101C3800E0F8A3E0F5838882E0F92274F6120AB787
:101C4800E9FE7A237B001202058B09EA4509600444
:101C58007A0180027A00EEF91202710215F074F22C
:101C6800120AB78A088B091214F57003021D7BEA61
:101C78002408F50AEB3400F50B850A82F583E02485
:101C88000FFAE43400FB1204E18A0C8B0DAE0CAFA2
:101C98000DEE4F7003021D7B8E828F8374D0F0A3EC
:101CA800E4121D80740DF0850882850983121D8851
:101CB800F0E5082428F582E5093400F583E0C0E062
:101CC800EE240BF582EF3400F583D0E0F08508822E
:101CD800850983A3121D88A3F0750C06750D00787D
:101CE8000C120CCAE5082402FCE5093400FDEE24B8
:101CF80005FAEF3400FB1204C97402120A75850A4A
:101D080082850B83E0F50AEE240CF8EF3400F9E83D
:101D1800FCE9FD8C828D83E50AF0EE240D08EF3492
:101D280000F9E8FAE9FBE50A603BEE240FF8EF3426
:101D380000F98A828B83E8F0A3E9F08C828D83E036
:101D4800F50A750B00780A120CCAE5082409FCE5A7
:101D5800093400FD8A828B831214ED1204C97402BF
:101D6800120A7580088A828B83E4F0A3F0121C3172
:101D78001204ED7F06020B89F08E828F83A3A322C3
:101D8800E08E828F83A3A3A322C082C08312077B25
:101D98000221BB74F7120AB77409120AAB12235650
:101DA800801C8C828D83E08A828B83F08C828D8369
:101DB800A3AC82AD838A828B83A3AA82AB83E8FE1D
:101DC800E9FFEE24FF18EF34FFF9EE4F70D4022339
:101DD8000E7F06020B8974F5120AB7ECF8EDF97458
:101DE8000B120AABE0F508A3E0F509AC08AD09EC65
:101DF80024FFF508ED34FFF509EC4D602CEAFCEB07
:101E0800FD8C828D83A3AA82AB83E8FEE9FF8E82D4
:101E18008F83A3A882A9838C828D83E0FC8E828F16
:101E280083E06C60C67900800279017F03020B8928
:101E380074F6120AB7E9FE8C088D097808120CCAE4
:101E48008E08AC087D001207697402120A75022315
:101E58001374F0120AB774D9120A5F7405120AAB28
:101E6800EAF0A3EBF0A3ECF0A3EDF07402120AABD6
:101E7800E9F07409120AABAC82AD8375838E758262
:101E8800E7740A1209B375838E7582E6740A12091B
:101E9800B375838E7582E5740A1209B37437120A12
:101EA800AB1223567437120AABE8F0A3E9F0743783
:101EB800120AAB12253BE4F07403120AAB74E3F088
:101EC800A3748EF07402120AABE0640A6003022065
:101ED8004B7405120AAB780C120970908E9F780823
:101EE800120970780C7908120855851182851283B9
:101EF800E508F0A3E509F07405120AAB780C12099D
:101F080070908E9F7808120970780C79081208551D
:101F1800908E9F7808120970780C7908120855AECF
:101F280008AF097405120AAB780C120970908EA3D9
:101F38007808120970780C7908120855850C0E85F6
:101F48000D0FE50E450F6012790A741D120AABAC2D
:101F580082AD83AA0EAB0F1205B3EE4F6012790A59
:101F68007413120AABAC82AD83EEFAEFFB1205B321
:101F7800122318600D790A7409120AAB1222C012D2
:101F880005B3E50E450F6040741D120AABAC82AD77
:101F9800837437120AAB1222CA12077575080080BB
:101FA800137403120AAB12213E120AAB1222CA1290
:101FB800076F050885080A7413120AABAA82AB8357
:101FC80012077B12212940D97413120AABAC82ADD7
:101FD800837437120AAB1222CA12076FE50E450F37
:101FE8007004EE4F602C75080080137403120AAB5E
:101FF80012213E120AAB1222CA12076F0508850881
:102008000A7409120AABAA82AB8312077B12212930
:1020180040D97409120AABAC82AD837437120AAB8B
:102028001222CA12076FE50E450F7007EE4F7003B4
:102038000221067437120AAB1222CA7427120A75D3
:10204800022558E0641060030221227405120AABCD
:102058007808120970851182851283E508F0A3E5D6
:1020680009F07405120AAB78081209707410780820
:102078001208C4AE08AF09EE4F601279107413123B
:102088000AABAC82AD83EEFAEFFB1205B31223184C
:10209800600D79107409120AAB1222C01205B3EE52
:1020A8004F60407413120AABAC82AD837437120AC6
:1020B800AB1222CA12077575080080137403120A3E
:1020C800AB12213E120AAB1222CA12076F0508850D
:1020D800080A7409120AABAA82AB8312077B122181
:1020E8002940D97409120AABAC82AD837437120A3D
:1020F800AB1222CA12076FEE4F600302203B122375
:1021080018600302203B7403120AAB12213E120A24
:10211800AB1222CA12077502203B7A007B0002200C
:10212800438A0C8B0D7404C3950CF8E4950DF9C320
:10213800E50A98E49922E0FCA3E0FD74372274F6DE
:10214800120AB7EAFEEBFFEE4F603FEE2405FAEF06
:102158003400FB1205478A088B09A808A909E84931
:10216800602888828983E4F0A3F088828983A3A306
:10217800EEF0A3EFF088828983A3A3A3A374FFF0F2
:10218800E82405FAE93400FB80047A007B00022386
:1021980013C082C083EA4B70047905801612222B83
:1021A80060047904800DEA24FBFAEB34FFFB120586
:1021B8004D7900D083D08202013274F7120AB77CBD
:1021C8000002230B74F7120AB7E9FEECFFEA4B6032
:1021D80021908EE9E0F8EEC39840071204E77903EE
:1021E800803E1223CF12231E700512222B60071285
:1021F80004E77905802AEEF074016F700DEAFCEBB4
:10220800FD7A427B03120505800BEAFCEBFD7A425E
:102218007B031204FF7A007B80EEF9120511790026
:1022280002230EEA24FFF582EB34FFF583E0F42263
:1022380074F4120AB78908750A00750B007E007FCE
:1022480000A2AFE433F509C2AF9003428011EE4F0C
:102258007004880A890BE824FBF582E91223D51259
:10226800231E6023E824FFF582E91223D5E06508E0
:1022780070DCEE4F7006E8FEE9FF80DA7A007B80BA
:10228800A908120511800D7A007B80A9081205178C
:10229800EE4F6015780A120CCAEEFCEFFD7A427B0D
:1022A8000312050B7402120A75E509A2E092AFEE5B
:1022B800FAEFFB7F04020B89AC82AD83851182851E
:1022C8001283E0FAA3E0FB2274F7120AB7EAFEEBE6
:1022D800FFA2AFE433FAC2AFEC24FBF582ED122380
:1022E800D5E4F0A3F080031223DA8E828F831223C1
:1022F8001E70F48E828F83ECF0A3EDF0EAA2E092D8
:10230800AF80031204F37F01020B897F02020B895D
:10231800851182851283E0F8A3E0F9E8492274F771
:10232800120AB7E5A8FEC2AF8A828B83122356EC45
:1023380024FBF582ED1223D5E8F0A3E9F08A828B1D
:1023480083ECF0A3EDF0EEA2E7A2E7022307E0F8A2
:10235800A3E0F92274F2120AB7740E120AABE0F580
:102368000AA3E0F50BA2AFE433FEC2AFEC24FBF501
:1023780008ED34FFF509850882F5831223568A8211
:102388008B83E0F50CA3E0F50DEC650C7003ED65AF
:102398000D70068A828B83800BE50A24FBF582E5A3
:1023A8000B1223D5E8F0A3E9F0850882850983E4B8
:1023B800F0A3F0EC24FFF582ED1223D574FFF0EEC4
:1023C800A2E092AF021DD9EA24FBF582EB34FFF5B7
:1023D8008322E824FBF8E934FFF9E8FEE9FF2274D8
:1023E800F7120AB7E9FD908EE9E0F8EDC398502B93
:1023F800E5A8FEC2AFEDC333F8E433F9900356E025
:1024080028FCA3E0398C82F583E04AF0A3E04BF086
:10241800EEA2E7A2E792AF79008002790302230EC9
:1024280074F7120AB7E9FE908EE9E0F8EEC3985007
:1024380021E5A8FFC2AFEAF4FCEBF4FDEE12254457
:10244800E05CF0A3E05DF0EFA2E7A2E792AF7900CD
:102458008002790302230EE9F874FF687006C2AFA0
:10246800790080027907020132C082C08312053BDD
:10247800900342E4F0A3F012057112055312056BA4
:1024880012054179000221BBC082C08312052F804A
:10249800FB74F4120AB7750800120535120601E537
:1024A8000812254412231E700D0508908EE9E0F8E5
:1024B800E508C39840E9908EE9E0F8E508C398502C
:1024C8006CE5A8FCC2AFE508C333FEE433FF900314
:1024D80056E02EF8A3E03FF9888289831222CA8841
:1024E800828983E4F0A3F0ECA2E7A2E792AFE508C3
:1024F8009004C7F0F9743E2EF582748E3FF583126E
:10250800253B120AB59004C774FFF0E5A8F9C2AFDD
:10251800900356E02EF8A3E03F8882F583E04AF066
:10252800A3E04BF0E9A2E7A2E792AF8003120565AA
:102538000222BBE0F8A3E0F583888222C333F8E4E3
:1025480033F9900356E028FAA3E0398A82F583220A
:102558007F08020B8974F4120AB7E99002C1F012DD
:1025680003FD907800E0C4540F54076403700479A5
:102578003F8002797F7508067509007808120CCA31
:102588007CAF7D027AEA7B071206077402120A758D
:102598009002AFE0F47049A3E0F47044A3E0F47053
:1025A8003FA3E0F4703AA3E0F47035A3E0F4703090
:1025B80090780EE09002AFF090780FE09002B0F0C3
:1025C800907810E09002B1F0907811E09002B2F0AB
:1025D800907812E09002B3F0907813E09002B4F093
:1025E8009002B51226ED122B9D9002D37406F0A32B
:1025F800740D12289F7440F0A37401F09002DD124C
:1026080026ED9002DCE4F09002E30412289F1226E3
:10261800E41226E412289F04F0A312289F742512BE
:10262800289FF09002F174FFF0A3E4F09002F3F019
:102638009002F504F09002F67490F0A37401F01281
:1026480003071202B91203A379017AF87B02120375
:10265800319002F8E075F01484E5F004F0120337C5
:102668007A009002C1E0F912055F907803E06442B5
:1026780070559002F8E014F0704DC2AF1226870032
:102688007817D0E0F618D0E0F6E59F540770057586
:1026980009FF800375097FC4C0E07816E6F50808CD
:1026A800E65509F509740B7808120A3DD0E02508AB
:1026B800F8906270E0A2E740F8E8C333906272F0E5
:1026C800906270E0D2E0F09002D8E4F0A3F07A8053
:1026D800FB9002C1E0F912051102289AF0A3748058
:1026E800F0A374022274FF1228A5F0A3F02274F458
:1026F800120AB7EAFEEBFFEEA2E0503F9002C3E0F9
:10270800C39480E0500FC333F8E433F974AD28F56F
:10271800827404800EF4C333F8E433F974BB28F5EB
:1027280082740439F583122B7B120AB57A00900261
:10273800C1E0F912055FEE64018033548060339084
:1027480002F6122B66F9E8496021790012055990C2
:1027580002F6122B837808120CC67A007B019002CD
:10276800C1E0F91205897404120A75EE6480FAEF63
:10277800802DEF5401600C7901120559EEFAEF64CF
:1027880001801CEF5402600AC2AF75C9AB75C95B02
:1027980080FEEF5404600B12138CEEFAEF6404FB16
:1027A80080179002C8E06401700BEE54206006EEBA
:1027B8006420FA80047A007B0002289AC082C083D1
:1027C800C2AF1203D9E5E170FC75E1011202DD75B3
:1027D800E1F11204151202D1790712048D79011260
:1027E8000493790212042D1204511204757900120F
:1027F80004877901120487908E8B12098E120421A6
:102808009002E4E4F0120367120325790012049998
:10281800906012E4F0A3F0906063F07514009002E9
:10282800C2F09002C4F0A3F09002C7F09002C8046E
:10283800F09002D27403F09002F4E4F0D2AFF902FF
:102848002893C082C0839002AF12288AF09002B009
:1028580012287DF09002B112287DA3F09002B212E6
:10286800287DA3A3F09002B3122882F09002B4123C
:102878002882A3801312288AA32212288AA3A3A33A
:10288800A322E08A828B8322F07900D083D082024F
:1028980001327F04020B89F0A3E4F0A322F0A3F035
:1028A800A3F0A3F0A3227F01020B89E0FAA3E0FBC7
:1028B8002274F7120AB7E9FE600574016E7032746B
:1028C80009120AABE0FF600574016F7024122B6BCC
:1028D800501FEC24FCF8ED122B705015C3EA9CEB4A
:1028E8009D400E740A120AABE0F8600A7401686031
:1028F80005791202299C9002E4E064017005790CC4
:1029080002299CEEA3F0E89002EAF0EF9002DC7056
:102918002FE4F09002AFE09002DDF09002B0E0907A
:1029280002DEF09002B1E09002DFF09002B2E09097
:1029380002E0F09002B3E09002E1F09002B4802E41
:102948007401F09002B5E09002DDF09002B6E090DC
:1029580002DEF09002B7E09002DFF09002B8E0905B
:1029680002E0F09002B9E09002E1F09002BAE09043
:1029780002E2F09002E6EAF0A3EBF0A3ECF0A3ED9C
:10298800F0E8700479008007740168700579011215
:10299800045D79000228AE74F0120AB7E9FEEAFF76
:1029A8009002C2E064097003022AC7E0640A700357
:1029B800022AC7E0640B7003022AC7E0640C7003A4
:1029C800022AC7E0640D7003022AC79002E5E0F806
:1029D80060087401686003022B5E9002DCE0F86016
:1029E800087401686003022B5E9002E61228B31295
:1029F8002B6B4003022B5EA3122B66F9E824FCFC28
:102A0800E934FFFDC3EC94FDED943F4003022B5ED7
:102A1800C3EA98EB995003022B5EEF600874016FCC
:102A28006003022B5EEE7003022AC1146003022BBE
:102A38005E9002E4E064017003022AC7790212037F
:102A48007F9002DAEAF0A3EBF09002E47401F090D0
:102A580002E3F0EF9002EBF09002C2E0705612032E
:102A6800191203E58A0C8B0D8C0E8D0F908EA778AA
:102A78000C12090F908EAB780C12095D9002DA12D5
:102A88002B7BA3A3780C12097F122B63C824061290
:102A98002B95E4F0A3F09002E8122B83780C7908C8
:102AA8001208FC122B63C8240E122B95780C1209FD
:102AB8007F12036D7900022B909002E4E070047994
:102AC8002180F3A2AFE433F508C2AF7ADA7B0212B1
:102AD80003859002E4E4F012039DE970461203D9DD
:102AE800906182E0C2E6F0E5E170FC75E101759164
:102AF800BF790112049375E1F19002C8E064017096
:102B0800187A207B009002C1E0F91205957A207BA3
:102B1800009002C1E0F91205177A009002C1E0F9AD
:102B280012055FE508A2E092AF9002EAE0F87401AE
:102B3800687006120475022ABCA3E06401600302EF
:102B48002ABCE86003022ABC1204511204757901F8
:102B5800120481022ABC7912022ABE9002DAE0F835
:102B6800A3E022EA24FCF8EB34FFF9C3E894FDE97A
:102B7800943F22122B66F583888222E0F508A3E0B1
:102B8800F509E4F50AF50B227F08020B89F582E8BE
:102B98003400F583229002AFE09002BBF09002B0BF
:102BA800E09002BCF09002B1E09002BDF09002B259
:102BB800E09002BEF09002B3E09002BFF09002B441
:102BC800E09002C0F022C082C083900324E4F09019
:102BD800032374FFF0900320F090031FE4F09003A8
:102BE8001EF0900321F0A3F00231F374EC120AB73F
:102BF800900321E0F50CA3E0F50DE50C450D7006FA
:102C08001202F5022E0E850C82850D83E0F9146000
:102C18000A14600724FE6003022E0E1203798A0844
:102C28008B09AE08AF09EE240EF50AEF3400F50B58
:102C3800122F8DFAA80CA90DEE687002EF696003D7
:102C4800022D5B74026A6003022E07EE2415F5104C
:102C5800EF3400F511851082F583E06039122F9D5D
:102C68007003A3E069602F1203E58A0C8B0D8C0EAC
:102C78008D0F908E8F780C12090F780C120CC68568
:102C8800088285098312098E1212BA7404120A7511
:102C9800E96003022E071203E58A0C8B0D8C0E8D5A
:102CA8000F908E83780C12090F908EAB780C120956
:102CB8005D850882850983E50CF0A3E50DF0A3E5A1
:102CC8000EF0A3E50FF0850882850983780C1209B8
:102CD80070851082851183E0640170269002E8E017
:102CE800F508A3E0850810F511E4F512F513780C42
:102CF80079101208FC850A82850B83780C12097FEB
:102D0800804E850A82850B83120CDDAA0CAB0DACB4
:102D18000EAD0F1212BA7404120A75E9640170300C
:102D2800850882850983C082C083122E13D083D080
:102D380082780C12090F850A82850B83780C120998
:102D48007F9002EEE06427700474258002E004F0AE
:102D5800022E0774026A6003022E0E1203199002F3
:102D6800EBE0640170169002EAE070107901120439
:102D78007B1204511204757900120481122F9D7080
:102D880003A3E069602C1203E58A0C8B0D8C0E8D71
:102D98000F908E8F780C12090F780C120CC68508CC
:102DA8008285098312098E1212BA7404120A75E90F
:102DB80070471203E58A0C8B0D8C0E8D0F908E8355
:102DC800780C12090F908EAB780C12095D85088279
:102DD800850983780C12097F850882850983C0825A
:102DE800C083122E13D083D082780C12090F850A63
:102DF80082850B83780C12097F9003207402F0EE11
:102E0800FAEFFB1203737F0C020B899002E8E0F5DE
:102E180008A3E085080CF50DE4F50EF50F2274F013
:102E2800120AB7EAFEEBFF8E828F83A3A3A3A3A3A4
:102E3800A3E0FAA3E0FB1203CDEE2402F8EF34007E
:102E4800F9880889098882F58312098E1203C185D9
:102E5800088285098312098E1203B5EE240E122FFB
:102E68007912098E1203C78E828F83E06440701C2A
:102E7800EE2412F8EF3400F988828983E0906064C8
:102E8800F088828983A3E09060658006906064E49E
:102E9800F0A3F0900321EEF0A3EFF0EE2416122F2A
:102EA80079E0F8A3E0F5838882120AB5906054E4CB
:102EB800122F81A3122F81906182E0C2E6F07591F2
:102EC800BFEE2415F8EF3400F9880A890B8882F5DB
:102ED80083E064017003120403E5E170FCEE24143E
:102EE800122F79E0F874FF68600288E1850A82850C
:102EF8000B837401F09002C8E06401706F1203E55F
:102F08008A0C8B0D8C0E8D0F780C120CC6850882DE
:102F180085098312098E1213167404120A758A0819
:102F28008B098C0A8D0B908E9B780C12097078088F
:102F3800790C1207D5740378081208C4E50824F43C
:102F4800F508E5093401F5099002F5E0600312057A
:102F580035E4F50AF50B7808120CC67A207B009048
:102F680002C1E0F91205897404120A757F08020B80
:102F780089F582EF3400F58322F0A3F0A3F0A3F0E3
:102F8800A3F0A3F022EE2402F508EF3400F5098E31
:102F9800828F83E0229002E6E0F8A3E0F9A3E068DC
:102FA8002274EE120AB7890874FF65087039900315
:102FB8001FE0540770030231207904120391E96479
:102FC8000170047904801A7901120391E96401708F
:102FD800047901800C7902120391E964017008797F
:102FE80002120397023124A9081203978A108B1141
:102FF800A908120391E96401700575090180037538
:103008000900E5102402F50AE5113400F50BE5087E
:1030180014600D14607A24FE70030230B802312067
:103028007902120391E96401704979021203978ABF
:103038000C8B0DAE0CAF0DE509A2E0502F8E828FE0
:1030480083A3A3780C120970908E7B780C12090F59
:10305800780C120CC6850A82850B8312098E12120F
:10306800BA7404120A75E9700302311AEEFAEFFB1A
:103078000231247904120391E96401601DE509A273
:10308800E05006AA10AB1180047A007B00023124BC
:103098007904120391E9640170047904802C7901A0
:1030A800120391E964016012E509A2E0506A8062A6
:1030B8007901120391E9640170047901800C7902A5
:1030C800120391E96401704479021203978A0C8B08
:1030D8000DAE0CAF0DE509A2E050918E828F83A34F
:1030E800A3780C120970908E7B780C12090F780C5B
:1030F800120CC6850A82850B8312098E1212BA74C5
:1031080004120A75E960030230748006E509A2E03A
:103118005006AA10AB1180047A007B007F0A020BCC
:103128008974F7120AB7E9FE900324E0705B740112
:10313800F0EE900323F01203E590032512099A900C
:103148000329E4F0A3F090033174FFF0A3F0A3F097
:10315800A3F09003377401F0A3F0A3E4F0A3F09078
:10316800031FE04EF090031EE004F06401600A744F
:10317800806E600574406E700A9003217423F0A37A
:103188007403F07A237B0380047A007B007F0102BA
:103198000B89C082C0838A828B83E0F8A3E0F98A16
:1031A800828B83E4F0A3F088828983A3F0888289E4
:1031B80083E0F4F890031FE058F090031EE014F049
:1031C800700B900321E4F0A3F09002C2F0801CC0C1
:1031D80082C08390031EE0600A900321E0FAA3E016
:1031E800FB80047A007B008002E0F9D083D0820261
:1031F8000132C082C083E9F8900323E0687005A318
:10320800E0F98002790080E3C082C083900323E064
:1032180069700CA3E0640170067A237B0380047A4A
:10322800007B0080C6C082C08390031E80BBC08222
:10323800C08312040912040F120415120403023782
:10324800ADC082C0839061B1E0C2E0F0E0D2E0F0AE
:10325800906188E0640470F80237ADC082C0839042
:1032680061B1E0C2E0F09061F3E4F09061F2F0F84F
:10327800F91232C39061F01232FE94FEE9940D40C7
:10328800F00237ADC082C0839061F3E4F09061F240
:10329800F0F8F99061F0E0FA1232C36A700A12335A
:1032A8000394FEE9940D40EB74FE687003740D6995
:1032B80070047900800279010237AD740028F58224
:1032C800748039F583E022C082C0839061C0E0FA3F
:1032D800E4F0F8F9E82400F582E93460F583E412B3
:1032E80032FE9480E9940140EBEA9061C0F090616D
:1032F8008A74010237A8F012330322E8240108E98E
:103308003400F9C3E822C082C0838A828B83E090AC
:1033180060161236D9A3E090601712334C906018EB
:1033280012335590601912335A90601A12335F9015
:10333800601BF0E99060157005E0C2E08003E0D200
:10334800E00237ACF08A828B83A3A3E02212336AAF
:10335800E022123365E022123365A3E02212336AB9
:10336800A322F08A828B83A3A3A32274F0120AB744
:10337800EA906005F0EBA3F0ECA3F07F08020B895C
:10338800C082C0837401699060037005E0D2E08058
:1033980003E0C2E00237ACC082C083906003E0540F
:1033A800F9490237ACC082C083EA90600AF0EB5456
:1033B800010237ABC082C083E990600C7005E0C29F
:1033C800E08003E0D2E00237ACC082C083E99060BD
:1033D8000C7005E0C2E18003E0D2E10237ACC082A4
:1033E800C083906061E002342374F0120AB79061E0
:1033F800947420F0EAA3123738023381C082C08364
:1034080090033BE4F0906022F0A3F0A37830F0A39F
:10341800D8FC0237ADF07F02020B89F90237AD7490
:10342800F4120AB7EAFEEBFF89088C0990033BE027
:10343800640870047903807C1204ABE9F47068793D
:1034480000750A01750B00E9780A120A4CAC0A905B
:103458006022E05C7055E04C1234C1FA74603BFBAA
:1034680078068E828F831237048E828F83A3AE8272
:10347800AF838A828B83A3AA82AB8318E870E3E5C3
:1034880008700AECF4F8906023E0588005906023F7
:10349800E04CF090033BE004F074016509700512FC
:1034A8000463800312046F7900800909E9C3940852
:1034B800408F79017F04020B89F0E975F006A4FAC0
:1034C800ABF074242A22C082C083E990601470058E
:1034D800E0C2E28003E0D2E20237AC74F6120AB727
:1034E800750801750900E97808120A4C906009E02E
:1034F800450802341D74F7120AB71204AB74FF6949
:1035080060071204637900800279057F01020B8944
:1035180074F6120AB7750801750900E97808120AE5
:103528004CE508F4F8906009E05802341DC082C0E8
:1035380083906009E40237AC74F2120AB774FA1285
:103548000A5F7A007B60E970027A33906009E0F8DC
:10355800906022E0F50BA3E0F99061C07401F0E8F7
:103568008A828B83F0A3E50BF0A3E9F0A3AA82ABD0
:10357800839061C0E4F0F50A750C01750D00E50A49
:10358800780C120A4CE50C550B6056750900E50AD3
:1035980075F006A4F8A9F0850982AC82742428FE87
:1035A800746039FFEE2CF582EF1236CEC0E0123689
:1035B800AAD0E01236DF40DF9061C07401F07509CF
:1035C800001236BCC0E0E82CFCE93400FDEA2CF51A
:1035D80082EB3DF583D0E01236DF40E59061C0E430
:1035E800F0050AE50AC39408408E7406120A757F2E
:1035F80006020B8974F2120AB774FA120A5F7A008B
:103608007B60E970027A331236D4E0F8A3E0F50B58
:10361800A3E0F9A3AA82AB839061C0E4F0E89060CC
:1036280009F0E50B906022F0E9A3F0750A00750C2B
:1036380001750D00E50A780C120A4CE50C550B6073
:10364800559061C07401F0750900E50A75F006A48B
:10365800F8A9F0850982AC82EA28FEEB39FFEE2C46
:10366800F582EF1236CEC0E01236AAD0E01236DF6D
:1036780040E19061C0E4F0F5091236BCC0E0E82CE6
:10368800FCE93400FD74242CF58274603DF583D088
:10369800E01236DF40E3050AE50AC39408408F02CA
:1036A80035F2851182851283E5822CF582E5833413
:1036B80000F58322850982AC82851182851283E513
:1036C800822CF582E5833400F583E0229061C07492
:1036D80001F08A828B8322F00509E509C39406224A
:1036E800C082C0837A007B60E970027A331236D4D4
:1036F800E4F0A3F0A3F09061C00237AC12370822BF
:103708001237B4F022C082C083E99060020237AC5D
:10371800C082C083E99060027005E0D2E38003E0D4
:10372800C2E30237ACC082C083E99061C60237ACFD
:10373800F0EBA3F0ECA3F0ED22C082C083E96017A0
:1037480014601C14601E14602314602514602A146D
:10375800603314603C80419061E9E054FC8038900B
:1037680061E9801C9061E9E0C2E0802B9061E9800A
:103778001B9061E9E0C2E1801E9061E9E0C2E1F0DE
:10378800E0D2E080129061E9E0C2E0F0E0D2E180AE
:10379800069061E9E04403F0800B75E18202013292
:1037A800F0A3F0A3F0D083D082020132E08A828BAA
:1037B800832274F5120AB7890A7900750801750918
:1037C80000E97808120A4C906022E055086052E936
:1037D80075F006A4FCADF074242CFC74603DFD75F6
:1037E8000800850882AE82EC2EF582ED1236CEF8FE
:1037F800EA2EF582EB1236CE6870090508E508C393
:10380800940640DE740665087017906023E0F5089A
:10381800750900E97808120A2DE5085401650A605F
:103828000909E9C39408409379FF7F03020B89C013
:1038380082C0839061907404F0A37448F0A3E4F00C
:103848009061807440F09061BC7407F09061877457
:1038580069F09061B67416F079001202FB790212D1
:103868000301901400E493F46006E493F91202D77C
:10387800790512049F023A75C082C083E9540FF992
:10388800906185E0696012E5C654804449F5C6E553
:103898009E547F644970F8E9F053C680E59E547FD2
:1038A80070FA023A7574F7120AB7E5A8FE53A87EB3
:1038B8001202E3C2BA539AFEC289759B00C2C212B1
:1038C80002E975A91175B9051202EFD2BA439A0136
:1038D80074805E42A87F01020B89C082C083906118
:1038E80081E4F0A3023A7275E90075910075BF0092
:1038F800020132C082C083906181E4F0A374C0F0F9
:10390800A3E4023A74C082C08374F8120A5F90027A
:10391800C4123DCAE84970030239D99002C4E05480
:103928004060237908851182851283AA82AB8312AD
:103938000331851182851283AA82AB8312027790A4
:1039480002C4E054BFF0E0A2E0500F79001202FB7D
:1039580012027D9002C4E054FEF0E05402600F7938
:10396800011202FB12027D9002C4E054FDF0E05403
:1039780004600F79001203011202839002C4E0541C
:10398800FBF0E05408600F790112030112028390E2
:1039980002C4E054F7F0E05410600F7902120301FA
:1039A8001202839002C4E054EFF0E05420600F79D3
:1039B800031203011202839002C4E054DFF0A3E073
:1039C8005401600D12030D1202899002C5E054FEE5
:1039D800F07408120A75023A75C082C083E960055E
:1039E80014602A804F90619A7433F0A37455F09054
:1039F80061A0743AF09002F3E064017009C29190FA
:103A080002C67467802D9002C67461802690619A00
:103A1800743FF0A3745AF09061A0747FF09002F3A1
:103A2800E064017009D2919002C674718005900219
:103A3800C6746AF08037C082C083E9600B14600DD9
:103A480014601714600C80209014048015901405DD
:103A580080109002F3E064017005901406800390D2
:103A68001407E493906186F08003F0A3F0D083D02C
:103A78008202013274EE120AB774F4120A5F8511D9
:103A880082851283AC82AD8375838E7582937404AC
:103A98001209B390140493F46003023BA6907808CB
:103AA800E0C394025003023B867404120AABAC8252
:103AB800AD8375838E75826674081209B3FC7EFF28
:103AC8007FFF8E0C7D008C8285820E800F74086DBE
:103AD800606D74096D6068740A6D60638D0875099E
:103AE8000074027808120A4C123BB0120970A90936
:103AF800E50AC9F88810741878081208C4E5104552
:103B080008FAE9FBE50EC333F8E433F97404120A42
:103B1800ABE58228F582E58339123DC8C3E89AE906
:103B28009B4008E8C39AF8E99B8006EAC398F8EB3B
:103B380099F9C3E89EE99F5006E8FEE9FF8D0C0D50
:103B4800EDC39413408774FF6E700374FF6F602495
:103B5800850C0874027808120A4C123BB0120970DE
:103B6800851182851283E582250EF582E583123D53
:103B7800D4E508F00CECC394045003023AC6750867
:103B8800017509007808120CCA7402120AABAC82DB
:103B9800AD837A017B0512060D7402120A75740C46
:103BA800120A757F0A020B8974482508F582747811
:103BB8003509F583780822C082C083906186E0F8D1
:103BC800901407E493687009901406E49390618652
:103BD800F09061AE7468F0A3746AF090624574FB6B
:103BE800F0A304F053F4FD43FE029002F37401F0D5
:103BF8009061A0E0643A70047900800279011202B1
:103C0800FB023A75123DE0940622E0C4333354C0F7
:103C180022C082C0839002EE7425F09002EC7401F9
:103C2800F0A3E4F07A01FB120433123C652416F584
:103C380082E8123DD4741FF0A37403F09002EBE005
:103C4800640170169002EAE07010790112047B1288
:103C580004511204757900120487023A759002DA49
:103C6800E0F8A3E0C82274F6120AB774FA120A5FE1
:103C78009002E3E0640170081203139002E3E4F099
:103C880075E1F1123C652415F582E8123DD4740102
:103C9800F09002E5E064017053908E75C082851142
:103CA80082851283AC82AD8375838ED082740612AE
:103CB80009B375D90D9002DC123C124403F5D9788A
:103CC80000880874DD123E1E7402123C0C40F27823
:103CD800008808851182851283E582123E1EE583DD
:103CE800123C0C40EC75E1957901800279001204D0
:103CF800399004AD123D6D7449F0A37403F0A3121A
:103D08003D6D123D6D123D76744FF0A37403123D64
:103D18008B9002DCE0F97ADD7B0212041B9002EE44
:103D2800E0F912137E790112043F908E9712098EE2
:103D380012044B908E8B12098E1204217900120402
:103D4800939002DA123D62123DD47416F09002C2CA
:103D58007405F004120A75023DECE0F8A3E0C824EB
:103D680014F582E8227443F0A37403F0A322123DF1
:103D78007A22743DF0A37403F0A3743DF0A3740396
:103D8800F0A322123D8F22F09004BB123D9BA31298
:103D98003D9B22123D7A743DF0A37403F022C08249
:103DA800C0839002DA123DBEF0A3F09002EEE0F973
:103DB80012137E023A75123C682406123DD8E4229A
:103DC800F583123DCE22E0F8A3E0F922123DDB2272
:103DD800F582E83400F583223400F583E0F5D9084C
:103DE800E8C322F07F02020B89123DF5223400F568
:103DF80083E4F02274F6120AB77800880874CA12AD
:103E08003E1E7402123DF108E8C3940840ED90028A
:103E1800CA7401023DEB2508F5822274F4120AB730
:103E280074FC120A5F7F00900405E4F0900402F02D
:103E38007E7D7508047509007808120CCA74021290
:103E48000AABAC82AD837A007B00EEF912060774E8
:103E580002120A75908ED37808120970851182852E
:103E6800128378081207817019900402E0600FF934
:103E7800120721EEF9120721900402E48001EEF006
:103E8800801E8511828512837808120970E508451D
:103E980009450A450B7004EEFF8005EEF91207216B
:103EA8000EEEC3947F408B900402E07026EF7018EA
:103EB800797D1207159004037404F0A3E4F09004CC
:103EC80005E0601979008017F0120727EFF912074B
:103ED80033800AEF6004F912071B120727790102E1
:103EE8003F7D74F7120AB774FC120A5FE9FE851168
:103EF80082851283E4F0A3F0A37410F0A3E4123FC8
:103F08002112073F900405E07005EE900402F0745A
:103F180004120A757F01020B891240D6FAFB22743B
:103F2800F4120AB774FF120A5F8908900405E0705A
:103F3800331206137E007F00750A01750B00780A9C
:103F4800120CCA7402120AABAC82AD83EEFAEFFB14
:103F5800A9081206077402120A7585118285128350
:103F6800E0F460089004057401F08005123FD14028
:103F7800C7740180027404120A757F04020B8974E5
:103F8800F4120AB774FF120A5F89087E007F007571
:103F98000A01750B00780A120CCA7402120AABAC3B
:103FA80082AD83EEFAEFFBA9081206077402120A23
:103FB80075851182851283E0F46007A90812071B32
:103FC8008005123FD140C880A8EE24010EEF3400CE
:103FD800FFC394082274F4120AB774FC120A5F7EB5
:103FE800FC7F077508047509007808120CCA74026A
:103FF800120AABAC82AD83EEFAEFFB900402E0F953
:104008001206077402120A75908ED7780812097082
:104018008511828512837808120781700AEE24FCC4
:10402800FEEF1240C550BC1243BDE8F0A3E9F00210
:104038003F7D74F4120AB774FC120A5F8908EAFE1D
:10404800EBFF8C09EE24FCFEEF1240C54068750AB0
:1040580004750B00780A120CCA7402120AABAC82FF
:10406800AD83EEFAEFFBA9081206077402120A756F
:104078007402120AAB1240D0851182851283850919
:104088000AE0650A7002A3E0700AEEC398FAEF949A
:1040980000FB8026E9548070ABE82404FAE9340078
:1040A800FBC3EE9AEF9B400EEEC398F8EF99F9E840
:1040B80024FCFEE980937A007B00023F7D34FFFFF9
:1040C800C3EE9404EF940022E0F8A3E0F922F0850F
:1040D8001182851283AC82AD832274F0120AB77400
:1040E800F3120A5FE9851182851283F0750FFF6468
:1040F8007D7005750E7E8003750E7D750A04750B3F
:1041080000900403E024FCFEA3E0024213740312AF
:104118000AABA3E0548060030242027403120AABA4
:10412800850F08E065087002A3E07003024202747C
:1041380003120AABE0F50FFCAA0AAB0BA90E120793
:104148002D8B09EA450960030242027405120AAB85
:10415800124299F508EF99F5097407120AABE8F0CD
:10416800A3E9F07401120AABE4F0A3F0750C04752E
:104178000D00780C120CCA740B120AABAC82AD831A
:104188007403120AABE02508FAA3E03509FB900492
:1041980002E0F91206077402120A757409120AABD2
:1041A800AC82AD837401120AABE0250AFAA3E035AC
:1041B8000BFBA90E12073F7401120AABE02404F0AE
:1041C800A3E03400F07407120AABC082C083740104
:1041D800120AAB1240D0D083D082C3E098A3E099F2
:1041E800508A7405120AABE02404F8A3E03400F9FD
:1041F800E50A28F50AE50B39F50B7405120AAB1226
:104208004299F8EF99F9E824FCFEE91240C5405CB0
:10421800900405E070767508047509007808120C9A
:10422800CA7405120AABAC82AD83EEFAEFFB7402D6
:10423800120AABE0F91206077402120A7574031227
:104248000AABE0F47003A3E0F460030241157405BF
:10425800120AAB1240D054806007EE24FCFEEF80B7
:10426800AA1243B3EE98EF994022808EA90E120746
:1042780015900405E0700A900403E50AF0A3E50B25
:10428800F0851182851283E0F912071B740D024331
:10429800ABE0F8A3E0F9EEC3982274F1120AB77400
:1042A800FC120A5F890E8A088B098C0C8D0D741319
:1042B800120AABE0FE8018E5082404F508E5093485
:1042C80000F509E50C2404F50CE50D3400F50DEEB8
:1042D800FF74FF2F1E046045750A04750B00780AE9
:1042E800120CCA7402120AABAC82AD83AA08AB09DD
:1042F800A90E1206077402120A75780A120CCAACC3
:104308000CAD0D7402120AABAA82AB831204CF74EF
:1043180002120A75E970A09004057401F074041281
:104328000A757F07020B8974F0120AB7890AEAFE38
:10433800EBFF8C0E8D0F900405E0704D750801752C
:1043480009007808120CCA8E088F097402780812BE
:104358000A3D890CF50D7409780C120A4CE50824FD
:1043680000FAE509350DFB12060D7402120A75757F
:1043780008017808120CCEAC0EAD0FEEFAEFFBA9CF
:104388000A1207397401120A750243AEC082C0834B
:1043980012070FE97004790180027900D083D08276
:1043A800020132120A757F08020B89E82404F8E931
:1043B8003400F9C322EE2404F8EF3400F990040322
:1043C80022C082C0839002A774FFF0A3F0A3F0A3D9
:1043D800F0A3F0A3749FF0A3E4F0A37420F090027C
:1043E800A614F0D083D0820201327F02020B897FAB
:1043F8000A020B8974EE120AB78A088B09890B8C9A
:104408000E8D0F90033EE07009900340E0700302A8
:1044180044C89002A4E060030244C8898285820CE3
:10442800750D00E92407FAE43400FB1204E18A1050
:104438008B11AE10AF11EE4F70030244D97418659A
:1044480008700474206509600C741765087004749A
:104458002065097010900340E0600AF50A8E828F8B
:10446800837492800C90033EE0F50A8E828F8374E9
:1044780091F0A3740E1244FB8E828F83A3A3F08E57
:10448800828F8312490CEE2405F8EF3400F9E8FA1C
:10449800E9FBEE2407F8EF124671F0780C120CCA0B
:1044A800AC0EAD0F8A828B83E0FAA3E0FB1204C93D
:1044B8007402120A75EEFAEFFBA90A1204ED8011D4
:1044C800780E120CCAAC0B790E1202A17402120AF1
:1044D800750243F774F6120AB7E9FE8C088D09785D
:1044E80008120CCAEEFC79FF1202A17402120A75B6
:1044F8000243F2F09002A5E02274F2120AB7890989
:104508008A0A8B0B8C0874072508FA74FF65096002
:1045180004780380027802E82AFA7B001204E18A10
:104528000C8B0DAE0CAF0DEE4F70030246238E823E
:104538008F837401F0A374FFF0EE2402FAEF3400C5
:10454800FBEE2404F8EF124661E509124657E02411
:1045580002F8A3E03400F9890DA90B740E120AAB16
:104568001248CC74FF650960327403250888828577
:104578000D831244FBC0E0124628D0E0124650E5F5
:104588000A124650A3E9F085080A750B00780A124A
:104598000CCA8A828B83E024068066740225088808
:1045A80082850D83F08C828D83E0C0E0124628D08E
:1045B800E0F08C828D83A3E0C0E012463CD0E0F0AE
:1045C8008C828D83A3A3E0C0E012463CA3D0E01206
:1045D800464B240612464112464B12491CE9F08507
:1045E800080AE50A24FDF50AE434FFF50B780A12F7
:1045F8000CCAEC2403FCED3400FD8A828B83E02492
:1046080008FAA3E03400FB1204C97402120A75EE1A
:10461800FAEFFB90033CE0F91204ED7F06020B89E8
:1046280012462C228A828B83E0F8A3E0F5838882E5
:10463800A3A3A32212462CA322F582E83400F58313
:10464800E50A2212467DC82212468AA3A3A3221293
:10465800465B22F08A828B832212467112467DF5D0
:10466800838882740412468A223400F98A828B83F2
:10467800E8F0A3E92212468122F08A828B8312494C
:104688000222124681F5838882A32274E8120AB7AF
:1046980089148A118C168D178B0D8B82AE82741833
:1046A800120AAB124902F97418120AABE8F0A3E92E
:1046B800F0741A120AABE0F51090033EE0700302A2
:1046C800479D7A2F7B001204E18A0A8B0BEA450B7F
:1046D80070030248991248DB7402F0EA2403F50ECD
:1046E800EB3400F50F850E82F5837401F0EA240699
:1046F800F508EB3400F509124907750C00807B8535
:104708000882850983E514F0A3E511F07512067592
:1047180013007812120CCAAC16AD17E5082402FA79
:10472800E5093400FB1204C97402120A758508826F
:10473800850983A3A3A3A3A3A3A3A3EEF08E127852
:1047480012120CCA741A120AAB1248CCE5082409D2
:10475800FAE5093400FB1204C97402120A75E50867
:104768002428F582E509124921E510F0050CE50831
:104778002429F508E5093400F509850E82850F839B
:10478800E0F8E50CC3985003024707AA0AAB0B9060
:10479800033E0248949002AEE0A2E5400302489925
:1047A8009002A6E0A2E14003024899740C250DF599
:1047B8000C7407250CFA7B001204E18A0A8B0BEAB9
:1047C800450B70030248991248EFF508EB3400F5E1
:1047D800091248D2850882850983E8F0A3E91248BE
:1047E8009E740412489EA3743E1248B9E50C124800
:1047F800B9A374021248C674011248C6A3E514127C
:1048080048A5124917240612491EE511F0750E062F
:10481800750F00780E120CCAAC16AD178508828584
:104828000983E02407FAA3E03400FB1204C97402E8
:10483800120A75850882850983124917240D1249C1
:104848001EEEF08E0E780E120CCA741A120AAB12F3
:1048580048CC850882850983E0240EFAA3E0340059
:10486800FB1204C97402120A75A80D85088285090D
:1048780083E028F8A3E03400F9E8240EF582E91271
:104888004921E510F0AA0AAB0B90033CE0F91204A9
:10489800ED7F10020B891248A51248AD22F0850859
:1048A80082850983221248B122124902F58388823F
:1048B800221248BD221248A51248B1A3A3221248C9
:1048C800BDA3A322E0FCA3E0FD22EA2404F8EB3414
:1048D80000F9228A828B8374911248E522F0A3742E
:1048E8003E12465BA3A3221248F3228A828B83746A
:1048F80001F0A374FFF0EA240222E0F8A3E0228A80
:10490800828B83A3A3A3A3E508F0A3E509F02212F1
:104918004902C8222407F582E83400F58322C082C0
:10492800C0837A00790F12069743FE0143FE0243C3
:10493800FE10024DA074F5120AB789088A09EA60C8
:104948002F14602C14600A24FE601B24FC60218054
:104958000B7CE87D037B057A0112069D900390E0AD
:10496800F97F03020B897CE87D037B057A3280E9B5
:10497800750A0153080F7E937F03801DE06401F0E0
:10498800E0FAA90A1206A9E50A6208E50AC333F59E
:104998000AEE2409FEEF3400FFE50860BF550A60FF
:1049A800EA740865098E828F8360D1E50980D07426
:1049B800F2120AB789088A0B8B0A8C0C8D0DE970E4
:1049C80003024A7FEB7003024A7FEC450D70030235
:1049D8004A7FEBC394644003024A7B75090153087C
:1049E8000F7E937F03806E5509605C8E828F83E013
:1049F800C39402500D900390E05509F8900392E09B
:104A080048F08E828F83E4F0A3A3A3E50CF0A3E51E
:104A18000DF08E828F83A3A3E50AF08E828F83A385
:104A2800E50BF070078E828F837404F01205A78E51
:104A3800828F83A3A3A3A3A312099A8E828F83E0F4
:104A4800D2E1F0E5096208E509C333F509EE240966
:104A5800FEEF3400FFE508708E7A207B0090038813
:104A6800E0F91205957A207B00900388E0F9120599
:104A78001180097A0180027A001206977F06020BDC
:104A88008974F0120AB774F3120A5F7405120AAB3C
:104A9800E4F0A3F085118285128304F07403120AEE
:104AA800AB740FF07401120AAB7493F0A37403F0A3
:104AB8009003B7E06003024D01851182851283E0FF
:104AC800F87403120AABE0587003024CA874011280
:104AD8000AAB124D344003024C981205A774091210
:104AE8000AAB12099A7401120AABE02405F8A3E094
:104AF8003400F97407120AABE8F0A3E9F07407125E
:104B08000AAB124D1E1209707409120AAB7808120A
:104B180007A65003024C607401120AABE02401F8A6
:104B2800A3E03400F9E8FEE9FF7401120AAB181299
:104B38004D12A2E050437401120AAB124D0BF874E7
:104B480064C398C0E07404120AABD0E0F074011298
:104B58000AAB124D26C2E0F07A00851182851283D5
:104B6800E0F91206A97401120AAB124D26A2E2401E
:104B7800528E828F83E014801D8E828F83E070199D
:104B88007401120AAB124D12A2E2400D7401120A0E
:104B9800AB124D126402F0802A7401120AAB124D56
:104BA8000BC0E07404120AABD0E0F07401120AAB37
:104BB800124D26D2E0F07A01851182851283E0F940
:104BC8001206A97401120AAB124D3450567404121D
:104BD8000AABE0F50CE4F50DF50EF50F04120AAB7F
:104BE800124D17A3A3A3124D3A780C79081207D5D2
:104BF800908EAF7808120970780C7908120855AEB3
:104C08000CAF0D7409120AAB8E088F09E4F50AF58A
:104C18000B780812090F7407120AAB124D1E1209FD
:104C28007F804A7E007F00851182851283E0F8909C
:104C38000392E05860047A0180027A008511828527
:104C48001283E0F9120697851182851283E0F4F841
:104C5800900392E058F080157409120AAB780C1290
:104C68000970E508C3950CFEE509950DFF7405125A
:104C78000AABE0F8A3E0F9E849600BEE4F6011C316
:104C8800EE98EF99500A7405120AABEEF0A3EFF014
:104C9800851182851283E0F87403120AABE068F08C
:104CA800851182851283E0C333F07401120AABE0E8
:104CB8002409F8A3E03400F97401120AABE8F0A360
:104CC800E9F07403120AABE06003024AC1740512EA
:104CD8000AABE0F8A3E0F9E849601E7405120AABD4
:104CE800124D3A7808120CC67A207B00900388E0AF
:104CF800F91205897404120A75740D120A757F0871
:104D0800020B89124D17A3A3E022124D17E022A32C
:104D1800E0F583888222E0F8124D17780822124DB8
:104D28002A22E0F8A3E0F5838882E022124D2AA225
:104D3800E122E0F508A3E0F509E4F50AF50B22C045
:104D480082C083E9A2E0500B74016A7004D290809B
:104D580002C290E9A2E1500B74016A7004D29180FA
:104D680002C291E9A2E2500B74016A7004D29480E5
:104D780002C294E9A2E3500B74016A7004D29080D5
:104D880005C290EA6007900390E049800974FF69C2
:104D9800F8900390E05880049003B7E4F0D083D0F3
:104DA80082020132C082C0839003B77401F0E5909B
:104DB800FBE590F8E590F9E590FAE8A2E15004D215
:104DC800F08002C2F0E9A2E45004D2F18002C2F1FC
:104DD800EAA2E0E433333333FAA2F1E4333333F9AC
:104DE800A2F0E43333F8EBA2E0E43348494A9003F5
:104DF80091F07A00790F1206A980A2C082C0837A46
:104E080001900391E0F91206A91206A3024DA074BD
:104E1800F4120AB7907803E0644270559002F8E003
:104E280014F0704DC2AF124E31007817D0E0F6186A
:104E3800D0E0F6E59F540770057509FF80037509F2
:104E48007FC4C0E07816E6F50808E65509F5097448
:104E58000B7808120A3DD0E02508F8906270E0A2AD
:104E6800E740F8E8C333906272F0906270E0D2E0F5
:104E7800F07902120391E964017022E5A1A2E550DC
:104E88000875A1DF12034980179002C3E070047906
:104E98000180027900120355124F52E4F012036D9B
:104EA8007F04020B8974F4120AB77902120391E99C
:104EB80064016003024F4779011203559002EEE046
:104EC8006427700474258002E004F09002DAE0247C
:104ED80002F8A3E03400F9E8FAE9FB9002E6E0F50D
:104EE80008A3E0F509E4F50AF50B8A828B837808B4
:104EF800120922124F4D2406124F5CE4F0A3F090E1
:104F080002E8E0F508A3E0F50989838A82780812A7
:104F1800090F124F4D240E124F5C780812097F12A8
:104F28004F4D2414124F5C7416F0124F4D24161274
:104F38004F5C741FF0A37403F0124F527401F01207
:104F4800036D024EA81252A1C8221252A1C82415FC
:104F5800124F5C22F582E83400F58322C082C083B8
:104F680053BFEF7902120391E96401700C7ADA7B7E
:104F7800021203859002E4E4F075E1F112036DD0AA
:104F880083D08202013274F6120AB774FC120A5FE7
:104F9800E9FE9061C8E0700302516E7401120AAB19
:104FA8008582088583097808120CCA7508FF750977
:104FB800027808120CCA7406120AAB858208858327
:104FC800097808120CCA7508F97509027808120CD4
:104FD800CA7408120AABAC82AD83740B120AABAA6E
:104FE80082AB8312035B7408120A759002EBE064CB
:104FF80001702E9002EAE0F870137C018511828519
:105008001283E0F97AF97B0212045780147401685C
:10501800700F851182851283E0F97AF97B021204F8
:10502800697401120AABE0F5087808120CCE75080D
:10503800FF7509027808120CCA7405120AAB1251DE
:1050480078120AABE0FA7406120AABE0F91202A76A
:105058007403120A751204A59061C8E07003025126
:105068006E74016E60030251317401120AAB8582BD
:10507800088583097808120CCA7508FF7509027833
:1050880008120CCA7406120AAB858208858309784F
:1050980008120CCA7508F97509027808120CCA7446
:1050A80008120AABAC82AD83740B120AABAA82ABAE
:1050B8008312035B7408120A757401120AABE0F5D7
:1050C800087808120CCE7508FF7509027808120CCA
:1050D800CA7405120AAB125178120AABE0FA7406C8
:1050E800120AABE0F91202A77403120A759002F0D3
:1050F800E4F09002EFE004F0640270259002EC12F4
:1051080052A4C313F9E813F89002ECF0A3E9F0E80D
:105118004970099002EC7401F0A3E4F09002EFE406
:10512800F01203611204A5803D75E1819002EFE45D
:10513800F0A3E004F06402702A9002EC12529BC3C0
:1051480033F8E933F99002ECE8F0A3E9F0C3E89406
:1051580001E9940140089002ECE4F0A304F0900205
:10516800F0E4F01203617404120A757F02020B89DD
:10517800E0FB7CF97D0274032274F6120AB774FE10
:10518800120A5FE5D924F9FE740E120AAB1252A472
:10519800F9EE88828983F0E5D9FF740F5F601014F7
:1051A800601414602124FE602D24FE6021802F8A63
:1051B800828B83E4802E8A828B837401F0888289B3
:1051C80083E024FA801E8A828B83740380168A8285
:1051D8008B837402800E8A828B83740480068A8291
:1051E8008B8374FFF0EFA2E6E4338C828D83F07436
:1051F8000C120AAB12529B49700A7806E5D918E8D6
:10520800601580F87A00E5D9C0E012528FD0E0F03E
:105218000AEAC3940640EF7410120AAB12529B4973
:105228007A007015EAC39E5015E5D90A80F6E5D9CB
:10523800C0E012528FD0E0F00AEAC39E40F0E5D9F0
:10524800851182851283F0E5D9C0E07401120AAB9A
:10525800D0E0F07412120AAB1252A4F985118285BB
:105268001283E06480700888828983747F8012903A
:1052780002C6E0FA851182851283E0C39A88828982
:1052880083F074020251708A08E82508F582E91251
:105298004F5F221252A4F9E8229002DAE0F8A3E064
:1052A8002274F6120AB79002ECE064017002A3E0DF
:1052B80070067A017B00801A12032BE9F8790090B6
:1052C80002ECE0FAA3E0FB1209D4EA24010AEB3469
:1052D80000FB12043302517374F7120AB790035A91
:1052E8001252F1F07F01020B89E4F0A3F0A3F0A3BE
:1052F8002274F1120AB7890EEAFEEBFF12057D74DB
:105308000F120AAB7808120970EA4B600D8A828B7B
:1053180083A3A3780812097F806A7A0D7B0012059F
:1053280047EA4B605B8A828B83A3A3A3A3A3A3A3AF
:10533800A3E50E125391EEF0A3EFF08A828B83A3BC
:10534800A3780812097F8A828B83E4F0A312539111
:10535800A3A3A31252F2F090035812569E9003583A
:105368006017E0FCA3E08003E8FCE9FD8C828D83F4
:1053780012569E70F38C828D83EAF0A3EBF08004C2
:105388007A007B007F07020B89F08A828B83A3A3B4
:10539800A3A3A3A322C082C08390035880048C8255
:1053A8008D83E0FCA3E0FDEC4D60238C828D83A30C
:1053B800A3A3A3A3A3E06A7003A3E06B70E08C82AD
:1053C8008D83A3A3A3A3A3A3A3A3E06970D0ECFA3E
:1053D800EDFB0254B0C082C083EA4B600E8A828B18
:1053E80083A3A3A3A3A3A3E4F0A3F00254B074F48B
:1053F800120AB7740C120AAB7808120970E5A8FFF4
:10540800C2AF7808120CC61205777404120A758B9D
:1054180009A909EFA2E7A2E792AFEA496004790077
:10542800800279087F04020B8974F2120AB7A2AFCE
:10543800E433FEC2AF740E120AAB78081209707812
:1054480008120CC61205777404120A75EA4B60122A
:105458008A828B83A3A3A3A3A3A3A3A3A3780812DD
:10546800097FEEA2E092AFEA4B60047900800279EE
:10547800087F06020B8974F4120AB7A2AFE433F569
:1054880009C2AF12057D8A0A8B0BAE0AAF0BEE4F2D
:105498006003120583E509A2E092AFEE4F6004793C
:1054A800008002790602542CD083D0820201327423
:1054B800F0120AB774F9120A5F8A088B098C0A8DF0
:1054C8000B7403120AAB780812097FE5A8F9C2AF7A
:1054D80090035A7808120922E9A2E7A2E792AF904E
:1054E800035812569E700302568C900358E0FEA390
:1054F800E0FF7401120AABE4F0A3F0750C00750D1F
:1055080000A2AFE433851182851283F0C2AF74051F
:10551800120AAB12569E70257404120AABE0701D75
:105528007403120AABE0F88E828F83A3A3E0C398BA
:10553800400B8E828F83A3A3E0C39880378E828F1F
:1055480083A3A378081209707403120AAB780812AF
:1055580007A650177403120AAB78081209708E82D6
:105568008F83A3A37808120949800A8E828F83A3A8
:10557800A31252F1F08E828F8312569C70551256E8
:10558800967059EE2409F50EEF3400F50F850E825A
:10559800F5837808120970E5084509450A450B6046
:1055A8004B8E828F83A3A3A3A3A3A312570D603CA2
:1055B8008E828F83A3A3A3A3A3A3A3A3E0F91205B9
:1055C80011850E82850F8312098E8E828F83A3A385
:1055D80012099A8E828F8312569C70051256966015
:1055E8000B8E828F83A3A312569A702E8E828F837E
:1055F800E0F8A3E0F97401120AAB12570D70059098
:105608000358800B7401120AABA3E0F5838A82E881
:10561800F0A3E9F08E0C8F0D800A7401120AABEE2C
:10562800F0A3EFF08E828F83E0FEA3E0FF85118266
:10563800851283E0A2E092AFE50C450D603F850C32
:1056480082850D8312569C702D850C82850D8312E0
:10565800569A7022850C82850D83A3A3A3A3A3A3C6
:10566800125707850C82850D83A3A3A3A3A3A3A325
:10567800A3E0F9120511AA0CAB0D12054DEE4F600F
:10568800030255037407120A757F08020B898E827C
:105698008F83A3A3A3A3E0F8A3E0F9E8492274F059
:1056A800120AB790035812569E603D90035812573D
:1056B80007750C8E750DC2750EF5750F288A828BCD
:1056C80083A3A37808120970780C790812079650FA
:1056D8000C85080C85090D850A0E850B0F8A828BAF
:1056E8008312570D600E80D5750C00750D00750E70
:1056F80000750F00AA0CAB0DAC0EAD0F025691E071
:10570800FAA3E0FB22125707EA4B22C082C083901B
:10571800035A12098E0254B0C082C08390038EE4EB
:10572800F0A3F012065BD083D08202013274F0122B
:105738000AB774FD120A5F7401120AABEAF0A3EB10
:10574800F0E9851182851283F090038EE0F8A3E0DA
:10575800F9E84970187A117B0012054790038EEA20
:10576800F0A3EBF079017AFE7B8D12064F740112DB
:105778000AAB12587C1204C3EAF509C3941140031A
:10578800750910850982AE827F0085118285128392
:10579800E0640170338E0A8F0B780A120CCA740306
:1057A800120AABE0FCA3E0FD1258791204C9740296
:1057B800120A75A80990038EE028FAA3E034008A3B
:1057C80082F583E4F002585C1258791204C3EAF5B2
:1057D8000825092402FA7B001205478A0C8B0DEA7A
:1057E800450D607085080A8F0B780A120CCA900361
:1057F8008EE0FCA3E0FD1204C97402120A75E50CE0
:10580800250AF582E50D1259070508850882858263
:105818000A8E0E8F0F780E120CCA7403120AABE0B0
:10582800FCA3E0FDE50C250AFAE50D3400FB1204A3
:10583800C97402120A758E08E50A2508F8E43400CE
:10584800F9E50C28F582E50D39F583E4F0AA0CABEF
:105858000D12054D7401120AAB12587C8511828510
:105868001283E0F91206857403120A757F08020B89
:105878008990038EE0FAA3E0FB2274F0120AB77451
:10588800E7120A5F8A0E8B0FECFEEDFF890C742974
:10589800120AABE0F5081204C3EAF50A750B0078A2
:1058A8000A120CCAAC0EAD0F7402120AABAA82AB74
:1058B800831204C97402120A75851182851283E560
:1058C80082250A125903A385820A85830B780A1256
:1058D8000CCAA90C8E0A8F0BAA0AAB0BE4FCFD12AA
:1058E80004DB7402120A75A908851182851283AA3D
:1058F80082AB8312064F7419025871F582E583341E
:1059080000F5837420F022C082C08353F3FED28056
:1059180043FD0153F4FDD29143FE0253F4FBD292AE
:1059280043FE0443F10243F42043F44043F48075FA
:10593800FB8075F80075FC2F75FA00C2917A987B88
:105948003A12068BD2917A0F7B0012068B791512C8
:105958000661790F12066D790E1206617925120615
:1059680061791C1206617A087B5212068B12067343
:10597800120679792912066102572EC292C2805303
:10598800F8F989F9A2F950FCA2F950FC00000000CE
:10599800D292020132C292D28053F8F989F9A2F95F
:1059A80050FCA2F950FC0000000080E474F7120AD1
:1059B800B7E9FE7950120661EEF912066780157490
:1059C800F7120AB779801206617E307920120667CD
:1059D8001EEE70F77F01020B8974F7120AB779C0BF
:1059E8001206617E4079001206671EEE70F780E4A9
:1059F80074F7120AB7E9FF8A08EBFEEAC39410505D
:105A08001374FF2FC454F025084480F9120661EE80
:105A1800F912066780BE74F5120AB78909EAFEEB27
:105A2800FF1204C3EAF50A75080080188E828F8376
:105A3800E0FBAA08A90912067F8E828F83A3AE8293
:105A4800AF830508E508C3950A40E1850A08800B7D
:105A58007B20AA08A90912067F0508E508C3941047
:105A680040EE7F03020B8980200000000000000048
:105A7800000000000000000000000000000000001E
:105A8800000000000000000000EAF8EBF9E824FF3D
:105A98001AE934FFFBE84970D0020132C082C083A2
:105AA8001203A975A70075A100759C7775C30075C9
:105AB800A20075A30075A40075A50075A60075C39E
:105AC8001175A20075A30075A40075A50075A60040
:105AD80075C33375A20075A30075A40075A500757C
:105AE800A60075C34475A20075A30075A40075A52A
:105AF8000075A60075C32275A22075A34E75A40073
:105B080075A50075A6007594081203AF43940202A8
:105B18005C1DA2AFE433F8C2AF5394FEE594A2E251
:105B280040FAE8A2E0025D3CA2AFE433F8C2AF431A
