:020000040000FA
:0600000002011A020EECE1
:03002B000213AB12
:0300330002138D28
:03005300020F6237
:03006B0002136419
:10008300020DEFE5C754F84401F5C77901220000DA
:100093000080FB120086B90003020104E4791C7896
:1000A30002B800028004F709D8FCE4791E7802B88C
:1000B30000028004F709D8FCE490028178B8790241
:1000C3008002F0A3D8FCD9FA781B90014A7A01BACE
:1000D30000028007E493A3F608DAF97A387B0490E8
:1000E300014B78BE79018015E493A3AD82AE838A78
:1000F300828B83F0A3AA82AB838D828E83D8E9D9C6
:10010300E77582C7758366740012012C7582917539
:100113008300740012012C75D00075813F7519811D
:10012300751A02759F00020096C09FF59FE473D075
:100133009F22D083D082C09FE493C0E0740193C018
:10014300E0740293F59F2201FF0000B40000280031
:100153002800283075A000A000A000A0000008001F
:1001630008E001F000100010001000100010001053
:100173000050005000500010001000D00700000095
:100183000000000F0001000500307507001000019A
:100193000081FF00000000FF5C027A026202FFBEE2
:1001A30003BE03BE03BE03BE03BE03BE03BE03BE44
:1001B30003BE03BE03BE03BE03FFFF01307503028C
:1001C3000104000000000000000000000000000027
:1001D3000000000000000000000000000000FF001D
:1001E300150953696D706C65424C4542726F6164C9
:1001F300636173746572020A0002010404FF010261
:100203000348070000120135114D00120135394D25
:1002130000120135674D001201359E4D0012013564
:10022300E94D00120135344E00120135744E0012AF
:100233000135314F00120135A56300120135BD634D
:1002430000120135281B00120135FB1B001201357A
:10025300A41C00120135F71C00120135A71D001262
:100263000135331E001201351F1F001201354E1FC9
:1002730000120135612000120135A9200012013559
:100283007E2100120135BA2100120135D621001258
:1002930001357056001201357B56001201358D561B
:1002A300001201356557001201356A5700120135F6
:1002B3005D58001201354554001201356D5400128A
:1002C3000135AA54001201351F550012013534556A
:1002D30000120135495500120135B05500120135A0
:1002E300F955001201352356001201354856001204
:1002F3000135B44400120135E74400120135C74506
:1003030000120135EC4500120135D81300120135F6
:100313006D1500120135451600120135E81600125D
:1003230001354D1700120135E71800120135251963
:1003330000120135B21A00120135FD5100120135C8
:10034300BC52001201351354001201354B22001226
:100353000135942200120135C12200120135F62223
:10036300001201350323001201350F23001201355A
:10037300212300120135F523001201355224001206
:100383000135902400120135D325001201352026B2
:1003930000120135852600120135EB2600120135C6
:1003A300D42700120135252800120135E95D00121A
:1003B3000135F55D00120135D35E00120135416848
:1003C30000120135ED3200120135123300120135EE
:1003D3001534001201357E3500120135FE36001248
:1003E30001356F3700120135AC3700120135CF37B5
:1003F30000120135E53700120135023800120135CC
:10040300324100120135A84100120135BE410012EC
:100413000135FF4100120135394200120135B24264
:1004230000120135ED42001201356043001201351F
:100433009E4300120135A74300120135B343001256
:100443000135E24300120135F8430012013521441E
:1004530000120135844400120135644A001201354B
:10046300774A00120135914A00120135BA4A001247
:100473000135FD4A001201353C4B00120135A14BF9
:1004830000120135B64B00120135C14B0012013584
:10049300CE4B00120135E54B00120135F34B001230
:1004A3000135FE4B00120135114C001201352E4C63
:1004B300001201353E4C00120135544C0012013537
:1004C300704C001201357B4C00120135904C001228
:1004D3000135A44C00120135066500120135326561
:1004E300001201358D65001201350B3800120135FC
:1004F3001538001201355C3800120135B638001288
:100503000135D738001201352439001201354D3930
:1005130000120135573900120135C3390012013574
:10052300553A001201359F3A00120135D53A0012AF
:100533000135613B00120135A23B00120135D93B65
:1005430000120135EB3B001201350A3C0012013564
:10055300133C001201351B6100120135665800126D
:1005630001359C5800120135D258001201351D5A2D
:10057300001201359F6500120135B5650012013582
:10058300BF65001201350966001201356867001264
:100593000135E03C00120135F53C00120135A53D63
:1005A30000120135E53D00120135FE3D0012013513
:1005B300393E00120135863E00120135BF3E00125E
:1005C3000135C040001201355664001201357F64C5
:1005D30000120135C16400120135BF2D001201352F
:1005E300772F001201355030001201359930001277
:1005F3000135CC3000120135C83100120135DA67FC
:1006030000120135EF62001201350063001201355B
:100613001F67001201355E67001201353068001252
:100623000135126200120135226200120135376270
:1006330000120135E962001201351760001201351D
:100643009C6000120135026100120135475C001203
:100653000135705C00120135D65C00120135F65C81
:1006630000120135475D00120135A25D001201350C
:10067300DC5D00120135DF5D001201359E4700127B
:100683000135B34700120135CF4800120135434904
:10069300001201355D49001201357449001201351C
:1006A300874900120135A14900120135B8490012EA
:1006B3000135DE49001201352F4A001201351A684F
:1006C300001201352A68001201352D680012013528
:1006D300F87F00120135B84F001201355351001253
:1006E3000135B45100120135FA5100120135376654
:1006F30000120135125F001201353C5F0012013513
:10070300502800120135172900120135542900120F
:100713000135B429001201350A2A001201356F2A66
:1007230000120135132B00120135AA2C00120135DA
:10073300372D001201359E2D00120135575A001234
:1007430001351A5B001201355A5B00120135C55B96
:1007530000120135AE6700120135FC6700E06670D8
:100763001008A3E066700A08A3E066700408A3E01B
:100773006622C3E7960809E7960809E7960809E79A
:100783009622C3E09608A3E09608A3E09608A3E0A8
:100793009622C008C3E096F50808A3E0964208082D
:1007A300A3E096420808A3E09645087001D3D00859
:1007B30022080808EAC0E0EBC0E086F0E7A4FA18D4
:1007C3000986F0E7A42AFA180986F0E7A42AFA189A
:1007D3000986F0E7A42AFA1986F0E7A4FBE5F02AD4
:1007E300FA190886F0E7A42BFBE5F03AFA19088614
:1007F300F0E7A42BFBE5F03AFA18180986F0E7A412
:10080300C5F02BFBE43AFA1908E7C5F0C6A426F6AF
:10081300E5F03BFBE43AFA1886F0E7A4F6E5F008C6
:1008230026F6E43B08F6E43A08F6D0E0FBD0E0FA1B
:1008330022E4CFC0E0E4CEC0E0E4CDC0E0E4CCC02D
:10084300E075F020E626F608E633F608E633F60808
:10085300E633F6181818EC33FCED33FDEE33FEEFF8
:1008630033FFC3EC9709ED9709EE9709EF97191931
:1008730019400FFFEC97FC09ED97FD09EE97FE1960
:100883001906D5F0BFECF709EDF709EEF709EFF715
:10089300191919D0E0FCD0E0FDD0E0FED0E0FF2232
:1008A3006016080808C6C313C618C613C618C613AD
:1008B300C618C613C6D5E0EA2270090808082260E4
:1008C30016181818C6C333C608C633C608C633C6B7
:1008D30008C633C6D5E0EA22E627F60809E637F666
:1008E3000809E637F60809E637F622E026F608A3F4
:1008F300E036F608A3E036F608A3E036F622E02653
:10090300F008A3E036F008A3E036F008A3E036F0E1
:1009130022C3E697F60809E697F60809E697F6086C
:1009230009E697F622C3E096F008A3E096F008A341
:10093300E096F008A3E096F022E056F608A3E0560E
:10094300F608A3E056F608A3E056F622E0F608A35D
:10095300E0F608A3E0F608A3E0F622E6F008A3E633
:10096300F008A3E6F008A3E6F022E0FAA3E0FBA375
:10097300E0FCA3E0FD22EAF0A3EBF0A3ECF0A3ED8F
:10098300F022CAC0E0E6F0A308DAFAD0E0FA22CAFD
:10099300C0E0E0A3C582CCC582C583CDC583F0A3E7
:1009A300C582CCC582C583CDC583DAE6D0E0CA2231
:1009B300B90010BB0008E88AF084F8AAF022E4FB2F
:1009C300C8FA22EB70227B10C833C8C933C933502D
:1009D30007C39AC3DBF280069A50012ADBEAC833C5
:1009E300F4C8C933F4C9FA2275F008E4C833C8C996
:1009F30033C933C99AC99B5004C92AC93BD5F0EC02
:100A0300FBC833F4C8E4C9FA22600D08C6A2E71391
:100A1300C618C613C6D5E0F322600C08C6C313C6B6
:100A230018C613C6D5E0F422700422600D18C6C39D
:100A330033C608C633C6D5E0F41822251910AF080B
:100A4300F519400C151A8008F5194002151AD2AF92
:100A53002200C0D0251910AF08F519500C051A80D3
:100A630008F5195002051AD2AFD0D0222519F58204
:100A730010AF08F519400C151A8008F51940021536
:100A83001AD2AF851A83222519F582E4351AF58324
:100A930022E4732519C582C0E0E51A34FFC583C07B
:100AA300E0E519C3958224F810AF0885831A85827F
:100AB30019800885831A858219D2AFCEF0A3E52069
:100AC300F0A37808E608F0A3DEFAEFF0A3E58124AB
:100AD300FAF8E608F0A3E608F0A3E608F0A308088E
:100AE300E608F0A3E608F0A315811581D0E0FED057
:100AF300E0F8158115811581E8C0E0EEC0E02225FC
:100B030019C582C0E0E51A34FFC583C0E0E519C307
:100B1300958224F910AF0885831A85821980088588
:100B2300831A858219D2AFCEF0A3E520F0A378080B
:100B3300E608F0A3DEFAEFF0A3E58124FBF8E6086C
:100B4300F0A3E608F0A30808E608F0A3E608F0A37C
:100B530015811581D0E0FED0E0F815811581E8C03C
:100B6300E0EEC0E022851A83851982E0A3FEE0A3AC
:100B7300F5207808E0A3F608DFFAE0A3FFE0A3C0BE
:100B8300E0E0A3C0E0E0A3C0E0E0A3C0E0E0A3C0D6
:100B9300E010AF0885821985831A8008858219853C
:100BA300831AD2AFD083D082020132851A8385198A
:100BB30082E0A3FEE0A3F5207808E0A3F608DFFABD
:100BC300E0A3FFE0A3C0E0E0A3C0E0E0A3C0E0E057
:100BD300A3C0E010AF0885821985831A8008858237
:100BE3001985831AD2AFD083D08222C0D02519C5EC
:100BF30082C0E0E51A34FFC583C0E0E519C39582DE
:100C030024F310AF0885831A858219800885831A17
:100C1300858219D2AFC8F0A3E9F0A3EAF0A3EBF001
:100C2300A37908E709F0A3D8FAECF0A3EDF0A3EE5B
:100C3300F0A3EFF0A3D0E0F0A3D0E0F0A3D0E0F076
:100C4300A3E520F0A3E5F0F0A322851A838519829A
:100C5300E0C0E0A3E0F9A3E0FAA3E0FBA37808E097
:100C6300F608A3DFFAE0FCA3E0FDA3E0FEA3E0FFA8
:100C7300A3E0C0E0A3E0C0E0A3E0F5D0A3E0F5204B
:100C8300A3E0A3F5F010AF0885831A8582198008C5
:100C930085831A858219D2AFD082D083D0E0F8D071
:100CA300E03274048006740280027401C0E0F4042C
:100CB300120A6FD0E01209852274048000CCC0E0D0
:100CC300EDC0E0E519C39CCCAD1A50011D10AF0671
:100CD3008C198D1A80068C198D1AD2AF120992D0F5
:100CE300E0FDD0E0FC22D083D082E9C0E0E493A30E
:100CF300C386F0C5F095F0F908E493A386F0C5F038
:100D030095F0700BE493A3C3994005E9048002A313
:100D1300E475F002A42582F582E5F03583F583D0EE
:100D2300E0F9E493A3C0E0E493C0E022D083D0824F
:100D3300ECC0E0EDC0E0E493A3FCE493A3FDED4C31
:100D4300600D120D7BEC24FFFCED34FFFD80EFE41E
:100D530093A3FCE493A3FDED4C600D120DBAEC24B8
:100D6300FFFCED34FFFD80EFD0E0FDD0E0FCE49329
:100D7300A3C0E0E493C0E022C0E0C3E49396087408
:100D830001939618400FE493667008087401936604
:100D93001870007019A3A3C3E49396087401939683
:100DA30018A3A3400DD0E0D0E0D0E0020D6BA3A3C5
:100DB300A3A3A3A3D0E022C0E0C0F088F0E493662D
:100DC30070080874019366187000A8F0A3A3700B51
:100DD300D0F0D0E0D0E0D0E0020D6BA3A3D0F0D0F0
:020DE300E0220C
:100DE800851C87851DC622C0E074EF120BEEA2AFEA
:100DF800E433FEC2AF759B00906182E0A2E0500927
:100E0800E591A2E050037591FEE0A2E55009E59155
:100E1800A2E550037591DFE0A2E64003020EC2E5A9
:100E280091A2E64003020EC27591BF9002C7E0642A
:100E380005700812043012043C8003120436751C35
:100E48000012049CE99002C8F07900120490120381
:100E5800707A017B009002C6E0F91205329078039F
:100E6800E06442705590033BE014F0704DC2AF123D
:100E78000E7A00781FD0E0F618D0E0F6E59F540708
:100E880070057509FF800375097FC4C0E0781EE608
:100E9800F50808E65509F509740B7808120A1CD0FC
:100EA800E02508F8906270E0A2E740F8E8C33390C4
:100EB8006272F0906270E0D2E0F0906181E0A2E3AB
:100EC8005009E5E9A2E3500375E9F7A3E0A2E7506A
:100ED80009E591A2E7500375917FEEA2E092AF7FFA
:100EE80004020C4DC0E0C0D0C082C083906183E092
:100EF800A2E05009E5BFA2E0500375BFFEE0A2E101
:100F08005009E5BFA2E1500375BFFDE0A2E2500918
:100F1800E5BFA2E2500375BFFBE0A2E35009E5BFBD
:100F2800A2E3500375BFF7E0A2E45009E5BFA2E4CD
:100F3800500375BFEFE0A2E55009E5BFA2E55003F5
:100F480075BFDFE0A2E65009E5BFA2E6500375BF12
:100F5800BFD083D082D0D0D0E032C0E074F2120B80
:100F6800EEE5A7A2E4500FE5A1A2E4500953A7EFCC
:100F780075A1EF120FB6E5A7A2E5500CE5A1A2E511
:100F8800500653A7DF75A1DFE5A7A2E15009E5A147
:100F9800A2E1500375A1FDE5A7A2E2500CE5A1A2CC
:100FA800E2500653A7FB75A1FB7F01020C4D74F8B4
:100FB800120B02751C019002C7E0640670077A00E4
:100FC8007B00120418A2AFE433FED2AF9002CDE04A
:100FD800640170187A207B009002C6E0F91205B609
:100FE8007A207B009002C6E0F9120538906182E011
:100FF800D2E6F0900338E0602185C61D8016900285
:10100800CCE064017008E5C654F84405F5C653BE43
:10101800FC120DE87401651C60E4EEA2E092AF7F5B
:1010280001020BAE74E9120B0274FA120A3EEAFED0
:10103800EBFF8C088D099002C7E024F7C394055094
:10104800067510010211571203E88A0A8B0BEA454C
:101058000B70030211541204488A0C8B0D120448B9
:10106800EA650C7003EB650D60ECEEFCEFFD85198D
:1010780082851A83AA82AB8312044E850A82850B65
:1010880083A3A3780C12094F908E81780C12093C27
:10109800851982851A83781412094F908E817814E5
:1010A80012093C780C7914120775501F780C7914C2
:1010B800120914908E75780C1207954047850C100C
:1010C800850D11850E12850F138045908E75851438
:1010D800108515118516128517137810790C1209C9
:1010E800147810120795501C7510007511007512B0
:1010F80000751301781079141209147810790C12FC
:1011080008DB800C7510017511007512007513004D
:10111800740978101208BC908E91780C12094F78D7
:1011280010790C1208349002C7E06408600AE06481
:10113800066005E064057020908E79781012079596
:101148005016908E7D78101208EE800C7510007580
:1011580011007512007513008508828509837810BF
:1011680012095E7406120A547F10020BAE74F7124D
:101178000B02120460900336E0640170109062451F
:10118800E4F0A3F053F4F343FE0C5390F312040677
:10119800E5C654804449F5C6E59E547F644970F815
:1011A800906185740FF0900334E0F47002A3E0605E
:1011B8002C750801750900900334E07808120A2B91
:1011C800E508F4FAA3E0600814600A14600C800DC6
:1011D800EA52808008EA52908003EA52A079007FA0
:1011E80002020BAE74F7120B02E9FEEAFF74016EFD
:1011F800700C7A807B009002C6E0F91205329013D9
:10120800D0E493F46008E493F9120352800953C6BA
:1012180080E59E547F70FA12040C900336E0640156
:101228007003120388900334E0F47002A3E0602A8C
:10123800750801750900900334E07808120A2BAA92
:1012480008A3E0600814600A14600C800DEA42806C
:101258008008EA42908003EA42A01203E88A088BD9
:1012680009A808A909E8496017E5E170FCE8241411
:10127800F582E93400F583E0F874FF68600288E1DC
:1012880074016F700A7A019002C6E0F912058002B3
:1012980011E774F1120B028A088B098C0A8D0B90E6
:1012A8008E81780812093C740F120A8A780C120988
:1012B8004F908E81780C12093C7808790C120775CA
:1012C800908E7550107808790C1209147808120756
:1012D800954014800E780C7908120914780C1207BE
:1012E8009550047901800279007F08020BAE74EDF5
:1012F800120B028A088B098C0A8D0B908E81780854
:1013080012093C7413120A8A780C12094F908E81C4
:10131800780C12093C780C79081207754011780886
:10132800790C120914AA08AB09AC0AAD0B80227516
:1013380010007511007512007513017810790C12E0
:101348000914781079081208DBAA10AB11AC12AD99
:10135800137F0C020BAEC2AF02000022C0E074F291
:10136800120BEEA2AFE433FED2AFE589A2E150033F
:1013780012066A758900C2C5751B00EEA2E092AF1D
:101388007F01020C4DC0E074F2120BEEA2AFE43301
:10139800FED2AFE58BA2E0500312066A758B00C23D
:1013A800E880D5C0E0C0D0E8C0E0E9C0E0E5A8D258
:1013B800AFC2C7751B00A2E7A2E792AFD0E0F9D091
:0713C800E0F8D0D0D0E032C4
:1013D000FFFFFFFFFFFFFFFF74F4120A96E9900280
:1013E000C6F012045A907800E0C4540F5407640306
:1013F0007004793F8002797F7508067509007808C6
:10140000120CA97CB47D027AEA7B0712063A7402B8
:10141000120A549002B4E0F47049A3E0F47044A3BB
:10142000E0F4703FA3E0F4703AA3E0F47035A3E079
:10143000F4703090780EE09002B4F090780FE09065
:1014400002B5F0907810E09002B6F0907811E0903C
:1014500002B7F0907812E09002B8F0907813E09024
:1014600002B9F09002BA121564121AF79002D874F9
:1014700006F0A3740D12173E7440F0A37401F090AF
:1014800002E21215649002E1E4F09002E8F0A37425
:10149000A012173E7403F0A3740712173E742812AB
:1014A000173E04F0A3E4F0900311F090033474FFAE
:1014B000F0A3E4F0900336F090033804F090033981
:1014C0007490F0A37401F012038212031612040048
:1014D00079017A3B7B031203B290033BE075F01471
:1014E00084E5F004F01203B87A009002C6E0F91225
:1014F0000580907803E06442705590033BE014F05F
:10150000704DC2AF12150700781FD0E0F618D0E07A
:10151000F6E59F540770057509FF800375097FC4C0
:10152000C0E0781EE6F50808E65509F509740B7861
:1015300008120A1CD0E02508F8906270E0A2E7408B
:10154000F8E8C333906272F0906270E0D2E0F090FD
:1015500002DDE4F0A3F07A80FB9002C6E0F9120508
:101560003202172F74FF121744F0A3F02274F41202
:101570000A96EAFEEBFFEEA2E0503F9002C8E0C3FD
:101580009480E0500FC333F8E433F9748F28F58268
:101590007404800EF4C333F8E433F9749D28F582A3
:1015A000740439F583121AA9120A947A009002C6BB
:1015B000E0F9120580EE6401803D5480603D9003A7
:1015C00039E0F8A3E0F9E849602A790012057A9039
:1015D0000339E0F508A3E0F509E4F50AF50B78080E
:1015E000120CA57A007B019002C6E0F91205AA74DC
:1015F00004120A54EE6480FAEF802DEF5401600C5F
:10160000790112057AEEFAEF6401801CEF54026052
:101610000AC2AF75C9AB75C95B80FEEF5404600B9D
:1016200012135EEEFAEF6404FB80179002CDE064C3
:1016300001700BEE54206006EE6420FA80047A00FC
:101640007B0002172FC082C083C2AF120436E5E1CF
:1016500070FC75E10112035875E1F1120472120376
:101660004C79071204C079011204C679021204965B
:101670001204A81204B479001204BA79011204BA4F
:10168000908E9512096D12047E9002E8E4F0A3F0AA
:10169000A3F09002EC7407F09002EB7403F0900258
:1016A000F1E4F09002F0F0900311F01203C4120381
:1016B000A679001204CC906012E4F0A3F09060636D
:1016C000F0751C009002C7F09002C9F0A3F09002E0
:1016D000CCF09002CD04F09002D77403F090033761
:1016E000E4F0D2AFF9021737C082C0839002B4127F
:1016F0001729F09002B512171CF09002B612171CB1
:10170000A3F09002B712171CA3A3F09002B812170F
:1017100021F09002B9121721A3021734121729A33E
:1017200022121729A3A3A3A322E08A828B83227FFC
:1017300004020B68F07900D083D082020132F0A35A
:10174000E4F0A322F0A3F0A3F0A3F0A32274F71215
:101750000A96EAFEEBFF8908740B120A8AE0F8A3E6
:10176000E0F9E508605574016508601574036508C3
:10177000603374026508602D740465086003021804
:101780002AE849700302182A740A120A8AE0F860EB
:1017900008740168600302182A74036508600674FF
:1017A000026508702AEE2460F8EF1218D7507BEC1F
:1017B0002460F8ED1218D74016806FEE24E0F8EFA1
:1017C0001218CC5065EC24E0F8ED1218CC505BC335
:1017D000EC9EED9F40547409120A8AE0F86005748B
:1017E00001687046740E120A8AE0FA600F74016A8A
:1017F000600A74026A600574036A702E740D120A1E
:101800008AE0F9740759F960219002E8E0640170F8
:1018100005790C0218CAE5089002EBF0600C74011F
:101820006508600674046508700579120218CAE933
:10183000A3F0EAA3F0E89002E1702FE4F09002B484
:10184000E09002E2F09002B5E09002E3F09002B680
:10185000E09002E4F09002B7E09002E5F09002B868
:10186000E09002E6F09002B9802E7401F09002BA86
:10187000E09002E2F09002BBE09002E3F09002BC44
:10188000E09002E4F09002BDE09002E5F09002BE2C
:10189000E09002E6F09002BFE09002E7F0EA700408
:1018A0007900801974016A70047901801074026AE9
:1018B00070047902800774036A700579031204AE1C
:1018C0009002E9EEF0A3EFF07900801634FFF9C33F
:1018D000E894E1E9943F2234FFF9C3E89461E99484
:1018E0003F227F01020B6874F6120A96E9FEC39448
:1018F00020500BEE9002F1F0601EEA4B700479125A
:10190000801E121AEE120CA9EAFCEBFD7AF27B02A1
:101910001204F07402120A549002F07401F079007B
:101920007F02020B6874F4120A96E9FE9002C7E087
:1019300064097003021A40E0640A7003021A40E06E
:10194000640B7003021A40E0640C7003021A40E05A
:10195000640D7003021A409002EBE0F86017740106
:10196000686012740368600D74026860087404682B
:101970006003021AA59002E1E0F960087401696051
:1019800003021AA57403686005740268701090025F
:10199000E9C3E094A0A3E094005003021AA5E87004
:1019A00003021AA57401687003021AA57404687012
:1019B00003021AA5EE7003021A3A146003021AA574
:1019C0009002E8E06401607879011203DC9002DFA4
:1019D000EAF0A3EBF09002E87401F09002C7E07027
:1019E000541204428A088B098C0A8D0B908E8578DC
:1019F000081208EE908E81780812093C9002DF12DE
:101A00001AA9A3A3780812095E9002DFE0F8A3E008
:101A1000C82406F582E83400F583E4F0A3F012034D
:101A20008EE9600E7ADF7B021203E29002E8E4F0B6
:101A3000800E1203CA790002172F9002E8E07004AA
:101A4000792180F3A2AFE433FFC2AF7ADF7B0212C9
:101A500003E29002E8E4F01203FAE970411204365E
:101A6000906182E0C2E6F0E5E170FC75E1017591FC
:101A7000BF75E1F19002CDE0640170187A207B001F
:101A80009002C6E0F91205B67A207B009002C6E00B
:101A9000F91205387A009002C6E0F9120580EFA22B
:101AA000E092AF80907912808EE0F8A3E0F5838811
:101AB000822274F6120A96E9FEC39420500BEE902F
:101AC0000311F0601EEA4B70047912801E121AEEA8
:101AD000120CA9EAFCEBFD7A127B031204F07402EB
:101AE000120A549002F07401F07900021920E0F516
:101AF000087509007808229002B4E09002C0F090C6
:101B000002B5E09002C1F09002B6E09002C2F090FF
:101B100002B7E09002C3F09002B8E09002C4F090E7
:101B200002B9E09002C5F02274F4120A9612223C27
:101B300060057911021BF8900281E0540560309035
:101B4000029E122245600512223770057910021B91
:101B5000F8900281E0A2E040061202A4E960158E2E
:101B6000828F83E0F8740368600A74026860057904
:101B700012021BF87A0C7B0012056890029C121D61
:101B8000A1122242606E12205BE508122042E4F0AE
:101B9000750A0AF50B780A120CA9EEFCEFFD90020B
:101BA0009CE02402FAA3E03400FB1204F074021259
:101BB0000A54120262E9FE60051202868038900221
:101BC00082E0640370307A1D7B0012020E90028363
:101BD000121DA1900283122245601B908EC9120C27
:101BE000BC7A047B009002A4E0F91205B0740412E0
:101BF0000A5480027E13EEF902216A74EE120A96EC
:101C0000890C8A0A8B0B8C0E8D0F900281E0540593
:101C10007003021C9D7401650A700D90029E1222D1
:101C200045607A90029E800B9002A0122245606D62
:101C30009002A0E0FEA3E0FFEBC394205008EB600D
:101C400009EC450F700479028055E50C900487F08B
:101C50008E828F83A38582088583097C1F7D00790E
:101C600000AA08AB091204FC850B1075110078104E
:101C7000120CA9AC0EAD0FAA08AB091204F0740245
:101C8000120A548E828F83E50BF0F9E50AAA08AB9D
:101C90000960051202C880071202CE800279127F05
:101CA0000A020B6874F7120A96E9FE1222427004C7
:101CB000791280391222376E60047903802F7A02FC
:101CC0007B009002A4E0F91205B69002A2E4F0A312
:101CD000F07A04FB9002A4E0F91205B6900283E4C6
:101CE000F0A31220427403F079001202D4021D996D
:101CF000D083D08202013274F7120A9690029E12AB
:101D00002245600D12216F12056E90029EE4F0A331
:101D1000F09002A012224560109002A012217212CF
:101D2000056E9002A0E4F0A3F0900281E0540560FB
:101D30005F7A887B041202B07E00900281E0540535
:101D4000604A7A207B00120568121D9E90029E1246
:101D5000224560367C207D0079001204FC7A207BCD
:101D6000001205689002A0121DA19002A012224547
:101D7000600B7C207D0079001204FC800F12216F23
:101D800012056E90029EE4F0A3F07E13EEF9800936
:101D90007A007B001202B079007F01020B6890028A
:101DA0009EEAF0A3EBF02274F6120A967E018A8274
:101DB0008B83A3A3A3E0FCA3E0FD8C088D09780826
:101DC000120CE90620042D1ED21D2D1E0D1E0D1E07
:101DD000E31D8A828B83A3A3A3A3A3122052120222
:101DE0006880268A828B83A3A3A3A3A31221788869
:101DF000828983A3E0FC88828983A3A3E0FBECFAB9
:101E000088828983E0F912026EE9FE802174086CF1
:101E1000700374206D70047901800279008A828BCE
:101E200083A3A3A3122232FA12027480011EEEF9D8
:101E300002209C74F2120A961222427003021F0BB7
:101E4000122049A3E0F50A1202A4E960137A0A7B82
:101E50000012020E8A088B09AE08AF097A0B802A9D
:101E600012028CE960137A067B0012020E8A088B3C
:101E700009AE08AF097A0780117A087B0012020EBA
:101E80008A088B09AE08AF097A097B0012020E8A14
:101E9000088B09900282E07005750B008003750BBA
:101EA0000190029CE02404FAA3E03400FB122043DA
:101EB000A3A3E0F912022690029CE0F8A3E0C82454
:101EC0000B121F12120CAD90029CE0F8A3E0C82484
:101ED0000A121F12120CAD90029CE02404F50CA310
:101EE000E03400F50D780C120CA9E9F50C780C1211
:101EF0000CAD780B120CADA90AAC08AD09EEFAEFE7
:101F0000FB1202C27406120A54800279017F060293
:101F10000B68F582E83400F583E0F50C780C227448
:101F2000F7120A96E9FE122242601EEE700C122091
:101F3000497401F0F91202D4E9FEEE60087A007BE0
:101F400000F9120280790180027900021D9974EC77
:101F5000120A96890A12223E700302203B1220497F
:101F6000E06401600302200E12028CE960557A01E0
:101F70007B0012020E8A0C8B0DE4F50EF50FC3EAFE
:101F80009442EB9400402B908EC9120CBC7A027BD9
:101F9000009002A4E0F91205B07404120A54E50C92
:101FA00024C4F8E50D34FFF99002A2E8F0A3E9F0AB
:101FB0008041908EB9781012094F780C7910120771
:101FC000B480107A007B0012020E8A0C8B0DE4F5AF
:101FD0000EF50FE50C450D450E450F6016780C12F9
:101FE0000CA57A027B009002A4E0F91205AA740401
:101FF000120A541220437402F0900285E0700BEE36
:10200000FAEFFBA90A120280802DE4F080299002E9
:1020100085E070237A037B00120502EA4B60158A83
:10202000828B8374D0F0A3E50A1220A174041220DD
:102030004E12050E1202867901800279007F0C0291
:102040000B68F090029CE0F8A312205BA322F090B2
:10205000029CE0F8A312205BE0F922E0F58388827D
:102060002274F6120A96E9FEEAFF900487E0F46013
:102070002B7A047B00120502EA4B60208A828B8354
:1020800074D0F0EFA31220A17402F0EE8A828B8349
:10209000A3A3A3F0900487E0F912050E7F02020BC0
:1020A00068F08A828B83A3A32274F4120A96E9FE55
:1020B00074016E60030221459002A212224560065F
:1020C000900285E0601212224270030221681222FF
:1020D00037F91202500221689002A2C3E0943CA397
:1020E000E09400400D9002A2E024C4F0A3E034FF8D
:1020F00080507A027B009002A4E0F91205B69002AB
:10210000A2E0F508A3E0F509E50875F0E8A4C50824
:10211000A8F075F003A428F875F0E8E509A428F5FF
:1021200009E4F50AF50B7808120CA57A027B0090F9
:1021300002A4E0F91205AA7404120A549002A2E45F
:10214000F0A3F08023122242601E900281E0A2E2FE
:1021500050167A027B009002A4E0F91205B69002B4
:10216000A2E4F0A3F012028680007F04020B6890C4
:10217000029EE0FAA3E0FB22E0F8A3E0F92274F467
:10218000120A9612223C602F7A057B00120502EAA1
:102190004B601D8A828B8374D0F0A3E5081220A1C6
:1021A00074031220A1A3EEF0A3EF12204E12050E2D
:1021B000E508600312028602216AC082C0831222EF
:1021C00042601090029C12217212056E90029CE4F3
:1021D000F0A3F0021CF074F6120A9674FF120A3E85
:1021E00090029E122245604090029EE02401F50874
:1021F000A3E03400F5097808120CA990029E12227F
:1022000034FC7402120A8AAA82AB83790112023E5C
:102210007402120A548A828B83E58245836009E046
:10222000A2E050047901800279007401120A54027C
:10223000209CA3A3E0F8A312205BE0228908EAFE19
:10224000EBFF90029C122178E84922C082C0839063
:1022500061907404F0A37448F0A3E4F0906180747A
:1022600040F09061BC7407F09061877469F09061F0
:10227000B67416F07900120376790212037C90137B
:10228000D0E493F46006E493F91203527905120442
:10229000D2022489C082C083E9540FF9906185E09D
:1022A000696012E5C654804449F5C6E59E547F64D2
:1022B0004970F8E9F053C680E59E547F70FA022415
:1022C0008974F7120A96E5A8FE53A87E12035EC22F
:1022D000BA539AFEC289759B00C2C212036475A9E3
:1022E0001175B90512036AD2BA439A0174805E422D
:1022F000A87F01020B68C082C083906181E4F0A3D3
:1023000002248675E90075910075BF00020132C094
:1023100082C083906181E4F0A374C0F0A3E402243E
:1023200088C082C08374F8120A3E9002C91227F551
:10233000E84970030223ED9002C9E054406023791C
:1023400008851982851A83AA82AB831203B2851984
:1023500082851A83AA82AB831202DA9002C9E05402
:10236000BFF0E0A2E0500F79001203761202E09075
:1023700002C9E054FEF0E05402600F7901120376C6
:102380001202E09002C9E054FDF0E05404600F79BD
:102390000012037C1202E69002C9E054FBF0E05404
:1023A00008600F790112037C1202E69002C9E05422
:1023B000F7F0E05410600F790212037C1202E690ED
:1023C00002C9E054EFF0E05420600F790312037C5F
:1023D0001202E69002C9E054DFF0A3E05401600D60
:1023E0001203881202EC9002CAE054FEF074081244
:1023F0000A54022489C082C083E9600514602A80DF
:102400004F90619A7433F0A37455F09061A0743AC0
:10241000F0900336E064017009C2919002CB7467BA
:10242000802D9002CB7461802690619A743FF0A356
:10243000745AF09061A0747FF0900336E0640170EC
:1024400009D2919002CB747180059002CB746AF02E
:102450008037C082C083E9600B14600D14601714CC
:10246000600C80209013D480159013D580109003B9
:1024700036E0640170059013D680039013D7E4937F
:10248000906186F08003F0A3F0D083D08202013205
:1024900074EE120A9674F4120A3E851982851A8324
:1024A000AC82AD8375838E7582C5740412099290D7
:1024B00013D493F460030225BA907808E0C3940221
:1024C000500302259A7404120A8AAC82AD83758384
:1024D0008E7582577408120992FC7EFF7FFF8E0C66
:1024E0007D008C8285820E800F74086D606D74098A
:1024F0006D6068740A6D60638D08750900740278F8
:1025000008120A2B1225C412094FA909E50AC9F8B5
:102510008810741878081208A3E5104508FAE9FB3A
:10252000E50EC333F8E433F97404120A8AE582280D
:10253000F582E583391227F3C3E89AE99B4008E85E
:10254000C39AF8E99B8006EAC398F8EB99F9C3E8C7
:102550009EE99F5006E8FEE9FF8D0C0DEDC3941334
:10256000408774FF6E700374FF6F6024850C0874DD
:10257000027808120A2B1225C412094F8519828588
:102580001A83E582250EF582E5831227FFE508F020
:102590000CECC3940450030224DA75080175090099
:1025A0007808120CA97402120A8AAC82AD837AF5FB
:1025B0007B041206407402120A54740C120A547FEF
:1025C0000A020B6874482508F58274783509F5838A
:1025D000780822C082C083906186E0F89013D7E427
:1025E000936870099013D6E493906186F09061AE81
:1025F0007468F0A3746AF090624574FBF0A304F071
:1026000053F4FD43FE029003367401F09061A0E0A4
:10261000643A7004790080027901120376022489F9
:10262000C082C08375E1F19002EBE024FE604D149E
:10263000704F1203949002E1E0F97AE27B021204F7
:1026400078908EBD12096D1204A2908E9512096DBC
:1026500012047E9002ECE0F912048A79011204C699
:102660009002DFE0F8A3E0C82416F582E81227FF05
:1026700074A0F0A37403F0790002248912039A80F5
:10268000B4791280F474F6120A961227594402F5AE
:10269000D978001226C540FB7800800812284774BC
:1026A000021227ECE8C39940F375E19590048F126C
:1026B00026D5F0A31226D512276D7414F09002C708
:1026C000740402280E880874E22508F58274021248
:1026D000280394062274401226E21226E2F0A37424
:1026E0000322F0A37403F0A374402274F6120A9636
:1026F000122759FA74064AF5D978001226C540FB0C
:102700007800800812284774021227ECE8C3994029
:10271000F3900311E0F9740729F5D974044AF5D947
:1027200078001226C540FB7800800C8808741212CD
:10273000284B74031227ECE8C39940EF75E195909C
:10274000048F743AF0A374031227B112276D741525
:10275000F09002C7740302280E9002F1E0F97407AA
:1027600029F5D99002E1E0C4333354C022F0A374B8
:1027700046F0A374031227A61227B512279C240E35
:1027800012279474FFF0A3F0A3F0A312279C241443
:1027900012279422F582E83400F58322F09002DFBC
:1027A000E0F8A3E0C822F090049D74BEF0A3740387
:1027B000221227B522F0A374BE1227C41227C4F038
:1027C000A37403221227CB1227CB22F0A37403F0A9
:1027D000A374BE22C082C0839002DFE0F8A3E0C8E9
:1027E0002406F582E81227FFE402248612281FF54A
:1027F000D90822F5831227F922E0F8A3E0F9221282
:102800002797223400F583E0F5D908E8C322F07F4A
:1028100002020B68122818223400F583E4F02234F7
:1028200000F583E02274F6120A967800880874CFC7
:1028300012284B740212281408E8C3940840ED9043
:1028400002CF740102280E880874F22508F582224E
:1028500074F4120A9674FC120A3E7E00900427E477
:10286000F0900424F07F7D75080475090078081243
:102870000CA97402120A8AAC82AD837A007B00EF45
:10288000F912063A7402120A54908EB178081209AD
:102890004F851982851A8378081207607019900491
:1028A00024E0600FF9120712EFF9120712900424C6
:1028B000E48001EFF0801E851982851A8378081262
:1028C000094FE5084509450A450B7004EFFE8005F0
:1028D000EFF91207120FEFC3947F408B900424E0AE
:1028E0007026EE7018797D1207069004257404F0A6
:1028F000A3E4F0900427E0601979008017F0120734
:1029000018EEF9120724800AEE6004F912070C127F
:10291000071879010229AA74F7120A9674FC120AA0
:102920003EE9FE851982851A83E4F0A3F0A37410B2
:10293000F0A3E412294E120730900427E07005EE50
:10294000900424F07404120A547F01020B68122BC5
:1029500007FAFB2274F4120A9674FF120A3E8908E1
:10296000900427E070331206467E007F00750A014E
:10297000750B00780A120CA97402120A8AAC82AD97
:1029800083EEFAEFFBA90812063A7402120A548584
:102990001982851A83E0F460089004277401F0809E
:1029A000051229FE40C7740180027404120A547F84
:1029B00004020B6874F4120A9674FF120A3E890826
:1029C0007E007F00750A01750B00780A120CA9744D
:1029D00002120A8AAC82AD83EEFAEFFBA908120656
:1029E0003A7402120A54851982851A83E0F460074A
:1029F000A90812070C80051229FE40C880A8EE2401
:102A0000010EEF3400FFC394082274F4120A967486
:102A1000FC120A3E7EFC7F077508047509007808E1
:102A2000120CA97402120A8AAC82AD83EEFAEFFB93
:102A3000900424E0F912063A7402120A54908EB5FA
:102A4000780812094F851982851A83780812076061
:102A5000700AEE24FCFEEF122AFC50BCEE2404F8AF
:102A6000EF3400F9900425E8F0A3E9F00229AA74F4
:102A7000F4120A9674FC120A3E8909EAFEEBFF8CF6
:102A800008EE24FCFEEF122AFC406A750A04750B5E
:102A900000780A120CA97402120A8AAC82AD83EE85
:102AA000FAEFFBA90912063A7402120A54740212D0
:102AB0000A8AE0F8A3E0F9851982851A8385080A55
:102AC000E0650A7002A3E0700AEEC398FAEF940082
:102AD000FB8026E9548070A9E82404FAE93400FB5D
:102AE000C3EE9AEF9B400EEEC398F8EF99F9E824F5
:102AF000FCFEE980917A007B000229AA34FFFFC323
:102B0000EE9404EF940022F0851982851A83AC823A
:102B1000AD832274EA120A9674F8120A3E8910757F
:102B20000DFF747D65107005750C7E8003750C7D3E
:102B3000750A04750B00900425E024FCFEA3E00256
:102B40002C1E851982851A83A3E054806003022C11
:102B50000D851982851A83850D08E065087002A32A
:102B6000E07003022C0D851982851A83E0F50DFCB7
:102B7000AA0AAB0BA90C12071E8B09EA45096003D0
:102B8000022C0D7402120A8A122CA1F508EF99F595
:102B90000988148915750E00750F007512047513D8
:102BA000007812120CA97406120A8AAC82AD83E571
:102BB00008250EFAE509350FFB900424E0F912060A
:102BC0003A7402120A547404120A8AAC82AD83E584
:102BD0000A250EFAE50B350FFBA90C120730E50E9E
:102BE0002404F50EE50F3400F50FC3E514950EE54A
:102BF00015950F50A67402120A8AE02404F8A3E087
:102C00003400F9E50A28F50AE50B39F50B740212D0
:102C10000A8A122CA1F8EF99F9E824FCFEE9122A9D
:102C2000FC405A900427E0706E750804750900781E
:102C300008120CA97402120A8AAC82AD83EEFAEF74
:102C4000FBA91012063A7402120A54851982851AD9
:102C500083E0F47003A3E0F46003022B42740212D9
:102C60000A8AE0F8A3E0F954806007EE24FCFEEF46
:102C700080AC122DB5EE98EF99401C8090A90C12F3
:102C80000706900427E0700A900425E50AF0A3E502
:102C90000BF0A91012070C7408120A547F0E020BD5
:102CA00068E0F8A3E0F9EEC3982274F0120A967473
:102CB000FC120A3E890B8A088B09ECFEEDFF7414A6
:102CC000120A8AE0F50A8014E5082404F508E509EB
:102CD0003400F509EE2404FEEF3400FF850A0C747D
:102CE000FF250CF50A046045750E04750F00780E7B
:102CF000120CA97402120A8AAC82AD83AA08AB092D
:102D0000A90B12063A7402120A54780E120CA9EE9C
:102D1000FCEFFD7402120A8AAA82AB831204F674D5
:102D200002120A54E970A19004277401F07404128D
:102D30000A547F08020B6874F1120A96890E8A08F9
:102D40008B09ECFEEDFF900427E0704D750A0175CC
:102D50000B00780A120CA98A0A8B0B7402780A12EB
:102D60000A1C890CF50D7409780C120A2BE50A244B
:102D700000FAE50B350DFB1206407402120A547579
:102D80000A01780A120CADEEFCEFFDAA08AB09A906
:102D90000E12072A7401120A547F07020B68C082C0
:102DA000C083120700E97004790180027900D083A2
:102DB000D082020132E82404F8E93400F9C3227415
:102DC000F2120A96890BECFEEDFF750A00898285E6
:102DD00082087509008A0C8B0D780C120CE902032D
:102DE000084D2FF52D502E6A2E9D2ECF2EE62EFD4E
:102DF0002E192F302F7401650B6003022F489004A9
:102E0000ABE0F88E828F83E09004ABF0E8601CE0CA
:102E10006003022F7090037EE064026003022F7053
:102E200090037DE0F9120250022F70E07003022F30
:102E30007090037EE064016008E064036003022F89
:102E4000707A017B0090037DE0F9120532022F7049
:102E50007402650B6003022F488E828F831232E763
:102E60009004ACE8F0A3E9022F45E9C394204003A5
:102E7000022F487C1F7D0079007AAF7B041204FC8E
:102E80007808120CA9EEFCEFFD7AAF7B041204F077
:102E90007402120A54E50B9004AE022F45E9C39464
:102EA000204003022F487C1F7D0079007A877B0336
:102EB0001204FC7808120CA9EEFCEFFD7A877B0364
:102EC0001204F07402120A54E50B900386807674A3
:102ED00001650B70738E828F83E0F8C39405506890
:102EE000E89003A6805F7401650B705C8E828F830F
:102EF000E0F8C394045051E89003A7804874066535
:102F00000B70457508067808120CA97AA87B031285
:102F100004F07402120A5480577401650B70298EF4
:102F2000828F83E0F8C39408501EE89003AE8015AA
:102F30007401650B70128E828F83E0F8C394045085
:102F400007E89003AFF08028750A188023C3EA943D
:102F500027EB940050177402650B70118E828F83DB
:102F6000E0FCA3E0FD120208E9F50A8003750A02FD
:102F7000A90A7F06020B6874F5120A96ECFEEDFFB3
:102F8000750A008A088B097808120CE900030A26E2
:102F900030A72FAC2FBD2FC22FD22FE12FF02FF54E
:102FA0002FFA2F17301C3090037F80737508067539
:102FB00009007808120CA97C807D03804C9004AB3A
:102FC000805D9004AC1232E78E828F83E8F0A3E933
:102FD00080689004AE123047120CA97CAF7D04804B
:102FE00028900386123047120CA97C877D03801934
:102FF0009003A6802A9003A780257508067509000E
:103000007808120CA97CA87D03EEFAEFFB1204F0FD
:103010007402120A5480299003AE80039003AFE03B
:103020008E828F838014C3EA9427EB9400500E1293
:10303000020E8E828F83EAF0A3EBF08003750A0202
:10304000A90A7F03020B68E0F508750900780822D9
:1030500074F6120A9690037EE07037EA4B6008908F
:1030600003B0EAF0A3EBF0E4F508F5097808120CD8
:10307000A97808120CA97C007D007B0090037FE0FA
:10308000FA90037DE0F91205FE7404120A547900E7
:10309000800279117F02020B6874F7120A96E99098
:1030A000037DF090037EE4F012029290037F74019E
:1030B000F09003A67403F09003A7E4F09003AE74BD
:1030C00007F09003AFE4F07F01020B6874F4120A7A
:1030D0009674F6120A3E8A088B09EB548060319090
:1030E000037DE0F912051A8A0A8B0BAE0AAF0BEECC
:1030F0004F60138E828F83E064D070031205F8EE68
:10310000FAEFFB120508AA08E5096480FB0231B555
:10311000EAA2E040030231B19004ABE07003023157
:10312000A89003A6E0851982851A83F09003A7E092
:10313000C0E07401120A8AD0E0F0750A06750B002F
:10314000780A120CA97CA87D037404120A8AAA8248
:10315000AB831204F07402120A549003AEE0C0E094
:103160007408120A8AD0E0F09003AFE0C0E074095E
:10317000120A8AD0E0F0851982851A83AA82AB836D
:1031800090037DE0F9120244E9601D90037E74040F
:10319000F01231BF60121232DE88828983E58245E7
:1031A0008360057904120A94E5086401FAAB09808A
:1031B000047A007B00740A120A547F04020B6890A0
:1031C00003B01232E7E8492274F4120A968A828B1D
:1031D00083A3A3E0F8EA2403FCEB3400FD8A828B8E
:1031E00083A3AE82AF83E8601224FE60691470038B
:1031F0000232901470030232908058E070317508EA
:10320000067509007808120CA97A807B031204F075
:103210007402120A5490037E7401F07CAF7D049016
:1032200004AEE0FB7A0190037DE0F912024AE96006
:103230000690037E7404F01231BF60171232DEE88C
:10324000FAE9FBEA4B600C90037EE0F98A828B83FB
:10325000120A940231BAE0702E8C828D83E0601BDA
:103260007C877D03900386E0FB7A0090037DE0F984
:1032700012024AE98E828F83F0800C7A017B0090E3
:10328000037DE0F91205328E828F83E070A380C344
:10329000E0709E740368700790037E7402809790BC
:1032A00004AC1231C29004AB602AE060299004ACF7
:1032B000E0F508A3E0F509E4F50AF50B7808120C2F
:1032C000A57A017B0090037DE0F91205AA7404122F
:1032D0000A548002E4F090037E7403023236E0F573
:1032E0008388821232E722E0F8A3E0F922C082C08C
:1032F00083900342E4F090034174FFF090033EF0AA
:1033000090033DE4F090033CF090033FF0A3F00203
:1033100037C874F0120A9690033FE0F508A3E0F571
:1033200009E5084509700612037002341085088209
:10333000850983E0F914600A14600724FE60030223
:1033400034101203D68A0A8B0BAE0AAF0BEE650857
:103350007003EF6509700302340D8E828F83E06481
:1033600001600302341012038E1204428A0C8B0D8A
:103370008C0E8D0F123565908E8D780C1208EE78BC
:103380000C120CA5850882898312096D12129A7499
:1033900004120A54E9706C1204428A0C8B0D8C0ED4
:1033A0008D0F908E85780C1208EE908E81780C121D
:1033B000093C850882850983780C12095EEE240E8B
:1033C000F8EF3400F9E8FAE9FB9002C7E064027014
:1033D0001D850882850983780812094F908E8978A7
:1033E000081208EE908E81780812093C800C75084E
:1033F000FF7509FF750AFF750BFF8A828B837808BA
:1034000012095E90033E7401F0EEFAEFFB1203D056
:103410007F08020B6874F0120A96EAFEEBFF8E82B8
:103420008F83A3A3A3A3A3A3E0FAA3E0FB12042A20
:103430001235658882F58312096D12041E85088293
:1034400085098312096D120412EE240E12355D12E5
:10345000096D1204248E828F83E06440701CEE2478
:1034600012F8EF3400F988828983E0906064F08874
:10347000828983A3E09060658006906064E4F0A395
:10348000F090033FEEF0A3EFF0EE241612355DE06E
:10349000F8A3E0F5838882120A94906054E4123510
:1034A00072A3123572906182E0C2E6F07591BFEEB0
:1034B0002415F8EF3400F9880A890B8882F583E037
:1034C00064017003120460E5E170FCEE241412350F
:1034D0005DE0F874FF68600288E1850A82850B83ED
:1034E0007401F09002CDE06401706F1204428A0C06
:1034F0008B0D8C0E8D0F780C120CA585088285091A
:103500008312096D1212F67404120A548A088B0988
:103510008C0A8D0B908E6D780C12094F7808790CFF
:103520001207B4740378081208A3E50824F4F50818
:10353000E5093401F509900338E06003120556E40B
:10354000F50AF50B7808120CA57A207B009002C6CC
:10355000E0F91205AA7404120A54023410F582EF3D
:103560003400F58322EE2402F8EF3400F98808894C
:103570000922F0A3F0A3F0A3F0A3F0A3F02274EECD
:10358000120A96890874FF6508703990033DE0546B
:103590000770030236F579041203EEE96401700442
:1035A0007904801A79011203EEE96401700479014B
:1035B000800C79021203EEE96401700879021203AB
:1035C000F40236F9A9081203F48A108B11A9081223
:1035D00003EEE9640170057509018003750900E5D2
:1035E000102402F50AE5113400F50BE50814600D0E
:1035F00014607A24FE700302368D0236F5790212C9
:1036000003EEE96401704979021203F48A0C8B0D10
:10361000AE0CAF0DE509A2E0502F8E828F83A3A3DD
:10362000780C12094F908E71780C1208EE780C12FB
:103630000CA5850A82850B8312096D12129A7404F7
:10364000120A54E970030236EFEEFAEFFB0236F984
:1036500079041203EEE96401601DE509A2E0500659
:10366000AA10AB1180047A007B000236F9790412AB
:1036700003EEE9640170047904802C79011203EEF1
:10368000E964016012E509A2E0506A8062790112E2
:1036900003EEE9640170047901800C79021203EEF3
:1036A000E96401704479021203F48A0C8B0DAE0CAC
:1036B000AF0DE509A2E050918E828F83A3A3780C11
:1036C00012094F908E71780C1208EE780C120CA52E
:1036D000850A82850B8312096D12129A7404120AEC
:1036E00054E960030236498006E509A2E05006AAC3
:1036F00010AB1180047A007B007F0A020B6874F71C
:10370000120A96E9FE900342E0705B7401F0EE90BD
:103710000341F0120442900343120979900347E4F5
:10372000F0A3F090034F74FFF0A3F0A3F0A3F09088
:1037300003557401F0A3F0A3E4F0A3F090033DE07F
:103740004EF090033CE004F06401600A74806E6007
:103750000574406E700A90033F7441F0A37403F047
:103760007A417B0380047A007B007F01020B68C0F2
:1037700082C0838A828B83E0F8A3E0F98A828B83FC
:10378000E4F0A3F088828983A3F088828983E0F43F
:10379000F890033DE058F090033CE014F0700B907B
:1037A000033FE4F0A3F09002C7F0801CC082C08306
:1037B00090033CE0600A90033FE0FAA3E0FB800442
:1037C0007A007B008002E0F9D083D082020132C00F
:1037D00082C083E9F8900341E0687005A3E0F980B6
:1037E00002790080E3C082C083900341E069700CDD
:1037F000A3E0640170067A417B0380047A007B00B9
:1038000080C6C082C08390033C80BBC082C083124C
:10381000075A02394674F7120A967409120A8A1274
:103820003ACF801C8C828D83E08A828B83F08C82DD
:103830008D83A3AC82AD838A828B83A3AA82AB8360
:10384000E8FEE9FFEE24FF18EF34FFF9EE4F70D4E5
:10385000023A8BEEFAEFFB7F06020B6874F5120A50
:1038600096ECF8EDF9740B120A8AE0F508A3E0F57E
:1038700009AC08AD09EC24FFF508ED34FFF509ECBF
:103880004D602CEAFCEBFD8C828D83A3AA82AB8376
:10389000E8FEE9FF8E828F83A3A882A9838C828DA4
:1038A00083E0FC8E828F83E06C60C67900800279B1
:1038B000017F03020B6874F6120A96E9FE8C088DEC
:1038C000097808120CA98E08AC087D001207547400
:1038D00002120A54023A9074F6120A96EAFEEBFFBC
:1038E000EE4F6039EE2405FAEF3400FB1205688ACA
:1038F000088B09A808A909E849602288828983E41D
:10390000F0A3F088828983A3A3123A95A3A3A3A36B
:1039100074FFF0E82405FAE93400FB80047A007BA8
:1039200000023A90C082C083EA4B70047905801689
:103930001239B660047904800DEA24FBFAEB34FFF7
:10394000FB12056E7900D083D08202013274F71227
:103950000A967C00023A8874F7120A96E9FEECFF98
:10396000EA4B6021908ECEE0F8EEC3984007120536
:10397000087903803E123B49123CD870051239B6D3
:1039800060071205087905802AEEF074016F700D4A
:10399000EAFCEBFD7A607B03120526800BEAFCEB68
:1039A000FD7A607B031205207A007B80EEF9120518
:1039B000327900023A8BEA24FFF582EB34FFF5837B
:1039C000E0F42274F2120A96890A750C00750D0053
:1039D0007E007F00A2AFE433F50BC2AF900360809E
:1039E00015EE4F700685080C85090DE50824FBF5DA
:1039F00082E509123B4FE0F508A3E0F509E508452B
:103A0000096023E50824FFF582E509123B4FE065D4
:103A10000A70CEEE4F7006AE08AF0980CE7A007BFA
:103A200080120532800B7A007B80120538EE4F60E1
:103A300015780C120CA9EEFCEFFD7A607B031205E1
:103A40002C7402120A54E50BA2E092AF023853E044
:103A5000FAA3E0FB2274F7120A96A2AFE433FEC287
:103A6000AFEC24FBF582ED123B4FE4F0A3F08003B2
:103A7000123B54123CD470F88A828B83ECF0A3ED95
:103A8000F0EEA2E092AF80031205147F01020B68F2
:103A90007F02020B68EEF0A3EFF088828983227424
:103AA000F7120A96E5A8FEC2AF8A828B83123ACF3C
:103AB000EC24FBF582ED123B4FE8F0A3E9F08A829B
:103AC0008B83ECF0A3EDF0EEA2E7A2E7023A84E0EC
:103AD000F8A3E0F92274F3120A96EAFEEBFF740DE4
:103AE000120A8A123ACFE8FAE9FBA2AFE433F50CE6
:103AF000C2AFEC24FBF8ED34FFF98808890988820D
:103B0000F583123ACF8E828F83E0F50AA3E0F50B9E
:103B1000EC650A7003ED650B70068E828F8380035F
:103B2000123B49E8F0A3E9F0850882850983E4F0B7
:103B3000A3F0EC24FFF582ED123B4F74FFF0E50C8F
:103B4000A2E092AF7F05020B68EA24FBF582EB341A
:103B5000FFF58322E824FBF8E934FFF9E8FAE9FBF2
:103B60002274F7120A96E9FD908ECEE0F8EDC39824
:103B7000502BE5A8FEC2AFEDC333F8E433F9900350
:103B800074E028FCA3E0398C82F583E04AF0A3E0DE
:103B90004BF0EEA2E7A2E792AF7900800279030230
:103BA0003A8B74F7120A96E9FE908ECEE0F8EEC3D7
:103BB000985021E5A8FFC2AFEAF4FCEBF4FDEE1249
:103BC0003CC0E05CF0A3E05DF0EFA2E7A2E792AFBB
:103BD000790080027903023A8BE9F874FF68700675
:103BE000C2AF790080027907020132C082C083121D
:103BF000055C900360E4F0A3F012059212057412C4
:103C0000058C1205627900023946C082C083120514
:103C10005080FB74F4120A967508001205561206BD
:103C200034E508123CC0123CD8700D0508908ECEC9
:103C3000E0F8E508C39840E9908ECEE0F8E508C3C7
:103C400098506CE5A8FCC2AFE508C333FEE433FF2F
:103C5000900374E02EF8A3E03FF988828983123A3A
:103C60004F88828983E4F0A3F0ECA2E7A2E792AF49
:103C7000E5089004A9F0F974312EF582748E3FF5B1
:103C800083123CB7120A949004A974FFF0E5A8F9D6
:103C9000C2AF900374E02EF8A3E03F8882F583E082
:103CA0004AF0A3E04BF0E9A2E7A2E792AF8003124B
:103CB00005867F04020B68E0F8A3E0F58388822282
:103CC000C333F8E433F9900374E028FAA3E0398AA7
:103CD00082F583228A828B83E0F8A3E0F9E8492207
:103CE00074F7120A96900378E4F0A3F0A3F0A3F01F
:103CF0007F01020B6874F0120A96E9FE8A088B09AC
:103D000012059E7410120A8A780C12094FEA4B6051
:103D10000E8A828B83A3A3780C12095E023DA07ADF
:103D20000D7B00120568EA4B6072EE8A828B83A3DA
:103D3000A3A3A3A3A3A3A3F08A828B83A3A3A3A378
:103D4000A3A3E508F0A3E509F08A828B83A3A378F7
:103D50000C12095E8A828B83E4F0A3F0F508F50962
:103D6000F50AF50B8A828B83A3A3A3A3A3A3A3A322
:103D7000A3780812095E1240B59003766017E0FC44
:103D8000A3E08003E8FCE9FD8C828D831240B870CB
:103D9000F38C828D83EAF0A3EBF080047A007B0041
:103DA0007F08020B68C082C08390037680048C82F7
:103DB0008D83E0FCA3E0FDEC4D60238C828D83A31A
:103DC000A3A3A3A3A3E06A7003A3E06B70E08C82BB
:103DD0008D83A3A3A3A3A3A3A3A3E06970D0ECFA4C
:103DE000EDFB023EB8C082C083EA4B600E8A828B34
:103DF00083A3A3A3A3A3A3E4F0A3F0023EB874F4A7
:103E0000120A96740C120A8A780812094FE5A8FF64
:103E1000C2AF7808120CA51205987404120A548BCC
:103E200009A909EFA2E7A2E792AFEA496004790085
:103E3000800279087F04020B6874F2120A96A2AF1E
:103E4000E433FFC2AF740E120A8A780812094F7861
:103E500008120CA51205987404120A54EA4B601259
:103E60008A828B83A3A3A3A3A3A3A3A3A3780812EB
:103E7000095EEFA2E092AFEA4B600479008002791C
:103E8000087F06020B6874F4120A96A2AFE433F5B9
:103E900009C2AF12059E8A0A8B0BAE0AAF0BEE4F1A
:103EA00060031205A4E509A2E092AFEE4F60047929
:103EB0000080027906023E34D083D082020132743F
:103EC000E8120A9674FB120A3E8A088B098C0A8D46
:103ED0000B7401120A8A780812095EE5A8F9C2AFCC
:103EE0009003787808120901E9A2E7A2E792AF12DD
:103EF00040B570030240AB900376E0FEA3E0FF758F
:103F00001600751700750800750900A2AFE4338527
:103F10001982851A83F0C2AFEE2402F514EF340043
:103F2000F515EE2402F510EF3400F5117403120AB2
:103F30008A1240B8701F7402120A8AE07017740166
:103F4000120A8AE0F8851082851183E0C398400543
:103F5000E0C398803B851482851583780C12094F45
:103F60007401120A8A780C12078550177401120A1C
:103F70008A780C12094F851482851583780C1209F2
:103F800028800E851482851583E4F0A3F0A3F0A3A6
:103F9000F0EE2404F512EF3400F51385108285113C
:103FA000831240B870578512828513831240B8700F
:103FB00057EE2409F50AEF3400F50B850A82F583E4
:103FC000780C12094FE50C450D450E450F60538ED8
:103FD000828F83124126EA4B60488E828F83A3A38F
:103FE000A3A3A3A3A3A3E0F9120532850A82850B3C
:103FF0008312096D851482851583120979851082D3
:104000008511831240B8700B85128285138312408C
:10401000B8600F8E828F83A3A3A3A3A3A31240B87B
:1040200070258E828F83E0F8A3E0F9E516451770BE
:10403000059003768006851682851783E8F0A3E94C
:10404000F08E088F0980048E168F178E828F83E082
:10405000FEA3E0FF851982851A83E0A2E092AFE516
:10406000084509603F850882850983A3A31240B8EB
:10407000702B850882850983A3A3A3A31240B8707F
:104080001C8508828509831241268508828509835B
:10409000A3A3A3A3A3A3A3A3E0F9120532AA08AB89
:1040A0000912056EEE4F6003023F057405120A54B3
:1040B0007F10020B68900376E0F8A3E0F9E849224C
:1040C00074F0120A961240B5604590037612412CA6
:1040D00075088E7509C2750AF5750B288A828B835F
:1040E000A3A3780C12094F7808790C120775500CAD
:1040F000850C08850D09850E0A850F0B8A828B8336
:10410000E0F8A3E0F9E8FAE9FBEA4B600E80CD7530
:104110000800750900750A00750B00AA08AB09AC08
:104120000AAD0B023DA0A3A3A3A3A3A3E0FAA3E0BF
:10413000FB22C082C08312040675A70075A100751A
:104140009C7775C30075A20075A30075A40075A5C2
:104150000075A60075C31175A20075A30075A400B3
:1041600075A50075A60075C33375A20075A300750B
:10417000A40075A50075A60075C34475A20075A3BB
:104180000075A40075A50075A60075C32275A22050
:1041900075A34E75A40075A50075A6007594081248
:1041A000040C4394020242ABA2AFE433F8C2AF5313
:1041B00094FEE594A2E240FAE8A2E00243CAA2AF6C
:1041C000E433F8C2AF439401E594A2E250FA80E8E8
:1041D000E8A2E7A2E792AF802175C3038519828523
:1041E0001A83E0F5A2740122E8A2E7A2E792AF8564
:1041F0001982851A83E0FAA3E0FB74020242A8C088
:1042000082C08374FC120A3E1242E112422A120A50
:104210008A1242DB120A8AE0F5A675A1EF43A710C5
:10422000E8A2E7A2E792AF0242A675C330851982E1
:10423000851A83E0F5A4740122C082C08374FE1243
:104240000A3E12425C75A1FD1241D9120A8AE0F5BC
:10425000A3E59C54F04401F59C0241D01242635303
:10426000A7FD22851982851A83EAF0A3EBF0E5A861
:10427000F8C2AF22E5A4851982851A83F0E5A5C0AE
:10428000E07401120A8AD0E0F0E5A6C0E0740212E0
:104290000A8AD0E0F07403120A8A1243D885198280
:1042A000851A8312096D7404120A54D083D08202D5
:1042B0000132C082C08374FC120A3E1242E175A131
:1042C000EF12422A120A8A1242DB120A8AE0F5A68B
:1042D000E59C54F04404F59C024220E0F5A57402EC
:1042E0002212434EE5A8F8C2AF53A7EF2274F4128E
:1042F0000A9674FC120A3E12434AA2AFE433F9C292
:10430000AF53A7DF75A1DF908EB5780812094F85EE
:104310001982851A8378081207607005439C7080A3
:104320001A75C34012422D120A8A1242DB120A8AFF
:10433000E0F5A6E59C540F4450F59CE9A2E092AF4D
:104340007404120A547F04020B6812434E2285192A
:1043500082851A83EAF0A3EBF0A3ECF0A3EDF02240
:10436000C082C08374FE120A3E851982851A83EAD0
:10437000F0A3EBF0851982851A83E0F8A3E0F9E851
:10438000496018E5A8F8C2AF75C3001241DC120AF3
:104390008AE0F5A3E8A2E7A2E792AF0241FAE5A816
:1043A000C2AF53A7C9801CE5A8C2AF53A7C9759C6B
:1043B000778010E5A8F8C2AFE59C54F04407F59C5F
:1043C000E8800375A1C9A2E7A2E792AF020132A378
:1043D000A3A31243D80242ABE4F0E8A2E7A2E7921B
:1043E000AF22C082C08374FC120A3EE5A8F8C2AFB7
:1043F00075C300E5A2024274C082C08374FE120A33
:104400003EE5A8F8C2AF75C300E5A2851982851AFA
:1044100083F0E5A3C0E07401120A8AD0E0F0024103
:10442000E8C082C083E5A8F8C2AF75C300E5A28AE0
:10443000828B83A3A3A3A3F0E5958C828D83F0E503
:10444000A38A828B83A3A3A3A3124469A3A3A3E497
:10445000F0E5968C828D83A3F0E5978C828D83A303
:10446000A3F08C828D830243CFA3F0E5A48A828BD4
:1044700083F0E5A5A3F0E5A68A828B83A3A3F08A47
:10448000828B8322C082C08374FE120A3EE5A8F8A4
:10449000C2AFE5C3F975C300E5A2E5A4851982851D
:1044A0001A83F0E5A5C0E07401120A8AD0E0F08911
:1044B000C30241E8C082C0839002AC74FFF0A3F055
:1044C000A3F0A3F0A3F0A3749FF0A3E4F0A37420DF
:1044D000F09002AB14F0D083D0820201327F02024E
:1044E0000B687F0A020B6874EE120A968A088B0921
:1044F000890B8C0E8D0F90035CE0700990035EE0D9
:1045000070030245B39002A9E060030245B38982BB
:1045100085820C750D00E92407FAE43400FB1205CE
:10452000028A108B11AE10AF11EE4F70030245C41A
:1045300074186508700474206509600C74176508A8
:10454000700474206509701090035EE0600AF50A3B
:104550008E828F837492800C90035CE0F50A8E82C9
:104560008F837491F0A3740E1245E68E828F83A31D
:10457000A3F08E828F83124789EE2405F8EF340072
:10458000F9E8FAE9FBEE2407F8EF12475CF0780C43
:10459000120CA9AC0EAD0F8A828B83E0FAA3E0FB6C
:1045A0001204F07402120A54EEFAEFFBA90A120583
:1045B0000E8011780E120CA9AC0B790E1203047444
:1045C00002120A540244E274F6120A96E9FE8C08BA
:1045D0008D097808120CA9EEFC79FF12030474020D
:1045E000120A540244DDF09002AAE02274F2120A88
:1045F0009689098A0A8B0B8C0874072508FA74FFC0
:1046000065096004780380027802E82AFA7B0012C8
:1046100005028A0C8B0DAE0CAF0DEE4F70030247F6
:104620000E8E828F837401F0A374FFF0EE2402FAE1
:10463000EF3400FBEE2404F8EF12474CE509124773
:1046400042E02402F8A3E03400F9890DA90B740EAE
:10465000120A8A12477E74FF6509603274032508C6
:104660008882850D831245E6C0E0124713D0E01220
:10467000473BE50A12473BA3E9F085080A750B00A2
:10468000780A120CA98A828B83E024068066740261
:1046900025088882850D83F08C828D83E0C0E0122E
:1046A0004713D0E0F08C828D83A3E0C0E01247274F
:1046B000D0E0F08C828D83A3A3E0C0E0124727A353
:1046C000D0E0124736240612472C12473612479480
:1046D000E9F085080AE50A24FDF50AE434FFF50B44
:1046E000780A120CA9EC2403FCED3400FD8A828BBD
:1046F00083E02408FAA3E03400FB1204F0740212F1
:104700000A54EEFAEFFB90035AE0F912050E7F0609
:10471000020B68124717228A828B83E0F8A3E0F528
:10472000838882A3A3A322124717A322F582E83429
:1047300000F583E50A22124768C822124775A3A331
:10474000A32212474622F08A828B832212475C12F0
:104750004768F58388827404124775223400F98A09
:10476000828B83E8F0A3E92212476C22F08A828BC5
:10477000831247842212476CF5838882A322E0FCCF
:10478000A3E0FD22E0F8A3E022A3A3A3E508F0A3A1
:10479000E509F0222407F582E83400F58322C0827F
:1047A000C0839003E1E4F0A3F0120688D083D082A6
:1047B00002013274EE120A96EAFEEBFF890E9003B4
:1047C000E1E0F8A3E0F9E84970187A117B001205DE
:1047D000689003E1EAF0A3EBF079017AFE7B8D1299
:1047E0000682EEFAEFFB1204EAEAF508C3941140E0
:1047F0000375081085088285820C8582107511006A
:104800007401650E702D7810120CA9EEFCEFFD906E
:1048100003E1E0FAA3E0FB1204F07402120A5490E0
:1048200003E1E0250CF8A3E034008882F583E4F08E
:104830000248B99003E1E0FAA3E0FB1204EAEAF5CA
:104840000F25082402FA7B001205688A088B09EA02
:1048500045096065850F0A750B00780A120CA9904E
:1048600003E1E0FCA3E0FD1204F07402120A54E537
:1048700008250AF582E5091248C7050F850F8285CC
:10488000820A7810120CA9EEFCEFFDE508250AFA61
:10489000E5093400FB1204F07402120A54E50A25FB
:1048A0000CF8E43400F9E50828F582E50939F583C8
:1048B000E4F0AA08AB0912056EEEFAEFFBA90E129E
:1048C00006B27F0A020B683400F5837420F022C020
:1048D00082C08353F3FED28043FD0153F4FDD29195
:1048E00043FE0253F4FBD29243FE0443F10243F42D
:1048F0002043F44043F48075FB8075F80075FC2F6D
:1049000075FA00C2917A987B3A1206B8D2917A0F62
:104910007B001206B8791512068E790F12069A7965
:104920000E12068E792512068E791C12068E7A08D2
:104930007B521206B81206A01206A6792912068E1C
:104940000247ACC292C28053F8F989F9A2F950FC2F
:10495000A2F950FC00000000D292020132C292D2B1
:104960008053F8F989F9A2F950FCA2F950FC000033
:10497000000080E474F7120A96E9FE795012068E60
:10498000EEF9120694801574F7120A9679801206D1
:104990008E7E3079201206941EEE70F77F01020B96
:1049A0006874F7120A9679C012068E7E407900125A
:1049B00006941EEE70F780E474F7120A96E9FF8AF7
:1049C00008EBFEEAC39410501374FF2FC454F02573
:1049D000084480F912068EEEF912069480BE74F532
:1049E000120A968909EAFEEBFF1204EAEAF50A7553
:1049F000080080188E828F83E0FBAA08A90912069E
:104A0000AC8E828F83A3AE82AF830508E508C39581
:104A10000A40E1850A08800B7B20AA08A909120632
:104A2000AC0508E508C3941040EE7F03020B6880D4
:104A30002000000000000000000000000000000056
:104A40000000000000000000000000000000000066
:104A500000EAF8EBF9E824FF1AE934FFFBE84970B3
:104A6000D0020132C082C08312046612046C1204A8
:104A700072120460024D0AC082C0839061B1E0C22C
:104A8000E0F0E0D2E0F0906188E0640470F8024D5C
:104A90000AC082C0839061B1E0C2E0F09061F3E4AB
:104AA000F09061F2F0F8F9124AF19061F0124B2C9B
:104AB00094FEE9940D40F0024D0AC082C0839061DB
:104AC000F3E4F09061F2F0F8F99061F0E0FA124A44
:104AD000F16A700A124B3194FEE9940D40EB74FEBA
:104AE000687003740D697004790080027901024DC9
:104AF0000A740028F582748039F583E022C082C0F0
:104B0000839061C0E0FAE4F0F8F9E82400F582E966
:104B10003460F583E4124B2C9480E9940140EBEA75
:104B20009061C0F090618A7401024D05F0124B3122
:104B300022E8240108E93400F9C3E822C082C083D6
:104B40008A828B83E0906016124C4EA3E09060172F
:104B5000124B7A906018124B83906019124B889018
:104B6000601A124B8D90601BF0E99060157005E0A3
:104B7000C2E08003E0D2E0024D09F08A828B83A379
:104B8000A3E022124B98E022124B93E022124B93A7
:104B9000A3E022124B98A322F08A828B83A3A3A3C3
:104BA0002274F0120A96EA906005F0EBA3F0ECA3F1
:104BB000F07F08020B68C082C083906001E0024C65
:104BC0002AC082C083740759906001024D09C082D7
:104BD000C0837401699060037005E0D2E08003E057
:104BE000C2E0024D09C082C083906003E054F949DD
:104BF000024D09C082C083906061E0024C2A74F0CB
:104C0000120A969061947420F0EAA3124C9B024B16
:104C1000AFC082C083900359E4F0906022F0A3F00B
:104C2000A37830F0A3D8FC024D0AF9024D0AC082E5
:104C3000C083906014E054FCF0E049024D09C0824A
:104C4000C083906009E4024D099061C07401F08A4C
:104C5000828B8322C082C0837A007B60E970027AF3
:104C600033124C49E4F0A3F0A3F09061C0024D0967
:104C7000C082C083E9906002024D09C082C083E90E
:104C80009060027005E0D2E38003E0C2E3024D09C8
:104C9000C082C083E99061C6024D09F0EBA3F0EC3D
:104CA000A3F0ED22C082C083E9601714601C146079
:104CB0001E14602314602514602A14603314603CB1
:104CC00080419061E9E054FC80389061E9801C905B
:104CD00061E9E0C2E0802B9061E9801B9061E9E02E
:104CE000C2E1801E9061E9E0C2E1F0E0D2E0801212
:104CF0009061E9E0C2E0F0E0D2E180069061E9E095
:104D00004403F08005F0A3F0A3F0D083D082020129
:104D100032C082C083C3EA9427EB9400501674FF1C
:104D20006C700374FF6D600C124D55ECF0A3EDF048
:104D3000790080027902024E67C082C083C3EA9480
:104D400027EB94005008124D55124E6E80047AFFE6
:104D50007BFF024E67EAC333FAEB33FB74392AF563
:104D60008274043BF5832274F7120A96E9FEEAFF87
:104D70007C107D0079007A867B021204FCEE9004A0
:104D800038F0EF900281F01202B6E99002867005C9
:104D90007401F08004E4F079127F01020B6874F66C
:104DA000120A96E9FF7E00701EEA4B601A7508062B
:104DB0008E097808120CA9EAFCEBFD7A8D7B0212B1
:104DC00004F07402120A54900286E0640170130E1B
:104DD000EF70087402F01202BC8007E4F0EFF912E1
:104DE0000232EEF97F02020B6874F7120A967E0017
:104DF000EA4B603B8A828B83E07012124F1890025C
:104E000093E8F0A3E9124FAFE0900295F09002868C
:104E1000E06402701A0E8A828B83E090028670042E
:104E200074038001E4F08A828B83E0F9120232EE8F
:104E3000F9024D99C082C083E9F87900EA4B6025F8
:104E4000E86022EA2405F582EB3400F583740168FA
:104E50007005E044C0800CE0543FF07403687004B7
:104E6000E0D2E6F0098000D083D082020132E0FA7D
:104E7000A3E0FB2274F4120A968908900438E0F447
:104E800060507A0A7B001205028A0A8B0BAE0AAFC9
:104E90000BEE4F603D124F1F7408F0900282E08EBF
:104EA000828F83A3A3A3F0750A06750B00780A12FC
:104EB0000CA97C967D02EE2404FAEF3400FB120468
:104EC000F07402120A54EEFAEFFB900438E0F91283
:104ED000050E900285E0640170399002A5124F1909
:104EE000E8496018E0F5838882A3A3A3124F1888CD
:104EF000828983E58245836003120A94908EC912E9
:104F00000CBC7A047B009002A4E0F91205B0740492
:104F1000120A547F04020B68A3E0F8A3E0F9228E82
:104F2000828F8374D0F0A3E508F08E828F83A3A3D1
:104F30002274F4120A968908900438E0F4606D7ABD
:104F40000C7B001205028A0A8B0BAE0AAF0BEE4FE8
:104F5000605A124F1FE4F0750A06F50B780A120C1E
:104F6000A97C8D7D02EE2403FAEF3400FB1204F0DD
:104F70007402120A54900293124F198E828F83A3E7
:104F8000A3A3A3A3A3A3A3A3E8F0A3E9F09002958E
:104F9000E0C0E0EE240BF582EF3400F583D0E0F0C2
:104FA000EEFAEFFB900438E0F912050E024F13F011
:104FB0008A828B83A3A3A32274F0120A9674F81238
:104FC0000A3E8A088B098C0A8D0B908E99780812FC
:104FD0000795500C75084075099C750A00750B0003
:104FE000851982851A83AC82AD837404120A8AAA59
:104FF00082AB8312102C12514A706C851982851A6B
:1050000083780812094F12514A60559003E57401E4
:10501000F09003E47402F0908E9D7808120795409A
:105020000812514A6003025140C2AFE51B700302EF
:10503000513E9003E4E0F9121175E9600302513E1C
:105040001206701206C412514A70030250E3908E89
:10505000A178081207955076908EA5120CBC80732B
:105060009003E5E4F0805E740C78081208BC908E22
:10507000A9780C12094F7808790C12083485198226
:10508000851A83780C12094FE50C450D450E450F26
:10509000601B851982851A837808120785500E8552
:1050A0001982851A83780812094F02500B1206E202
:1050B0007404120A8A1209799003E5E4F012514A45
:1050C00060030250119003E47403F0025021780849
:1050D000120CA57408120A8A12096D1206DC7404F7
:1050E000120A5453BEFC9003E4E042BEE5ADA2E0D8
:1050F00050FA751B01E5A8FEE5B8FFE59AF50853DF
:10510000A82053B820539A12D2AF1206D09003E5CC
:10511000E064017006A2C74002E4F08EA88FB88553
:10512000089A9003E4E06403700479018002790036
:105130009003E5E0FA1211EC1206CA120676D2AF1D
:105140007408120A547F08020B68E5084509450AED
:10515000450B2274F4120A9674FC120A3E851982D9
:10516000851A83EAF0A3EBF0A3ECF0A3EDF0741042
:10517000120A8A780812094FC2AD908EAD780812D3
:1051800008EE851982851A837808120901740212C3
:105190000A8AE0F5977401120A8AE0F59685198269
:1051A000851A83E0F595C2C7D2AD7404120A547F04
:1051B00004020B68C082C08374FC120A3EE5958528
:1051C0001982851A83F0E596C0E07401120A8AD02C
:1051D000E0F0E597C0E07402120A8AD0E0F07403B0
:1051E000120A8AE4F0851982851A8312096D740403
:1051F000120A54D083D08202013202013274F012BA
:105200000A9675E181120484E970089002ECE0F9D5
:1052100012048A79011203EEE9640160030252B4B8
:10522000900332E0FAA3E0FBEA4B6008900331E020
:10523000F91205329002F0E064017050125370FAD6
:1052400074064AF5D9780012539940FB7800800320
:10525000125345E8C39940F8900311E0F974072907
:10526000F5D974044AF5D9780012539940FB7800B7
:10527000800D880874122508F5827403125353E8D0
:10528000C39940EE75E1959002F0E4F01203AC1280
:1052900053AB1208EE12535C1208DB908E81780C2F
:1052A00012093C8A828B83780C12095E1253D674E1
:1052B000151253851203CA7F08020B6874F0120A94
:1052C0009675E181120484E970089002ECE0F9120D
:1052D000048A79011203EEE964017066900332E0FA
:1052E000FAA3E0FBEA4B6008900331E0F9120532C3
:1052F0009002F0E0640170221253704402F5D978F4
:105300000012539940FB78008003125345E8C3997B
:1053100040F875E1959002F0E4F01203AC1253AB43
:105320001208EE12535C1208DB908E81780C120981
:105330003C8A828B83780C12095E1253D674141245
:1053400053850252B4880874F22508F5827402125B
:105350005353223400F583E0F5D908229002E9E0A6
:10536000F508A3E0F509E4F50AF50B780C790822B5
:1053700075E191A3E0F9740729F5D99002E1E0C441
:10538000333354C0221254092416F582E83400F550
:105390008374A0F0A37403F022880874E22508F552
:1053A000827402125353E8C3940622E9FC9002DF90
:1053B000E02402F8A3E03400F9E8FAE9FB8A828BE2
:1053C00083EC75F0118485F00885080CE4F50DF583
:1053D0000EF50F780C229002DFE0F8A3E0C8240657
:1053E000F582E83400F583E4125407240EF582E8D0
:1053F0003400F58374FFF0A3F0A31254072414F5CE
:1054000082E83400F58322F0A3F09002DFE0F8A3F5
:10541000E0C822C082C08353BFEF79011203EEE9D6
:105420006401700C7ADF7B021203E29002E8E4F080
:1054300075E1F11203CAD083D0820201321255877E
:10544000AC82AD8322C082C08374F9120A3E74011B
:10545000120A8AAA82AB8312031C12555E79077A5C
:10546000097B101202F8790074070255A0C082C0AF
:105470008374FC120A3E851982851A83E4F00412B3
:105480000A8A741BF07402120A8AE4F07403120A86
:105490008A740C1254A47A027B201202F8790074E8
:1054A000040255A012543D79042274F4120A967431
:1054B000FF120A3EE9FE740D120A8AE0F9740E1218
:1054C0000A8AE0FF740F120A8AE0F508A3E0F509E2
:1054D0007411120A8AE0F50A7412120A8AE0F50BB6
:1054E000780B120CAD780A120CAD7808120CA9EFEB
:1054F000F5087808120CADE9F5087808120CADEE45
:10550000F91203227406120A5412556B7A067B2094
:105510001202F879007401120A547F04020B6874B5
:10552000F7120A9674FF120A3E12032812556B7A7C
:105530000802558F74F7120A9674FF120A3E12037E
:105540003412556B7A0902558F74F7120A9674FF5C
:10555000120A3E12032E12556B7A0A02558FE98504
:105560001982851A83F0AC82AD8322E98519828580
:105570001A83F0AC82AD83790122120A547F0202B1
:105580000B6874030255A0F0851982851A83227B6B
:10559000201202F879007401120A547F01020B688C
:1055A000120A54D083D08202013212543D79032270
:1055B00074F6120A9674F7120A3E851982851A83C8
:1055C000E4F0750808F5097808120CA9EAFCEBFD6F
:1055D0007403120A8AAA82AB831204F07402120ABC
:1055E00054851982851A83AC82AD8379097A187B38
:1055F000201202F8740902557AC082C08374FD1229
:105600000A3E851982851A83E4F004120A8A74041A
:10561000F07402120A8AE41255AAFA7BFC1202FE06
:10562000025582C082C08374FD120A3E85198285AC
:105630001A837401F0120A8A7404F07402120A8A3E
:10564000E41255AA7A0180D3C082C08374FD120A85
:105650003E851982851A837416F07401120A8A74C1
:1056600004F07402120A8AE41255AA7A1602561B32
:10567000C082C083E990048E02585574F7120A96CE
:10568000E99002A4F01204E47F01020B6874F412A2
:105690000A968A088B09EB548060799002A4E0F99D
:1056A00012051A8A0A8B0BAE0AAF0BEE4F605C8EA6
:1056B000828F83E064917039A3E024F2602924D0C2
:1056C000702F750B018E828F83A3A3E06402700F8D
:1056D000125846600D1257586008120A94800375DC
:1056E0000B00850B0A80061202AAE9F50AE50A708A
:1056F0001390048EE0F4600CEEFAEFFBE0F9120573
:105700000EE96007EEFAEFFB120508AA08E5096446
:1057100080FB803FEAA2E05017125846600C1257F7
:105720005860077A007B00120A94E5086401801A29
:105730005402601B9002A5125849600A1257586023
:10574000057901120A94E5086402FAAB0980047A2B
:10575000007B007F04020B6812582FA3A312582568
:10576000E582458322790002013274F5120A9675AA
:105770000A018A828B83A3A3A3E0FEA3E0FF8E0825
:105780008F097808120D2F010008200A20035807FE
:10579000000910CB570220B8570520AF5706200349
:1057A000580B20EC570C20E7570E201E581B5812A0
:1057B0005835F912022C80668A828B83A3A3A3A397
:1057C000A3E0FAA3E0FB120220804B8A828B83A322
:1057D000A3A3A3A3125825A3AA82AB83888289839B
:1057E000E0F912021A802F125835603212584660C2
:1057F0002D12582F12575D6025EAFCEBFDEEFAEFF3
:10580000FB80109002A5125849601312582F1257AE
:105810005D600B120A94E9F50A8003750A00A90A73
:105820007F03020B68E0F8A3E0F98882898322E015
:10583000F5838882228A828B83A3A3A3A3A3E0F8A3
:10584000A312582FE0229002A7E0F8A3E0F9E8495C
:1058500022EAF0A3EBF0D083D082020132C082C0F2
:10586000839002A580EBC082C083900CF3E4F0A388
:10587000F0900CF574F5F0A37404F09004F57448FE
:10588000F0A37402F090073DF0A37480F0A374B409
:10589000F0A37405F0D083D08202013274F6120AAC
:1058A000967A017B00120568E5A8FEC2AFEA24FEE5
:1058B000F8EB34FFF9900CF5E8F0A3E9F012056E6F
:1058C00090036C7401F0EEA2E7A2E792AF7F0202B0
:1058D0000B6874F2120A967C007D008C09EA24029F
:1058E000FAEB3400FBA2AFE433F508C2AF90036CCF
:1058F000E06008EA9411EB9400500A900CF5E0F88F
:10590000A3E0F98004783F790788828983E0FEA3C9
:10591000E0FF548060067509000259A7E509A2E07E
:1059200050718C828D83E0F50AA3E0F50B5480F56D
:105930000DE50A2EFEE50B3F547FFFE50D4FFF8C72
:10594000828D83EEF0A3EFF0547FFFC3EE9AEF9BBE
:105950004055ECF8EDF9E8497003025A0E88828947
:1059600083E0FCA3E0547FFDECC39AFCED9BFDC3F8
:10597000EC9404ED94004056E82AF582E93BF58367
:10598000ECF0A3EDF0EB4480FB88828983EAF0A37E
:10599000EB8043EEFCEF547FFDC3EC9AED9B50B6D9
:1059A000750901E8FCE9FD88828983E0FEA3E054E3
:1059B0007FFFE82EF8E93FF988828983E0FEA3E0C3
:1059C000FFEE4F6003025909780079008040888219
:1059D0008983A3E04480F090036CE06029900CF58B
:1059E000E0FAA3E0FBE86A7002E96B70198882892B
:1059F00083E0FAA3E0547FFBE82AFAE93BFB900C32
:105A0000F5EAF0A3EBF0E82402F8E93400F9E50840
:105A1000A2E092AFE8FAE9FB7F06020B68C082C001
:105A200083EA24FEF8EB34FFF9A2AFE433FCC2AF03
:105A300088828983A3E0547FF0900CF5E0FAA3E01C
:105A4000FBE89AE99B5008900CF5E8F0A3E9F0EC2C
:105A5000A2E092AF02589574F7120A9674FC120AEB
:105A60003EE9900428F07401120A8A7401F00412CD
:105A70000A8AE4F0A3F0851982851A837402F0146F
:105A8000120A8AAC82AD8379017A027B031205DAAD
:105A90007402120A8AAC82AD8379027A037B031204
:105AA00005DA7CD07D0479197A057B031205DA7C4E
:105AB000E97D0479087A047B031205DA8519828569
:105AC0001A83AC82AD8379017A067B031205DA7CF6
:105AD000A07D007A067B001202087CA07D007A0778
:105AE0007B001202087CA07D007A087B001202086D
:105AF0007CA07D007A097B0012020879017A217B63
:105B00008E1206827A017B00900428E0F912053299
:105B10007404120A547F01020B6874F6120A96EAA2
:105B2000FEEBFF54806016900428E0F912051AEA93
:105B30004B6003120508EEFAEF64808011EEA2E0DC
